:100000000C943B040C94D11E0C94AA1E0C94630413
:100010000C9463040C9463040C9463040C946304C4
:100020000C9463040C9463040C9463040C946304B4
:100030000C9463040C9463040C9463040C946304A4
:100040000C94601E0C9463040C943C1D0C94161DBF
:100050000C9463040C9463040C9463040C94630484
:100060000C94C40D0C9463048E04C104CA04D5041A
:10007000DD04DD04DD04DD04DD04DD04DD04EB046A
:100080004F0F5A0F750F860F930FA30FB30FE00F8B
:10009000E90F1E100F101E101E10251045107410B1
:1000A000A610D51004113311611152656C617920CD
:1000B0004661696C7572653A200053657450696ECB
:1000C0004672657175656E637920666F7220636133
:1000D000722042206661696C65642100536574502A
:1000E000696E4672657175656E637920666F722000
:1000F0006361722041206661696C65642100322E63
:10010000342E300053573A00322E332E31004857E8
:100110003A004A31373732204879647261202A0028
:100120005374617274696E672048573A257320537F
:10013000573A257300506F77657220776974686449
:100140007261776E206166746572206572726F727B
:100150002064656C6179206F6E20636172204200BB
:10016000506F7765722077697468647261776E206A
:1001700061667465722070617573652064656C6179
:1001800079206F6E20636172204200423A206F66D0
:1001900066202000423A204F4E2020200044656C0B
:1001A00061796564207472616E736974696F6E2021
:1001B000636F6D706C65746564206F6E206361722F
:1001C000204200506F7765722077697468647261AD
:1001D000776E206166746572206572726F7220643A
:1001E000656C6179206F6E20636172204100506FF1
:1001F0007765722077697468647261776E206166D2
:100200007465722070617573652064656C61792016
:100210006F6E20636172204100413A206F66662054
:100220002000413A204F4E2020200044656C617927
:100230006564207472616E736974696F6E20636F98
:100240006D706C65746564206F6E2063617220410F
:100250000043617220422063757272656E7420647F
:1002600072617720256C75206D41004361722041D9
:100270002063757272656E74206472617720256CDC
:1002800075206D4100506F77657220617661696CF1
:1002900061626C6520256C75206D4100537461743A
:1002A00065733A2043617220412C2025733B204323
:1002B000617220422C20257300423A2077616974D4
:1002C0002000423A20646F6E652000413A206F663C
:1002D0006620200053657175656E7469616C206DD0
:1002E0006F6465206F666665722074696D656F75F1
:1002F000742C206D6F76696E67206F66666572205C
:10030000746F20257300423A206F666620200041FA
:100310003A20776169742000413A20646F6E65204D
:100320000053657175656E7469616C206D6F6465ED
:10033000206F666665722074696D656F75742C2018
:100340006D6F76696E67206F6666657220746F20C8
:1003500025730043617220422073746174652074B8
:1003600072616E736974696F6E3A2025732D3E2534
:10037000732E00423A206F6666202000423A206FBA
:1003800066662A2000423A202D2D2D202000436150
:1003900072204220646973636F6E6E656374656476
:1003A0002C20636C656172696E67206572726F7272
:1003B000004361722041207374617465207472611E
:1003C0006E736974696F6E3A2025732D3E25732E06
:1003D00000413A206F6666202000413A206F666631
:1003E0002A2000413A202D2D2D202000436172202B
:1003F0004120646973636F6E6E65637465642C205D
:10040000636C656172696E67206572726F72005508
:100410004E4B007365716E746C0073686172656435
:10042000004D3A004D3A504155534544002020209C
:100430002020202020002532643A253032642563B4
:100440004D200050617573696E672E0047726F759D
:100450006E64206661696C7572652064657465639D
:10046000746564206F6E2063617220420047726F72
:10047000756E64206661696C75726520646574656B
:1004800063746564206F6E20636172204100526561
:100490006C6179206661756C742064657465637441
:1004A0006564206F6E2063617220420052656C614A
:1004B00079206661756C7420646574656374656425
:1004C000206F6E20636172204100474649206661BB
:1004D000756C7420646574656374656400636C6531
:1004E00061720073657400537475636B2000474636
:1004F000492054657374204661696C7572650045C6
:1005000072724A616E4665624D61724170724D61F0
:10051000794A756E4A756C4175675365704F63749F
:100520004E6F764465630020200025326400202051
:1005300020002020200020253264002020002530CB
:100540003264002020002532640053657420436C1F
:100550006F636B00534D545754465300534D5457DB
:10056000544653002020002530326400202000250E
:100570003264002020202020202020202020202045
:100580002020200045786974002020202000456448
:100590006974204576656E742000536176696E67D4
:1005A000206576656E74202564202D2025643A250B
:1005B0006420646F775F6D61736B202578206576AA
:1005C000656E7420256400204361722025733A20F3
:1005D000256425250050696C6F7420646572617410
:1005E0006500204361722025733A202573302E2543
:1005F0006400416D6D65746572004E6F00596573DE
:100600000045786974204D656E75733F004E6F002C
:100610005965730043616C6962726174696F6E3F02
:10062000004E6F0059657300436F6E666967204521
:1006300076656E74733F004E6F0059657300456EAA
:1006400061626C65204453543F004E6F00596573DE
:100650000053657420436C6F636B3F0020416D70E5
:10066000730043757272656E7420417661696C2EF9
:100670000053657175656E7469616C0053686172D1
:100680006564004F7065726174696E67204D6F64B8
:10069000650025336C756D41002532642E2530319F
:1006A0006441004572726F72202563206F6E2025B1
:1006B0007300423A4552522000413A4552522000BE
:1006C00053657474696E672025732072656C617957
:1006D00020746F2025730050696E20256420746F8C
:1006E0002050574D2025640050696E2025642074E9
:1006F0006F206469676974616C20256400536574B8
:1007000074696E672025732070696C6F7420746F34
:100710002025730025732068696768202575206C83
:100720006F7720257520636F756E7420256C7500BA
:100730003A204F4E202020003A2077616974200033
:100740003A20646F6E6520003A206F6666202000B4
:100750003A206F66662020003A206F6666202000EF
:100760003A20646F6E6520003A206F666620200094
:100770003A20646F6E6520003A202D2D2D20200038
:100780003A206F66662020003A204F4E202020003D
:100790003A20776169742000427574746F6E20731B
:1007A000686F72742D70757368206576656E74005D
:1007B000427574746F6E206C6F6E672D7075736800
:1007C000206576656E7400427574746F6E2069736F
:1007D00020757000427574746F6E20697320646FA9
:1007E000776E00427574746F6E73202564004368E1
:1007F00065636B696E6720666F7220627574746FD3
:100800006E206576656E74000000000024002700ED
:100810002A0000000000250028002B000000000036
:100820002300260029000404040404040404020232
:10083000020202020303030303030102040810205F
:10084000408001020408102001020408102000006A
:10085000000800020100000304070000000000007F
:100860000000554E4B4E4F574E3A2000494E464FD2
:100870003A200000DE3211241FBECFEFD8E0DEBFE9
:10088000CDBF11E0A0E0B1E0ECECFFE602C00590C6
:100890000D92AA3FB107D9F724E0AAEFB1E001C059
:1008A0001D92AD3EB207E1F714E0CBE3D4E004C003
:1008B0002197FE010E945F34CA33D107C9F70E9415
:1008C00088250C94E4370C940000DF92EF92FF929D
:1008D0000F931F93CF93DF9300D000D0CDB7DEB737
:1008E000F82E0E94BB118C01FF2039F00E941E25BA
:1008F0001092CA021092C90204C08130910509F019
:1009000075C09091CA02492F50E04C30510508F053
:10091000FDC0FA01EC5CFF4F0C945F34F11005C090
:100920008091C9028F5F8093C9028091C90285308E
:1009300010F01092C902E091C902E43008F0E6C05C
:1009400024E0E29FF0011124E35FFD4F808180935A
:10095000C80291819093C70292819093C6029381BD
:100960009093C50291E08C3008F490E09093C4021B
:10097000811102C08CE00BC08D3008F4C7C08C50D0
:1009800006C08091C8028F5F8D3008F081E08093AF
:10099000C802BCC08091C7028F5F8C3318F480936B
:1009A000C702B4C01092C702B1C081E09091C402E6
:1009B000911180E08093C402A9C02CEF290F81E03F
:1009C00090E001C0880F2A95EAF79091C602892726
:1009D0008093C6029BC08091C5028F5F833018F45C
:1009E0008093C50293C01092C50290C0029709F08F
:1009F0008FC09091CA0291110FC08091C9028430BA
:100A000059F482E19FE090930501809304011092D4
:100A10004D020E941E25B6C19F5F9093CA029C3072
:100A200008F476C01091C8028091C402811103C0FD
:100A30001C3031F4A5C1813019F41C3009F0145F69
:100A4000D090C502E090C602F090C7020091C902A2
:100A50006AE975E08DE993E00E9490371F92DF927A
:100A60001F92EF921F92FF921F921F931F920F935C
:100A70008DE993E09F938F931F9282E08F930E9462
:100A800079238091C90290E0FC01EE0FFF1FEE0F69
:100A9000FF1FE35FFD4F10832091C7022183209148
:100AA000C60222832091C50223830496612F880FFA
:100AB000991F880F991F0E94100F8091C90234E07E
:100AC000839FC00111246091C70241960E94100FBC
:100AD0008091C90224E0829FC00111246091C60266
:100AE00042960E94100F8091C90234E0839FC0019A
:100AF00011246091C50243960E94100F1092CA0201
:100B00000FB6F894DEBF0FBECDBF3CC101E010E0D0
:100B10000E94541E28EE33E040E050E00E941E3454
:100B200021E0643F71408105910508F420E0012B2C
:100B300029F49091C302921709F424C12093C302AF
:100B400060E080E00E9480246EE875E08DE993E02B
:100B50000E9490376DE973E081EB94E00E94141DD0
:100B60008091C302882339F08091CA02811103C0A9
:100B700069E875E006C04091C902443069F464E850
:100B800075E08DE993E00E9490376DE973E081EBA9
:100B900094E00E94141D0CC050E04F5F5F4F052E83
:100BA000000C660B770B2AE081EB94E00E94CB1CD3
:100BB00061E080E00E9480248091C902843069F461
:100BC00063E775E08DE993E00E9490376DE973E08B
:100BD00081EB94E00E94141DD5C01091C8026FE60D
:100BE00075E08DE993E00E9490371F921F938DE985
:100BF00093E09F938F938E010F5F1F4F1F930F936F
:100C00000E94C3340F900F900F900F900F900F9091
:100C10008091C302882369F08091CA02813049F42F
:100C20006CE675E08DE993E00E9490376DE973E022
:100C300001C0B80181EB94E00E94141D8AE30E9478
:100C40007524F090C70267E675E08DE993E00E9495
:100C500090371F92FF928DE993E09F938F931F939C
:100C60000F930E94C3340F900F900F900F900F902E
:100C70000F908091C302882369F08091CA0282306C
:100C800049F464E675E08DE993E00E9490376DE9E0
:100C900073E001C0B80181EB94E00E94141D8091C3
:100CA000C302882331F08091CA02833011F480E2BC
:100CB00007C08091C402813011F081E401C080E559
:100CC0000E94752480E20E94752400E010E064E533
:100CD00075E08DE993E00E949037EDE9F3E0019033
:100CE0000020E9F73197ED59F3400E171F0758F52B
:100CF0008091CA0290E098012C5F3F4F2817390776
:100D000031F48091C302882311F080E217C08091F2
:100D1000C60290E0002E02C0959587950A94E2F7EE
:100D200080FF0BC06CE575E08DE993E00E94903781
:100D3000F801E356FC4F808101C08DE20E947524CA
:100D40000F5F1F4FC4CF80E20E9475248091CA02BA
:100D50008B3031F48091C302882311F080E20DC002
:100D60008091C502811102C08EE407C0813011F468
:100D700083E503C0823031F487E40E94752402C009
:100D800010E05ECE0F900F900F900F90DF91CF91FB
:100D90001F910F91FF90EF90DF900895CF92DF9217
:100DA000EF92FF92CF93DF9380910402882309F49E
:100DB00062C00E941F1F6B017C010E940822EC018F
:100DC0006091D8047091D9048091DA049091DB0489
:100DD0000E940822C817D90731F0C701B6010E9446
:100DE00008220E940723C701B6010E940822EC01D5
:100DF0006091D8047091D9048091DA049091DB0459
:100E00000E940822C817D90731F0C701B6010E9415
:100E100008220E9407234091DC045091DD04609178
:100E2000DE047091DF048091D8049091D904A091E0
:100E3000DA04B091DB04481759076A077B0741F1D0
:100E400084179507A607B70758F4C816D906EA0607
:100E5000FB06F0F0C416D506E606F706C8F413C084
:100E6000C416D506E606F70670F0C816D906EA06D7
:100E7000FB0648F40DC0DF91CF91FF90EF90DF901B
:100E8000CF900C941F1FA091CA04B091CB0404C052
:100E9000A091D604B091D7042CE330E00E947434C2
:100EA0006C0D7D1D8E1D9F1DDF91CF91FF90EF90EA
:100EB000DF90CF900895CF92DF92EF92FF920F9341
:100EC0001F93CF93DF93CDB7DEB72E970FB6F8946D
:100ED000DEBF0FBECDBFF82E0E94BB118C01FF20DC
:100EE00009F458C00E941E256AE475E08DE993E07C
:100EF0000E9490376DE973E081EB94E00E94141D2D
:100F00000E94CE060E94E4212091FF03222331F0AB
:100F1000822F90E02D3020F00C9702C08CE090E002
:100F20008093C8020E94CE060E94E4218091FF03B4
:100F300090E021E00C970CF420E02093C4020E9482
:100F4000CE060E94E4218091FE038093C7020E9496
:100F5000CE060E94E421809101048093C2020E9487
:100F6000CE060E94E421809102048093C1020E9477
:100F7000CE060E9408229C012A5D37402B303105A5
:100F800010F08AED97E09093C0028093BF02109218
:100F9000CA025DC08130910509F051C09091CA022A
:100FA000923001F128F4992349F0913081F09BC1EE
:100FB000943061F110F1953091F195C18091C802A2
:100FC0008F5F8D3008F081E08093C8028CC18091E2
:100FD000C7028F5F8C3318F48093C70284C11092CC
:100FE000C70281C18091C4028F5F823018F4809360
:100FF000C40279C11092C40276C18091C2028F5F8F
:10100000803208F081E08093C2026DC18091C102FC
:101010008F5F8D3008F081E08093C10264C18091C0
:10102000BF029091C0020196853E27E0920710F022
:101030008AED97E09093C0028093BF0254C102975B
:1010400009F051C18091CA028F5F8093CA028091DA
:10105000CA02863008F445C19091C4028091C8024A
:10106000911105C08C3051F41092C80207C0913024
:1010700029F48C3019F0845F8093C8028091BF02FC
:10108000825B8E878091C1028D878091C2028C879E
:101090008091C8028A878091C70289871886CE010D
:1010A00008960E94A91F6B017C018091040288238D
:1010B00009F47FC0C701B6010E9408228C0160912B
:1010C000E0047091E1048091E2049091E3040E94B5
:1010D00008220817190731F0C701B6010E9408223B
:1010E0000E940723C701B6010E9408228C0160916B
:1010F000E0047091E1048091E2049091E3040E9485
:1011000008220817190731F0C701B6010E9408220A
:101110000E9407234091DC045091DD046091DE04BD
:101120007091DF048091D8049091D904A091DA04E1
:10113000B091DB04481759076A077B0709F4FDC122
:101140004091E4045091E5046091E6047091E70455
:101150008091E0049091E104A091E204B091E30455
:1011600084179507A607B70768F4C816D906EA06D4
:10117000FB0608F4E2C1C416D506E606F70608F039
:10118000DCC10BC0C416D506E606F70630F0C8165B
:10119000D906EA06FB0608F4D0C1A091CA04B091B2
:1011A000CB042CE330E00E947434C61AD70AE80A54
:1011B000F90AC701B6010E94F81EAE014F5F5F4FEA
:1011C000C701B6010E94132188E60E94C32360E094
:1011D00085EA94E00E94F60B60E885EA94E00E94BC
:1011E000F60B8A811AE0612F0E94EA33692F30E101
:1011F000839F600D112485EA94E00E94F60B8B8199
:10120000612F0E94EA33692F20E1829F600D112433
:1012100085EA94E00E94F60B8C81612F0E94EA33EC
:10122000692F30E1839F600D112485EA94E00E94CC
:10123000F60B8D81612F0E94EA33692F20E1829F96
:10124000600D112485EA94E00E94F60B8E81612FD7
:101250000E94EA33692F30E1839F600D112485EAF3
:1012600094E00E94F60B8F818E51612F0E94EA3329
:10127000692F20E1829F600D112485EA94E00E948D
:10128000F60B0E94CD23882319F0109221031EC073
:1012900001E00093210388E60E94C32360E085EA11
:1012A00094E00E94F60B8981612F0E94EA33692F36
:1012B00030E1839F600D112485EA94E00E94F60BD3
:1012C0000E94CD238111E1CF0093210382E19FE0B1
:1012D000909305018093040110924D020E941E25F7
:1012E00031C102E010E00E94541E28EE33E040E0DD
:1012F00050E00E941E3421E0643F71408105910559
:1013000008F420E0012B29F49091C302921709F40C
:1013100019C12093C30261E080E00E9480241091F3
:10132000C80266E475E08DE993E00E9490371F9251
:101330001F938DE993E09F938F938E010F5F1F4F53
:101340001F930F930E94C3340F900F900F900F9034
:101350000F900F908091CA0281110DC08091C3023D
:10136000882349F063E475E08DE993E00E949037AB
:101370006DE973E001C0B80181EB94E00E94141D97
:101380008AE30E947524F090C7026EE375E08DE950
:1013900093E00E9490371F92FF928DE993E09F9314
:1013A0008F931F930F930E94C3340F900F900F9051
:1013B0000F900F900F908091CA02813069F4809154
:1013C000C302882349F06BE375E08DE993E00E9446
:1013D00090376DE973E001C0B80181EB94E00E94A1
:1013E000141D8091CA02823031F48091C302882397
:1013F00011F080E207C08091C402811102C081E433
:1014000001C080E50E947524F090C20266E375E099
:101410008DE993E00E9490371F92FF928DE993E04F
:101420009F938F931F930F930E94C3340F900F903D
:101430000F900F900F900F908091CA02833069F443
:101440008091C302882349F062E375E08DE993E05F
:101450000E9490376DE973E001C0B80181EB94E020
:101460000E94141D8DE20E9475248091CA0284306E
:1014700069F48091C302882349F06EE275E08DE93A
:1014800093E00E9490376DE973E019C02091C1028A
:1014900083E0289F90011124A5EBB2E080E090E06A
:1014A000FC01E20FF31FE150FB4FE491ED93019635
:1014B00083309105A9F71092B80265EB72E081EBD9
:1014C00094E00E94141D8DE20E9475248091BF0259
:1014D0009091C00264E670E00E94F633F82EE92E87
:1014E0006AE275E08DE993E00E949037EF92FF92F7
:1014F0008DE993E09F938F931F930F930E94C334C2
:101500000F900F900F900F900F900F908091CA0244
:10151000853069F48091C302882349F067E275E061
:101520008DE993E00E9490376DE973E001C0B80146
:1015300081EB94E00E94141D05C0A091D604B091E7
:10154000D7042FCE2E960FB6F894DEBF0FBECDBFB8
:10155000DF91CF911F910F91FF90EF90DF90CF908F
:10156000089560E070E081E090E00E94781460E00F
:1015700070E082E090E00E94781460E070E081E02A
:1015800090E00E941B1660E070E082E090E00E9414
:101590001B16A895FECFC82F81E00E94BD240E9493
:1015A0001E256EEE74E08DE993E00E9490376DE9A0
:1015B00073E081EB94E00E94141D61E080E00E94E2
:1015C000802467EE74E08DE993E00E9490376DE926
:1015D00073E081EB94E00E94141DCC2319F063EEBC
:1015E00074E002C06DED74E08DE993E00E949037E5
:1015F0006DE973E081EB94E00E94141D0E94B10A32
:10160000CF93DF93EC01C536D10550F064E670E06E
:1016100080E090E00E941A1EC456D109A895F3CF2D
:10162000BE0180E090E00E941A1EA895DF91CF9144
:101630000895CF92DF92EF92FF920F931F93CF9373
:10164000DF9310924C02C2E3D0E00BEF1CE761E0A5
:1016500083E00E94971DC8010197F1F760E083E0E5
:101660000E94971DC8010197F1F780914C028111EA
:1016700003C0A895219759F780914C028823B9F0AF
:101680000E94541E6B017C0124E6C20ED11CE11C99
:10169000F11C82E00E946E1D019759F4A8950E94EA
:1016A000541EC616D706E806F90698F781E00E9490
:1016B000CB0A82E390E00E94000B10924C02DF9173
:1016C000CF911F910F91FF90EF90DF90CF900895F1
:1016D00085ED8093BC008091BC0084FDFCCF10920E
:1016E0007B0308954091F602262F30E0240F311D30
:1016F00021323105DCF420917B032430C9F4FC0154
:1017000080E090E0861758F43091F6022191DC01D8
:10171000AC52BD4FA30FB11D2C930196F3CF809116
:10172000F602680F6093F60280E0089581E0089564
:1017300082E008950895E091A4048091A304E8173D
:1017400030F4F0E0EB5CFC4F808190E008958FEF87
:101750009FEF08959091A4048091A304981750F4EA
:10176000E92FF0E0EB5CFC4F208130E09F5F90932D
:10177000A40402C02FEF3FEFC90108958091A30494
:1017800090E02091A404821B91090895CF92DF92EA
:10179000EF92FF920F931F93CF93DF937C01262F3D
:1017A000972F8A0180919C03882391F0C62FD72F11
:1017B0006E01C40ED51ECC15DD0571F06991D701FF
:1017C000ED91FC910190F081E02DC7010995F3CFD7
:1017D000642F822F0E94720BC801DF91CF911F915D
:1017E0000F91FF90EF90DF90CF900895CF93DF930C
:1017F0001F92CDB7DEB7698320919C032223D1F0DD
:101800002091A104203240F021E030E0FC0133833C
:10181000228380E090E015C08091A204E82FF0E0E0
:10182000E458FC4F998190838F5F8093A20480934A
:10183000A10405C061E0CE0101960E94720B81E017
:1018400090E00F90DF91CF910895CF92DF92EF92C9
:10185000FF920F931F93CF93DF93CDB7DEB76297BD
:101860000FB6F894DEBF0FBECDBF182F0E94BB117C
:101870009C01112329F00E941E251092CB024EC01C
:101880009091CB0290FF05C0A9EEB4E0EBEEF4E03E
:1018900004C0A8EEB4E0EAEEF4E02130310521F016
:1018A00022303105A9F0D7C0923018F09430B0F54D
:1018B00007C08C918F5F86300CF08BEF8C932EC01D
:1018C00080818150863F14F0808328C0108226C01A
:1018D0009F5F9093CB02943008F168EEE62E64E0AF
:1018E000F62E00E210E0F70161917F01C8016A8BDA
:1018F0000E9497376A89681719F0C8010E949F37BC
:101900000F5F1F4F0432110571F782E19FE0909342
:1019100005018093040110924D029DC08091CB027D
:1019200080FD0BC009EB11E048EEC42E44E0D42E3C
:101930005AEEE52E54E0F52E0AC003EB11E029EE35
:10194000C22E24E0D22E3BEEE32E34E0F32E823082
:10195000A0F1843008F07FC00E941E2565ED75E07F
:101960008DE993E00E9490376DE973E081EB94E09C
:101970000E94141D61E080E00E948024F701F08045
:10198000CF2C0F2C000CDD0867EC75E08DE993E09F
:101990000E949037DF92FF921F930F938DE993E09F
:1019A0009F938F931F9281E18F938E010F5F1F4F43
:1019B0001F930F930E94933444C00E941E2562EF30
:1019C00075E08DE993E00E9490376DE973E081EB5B
:1019D00094E00E94141D61E080E00E948024F601E2
:1019E0002081822F022E000C990B97FF03C0919546
:1019F00081959109D82EC92E27FD05C099ECE92EB5
:101A000091E0F92E04C087ECE82E81E0F82E62EE1A
:101A100075E08DE993E00E949037CF92DF92FF92BC
:101A2000EF921F930F938DE993E09F938F931F92F3
:101A300081E18F938E010F5F1F4F1F930F930E94C1
:101A40009334B80181EB94E00E94141D0FB6F89412
:101A5000DEBF0FBECDBF62960FB6F894DEBF0FBEDD
:101A6000CDBFDF91CF911F910F91FF90EF90DF904D
:101A7000CF900895FF920F931F93CF93DF938C0124
:101A8000C62FF42EFC0186858130B1F56585C4FD35
:101A90006061C5FD6860C6FD6460C7FD6260D62FE9
:101AA000FF2011F0D06A01C0D0626D2FC8010E94E2
:101AB00078226D2F6F7DC8010E947822F80165851C
:101AC000C0FD6061C1FD6860C2FD6460C3FD62600D
:101AD000C62FFF2011F0C06A01C0C0626C2FC80180
:101AE0000E9478226C2F6F7DC801DF91CF911F91EA
:101AF0000F91FF900C947822607F70E07595679548
:101B0000442311F0666001C06460F801858183FDA3
:101B100002C0D0E001C0D0E8D62B6D2FC8010E94D2
:101B20005E226D2F6B7FC8010E945E22CF70CC0FAA
:101B3000CC0FCC0FFF2011F0C66001C0C460F801CB
:101B4000858183FD02C060E001C060E8C62B6C2F78
:101B5000C8010E945E226C2F6B7FC801DF91CF917C
:101B60001F910F91FF900C945E22FC01238522238C
:101B700019F041E00E943A0D81E090E00895682F4D
:101B800085EA94E00C94F60B1F920F920FB60F9219
:101B900011242F933F934F935F936F937F938F9372
:101BA0009F93AF93BF93EF93FF938091B900887F8A
:101BB000803609F49CC068F5883209F45BC090F463
:101BC000803109F454C038F4882309F4F6C0883011
:101BD00009F44DC0F6C0883109F44CC0803209F4D4
:101BE0005DC0EFC0803409F468C048F4803309F464
:101BF00055C0883309F0E5C080937903D8C080359B
:101C000009F44FC0883509F45DC0883409F0D9C0A3
:101C1000D6C0883909F4C7C0A8F4883709F467C06A
:101C200038F4883609F463C0803709F460C0C9C04D
:101C3000883809F4B8C0803909F45FC0803809F0E9
:101C4000C0C05BC0803B09F486C038F4803A09F418
:101C500066C0883A09F47FC0B4C0803C09F4A7C0CC
:101C6000883C09F4A4C0883B09F48AC0AAC08091CA
:101C7000560310C09091780380917703981770F500
:101C8000E091780381E08E0F80937803F0E0E95AC9
:101C9000FC4F80818093BB0085EC86C080937903E4
:101CA0008EC0E091780381E08E0F8093780380915D
:101CB000BB00F0E0E95AFC4F80839091780380915B
:101CC00077036EC0E091780381E08E0F80937803F4
:101CD0008091BB00F0E0E95AFC4F808380917A0349
:101CE00081116DC081E08093550384EA61C083E077
:101CF00080937B0310921A03CFCF80911A03803216
:101D000008F051C0E0911A0381E08E0F80931A030E
:101D10008091BB00F0E0E650FD4F8083BDCF85ECA5
:101D20008093BC0010927B0380911A03803230F4C0
:101D3000E0911A03F0E0E650FD4F108260911A0323
:101D400070E0E091F802F091F9028AEF92E00995D3
:101D500010921A0336C084E080937B031092F7023E
:101D60001092F602E091F402F091F502099580914B
:101D7000F602811105C081E08093F6021092D40230
:101D8000E091F70281E08E0F8093F702F0E0EC52D1
:101D9000FD4F80818093BB009091F7028091F60205
:101DA000981708F479CF85E88093BC000AC085ECC9
:101DB0008093BC0010927B0304C0109279030E94B0
:101DC000680BFF91EF91BF91AF919F918F917F91A0
:101DD0006F915F914F913F912F910F900FBE0F9098
:101DE0001F90189510927B0381E080937A031092E4
:101DF000550361E082E10E94971D61E083E10E944A
:101E0000971DE9EBF0E080818E7F808380818D7F5C
:101E1000808388E48093B80085E48093BC000895B3
:101E20000C949F37CF93C82F0E94BB11CC2361F035
:101E300083E00E94BD240E941E2587EE93E09093CC
:101E4000D3028093D2021FC0009709F472C281307E
:101E50009105B1F48091D0029091D10201969093B6
:101E6000D1028093D0022091CE023091CF02281768
:101E7000390708F0FCC01092D1021092D002F7C0CE
:101E8000029709F0F4C0E091D202F091D302E7305A
:101E9000F10508F078C0E05CFF4F0C945F3460916E
:101EA000D0028091D10260933D0280933E0280E097
:101EB00090E018C0E091D002F091D102EA5FFE4FAD
:101EC0004081242F30E0A8EEB3E00E946534609397
:101ED0001D0270931E0280931F0290932002642FB4
:101EE00082E090E00E94100F4EC08091D00290914D
:101EF000D102892B09F047C08BE597E0909305014B
:101F00008093040181E0CF910C945B0761E08091A4
:101F1000D0029091D102892B09F060E06093040215
:101F200083E090E0DFCF8091D0029091D102892BA5
:101F300051F585E694E0909305018093040181E0DA
:101F4000CF910C9465048091D0029091D102892B9D
:101F5000D1F485E29CE0909305018093040181E037
:101F6000CF910C94250C8091D0029091D102892BB5
:101F700019F410924D02DDC187EE93E09093D302E5
:101F80008093D202D6C18091D2029091D302019661
:101F90008730910528F49093D3028093D20204C035
:101FA0001092D3021092D202E091D202F091D302A9
:101FB000E730F10508F053C0E95BFF4F0C945F3444
:101FC00080913D0290913E029093D1028093D00285
:101FD00040C060911D0270911E0280911F0290917D
:101FE000200228EE33E040E050E00E941E34E6E09C
:101FF000F1E070E060E080E090E0419150E0241773
:10200000350711F4782F692F01968B309105A9F7C8
:102010007093D0026093D1028AE090E01CC081E00E
:1020200090E09093CF028093CE0290910402892792
:1020300090E09093D1028093D00211C081E090E0B3
:102040009093D1028093D00206C01092D1021092D8
:10205000D00281E090E09093CF028093CE028091F5
:10206000D0029091D1029093CD028093CC020E9435
:102070001E25E091D202F091D302E730F10508F07D
:1020800058C1E25BFF4F0C945F3463E876E08DE962
:1020900093E00E9490376DE973E081EB94E00E9439
:1020A000141D61E080E00E9480242091D0023091D4
:1020B000D1028091CC029091CD022817390711F0FE
:1020C00080E201C08BE20E9475248091D002909141
:1020D000D102009731F0019709F02BC161E776E05A
:1020E0001DC16CE776E01AC162E676E08DE993E007
:1020F0000E9490376DE973E081EB94E00E94141D1B
:1021000061E080E00E9480242091D0023091D102D1
:102110008091CC029091CD022817390711F080E20E
:1021200001C08BE20E947524E091D002F091D102AF
:10213000EA5FFE4F408150E060E070E02AE081EB12
:1021400094E00E94CB1C6CE576E0E8C061E576E0A7
:102150008DE993E00E9490376DE973E081EB94E0A4
:102160000E94141D61E080E00E9480242091D00232
:102170003091D1028091CC029091CD02281739077D
:1021800011F080E201C08BE20E9475248091D002A0
:102190009091D102009731F0019709F0CAC06AE42A
:1021A00076E0BCC06DE476E0B9C06EE376E08DE920
:1021B00093E00E9490376DE973E081EB94E00E9418
:1021C000141D61E080E00E9480242091D0023091B3
:1021D000D1028091CC029091CD022817390711F0DD
:1021E00080E201C08BE20E9475248091D002909120
:1021F000D102009731F0019709F09BC067E376E0C8
:102200008DC06AE376E08AC068E276E08DE993E00B
:102210000E9490376DE973E081EB94E00E94141DF9
:1022200061E080E00E9480242091D0023091D102B0
:102230008091CC029091CD022817390711F080E2ED
:1022400001C08BE20E9475248091D0029091D1024E
:10225000009731F0019709F06CC061E276E05EC052
:1022600064E276E05BC064E176E08DE993E00E9491
:1022700090376DE973E081EB94E00E94141D61E0FA
:1022800080E00E9480242091D0023091D102809180
:10229000CC029091CD022817390711F080E201C0DD
:1022A0008BE20E9475248091D0029091D102009718
:1022B00029F00197F1F56DE076E030C060E176E05D
:1022C0002DC061E076E08DE993E00E9490376DE9E2
:1022D00073E081EB94E00E94141D61E080E00E94B5
:1022E00080242091D0023091D1028091CC02909133
:1022F000CD022817390711F080E201C08BE20E945D
:1023000075248091D0029091D102009729F0019715
:1023100081F46AEF75E002C06DEF75E08DE993E03E
:102320000E9490376DE973E081EB94E0CF910C94BB
:10233000141DCF9108950C94973760E088E00E94B7
:10234000971D60E087E00E94971D10924502109251
:10235000440210924702109246020E94541E60935B
:1023600048027093490280934A0290934B0281E0A5
:1023700080934C0208950F931F93CF93DF936EEEDB
:1023800077E08DE993E00E9490378DE993E09F9389
:102390008F931F9283E08F930E9479230F900F9069
:1023A0000F900F908091090290910A02A0910B0268
:1023B000B0910C02892B8A2B8B2BA9F00E94541E02
:1023C0000091090210910A0220910B0230910C0237
:1023D000DC01CB01801B910BA20BB30BC297A105B3
:1023E000B10508F46BC01092090210920A02109213
:1023F0000B0210920C021091BC041123C9F08091C1
:10240000BA0480620E94C32382E10E94BF0D0E9431
:10241000CD238091BA04806261E070E090E00E9478
:102420002A2485EA94E00E94AA0B8095182F1F7138
:1024300063EE77E08DE993E00E9490371F921F933F
:10244000CDE9D3E0DF93CF931F9203E00F930E9477
:1024500079230F900F900F900F900F900F9010FF17
:1024600030C064ED77E0CE010E949037DF93CF93C8
:102470001F920F930E9479230F900F900F900F904F
:102480008091050290910602A0910702B091080286
:10249000892B8A2B8B2B91F40E94541E609305028A
:1024A00070930602809307029093080260930902DA
:1024B00070930A0280930B0290930C0280E090E0EC
:1024C00068C067EC77E08DE993E00E949037DF9376
:1024D000CF931F920F930E9479230F900F900F902C
:1024E0000F908091050290910602A0910702B09191
:1024F0000802892B8A2B8B2B09F30E94541E6093B0
:10250000090270930A0280930B0290930C020091CF
:102510000502109106022091070230910802DC01A9
:10252000CB01801B910BA20BB30B109205021092F2
:10253000060210920702109208028B3F9105A10536
:10254000B105A0F060EB77E08DE993E00E94903751
:10255000DF93CF931F9282E08F930E9479230F9095
:102560000F900F900F9082E090E013C068E977E041
:102570008DE993E00E949037DF93CF931F9282E022
:102580008F930E9479230F900F900F900F9081E00E
:1025900090E0DF91CF911F910F9108952F923F927C
:1025A0004F925F926F927F928F929F92AF92BF9263
:1025B000CF92DF92EF92FF920F931F93CF93DF930F
:1025C000CDB7DEB72E970FB6F894DEBF0FBECDBFE6
:1025D000019709F0C9C01091E80407E00E94541E59
:1025E0006D837E838F839887212C312C44244A94D9
:1025F000542C320119821A821B821C821E861D866F
:10260000812C912C54010E94541EAB01BC01DB01B2
:10261000CA01CD80DE80EF80F8848C199D09AE0957
:10262000BF098397A105B10508F09AC0802F49879B
:102630005A876B877C870E94031E6C01990FEE08F6
:10264000FF0849855A856B857C852FEF4216520617
:102650006206720659F181E091E0491692E059064E
:10266000610471040CF480E091E021E0C21622E0E4
:10267000D206E104F1040CF490E08917B9F0DB0113
:10268000CA0149805A806B807C8084199509A6090B
:10269000B7090697A105B10548F08D859E8501967D
:1026A0009E878D8749835A836B837C838D859E8526
:1026B0008130910508F451C08330910588F003976B
:1026C00009F04BC0910140E050E0C501B4010E9407
:1026D0001E3449015A01C12CD12C7601C39411C07A
:1026E000C701B6017250810991099B01AC010E949A
:1026F000DA33860E971EA81EB91E9FEF291A390AD3
:102700002CC0A7019601C701B6010E94DA338616D4
:102710009706A806B90630F02FEFC21AD20AE20ACD
:10272000F20AEFCF2150310941095109AAE6B0E080
:102730000E947B34693823E1720781059105C0F05E
:1027400024E6120280011124012E000C220B330B0F
:10275000600F711F821F931F0BC02601370153CFDB
:1027600060E070E0CB0104C01091E90406E036CFD0
:102770002E960FB6F894DEBF0FBECDBFDF91CF917E
:102780001F910F91FF90EF90DF90CF90BF90AF908F
:102790009F908F907F906F905F904F903F902F9081
:1027A00008954F925F926F927F928F929F92AF9215
:1027B000BF92DF92EF92FF920F931F93CF93DF931D
:1027C0007C01DD24D39481E0E816F10409F0D12CDA
:1027D0000E94541E2B013C01812C912C5401C0E01D
:1027E000D0E00FE017E20E94541EDC01CB018419F7
:1027F0009509A609B7094497A105B10588F48D2D5F
:102800000E94031EC817D90708F4EC01801791072E
:1028100008F48C019FEF891A990AA90AB90AE3CF33
:1028200083E0E816F10440F4F701EE0FFF1FEB5DC3
:10283000FE4FE080F18004C08BE9E82E81E0F82EA5
:1028400064E177E08DE993E00E949037BF92AF9208
:102850009F928F921F930F93DF93CF93FF92EF92EC
:102860008DE993E09F938F931F9283E08F930E9453
:1028700079230B5F11098DB79EB70E960FB6F894AA
:102880009EBF0FBE8DBF01331140A0F0C63683E05E
:10289000D80798F4CE01875093408F35910580F08A
:1028A000835A9F4F8D35910570F0C256D240C8347F
:1028B000D10560F085E090E00BC081E090E008C0B9
:1028C00082E090E005C083E090E002C084E090E008
:1028D000DF91CF911F910F91FF90EF90DF90BF900C
:1028E000AF909F908F907F906F905F904F900895E2
:1028F000CF92DF92EF92FF920F931F93CF93DF93CC
:10290000EC018B016530710540F4FB01EE0FFF1FF8
:10291000E55EFE4FC080D18004C04BE9C42E41E08B
:10292000D42EC330D10540F4FE01EE0FFF1FEB5D46
:10293000FE4FE080F18004C02BE9E22E21E0F22E70
:102940006DEF76E08DE993E00E949037DF92CF92B1
:10295000FF92EF928DE993E09F938F931F9282E015
:102960008F930E9479238DB79EB708960FB6F8947F
:102970009EBF0FBE8DBFC130D10561F0229709F017
:102980000FC11093380200933702A091EB04C9E005
:10299000D0E008C010933C0200933B02A091EA04EF
:1029A000CAE0D0E002301105E8F468EE76E08DE987
:1029B00093E00E9490371F930F93DF93CF938DE99D
:1029C00093E09F938F931F9283E08F930E947923CC
:1029D0008DB79EB708960FB6F8949EBF0FBE8DBFF9
:1029E000602F78C020911D0230911E0240911F027D
:1029F000509120020330110521F4569547953795E3
:102A00002795AA23C1F00A2E000CBB0BAC59BF4F6F
:102A10000E94863424E630E040E050E00E941E34FC
:102A2000203797E139074105510568F420E737E180
:102A300040E050E00FC0213385E7380741055105DC
:102A400008F0A9C01BC0213385E7380741055105AF
:102A500008F0A1C0CA01B9012CE330E040E050E029
:102A60000E941E34942F832F722F662728EE33E0A6
:102A700040E050E00E944034890108C0203797E1CF
:102A800039074105510530F70FEF10E067ED76E0AB
:102A90008DE993E00E9490371F930F93DF93CF93BC
:102AA0008DE993E09F938F931F9283E08F930E9411
:102AB0007923FC2E61E08C2F0E94C71D8DB79EB735
:102AC00008960FB6F8949EBF0FBE8DBF0F3F11053D
:102AD00019F461E08C2F3EC0FE01E25BF74FE491F8
:102AE000E330D1F050F4E23079F584B5806284BDF2
:102AF00027B530E0C8E4D0E043C0E430C9F0E830A6
:102B000019F58091B00080628093B0002091B300ED
:102B100030E0C4EBD0E034C08091800080688093C6
:102B200080002091860030918700C8E8D0E01CC06A
:102B30008091800080628093800020918600309197
:102B40008700CAE8D0E010C007FD02C060E001C005
:102B500061E08F2DDF91CF911F910F91FF90EF904A
:102B6000DF90CF900C94971DD8010E9465342FEF11
:102B700030E040E050E00E941E343983288310C0CA
:102B8000D8010E9465342FEF30E040E050E00E9411
:102B90001E34288305C020E335E740E050E05ACFDB
:102BA000DF91CF911F910F91FF90EF90DF90CF9029
:102BB00008959C0180913F02811139C02130310577
:102BC00021F022303105C9F0089520914202309160
:102BD00043022530310571F180912B0290912C0236
:102BE000A0912D02B0912E02892B8A2B8B2B09F5F7
:102BF000209146023091470217C020914002309147
:102C0000410225303105B1F08091270290912802D0
:102C1000A0912902B0912A02892B8A2B8B2B49F48F
:102C2000209144023091450281E0232B19F480E089
:102C3000089581E00895CF92DF92EF92FF920F9373
:102C40001F93CF93DF938C01EB018091460290910B
:102C50004702892B51F48091440290914502892BBF
:102C600021F46130710509F46AC0C530D10540F422
:102C7000FE01EE0FFF1FE55EFE4FC080D18004C055
:102C80002BE9C22E21E0D22E0330110540F4F801C9
:102C9000EE0FFF1FEB5DFE4FE080F18004C08BE97B
:102CA000E82E81E0F82E60EC76E08DE993E00E945A
:102CB0009037DF92CF92FF92EF928DE993E09F934E
:102CC0008F931F9282E08F930E9479238DB79EB7D6
:102CD00008960FB6F8949EBF0FBE8DBF0130110548
:102CE00021F00230110589F01FC0809146029091B9
:102CF00047028C179D0731F16C2F88E00E94971DC9
:102D0000D0934702C09346020FC080914402909135
:102D100045028C179D07B1F06C2F87E00E94971D2C
:102D2000D0934502C09344020E94541E609348020F
:102D30007093490280934A0290934B0203C00E9411
:102D4000190B96CFDF91CF911F910F91FF90EF90CC
:102D5000DF90CF900895CF92DF92EF92FF921F9372
:102D6000CF93DF93EC01162F0E94541E6B017C0160
:102D70001092210210922202109223021092240239
:102D8000C230D10508F03FC061E070E081E090E022
:102D90000E9478148091420290914302059771F04D
:102DA00085E090E09093430280934202C092330208
:102DB000D0923402E0923502F092360210922B0249
:102DC00010922C0210922D0210922E02209789F55B
:102DD00061E070E082E090E00E947814809140020F
:102DE00090914102059799F085E090E0909341021F
:102DF00080934002C0922F02D0923002E0923102C2
:102E0000F092320204C0C230D10549F4E1CF1092F1
:102E10002702109228021092290210922A0281E0C1
:102E20000E94BD24C230D10538F0C230D10591F5E1
:102E30001BC081E00E94BD2461E080E00E948024EC
:102E400069EB76E08DE993E00E9490376DE973E0DD
:102E500081EB94E00E94141D812F0E94752480E272
:102E60000E947524209709F761E088E00E94802481
:102E700062EB76E08DE993E00E9490376DE973E0B4
:102E800081EB94E00E94141D812F0E94752480E242
:102E90000E947524C330D10540F4CC0FDD1FCB5DFB
:102EA000DE4F0990D881C02D02C0CBE9D1E063EAA2
:102EB00076E08DE993E00E949037DF93CF93812FE6
:102EC000012E000C990B9F931F938DE993E09F9324
:102ED0008F931F9281E08F930E9479238DB79EB7C5
:102EE00008960FB6F8949EBF0FBE8DBFDF91CF91AD
:102EF0001F91FF90EF90DF90CF900895CF92DF92D7
:102F0000EF92FF920F931F93CF93DF938130910540
:102F100051F4E2E4F2E042E0E42EF12C5BE2C52E53
:102F200052E0D52E09C0E0E4F2E0EE24E394F12C67
:102F300037E2C32E32E0D32E718360836530710592
:102F400050F48B01EC016330710508F06CC0613006
:102F5000710580F4F6C06530710509F0F2C065E4D2
:102F6000DF91CF911F910F91FF90EF90DF90CF9065
:102F70000C94AB1660E070E00E941B160130110546
:102F800041F0C7010E94D915811106C064E070E0CC
:102F900005C061E070E002C063E070E0CE010E9415
:102FA0007814C130D10511F088E001C080E061E003
:102FB0000E948024219719F063EB71E002C069EB55
:102FC00071E081EB94E00E94141D0130110519F0AD
:102FD00063ED71E002C06BEC71E081EB94E00E9464
:102FE000141DF6011082118212821382F1E0EF1695
:102FF000F10429F480913B0290913C0204C080913D
:10300000370290913802039709F09BC064E070E0AA
:10301000C701DF91CF911F910F91FF90EF90DF904B
:10302000CF900C9478140E94D91581118AC0C701E1
:103030000E94D9158823C9F10E94541EF6016083AD
:1030400071838283938363E070E0C7010E947814E8
:1030500063E070E0CE010E947814C130D10511F018
:1030600088E001C080E061E00E948024219719F08F
:1030700063EB71E002C069EB71E081EB94E00E94C8
:10308000141D60E977E08DE993E00E9490376DE9C7
:1030900073E081EB94E0DF91CF911F910F91FF904E
:1030A000EF90DF90CF900C94141DF1E0EF16F10437
:1030B00029F480913B0290913C0204C08091370238
:1030C00090913802049729F463E070E0C7010E94F0
:1030D000781464E070E0CE010E947814F60110824A
:1030E000118212821382C130D10511F088E001C033
:1030F00080E061E00E948024C130D10519F063EBCB
:1031000071E002C069EB71E081EB94E00E94141D54
:1031100068E877E08DE993E00E9490376DE973E00D
:1031200081EB94E00E94141D61E070E0CE01DF911C
:10313000CF911F910F91FF90EF90DF90CF900C9463
:103140001B16DF91CF911F910F91FF90EF90DF90B1
:10315000CF9008956F927F928F929F92AF92BF927D
:10316000CF92DF92EF92FF920F931F93CF93DF9353
:10317000EC016B01019709F00EC260904002709063
:10318000410202E010E032E4832E32E0932E46E268
:10319000E42E42E0F42E55E2A52E52E0B52E85E055
:1031A000C816D10478F4E3E0CE16D10408F09AC131
:1031B000F1E0CF16D10469F082E0C816D10409F419
:1031C00069C0E5C1E5E0CE16D10409F0E0C165E4CF
:1031D000CDC160E070E0CE010E941B1661E070E09E
:1031E000CE010E94781410922102109222021092B5
:1031F000230210922402F2E06F16710431F564E0AC
:1032000070E0C8010E9478140130110511F088E0C7
:1032100001C080E061E00E9480240130110519F0B6
:1032200063EB71E002C069EB71E081EB94E00E9416
:10323000141D60E877E08DE993E00E9490376DE916
:1032400073E081EB94E00E94141DC130D10511F0B0
:1032500088E001C080E061E00E948024219719F09D
:1032600063EB71E002C069EB71E081EB94E00E94D6
:10327000141D68E777E08DE993E00E9490376DE9CF
:1032800073E081EB94E00E94141DF7011082F501B8
:1032900010827DC160E070E0CE010E941B16F40137
:1032A000808191810397029708F092C0F2E06F1637
:1032B000710409F064C0F501808181110AC061E0E8
:1032C00070E0CE010E94781464E070E0C8010E94B2
:1032D00078140130110511F088E001C080E061E050
:1032E0000E9480240130110519F063EB71E002C0E7
:1032F00069EB71E081EB94E00E94141DF50180817F
:10330000882319F060E777E002C068E677E08DE98E
:1033100093E00E9490376DE973E081EB94E00E94A6
:10332000141DC130D10511F088E001C080E061E0DA
:103330000E948024219719F063EB71E002C069EBD1
:1033400071E081EB94E00E94141D60E677E08DE966
:1033500093E00E9490376DE973E081EB94E00E9466
:10336000141D81E0F70180830E94541E60932102A6
:1033700070932202809323029093240208C1C130EB
:10338000D10511F088E001C080E061E00E94802456
:10339000219719F063EB71E002C069EB71E081EBFA
:1033A00094E00E94141D68E577E08DE993E00E94A7
:1033B00090376DE973E081EB94E00E94141D109248
:1033C0002102109222021092230210922402DFC0E6
:1033D000F1E06F16710441F564E070E0CE010E94E7
:1033E0007814F7011082F5011082109221021092D8
:1033F00022021092230210922402C130D10511F052
:1034000088E001C080E061E00E948024219719F0EB
:1034100063EB71E002C069EB71E081EB94E00E9424
:10342000141D60E577E035C0E89461F86728E1F5A0
:103430000091390210913A020C171D0709F0BEC025
:10344000F7018081811130C064E070E0CE010E94FC
:1034500078140E94541E609321027093220280937C
:10346000230290932402219711F088E001C080E0AC
:1034700061E00E9480240130110519F063EB71E0D6
:1034800002C069EB71E081EB94E00E94141D68E4D6
:1034900077E08DE993E00E9490376DE973E081EB6E
:1034A00094E00E94141D73C0C130D10511F088E072
:1034B00001C080E061E00E948024219719F063EB55
:1034C00071E002C069EB71E081EB94E00E94141D91
:1034D000F7018081882319F060E477E0DACF68E3B0
:1034E00077E0D7CFCE010E94D915811150C0C130ED
:1034F000D10529F480913B0290913C0204C0809157
:10350000370290913802049711F064E52FC01092B1
:103510002102109222021092230210922402C13042
:10352000D10511F088E001C080E061E00E948024B4
:10353000C130D10519F063EB71E002C069EB71E0B5
:1035400081EB94E00E94141D60E377E08DE993E045
:103550000E9490376DE973E081EB94E00E94141DA6
:1035600061E070E0CE010E941B1611C0CE01DF9118
:10357000CF911F910F91FF90EF90DF90CF90BF9070
:10358000AF909F908F907F906F900C94AB16F4014A
:10359000D182C08213C0609042027090430201E069
:1035A00010E080E4882E82E0982E95E2E92E92E0E9
:1035B000F92E26E2A22E22E0B22EF1CDDF91CF919C
:1035C0001F910F91FF90EF90DF90CF90BF90AF9041
:1035D0009F908F907F906F900895CF92DF92EF929F
:1035E000FF920F931F93CF93DF9300D000D0CDB7FE
:1035F000DEB76B017C012AE030E040E050E00E9441
:103600001E3488EEC81683E0D806E104F104B8F44D
:1036100062E976E08DE993E029833A834B835C830A
:103620000E949037AAE0B0E029813A814B815C8109
:103630000E947B349F938F937F936F9331C0CA0115
:10364000B90124E630E040E050E00E941E34CB0196
:103650006AE070E00E940A3421E030E0059714F43B
:1036600020E030E08B01020F131FC701B60128EEE6
:1036700033E040E050E00E941E3479010A30110529
:1036800029F49FEFE91AF90A00E010E069E976E011
:103690008DE993E00E9490371F930F93FF92EF9272
:1036A0008DE993E09F938F938BE193E09F938F93AA
:1036B0000E94C3340FB6F894DEBF0FBECDBF8BE1BE
:1036C00093E00F900F900F900F90DF91CF911F918B
:1036D0000F91FF90EF90DF90CF900895CF92DF92FF
:1036E000EF92FF920F931F93CF93DF936C017A01B8
:1036F0008B01C0E0D0E0CE15DF0589F0D8016D91D7
:103700008D01D601ED91FC910190F081E02DC60173
:103710000995892B11F47E0102C02196ECCFC701D7
:10372000DF91CF911F910F91FF90EF90DF90CF909D
:103730000895FC01918D828D981761F0828DDF01D3
:10374000A80FB11D5D968C91928D9F5F9F73928F94
:1037500090E008958FEF9FEF0895FC01918D828D89
:10376000981731F0828DE80FF11D858D90E0089556
:103770008FEF9FEF0895FC01918D228D892F90E0AE
:10378000805C9F4F821B91098F739927089584E075
:1037900094E00E94BB1B21E0892B09F420E0822FDA
:1037A0000895FC01848DDF01A80FB11DA35ABF4FFE
:1037B0002C91848D90E001968F739927848FA68930
:1037C000B7892C93A089B1898C9180648C93938D57
:1037D000848D981306C00288F389E02D80818F7D47
:1037E00080830895EF92FF920F931F93CF93DF93FF
:1037F000EC0181E0888F9B8D8C8D981305C0E88942
:10380000F989808185FD24C0F62E0B8D10E00F5FB5
:103810001F4F0F731127E02E8C8DE8120CC00FB6CE
:1038200007FCFACFE889F989808185FFF5CFCE01C1
:103830000E94D11BF1CF8B8DFE01E80FF11DE35AE1
:10384000FF4FF0820B8FEA89FB898081806207C07D
:10385000EE89FF896083E889F989808180648083AB
:1038600081E090E0DF91CF911F910F91FF90EF9059
:103870000895CF93DF93EC01888D8823C9F0EA89FE
:10388000FB89808185FD05C0A889B9898C9186FD59
:103890000FC00FB607FCF5CF808185FFF2CFA88956
:1038A000B9898C9185FFEDCFCE010E94D11BE7CF66
:1038B000DF91CF91089580E090E0892B29F00E945C
:1038C000C71B81110C9400000895833081F028F407
:1038D000813099F08230A1F008958730A9F08830C6
:1038E000B9F08430D1F4809180008F7D03C0809145
:1038F00080008F7780938000089584B58F7702C011
:1039000084B58F7D84BD08958091B0008F7703C00A
:103910008091B0008F7D8093B00008953FB7F894F8
:103920008091310390913203A0913303B09134031D
:1039300026B5A89B05C02F3F19F00196A11DB11D0A
:103940003FBFBA2FA92F982F8827820F911DA11D45
:10395000B11DBC01CD0142E0660F771F881F991F82
:103960004A95D1F7089508950E948E346115710526
:1039700079F0FB0101900020E9F73197AF01461B78
:10398000570BDC01ED91FC910280F381E02D09944D
:1039900080E090E008954F925F926F927F92EF9255
:1039A000FF920F931F93CF93DF93CDB7DEB7A1970D
:1039B0000FB6F894DEBF0FBECDBF7C01FA01CB017C
:1039C00019A2223008F42AE08E010F5D1F4F422E0B
:1039D000512C612C712CBF01A30192010E941E3455
:1039E000F901CA01015011096A3014F4605D01C087
:1039F000695CD8016C93232B242B252B61F7B8012C
:103A0000C7010E94B61CA1960FB6F894DEBF0FBE88
:103A1000CDBFDF91CF911F910F91FF90EF907F90DD
:103A20006F905F904F9008950C94B61C1F920F9268
:103A30000FB60F9211242F933F934F935F936F9381
:103A40007F938F939F93AF93BF93EF93FF9384E004
:103A500094E00E94D11BFF91EF91BF91AF919F9194
:103A60008F917F916F915F914F913F912F910F9027
:103A70000FBE0F901F9018951F920F920FB60F92C6
:103A800011242F938F939F93EF93FF93E09114044E
:103A9000F09115048081E0911A04F0911B0482FDDD
:103AA00012C0908180911D048F5F8F7320911E043E
:103AB000821751F0E0911D04F0E0EC5FFB4F958F11
:103AC00080931D0401C08081FF91EF919F918F91A0
:103AD0002F910F900FBE0F901F901895CF93DF93EB
:103AE000282F30E0F901E25BF74F8491F901E65CA1
:103AF000F74FD491F901EA5DF74FC491CC2391F0CF
:103B000081110E94651CEC2FF0E0EE0FFF1FE45EB8
:103B1000F74FA591B491EC91ED2381E090E021F471
:103B200080E002C080E090E0DF91CF9108951F9384
:103B3000CF93DF93282F30E0F901E25BF74F8491B8
:103B4000F901E65CF74FD491F901EA5DF74FC491B2
:103B5000CC23C9F0162F81110E94651CEC2FF0E0D8
:103B6000EE0FFF1FEE5EF74FA591B4918FB7F8945B
:103B7000111105C09C91ED2FE095E92302C0EC9155
:103B8000ED2BEC938FBFDF91CF911F910895CF93D1
:103B9000DF9390E0FC01E65CF74F2491FC01EA5DC5
:103BA000F74F8491882361F190E0880F991FFC0101
:103BB000E85FF74FC591D491FC01EE5EF74FA591F8
:103BC000B491611109C09FB7F89488812095822330
:103BD0008883EC912E230BC0623061F49FB7F89478
:103BE0003881822F809583238883EC912E2B2C9310
:103BF0009FBF06C08FB7F894E8812E2B28838FBF14
:103C0000DF91CF9108958E3008F08E5087708064D8
:103C100080937C0080917A00806480937A00809108
:103C20007A0086FDFCCF809178002091790090E0A9
:103C3000922B08958F929F92AF92BF92CF92DF9274
:103C4000EF92FF926B017C010E948E1C4B015C0184
:103C5000C114D104E104F104F1F00E948E1CDC01D6
:103C6000CB0188199909AA09BB09883E9340A1058F
:103C7000B10570F321E0C21AD108E108F10888EE1D
:103C8000880E83E0981EA11CB11CC114D104E1046C
:103C9000F10419F7DDCFFF90EF90DF90CF90BF9048
:103CA000AF909F908F9008952FB7F89460912D0357
:103CB00070912E0380912F03909130032FBF0895B0
:103CC0001F920F920FB60F9211242F933F938F9351
:103CD0009F93AF93BF9380912D0390912E03A0915A
:103CE0002F03B091300330912C0323E0230F2D37A5
:103CF00020F40196A11DB11D05C026E8230F0296F0
:103D0000A11DB11D20932C0380932D0390932E03AE
:103D1000A0932F03B093300380913103909132032D
:103D2000A0913303B09134030196A11DB11D80937E
:103D3000310390933203A0933303B0933403BF91C4
:103D4000AF919F918F913F912F910F900FBE0F9048
:103D50001F9018951F920F920FB60F9211242F9358
:103D60003F934F935F936F937F938F939F93AF9303
:103D7000BF93EF93FF93E0910201F0910301099546
:103D8000FF91EF91BF91AF919F918F917F916F9133
:103D90005F914F913F912F910F900FBE0F901F9009
:103DA00018951F920F920FB60F9211242F933F93E5
:103DB0004F935F936F937F938F939F93AF93BF9333
:103DC000EF93FF93E0910001F09101010995FF91BC
:103DD000EF91BF91AF919F918F917F916F915F9183
:103DE0004F913F912F910F900FBE0F901F901895FC
:103DF0006093FE017093FF01809300029093010293
:103E0000DC01CB01845D9E4FAF4FBF4F8093FA0121
:103E10009093FB01A093FC01B093FD0182E090E040
:103E200090932B0380932A030E94541E60932603D1
:103E30007093270380932803909329030895CF92CA
:103E4000DF92EF92FF920F931F930E94541EC09037
:103E50002603D0902703E0902803F09029038B01DC
:103E60009C010C191D092E093F098091FE019091BA
:103E7000FF01A0910002B0910102083E134021050C
:103E80003105D0F00196A11DB11D8093FE019093E4
:103E9000FF01A0930002B0930102B701A6014851AF
:103EA0005C4F6F4F7F4F40932603509327036093DF
:103EB000280370932903C9CF4091FA015091FB0167
:103EC0006091FC017091FD0184179507A607B70763
:103ED00088F1E0910202F0910302309759F10995BF
:103EE000611571058105910519F00E94F81E22C027
:103EF0008091FE019091FF01A0910002B09101021A
:103F0000845D9E4FAF4FBF4F8093FA019093FB01AA
:103F1000A093FC01B093FD0181E090E020912A0381
:103F200030912B03232B11F480E090E090932B032E
:103F300080932A036091FE017091FF01809100023D
:103F4000909101021F910F91FF90EF90DF90CF9021
:103F500008956F927F928F929F92AF92BF92CF926D
:103F6000DF92EF92FF920F931F93CF93DF93EC01B9
:103F7000EE81AE2FB0E020E833E341EE51E00E9445
:103F80007B344B015C0122EB37E0FD0104E610E0DD
:103F900080E9E82EFF24F394C901825B97408E17D5
:103FA0009F07DCF4C90183709927892B99F4C90113
:103FB000B8010E940A34892B31F4C901B7010E946B
:103FC0000A34892B39F480E8880E81E5981E81E057
:103FD000A81EB11C2F5F3F4FDFCF6D80712CEE54B8
:103FE000F84FCF0164E670E00E940A347C01CF01F3
:103FF00060E971E00E940A346C0101E010E0E370B6
:10400000FF27061517052CF50230110581F43097AE
:1040100071F4E114F10419F4C114D10441F480E8FD
:10402000880E8BE3981E86E2A81EB11C0FC0D80133
:10403000A65DBE4FAC91B0E020E831E541E050E034
:104040000E947B34860E971EA81EB91E0F5F1F4F5D
:10405000D8CF49812A8130E0A0E1BEE00E946534DA
:104060006B017C01242F30E0ACE3B0E00E946534AA
:10407000DC01CB018C0D9D1DAE1DBF1D28816C0187
:104080007D01C20ED11CE11CF11CAC81B0E0119786
:1040900020E831E541E050E00E948634DC01CB01AC
:1040A0008C0D9D1DAE1DBF1DBC01CD01680D791D80
:1040B0008A1D9B1DDF91CF911F910F91FF90EF9073
:1040C000DF90CF90BF90AF909F908F907F906F9038
:1040D00008951F93CF93DF93CDB7DEB727970FB621
:1040E000F894DEBF0FBECDBF88E60E94C32360E018
:1040F00085EA94E00E94F60B0E94CD23882319F0F4
:104100001092210383C081E08093210367E070E077
:1041100088E690E00E942A248091A30490E02091F8
:10412000A404821B910907970CF470C085EA94E0FF
:104130000E94AA0B182F8695869586958E70982FCB
:10414000990F990F890F912F9F70890F898385EAA5
:1041500094E00E94AA0B282F22952F70982F9F7011
:104160008AE0289F900D11249A8385EA94E00E94AA
:10417000AA0B982F282F2695269526952670822FF4
:10418000880F880F280F9F70920F9B8385EA94E019
:104190000E94AA0B282F22952F70982F9F708AE0DB
:1041A000289F900D11249C8385EA94E00E94AA0B1D
:1041B000282F22952F70982F9F708AE0289F900DAE
:1041C00011249D8385EA94E00E94AA0B282F229552
:1041D0002F70982F9F708AE0289F900D11249E8346
:1041E00085EA94E00E94AA0B982F9F70925E282F78
:1041F00022952F708AE0289F900D11249F8317FD30
:1042000005C0CE0101960E94A91F03C060E070E0C6
:10421000CB0127960FB6F894DEBF0FBECDBFDF915E
:10422000CF911F9108956F927F928F929F92AF923C
:10423000BF92CF92DF92EF92FF920F931F93CF9393
:10424000DF93EA012CE3C22ED12CE12CF12CA70143
:1042500096010E941E346883CA01B901A701960124
:104260000E941E346983CA01B90128E130E040E0B0
:1042700050E00E941E3469017A016A83CA01B901C3
:104280006C5F7F4F8F4F9F4F27E030E040E050E062
:104290000E941E346F5F6B83812C912C540140E08F
:1042A00034E6632E712C00E911E0242F30E02E5407
:1042B000384FF901E370FF27309789F4C901B30142
:1042C0000E940A34892B31F4C901B8010E940A34D2
:1042D000892B29F48EE691E0A0E0B0E004C08DE6E1
:1042E00091E0A0E0B0E0880E991EAA1EBB1ED50189
:1042F000C401AA27BB27C816D906EA06FB0610F098
:104300004F5FD3CF4E83309799F4C90164E670E0D4
:104310000E940A34892B39F4C90160E971E00E94D6
:104320000A34892B29F48EE691E0A0E0B0E004C0C5
:104330008DE691E0A0E0B0E0881A990AAA0ABB0ACB
:10434000C818D908EA08FB08C90164E670E00E94B1
:104350000A348C01C90160E971E00E940A34ABE2C1
:10436000B1E020E0213041F4309751F401151105FE
:1043700029F4009729F402C04C9103C04DE101C01B
:104380004CE150E060E070E0C416D506E606F706A2
:1043900040F0C41AD50AE60AF70A2F5F11962C30AE
:1043A00009F72F5F2D83C394CC82DF91CF911F91AA
:1043B0000F91FF90EF90DF90CF90BF90AF909F90C4
:1043C0008F907F906F900895CF92DF92EF92FF923F
:1043D000C0902203D0902303E0902403F0902503A3
:1043E0006C157D058E059F0571F06B017C014DEF0D
:1043F00053E00E941321C0922203D0922303E09243
:104400002403F0922503FF90EF90DF90CF90089562
:104410000E94E4218091030490E08E54984F089507
:10442000CF92DF92EF92FF92CF936B017C019B01C1
:10443000AC016EEF7FEF81E090E00E94DA339B01E8
:10444000AC0160E074E284EF90E00E941E34C0E0B2
:10445000EC2FF0E0EE0FFF1FE15BFE4F80819181BA
:10446000CF5F82179307A0F3A7019601220F331F96
:10447000441F551FEC2FF0E0EE0FFF1FE15BFE4FD6
:10448000A081B1810E947B349B01AC0160E074E2A9
:1044900084EF90E00E941E343093870020938600C2
:1044A00080918100C770887FC82BC093810081E014
:1044B000CF91FF90EF90DF90CF900895CF93DF934F
:1044C0001F92CDB7DEB7FC018185806269830E94AF
:1044D000C32389E00E94BF0D6981862F0E94BF0D12
:1044E0000E94CD238111FCCF0F90DF91CF910895D1
:1044F000CF93DF931F92CDB7DEB7FC018185806239
:1045000069830E94C32383E10E94BF0D6981862FC6
:104510000E94BF0D0E94CD238111FCCF0F90DF912F
:10452000CF9108958F929F92AF92BF92CF92DF92D8
:10453000EF92FF920F931F93CF93DF93CDB7DEB728
:1045400064970FB6F894DEBF0FBECDBF5F87798B3F
:10455000F42E411109C06F5F6D3040F02FEFC21A89
:10456000D20A21E061E003C0242F01C021E0898943
:104570008B831A82198281E08D836E838EE48C0D89
:104580008F83CE0101962C8B0E94A91F4B015C01E9
:104590000F8510E00E94E4212C8930E02150310980
:1045A00087E0829FF001839FF00D11248091000429
:1045B0009801281B3109C901079667E070E00E9445
:1045C0000A34DF01A80FB91F20E831E541E050E0CF
:1045D0000E948634680D791D8A1D9B1DF11004C050
:1045E00060587A438940910964960FB6F894DEBF0B
:1045F0000FBECDBFDF91CF911F910F91FF90EF9034
:10460000DF90CF90BF90AF909F908F9008958F9242
:104610009F92AF92BF92CF92DF92EF92FF920F9351
:104620001F93CF93DF936C01E090C004F090C1041E
:104630000091C2041091C3042091C4043091C504B8
:104640004091C6045091C7046091C8047091C90498
:104650008091CA049091CB040E949222C0ECD4E0D5
:1046600068A379A38AA39BA3ECECF4E0E080F1803B
:10467000028113812481358146815781608571854E
:10468000828593850E9492226B017C016CA37DA39D
:104690008EA39FA3AE89BF892CE330E00E947434BF
:1046A00008A119A12AA13BA148015901861A970A1C
:1046B000A80AB90A888E998EAA8EBB8EAA85BB8558
:1046C0002CE330E00E947434C61AD70AE80AF90ACB
:1046D000CC8EDD8EEE8EFF8EDF91CF911F910F91EC
:1046E000FF90EF90DF90CF90BF90AF909F908F9012
:1046F00008950F931F93CF93DF93CDB7DEB7C056C6
:10470000D1090FB6F894DEBF0FBECDBFA9960EAD8E
:104710001FADA9970230110550F59E0125593F4F55
:104720004DE953E060E670E0CE0101960E94E63468
:104730000130110519F46CE678E002C062E678E019
:104740008DE993E00E9490376DE973E084E094E096
:104750000E94141DBE016F5F7F4F84E094E00E94B1
:10476000B61C67EF71E084E094E00E94B61CC05A6A
:10477000DF4F0FB6F894DEBF0FBECDBFDF91CF91F4
:104780001F910F91089591E090939C038093EC0406
:104790001092A2041092A10408952091A104909176
:1047A000EC04213208F04AC080917B038111FCCFD8
:1047B00032E030937B0331E030937A033FEF309364
:1047C00079031092780320937703ACE7B3E047E5D1
:1047D00053E0FA013E2F341B321718F43D91319308
:1047E000F9CF1092560320915603990F922B909374
:1047F000560390915503913061F4109255039091B6
:1048000056039093BB009091BC0093FDF8CF95ECBC
:1048100001C095EE9093BC0090917B039230E1F340
:10482000909179039F3F79F080917903803241F034
:1048300080917903803331F084E005C081E003C0CA
:1048400082E001C083E01092A2041092A1041092B1
:104850009C03089590917B039111FCCF613208F085
:1048600060E291E090937B0390937A032FEF209383
:10487000790310927803260F2093770390935603C1
:1048800090915603880F892B80935603809155038E
:10489000813061F410925503809156038093BB00E0
:1048A0008091BC0083FDF8CF85EC01C085EE80933C
:1048B000BC0080917B038130E1F3809178038617FF
:1048C00010F460917803A7E5B3E025E333E0F90144
:1048D0008E2F821B861718F48D918193F9CF109239
:1048E000A4046093A304862F0895E091B104F0918D
:1048F000B2040190F081E02D682F81EB94E00994DF
:10490000CF93DF93CDB7DEB728970FB6F894DEBF0D
:104910000FBECDBF2091BC04222331F128E0E7E394
:10492000F1E0DE01119601900D922A95E1F72091B8
:10493000B804261710F46FEF620FFE013196E60FF0
:10494000F11DE60FF11D9081682F690F606840E04E
:1049500081EB94E028960FB6F894DEBF0FBECDBF72
:10496000DF91CF910C943A0D28960FB6F894DEBFE4
:104970000FBECDBFDF91CF910895CF93DF9390917C
:10498000BC04992309F457C09091BB04992311F0FA
:1049900097E089279091BF049130C1F580FD03C055
:1049A00020EC31E002C020E831E03093BE042093D7
:1049B000BD0481FF09C02091BD043091BE042F7752
:1049C0003093BE042093BD0482FF09C08091BD04D2
:1049D0009091BE049E7F9093BE048093BD04D091BD
:1049E000BD04C091BE048091BA0480620E94C323BA
:1049F00082E10E94BF0D8D2F0E94BF0D8C2F0E945F
:104A0000BF0D0E94CD238111FCCF15C09091B6043B
:104A1000882311F0986001C0977F9093B60480912D
:104A2000B604682F687083FD60E881EB94E0DF9145
:104A3000CF910C945E22DF91CF9108958091BC04B8
:104A4000882351F040E061E081EB94E00E943A0D50
:104A50008BE39FE10197F1F70895CF92DF92EF92F8
:104A6000FF920F931F93CF93E82F880FFF0BE25B0A
:104A7000F74FE4918DEF8E0F823068F468EE73E0AB
:104A800080E090E0CF911F910F91FF90EF90DF9029
:104A9000CF900C941022E83091F5C0E00FE110E0C7
:104AA000C12C94E2D92E94EFE92EF12CCF5FEC2F9C
:104AB000F0E0EE0FFF1FE15CFE4F808191818017D7
:104AC0009107A0F38C019C01A0EDB7E00E94653432
:104AD0009B01AC01C701B6010E941E342F3F310576
:104AE0004105510509F010F72093B3008091B10002
:104AF000C770887FC82BC093B10081E001C080E0FF
:104B0000CF911F910F91FF90EF90DF90CF9008957C
:104B1000CF93DF93CDB7DEB761970FB6F894DEBFC2
:104B20000FBECDBF789484B5826084BD84B58160AA
:104B300084BD85B5826085BD85B5816085BD809168
:104B40006E00816080936E001092810080918100E0
:104B500082608093810080918100816080938100D8
:104B6000809180008160809380008091B10084609A
:104B70008093B1008091B00081608093B0008091FB
:104B80007A00846080937A0080917A0082608093BA
:104B90007A0080917A00816080937A0080917A0017
:104BA000806880937A001092C10014BE9EE088E174
:104BB0000FB6F894A895809360000FBE90936000A4
:104BC000E0911404F091150412E01083E0911004B8
:104BD000F09111041082E0911204F09113048FEC13
:104BE000808310921C04E0911804F091190486E06F
:104BF0008083E0911604F0911704808180618083A6
:104C0000E0911604F0911704808188608083E09120
:104C10001604F0911704808180688083E091160467
:104C2000F091170480818F7D808360E271E08DE9CF
:104C300093E00E94903783EA91E09F938F9389EAF3
:104C400091E09F938F938DE993E09F938F931F92B1
:104C50001F930E947923809180008C7F8093800035
:104C600080918100877E80618093810064EF71E094
:104C700080E090E00E9410228091B0008C7F8160E3
:104C80008093B0008091B10088608093B1000FB62E
:104C9000F894DEBF0FBECDBF10E02EE3E22EF12C64
:104CA000812C34E2932E34EFA32EB12C1F5FE12F21
:104CB000F0E0EE0FFF1FE15CFE4F808191818E15C9
:104CC0009F05A0F37C019C01A8EEB3E00E9465342F
:104CD0009B01AC01C501B4010E941E342F3F310578
:104CE0004105510509F010F72093B3008091B10000
:104CF0001770887F182B1093B10081E08093BF0458
:104D000062E370E080E090E00E941A1E1092A4041A
:104D10001092A3041092A2041092A1040E94F20E19
:104D20009091BF048091BA048062913069F50E942D
:104D3000C32380E00E94BF0D8FE10E94BF0D0E943F
:104D4000CD23882339F08091BC04823019F410926D
:104D5000BC04EDC08091BA0480620E94C3238CE041
:104D60000E94BF0D8FE10E94BF0D0E94CD238823BA
:104D700021F08091BC04823051F38091BA048062AA
:104D80000E94C32381E032C00E94C32380E00E94BE
:104D9000BF0D8FEF0E94BF0D80E00E94BF0D80E02D
:104DA0000E94BF0D80E00E94BF0D80E00E94BF0DF9
:104DB00080E00E94BF0D80E00E94BF0D80E00E9455
:104DC000BF0D80E00E94BF0D80E00E94BF0D0E94D9
:104DD000CD23882329F08091BC04823009F4B7CF19
:104DE0008091BA0480620E94C32380E00E94BF0DBC
:104DF00080E00E94BF0D0E94CD23882329F080917E
:104E0000BC04823009F4A3CF8091BC04823019F431
:104E100081E08093BC048091B50488608093B504E0
:104E200082E08093B8041092B9048091BF0481306D
:104E3000E1F41092BE041092BD0413E068E381EB2C
:104E400094E00E94782268E181EB94E00E9478224D
:104E50001150A1F768E281EB94E00E94782268E0AB
:104E600081EB94E00E94782228C06CE981EB94E009
:104E70000E945E2268E981EB94E00E945E226CE968
:104E800081EB94E00E945E2268E981EB94E00E944D
:104E90005E226CE981EB94E00E945E2268E981EB7E
:104EA00094E00E945E2264E981EB94E00E945E221D
:104EB00060E981EB94E00E945E2265E070E080E0B2
:104EC00090E00E941A1E6091B504606240E081EBA0
:104ED00094E00E943A0D65E070E080E090E00E946E
:104EE0001A1E6091B504606240E081EB94E00E947C
:104EF0003A0D65E070E080E090E00E941A1E8CE0C0
:104F00008093B6048091BC04882331F040E06CE0CB
:104F100081EB94E00E943A0D0E941E2582E080936E
:104F2000B70440E066E081EB94E00E943A0D87E030
:104F30000E94BD240E941E2560E080E00E94802423
:104F400062E171E08DE993E00E9490376DE973E0D2
:104F500081EB94E00E94141D61E080E00E948024B7
:104F60006EE071E08DE993E00E9490376DE973E0A7
:104F700081EB94E00E94141D68E071E08DE993E0FC
:104F80000E9490376DE973E081EB94E00E94141D5C
:104F900064E071E08DE993E00E9490376DE973E081
:104FA00081EB94E00E94141D6EEF70E08DE993E0B8
:104FB0000E9490376DE973E081EB94E00E94141D2C
:104FC00060E082E00E94C71D61E083E00E94C71D8F
:104FD00060E083E00E94971D8DE991E190930101CB
:104FE0008093000180916900836080936900E89A52
:104FF00061E08AE00E94C71D61E089E00E94C71D50
:1050000061E088E00E94C71D61E087E00E94C71D43
:1050100060E081E10E94C71D60E080E10E94C71D41
:1050200061E070E081E090E00E94781461E070E05F
:1050300082E090E00E94781460E070E081E090E00F
:105040000E941B1660E070E082E090E00E941B1658
:1050500088E2EEE4F2E0DF01482E1D924A94E9F77F
:10506000E0E8F2E0DF011D928A95E9F71092430231
:1050700010924202109241021092400210922B02B2
:1050800010922C0210922D0210922E0210922702E2
:10509000109228021092290210922A021092A8025D
:1050A0001092A9021092AA021092AB0210927802FA
:1050B0001092790210927A0210927B021092AC0246
:1050C0001092AD021092AE021092AF0210927C02CA
:1050D00010927D0210927E0210927F0210920902BD
:1050E00010920A0210920B0210920C02109205020A
:1050F00010920602109207021092080210922102EA
:1051000010922202109223021092240283E690E071
:10511000909377028093760210924802109249028F
:1051200010924A0210924B0280E090E00E949B1184
:1051300090E08230910528F490933E0280933D02E6
:1051400009C010923E0210923D0260E080E090E0C3
:105150000E94100F81E090E090933A028093390210
:1051600082E090E00E949B1190E0E6E0F1E0219166
:1051700030E08217930731F0B1E0E131FB07B9F776
:105180002CE030E0A8EEB3E00E94653460931D028D
:1051900070931E0280931F029093200200E110E0A2
:1051A000C8010E949B11D82EC80101960E949B1134
:1051B000E82EC80102960E949B11F82EC8010396A2
:1051C0000E949B11982F833008F090E0E7E1ED15E5
:1051D00008F4D12CFBE3FE1508F4E12C9801235FC1
:1051E0003D4FF9017097D0823196E08231968F2D34
:1051F0008F778083319690830C5F1F4F00321105AB
:1052000079F683E090E00E949B1191E0811101C04A
:1052100090E09093040289E690E2909303028093D9
:1052200002028091FE019091FF01A0910002B091D5
:1052300001028093FA019093FB01A093FC01B093CB
:10524000FD010E941F1F84E090E00E949B11682FC7
:10525000082E000C770B77FF03C0719561957109DB
:10526000162F1F7187FF106288E60E94C32367E034
:1052700085EA94E00E94F60B612F85EA94E00E9493
:10528000F60B0E94CD238AE00E942D25811116C0C5
:105290006CED70E08DE993E00E9490378DE993E02A
:1052A0009F938F931F9281E08F930E94792383E0D5
:1052B0000E94BD240F900F900F900F9089E00E94E4
:1052C0002D25811116C06AEB70E08DE993E00E94F4
:1052D00090378DE993E09F938F931F9281E08F9396
:1052E0000E94792384E00E94BD240F900F900F90BC
:1052F0000F9080ED97E00E94000B0E941E250E94F7
:10530000190B81E10E946E1D01E0019709F000E098
:1053100080E10E946E1D11E0019709F010E001117B
:1053200002C0112309F181E00E94BD240E941E25C4
:105330006AEA70E08DE993E00E9490376DE973E0CE
:1053400081EB94E00E94141D61E080E00E948024C3
:10535000002319F081E40E947524112319F082E4DE
:105360000E9475240E94B10A9E012F5F3F4F4901A0
:10537000A89580914D02882339F0E0910401F091C5
:10538000050180E009954CC480914C028823D1F03E
:105390006AEC74E08DE993E00E9490378DE993E028
:1053A0009F938F931F9281E08F930E94792367E4EC
:1053B00080E090E00E94AB1610924C020F900F908C
:1053C0000F900F908091480290914902A0914A025B
:1053D000B0914B02892B8A2B8B2B81F581E10E94A6
:1053E0006E1D019739F48091460290914702892BF6
:1053F00009F419C480E10E946E1D019739F480916F
:10540000440290914502892B09F426C481E10E944F
:105410006E1D892B39F480914602909147020197C5
:1054200009F433C480E10E946E1D892B39F4809108
:10543000440290914502019709F440C480914802CA
:1054400090914902A0914A02B0914B02892B8A2B7C
:105450008B2BA1F00E94541E00914802109149022A
:1054600020914A0230914B020C501E4F2F4F3F4F5C
:10547000061717072807390708F439C48091420234
:1054800090914302059731F0809140029091410242
:10549000059711F481E01AC081E090E00E94D915CF
:1054A000182F82E090E00E94D91511110AC08111D5
:1054B0000CC080913F02811102C082E007C083E0EE
:1054C00005C0882311F085E001C086E00E94BD245C
:1054D0009091B40280913F02992309F46EC081112A
:1054E00068C080913D0290913E020197A9F480919D
:1054F0003B0290913C02049719F481E090E008C0CF
:1055000080913702909138020497B9F782E090E0D9
:1055100090933A028093390261E070E081E090E07C
:105520000E94781461E070E082E090E00E947814BC
:105530000E94541E609333027093340280933502AC
:105540009093360260932F02709330028093310261
:105550009093320210924302109242021092410242
:105560001092400210922B0210922C0210922D02E7
:1055700010922E02109227021092280210922902F5
:1055800010922A02109226021092250263E474E01F
:105590008DE993E00E9490378DE993E09F938F937C
:1055A0001F9281E08F930E9479230F900F900F90AC
:1055B0000F9081E080933F020CC0882341F010924D
:1055C0004302109242021092410210924002109245
:1055D0003F0260E080E00E94802488E60E94C323AE
:1055E00060E085EA94E00E94F60B0E94CD2361E022
:1055F00070E088E690E00E942A2485EA94E00E9408
:10560000AA0B87FD42C00E94CE060E94E421809131
:10561000FF0390E00C9714F411E401C010E50E9420
:10562000CE060E94E4210091FE030E94CE060E9455
:10563000E4218091FF03882341F0E82EF12C8D3086
:1056400038F03CE0E31AF10803C08CE0E82EF12CBE
:1056500066E374E08DE993E00E9490371F921F93F8
:105660001F920F93FF92EF928DE993E09F938F9398
:105670001F9241E14F939F928F920E9493340FB6F5
:10568000F894DEBF0FBECDBF17C06DE274E08DE9A8
:1056900093E00E9490378DE993E09F938F931F9240
:1056A00091E19F939F928F920E9493340F900F905D
:1056B0000F900F900F900F90B40181EB94E00E9437
:1056C000141D80913F02882319F064E274E01CC02D
:1056D00061E274E08DE993E00E9490376DE973E038
:1056E00081EB94E00E94141D80913D0290913E0256
:1056F000009729F0019731F463E174E005C06AE195
:1057000074E002C06FE074E08DE993E00E9490378E
:105710006DE973E081EB94E00E94141D81E090E05C
:105720000E94D1137C0180913F028111B5C6809106
:105730004202909143028530910509F452C0E81667
:10574000F90609F47BC00097C1F197012150310996
:105750002530310540F4220F331FF901EF5EFE4F73
:10576000C080D18004C01BE9C12E11E0D12E019769
:105770008530910540F4880F991FFC01EF5EFE4FC4
:105780000081118102C00BE911E061EB73E08DE94A
:1057900093E00E949037DF92CF921F930F938DE991
:1057A00093E09F938F931F9281E08F930E947923C0
:1057B0000FB6F894DEBF0FBECDBF80913D02909131
:1057C0003E02009741F00197C9F5B70181E090E0F2
:1057D0000E94AA1833C0B70181E090E00E947E17B2
:1057E0002DC021E0E216F10409F050C610924302E8
:1057F000109242026CEE73E08DE993E00E949037C4
:105800008DE993E09F938F931F9281E08F930E9485
:1058100079230F900F900F900F9080913302909109
:105820003402A0913502B0913602892B8A2B8B2B42
:1058300009F0D5C580913F028111EDC582E090E06D
:105840000E94D1138C0180913F02811144C6809146
:105850004002909141028530910509F454C0081727
:10586000190709F47CC00097D1F198012150310942
:105870002530310540F4220F331FF901EF5EFE4F52
:10588000A080B18004C0FBE9AF2EF1E0BF2E0197EC
:105890008530910540F4880F991FFC01EF5EFE4FA3
:1058A000C080D18004C07BE9C72E71E0D72E63E5AC
:1058B00073E08DE993E00E949037BF92AF92DF9240
:1058C000CF928DE993E09F938F931F9281E08F9306
:1058D0000E9479230FB6F894DEBF0FBECDBF809132
:1058E0003D0290913E02009741F00197C1F5B80149
:1058F00082E090E00E94AA1832C0B80182E090E0F5
:105900000E947E172CC00130110509F052C610927A
:105910004102109240026EE873E08DE993E00E942C
:1059200090378DE993E09F938F931F9281E08F933F
:105930000E9479230F900F900F900F9080912F026B
:1059400090913002A0913102B0913202892B8A2BC2
:105950008B2B09F0D9C580913F028111F1C5A09030
:105960002102B0902202C0902302D0902402A11400
:10597000B104C104D10409F4B5C00E94541E2B0126
:105980003C01DC01CB018A199B09AC09BD09813EB0
:105990009349A440B10508F4A5C080913B029091C1
:1059A0003C02049709F047C061E273E08DE993E09F
:1059B0000E949037AFEAB1E0BF93AF938DE993E0D7
:1059C0009F938F931F9281E08F930E94792361E0D0
:1059D00070E081E090E00E94781464E070E082E082
:1059E00090E00E947814409221025092220260922C
:1059F00023027092240261E080E00E9480240F90D4
:105A00000F900F900F900F900F9080912602882397
:105A100019F068E173E002C06FE073E08DE993E094
:105A20000E9490376DE973E081EB94E00E94141DB1
:105A300066E073E04DC08091370290913802049780
:105A400009F050C064ED72E08DE993E00E94903758
:105A5000A5EBB1E0BF93AF938DE993E09F938F9354
:105A60001F9281E08F930E94792361E070E082E0D1
:105A700090E00E94781464E070E081E090E00E9481
:105A80007814409221025092220260922302709276
:105A9000240261E080E00E9480246BEC72E08DE9DA
:105AA00093E00E9490376DE973E081EB94E00E94EF
:105AB000141D0F900F900F900F900F900F908091EA
:105AC0002502882319F062EC72E002C069EB72E0F3
:105AD0008DE993E00E9490376DE973E081EB94E0EB
