:100000000C94EF030C941D180C94F6170C94170421
:100010000C9417040C9417040C9417040C941704F4
:100020000C9417040C9417040C9417040C941704E4
:100030000C9417040C9417040C9417040C941704D4
:100040000C94AC170C9417040C9488160C9462163C
:100050000C9417040C9417040C9417040C941704B4
:100060000C94251D0C941704420475047E04890425
:1000700091049104910491049104910491049F04CA
:1000800052656C6179204661696C7572653A200031
:1000900053657450696E4672657175656E6379203B
:1000A000666F72206361722042206661696C6564CC
:1000B000210053657450696E4672657175656E6393
:1000C0007920666F72206361722041206661696CDD
:1000D00065642100322E332E340053573A00322EFD
:1000E000332E310048573A004A31373732204879A9
:1000F000647261202A005374617274696E672048CB
:10010000573A25732053573A257300506F7765721D
:100110002077697468647261776E206166746572B5
:10012000206572726F722064656C6179206F6E2039
:10013000636172204200506F77657220776974683E
:10014000647261776E206166746572207061757388
:10015000652064656C6179206F6E20636172204256
:1001600000423A206F6666202000423A204F4E201F
:1001700020200044656C61796564207472616E733F
:100180006974696F6E20636F6D706C65746564204F
:100190006F6E20636172204200506F776572207726
:1001A000697468647261776E206166746572206537
:1001B00072726F722064656C6179206F6E2063616A
:1001C00072204100506F776572207769746864729D
:1001D00061776E2061667465722070617573652049
:1001E00064656C6179206F6E20636172204100410B
:1001F0003A206F6666202000413A204F4E20202092
:100200000044656C61796564207472616E73697411
:10021000696F6E20636F6D706C65746564206F6EBE
:100220002063617220410043617220422063757235
:1002300072656E74206472617720256C75206D4143
:100240000043617220412063757272656E74206490
:1002500072617720256C75206D4100506F77657253
:1002600020617661696C61626C6520256C75206D1A
:1002700041005374617465733A2043617220412CCC
:100280002025733B2043617220422C2025730041BE
:100290003A206F66662020423A2077616974200018
:1002A00053657175656E7469616C206D6F6465204E
:1002B0006F666665722074696D656F75742C206D4C
:1002C0006F76696E67206F6666657220746F202591
:1002D0007300413A207761697420423A206F666664
:1002E00020200053657175656E7469616C206D6FB7
:1002F0006465206F666665722074696D656F7574DC
:100300002C206D6F76696E67206F6666657220744B
:100310006F202573004361722042207374617465FD
:10032000207472616E736974696F6E3A2025732D43
:100330003E25732E00423A206F6666202000423A26
:10034000202D2D2D202000436172204220646973EE
:10035000636F6E6E65637465642C20636C65617297
:10036000696E67206572726F72004361722041206E
:100370007374617465207472616E736974696F6EF1
:100380003A2025732D3E25732E00413A206F666674
:10039000202000413A202D2D2D2020004361722085
:1003A0004120646973636F6E6E65637465642C20AD
:1003B000636C656172696E67206572726F72005559
:1003C0004E4B007365716E746C0073686172656486
:1003D000004D3A004D3A50415553454400202020ED
:1003E0002020202020002532643A25303264256305
:1003F0004D200050617573696E672E0047726F75EE
:100400006E64206661696C757265206465746563ED
:10041000746564206F6E2063617220420047726FC2
:10042000756E64206661696C7572652064657465BB
:1004300063746564206F6E206361722041005265B1
:100440006C6179206661756C742064657465637491
:100450006564206F6E2063617220420052656C619A
:1004600079206661756C7420646574656374656475
:10047000206F6E206361722041004746492066610B
:10048000756C7420646574656374656400636C6581
:1004900061720073657400537475636B2000474686
:1004A000492054657374204661696C757265004516
:1004B00072724A616E4665624D61724170724D6141
:1004C000794A756E4A756C4175675365704F6374F0
:1004D0004E6F7644656300202000253264002020A2
:1004E000200020202000202532640020200025301C
:1004F0003264002020002532640053657420436C70
:100500006F636B00534D545754465300534D54572B
:10051000544653002020002530326400202000255E
:100520003264002020202020202020202020202095
:100530002020200045786974002020202000456498
:100540006974204576656E742000536176696E6724
:10055000206576656E74202564202D2025643A255B
:100560006420646F775F6D61736B202578206576FA
:10057000656E742025640025336C756D410025324D
:10058000642E2530316441004572726F72202563FC
:10059000206F6E20257300423A4552522000413AA6
:1005A000455252200053657474696E67202573208C
:1005B00072656C617920746F2025730050696E201C
:1005C000256420746F2050574D2025640050696EBB
:1005D00020256420746F206469676974616C20252C
:1005E000640053657474696E672025732070696CAC
:1005F0006F7420746F202573002573206869676805
:10060000202575206C6F7720257520636F756E74BB
:1006100020256C75003A204F4E202020003A20778C
:1006200061697420003A20646F6E6520003A206F83
:1006300066662020003A206F66662020003A206F10
:1006400066662020003A20646F6E6520003A206FB5
:1006500066662020003A20646F6E6520003A202DE7
:100660002D2D2020003A206F66662020003A204F72
:100670004E202020003A2077616974200042757472
:10068000746F6E2073686F72742D70757368206557
:1006900076656E7400427574746F6E206C6F6E6751
:1006A0002D70757368206576656E7400427574747C
:1006B0006F6E20697320757000427574746F6E20C0
:1006C000697320646F776E00427574746F6E732067
:1006D000256400436865636B696E6720666F7220EE
:1006E000627574746F6E206576656E74000000002C
:1006F00000240027002A0000000000250028002B0D
:100700000000000000230026002900040404040463
:1007100004040402020202020203030303030301AE
:100720000204081020408001020408102001020485
:100730000810204E6F005965730045786974204D8C
:10074000656E75733F004E6F0059657300436F6EA1
:10075000666967204576656E74733F004E6F005979
:10076000657300456E61626C65204453543F004ED2
:100770006F005965730053657420436C6F636B3F62
:100780000020416D70730043757272656E74204174
:100790007661696C2E0053657175656E7469616C64
:1007A00000536861726564004F7065726174696EB0
:1007B00067204D6F64650000000008000201000022
:1007C0000304070000000000000000554E4B4E4F90
:1007D000574E3A2000494E464F3A2000E730112448
:1007E0001FBECFEFD8E0DEBFCDBF11E0A0E0B1E08B
:1007F000EAE0FBE602C005900D92A43FB107D9F7ED
:1008000024E0A4EFB1E001C01D92A43EB207E1F7DD
:1008100013E0CFEED3E004C02197FE010E94FE3129
:10082000CE3ED107C9F70E94D4230C9483350C9493
:100830000000DF92EF92FF920F931F93CF93DF930D
:1008400000D000D0CDB7DEB7F82E0E942E0B8C0161
:10085000FF2039F00E946A231092C6021092C5024E
:1008600004C08130910509F075C09091C602492FEE
:1008700050E04C30510508F0F7C0FA01EC5CFF4F36
:100880000C94FE31F11005C08091C5028F5F8093FA
:10089000C5028091C502853010F01092C502E0912A
:1008A000C502E43008F0E0C024E0E29FF00111242A
:1008B000E95FFD4F80818093C40291819093C302D0
:1008C00092819093C20293819093C10291E08C3007
:1008D00008F490E09093C002811102C08CE00BC03C
:1008E0008D3008F4C1C08C5006C08091C4028F5F67
:1008F0008D3008F081E08093C402B6C08091C302BD
:100900008F5F8C3318F48093C302AEC01092C30281
:10091000ABC081E09091C002911180E08093C00251
:10092000A3C02CEF290F81E090E001C0880F2A9529
:10093000EAF79091C20289278093C20295C0809104
:10094000C1028F5F833018F48093C1028DC0109272
:10095000C1028AC0029709F089C09091C602911124
:1009600009C08091C502843029F4109247020E9488
:100970006A23B6C19F5F9093C6029C3008F476C08C
:100980001091C4028091C002811103C01C3031F467
:10099000A5C1813019F41C3009F0145FD090C10258
:1009A000E090C202F090C3020091C5026AE475E0D3
:1009B00088E993E00E942F351F92DF921F92EF92F9
:1009C0001F92FF921F921F931F920F9388E993E04B
:1009D0009F938F931F9282E08F930E94C5218091F5
:1009E000C50290E0FC01EE0FFF1FEE0FFF1FE95F55
:1009F000FD4F10832091C30221832091C2022283E4
:100A00002091C10223830496612F880F991F880FBC
:100A1000991F0E94711E8091C50234E0839FC0011E
:100A200011246091C30241960E94711E8091C502FB
:100A300024E0829FC00111246091C20242960E946C
:100A4000711E8091C50234E0839FC0011124609122
:100A5000C10243960E94711E1092C6020FB6F8940E
:100A6000DEBF0FBECDBF3CC101E010E00E94A01769
:100A700028EE33E040E050E00E94BD3121E0643FC9
:100A800071408105910508F420E0012B29F4909133
:100A9000BF02921709F424C12093BF0260E080E0F6
:100AA0000E94CC226EE375E088E993E00E942F3526
:100AB00068E973E08CEA94E00E9460168091BF02BE
:100AC000882339F08091C602811103C069E375E083
:100AD00006C04091C502443069F464E375E088E9DA
:100AE00093E00E942F3568E973E08CEA94E00E945D
:100AF00060160CC050E04F5F5F4F052E000C660B78
:100B0000770B2AE08CEA94E00E94171661E080E0FF
:100B10000E94CC228091C502843069F463E275E0C2
:100B200088E993E00E942F3568E973E08CEA94E04D
:100B30000E946016D5C01091C4026FE175E088E98B
:100B400093E00E942F351F921F9388E993E09F93B3
:100B50008F938E010F5F1F4F1F930F930E9462327E
:100B60000F900F900F900F900F900F908091BF02F9
:100B7000882369F08091C602813049F46CE175E008
:100B800088E993E00E942F3568E973E001C0B8015D
:100B90008CEA94E00E9460168AE30E94C122F090E1
:100BA000C30267E175E088E993E00E942F351F9248
:100BB000FF9288E993E09F938F931F930F930E9476
:100BC00062320F900F900F900F900F900F908091C6
:100BD000BF02882369F08091C602823049F464E143
:100BE00075E088E993E00E942F3568E973E001C061
:100BF000B8018CEA94E00E9460168091BF028823BD
:100C000031F08091C602833011F480E207C08091F8
:100C1000C002813011F081E401C080E50E94C12250
:100C200080E20E94C12200E010E064E075E088E903
:100C300093E00E942F35E8E9F3E001900020E9F706
:100C40003197E859F3400E171F0758F58091C602F7
:100C500090E098012C5F3F4F2817390731F48091BD
:100C6000BF02882311F080E217C08091C20290E099
:100C7000002E02C0959587950A94E2F780FF0BC07D
:100C80006CE075E088E993E00E942F35F801E856A2
:100C9000FC4F808101C08DE20E94C1220F5F1F4F77
:100CA000C4CF80E20E94C1228091C6028B3031F411
:100CB0008091BF02882311F080E20DC08091C102B3
:100CC000811102C08EE407C0813011F483E503C0B6
:100CD000823031F487E40E94C12202C010E05ECE6F
:100CE0000F900F900F900F90DF91CF911F910F9168
:100CF000FF90EF90DF900895CF92DF92EF92FF92F6
:100D0000CF93DF938091FE01882309F462C00E9493
:100D10006B186B017C010E94541BEC016091D304A1
:100D20007091D4048091D5049091D6040E94541BF4
:100D3000C817D90731F0C701B6010E94541B0E94A1
:100D40005321C701B6010E94541BEC016091D304EA
:100D50007091D4048091D5049091D6040E94541BC4
:100D6000C817D90731F0C701B6010E94541B0E9471
:100D700053214091D7045091D8046091D9047091C7
:100D8000DA048091D3049091D404A091D504B09159
:100D9000D604481759076A077B0741F1841795075E
:100DA000A607B70758F4C816D906EA06FB06F0F0FE
:100DB000C416D506E606F706C8F413C0C416D50651
:100DC000E606F70670F0C816D906EA06FB0648F4F0
:100DD0000DC0DF91CF91FF90EF90DF90CF900C94FA
:100DE0006B18A091C504B091C60404C0A091D104B1
:100DF000B091D2042CE330E00E9413326C0D7D1DC3
:100E00008E1D9F1DDF91CF91FF90EF90DF90CF90CF
:100E10000895CF92DF92EF92FF920F931F93CF939B
:100E2000DF93CDB7DEB72E970FB6F894DEBF0FBEB7
:100E3000CDBFF82E0E942E0B8C01FF2009F458C064
:100E40000E946A236AEF74E088E993E00E942F35DC
:100E500068E973E08CEA94E00E9460160E947C06C8
:100E60000E94301B2091FA03222331F0822F90E060
:100E70002D3020F00C9702C08CE090E08093C402EB
:100E80000E947C060E94301B8091FA0390E021E0D2
:100E90000C970CF420E02093C0020E947C060E9474
:100EA000301B8091F9038093C3020E947C060E944C
:100EB000301B8091FC038093BE020E947C060E943E
:100EC000301B8091FD038093BD020E947C060E942E
:100ED000541B9C012A5D37402B30310510F08AED00
:100EE00097E09093BC028093BB021092C6025DC053
:100EF0008130910509F051C09091C602923001F104
:100F000028F4992349F0913081F095C1943061F132
:100F100010F1953091F18FC18091C4028F5F8D30B7
:100F200008F081E08093C40286C18091C3028F5F84
:100F30008C3318F48093C3027EC11092C3027BC12C
:100F40008091C0028F5F823018F48093C00273C119
:100F50001092C00270C18091BE028F5F803208F093
:100F600081E08093BE0267C18091BD028F5F8D30AA
:100F700008F081E08093BD025EC18091BB02909138
:100F8000BC020196853E27E0920710F08AED97E0BB
:100F90009093BC028093BB024EC1029709F04BC1F3
:100FA0008091C6028F5F8093C6028091C602863010
:100FB00008F43FC19091C0028091C402911105C014
:100FC0008C3051F41092C40207C0913029F48C3057
:100FD00019F0845F8093C4028091BB02825B8E878C
:100FE0008091BD028D878091BE028C878091C40262
:100FF0008A878091C30289871886CE0108960E944D
:10100000F5186B017C018091FE01882309F47FC0F3
:10101000C701B6010E94541B8C016091DB047091E2
:10102000DC048091DD049091DE040E94541B0817BB
:10103000190731F0C701B6010E94541B0E945321C9
:10104000C701B6010E94541B8C016091DB047091B2
:10105000DC048091DD049091DE040E94541B08178B
:10106000190731F0C701B6010E94541B0E94532199
:101070004091D7045091D8046091D9047091DA045A
:101080008091D3049091D404A091D504B091D6045A
:10109000481759076A077B0709F4F7C14091DF0435
:1010A0005091E0046091E1047091E2048091DB04CE
:1010B0009091DC04A091DD04B091DE0484179507C3
:1010C000A607B70768F4C816D906EA06FB0608F4AF
:1010D000DCC1C416D506E606F70608F0D6C10BC07B
:1010E000C416D506E606F70630F0C816D906EA0695
:1010F000FB0608F4CAC1A091C504B091C6042CE354
:1011000030E00E941332C61AD70AE80AF90AC7016A
:10111000B6010E944418AE014F5F5F4FC701B60190
:101120000E945F1A88E60E940F2260E080EA94E045
:101130000E946C1C60E880EA94E00E946C1C8A812A
:101140001AE0612F0E948931692F30E1839F600D81
:10115000112480EA94E00E946C1C8B81612F0E9414
:101160008931692F20E1829F600D112480EA94E08B
:101170000E946C1C8C81612F0E948931692F30E1A3
:10118000839F600D112480EA94E00E946C1C8D8185
:10119000612F0E948931692F20E1829F600D112407
:1011A00080EA94E00E946C1C8E81612F0E9489313C
:1011B000692F30E1839F600D112480EA94E00E9442
:1011C0006C1C8F818E51612F0E948931692F20E123
:1011D000829F600D112480EA94E00E946C1C0E94A2
:1011E0001922882319F01092CD021EC001E000934D
:1011F000CD0288E60E940F2260E080EA94E00E941F
:101200006C1C8981612F0E948931692F30E1839F95
:10121000600D112480EA94E00E946C1C0E94192247
:101220008111E1CF0093CD02109248020E946A23FF
:1012300031C102E010E00E94A01728EE33E040E048
:1012400050E00E94BD3121E0643F7140810591056D
:1012500008F420E0012B29F49091BF02921709F4C1
:1012600019C12093BF0261E080E00E94CC2210915E
:10127000C40266EF74E088E993E00E942F351F9264
:101280001F9388E993E09F938F938E010F5F1F4F09
:101290001F930F930E9462320F900F900F900F9048
:1012A0000F900F908091C60281110DC08091BF02F6
:1012B000882349F063EF74E088E993E00E942F35BA
:1012C00068E973E001C0B8018CEA94E00E946016FE
:1012D0008AE30E94C122F090C3026EEE74E088E9B6
:1012E00093E00E942F351F92FF9288E993E09F932D
:1012F0008F931F930F930E9462320F900F900F9065
:101300000F900F900F908091C602813069F4809108
:10131000BF02882349F06BEE74E088E993E00E94F5
:101320002F3568E973E001C0B8018CEA94E00E94AF
:1013300060168091C602823031F48091BF0288230A
:1013400011F080E207C08091C002811102C081E4E7
:1013500001C080E50E94C122F090BE0266EE74E0FA
:1013600088E993E00E942F351F92FF9288E993E06D
:101370009F938F931F930F930E9462320F900F9051
:101380000F900F900F900F908091C602833069F4F8
:101390008091BF02882349F062EE74E088E993E00F
:1013A0000E942F3568E973E001C0B8018CEA94E02F
:1013B0000E9460168DE20E94C1228091C602843094
:1013C00069F48091BF02882349F06EED74E088E9EA
:1013D00093E00E942F3568E973E019C02091BD02A7
:1013E00083E0289F90011124A1EBB2E080E090E01F
:1013F000FC01E20FF31FE155FB4FE491ED930196E1
:1014000083309105A9F71092B40261EB72E08CEA87
:1014100094E00E9460168DE20E94C1228091BB027E
:101420009091BC0264E670E00E949531F82EE92E9E
:101430006AED74E088E993E00E942F35EF92FF9205
:1014400088E993E09F938F931F930F930E946232DA
:101450000F900F900F900F900F900F908091C602F9
:10146000853069F48091BF02882349F067ED74E00C
:1014700088E993E00E942F3568E973E001C0B80164
:101480008CEA94E00E94601605C0A091D104B0914E
:10149000D20435CE2E960FB6F894DEBF0FBECDBF68
:1014A000DF91CF911F910F91FF90EF90DF90CF9040
:1014B000089560E070E081E090E00E94D00D60E06F
:1014C00070E082E090E00E94D00D60E070E081E08A
:1014D00090E00E94480F60E070E082E090E00E949F
:1014E000480FA895FECFC82F81E00E9409230E94D3
:1014F0006A236EE974E088E993E00E942F3568E979
:1015000073E08CEA94E00E94601661E080E00E9443
:10151000CC2267E974E088E993E00E942F3568E9FE
:1015200073E08CEA94E00E946016CC2319F063E922
:1015300074E002C06DE874E088E993E00E942F3502
:1015400068E973E08CEA94E00E9460160E94590AF0
:10155000CF93DF93EC01C536D10550F064E670E01F
:1015600080E090E00E946617C456D109A895F3CF99
:10157000BE0180E090E00E946617A895DF91CF91B0
:101580000895CF92DF92EF92FF920F931F93CF9324
:10159000DF9310924602C2E3D0E00BEF1CE761E05C
:1015A00083E00E94E316C8010197F1F760E083E051
:1015B0000E94E316C8010197F1F78091460281115C
:1015C00003C0A895219759F7809146028823B9F066
:1015D0000E94A0176B017C0124E6C20ED11CE11C05
:1015E000F11C82E00E94BA16019759F4A8950E9456
:1015F000A017C616D706E806F90698F781E00E94FC
:10160000730A82E390E00E94A80A10924602DF91DA
:10161000CF911F910F91FF90EF90DF90CF900895A1
:1016200060E088E00E94E31660E087E00E94E31635
:1016300010923F0210923E0210924102109240021C
:101640000E94A01760934202709343028093440269
:101650009093450281E08093460208950F931F9373
:10166000CF93DF9363ED76E088E993E00E942F3516
:1016700088E993E09F938F931F9283E08F930E945A
:10168000C5210F900F900F900F90809103029091C1
:101690000402A0910502B0910602892B8A2B8B2BA4
:1016A000A9F00E94A017009103021091040220915A
:1016B000050230910602DC01CB01801B910BA20BCD
:1016C000B30BC297A105B10508F46BC010920302D9
:1016D0001092040210920502109206021091B704B3
:1016E0001123C9F08091B50480620E940F2282E12B
:1016F0000E94201D0E9419228091B504806261E041
:1017000070E090E00E94762280EA94E00E94201C23
:101710008095182F1F7168EC76E088E993E00E94AD
:101720002F351F921F93C8E9D3E0DF93CF931F9209
:1017300003E00F930E94C5210F900F900F900F9020
:101740000F900F9010FF30C069EB76E0CE010E9441
:101750002F35DF93CF931F920F930E94C5210F90D7
:101760000F900F900F908091FF0190910002A09137
:101770000102B0910202892B8A2B8B2B91F40E94DB
:10178000A0176093FF017093000280930102909371
:101790000202609303027093040280930502909307
:1017A000060280E090E068C06CEA76E088E993E0A9
:1017B0000E942F35DF93CF931F920F930E94C52174
:1017C0000F900F900F900F908091FF019091000269
:1017D000A0910102B0910202892B8A2B8B2B09F375
:1017E0000E94A01760930302709304028093050285
:1017F000909306020091FF011091000220910102D6
:1018000030910202DC01CB01801B910BA20BB30BC8
:101810001092FF0110920002109201021092020237
:101820008B3F9105A105B105A0F065E976E088E957
:1018300093E00E942F35DF93CF931F9282E08F9326
:101840000E94C5210F900F900F900F9082E090E0C2
:1018500013C06DE776E088E993E00E942F35DF93AF
:10186000CF931F9282E08F930E94C5210F900F901B
:101870000F900F9081E090E0DF91CF911F910F9139
:1018800008953F924F925F926F927F928F929F92B4
:10189000AF92BF92CF92DF92EF92FF920F931F937E
:1018A000CF93DF93CDB7DEB72E970FB6F894DEBF98
:1018B0000FBECDBF019719F036E0332E02C027E0EE
:1018C000322E0E94A0176D837E838F83988700E05D
:1018D00010E044244A94542C320119821A821B824B
:1018E0001C821E861D86812C912C54010E94A017FB
:1018F000AB01BC01DB01CA01CD80DE80EF80F88442
:101900008C199D09AE09BF098397A105B10508F09F
:1019100085C0832D49875A876B877C870E944F1724
:101920006C01990FEE08FF0849855A856B857C8507
:101930002FEF421652066206720659F181E091E0DD
:10194000491692E05906610471040CF480E091E0BC
:1019500021E0C21622E0D206E104F1040CF490E08A
:101960008917B9F0DB01CA0149805A806B807C80FD
:1019700084199509A609B7090697A105B10548F08C
:101980008D859E8501969E878D8749835A836B83BB
:101990007C838D859E8581309105E8F183309105AA
:1019A00080F00397C1F5980140E050E0C501B40113
:1019B0000E94BD3149015A01C12CD12C7601C3943A
:1019C00010C0C701B6017250810991099B01AC0199
:1019D0000E947931860E971EA81EB91E0F5F1F4FF9
:1019E0001AC0A7019601C701B6010E947931861677
:1019F0009706A806B90630F09FEFC91AD90AE90A76
:101A0000F90AEFCF2150310941095109AAE6B0E0A6
:101A10000E941A3206C02601370168CF60E070E0EC
:101A2000CB012E960FB6F894DEBF0FBECDBFDF916F
:101A3000CF911F910F91FF90EF90DF90CF90BF90CB
:101A4000AF909F908F907F906F905F904F903F905E
:101A500008954F925F926F927F928F929F92AF9272
:101A6000BF92DF92EF92FF920F931F93CF93DF937A
:101A70007C01DD24D39481E0E816F10409F0D12C37
:101A80000E94A0172B013C01812C912C5401C0E035
:101A9000D0E00FE017E20E94A017DC01CB0184190F
:101AA0009509A609B7094497A105B10588F48D2DBC
:101AB0000E944F17C817D90708F4EC018017910747
:101AC00008F48C019FEF891A990AA90AB90AE3CF91
:101AD00083E0E816F10440F4F701EE0FFF1FED5D1F
:101AE000FE4FE080F18004C089E9E82E81E0F82E05
:101AF00069EF75E088E993E00E942F35BF92AF92BD
:101B00009F928F921F930F93DF93CF93FF92EF9249
:101B100088E993E09F938F931F9283E08F930E94B5
:101B2000C5210B5F11098DB79EB70E960FB6F894BD
:101B30009EBF0FBE8DBF01331140A0F0C63683E0BB
:101B4000D80798F4CE01875093408F35910580F0E7
:101B5000835A9F4F8D35910570F0C256D240C834DC
:101B6000D10560F085E090E00BC081E090E008C016
:101B700082E090E005C083E090E002C084E090E065
:101B8000DF91CF911F910F91FF90EF90DF90BF9069
:101B9000AF909F908F907F906F905F904F9008953F
:101BA000CF92DF92EF92FF920F931F93CF93DF9329
:101BB000EC018B016530710540F4FB01EE0FFF1F56
:101BC000E75EFE4FC080D18004C059E9C52E51E0C8
:101BD000D52EC330D10540F4FE01EE0FFF1FED5DA1
:101BE000FE4FE080F18004C039E9E32E31E0F32EAE
:101BF00062EE75E088E993E00E942F35DF92CF9284
:101C0000FF92EF9288E993E09F938F931F9282E077
:101C10008F930E94C5218DB79EB708960FB6F89492
:101C20009EBF0FBE8DBFC130D10551F0229709F084
:101C3000E4C01093320200933102C9E0D0E006C044
:101C40001093360200933502CAE0D0E0023011054D
:101C5000E8F46DEC75E088E993E00E942F351F935E
:101C60000F93DF93CF9388E993E09F938F931F9215
:101C700083E08F930E94C5218DB79EB708960FB65B
:101C8000F8949EBF0FBE8DBF602F57C060911702A2
:101C9000709118028091190290911A020330110577
:101CA00021F49695879577956795613325E77207B7
:101CB00081059105B0F060E375E780E090E02CE3EA
:101CC00030E040E050E00E94BD31942F832F722F0E
:101CD000662728EE33E040E050E00E94DF318901C2
:101CE00008C0603727E172078105910540F70FEFC3
:101CF00010E06CEB75E088E993E00E942F351F93AC
:101D00000F93DF93CF9388E993E09F938F931F9274
:101D100083E08F930E94C521FC2E61E08C2F0E94EE
:101D200013178DB79EB708960FB6F8949EBF0FBED7
:101D30008DBF0F3F110519F461E08C2F3EC0FE01ED
:101D4000E954F84FE491E330D1F050F4E23079F502
:101D500084B5806284BD27B530E0C8E4D0E043C0DC
:101D6000E430C9F0E83019F58091B00080628093CA
:101D7000B0002091B30030E0C4EBD0E034C08091DB
:101D800080008068809380002091860030918700D9
:101D9000C8E8D0E01CC08091800080628093800001
:101DA0002091860030918700CAE8D0E010C007FD7E
:101DB00002C060E001C061E08F2DDF91CF911F91E3
:101DC0000F91FF90EF90DF90CF900C94E316D80125
:101DD0000E9404322FEF30E040E050E00E94BD311D
:101DE000398328830AC0D8010E9404322FEF30E0E3
:101DF00040E050E00E94BD312883DF91CF911F91D8
:101E00000F91FF90EF90DF90CF9008959C0180910B
:101E10003902811139C02130310521F022303105DC
:101E2000C9F0089520913C0230913D0225303105E2
:101E300071F18091250290912602A0912702B09124
:101E40002802892B8A2B8B2B09F520914002309197
:101E5000410217C020913A0230913B0225303105F2
:101E6000B1F08091210290912202A0912302B091C1
:101E70002402892B8A2B8B2B49F420913E0230912E
:101E80003F0281E0232B19F480E0089581E008955A
:101E9000CF92DF92EF92FF920F931F93CF93DF9336
:101EA0008C01EB018091400290914102892B51F409
:101EB00080913E0290913F02892B21F4613071059F
:101EC00009F46AC0C530D10540F4FE01EE0FFF1FD2
:101ED000E75EFE4FC080D18004C029E9C22E21E018
:101EE000D22E0330110540F4F801EE0FFF1FED5D17
:101EF000FE4FE080F18004C089E9E82E81E0F82EF1
:101F000065EA75E088E993E00E942F35DF92CF9271
:101F1000FF92EF9288E993E09F938F931F9282E064
:101F20008F930E94C5218DB79EB708960FB6F8947F
:101F30009EBF0FBE8DBF0130110521F0023011058B
:101F400089F01FC080914002909141028C179D073B
:101F500031F16C2F88E00E94E316D0934102C093C8
:101F600040020FC080913E0290913F028C179D0766
:101F7000B1F06C2F87E00E94E316D0933F02C0932C
:101F80003E020E94A0176093420270934302809326
:101F900044029093450203C00E94C10A96CFDF918C
:101FA000CF911F910F91FF90EF90DF90CF90089508
:101FB000CF92DF92EF92FF921F93CF93DF93EC01CA
:101FC000162F0E94A0176B017C0110921B02109229
:101FD0001C0210921D0210921E02C230D10508F0A0
:101FE0003FC061E070E081E090E00E94D00D809100
:101FF0003C0290913D02059771F085E090E090934E
:102000003D0280933C02C0922D02D0922E02E092BB
:102010002F02F092300210922502109226021092A6
:10202000270210922802209789F561E070E082E093
:1020300090E00E94D00D80913A0290913B0205976A
:1020400099F085E090E090933B0280933A02C09231
:102050002902D0922A02E0922B02F0922C0204C0B4
:10206000C230D10549F4E1CF109221021092220230
:10207000109223021092240281E00E940923C230B0
:10208000D10538F0C230D10591F51BC081E00E9426
:10209000092361E080E00E94CC226EE975E088E9C6
:1020A00093E00E942F3568E973E08CEA94E00E9487
:1020B0006016812F0E94C12280E20E94C1222097D7
:1020C00009F761E088E00E94CC2267E975E088E9C1
:1020D00093E00E942F3568E973E08CEA94E00E9457
:1020E0006016812F0E94C12280E20E94C122C3306B
:1020F000D10540F4CC0FDD1FCD5DDE4F0990D881B6
:10210000C02D02C0C9E9D1E068E875E088E993E034
:102110000E942F35DF93CF93812F012E000C990B56
:102120009F931F9388E993E09F938F931F9281E081
:102130008F930E94C5218DB79EB708960FB6F8946D
:102140009EBF0FBE8DBFDF91CF911F91FF90EF908B
:10215000DF90CF900895CF92DF92EF92FF920F938E
:102160001F93CF93DF938130910551F4ECE3F2E0BC
:1021700042E0E42EF12C55E2C52E52E0D52E09C0E6
:10218000EAE3F2E0EE24E394F12C31E2C32E32E0F4
:10219000D32E718360836530710550F48B01EC019F
:1021A0006330710508F06CC06130710580F4F6C0D1
:1021B0006530710509F0F2C065E4DF91CF911F91A0
:1021C0000F91FF90EF90DF90CF900C94D80F60E0CC
:1021D00070E00E94480F0130110541F0C7010E94D4
:1021E000060F811106C064E070E005C061E070E098
:1021F00002C063E070E0CE010E94D00DC130D10575
:1022000011F088E001C080E061E00E94CC222197BB
:1022100019F061EB71E002C067EB71E08CEA94E0C9
:102220000E9460160130110519F06DEC71E002C0DA
:1022300065EC71E08CEA94E00E946016F601108271
:10224000118212821382F1E0EF16F10429F48091D9
:1022500035029091360204C0809131029091320291
:10226000039709F09BC064E070E0C701DF91CF9154
:102270001F910F91FF90EF90DF90CF900C94D00DB5
:102280000E94060F81118AC0C7010E94060F882391
:10229000C9F10E94A017F601608371838283938342
:1022A00063E070E0C7010E94D00D63E070E0CE01F2
:1022B0000E94D00DC130D10511F088E001C080E04E
:1022C00061E00E94CC22219719F061EB71E002C01D
:1022D00067EB71E08CEA94E00E94601665E776E0B7
:1022E00088E993E00E942F3568E973E08CEA94E076
:1022F000DF91CF911F910F91FF90EF90DF90CF90E2
:102300000C946016F1E0EF16F10429F48091350287
:102310009091360204C0809131029091320204976C
:1023200029F463E070E0C7010E94D00D64E070E022
:10233000CE010E94D00DF60110821182128213820A
:10234000C130D10511F088E001C080E061E00E9459
:10235000CC22C130D10519F061EB71E002C067EB0E
:1023600071E08CEA94E00E9460166DE676E088E900
:1023700093E00E942F3568E973E08CEA94E00E94B4
:10238000601661E070E0CE01DF91CF911F910F9157
:10239000FF90EF90DF90CF900C94480FDF91CF919A
:1023A0001F910F91FF90EF90DF90CF9008956F9263
:1023B0007F928F929F92AF92BF92CF92DF92EF92D5
:1023C000FF920F931F93CF93DF93EC016B01019763
:1023D00009F02DC260903A0270903B0202E010E0DA
:1023E0003CE3832E32E0932E40E2E42E42E0F42ED2
:1023F0005FE1A52E52E0B52E85E0C816D10478F431
:10240000E3E0CE16D10408F0B9C1F1E0CF16D10453
:1024100069F082E0C816D10409F46EC004C2E5E098
:10242000CE16D10409F0FFC165E4ECC160E070E0B4
:10243000CE010E94480F61E070E0CE010E94D00DF5
:1024400010921B0210921C0210921D0210921E028A
:10245000F2E06F16710459F564E070E0C8010E9463
:10246000D00D602F81E090E00E94711E01301105B7
:1024700011F088E001C080E061E00E94CC220130D0
:10248000110519F061EB71E002C067EB71E08CEAB5
:1024900094E00E94601665E676E088E993E00E9489
:1024A0002F3568E973E08CEA94E00E946016C13031
:1024B000D10511F088E001C080E061E00E94CC22EB
:1024C000219719F061EB71E002C067EB71E08CEAD3
:1024D00094E00E9460166DE576E088E993E00E9442
:1024E0002F3568E973E08CEA94E00E946016F701EA
:1024F0001082F501108297C160E070E0CE010E9469
:10250000480FF401808191810397029708F097C0EA
:10251000F2E06F16710409F069C061E070E0CE016D
:102520000E94D00DF5018081811105C064E070E04A
:10253000C8010E94D00D602F81E090E00E94711EC2
:102540000130110511F088E001C080E061E00E94D7
:10255000CC220130110519F061EB71E002C067EB8C
:1025600071E08CEA94E00E946016F5018081882376
:1025700019F065E576E002C06DE476E088E993E065
:102580000E942F3568E973E08CEA94E00E9460169F
:10259000C130D10511F088E001C080E061E00E9407
:1025A000CC22219719F061EB71E002C067EB71E07A
:1025B0008CEA94E00E94601665E476E088E993E096
:1025C0000E942F3568E973E08CEA94E00E9460165F
:1025D00081E0F70180830E94A01760931B02709333
:1025E0001C0280931D0290931E021DC1C130D105B3
:1025F00011F088E001C080E061E00E94CC222197C8
:1026000019F061EB71E002C067EB71E08CEA94E0D5
:102610000E9460166DE376E088E993E00E942F3512
:1026200068E973E08CEA94E00E94601610921B0245
:1026300010921C0210921D0210921E02F4C0F1E0D2
:102640006F16710469F564E070E0CE010E94D00D50
:10265000F7011082F501108210921B0210921C02E9
:1026600010921D0210921E026C2F81E090E00E94D9
:10267000711EC130D10511F088E001C080E061E039
:102680000E94CC22219719F061EB71E002C067EB48
:1026900071E08CEA94E00E94601665E376E045C044
:1026A000E89461F8672809F04BC08091330290915B
:1026B00034028C179D0719F0009709F0CBC0F70181
:1026C000208121113DC08C179D0729F0892BC1F570
:1026D000C130D105C1F564E070E0CE010E94D00D9B
:1026E0000E94A01760931B0270931C0280931D022E
:1026F00090931E026C2F81E090E00E94711EC13009
:10270000D10511F088E001C080E061E00E94CC2298
:10271000219719F061EB71E002C067EB71E08CEA80
:1027200094E00E9460166DE276E088E993E00E94F2
:102730002F3568E973E08CEA94E00E94601673C05C
:10274000C130D10511F088E001C080E061E00E9455
:10275000CC22219719F061EB71E002C067EB71E0C8
:102760008CEA94E00E946016F7018081882319F0BA
:1027700065E276E0DACF6DE176E0D7CFCE010E9458
:10278000060F811150C0C130D10529F48091350266
:102790009091360204C080913102909132020497E8
:1027A00011F064E52FC010921B0210921C021092CF
:1027B0001D0210921E02C130D10511F088E001C047
:1027C00080E061E00E94CC22C130D10519F061EBBC
:1027D00071E002C067EB71E08CEA94E00E94601641
:1027E00065E176E088E993E00E942F3568E973E0BF
:1027F0008CEA94E00E94601661E070E0CE010E94D5
:10280000480F11C0CE01DF91CF911F910F91FF9022
:10281000EF90DF90CF90BF90AF909F908F907F9080
:102820006F900C94D80FF401D182C08213C06090D5
:102830003C0270903D0201E010E08AE3882E82E0C5
:10284000982E9FE1E92E92E0F92E20E2A22E22E0BE
:10285000B22ED2CDDF91CF911F910F91FF90EF90CB
:10286000DF90CF90BF90AF909F908F907F906F90B0
:102870000895CF92DF92EF92FF920F931F93CF9321
:10288000DF9300D000D0CDB7DEB76B017C012AE02A
:1028900030E040E050E00E94BD3188EEC81683E091
:1028A000D806E104F104B8F467E775E088E993E03D
:1028B00029833A834B835C830E942F35AAE0B0E0E2
:1028C00029813A814B815C810E941A329F938F93B8
:1028D0007F936F9331C0CA01B90124E630E040E034
:1028E00050E00E94BD31CB016AE070E00E94A93146
:1028F00021E030E0059714F420E030E08B01020F76
:10290000131FC701B60128EE33E040E050E00E94FB
:10291000BD3179010A30110529F49FEFE91AF90A4E
:1029200000E010E06EE775E088E993E00E942F3543
:102930001F930F93FF92EF9288E993E09F938F93F9
:1029400087EC92E09F938F930E9462320FB6F894C7
:10295000DEBF0FBECDBF87EC92E00F900F900F90BF
:102960000F90DF91CF911F910F91FF90EF90DF902B
:10297000CF900895CF92DF92EF92FF920F931F9323
:10298000CF93DF936C017A018B01C0E0D0E0CE15CC
:10299000DF0589F0D8016D918D01D601ED91FC9193
:1029A0000190F081E02DC6010995892B11F47E017B
:1029B00002C02196ECCFC701DF91CF911F910F91FB
:1029C000FF90EF90DF90CF900895FC01918D828D64
:1029D000981761F0828DDF01A80FB11D5D968C9173
:1029E000928D9F5F9F73928F90E008958FEF9FEF7E
:1029F0000895FC01918D828D981731F0828DE80F3A
:102A0000F11D858D90E008958FEF9FEF0895FC01F3
:102A1000918D228D892F90E0805C9F4F821B9109C0
:102A20008F73992708958FEF93E00E94071521E097
:102A3000892B09F420E0822F0895FC01848DDF01A9
:102A4000A80FB11DA35ABF4F2C91848D90E0019621
:102A50008F739927848FA689B7892C93A089B18910
:102A60008C9180648C93938D848D981306C002881A
:102A7000F389E02D80818F7D80830895EF92FF920E
:102A80000F931F93CF93DF93EC0181E0888F9B8D91
:102A90008C8D981305C0E889F989808185FD24C053
:102AA000F62E0B8D10E00F5F1F4F0F731127E02ED6
:102AB0008C8DE8120CC00FB607FCFACFE889F989B3
:102AC000808185FFF5CFCE010E941D15F1CF8B8D42
:102AD000FE01E80FF11DE35AFF4FF0820B8FEA89E8
:102AE000FB898081806207C0EE89FF896083E88965
:102AF000F98980818064808381E090E0DF91CF91CB
:102B00001F910F91FF90EF900895CF93DF93EC0109
:102B1000888D8823C9F0EA89FB89808185FD05C0FD
:102B2000A889B9898C9186FD0FC00FB607FCF5CF37
:102B3000808185FFF2CFA889B9898C9185FFEDCF7F
:102B4000CE010E941D15E7CFDF91CF91089580E05F
:102B500090E0892B29F00E94131581110C9400003C
:102B60000895833081F028F4813099F08230A1F00B
:102B700008958730A9F08830B9F08430D1F480917D
:102B800080008F7D03C0809180008F7780938000CC
:102B9000089584B58F7702C084B58F7D84BD089574
:102BA0008091B0008F7703C08091B0008F7D8093BB
:102BB000B00008953FB7F8948091DD029091DE0255
:102BC000A091DF02B091E00226B5A89B05C02F3F7F
:102BD00019F00196A11DB11D3FBFBA2FA92F982F43
:102BE0008827820F911DA11DB11DBC01CD0142E0BE
:102BF000660F771F881F991F4A95D1F7089508958A
:102C00000E942D326115710579F0FB0101900020C1
:102C1000E9F73197AF01461B570BDC01ED91FC91B1
:102C20000280F381E02D099480E090E008954F92B6
:102C30005F926F927F92EF92FF920F931F93CF93C9
:102C4000DF93CDB7DEB7A1970FB6F894DEBF0FBE06
:102C5000CDBF7C01FA01CB0119A2223008F42AE091
:102C60008E010F5D1F4F422E512C612C712CBF0124
:102C7000A30192010E94BD31F901CA01015011095D
:102C80006A3014F4605D01C0695CD8016C93232B39
:102C9000242B252B61F7B801C7010E940216A196CB
:102CA0000FB6F894DEBF0FBECDBFDF91CF911F915D
:102CB0000F91FF90EF907F906F905F904F900895ED
:102CC0000C9402161F920F920FB60F9211242F939D
:102CD0003F934F935F936F937F938F939F93AF93A4
:102CE000BF93EF93FF938FEF93E00E941D15FF9129
:102CF000EF91BF91AF919F918F917F916F915F9174
:102D00004F913F912F910F900FBE0F901F901895EC
:102D10001F920F920FB60F9211242F938F939F93B0
:102D2000EF93FF93E0910F04F09110048081E09104
:102D30001504F091160482FD12C090818091180450
:102D40008F5F8F7320911904821751F0E09118045E
:102D5000F0E0E150FC4F958F8093180401C0808112
:102D6000FF91EF919F918F912F910F900FBE0F9038
:102D70001F901895CF93DF93282F30E0F901E95485
:102D8000F84F8491F901E15EF84FD491F901E55FC4
:102D9000F84FC491CC2391F081110E94B115EC2F12
:102DA000F0E0EE0FFF1FEF5FF84FA591B491EC91AB
:102DB000ED2381E090E021F480E002C080E090E02B
:102DC000DF91CF9108951F93CF93DF93282F30E0A9
:102DD000F901E954F84F8491F901E15EF84FD4917B
:102DE000F901E55FF84FC491CC23C9F0162F81118A
:102DF0000E94B115EC2FF0E0EE0FFF1FE950F94FE4
:102E0000A591B4918FB7F894111105C09C91ED2F45
:102E1000E095E92302C0EC91ED2BEC938FBFDF919D
:102E2000CF911F910895CF93DF9390E0FC01E15E75
:102E3000F84F2491FC01E55FF84F8491882361F1FC
:102E400090E0880F991FFC01E351F94FC591D4918F
:102E5000FC01E950F94FA591B491611109C09FB7E8
:102E6000F8948881209582238883EC912E230BC0CF
:102E7000623061F49FB7F8943881822F8095832364
:102E80008883EC912E2B2C939FBF06C08FB7F894AC
:102E9000E8812E2B28838FBFDF91CF9108958E304C
:102EA00008F08E508770806480937C0080917A0057
:102EB000806480937A0080917A0086FDFCCF8091B7
:102EC00078002091790090E0922B08958F929F9244
:102ED000AF92BF92CF92DF92EF92FF926B017C0193
:102EE0000E94DA154B015C01C114D104E104F10424
:102EF000F1F00E94DA15DC01CB0188199909AA09C1
:102F0000BB09883E9340A105B10570F321E0C21AC8
:102F1000D108E108F10888EE880E83E0981EA11C14
:102F2000B11CC114D104E104F10419F7DDCFFF9005
:102F3000EF90DF90CF90BF90AF909F908F900895CB
:102F40002FB7F8946091D9027091DA028091DB0278
:102F50009091DC022FBF08951F920F920FB60F922F
:102F600011242F933F938F939F93AF93BF9380919F
:102F7000D9029091DA02A091DB02B091DC0230918B
:102F8000D80223E0230F2D3720F40196A11DB11D97
:102F900005C026E8230F0296A11DB11D2093D8027B
:102FA0008093D9029093DA02A093DB02B093DC0203
:102FB0008091DD029091DE02A091DF02B091E002EB
:102FC0000196A11DB11D8093DD029093DE02A093B6
:102FD000DF02B093E002BF91AF919F918F913F913B
:102FE0002F910F900FBE0F901F9018951F920F9268
:102FF0000FB60F9211242F933F934F935F936F93CC
:103000007F938F939F93AF93BF93EF93FF93E09141
:103010000201F09103010995FF91EF91BF91AF91EA
:103020009F918F917F916F915F914F913F912F91E0
:103030000F900FBE0F901F9018951F920F920FB612
:103040000F9211242F933F934F935F936F937F932E
:103050008F939F93AF93BF93EF93FF93E091000102
:10306000F09101010995FF91EF91BF91AF919F916F
:103070008F917F916F915F914F913F912F910F9021
:103080000FBE0F901F9018956093F8017093F9018F
:103090008093FA019093FB01DC01CB01845D9E4F8C
:1030A000AF4FBF4F8093F4019093F501A093F601C9
:1030B000B093F70182E090E09093D7028093D6021C
:1030C0000E94A0176093D2027093D3028093D4021F
:1030D0009093D5020895CF92DF92EF92FF920F93D3
:1030E0001F930E94A017C090D202D090D302E0900C
:1030F000D402F090D5028B019C010C191D092E09F8
:103100003F098091F8019091F901A091FA01B091E5
:10311000FB01083E134021053105D0F00196A11DA9
:10312000B11D8093F8019093F901A093FA01B09337
:10313000FB01B701A60148515C4F6F4F7F4F409391
:10314000D2025093D3026093D4027093D502C9CFB8
:103150004091F4015091F5016091F6017091F701F1
:1031600084179507A607B70788F1E091FC01F09155
:10317000FD01309759F1099561157105810591059A
:1031800019F00E94441822C08091F8019091F90131
:10319000A091FA01B091FB01845D9E4FAF4FBF4FEC
:1031A0008093F4019093F501A093F601B093F70199
:1031B00081E090E02091D6023091D702232B11F4C8
:1031C00080E090E09093D7028093D6026091F8015E
:1031D0007091F9018091FA019091FB011F910F917B
:1031E000FF90EF90DF90CF9008956F927F928F9233
:1031F0009F92AF92BF92CF92DF92EF92FF920F9386
:103200001F93CF93DF93EC01EE81AE2FB0E020E867
:1032100033E341EE51E00E941A324B015C0122EB94
:1032200037E0FD0104E610E080E9E82EFF24F39486
:10323000C901825B97408E179F07DCF4C901837038
:103240009927892B99F4C901B8010E94A931892BCA
:1032500031F4C901B7010E94A931892B39F480E802
:10326000880E81E5981E81E0A81EB11C2F5F3F4F9C
:10327000DFCF6D80712CEE54F84FCF0164E670E023
:103280000E94A9317C01CF0160E971E00E94A9315F
:103290006C0101E010E0E370FF27061517052CF51F
:1032A0000230110581F4309771F4E114F10419F43E
:1032B000C114D10441F480E8880E8BE3981E86E2A5
:1032C000A81EB11C0FC0D801A85DBE4FAC91B0E0E4
:1032D00020E831E541E050E00E941A32860E971E48
:1032E000A81EB91E0F5F1F4FD8CF49812A8130E039
:1032F000A0E1BEE00E9404326B017C01242F30E08B
:10330000ACE3B0E00E940432DC01CB018C0D9D1DCA
:10331000AE1DBF1D28816C017D01C20ED11CE11CB8
:10332000F11CAC81B0E0119720E831E541E050E0BC
:103330000E942532DC01CB018C0D9D1DAE1DBF1DF1
:10334000BC01CD01680D791D8A1D9B1DDF91CF91B8
:103350001F910F91FF90EF90DF90CF90BF90AF90B3
:103360009F908F907F906F9008951F93CF93DF93DE
:10337000CDB7DEB727970FB6F894DEBF0FBECDBF2F
:1033800088E60E940F2260E080EA94E00E946C1CB4
:103390000E941922882319F01092CD0283C081E087
:1033A0008093CD0267E070E088E690E00E9476228C
:1033B00080919E0490E020919F04821B91090797C1
:1033C0000CF470C080EA94E00E94201C182F8695AF
:1033D000869586958E70982F990F990F890F912F4A
:1033E0009F70890F898380EA94E00E94201C282F17
:1033F00022952F70982F9F708AE0289F900D11249E
:103400009A8380EA94E00E94201C982F282F26950A
:10341000269526952670822F880F880F280F9F707B
:10342000920F9B8380EA94E00E94201C282F229513
:103430002F70982F9F708AE0289F900D11249C83F5
:1034400080EA94E00E94201C282F22952F70982F4C
:103450009F708AE0289F900D11249D8380EA94E05C
:103460000E94201C282F22952F70982F9F708AE091
:10347000289F900D11249E8380EA94E00E94201CD6
:10348000982F9F70925E282F22952F708AE0289F98
:10349000900D11249F8317FD05C0CE0101960E9457
:1034A000F51803C060E070E0CB0127960FB6F894E2
:1034B000DEBF0FBECDBFDF91CF911F9108956F92F8
:1034C0007F928F929F92AF92BF92CF92DF92EF92B4
:1034D000FF920F931F93CF93DF93EA012CE3C22E49
:1034E000D12CE12CF12CA70196010E94BD316883FB
:1034F000CA01B901A70196010E94BD316983CA01C1
:10350000B90128E130E040E050E00E94BD3169019E
:103510007A016A83CA01B9016C5F7F4F8F4F9F4F59
:1035200027E030E040E050E00E94BD316F5F6B83E8
:10353000812C912C540140E034E6632E712C00E97B
:1035400011E0242F30E02E54384FF901E370FF27AB
:10355000309789F4C901B3010E94A931892B31F454
:10356000C901B8010E94A931892B29F48EE691E0A6
:10357000A0E0B0E004C08DE691E0A0E0B0E0880EED
:10358000991EAA1EBB1ED501C401AA27BB27C816B7
:10359000D906EA06FB0610F04F5FD3CF4E83309773
:1035A00099F4C90164E670E00E94A931892B39F4CD
:1035B000C90160E971E00E94A931892B29F48EE6E6
:1035C00091E0A0E0B0E004C08DE691E0A0E0B0E0C2
:1035D000881A990AAA0ABB0AC818D908EA08FB0877
:1035E000C90164E670E00E94A9318C01C90160E95B
:1035F00071E00E94A931A9E2B1E020E0213041F45C
:10360000309751F40115110529F4009729F402C0EF
:103610004C9103C04DE101C04CE150E060E070E02E
:10362000C416D506E606F70640F0C41AD50AE60A1F
:10363000F70A2F5F11962C3009F72F5F2D83C39463
:10364000CC82DF91CF911F910F91FF90EF90DF908F
:10365000CF90BF90AF909F908F907F906F90089584
:10366000CF92DF92EF92FF92C090CE02D090CF0225
:10367000E090D002F090D1026C157D058E059F057B
:1036800071F06B017C0148EF53E00E945F1AC09219
:10369000CE02D092CF02E092D002F092D102FF90FF
:1036A000EF90DF90CF9008950E94301B8091FE0331
:1036B00090E08E54984F0895CF92DF92EF92FF9250
:1036C000CF936B017C019B01AC016EEF7FEF81E03A
:1036D00090E00E9479319B01AC0160E074E284EFDC
:1036E00090E00E94BD31C0E0EC2FF0E0EE0FFF1F34
:1036F000E35BFE4F80819181CF5F82179307A0F338
:10370000A7019601220F331F441F551FEC2FF0E035
:10371000EE0FFF1FE35BFE4FA081B1810E941A32C2
:103720009B01AC0160E074E284EF90E00E94BD3147
:10373000309387002093860080918100C770887F36
:10374000C82BC093810081E0CF91FF90EF90DF9074
:10375000CF900895CF93DF931F92CDB7DEB7FC01D2
:103760008185806269830E940F2289E00E94201D6A
:103770006981862F0E94201D0E9419228111FCCF91
:103780000F90DF91CF910895CF93DF931F92CDB724
:10379000DEB7FC018185806269830E940F2283E18C
:1037A0000E94201D6981862F0E94201D0E941922DF
:1037B0008111FCCF0F90DF91CF91089585ED80931B
:1037C000BC008091BC0084FDFCCF1092760308956C
:1037D00040910B03262F30E0240F311D213231059B
:1037E000DCF4209176032430C9F4FC0180E090E001
:1037F000861758F430910B032191DC01A751BD4F7E
:10380000A30FB11D2C930196F3CF80910B03680F8A
:1038100060930B0380E0089581E0089582E00895AD
:103820000895E0919F0480919E04E81730F4F0E041
:10383000E05DFC4F808190E008958FEF9FEF089549
:1038400090919F0480919E04981750F4E92FF0E026
:10385000E05DFC4F208130E09F5F90939F0402C0A9
:103860002FEF3FEFC901089580919E0490E02091D1
:103870009F04821B91090895CF92DF92EF92FF92ED
:103880000F931F93CF93DF937C01262F972F8A01ED
:1038900080919703882391F0C62FD72F6E01C40E15
:1038A000D51ECC15DD0571F06991D701ED91FC9124
:1038B0000190F081E02DC7010995F3CF642F822F8D
:1038C0000E94E81BC801DF91CF911F910F91FF90DB
:1038D000EF90DF90CF900895CF93DF931F92CDB7F5
:1038E000DEB76983209197032223D1F020919C04B5
:1038F000203240F021E030E0FC013383228380E07D
:1039000090E015C080919D04E82FF0E0E958FC4F4D
:10391000998190838F5F80939D0480939C0405C060
:1039200061E0CE0101960E94E81B81E090E00F90DB
:10393000DF91CF910895FF920F931F93CF93DF9361
:103940008C01C62FF42EFC0186858130B1F565858A
:10395000C4FD6061C5FD6860C6FD6460C7FD62604E
:10396000D62FFF2011F0D06A01C0D0626D2FC801A0
:103970000E94C41B6D2F6F7DC8010E94C41BF801FB
:103980006585C0FD6061C1FD6860C2FD6460C3FD06
:103990006260C62FFF2011F0C06A01C0C0626C2FA8
:1039A000C8010E94C41B6C2F6F7DC801DF91CF91AD
:1039B0001F910F91FF900C94C41B607F70E0759570
:1039C0006795442311F0666001C06460F801858149
:1039D00083FD02C0D0E001C0D0E8D62B6D2FC80116
:1039E0000E94AA1B6D2F6B7FC8010E94AA1BCF707B
:1039F000CC0FCC0FCC0FFF2011F0C66001C0C4600B
:103A0000F801858183FD02C060E001C060E8C62B3B
:103A10006C2FC8010E94AA1B6C2F6B7FC801DF911D
:103A2000CF911F910F91FF900C94AA1BFC0123854D
:103A3000222319F041E00E949B1C81E090E0089550
:103A4000682F80EA94E00C946C1C1F920F920FB6C2
:103A50000F9211242F933F934F935F936F937F9314
:103A60008F939F93AF93BF93EF93FF938091B90090
:103A7000887F803609F49CC068F5883209F45BC001
:103A800090F4803109F454C038F4882309F4F6C066
:103A9000883009F44DC0F6C0883109F44CC080323A
:103AA00009F45DC0EFC0803409F468C048F4803385
:103AB00009F455C0883309F0E5C080937403D8C079
:103AC000803509F44FC0883509F45DC0883409F0A9
:103AD000D9C0D6C0883909F4C7C0A8F4883709F41A
:103AE00067C038F4883609F463C0803709F460C0D1
:103AF000C9C0883809F4B8C0803909F45FC080387B
:103B000009F0C0C05BC0803B09F486C038F4803A3D
:103B100009F466C0883A09F47FC0B4C0803C09F457
:103B2000A7C0883C09F4A4C0883B09F48AC0AAC095
:103B30008091510310C09091730380917203981784
:103B400070F5E091730381E08E0F80937303F0E0D2
:103B5000EE5AFC4F80818093BB0085EC86C0809339
:103B600074038EC0E091730381E08E0F8093730322
:103B70008091BB00F0E0EE5AFC4F8083909173037C
:103B8000809172036EC0E091730381E08E0F809389
:103B900073038091BB00F0E0EE5AFC4F808380916C
:103BA000750381116DC081E08093500384EA61C088
:103BB00083E08093760310922F03CFCF80912F0361
:103BC000803208F051C0E0912F0381E08E0F809386
:103BD0002F038091BB00F0E0E15FFC4F8083BDCFFD
:103BE00085EC8093BC001092760380912F03803285
:103BF00030F4E0912F03F0E0E15FFC4F1082609120
:103C00002F0370E0E0910D03F0910E038FE093E03D
:103C1000099510922F0336C084E0809376031092AA
:103C20000C0310920B03E0910903F0910A0309952C
:103C300080910B03811105C081E080930B031092EA
:103C4000E902E0910C0381E08E0F80930C03F0E019
:103C5000E751FD4F80818093BB0090910C038091D0
:103C60000B03981708F479CF85E88093BC000AC04D
:103C700085EC8093BC001092760304C0109274030C
:103C80000E94DE1BFF91EF91BF91AF919F918F91A9
:103C90007F916F915F914F913F912F910F900FBE48
:103CA0000F901F9018951092760381E08093750312
:103CB0001092500361E082E10E94E31661E083E12B
:103CC0000E94E316E9EBF0E080818E7F80838081A3
:103CD0008D7F808388E48093B80085E48093BC0066
:103CE00008950C943E350C943635CF93C82F0E941E
:103CF0002E0BCC2361F083E00E9409230E946A23EB
:103D000087EE93E09093E8028093E7021FC000974C
:103D100009F452C281309105B1F48091E50290918D
:103D2000E60201969093E6028093E5022091E30279
:103D30003091E4022817390708F0FFC01092E6021C
:103D40001092E502FAC0029709F0F7C08091E702ED
:103D50009091E8028230910509F445C0F0F4009793
:103D600019F1019709F06BC0E091E502F091E602CC
:103D7000EC5FFE4F4081242F30E0A8EEB3E00E94BC
:103D80000432609317027093180280931902909383
:103D90001A02642F82E090E023C08430910589F1FB
:103DA00098F00597E1F14BC06091E5028091E60241
:103DB000609337028093380280E090E00E94711E89
:103DC0006FEF81E090E00CC061E08091E50290919E
:103DD000E602892B09F060E06093FE0183E090E049
:103DE0000E94711E2CC08091E5029091E602892B01
:103DF00031F51092490281E080934802CF910C94F2
:103E000009078091E5029091E602892BC1F4109296
:103E1000490281E080934702CF910C94190480916C
:103E2000E5029091E602892B19F410924902C4C16F
:103E300087EE93E09093E8028093E702BDC1809102
:103E4000E7029091E80201968630910528F490935C
:103E5000E8028093E70204C01092E8021092E702A1
:103E60008091E7029091E8028230910509F450C0F8
:103E7000D0F4009719F1019709F057C0609117022B
:103E8000709118028091190290911A0228EE33E085
:103E900040E050E00E94BD31E4E0F1E070E060E01D
:103EA00080E090E014C08430910591F110F1059705
:103EB000E1F51092E6021092E50231C080913702DE
:103EC000909138029093E6028093E50228C04191D8
:103ED00050E02417350711F4782F692F01968B30A5
:103EE0009105A9F77093E5026093E6028AE090E0FD
:103EF00018C081E090E09093E4028093E3029091F7
:103F0000FE01892790E09093E6028093E5020DC0C0
:103F100081E090E09093E6028093E50202C081E0A8
:103F200090E09093E4028093E3028091E502909107
:103F3000E6029093E2028093E1020E946A2380915C
:103F4000E7029091E8028230910509F471C028F4EB
:103F5000009769F00197D1F12FC18430910509F4E0
:103F6000C5C008F494C0059709F4EEC025C168EAFD
:103F700077E088E993E00E942F3568E973E08CEAE6
:103F800094E00E94601661E080E00E94CC222091C3
:103F9000E5023091E6028091E1029091E202281759
:103FA000390711F080E201C08BE20E94C1228091AA
:103FB000E5029091E602009731F0019709F0FCC00C
:103FC00066E977E0EEC061EA77E0EBC067E877E0AA
:103FD00088E993E00E942F3568E973E08CEA94E069
:103FE0000E94601661E080E00E94CC222091E502F0
:103FF0003091E6028091E1029091E20228173907A0
:1040000011F080E201C08BE20E94C122E091E50242
:10401000F091E602EC5FFE4F408150E060E070E01E
:104020002AE08CEA94E00E94171661E877E0B9C0B4
:1040300066E777E088E993E00E942F3568E973E04E
:104040008CEA94E00E94601661E080E00E94CC223D
:104050002091E5023091E6028091E1029091E20226
:104060002817390711F080E201C08BE20E94C122BB
:104070008091E5029091E602009731F0019709F0F6
:104080009BC06FE677E08DC062E777E08AC063E6A9
:1040900077E088E993E00E942F3568E973E08CEAC5
:1040A00094E00E94601661E080E00E94CC222091A2
:1040B000E5023091E6028091E1029091E202281738
:1040C000390711F080E201C08BE20E94C122809189
:1040D000E5029091E602009731F0019709F06CC07B
:1040E0006CE577E05EC06FE577E05BC06DE477E09C
:1040F00088E993E00E942F3568E973E08CEA94E048
:104100000E94601661E080E00E94CC222091E502CE
:104110003091E6028091E1029091E202281739077E
:1041200011F080E201C08BE20E94C1228091E50281
:104130009091E602009729F00197F1F566E477E0A7
:1041400030C069E477E02DC06AE377E088E993E066
:104150000E942F3568E973E08CEA94E00E946016B3
:1041600061E080E00E94CC222091E5023091E602DD
:104170008091E1029091E2022817390711F080E264
:1041800001C08BE20E94C1228091E5029091E6027B
:10419000009729F0019781F463E377E002C066E3BA
:1041A00077E088E993E00E942F3568E973E08CEAB4
:1041B00094E0CF910C946016CF9108958F929F92C6
:1041C000AF92BF92CF92DF92EF92FF920F931F9325
:1041D000CF93DF93CDB7DEB764970FB6F894DEBF09
:1041E0000FBECDBF5F87798BF42E411109C06F5F81
:1041F0006D3040F02FEFC21AD20A21E061E003C017
:10420000242F01C021E089898B831A82198281E0E1
:104210008D836E838EE48C0D8F83CE0101962C8B63
:104220000E94F5184B015C010F8510E00E94301BC5
:104230002C8930E02150310987E0829FF001839F73
:10424000F00D11248091FB039801281B3109C9014D
:10425000079667E070E00E94A931DF01A80FB91F3F
:1042600020E831E541E050E00E942532680D791DDB
:104270008A1D9B1DF11004C060587A438940910942
:1042800064960FB6F894DEBF0FBECDBFDF91CF911D
:104290001F910F91FF90EF90DF90CF90BF90AF9064
:1042A0009F908F9008958F929F92AF92BF92CF92DE
:1042B000DF92EF92FF920F931F93CF93DF936C01E6
:1042C000E090BB04F090BC040091BD041091BE04CA
:1042D0002091BF043091C0044091C1045091C204A8
:1042E0006091C3047091C4048091C5049091C60488
:1042F0000E94DE20CBEBD4E068A379A38AA39BA322
:10430000E7ECF4E0E080F1800281138124813581C3
:104310004681578160857185828593850E94DE2064
:104320006B017C016CA37DA38EA39FA3AE89BF8983
:104330002CE330E00E94133208A119A12AA13BA16D
:1043400048015901861A970AA80AB90A888E998ED7
:10435000AA8EBB8EAA85BB852CE330E00E94133267
:10436000C61AD70AE80AF90ACC8EDD8EEE8EFF8EC9
:10437000DF91CF911F910F91FF90EF90DF90CF9041
:10438000BF90AF909F908F9008950F931F93CF93FE
:10439000DF93CDB7DEB7C056D1090FB6F894DEBFB4
:1043A0000FBECDBFA9960EAD1FADA9970230110566
:1043B00050F59E0125593F4F48E953E060E670E013
:1043C000CE0101960E9485320130110519F465ED88
:1043D00077E002C06BEC77E088E993E00E942F352C
:1043E00068E973E08FEF93E00E946016BE016F5F93
:1043F0007F4F8FEF93E00E94021661EF71E08FEF25
:1044000093E00E940216C05ADF4F0FB6F894DEBF49
:104410000FBECDBFDF91CF911F910F91089591E015
:10442000909397038093E30410929D0410929C0450
:10443000089520919C049091E304213208F04AC031
:10444000809176038111FCCF32E03093760331E026
:10445000309375033FEF30937403109273032093EE
:104460007203A7E7B3E042E553E0FA013E2F341BA5
:10447000321718F43D913193F9CF109251032091E6
:104480005103990F922B90935103909150039130C7
:1044900061F410925003909151039093BB0090915E
:1044A000BC0093FDF8CF95EC01C095EE9093BC0055
:1044B000909176039230E1F3909174039F3F79F0ED
:1044C00080917403803241F080917403803331F025
:1044D00084E005C081E003C082E001C083E0109267
:1044E0009D0410929C041092970308959091760376
:1044F0009111FCCF613208F060E291E09093760375
:10450000909375032FEF2093740310927303260F7B
:10451000209372039093510390915103880F892B3C
:104520008093510380915003813061F410925003C5
:10453000809151038093BB008091BC0083FDF8CF34
:1045400085EC01C085EE8093BC00809176038130BC
:10455000E1F380917303861710F460917303A2E571
:10456000B3E020E333E0F9018E2F821B861718F4A5
:104570008D918193F9CF10929F0460939E04862FB2
:104580000895E091AC04F091AD040190F081E02D2C
:10459000682F8CEA94E00994CF93DF93CDB7DEB710
:1045A00028970FB6F894DEBF0FBECDBF2091B70499
:1045B000222331F128E0E5E3F1E0DE0111960190DC
:1045C0000D922A95E1F72091B304261710F46FEFAE
:1045D000620FFE013196E60FF11DE60FF11D90818D
:1045E000682F690F606840E08CEA94E028960FB667
:1045F000F894DEBF0FBECDBFDF91CF910C949B1C12
:1046000028960FB6F894DEBF0FBECDBFDF91CF91D5
:104610000895CF93DF939091B704992309F457C07D
:104620009091B604992311F097E089279091BA04EC
:104630009130C1F580FD03C020EC31E002C020E8DC
:1046400031E03093B9042093B80481FF09C0209170
:10465000B8043091B9042F773093B9042093B8048B
:1046600082FF09C08091B8049091B9049E7F909315
:10467000B9048093B804D091B804C091B904809172
:10468000B50480620E940F2282E10E94201D8D2FBE
:104690000E94201D8C2F0E94201D0E941922811132
:1046A000FCCF15C09091B104882311F0986001C02F
:1046B000977F9093B1048091B104682F687083FD57
:1046C00060E88CEA94E0DF91CF910C94AA1BDF9113
:1046D000CF9108958091B704882351F040E061E0C4
:1046E0008CEA94E00E949B1C8BE39FE10197F1F719
:1046F0000895CF92DF92EF92FF920F931F93CF9383
:10470000E82F880FFF0BE954F84FE4918DEF8E0FDF
:10471000823068F468EE73E080E090E0CF911F9102
:104720000F91FF90EF90DF90CF900C945C1BE830DE
:1047300091F5C0E00FE110E0C12C94E2D92E94EF86
:10474000E92EF12CCF5FEC2FF0E0EE0FFF1FE35CC2
:10475000FE4F8081918180179107A0F38C019C010D
:10476000A0EDB7E00E9404329B01AC01C701B60185
:104770000E94BD312F3F31054105510509F010F769
:104780002093B3008091B100C770887FC82BC0937D
:10479000B10081E001C080E0CF911F910F91FF90A7
:1047A000EF90DF90CF900895CF93DF93CDB7DEB732
:1047B00061970FB6F894DEBF0FBECDBF789484B575
:1047C000826084BD84B5816084BD85B5826085BD0D
:1047D00085B5816085BD80916E00816080936E009B
:1047E000109281008091810082608093810080918D
:1047F000810081608093810080918000816080933E
:1048000080008091B10084608093B1008091B000FD
:1048100081608093B00080917A00846080937A00F8
:1048200080917A00826080937A0080917A00816022
:1048300080937A0080917A00806880937A00109249
:10484000C10014BE9EE088E10FB6F894A89580934D
:1048500060000FBE90936000E0910F04F09110048F
:1048600012E01083E0910B04F0910C041082E091AF
:104870000D04F0910E048FEC808310921704E091E8
:104880001304F091140486E08083E0911104F09108
:104890001204808180618083E0911104F091120400
:1048A000808188608083E0911104F09112048081FE
:1048B00080688083E0911104F091120480818F7DE3
:1048C000808366EF70E088E993E00E942F3581EAEB
:1048D00091E09F938F9387EA91E09F938F9388E96C
:1048E00093E09F938F931F921F930E94C521809105
:1048F00080008C7F8093800080918100877E806122
:104900008093810064EF71E080E090E00E945C1B86
:104910008091B0008C7F81608093B0008091B10065
:1049200088608093B1000FB6F894DEBF0FBECDBF94
:1049300010E02EE3E22EF12C812C34E2932E34EFA2
:10494000A32EB12C1F5FE12FF0E0EE0FFF1FE35C01
:10495000FE4F808191818E159F05A0F37C019C0103
:10496000A8EEB3E00E9404329B01AC01C501B40182
:104970000E94BD312F3F31054105510509F010F767
:104980002093B3008091B1001770887F182B10938B
:10499000B10081E08093BA0462E370E080E090E0CF
:1049A0000E94661710929F0410929E0410929D041C
:1049B00010929C040E94531E9091BA048091B504F9
:1049C0008062913069F50E940F2280E00E94201DD4
:1049D0008FE10E94201D0E941922882339F08091C6
:1049E000B704823019F41092B704EDC08091B50479
:1049F00080620E940F228CE00E94201D8FE10E94A5
:104A0000201D0E941922882321F08091B704823052
:104A100051F38091B50480620E940F2281E032C080
:104A20000E940F2280E00E94201D8FEF0E94201D17
:104A300080E00E94201D80E00E94201D80E00E94F6
:104A4000201D80E00E94201D80E00E94201D80E04B
:104A50000E94201D80E00E94201D80E00E94201DF9
:104A600080E00E94201D0E941922882329F0809155
:104A7000B704823009F4B7CF8091B50480620E94F8
:104A80000F2280E00E94201D80E00E94201D0E94D5
:104A90001922882329F08091B704823009F4A3CF2A
:104AA0008091B704823019F481E08093B70480913B
:104AB000B00488608093B00482E08093B3041092C5
:104AC000B4048091BA048130E1F41092B9041092D8
:104AD000B80413E068E38CEA94E00E94C41B68E128
:104AE0008CEA94E00E94C41B1150A1F768E28CEAA2
:104AF00094E00E94C41B68E08CEA94E00E94C41B0E
:104B000028C06CE98CEA94E00E94AA1B68E98CEA50
:104B100094E00E94AA1B6CE98CEA94E00E94AA1B14
:104B200068E98CEA94E00E94AA1B6CE98CEA94E0A4
:104B30000E94AA1B68E98CEA94E00E94AA1B64E91F
:104B40008CEA94E00E94AA1B60E98CEA94E00E943F
:104B5000AA1B65E070E080E090E00E94661760911B
:104B6000B004606240E08CEA94E00E949B1C65E027
:104B700070E080E090E00E9466176091B00460628F
:104B800040E08CEA94E00E949B1C65E070E080E0CD
:104B900090E00E9466178CE08093B1048091B70486
:104BA000882331F040E06CE08CEA94E00E949B1C8A
:104BB0000E946A2382E08093B20440E066E08CEABF
:104BC00094E00E949B1C87E00E9409230E946A23B4
:104BD00060E080E00E94CC2268EE70E088E993E01B
:104BE0000E942F3568E973E08CEA94E00E94601619
:104BF00061E080E00E94CC2264EE70E088E993E0FE
:104C00000E942F3568E973E08CEA94E00E946016F8
:104C10006EED70E088E993E00E942F3568E973E05B
:104C20008CEA94E00E9460166AED70E088E993E0F7
:104C30000E942F3568E973E08CEA94E00E946016C8
:104C400064ED70E088E993E00E942F3568E973E035
:104C50008CEA94E00E94601660E082E00E941317E4
:104C600061E083E00E94131760E083E00E94E31696
:104C700080E19BE0909301018093000180916900A5
:104C8000836080936900E89A61E08AE00E941317CC
:104C900061E089E00E94131761E088E00E94131729
:104CA00061E087E00E94131760E081E10E94131722
:104CB00060E080E10E94131761E070E081E090E025
:104CC0000E94D00D61E070E082E090E00E94D00D83
:104CD00060E070E081E090E00E94480F60E070E0EA
:104CE00082E090E00E94480F88E2EAE4F2E0DF010F
:104CF000482E1D924A94E9F7ECE7F2E0DF011D929D
:104D00008A95E9F710923D0210923C0210923B0204
:104D100010923A0210922502109226021092270257
:104D20001092280210922102109222021092230265
:104D3000109224021092A4021092A5021092A602D0
:104D40001092A702109274021092750210927602CD
:104D5000109277021092A8021092A9021092AA0251
:104D60001092AB02109278021092790210927A029D
:104D700010927B021092030210920402109205021C
:104D8000109206021092FF0110920002109201028E
:104D90001092020210921B0210921C0210921D022D
:104DA00010921E0283E690E0909373028093720249
:104DB0001092420210924302109244021092450255
:104DC00080E090E00E94731E90E08230910528F40C
:104DD000909338028093370209C0109238021092E3
:104DE000370260E080E090E00E94711E80913702FF
:104DF00090913802019781F481E090E00E94731E47
:104E000090E090933402809333020197029720F050
:104E1000109234021092330282E090E00E94731EDE
:104E200090E0E4E0F1E0219130E08217930731F067
:104E3000B1E0EF30FB07B9F72CE030E0A8EEB3E0CB
:104E40000E94043260931702709318028093190233
:104E500090931A0200E110E0C8010E94731ED82E40
:104E6000C80101960E94731EE82EC80102960E9496
:104E7000731EF82EC80103960E94731E982F83306C
:104E800008F090E0E7E1ED1508F4D12CFBE3FE1506
:104E900008F4E12C9801295F3D4FF9017097D08209
:104EA0003196E08231968F2D8F7780833196908373
:104EB0000C5F1F4F0032110579F683E090E00E94ED
:104EC000731E91E0811101C090E09093FE0185EB8B
:104ED00099E19093FD018093FC018091F8019091FC
:104EE000F901A091FA01B091FB018093F401909334
:104EF000F501A093F601B093F7010E946B1884E0CE
:104F000090E00E94731E682F082E000C770B77FF2D
:104F100003C0719561957109162F1F7187FF10628B
:104F200088E60E940F2267E080EA94E00E946C1CF1
:104F3000612F80EA94E00E946C1C0E9419228AE092
:104F40000E947923811116C062EB70E088E993E03A
:104F50000E942F3588E993E09F938F931F9281E001
:104F60008F930E94C52183E00E9409230F900F9028
:104F70000F900F9089E00E947923811116C060E99B
:104F800070E088E993E00E942F3588E993E09F93D1
:104F90008F931F9281E08F930E94C52184E00E942D
:104FA00009230F900F900F900F9080ED97E00E94D3
:104FB000A80A0E946A230E94C10A81E10E94BA16CF
:104FC00001E0019709F000E080E10E94BA1611E0CB
:104FD000019709F010E0011102C0112309F181E0ED
:104FE0000E9409230E946A2360E870E088E993E048
:104FF0000E942F3568E973E08CEA94E00E94601605
:1050000061E080E00E94CC22002319F081E40E943C
:10501000C122112319F082E40E94C1220E94590A80
:105020009E012F5F3F4F4901A89580914902882337
:1050300021F080E00E94751E28C4809148028823D8
:1050400021F080E00E94090720C480914702882354
:1050500021F080E00E94190418C480914602882340
:10506000D1F06AE774E088E993E00E942F3588E97F
:1050700093E09F938F931F9281E08F930E94C521AD
:1050800067E480E090E00E94D80F109246020F90F3
:105090000F900F900F908091420290914302A09147
:1050A0004402B0914502892B8A2B8B2B81F581E13B
:1050B0000E94BA16019739F4809140029091410202
:1050C000892B09F4E5C380E10E94BA16019739F4EF
:1050D00080913E0290913F02892B09F4F2C381E155
:1050E0000E94BA16892B39F48091400290914102B6
:1050F000019709F4FFC380E10E94BA16892B39F4A5
:1051000080913E0290913F02019709F40CC4809176
:10511000420290914302A0914402B0914502892B32
:105120008A2B8B2BA1F00E94A017009142021091B4
:10513000430220914402309145020C501E4F2F4FE4
:105140003F4F061717072807390708F405C4809151
:105150003C0290913D02059731F080913A02909186
:105160003B02059711F481E01AC081E090E00E94B3
:10517000060F182F82E090E00E94060F11110AC05E
:1051800081110CC080913902811102C082E007C0F8
:1051900083E005C0882311F085E001C086E00E940D
:1051A00009238091B002882309F474C080913902E8
:1051B00081116CC080913702909138028130910545
:1051C000C1F420913502309136022430310541F08E
:1051D0008091310290913202049739F482E090E09C
:1051E000909334028093330204C0109234021092E0
:1051F000330261E070E081E090E00E94D00D61E058
:1052000070E082E090E00E94D00D0E94A0176093B1
:105210002D0270932E0280932F02909330026093A0
:10522000290270932A0280932B0290932C021092F1
:105230003D0210923C0210923B0210923A021092F0
:105240002502109226021092270210922802109234
:105250002102109222021092230210922402109234
:10526000200210921F0263EF73E088E993E00E942E
:105270002F3588E993E09F938F931F9281E08F935E
:105280000E94C5210F900F900F900F9081E08093A6
:10529000390202C01092390260E080E00E94CC2204
:1052A00088E60E940F2260E080EA94E00E946C1C75
:1052B0000E94192261E070E088E690E00E94762268
:1052C00080EA94E00E94201C87FD42C00E947C0678
:1052D0000E94301B8091FA0390E00C9714F411E4C3
:1052E00001C010E50E947C060E94301B0091F9036A
:1052F0000E947C060E94301B8091FA03882341F0B3
:10530000E82EF12C8D3038F03CE0E31AF10803C0B0
:105310008CE0E82EF12C66EE73E088E993E00E94C1
:105320002F351F921F931F920F93FF92EF9288E9E0
:1053300093E09F938F931F9241E14F939F928F929F
:105340000E9432320FB6F894DEBF0FBECDBF17C039
:105350006DED73E088E993E00E942F3588E993E0D2
:105360009F938F931F9291E19F939F928F920E94A0
:1053700032320F900F900F900F900F900F90B4015A
:105380008CEA94E00E94601680913902882319F01B
:1053900064ED73E01CC061ED73E088E993E00E9466
:1053A0002F3568E973E08CEA94E00E9460168091E2
:1053B000370290913802009729F0019731F463EC9D
:1053C00073E005C06AEC73E002C06FEB73E088E93C
:1053D00093E00E942F3568E973E08CEA94E00E9424
:1053E000601681E090E00E94290D7C0180913902D5
:1053F000811176C680913C0290913D0285309105E5
:1054000009F452C0E816F90609F47BC00097C1F10F
:105410009701215031092530310540F4220F331F07
:10542000F901E15FFE4FC080D18004C0B9E9CB2E05
:10543000B1E0DB2E01978530910540F4880F991F6C
:10544000FC01E15FFE4F0081118102C009E911E01A
:105450006AE673E088E993E00E942F35DF92CF92ED
:105460001F930F9388E993E09F938F931F9281E09E
:105470008F930E94C5210FB6F894DEBF0FBECDBF3B
:105480008091370290913802009741F00197C9F559
:10549000B70181E090E00E94D71133C0B70181E0ED
:1054A00090E00E94AB102DC021E0E216F10409F05B
:1054B00011C610923D0210923C026CE973E088E93B
:1054C00093E00E942F3588E993E09F938F931F927A
:1054D00081E08F930E94C5210F900F900F900F9045
:1054E00080912D0290912E02A0912F02B091300256
:1054F000892B8A2B8B2B09F0A7C58091390281114A
:10550000BFC582E090E00E94290D8C018091390294
:10551000811144C680913A0290913B0285309105F9
:1055200009F454C00817190709F47CC00097D1F199
:105530009801215031092530310540F4220F331FE5
:10554000F901E15FFE4FA080B18004C0E9E9AE2E11
:10555000E1E0BE2E01978530910540F4880F991F38
:10556000FC01E15FFE4FC080D18004C069E9C62E16
:1055700061E0D62E65E173E088E993E00E942F3563
:10558000BF92AF92DF92CF9288E993E09F938F937F
:105590001F9281E08F930E94C5210FB6F894DEBF61
:1055A0000FBECDBF8091370290913802009741F035
:1055B0000197C1F5B80182E090E00E94D71132C096
:1055C000B80182E090E00E94AB102CC001301105C0
:1055D00009F0F8C510923B0210923A0267E473E0BA
:1055E00088E993E00E942F3588E993E09F938F9399
:1055F0001F9281E08F930E94C5210F900F900F9012
:105600000F908091290290912A02A0912B02B091D3
:105610002C02892B8A2B8B2B09F07DC580913902B6
:10562000811195C5A0901B02B0901C02C0901D0274
:10563000D0901E02A114B104C104D10409F487C0A2
:105640000E94A0172B013C01DC01CB018A199B09A8
:10565000AC09BD09813E9349A440B10508F477C067
:105660008091350290913602049771F563EE72E0F5
:1056700088E993E00E942F35ADEAB1E0BF93AF9384
:1056800088E993E09F938F931F9281E08F930E940C
:10569000C52161E070E081E090E00E94D00D64E0FF
:1056A00070E082E090E00E94D00D40921B02509288
:1056B0001C0260921D0270921E0261E080E00E9456
:1056C000CC2262ED72E033C08091310290913202BF
:1056D0000497E9F560EA72E088E993E00E942F35CB
:1056E000A3EBB1E0BF93AF9388E993E09F938F93CF
:1056F0001F9281E08F930E94C52161E070E082E0FB
:1057000090E00E94D00D64E070E081E090E00E94A3
:10571000D00D40921B0250921C0260921D027092AA
:105720001E0261E080E00E94CC226FE872E088E90E
:1057300093E00E942F3568E973E08CEA94E00E94C0
:1057400060160F900F900F900F900F900F900E9487
:10575000A0174090AC025090AD026090AE027090E5
:10576000AF029B01AC0124193509460957092901EB
:105770003A0131E643163AEE53066104710408F427
:1057800062C06093AC027093AD028093AE029093BE
:10579000AF0280913A0290913B02019785309105CA
:1057A00040F4880F991FFC01E15FFE4FA080B1809B
:1057B00004C049E9A42E41E0B42E80913C029091AE
:1057C0003D0201978530910540F4880F991FFC0137
:1057D000E15FFE4FC080D18004C029E9C22E21E0E4
:1057E000D22E62E772E088E993E00E942F35BF92E3
:1057F000AF92DF92CF9298E9C92E93E0D92EDF9233
:10580000CF921F92BB24B394BF920E94C521A09057
:105810001702309018022090190270901A026BE55E
:1058200072E0C6010E942F357F922F923F92AF9275
:10583000DF92CF921F92BF920E94C5210FB6F894BB
:10584000DEBF0FBECDBF8091400290914102019713
:1058500009F08BC080913C0290913D02059709F0C0
:10586000A1C083C00E94A017DC01CB018419950957
:10587000A609B709813A9F40A105B10508F415C1F1
:105880006FE481E090E00E94D80F0E94A715CCCB76
:105890006CE574E088E993E00E942F3588E993E095
:1058A0009F938F931F9281E08F930E94C52162E5A1
:1058B00081E090E00E94D80F0F900F900F900F9012
:1058C00002CC6EE374E088E993E00E942F3588E90A
:1058D00093E09F938F931F9281E08F930E94C52145
:1058E00062E582E090E00E94D80F0F900F900F9039
:1058F0000F90F5CB6DE174E088E993E00E942F35BD
:1059000088E993E09F938F931F9281E08F930E9489
:10591000C52166E481E090E00E94D80F0F900F90BF
:105920000F900F90E8CB6CEF73E088E993E00E9452
:105930002F3588E993E09F938F931F9281E08F9397
:105940000E94C52166E482E090E00E94D80F0F908B
:105950000F900F900F90DBCB1092420210924302F7
:105960001092440210924502F2CB1092A4021092BF
:10597000A5021092A6021092A702ACE7B2E0E8E2FC
:105980001D92EA95E9F780913E0290913F020197BE
:1059900009F0D2C280913A0290913B02059709F03A
:1059A00098C0CAC281E090E00E94410C5B016C018A
:1059B0000E94A0172091A8023091A9024091AA024A
:1059C0005091AB022B013C01421A530A640A750A3A
:1059D000A9EE4A16A3E05A066104710400F160932F
:1059E000A8027093A9028093AA029093AB0261E48B
:1059F00072E088E993E00E942F35DF92CF92BF9248
:105A0000AF9288E993E09F938F931F9281E08F93E9
:105A10000E94C5210FB6F894DEBF0FBECDBF6091C6
:105A20001702709118028091190290911A02209128
:105A30003502309136022330310529F021E030E083
:105A400040E050E004C022E030E040E050E00E943E
:105A5000BD31DA01C90188519C4FAF4FBF4F8A1544
:105A60009B05AC05BD05C8F44090A4025090A5026A
:105A70006090A6027090A702411451046104710461
:105A800009F0F0CE0E94A0176093A4027093A502C3
:105A90008093A6029093A70208C01092A4021092CD
:105AA000A5021092A6021092A70261E080E00E9477
:105AB000CC2269EB71E08CEA94E00E946016C6018A
:105AC000B5010E943914BC018CEA94E00E94601672
:105AD0005ACF82E090E00E94410C5B016C010E9471
