:100000000C94A1010C94BB0E0C94940E0C94C90199
:100010000C94C9010C94C9010C94C9010C94C90138
:100020000C94C9010C94C9010C94C9010C94C90128
:100030000C94C9010C94C9010C94C9010C94C90118
:100040000C944A0E0C94C9010C94C9010C94C9017A
:100050000C94C9010C94C9010C94C9010C94C901F8
:100060000C94FE120C94C901C402F70200030B03A6
:1000700013031303130313031303130313032103C2
:1000800059165E166F1680168B169B16AB16D81671
:10009000E0160B17FC160B170B17121732175F170A
:1000A0008D17BA17E7171418401807634236B79B25
:1000B000D8A71A39685618AEBAAB558C1D3CB7CCC8
:1000C0005763BD6DEDFD753EF6177231BF00000040
:1000D000803F455252200020646F6E65002077619A
:1000E000697400206F6E202000206F66662000205B
:1000F0002D2D2D2000636C656172007365740053B3
:100100007475636B2000474649205465737420461C
:1001100061696C757265004572724A616E4665620E
:100120004D61724170724D61794A756E4A756C41CC
:1001300075675365704F63744E6F76446563002036
:1001400020002532640020202000202020002025CF
:100150003264002020002530326400202000253247
:10016000640053657420436C6F636B00534D5457A8
:1001700054465300534D54575446530020200025F5
:100180003032640020200025326400457869740014
:10019000202020200045646974204576656E742017
:1001A0000000000000240027002A000000000025B5
:1001B0000028002B00000000002300260029000476
:1001C00004040404040404020202020202030303FE
:1001D00003030301020408102040800102040810F8
:1001E0002001020408102052656C61792046616983
:1001F0006C7572653A2000322E342E312D6465768E
:100200000053573A00342E332E310048573A004AF3
:10021000313737322048796472612000554E4B00E7
:100220007365716E746C00736861726564004D3A39
:10023000004D3A50415553454400202020202020B5
:100240002020002532643A2530326425634D200099
:10025000204361722025733A2025642525005069CA
:100260006C6F742064657261746500204361722054
:1002700025733A202573302E256400416D6D657419
:100280006572004E6F005965730045786974204DA2
:10029000656E75733F004E6F005965730043616C66
:1002A0006962726174696F6E3F004E6F00596573C9
:1002B00000436F6E666967204576656E74733F0014
:1002C0004E6F0059657300456E61626C6520445342
:1002D000543F004E6F005965730053657420436CA2
:1002E0006F636B3F0020416D7073004375727265E0
:1002F0006E7420417661696C2E0053657175656E70
:100300007469616C00536861726564004F70657256
:100310006174696E67204D6F64650025336C756D7F
:1003200041002532642E2530316441000000000870
:1003300000020100000304070000000000000000AC
:10034000B62511241FBECFEFD8E0DEBFCDBF11E030
:10035000A0E0B1E0E8EBFDE502C005900D92A0370A
:10036000B107D9F723E0A0E7B1E001C01D92A3389F
:10037000B207E1F711E0C1EAD1E004C02197FE0124
:100380000E941F28C03AD107C9F70E94E31F0C94AE
:10039000DA2E0C94000060E088E00E94810D60E09D
:1003A00087E00E94810D1092320310923103109267
:1003B00000031092FF020E943E0E60936002709351
:1003C0006102809362029093630281E080936402F1
:1003D0000895CF93DF93EC01C536D10550F064E664
:1003E00070E080E090E00E94040EC456D109A89508
:1003F000F3CFBE0180E090E00E94040EA895DF914B
:10040000CF9108950F931F9380915C0290915D02AC
:10041000A0915E02B0915F02892B8A2B8B2BA9F0F1
:100420000E943E0E00915C0210915D0220915E02DE
:1004300030915F02DC01CB01801B910BA20BB30B4F
:10044000C297A105B10508F444C010925C02109255
:100450005D0210925E0210925F0280917E038823FB
:10046000C1F080917C0380620E94AD1D82E10E94F8
:1004700040120E94B71D80917C03806261E070E0B1
:1004800090E00E94141E88EE92E00E94E50C809598
:100490008F71409158025091590260915A027091A7
:1004A0005B0280FF19C0452B462B472B91F40E941D
:1004B0003E0E609358027093590280935A029093B3
:1004C0005B0260935C0270935D0280935E02909386
:1004D0005F0280E090E02EC0452B462B472BC9F3EE
:1004E0000E943E0E60935C0270935D0280935E02F8
:1004F00090935F02009158021091590220915A0284
:1005000030915B02DC01CB01801B910BA20BB30B82
:10051000109258021092590210925A0210925B02E5
:100520008B3F9105A105B10518F481E090E002C070
:1005300082E090E01F910F910895FF920F931F9317
:10054000CF93DF9300D000D0CDB7DEB7F82E0E9456
:1005500002028C01FF2039F00E949E1E109285013C
:100560001092840104C08130910509F075C090910A
:100570008501492F50E04C30510508F0AFC0FA0119
:10058000EC5CFF4F0C941F28F11005C08091840192
:100590008F5F8093840180918401853010F01092E8
:1005A0008401E0918401E43008F098C034E0E39FD6
:1005B000F0011124E15AFC4F8081809383019181E5
:1005C0009093820192819093810193819093800115
:1005D00091E08C3008F490E090937F01811102C08B
:1005E0008CE00BC08D3008F479C08C5006C080912F
:1005F00083018F5F8D3008F081E0809383016EC0AE
:10060000809182018F5F8C3318F48093820166C0E1
:100610001092820163C081E090917F01911180E08E
:1006200080937F015BC02CEF290F81E090E001C037
:10063000880F2A95EAF7909181018927809381019B
:100640004DC0809180018F5F833018F480938001CA
:1006500045C01092800142C0029709F041C09091BC
:10066000850191110FC080918401843059F48CE18F
:1006700096E19093110180931001109265020E94FF
:100680009E1E5AC19F5F909385019C3048F18091D6
:10069000830190917F01911103C08C3031F44AC1E4
:1006A000913019F48C3009F0845FE091840194E07A
:1006B000E99FF0011124E15AFC4F8083809182016F
:1006C000818380918101828380918001838388E589
:1006D00093E00E940E1F109285012EC101E010E0F0
:1006E0000E943E0E28EE33E040E050E00E94DE27FC
:1006F00021E0643F71408105910508F420E0012B61
:1007000029F490917E01921709F416C120937E017D
:1007100060E080E00E94611E65E971E082EF91E097
:100720000E94862E82EF91E00E945F1E80917E01E2
:10073000882339F080918501811103C060E971E05F
:1007400006C060918401643059F46BE871E082EF77
:1007500091E00E94862E82EF91E00E945F1E0AC007
:1007600070E06F5F7F4F072E000C880B990B4AE0FB
:100770000E94471F61E080E00E94611E8091840119
:10078000843049F400E110E080E20E943C1F0150F7
:100790001109D1F7D1C01091830167E871E082EFB0
:1007A00091E00E94862E1F921F9382EF91E09F930B
:1007B0008F938E010F5F1F4F1F930F930E94E52BA6
:1007C0000F900F900F900F900F900F9080917E01DF
:1007D000882369F080918501813049F464E871E0F3
:1007E00082EF91E00E94862E82EF91E001C0C80165
:1007F0000E945F1E8AE30E943C1FF09082016FE717
:1008000071E082EF91E00E94862E1F92FF9282EFAC
:1008100091E09F938F931F930F930E94E52B0F906E
:100820000F900F900F900F900F9080917E01882372
:1008300069F080918501823049F46CE771E082EFC4
:1008400091E00E94862E82EF91E001C0C8010E94D3
:100850005F1E80917E01882331F080918501833075
:1008600011F480E207C080917F01813011F081E4B2
:1008700001C080E50E943C1F80E20E943C1F00E016
:1008800010E06CE671E082EF91E00E94862EE2EFCC
:10089000F1E001900020E9F73197E25FF1400E1797
:1008A0001F0758F58091850190E098012C5F3F4F1C
:1008B0002817390731F480917E01882311F080E2F6
:1008C00017C08091810190E0002E02C09595879518
:1008D0000A94E2F780FF0BC064E771E082EF91E0D9
:1008E0000E94862EF801EE50FE4F808101C08DE2FD
:1008F0000E943C1F0F5F1F4FC4CF80E20E943C1F2D
:10090000809185018B3031F480917E01882311F034
:1009100080E20DC080918001811102C08EE407C089
:10092000813011F483E503C0823031F487E40E9402
:100930003C1F02C080E0B9CE0F900F900F900F9037
:10094000DF91CF911F910F91FF9008958F929F9209
:10095000AF92BF92EF92FF920F931F93CF93DF93CB
:100960007C010E943E0E4B015C01C0E0D0E00FE034
:1009700017E20E943E0EDC01CB0188199909AA09F1
:10098000BB094497A105B10568F4F70187810E946E
:10099000ED0DC817D90708F4EC018017910748F747
:1009A0008C01E7CF0B5F110901331140A0F0C6366F
:1009B00083E0D80798F4CE01875093408F35910596
:1009C00080F0835A9F4F8D35910570F0C256D2400A
:1009D000C834D10560F085E090E00BC081E090E084
:1009E00008C082E090E005C083E090E002C084E0AF
:1009F00090E0DF91CF911F910F91FF90EF90BF900A
:100A0000AF909F908F900895CF92DF92EF92FF92D8
:100A10000F931F93CF93DF93EC018B01888181307B
:100A200019F44091710302C0409172030230110524
:100A300018F4602F8D81A4C020915B0330915C037A
:100A4000A8EEB3E00E9425280330110521F4969505
:100A50008795779567954423D1F0A42F440FBB0B5E
:100A6000AC59BF4F9B01AC010E943F2824E630E007
:100A700040E050E00E94DE27203787E1380741053B
:100A8000510568F460E777E180E090E010C06133E1
:100A9000E5E77E078105910508F098C01AC0CA01F4
:100AA000B901213335474105510508F08FC02CE3CA
:100AB00030E040E050E00E94DE27942F832F722F19
:100AC000662728EE33E040E050E00E9400287901DC
:100AD00009C0603727E172078105910540F7EE24D0
:100AE000EA94F12CCD80DE8061E08C2D0E94B10D66
:100AF000FFEFEF16F10409F441C0F601FF27E45DB2
:100B0000FC4FE491E330E1F058F4E23099F584B51C
:100B1000806284BD27B530E058E4C52ED12C3DC09D
:100B2000E430D9F0E83031F58091B00080628093F4
:100B3000B0002091B30030E084EBC82ED12C2DC042
:100B400080918000806880938000209186003091A1
:100B5000870048E8C42ED12C2CC080918000806290
:100B60008093800020918600309187009AE8C92EFA
:100B7000D12C1FC0E7FC02C060E001C061E08C2DF9
:100B80000E94810D19A308A3DF91CF911F910F91AE
:100B9000FF90EF90DF90CF900895D7010E94252815
:100BA0002FEF30E040E050E00E94DE27F601208386
:100BB000E9CFD7010E9425282FEF30E040E050E038
:100BC0000E94DE27F60131832083DCCF60E375E7E6
:100BD00080E090E06CCFFC0180915302811112C043
:100BE000258536852530310581F083899489A5894D
:100BF000B689892B8A2B8B2B39F42385348581E0A8
:100C0000232B19F480E0089581E008950F931F933A
:100C1000CF93DF938C01EB018091FF029091000351
:100C2000892B49F48091310390913203892B19F477
:100C300061307105C1F0F801838594858C179D079B
:100C4000A9F06C2F83810E94810DF801D487C3879E
:100C50000E943E0E60936002709361028093620274
:100C60009093630203C00E948406E5CFDF91CF9189
:100C70001F910F91089560E070E084EF92E00E9470
:100C8000040560E070E086E293E00E94040560E005
:100C900070E084EF92E00E94060660E070E086E279
:100CA00093E00E940606A895FECFC82F81E00E941F
:100CB000AD1E0E949E1E66E071E082EF91E00E94F0
:100CC000862E82EF91E00E945F1E61E080E00E942C
:100CD000611E6FEF70E082EF91E00E94862E82EF3E
:100CE00091E00E945F1ECC2319F06BEF70E002C010
:100CF00065EF70E082EF91E00E94862E82EF91E036
:100D00000E945F1E0E943B06CF92DF92EF92FF92FD
:100D10000F931F93CF93DF9310926402C2E3D0E04E
:100D20000BEF1CE761E083E00E94810DC801019791
:100D3000F1F760E083E00E94810DC8010197F1F7AF
:100D400080916402811103C0A895219759F7809181
:100D500064028823B9F00E943E0E6B017C0124E6F8
:100D6000C20ED11CE11CF11C82E00E94580D0197BB
:100D700059F4A8950E943E0EC616D706E806F90655
:100D800098F781E00E94550680E991E00E94E90110
:100D900010926402DF91CF911F910F91FF90EF901D
:100DA000DF90CF9008950F931F93CF93DF93EC01C3
:100DB000CE01837099278130910549F0029751F057
:100DC000CC7FCE0181600E94D306C260F1CF01E4E6
:100DD00010E002C002E418E061E0812F0E94611E71
:100DE000802F0E943C1F8AE30E943C1F9E012873B3
:100DF000332720313105B1F048F42115310579F060
:100E000028303105E9F469EE70E00EC02831310573
:100E1000A1F020323105A1F467ED70E005C06FEE5E
:100E200070E002C063EE70E082EF91E00E94862ED7
:100E300082EF91E00E945F1E38C06DED70E0F4CF4C
:100E400081E00E94AD1E62ED70E082EF91E00E94B1
:100E5000862E82EF91E00E945F1E9E01207C317001
:100E600020383105B9F038F42115310589F02034E6
:100E70003105C1F015C0211581E0380769F0203433
:100E800081E0380759F0203C310551F484E50BC06E
:100E900086E409C087E407C082E505C085E403C095
:100EA0008FE301C08FE40E943C1F85E691E00E9421
:100EB0005F1EC2FF0CC061E086E0810F0E94611ED0
:100EC0008AE2DF91CF911F910F910C943C1FDF912B
:100ED000CF911F910F910895CF92DF92EF92FF92E1
:100EE0000F931F93CF93DF938C010E943E0E6B01F3
:100EF0007C01E801C370DD27109254021092550264
:100F00001092560210925702C230D10520F022975B
:100F100009F047C024C061E070E084EF92E00E94D5
:100F200004058091010390910203059771F085E01B
:100F300090E09093020380930103C0920B03D09240
:100F40000C03E0920D03F0920E031092070310922F
:100F500008031092090310920A03CD2B11F561E0EA
:100F600070E086E293E00E94040580913303909143
:100F70003403059771F085E090E0909334038093FB
:100F80003303C0923D03D0923E03E0923F03F092C0
:100F900040031092390310923A0310923B031092CF
:100FA0003C03C801DF91CF911F910F91FF90EF900B
:100FB000DF90CF900C94D3062F923F924F925F9286
:100FC0006F927F928F929F92AF92BF92CF92DF9259
:100FD000EF92FF920F931F93CF93DF93CDB7DEB7BE
:100FE00028970FB6F894DEBF0FBECDBF0E94090F41
:100FF0006B017C0180915D03882309F46AC1C701FC
:10100000B60120E831E541E050E00E94DE272D8363
:101010003E834F8358878BE0282E81E0382E810154
:1010200005501109C701B6010E94CE118091F0014F
:10103000F10131979081981720F4D8018D919C91FE
:101040003FC1891708F42FC15101B3E0AB1AB108B1
:10105000F50180813196843009F47CC09080C7010D
:10106000B6010E94CE11F501A081B0E020E83AE37C
:1010700049E050E00E9434282B013C018091EF01AF
:1010800021E030E040E050E0281B310941095109DE
:10109000DA01C9012D813E814F815885280F391F02
:1010A0004A1F5B1F60E871E581E090E00E949A278B
:1010B000640D751D861D971D20E831E541E050E067
:1010C0000E94DE2729013A01DA01C901890D911D2B
:1010D000A11DB11D4C015D01CA01B9016C5F7F4FBB
:1010E0008F4F9F4F27E030E040E050E00E94DE2726
:1010F000A5019401261B370B480B590B60E871E5DD
:1011000081E090E00E949A2769837A838B839C8395
:101110004B015C0190E8891A91E5990A91E0A90ACE
:10112000B108A301920160E871E581E090E00E94BE
:101130009A2786169706A806B90648F489809A80E9
:10114000AB80BC80A9EE9A0EA7E0AA1EB11CF101EB
:1011500020819AC0B080C701B6010E94CE11809153
:10116000EF012D813E814F815885281B31094109AE
:10117000510960E871E581E090E00E949A27705D76
:10118000854D9F4F20E831E541E050E00E94DE2789
:1011900029013A01C701B6010E94CE118091EF01E9
:1011A0002D813E814F815885281B31094109510904
:1011B00060E871E581E090E00E949A27705D854DBE
:1011C0009F4F0E94CE118091EF0121E030E040E07E
:1011D00050E0281B310941095109240D351D461DD8
:1011E000571D60E871E581E090E00E949A27605801
:1011F00071458140910920E831E541E050E00E94CD
:10120000DE2729013A01CA01B9016C5F7F4F8F4F78
:101210009F4F27E030E040E050E00E94DE27A3012E
:101220009201261B370B480B590B2B0D311D411D0D
:10123000511D60E871E581E090E00E949A27698382
:101240007A838B839C834B015C0130E8831A31E500
:10125000930A31E0A30AB108A301920160E871E5A5
:1012600081E090E00E949A27681579058A059B0520
:1012700048F489809A80AB80BC804CE8941A4AE09C
:10128000A40AB108D1012C9130E0A0E1BEE00E9497
:101290002528860E971EA81EB91EC814D904EA0474
:1012A000FB0408F0CACEB6E02B1A3108EFEF2E1679
:1012B000E0E03E0609F0B3CE80910601909107016F
:1012C000892B39F4C701B601605F714F8F4F9F4F73
:1012D00002C0C701B60128960FB6F894DEBF0FBE54
:1012E000CDBFDF91CF911F910F91FF90EF90DF90D5
:1012F000CF90BF90AF909F908F907F906F905F90B6
:101300004F903F902F900895CF92DF92EF92FF92EF
:101310000F931F93CF93DF93CDB7DEB72E970FB602
:10132000F894DEBF0FBECDBFF82E0E9402028C01E2
:10133000FF2009F460C00E949E1E62E671E082EF09
:1013400091E00E94862E82EF91E00E945F1E0E9433
:10135000DC076B017C010E94CE112091ED0122235C
:1013600031F0822F90E02D3020F00C9702C08CE0FD
:1013700090E080938301C701B6010E94CE11809155
:10138000ED0190E021E00C970CF420E020937F0128
:10139000C701B6010E94CE118091EC0180938201B9
:1013A000C701B6010E94CE118091EF0180937D01AB
:1013B000C701B6010E94CE118091F00180937C019B
:1013C000C701B6010E94CE118091F10190E09C010D
:1013D0002E54384F88970B9728F430937B01209335
:1013E0007A0106C08AED97E090937B0180937A01A1
:1013F000109285015DC08130910509F051C0909136
:101400008501923001F128F4992349F0913081F05F
:1014100015C1943061F110F1953091F10FC18091B7
:1014200083018F5F8D3008F081E08093830106C1D6
:10143000809182018F5F8C3318F480938201FEC00B
:1014400010928201FBC080917F018F5F823018F47F
:1014500080937F01F3C010927F01F0C080917D01E5
:101460008F5F803208F081E080937D01E7C080913A
:101470007C018F5F8D3008F081E080937C01DEC0BD
:1014800080917A0190917B010196853E27E0920739
:1014900010F08AED97E090937B0180937A01CEC0A3
:1014A000029709F0CBC0809185018F5F8093850101
:1014B00080918501863008F4BFC090917F018091B2
:1014C0008301911105C08C3051F41092830107C043
:1014D000913029F48C3019F0845F809383018091DE
:1014E0007A01825B8E8780917C018D8780917D015E
:1014F0008C87809183018A878091820189871886F1
:10150000CE0108960E94930F6B017C010E94E20EAF
:10151000AE014F5F5F4FC701B6010E94FD1088E624
:101520000E94AD1D60E088EE92E00E94290D60E807
:1015300088EE92E00E94290D8A811AE0612F0E94B4
:10154000AA27692F30E1839F600D112488EE92E075
:101550000E94290D8B81612F0E94AA27692F20E10B
:10156000829F600D112488EE92E00E94290D8C81EB
:10157000612F0E94AA27692F30E1839F600D1124FB
:1015800088EE92E00E94290D8D81612F0E94AA278A
:10159000692F20E1829F600D112488EE92E00E9465
:1015A000290D8E81612F0E94AA27692F30E1839F28
:1015B000600D112488EE92E00E94290D8F818E51DA
:1015C000612F0E94AA27692F20E1829F600D1124BC
:1015D00088EE92E00E94290D0E94B71D882319F021
:1015E000109286011EC001E00093860188E60E94E9
:1015F000AD1D60E088EE92E00E94290D8981612F87
:101600000E94AA27692F30E1839F600D112488EE84
:1016100092E00E94290D0E94B71D8111E1CF009335
:1016200086018CE196E19093110180931001109254
:1016300065020E949E1E21C102E010E00E943E0E43
:1016400028EE33E040E050E00E94DE2721E0643FD6
:1016500071408105910508F420E0012B29F4909157
:101660007E01921709F409C120937E0161E080E0B8
:101670000E94611E109183016EE571E082EF91E09E
:101680000E94862E1F921F9382EF91E09F938F936B
:101690008E010F5F1F4F1F930F930E94E52B0F903A
:1016A0000F900F900F900F900F90809185018111F6
:1016B0000DC080917E01882349F06BE571E082EFD7
:1016C00091E00E94862E82EF91E001C0C8010E9445
:1016D0005F1E8AE30E943C1FF090820166E571E084
:1016E00082EF91E00E94862E1F92FF9282EF91E09E
:1016F0009F938F931F930F930E94E52B0F900F9052
:101700000F900F900F900F9080918501813069F4B8
:1017100080917E01882349F063E571E082EF91E0DA
:101720000E94862E82EF91E001C0C8010E945F1ED8
:1017300080918501823031F480917E01882311F0FF
:1017400080E207C080917F01811102C081E401C065
:1017500080E50E943C1FF0907D016EE471E082EF15
:1017600091E00E94862E1F92FF9282EF91E09F935C
:101770008F931F930F930E94E52B0F900F900F9064
:101780000F900F900F9080918501833069F48091C4
:101790007E01882349F06AE471E082EF91E00E94C3
:1017A000862E82EF91E001C0C8010E945F1E8DE28B
:1017B0000E943C1F80918501843069F480917E01F4
:1017C000882349F066E471E082EF91E00E94862E62
:1017D00082EF91E019C020917C0183E0289F900165
:1017E0001124A0E7B1E080E090E0FC01E20FF31FDC
:1017F000E95EFE4FE491ED93019683309105A9F7E0
:101800001092730180E791E00E945F1E8DE20E94BA
:101810003C1F80917A0190917B0164E670E00E9408
:10182000B627F82EE92E62E471E082EF91E00E9483
:10183000862EEF92FF9282EF91E09F938F931F93FA
:101840000F930E94E52B0F900F900F900F900F9029
:101850000F9080918501853069F480917E01882305
:1018600049F06FE371E082EF91E00E94862E82EFF3
:1018700091E001C0C8010E945F1E2E960FB6F89439
:10188000DEBF0FBECDBFDF91CF911F910F91FF90B3
:10189000EF90DF90CF900895833081F028F481306D
:1018A00099F08230A1F008958730A9F08830B9F01E
:1018B0008430D1F4809180008F7D03C080918000BE
:1018C0008F7780938000089584B58F7702C084B5A8
:1018D0008F7D84BD08958091B0008F7703C0809183
:1018E000B0008F7D8093B00008953FB7F894809149
:1018F000DD019091DE01A091DF01B091E00126B5FC
:10190000A89B05C02F3F19F00196A11DB11D3FBF37
:10191000BA2FA92F982F8827820F911DA11DB11DC5
:10192000BC01CD0142E0660F771F881F991F4A95C1
:10193000D1F7089508958091E60290E02091E702A2
:10194000821B9109089585ED8093BC008091BC00B5
:1019500084FDFCCF1092C20208954091A901262F68
:1019600030E0240F311D21323105DCF42091C20218
:101970002430C9F4FC0180E090E0861758F43091DF
:10198000A9012191DC01A957BE4FA30FB11D2C93D2
:101990000196F3CF8091A901680F6093A90180E0BF
:1019A000089581E0089582E008950895E091E702A6
:1019B0008091E602E81730F4F0E0E458FD4F8081B2
:1019C00090E008958FEF9FEF08959091E702809146
:1019D000E602981750F4E92FF0E0E458FD4F20811B
:1019E00030E09F5F9093E70202C02FEF3FEFC90105
:1019F0000895CF92DF92EF92FF920F931F93CF93B0
:101A0000DF937C01262F972F8A018091E3028823A0
:101A100091F0C62FD72F6E01C40ED51ECC15DD0553
:101A200071F06991D701ED91FC910190F081E02D69
:101A3000C7010995F3CF642F822F0E94AD0CC80116
:101A4000DF91CF911F910F91FF90EF90DF90CF909A
:101A50000895CF93DF931F92CDB7DEB769832091AE
:101A6000E3022223D1F02091E402203240F021E071
:101A700030E0FC013383228380E090E015C0809148
:101A8000E502E82FF0E0ED53FD4F998190838F5FE1
:101A90008093E5028093E40205C061E0CE010196E7
:101AA0000E94AD0C81E090E00F90DF91CF910895FE
:101AB000CF93DF93282F30E0F901E45DFC4F849150
:101AC000F901ED52FE4FD491F901E154FE4FC4915A
:101AD000CC2391F081110E944C0CEC2FF0E0EE0F22
:101AE000FF1FEB54FE4FA591B491EC91ED2381E0E3
:101AF00090E021F480E002C080E090E0DF91CF919F
:101B000008951F93CF93DF93282F30E0F901E45D10
:101B1000FC4F8491F901ED52FE4FD491F901E1544B
:101B2000FE4FC491CC23C9F0162F81110E944C0C9A
:101B3000EC2FF0E0EE0FFF1FE555FE4FA591B4919D
:101B40008FB7F894111105C09C91ED2FE095E92312
:101B500002C0EC91ED2BEC938FBFDF91CF911F91E1
:101B60000895CF93DF9390E0FC01ED52FE4F249156
:101B7000FC01E154FE4F8491882361F190E0880FCD
:101B8000991FFC01EF55FE4FC591D491FC01E5551D
:101B9000FE4FA591B491611109C09FB7F894888157
:101BA000209582238883EC912E230BC0623061F450
:101BB0009FB7F8943881822F809583238883EC9196
:101BC0002E2B2C939FBF06C08FB7F894E8812E2B45
:101BD00028838FBFDF91CF9108958E3008F08E500B
:101BE0008770806480937C0080917A008064809309
:101BF0007A0080917A0086FDFCCF80917800209158
:101C0000790090E0922B08958F929F92AF92BF92AD
:101C1000CF92DF92EF92FF926B017C010E94750CD4
:101C20004B015C01C114D104E104F104F1F00E9404
:101C3000750CDC01CB0188199909AA09BB09883EFA
:101C40009340A105B10570F321E0C21AD108E10863
:101C5000F10888EE880E83E0981EA11CB11CC11407
:101C6000D104E104F10419F7DDCFFF90EF90DF908C
:101C7000CF90BF90AF909F908F9008952FB7F8941A
:101C80006091D9017091DA018091DB019091DC01C2
:101C90002FBF08951F920F920FB60F9211242F930A
:101CA0003F938F939F93AF93BF938091D90190916E
:101CB000DA01A091DB01B091DC013091D80123E081
:101CC000230F2D3720F40196A11DB11D05C026E874
:101CD000230F0296A11DB11D2093D8018093D90135
:101CE0009093DA01A093DB01B093DC018091DD01D8
:101CF0009091DE01A091DF01B091E0010196A11D5C
:101D0000B11D8093DD019093DE01A093DF01B093BC
:101D1000E001BF91AF919F918F913F912F910F90D3
:101D20000FBE0F901F9018951F920F920FB60F9233
:101D300011242F933F934F935F936F937F938F93D0
:101D40009F93AF93BF93EF93FF93E0910E01F091B8
:101D50000F010995FF91EF91BF91AF919F918F91E5
:101D60007F916F915F914F913F912F910F900FBE97
:101D70000F901F9018951F920F920FB60F9211247B
:101D80002F933F934F935F936F937F938F939F9383
:101D9000AF93BF93EF93FF93E0910C01F0910D018E
:101DA0000995FF91EF91BF91AF919F918F917F9195
:101DB0006F915F914F913F912F910F900FBE0F90B8
:101DC0001F9018956093E5017093E6018093E701F9
:101DD0009093E801DC01CB01845D9E4FAF4FBF4F74
:101DE0008093E1019093E201A093E301B093E401B9
:101DF00082E090E09093D7018093D6010E943E0E3E
:101E00006093D2017093D3018093D4019093D50154
:101E10000895CF92DF92EF92FF920F931F930E944B
:101E20003E0EC090D201D090D301E090D401F0904A
:101E3000D5018B019C010C191D092E093F098091C8
:101E4000E5019091E601A091E701B091E801083E1B
:101E5000134021053105D0F00196A11DB11D8093DD
:101E6000E5019093E601A093E701B093E801B70183
:101E7000A60148515C4F6F4F7F4F4093D201509362
:101E8000D3016093D4017093D501C9CF4091E10192
:101E90005091E2016091E3017091E401841795078C
:101EA000A607B70788F1E091E901F091EA013097C0
:101EB00059F10995611571058105910519F00E9487
:101EC000E20E22C08091E5019091E601A091E70128
:101ED000B091E801845D9E4FAF4FBF4F8093E10109
:101EE0009093E201A093E301B093E40181E090E0DC
:101EF0002091D6013091D701232B11F480E090E09E
:101F00009093D7018093D6016091E5017091E6012D
:101F10008091E7019091E8011F910F91FF90EF9060
:101F2000DF90CF9008956F927F928F929F92AF92A1
:101F3000BF92CF92DF92EF92FF920F931F93CF93B6
:101F4000DF93EC01EE81AE2FB0E020E833E341EE09
:101F500051E00E9434284B015C0122EB37E0FD0187
:101F600004E610E080E9E82EFF24F394C901825BC7
:101F700097408E179F07DCF4C90183709927892B3E
:101F800099F4C901B8010E94CA27892B31F4C9010B
:101F9000B7010E94CA27892B39F480E8880E81E5B1
:101FA000981E81E0A81EB11C2F5F3F4FDFCF6D80D0
:101FB000712CEE54F84FCF0164E670E00E94CA27FE
:101FC0007C01CF0160E971E00E94CA276C0101E049
:101FD00010E0E370FF27061517052CF502301105F8
:101FE00081F4309771F4E114F10419F4C114D104AF
:101FF00041F480E8880E8BE3981E86E2A81EB11C8F
:102000000FC0D801AF5EBE4FAC91B0E020E831E523
:1020100041E050E00E943428860E971EA81EB91E8B
:102020000F5F1F4FD8CF49812A8130E0A0E1BEE089
:102030000E9425286B017C01242F30E0ACE3B0E046
:102040000E942528DC01CB018C0D9D1DAE1DBF1DFE
:1020500028816C017D01C20ED11CE11CF11CAC81F8
:10206000B0E0119720E831E541E050E00E943F28C0
:10207000DC01CB018C0D9D1DAE1DBF1DBC01CD0132
:10208000680D791D8A1D9B1DDF91CF911F910F91C6
:10209000FF90EF90DF90CF90BF90AF909F908F9088
:1020A0007F906F9008951F93CF93DF93CDB7DEB7E6
:1020B00027970FB6F894DEBF0FBECDBF88E60E940B
:1020C000AD1D60E088EE92E00E94290D0E94B71DD0
:1020D000882319F01092860183C081E080938601E5
:1020E00067E070E088E690E00E94141E8091E602AE
:1020F00090E02091E702821B910907970CF470C0D1
:1021000088EE92E00E94E50C182F869586958695BC
:102110008E70982F990F990F890F912F9F70890FAB
:10212000898388EE92E00E94E50C282F22952F707B
:10213000982F9F708AE0289F900D11249A8388EE33
:1021400092E00E94E50C982F282F2695269526953B
:102150002670822F880F880F280F9F70920F9B8305
:1021600088EE92E00E94E50C282F22952F70982F80
:102170009F708AE0289F900D11249C8388EE92E046
:102180000E94E50C282F22952F70982F9F708AE0CF
:10219000289F900D11249D8388EE92E00E94E50C0B
:1021A000282F22952F70982F9F708AE0289F900DDE
:1021B00011249E8388EE92E00E94E50C982F9F7078
:1021C000925E282F22952F708AE0289F900D11246F
:1021D0009F8317FD05C0CE0101960E94930F03C097
:1021E00060E070E0CB0127960FB6F894DEBF0FBE1B
:1021F000CDBFDF91CF911F9108956F927F928F9203
:102200009F92AF92BF92CF92DF92EF92FF920F9385
:102210001F93CF93DF93EA012CE3C22ED12CE12C44
:10222000F12CA70196010E94DE276883CA01B9013B
:10223000A70196010E94DE276983CA01B90128E13E
:1022400030E040E050E00E94DE2769017A016A83B5
:10225000CA01B9016C5F7F4F8F4F9F4F27E030E07D
:1022600040E050E00E94DE276F5F6B83812C912C51
:10227000540140E034E6632E712C00E911E0242F74
:1022800030E02E54384FF901E370FF27309789F47E
:10229000C901B3010E94CA27892B31F4C901B801D1
:1022A0000E94CA27892B29F48EE691E0A0E0B0E0D5
:1022B00004C08DE691E0A0E0B0E0880E991EAA1E51
:1022C000BB1ED501C401AA27BB27C816D906EA063A
:1022D000FB0610F04F5FD3CF4E83309799F4C901BE
:1022E00064E670E00E94CA27892B39F4C90160E9CD
:1022F00071E00E94CA27892B29F48EE691E0A0E0C4
:10230000B0E004C08DE691E0A0E0B0E0881A990A40
:10231000AA0ABB0AC818D908EA08FB08C90164E67A
:1023200070E00E94CA278C01C90160E971E00E9437
:10233000CA27A2E1B1E020E0213041F4309751F406
:102340000115110529F4009729F402C04C9103C02E
:102350004DE101C04CE150E060E070E0C416D506EC
:10236000E606F70640F0C41AD50AE60AF70A2F5F18
:1023700011962C3009F72F5F2D83C394CC82DF9107
:10238000CF911F910F91FF90EF90DF90CF90BF9072
:10239000AF909F908F907F906F900895CF92DF9233
:1023A000EF92FF92C090CE01D090CF01E090D0018B
:1023B000F090D1016C157D058E059F0571F06B01C4
:1023C0007C014BEE51E00E94FD10C092CE01D092F4
:1023D000CF01E092D001F092D101FF90EF90DF9019
:1023E000CF900895CF92DF92EF92FF92CF936B013F
:1023F0007C019B01AC016EEF7FEF81E090E00E94D9
:102400009A279B01AC0160E074E284EF90E00E94A7
:10241000DE27C0E0EC2FF0E0EE0FFF1FEA5CFE4F7E
:1024200080819181CF5F82179307A0F3A701960166
:10243000220F331F441F551FEC2FF0E0EE0FFF1F3C
:10244000EA5CFE4FA081B1810E9434289B01AC015F
:1024500060E074E284EF90E00E94DE273093870012
:102460002093860080918100C770887FC82BC0931D
:10247000810081E0CF91FF90EF90DF90CF900895A1
:10248000682F88EE92E00C94290DCF93DF931F9272
:10249000CDB7DEB7FC018185806269830E94AD1DE6
:1024A00089E00E9440126981862F0E9440120E949A
:1024B000B71D8111FCCF0F90DF91CF910895CF937D
:1024C000DF931F92CDB7DEB7FC01818580626983FF
:1024D0000E94AD1D83E10E9440126981862F0E94F7
:1024E00040120E94B71D8111FCCF0F90DF91CF9158
:1024F0000895FF920F931F93CF93DF938C01C62F04
:10250000F42EFC0186858130B1F56585C4FD6061DE
:10251000C5FD6860C6FD6460C7FD6260D62FFF2000
:1025200011F0D06A01C0D0626D2FC8010E945F1205
:102530006D2F6F7DC8010E945F12F8016585C0FD97
:102540006061C1FD6860C2FD6460C3FD6260C62F4A
:10255000FF2011F0C06A01C0C0626C2FC8010E9448
:102560005F126C2F6F7DC801DF91CF911F910F918A
:10257000FF900C945F12607F70E07595679544231F
:1025800011F0666001C06460F801858183FD02C0BE
:10259000D0E001C0D0E8D62B6D2FC8010E944512B3
:1025A0006D2F6B7FC8010E944512CF70CC0FCC0FEE
:1025B000CC0FFF2011F0C66001C0C460F801858116
:1025C00083FD02C060E001C060E8C62B6C2FC8012B
:1025D0000E9445126C2F6B7FC801DF91CF911F9134
:1025E0000F91FF900C944512FC012385222319F0D2
:1025F00041E00E94791281E090E008951F920F92CD
:102600000FB60F9211242F933F934F935F936F93C5
:102610007F938F939F93AF93BF93EF93FF9380919B
:10262000B900887F803609F49CC068F5883209F4C7
:102630005BC090F4803109F454C038F4882309F465
:10264000F6C0883009F44DC0F6C0883109F44CC09A
:10265000803209F45DC0EFC0803409F468C048F4EA
:10266000803309F455C0883309F0E5C08093C00277
:10267000D8C0803509F44FC0883509F45DC088346E
:1026800009F0D9C0D6C0883909F4C7C0A8F4883782
:1026900009F467C038F4883609F463C0803709F458
:1026A00060C0C9C0883809F4B8C0803909F45FC077
:1026B000803809F0C0C05BC0803B09F486C038F4A4
:1026C000803A09F466C0883A09F47FC0B4C0803CFF
:1026D00009F4A7C0883C09F4A4C0883B09F48AC067
:1026E000AAC080919D0210C09091BF028091BE024D
:1026F000981770F5E091BF0281E08E0F8093BF02C2
:10270000F0E0E256FD4F80818093BB0085EC86C0EF
:102710008093C0028EC0E091BF0281E08E0F809353
:10272000BF028091BB00F0E0E256FD4F80839091A4
:10273000BF028091BE026EC0E091BF0281E08E0FA9
:102740008093BF028091BB00F0E0E256FD4F808392
:102750008091C10281116DC081E080939C0284EA66
:1027600061C083E08093C2021092CD01CFCF8091EF
:10277000CD01803208F051C0E091CD0181E08E0F93
:102780008093CD018091BB00F0E0E355FE4F808344
:10279000BDCF85EC8093BC001092C2028091CD0128
:1027A000803230F4E091CD01F0E0E355FE4F10822D
:1027B0006091CD0170E0E091AB01F091AC018DEA48
:1027C00091E009951092CD0136C084E08093C20259
:1027D0001092AA011092A901E091A701F091A8011D
:1027E00009958091A901811105C081E08093A9011B
:1027F00010928701E091AA0181E08E0F8093AA01D7
:10280000F0E0E957FE4F80818093BB009091AA01D0
:102810008091A901981708F479CF85E88093BC00CE
:102820000AC085EC8093BC001092C20204C01092D2
:10283000C0020E94A30CFF91EF91BF91AF919F91B5
:102840008F917F916F915F914F913F912F910F9059
:102850000FBE0F901F9018951092C20281E08093D6
:10286000C10210929C0261E082E10E94810D61E050
:1028700083E10E94810DE9EBF0E080818E7F80830F
:1028800080818D7F808388E48093B80085E4809385
:10289000BC000895CF92DF92EF92FF92CF93DF9327
:1028A000EC016A017B0161E070E00E94040564E0D4
:1028B00070E089819A810E940405C0925402D092EE
:1028C0005502E0925602F0925702888190E02F8DD7
:1028D000211103C028E130E002C020E230E0822B69
:1028E000932B0E94D306E981FA818081886090E071
:1028F000DF91CF91FF90EF90DF90CF900C94D306B3
:102900000F931F93CF93DF93EC018B899C89AD8943
:10291000BE89892B8A2B8B2B89F00E943E0E0B8956
:102920001C892D893E89DC01CB01801B910BA20BF8
:10293000B30B85399141A105B105D8F48F89988DE4
:10294000A98DBA8D892B8A2B8B2B09F448C00E9444
:102950003E0E0F89188D298D3A8DDC01CB01801B2D
:10296000910BA20BB30B893B9B40A105B10580F4F1
:1029700036C01B8A1C8A1D8A1E8A8881806190E06D
:102980000E94D30661E070E0CE010E940606D6CF19
:102990001F8A188E198E1A8E60E070E0CE010E9498
:1029A000060680915302882329F08881886090E090
:1029B0000E94D30689819A810E94EB05E981FA8100
:1029C000811104C085859685029749F464E070E022
:1029D000CF01DF91CF911F910F910C940405DF91EE
:1029E000CF911F910F910895CF92DF92EF92FF92B6
:1029F0000F931F93CF93DF936C017A018B01C0E09B
:102A0000D0E0CE15DF0589F0D8016D918D01D6019A
:102A1000ED91FC910190F081E02DC6010995892B83
:102A200011F47E0102C02196ECCFC701DF91CF9156
:102A30001F910F91FF90EF90DF90CF9008950E942B
:102A4000B02BCF92DF92EF92FF920F931F93CF9311
:102A5000DF93CDB7DEB761970FB6F894DEBF0FBE38
:102A6000CDBF182F0E9402029C01112329F00E9461
:102A70009E1E10926D023AC090916D0290FF05C0AB
:102A8000A0E7B3E0E2E7F3E004C0AFE6B3E0E1E7DC
:102A9000F3E02130310521F022303105A9F0BDC02D
:102AA000923018F0943010F507C08C918F5F86300B
:102AB0000CF08BEF8C931AC080818150863F14F00C
:102AC000808314C0108212C09F5F90936D02943077
:102AD00068F088E593E00E940E1F8CE196E19093E8
:102AE0001101809310011092650297C080916D02D0
:102AF00080FF0BC009E611E040E7C42E43E0D42E6E
:102B000052E7E52E53E0F52E0AC007E611E02FE666
:102B1000C22E23E0D22E31E7E32E33E0F32E8230B3
:102B200090F1843008F079C00E949E1E6EE572E03C
:102B300082EF91E00E94862E82EF91E00E945F1E5C
:102B400061E080E00E94611EF701F080CF2C0F2C25
:102B5000000CDD0860E572E082EF91E00E94862EB5
:102B6000DF92FF921F930F9382EF91E09F938F93D9
:102B70001F9281E18F938E010F5F1F4F1F930F9361
:102B80000E94B52B42C00E949E1E6BE772E082EF4E
:102B900091E00E94862E82EF91E00E945F1E61E02C
:102BA00080E00E94611EF6012081822F022E000C1F
:102BB000990B97FF03C0919581959109D82EC92E45
:102BC00027FD05C09DE6E92E91E0F92E04C08BE6B5
:102BD000E82E81E0F82E6BE672E082EF91E00E9431
:102BE000862ECF92DF92FF92EF921F930F9382EF88
:102BF00091E09F938F931F9281E18F938E010F5FDE
:102C00001F4F1F930F930E94B52BC8010E945F1E98
:102C10000FB6F894DEBF0FBECDBF61960FB6F89425
:102C2000DEBF0FBECDBFDF91CF911F910F91FF90FF
:102C3000EF90DF90CF900895CF93C82F0E940202AB
:102C4000CC2361F083E00E94AD1E0E949E1E87EEA1
:102C500093E090937502809374021FC0009709F46B
:102C600043C281309105B1F4809172029091730258
:102C700001969093730280937202209170023091BA
:102C800071022817390708F0DFC010927302109202
:102C90007202DAC0029709F0D7C0E0917402F09195
:102CA0007502E730F10508F066C0E05CFF4F0C9458
:102CB0001F288091720280935A030CC0E091720227
:102CC000F0917302EE5AFE4F808190E090935C0386
:102CD00080935B0388E593E00E940E1F4CC08091B7
:102CE000720290917302892B09F045C084E899E043
:102CF000909311018093100181E0CF910C9484098D
:102D000081E02091720230917302232B09F080E060
:102D100080935D03DFCF8091720290917302892BC3
:102D200051F58DE992E0909311018093100181E0BB
:102D3000CF910C949D028091720290917302892B25
:102D4000D1F481E295E1909311018093100181E02B
:102D5000CF910C9421158091720290917302892B6E
:102D600019F410926502C0C187EE93E0909375024A
:102D700080937402B9C1809174029091750201969A
:102D80008730910528F4909375028093740204C0F3
:102D90001092750210927402E0917402F091750223
:102DA000E730F10508F048C0E95BFF4F0C941F289D
:102DB00080915A0390E0909373028093720236C020
:102DC00060915B0370915C03E2E5F1E050E040E06C
:102DD00080E090E0219130E06217730711F4582FE2
:102DE000492F01968B309105A9F7509372024093B9
:102DF00073028AE090E01CC081E090E09093710241
:102E00008093700290915D03892790E09093730204
:102E10008093720211C081E090E0909373028093DE
:102E2000720206C0109273021092720281E090E06A
:102E3000909371028093700280917202909173025C
:102E400090936F0280936E020E949E1EE091740226
:102E5000F0917502E730F10508F046C1E25BFF4FE3
:102E60000C941F286CE073E082EF91E00E94862EA4
:102E700082EF91E00E945F1E61E080E00E94611E8F
:102E8000209172023091730280916E0290916F02D4
:102E90002817390711F080E201C08BE20E943C1F25
:102EA0008091720290917302009731F0019709F0BE
:102EB0001BC16AEF72E00FC165E073E00CC16BEEFD
:102EC00072E082EF91E00E94862E82EF91E00E94F4
:102ED0005F1E61E080E00E94611E209172023091CD
:102EE000730280916E0290916F022817390711F0DA
:102EF00080E201C08BE20E943C1FE0917202F091DF
:102F00007302EE5AFE4F608170E080E090E04AE08C
:102F10000E94471F65EE72E0DEC06AED72E082EF4C
:102F200091E00E94862E82EF91E00E945F1E61E098
:102F300080E00E94611E20917202309173028091A4
:102F40006E0290916F022817390711F080E201C0DC
:102F50008BE20E943C1F8091720290917302009755
:102F600031F0019709F0C0C063ED72E0B4C066EDC6
:102F700072E0B1C067EC72E082EF91E00E94862EB1
:102F800082EF91E00E945F1E61E080E00E94611E7E
:102F9000209172023091730280916E0290916F02C3
:102FA0002817390711F080E201C08BE20E943C1F14
:102FB0008091720290917302009731F0019709F0AD
:102FC00093C060EC72E087C063EC72E084C061EB98
:102FD00072E082EF91E00E94862E82EF91E00E94E3
:102FE0005F1E61E080E00E94611E209172023091BC
:102FF000730280916E0290916F022817390711F0C9
:1030000080E201C08BE20E943C1F8091720290918D
:103010007302009731F0019709F066C06AEA72E026
:103020005AC06DEA72E057C06DE972E082EF91E03C
:103030000E94862E82EF91E00E945F1E61E080E098
:103040000E94611E209172023091730280916E0283
:1030500090916F022817390711F080E201C08BE2CE
:103060000E943C1F8091720290917302009729F098
:103070000197D1F566E972E02EC069E972E02BC0D4
:103080006AE872E082EF91E00E94862E82EF91E082
:103090000E945F1E61E080E00E94611E209172022A
:1030A0003091730280916E0290916F022817390758
:1030B00011F080E201C08BE20E943C1F80917202FD
:1030C00090917302009729F0019771F463E872E020
:1030D00002C066E872E082EF91E00E94862E82EFE5
:1030E00091E0CF910C945F1ECF9108952F923F9263
:1030F0004F925F926F927F928F929F92AF92BF9208
:10310000CF92DF92EF92FF920F931F93CF93DF93B3
:10311000CDB7DEB72F970FB6F894DEBF0FBECDBF89
:10312000FC0183859485019721F485859685059713
:1031300049F51786108A118A128A16A617A610AAB0
:1031400011AA12A613A614A615A616A217A210A6B7
:1031500011A62F960FB6F894DEBF0FBECDBFDF913C
:10316000CF911F910F91FF90EF90DF90CF90BF9084
:10317000AF909F908F907F906F905F904F903F9017
:103180002F9008958081813021F440906F034D820B
:1031900003C0509070035D82FF87EE870E943E0E51
:1031A0006E837F8388879987212C312CCC24CA9405
:1031B000DC2C760119821A821B821C8200E010E04E
:1031C000812C912C54010E943E0EAB01BC01DB010D
:1031D000CA014E805F806884798484199509A609A4
:1031E000B7098397A105B10508F088C0AE85BF85F2
:1031F00019968C914C875D876A877B870E94ED0DBD
:103200002C01990F660877084C855D856A857B855A
:10321000BFEFCB16DB06EB06FB0641F181E0E1E0F8
:10322000CE16E2E0DE06E104F1040CF480E091E069
:10323000F1E04F16F2E05F06610471040CF490E0D7
:103240008917A1F0DB01CA01C980DA80EB80FC801C
:103250008C199D09AE09BF090697A105B10530F08B
:103260000F5F1F4F49835A836B837C8301301105A5
:1032700008F441C00330110520F00330110591F02E
:103280003AC0C301B2017250810991099B01AC019E
:103290000E949A27860E971EA81EB91E2FEF221A8B
:1032A000320A29C0910140E050E0C501B4010E94FA
:1032B000DE27CA01B9010E9494290E945B2B0E945B
:1032C00065299B01AC01AAE6B0E00E943428693868
:1032D00033E1730781059105A8F04D81A4E64A0208
:1032E000600111240D2C000CEE08FF08C60ED71E3D
:1032F000E81EF91E09C07301620165CFC12CD12CF3
:10330000760102C06B017C010E943E0EAE85BF8536
:103310005B960D911D912D913C915E972B013C0187
:10332000401A510A620A730A49EE441643E05406F1
:103330006104710430F05B966D937D938D939C9343
:103340005E9720915B0330915C03A8EEB3E00E948E
:103350002528EE85FF8520A131A12330310529F0F4
:1033600021E030E040E050E004C022E030E040E006
:1033700050E00E94DE27DA01C90188519C4FAF4F0F
:10338000BF4FEE85FF858C159D05AE05BF0508F086
:1033900045C087859089A189B289892B8A2B8B2B7F
:1033A00059F40E943E0EAE85BF851F966D937D93A6
:1033B0008D939C93529736C00E943E0EEE85FF85FA
:1033C0000785108921893289DC01CB01801B910B93
:1033D000A20BB30B813A9F40A105B10518F1AE8550
:1033E000BF858C91886690E02F960FB6F894DEBF6B
:1033F0000FBECDBFDF91CF911F910F91FF90EF9046
:10340000DF90CF90BF90AF909F908F907F906F9004
:103410005F904F903F902F900C946C071786108A06
:10342000118A128A0E943E0E0E9494294B015C016F
:10343000C701B6010E9494292B013C01AE85BF85CE
:103440009E96CD90DD90ED90FC90D197C982DA8266
:10345000EB82FC82A5019401C701B6010E944728B6
:103460006B017C0120E030E0A9010E946D2A181652
:1034700024F4F7FAF094F7F8F094EE85FF8522A192
:1034800033A144A155A1C701B6010E94B9280E94E9
:1034900033296B017C0129813A814B815C81C50113
:1034A000B4010E946D2A181694F5AE85BF859A96D0
:1034B0002D913D914D915C919D97C701B6010E9460
:1034C000E82AA30192010E944828EE85FF8562A7A1
:1034D00073A784A795A726A137A140A551A5C70129
:1034E000B6010E94E82A20E030E040E85FE30E9455
:1034F0004828AE85BF8596966D937D938D939C935A
:103500009997FD0186A697A6A0AAB1AA28C0A301F3
:103510009201C701B6010E94E82A9B01AC01AE8569
:10352000BF859A966D917D918D919C919D970E94FA
:103530004828EE85FF8562A773A784A795A7A701F2
:10354000960166A177A180A591A50E944828AE8525
:10355000BF8596966D937D938D939C939997EE85F9
:10356000FF858081880F880F880F61E088500E9456
:10357000611EAE85BF858C91805C0E943C1F8AE3F2
:103580000E943C1FEE85FF85C6A0D7A0E0A4F1A451
:1035900020E030E0A901C701B6010E946D2A18168B
:1035A0005CF42DEB37E346E855E3C701B6010E9412
:1035B000B42887FF0BC017C02DEB37E346E855EB67
:1035C000C701B6010E946D2A18166CF0A70196017A
:1035D000AE85BF859A966D917D918D919C919D97B9
:1035E0000E94B92803C060E070E0CB010E94652909
:1035F0006B017C012AE030E040E050E00E94DE27D1
:10360000B8EECB16B3E0DB06E104F104B8F46BE1ED
:1036100073E082EF91E02A873B874C875D870E94A9
:10362000862EAAE0B0E02A853B854C855D850E9408
:1036300034289F938F937F936F9331C0CA01B90150
:1036400024E630E040E050E00E94DE27CB016AE053
:1036500070E00E94CA2721E030E0059714F420E0D2
:1036600030E05B01A20EB31EC701B60128EE33E0C5
:1036700040E050E00E94DE278901FAE0AF16B10475
:1036800021F40F5F1F4FA12CB12C62E273E082EF97
:1036900091E00E94862EBF92AF921F930F9382EF0C
:1036A00091E09F938F9386E792E09F938F930E9480
:1036B000E52B0FB6F894DEBF0FBECDBF86E792E0D4
:1036C0002F960FB6F894DEBF0FBECDBFDF91CF911E
:1036D0001F910F91FF90EF90DF90CF90BF90AF9030
:1036E0009F908F907F906F905F904F903F902F9022
:1036F0000C945F1EEF92FF920F931F93CF93DF9373
:10370000EC018B01809153028111B3C18D859E859F
:103710008530910509F4FEC16817790709F404C2E0
:1037200080915A03882321F0813009F49DC0FCC1A7
:103730007E876D876530710540F46330710508F050
:1037400047C06130710530F4EFC16530710509F48F
:1037500080C1EAC160E070E0CE010E94060601303F
:10376000110549F089819A810E94EB05811106C0FB
:1037700064E070E005C061E070E002C063E070E00A
:10378000CE010E940405888190E00130110519F0F6
:1037900028E030E002C020E030E0822B932B0E9432
:1037A000D3061B8A1C8A1D8A1E8A89819A81FC0184
:1037B00020A131A12330310509F0B6C164E070E0E9
:1037C000DF91CF911F910F91FF90EF900C94040522
:1037D000CE010E94EB058111A7C189819A810E94C7
:1037E000EB058823E1F00E943E0E6B8B7C8B8D8B6A
:1037F0009E8B63E070E089819A810E94040563E0FA
:1038000070E0CE010E9404058881886190E0DF911C
:10381000CF911F910F91FF90EF900C94D306898167
:103820009A81FC0120A131A12430310521F463E00B
:1038300070E00E94040564E070E0CE010E9404057F
:103840001B8A1C8A1D8A1E8A8881806190E00E94E2
:10385000D30661E070E0CE01DF91CF911F910F910F
:10386000FF90EF900C940606E981FA81E584F684D6
:103870006530710558F46330710508F0CAC06130D5
:10388000710549F06230710591F1F0C06530710544
:1038900009F4DFC0EBC060E070E0CE010E940606D4
:1038A00061E070E0CE010E94040510925402109273
:1038B00055021092560210925702F2E0EF16F104F0
:1038C00069F464E070E089819A810E940405E981CD
:1038D000FA818081886090E00E94D306888190E020
:1038E0000E94D3061F8EE981FA81178EBFC060E067
:1038F00070E0CE010E9406068D859E850397029793
:1039000008F044C082E0E816F10491F5E981FA81FB
:10391000878D81110BC061E070E0CE010E9404052B
:1039200064E070E089819A810E940405E981FA814E
:10393000808190E0278D211103C028E030E002C093
:1039400020E230E0822B932B0E94D3068881806294
:1039500090E00E94D30681E08F8F0E943E0E60931C
:1039600054027093550280935602909357027EC082
:103970008881886090E00E94D306109254021092D1
:103980005502109256021092570270C0E1E0EE16F6
:10399000F10491F464E070E0CE010E9404051F8EF2
:1039A000E981FA81178E10925402109255021092FA
:1039B0005602109257021BC0E894E1F88881EF2864
:1039C000E1F4909152029813AFC09F8D911115C0F0
:1039D00064E070E0CE010E9404050E943E0E6093F8
:1039E0005402709355028093560290935702888137
:1039F000886090E00E94D30639C090E02F8D21119D
:103A000003C028E130E002C020E230E0822B932B9B
:103A1000F1CFCE010E94EB05811128C088A199A1A8
:103A2000049721F08881886E90E018C010925402AB
:103A300010925502109256021092570288818061AE
:103A400090E00E94D30661E070E0CE010E9406067D
:103A50000DC08881886290E080649160DF91CF9191
:103A60001F910F91FF90EF900C946C071E870D87AC
:103A70005BC06130710509F053C0888190E00E94FD
:103A8000D3061E870D878F89988DA98DBA8D892BB6
:103A90008A2B8B2BA9F01F8A188E198E1A8E60E044
:103AA00070E0CE010E94060689819A810E94EB0592
:103AB000E981FA81811128C085859685029721F1D7
:103AC00080915302882381F10230110569F58D85BB
:103AD0009E85019729F48881809352021E870D8765
:103AE0002881822F886090E030915A03313039F478
:103AF00030915202321303C024E030E002C020E0D3
:103B000030E0822B932B83CE64E070E0CF010E94E3
:103B10000405D6CF6130710519F41E861D86B3CF1A
:103B20000230110509F4AFCFDF91CF911F910F91B2
:103B3000FF90EF900895009769F0FC01019000203C
:103B4000E9F73197AF01481B590BBC0183E793E0BC
:103B50000C94F41480E090E0089591E09093E302D7
:103B6000809382031092E5021092E402089520915E
:103B7000E40290918203213208F04AC08091C2028F
:103B80008111FCCF32E03093C20231E03093C102A8
:103B90003FEF3093C0021092BF022093BE02A3EC0D
:103BA000B2E04EE952E0FA013E2F341B321718F40E
:103BB0003D913193F9CF10929D0220919D02990F72
:103BC000922B90939D0290919C02913061F41092FF
:103BD0009C0290919D029093BB009091BC0093FD3C
:103BE000F8CF95EC01C095EE9093BC009091C20285
:103BF0009230E1F39091C0029F3F79F08091C00232
:103C0000803241F08091C002803331F084E005C001
:103C100081E003C082E001C083E01092E5021092CF
:103C2000E4021092E30208959091C2029111FCCF38
:103C3000613208F060E291E09093C2029093C10279
:103C40002FEF2093C0021092BF02260F2093BE02D6
:103C500090939D0290919D02880F892B80939D02E5
:103C600080919C02813061F410929C0280919D02AF
:103C70008093BB008091BC0083FDF8CF85EC01C030
:103C800085EE8093BC008091C2028130E1F3809187
:103C9000BF02861710F46091BF02AEE9B2E02CE7D4
:103CA00032E0F9018E2F821B861718F48D918193D3
:103CB000F9CF1092E7026093E602862F08950C94E4
:103CC0009B1DCF93DF93CDB7DEB728970FB6F8943F
:103CD000DEBF0FBECDBF20917E03222331F128E04D
:103CE000EEE1F1E0DE01119601900D922A95E1F7E7
:103CF00020917A03261710F46FEF620FFE013196C0
:103D0000E60FF11DE60FF11D9081682F690F6068C5
:103D100040E083E793E028960FB6F894DEBF0FBE2D
:103D2000CDBFDF91CF910C94791228960FB6F894FD
:103D3000DEBF0FBECDBFDF91CF91089580917E038E
:103D4000882351F040E061E083E793E00E9479121C
:103D50008BE39FE10197F1F70895CF93DF93909163
:103D60007E03992309F457C090917D03992311F0A4
:103D700097E08927909181039130C1F580FD03C0C0
:103D800020EC31E002C020E831E030938003209342
:103D90007F0381FF09C020917F03309180032F773B
:103DA0003093800320937F0382FF09C080917F03BB
:103DB000909180039E7F9093800380937F03D091A6
:103DC0007F03C091800380917C0380620E94AD1DBF
:103DD00082E10E9440128D2F0E9440128C2F0E947F
:103DE00040120E94B71D8111FCCF15C0909178033D
:103DF000882311F0986001C0977F90937803809199
:103E00007803682F687083FD60E883E793E0DF91B3
:103E1000CF910C944512DF91CF910895CF92DF920C
:103E2000EF92FF920F931F93CF93DF931F92CDB723
:103E3000DEB77C018C01C12CD12CF80161918F017E
:103E4000C60169830E948D2E6981681719F0C60129
:103E50000E94952EFFEFCF1ADF0A8BE1C816D1041E
:103E600061F7C7010F90DF91CF911F910F91FF90E4
:103E7000EF90DF90CF900895E0917303F091740379
:103E80000190F081E02D682F83E793E009948F92F1
:103E90009F92AF92BF920F931F93CF93DF93CDB7B3
:103EA000DEB7A1970FB6F894DEBF0FBECDBF19A243
:103EB000423008F44AE08E010F5D1F4F842E912C92
:103EC000A12CB12CA50194010E94DE27E62FB90197
:103ED000CA0101501109EA3014F4E05D01C0E95C47
:103EE000D801EC93232B242B252B61F7C8010E94CA
:103EF0009B1DA1960FB6F894DEBF0FBECDBFDF911C
:103F0000CF911F910F91BF90AF909F908F90089588
:103F1000CF92DF92EF92FF920F931F93CF93E82FF0
:103F2000880FFF0BE45DFC4FE4918DEF8E0F823024
:103F300068F468EE73E080E090E0CF911F910F91FC
:103F4000FF90EF90DF90CF900C94F211E83091F554
:103F5000C0E00FE110E0C12C94E2D92E94EFE92EDD
:103F6000F12CCF5FEC2FF0E0EE0FFF1FEA5DFE4F6C
:103F70008081918180179107A0F38C019C01A0EDB5
:103F8000B7E00E9425289B01AC01C701B6010E9441
:103F9000DE272F3F31054105510509F010F7209329
:103FA000B3008091B100C770887FC82BC093B10067
:103FB00081E001C080E0CF911F910F91FF90EF90C1
:103FC000DF90CF900895CF93DF93CDB7DEB767979B
:103FD0000FB6F894DEBF0FBECDBF789484B5826073
:103FE00084BD84B5816084BD85B5826085BD85B59D
:103FF000816085BD80916E00816080936E0010921B
:104000008100809181008260809381008091810095
:104010008160809381008091800081608093800026
:104020008091B10084608093B1008091B000816084
:104030008093B00080917A00846080937A008091B0
:104040007A00826080937A0080917A008160809308
:104050007A0080917A00806880937A001092C10083
:1040600014BE9EE088E10FB6F894A8958093600096
:104070000FBE90936000809180008C7F80938000C1
:1040800080918100877E80618093810064EF71E080
:1040900080E090E00E94F2118091B0008C7F8160FE
:1040A0008093B0008091B10088608093B10010E0EF
:1040B0007EE3E72EF12C812CE4E29E2EE4EFAE2E7F
:1040C000B12C1F5FE12FF0E0EE0FFF1FEA5DFE4F06
:1040D000808191818E159F05A0F37C019C01A8EE43
:1040E000B3E00E9425289B01AC01C501B4010E94E8
:1040F000DE272F3F31054105510509F010F72093C8
:10410000B3008091B1001770887F182B1093B10015
:1041100081E08093810362E370E080E090E00E94A0
:10412000040E1092E7021092E6021092E50210923D
:10413000E4020E942C149091810380917C038062A0
:10414000913069F50E94AD1D80E00E9440128FE120
:104150000E9440120E94B71D882339F080917E038F
:10416000823019F410927E03EDC080917C0380624E
:104170000E94AD1D8CE00E9440128FE10E9440120F
:104180000E94B71D882321F080917E03823051F375
:1041900080917C0380620E94AD1D81E032C00E944C
:1041A000AD1D80E00E9440128FEF0E94401280E01F
:1041B0000E94401280E00E94401280E00E94401263
:1041C00080E00E94401280E00E94401280E00E9445
:1041D000401280E00E94401280E00E94401280E085
:1041E0000E9440120E94B71D882329F080917E030F
:1041F000823009F4B7CF80917C0380620E94AD1DAC
:1042000080E00E94401280E00E9440120E94B71D90
:10421000882329F080917E03823009F4A3CF809116
:104220007E03823019F481E080937E0380917703CE
:1042300088608093770382E080937A0310927B03F7
:10424000809181038130E1F41092800310927F030A
:1042500013E068E383E793E00E945F1268E183E77D
:1042600093E00E945F121150A1F768E283E793E0A8
:104270000E945F1268E083E793E00E945F1228C00B
:104280006CE983E793E00E94451268E983E793E0D5
:104290000E9445126CE983E793E00E94451268E9A9
:1042A00083E793E00E9445126CE983E793E00E9464
:1042B000451268E983E793E00E94451264E983E7C9
:1042C00093E00E94451260E983E793E00E94451263
:1042D00065E070E080E090E00E94040E609177035A
:1042E000606240E083E793E00E94791265E070E04D
:1042F00080E090E00E94040E60917703606240E0ED
:1043000083E793E00E94791265E070E080E090E03E
:104310000E94040E8CE08093780380917E038823B2
:1043200031F040E06CE083E793E00E9479120E9454
:104330009E1E82E08093790340E066E083E793E08D
:104340000E94791287E00E94AD1E0E949E1E60E0CE
:1043500080E00E94611E6FE072E082EF91E00E94B7
:10436000862E82EF91E00E945F1E61E081E00E9454
:10437000611E6BE072E082EF91E00E94862E82EF78
:1043800091E00E945F1E80E20E943C1F65E072E0A7
:1043900082EF91E00E94862E82EF91E00E945F1EE4
:1043A00080ED97E00E94E90161E081E00E94611EDA
:1043B00061E072E082EF91E00E94862E82EF91E050
:1043C0000E945F1E80E20E943C1F67EF71E082EF57
:1043D00091E00E94862E82EF91E00E945F1E08E02D
:1043E00010E080E20E943C1F01501109D1F761E00A
:1043F00083E00E94B10D60E083E00E94810D60E0E7
:1044000082E00E94B10D8BEC91E090930D018093BE
:104410000C0180916900836080936900E89A61E0F3
:104420008AE00E94B10D61E089E00E94B10D61E077
:1044300088E00E94B10D61E087E00E94B10D60E06C
:1044400081E10E94B10D60E080E10E94B10D61E068
:1044500070E084EF92E00E94040561E070E086E283
:1044600093E00E94040560E070E084EF92E00E9417
:10447000060660E070E086E293E00E94060680E1B6
:10448000E4E5F2E0DF011D928A95E9F710926002FF
:1044900010926102109262021092630283E690E031
:1044A000909367028093660281E08093520283E5D5
:1044B00090E19093EA018093E9018091E501909168
:1044C000E601A091E701B091E8018093E1019093AA
:1044D000E201A093E301B093E4010E94090F8091EF
:1044E0005E03682F082E000C770B77FF03C07195D1
:1044F00061957109162F1F7187FF106288E60E946F
:10450000AD1D67E088EE92E00E94290D612F88EED4
:1045100092E00E94290D0E94B71D8AE00E94881F28
:10452000811103C083E00E94AD1E89E00E94881FB4
:10453000811103C084E00E94AD1E80ED97E00E94CF
:10454000E9010E949E1E0E94840681E10E94580D8E
:1045500001E0019709F000E080E10E94580D11E0B0
:10456000019709F010E0011102C01123F9F081E078
:104570000E94AD1E0E949E1E67EE71E082EF91E0E8
:104580000E94862E82EF91E00E945F1E61E080E033
:104590000E94611E002319F081E40E943C1F112338
:1045A00019F082E40E943C1F0E943B0640E8842EE2
:1045B00041E5942EAA24A394B12C57E0452E512C0A
:1045C000612C712C3324339431E1232EA8958091F2
:1045D0006502882339F0E0911001F091110180E02B
:1045E00009959FC280916402882331F088EA90E0A7
:1045F0000E946C07109264028091600290916102A7
:10460000A0916202B0916302892B8A2B8B2B81F5DA
:1046100081E10E94580D019739F48091FF02909139
:104620000003892B09F485C280E10E94580D01978F
:1046300039F48091310390913203892B09F47EC2C1
:1046400081E10E94580D892B39F48091FF029091ED
:104650000003019709F477C280E10E94580D892B6D
:1046600039F48091310390913203019709F470C2BB
:104670008091600290916102A0916202B091630208
:10468000892B8A2B8B2BA1F00E943E0E0091600299
:104690001091610220916202309163020C501E4F12
:1046A0002F4F3F4F061717072807390708F455C241
:1046B0008091010390910203059731F080913303BB
:1046C00090913403059711F481E01AC084EF92E0D1
:1046D0000E94EB05182F86E293E00E94EB05111172
:1046E0000AC081110CC080915302811102C082E086
:1046F00007C083E005C0882311F085E001C086E093
:104700000E94AD1E90916C0280915302992309F48E
:1047100055C0811150C080915A03813091F480912D
:10472000140390911503049719F43092520209C0B2
:1047300080914603909147030497B9F7B2E0B09394
:10474000520261E070E084EF92E00E94040561E0B3
:1047500070E086E293E00E9404050E943E0E6093A2
:104760000B0370930C0380930D0390930E03109230
:104770000203109201031092070310920803109293
:10478000090310920A031092130360933D03709380
:104790003E0380933F0390934003109234031092A2
:1047A00033031092390310923A0310923B03109294
:1047B0003C0310924503309253020CC0882341F011
:1047C00010920203109201031092340310923303EB
:1047D0001092530260E080E00E94611E88E60E9411
:1047E000AD1D60E088EE92E00E94290D0E94B71D89
:1047F00061E070E088E690E00E94141E88EE92E08E
:104800000E94E50C87FD46C00E94DC070E94CE1185
:104810008091ED0190E00C971CF421E4F22E02C08F
:1048200090E5F92E0E94DC070E94CE11E090EC0189
:104830000E94DC070E94CE118091ED01882339F09F
:10484000082F10E08D3028F00C50110902C00CE048
:1048500010E063E472E082EF91E00E94862E1F92E6
:10486000FF921F92EF921F930F9382EF91E09F931D
:104870008F931F922F92EE24E394F12CEC0EFD1EE9
:10488000FF92EF920E94B52B0FB6F894DEBF0FBED9
:10489000CDBF1AC06AE372E082EF91E00E94862EDB
:1048A00082EF91E09F938F931F922F9221E030E04F
:1048B0002C0F3D1F3F932F930E94B52B0F900F900D
:1048C0000F900F900F900F90CE0101960E945F1EE7
:1048D00080915302882319F061E372E018C06EE200
:1048E00072E082EF91E00E94862E82EF91E00E94BA
:1048F0005F1E80915A03882329F0813031F460E2F1
:1049000072E005C067E272E002C06CE172E082EF23
:1049100091E00E94862E82EF91E00E945F1E84EF5C
:1049200092E00E94A6046C01BC0184EF92E00E9418
:104930007A1B86E293E00E94A6049F8B8E8BBC01BB
:1049400086E293E00E947A1B809154029091550276
:10495000A0915602B0915702892B8A2B8B2B61F1C3
:104960000E943E0EAB01BC01809154029091550211
:10497000A0915602B09157027A018B01E81AF90A08
:104980000A0B1B0B21EEE21623E9F2060440110587
:1049900098F08091140390911503049719F484EF13
:1049A00092E008C08091460390914703049721F458
:1049B00086E293E00E944A140E943E0EE090680254
:1049C000F090690200916A0210916B029B01AC01A8
:1049D0002E193F09400B510B21363A4E4105510526
:1049E00040F0609368027093690280936A0290932A
:1049F0006B0284EF92E00E94761886E293E00E94B8
:104A0000761884EF92E00E94801486E293E00E9480
:104A100080140E9402029C01019731F4909153028C
:104A2000B1E09B2790936C02CA94CD28A9F40E891B
:104A30001F890130110581F42230310569F430926B
:104A40006502109202031092010310923403109237
:104A5000330381E00E941C160091660210916702E8
:104A60000E94DC070E94CE118091EC0190E00817B3
:104A7000190709F456C00E94DC070E94CE118091EC
:104A8000EC0190E090936702809366020E94DC073D
:104A90006B017C010E94CE110091ED01C701B601AE
:104AA0000E94CE111091EC01C701B601A50194013D
:104AB0000E94DE27CA01B9016C5F7F4F8F4F9F4F65
:104AC000A30192010E94DE2781E001C0880F6A9550
:104AD000EAF720E030E0F901E85AFC4F928599238B
:104AE00071F0478140130BC04085411308C04185D8
:104AF000482329F0913049F0923071F012C02C5FB8
:104B00003F4F2031310539F70CC08091530281119C
:104B100008C090936C0205C08091530281111092DD
:104B20006C0220E030E0232B09F450CD0E940000FD
:104B30004BCD89E291E00E946C0776CD8AE291E04C
:104B40000E946C077DCD8AE290E00E946C0784CDC4
:104B50008AE290E00E946C078BCD10926002109266
:104B600061021092620210926302A2CD0F931F9312
:104B7000CF93DF931092E7021092E6021092E502C3
:104B80001092E4020E942C141092EB021092EA029E
:104B900088EE93E0A0E0B0E08093EC029093ED0209
:104BA000A093EE02B093EF0286E491E09093E902C5
:104BB0008093E802109276031092750381E691E0EB
:104BC000909374038093730382E080937E0310922A
:104BD0007D0380E280937C0310927703109281031F
:104BE00010926F031092700310927103109272036F
:104BF00008E513E0C0E0D0E0CE010E948D2EF80160
:104C000081938F012196CB31D105B1F78091580363
:104C100090915903813F910509F444C081EF90E0E0
:104C2000909359038093580310925A038CE090E0BC
:104C300090935C0380935B0381E080935D0310920B
:104C40005E0380E090E0FC01E85AFC4F1286178278
:104C500010861186049680319105A9F78EE3809322
:104C600065038093610387E180935F0387E080930E
:104C7000630381EC8093690383E1809367038FEF83
:104C800080936D038FE080936B0310926F031092FB
:104C90007003109271031092720388E593E00E94F2
:104CA0000E1F65C080915A03823010F010925A0393
:104CB00040915B0350915C03E2E5F1E020E081E08C
:104CC000ED35F80739F0819190E084179507B9F731
:104CD00021E0F5CF211106C08CE090E090935C03B9
:104CE00080935B03E2E6F3E08081833008F010827A
:104CF000DF0113978C91883108F01C92DF01129725
:104D00008C918C3308F01C92DF018E918F778C93FD
:104D1000349683E0E237F80739F780916F03082E65
:104D2000000C990B97FF03C0919581959109069707
:104D300014F010926F0380917003082E000C990BF1
:104D400097FF03C0919581959109069714F01092F1
:104D5000700380917103865F8B3010F010927103A5
:104D600080917203865F8B3010F01092720381E0A5
:104D70008093F40286E293E09093F6028093F5022A
:104D800088E090E09093F8028093F7028AE090E048
:104D90009093FA028093F90281E090E09093FC02F4
:104DA0008093FB0227E030E03093FE022093FD0267
:104DB000109200031092FF0210920203109201035E
:104DC000109203031092040310920503109206033D
:104DD00010920703109208031092090310920A031D
:104DE00010920B0310920C0310920D0310920E03FD
:104DF00010920F03109210031092110310921203DD
:104E00001092130310921503109214038EEA90E48B
:104E1000A7E0B5E48093160390931703A0931803BB
:104E2000B0931903109222031092230310922403CB
:104E30001092250310921E0310921F03109220035C
:104E40001092210310921A0310921B0310921C035C
:104E500010921D0342E04093260344EF52E050932A
:104E600028034093270330932A032093290329E042
:104E700030E030932C0320932B0310922E031092DA
:104E80002D0326E030E03093300320932F0310925F
:104E900032031092310310923403109233031092B4
:104EA0003503109236031092370310923803109294
:104EB000390310923A0310923B0310923C03109274
:104EC0003D0310923E0310923F0310924003109254
:104ED0004103109242031092430310924403109234
:104EE0004503109247031092460380934803909322
:104EF0004903A0934A03B0934B03109254031092BA
:104F000055031092560310925703109250031092BB
:104F10005103109252031092530310924C031092BB
:104F20004D0310924E0310924F03DF91CF911F91CA
:104F30000F910895DB018F939F930E943428BF91B6
:104F4000AF91A29F800D911DA39F900DB29F900DD8
:104F500011240895991B79E004C0991F961708F051
:104F6000961B881F7A95C9F780950895AA1BBB1BCD
:104F700051E107C0AA1FBB1FA617B70710F0A61B59
:104F8000B70B881F991F5A95A9F780959095BC017A
:104F9000CD01089597FB072E16F4009407D077FDF6
:104FA00009D00E94B62707FC05D03EF49095819564
:104FB0009F4F0895709561957F4F0895A1E21A2E35
:104FC000AA1BBB1BFD010DC0AA1FBB1FEE1FFF1FAD
:104FD000A217B307E407F50720F0A21BB30BE40BFD
:104FE000F50B661F771F881F991F1A9469F7609544
:104FF0007095809590959B01AC01BD01CF010895FE
:10500000052E97FB1EF400940E94172857FD07D029
:105010000E94DE2707FC03D04EF40C94172850950D
:105020004095309521953F4F4F4F5F4F0895909594
:105030008095709561957F4F8F4F9F4F0895EE0F2C
:10504000FF1F0590F491E02D0994A29FB001B39F3A
:10505000C001A39F700D811D1124911DB29F700D81
:10506000811D1124911D08950E942528A59F900D52
:10507000B49F900DA49F800D911D11240895B7FF3A
:105080000C9434280E943428821B930B08955058A6
:10509000BB27AA270E945F280C94332A0E94252A46
:1050A00038F00E942C2A20F039F49F3F19F426F49E
:1050B0000C94FB290EF4E095E7FB0C94F529E92FFD
:1050C0000E94442A58F3BA176207730784079507AA
:1050D00020F079F4A6F50C94662A0EF4E0950B2ED8
:1050E000BA2FA02D0B01B90190010C01CA01A0013A
:1050F0001124FF27591B99F0593F50F4503E68F195
:105100001A16F040A22F232F342F4427585FF3CFD5
:10511000469537952795A795F0405395C9F77EF4A6
:105120001F16BA0B620B730B840BBAF09150A1F0EF
:10513000FF0FBB1F661F771F881FC2F70EC0BA0F75
:10514000621F731F841F48F4879577956795B795FD
:10515000F7959E3F08F0B0CF9395880F08F09927F8
:10516000EE0F9795879508950E94D12908F481E064
:1051700008950E94CD280C94332A0E942C2A58F0BE
:105180000E94252A40F029F45F3F29F00C94F5296C
:1051900051110C94672A0C94FB290E94442A68F34D
:1051A0009923B1F3552391F3951B550BBB27AA27E0
:1051B00062177307840738F09F5F5F4F220F331F1A
:1051C000441FAA1FA9F335D00E2E3AF0E0E832D0E2
:1051D00091505040E695001CCAF72BD0FE2F29D0E5
:1051E000660F771F881FBB1F261737074807AB07B7
:1051F000B0E809F0BB0B802DBF01FF2793585F4F2C
:105200003AF09E3F510578F00C94F5290C94672AEA
:105210005F3FE4F3983ED4F3869577956795B7950D
:10522000F7959F5FC9F7880F911D9695879597F918
:105230000895E1E0660F771F881FBB1F6217730791
:105240008407BA0720F0621B730B840BBA0BEE1FA6
:1052500088F7E095089529F416F00C94F5290C943C
:10526000662A0C94FB290E944C2AA8F39638A0F7D2
:1052700007F80F92E8942BE33AEA48EB5FE70E94C5
:10528000FE2A0F920F920F924DB75EB70F920E94B7
:10529000B42AEAEAF0E00E94FE294F915F91EF9173
:1052A000FF91E595EE1FFF1F49F0FE57E068442788
:1052B000EE0F441FFA95E1F74195550B0E947E2AA7
:1052C0000F9007FE0C94722A08950E944C2A88F0D1
:1052D0009F5798F0B92F9927B751B0F0E1F0660FBA
:1052E000771F881F991F1AF0BA95C9F714C0B130FB
:1052F00091F00E94662AB1E008950C94662A672F07
:10530000782F8827B85F39F0B93FCCF38695779529
:105310006795B395D9F73EF4909580957095619512
:105320007F4F8F4F9F4F0895E89409C097FB3EF43D
:1053300090958095709561957F4F8F4F9F4F9923E2
:10534000A9F0F92F96E9BB279395F6958795779560
:105350006795B795F111F8CFFAF4BB0F11F460FF20
:105360001BC06F5F7F4F8F4F9F4F16C0882311F078
:1053700096E911C0772321F09EE8872F762F05C08C
:10538000662371F096E8862F70E060E02AF09A9527
:10539000660F771F881FDAF7880F9695879597F91C
:1053A0000895990F0008550FAA0BE0E8FEEF1616B6
:1053B0001706E807F907C0F012161306E407F50709
:1053C00098F0621B730B840B950B39F40A2661F07D
:1053D000232B242B252B21F408950A2609F4A14020
:1053E000A6958FEF811D811D089597F99F6780E82D
:1053F00070E060E008959FEF80EC0895DF93CF9315
:105400001F930F93FF92EF92DF927B018C016894C0
:1054100006C0DA2EEF010E94FB2AFE01E894A59156
:105420002591359145915591A6F3EF010E945F2892
:10543000FE019701A801DA9469F7DF90EF90FF90E1
:105440000F911F91CF91DF91089500240A941616B1
:10545000170618060906089500240A941216130662
:10546000140605060895092E0394000C11F48823F0
:1054700052F0BB0F40F4BF2B11F460FF04C06F5F0C
:105480007F4F8F4F9F4F089557FD9058440F551FE2
:1054900059F05F3F71F04795880F97FB991F61F0B6
:1054A0009F3F79F087950895121613061406551F2D
:1054B000F2CF4695F1DF08C0161617061806991F99
:1054C000F1CF86957105610508940895E894BB278E
:1054D00066277727CB0197F908950E94D12908F410
:1054E0008FEF08959B01AC0160E070E080E89FE3DE
:1054F0000C94B9280C94F5290C949B2B0E944C2AEF
:10550000D8F39923C9F3940F511DA3F39150504040
:1055100094F059F0882332F0660F771F881F91505E
:105520005040C1F79E3F51052CF7880F911D96956D
:10553000879597F908955F3FACF0983E9CF0BB27A4
:10554000869577956795B79508F4B1609395C1F7FF
:10555000BB0F58F711F460FFE8CF6F5F7F4F8F4F9D
:105560009F4FE3CF0C94672AFA01DC01AA0FBB1FFF
:105570009B01AC01BF5728F42227332744275078DA
:1055800020C0B75190F4AB2F00244695379527954E
:10559000011CA395D2F3002071F0220F331F441F8A
:1055A000B395DAF30ED00C94472861307105A0E86A
:1055B0008A07B94630F49B01AC0166277727882714
:1055C0009078309621F0208331834283538308956D
:1055D0000E94FB2A0C94332A0E94252A38F00E944C
:1055E0002C2A20F0952311F00C94F5290C94FB291A
:1055F00011240C94672A0E94442A70F3959FC1F3EA
:10560000950F50E0551F629FF001729FBB27F00D70
:10561000B11D639FAA27F00DB11DAA1F649F6627C5
:10562000B00DA11D661F829F2227B00DA11D621F14
:10563000739FB00DA11D621F839FA00D611D221FCE
:10564000749F3327A00D611D231F849F600D211DB2
:10565000822F762F6A2F11249F5750409AF0F1F035
:1056600088234AF0EE0FFF1FBB1F661F771F881F9E
:1056700091505040A9F79E3F510580F00C94F529B8
:105680000C94672A5F3FE4F3983ED4F386957795B0
:105690006795B795F795E7959F5FC1F7FE2B880F44
:1056A000911D9695879597F9089519F416F40C9421
:1056B000FB290C949B2B0E944C2AB8F39923C9F325
:1056C000B6F39F57550B87FF0E94A92B0024A0E635
:1056D00040EA900180585695979528F4805C660FB3
:1056E000771F881F20F026173707480730F4621B02
:1056F000730B840B202931294A2BA6951794079404
:10570000202531254A2758F7660F771F881F20F07C
:1057100026173707480730F4620B730B840B200DF4
:10572000311D411DA09581F7B901842F9158880F33
:105730009695879508959F3F31F0915020F4879575
:1057400077956795B795880F911D9695879597F9E9
:10575000089591505040660F771F881FD2F7089523
:1057600081E090E0F8940C94DA2EAEE0B0E0EBEB40
:10577000FBE20C94B12E0D891E898F89988D26E04D
:105780002C831A83098397FF02C080E090E8019779
:105790009E838D83AE01455E5F4F698D7A8DCE010C
:1057A00001960E94082C4D815E8157FD0AC02F8111
:1057B0003885421753070CF49A01F801E20FF31FE2
:1057C00010822E96E4E00C94CD2EAEE0B0E0EBEE2D
:1057D000FBE20C94B12E0D891E8986E08C831A831E
:1057E00009838FEF9FE79E838D83AE01475E5F4FF6
:1057F0006F89788DCE0101960E94082C2F81388503
:10580000F801E20FF31F10822E96E4E00C94CD2EE7
:10581000ACE0B0E0EEE0FCE20C94A32E7C016B0166
:105820008A01FC0117821682838181FFBDC1CE01EE
:1058300001964C01F7019381F60193FD859193FF49
:1058400081916F01882309F4ABC1853239F493FD4E
:10585000859193FF81916F01853229F4B70190E022
:105860000E94F02DE7CF512C312C20E02032A0F403
:105870008B3269F030F4803259F0833269F4206160
:105880002CC08D3239F0803339F4216026C022607B
:10589000246023C0286021C027FD27C030ED380FC9
:1058A0003A3078F426FF06C0FAE05F9E300D1124EE
:1058B000532E13C08AE0389E300D1124332E2062FF
:1058C0000CC08E3221F426FD6BC1206406C08C36DC
:1058D00011F4206802C0883641F4F60193FD8591E9
:1058E00093FF81916F018111C1CF982F9F7D9554B6
:1058F000933028F40C5F1F4FFFE3F9830DC083360C
:1059000031F0833771F0833509F05BC022C0F801B4
:10591000808189830E5F1F4F44244394512C54018E
:1059200015C03801F2E06F0E711CF801A080B18043
:1059300026FF03C0652D70E002C06FEF7FEFC50149
:105940002C870E94E52D2C0183012C852F77222E98
:1059500017C03801F2E06F0E711CF801A080B18011
:1059600026FF03C0652D70E002C06FEF7FEFC50119
:105970002C870E94DA2D2C012C852068222E830191
:1059800023FC1BC0832D90E048165906B0F4B701E4
:1059900080E290E00E94F02D3A94F4CFF50127FCCC
:1059A000859127FE81915F01B70190E00E94F02D63
:1059B00031103A94F1E04F1A51084114510471F733
:1059C000E5C0843611F0893639F5F80127FF07C0A4
:1059D00060817181828193810C5F1F4F08C060815B
:1059E0007181072E000C880B990B0E5F1F4F2F76CD
:1059F000722E97FF09C090958095709561957F4FA5
:105A00008F4F9F4F2068722E2AE030E0A4010E9441
:105A1000282EA82EA81844C0853729F42F7EB22E30
:105A20002AE030E025C0F22FF97FBF2E8F36C1F07B
:105A300018F4883579F0B4C0803719F0883721F030
:105A4000AFC02F2F2061B22EB4FE0DC08B2D84600D
:105A5000B82E09C024FF0AC09F2F9660B92E06C039
:105A600028E030E005C020E130E002C020E132E073
:105A7000F801B7FE07C060817181828193810C5F5C
:105A80001F4F06C06081718180E090E00E5F1F4F64
:105A9000A4010E94282EA82EA818FB2DFF777F2E88
:105AA00076FE0BC0372D3E7FA51450F474FE0AC05D
:105AB00072FC08C0372D3E7E05C0BA2C372D03C0BE
:105AC000BA2C01C0B52C34FF0DC0FE01EA0DF11D4A
:105AD0008081803311F4397E09C032FF06C0B3944F
