:100000000C94A1010C94220E0C94FB0D0C94C901CC
:100010000C94C9010C94C9010C94C9010C94C90138
:100020000C94C9010C94C9010C94C9010C94C90128
:100030000C94C9010C94C9010C94C9010C94C90118
:100040000C94B10D0C94C9010C94C9010C94C90114
:100050000C94C9010C94C9010C94C9010C94C901F8
:100060000C946D120C94C901C402F70200030B0337
:1000700013031303130313031303130313032103C2
:100080002315281539154A15551565157515A21529
:10009000AA15D515C615D515D515DC15FC152916C7
:1000A00057168416B116DE160A1707634236B79B39
:1000B000D8A71A39685618AEBAAB558C1D3CB7CCC8
:1000C0005763BD6DEDFD753EF6177231BF00000040
:1000D000803F455252200020646F6E65002077619A
:1000E000697400206F6E202000206F66662000205B
:1000F0002D2D2D2000636C656172007365740053B3
:100100007475636B2000474649205465737420461C
:1001100061696C757265004572724A616E4665620E
:100120004D61724170724D61794A756E4A756C41CC
:1001300075675365704F63744E6F76446563002036
:1001400020002532640020202000202020002025CF
:100150003264002020002530326400202000253247
:10016000640053657420436C6F636B00534D5457A8
:1001700054465300534D54575446530020200025F5
:100180003032640020200025326400457869740014
:10019000202020200045646974204576656E742017
:1001A0000000000000240027002A000000000025B5
:1001B0000028002B00000000002300260029000476
:1001C00004040404040404020202020202030303FE
:1001D00003030301020408102040800102040810F8
:1001E00020010204081020204361722025733A2068
:1001F000256425250050696C6F74206465726174F4
:100200006500204361722025733A202573302E2526
:100210006400416D6D65746572004E6F00596573C1
:100220000045786974204D656E75733F004E6F0010
:100230005965730043616C6962726174696F6E3FE6
:10024000004E6F0059657300436F6E666967204505
:1002500076656E74733F004E6F0059657300456E8E
:1002600061626C65204453543F004E6F00596573C2
:100270000053657420436C6F636B3F0020416D70C9
:10028000730043757272656E7420417661696C2EDD
:100290000053657175656E7469616C0053686172B5
:1002A0006564004F7065726174696E67204D6F649C
:1002B000650025336C756D41002532642E25303183
:1002C00064410052656C6179204661696C757265A4
:1002D0003A2000322E342E312D6465760053573A81
:1002E00000322E332E310048573A004A3137373228
:1002F0002048796472612000554E4B007365716E21
:10030000746C00736861726564004D3A004D3A5038
:100310004155534544002020202020202020002546
:1003200032643A2530326425634D20000000000815
:1003300000020100000304070000000000000000AC
:10034000052611241FBECFEFD8E0DEBFCDBF11E0E0
:10035000A0E0B1E0E6EDFEE502C005900D92AC37FD
:10036000B107D9F723E0ACE7B1E001C01D92A73B8C
:10037000B207E1F711E0C1EAD1E004C02197FE0124
:100380000E94A728C03AD107C9F70E9435200C94D3
:10039000692F0C94000060E088E00E94E80C60E0A7
:1003A00087E00E94E80C10923E0310923D031092E9
:1003B0000C0310920B030E94A50D609374027093BE
:1003C0007502809376029093770281E080937802A1
:1003D0000895CF93DF93EC01C536D10550F064E664
:1003E00070E080E090E00E946B0DC456D109A895A2
:1003F000F3CFBE0180E090E00E946B0DA895DF91E5
:10040000CF9108950F931F9380910A0290910B0250
:10041000A0910C02B0910D02892B8A2B8B2BA9F095
:100420000E94A50D00910A0210910B0220910C026E
:1004300030910D02DC01CB01801B910BA20BB30BA1
:10044000C297A105B10508F444C010920A021092A7
:100450000B0210920C0210920D0280918A038823E5
:10046000C1F08091880380620E94ED1D82E10E94AC
:10047000AF110E94F71D80918803806261E070E0F7
:1004800090E00E94541E84EF92E00E944C0C8095F4
:100490008F7140910602509107026091080270919D
:1004A000090280FF19C0452B462B472B91F40E946F
:1004B000A50D609306027093070280930802909343
:1004C000090260930A0270930B0280930C029093CE
:1004D0000D0280E090E02EC0452B462B472BC9F340
:1004E0000E94A50D60930A0270930B0280930C0288
:1004F00090930D02009106021091070220910802CC
:1005000030910902DC01CB01801B910BA20BB30BD4
:10051000109206021092070210920802109209022D
:100520008B3F9105A105B10518F481E090E002C070
:1005300082E090E01F910F910895FF920F931F9317
:10054000CF93DF9300D000D0CDB7DEB7F82E0E9456
:1005500002028C01FF2039F00E94F01E10929101DE
:100560001092900104C08130910509F075C09091FE
:100570009101492F50E04C30510508F0AFC0FA010D
:10058000EC5CFF4F0C94A728F11005C080919001FE
:100590008F5F8093900180919001853010F01092D0
:1005A0009001E0919001E43008F098C034E0E39FBE
:1005B000F0011124E559FC4F808180938F019181D6
:1005C00090938E01928190938D01938190938C01F1
:1005D00091E08C3008F490E090938B01811102C07F
:1005E0008CE00BC08D3008F479C08C5006C080912F
:1005F0008F018F5F8D3008F081E080938F016EC096
:1006000080918E018F5F8C3318F480938E0166C0C9
:1006100010928E0163C081E090918B01911180E076
:1006200080938B015BC02CEF290F81E090E001C02B
:10063000880F2A95EAF790918D01892780938D0183
:100640004DC080918C018F5F833018F480938C01B2
:1006500045C010928C0142C0029709F041C09091B0
:10066000910191110FC080919001843059F486EE70
:1006700094E19093050180930401109279020E9405
:10068000F01E5AC19F5F909391019C3048F1809178
:100690008F0190918B01911103C08C3031F44AC1CC
:1006A000913019F48C3009F0845FE091900194E06E
:1006B000E99FF0011124E559FC4F808380918E0160
:1006C000818380918D01828380918C01838384E674
:1006D00093E00E94601F109291012EC101E010E092
:1006E0000E94A50D28EE33E040E050E00E9466280D
:1006F00021E0643F71408105910508F420E0012B61
:1007000029F490918A01921709F416C120938A0165
:1007100060E080E00E94B31E65E971E082E192E052
:100720000E94152F82E192E00E94B11E80918A0101
:10073000882339F080919101811103C060E971E053
:1007400006C060919001643059F46BE871E082E179
:1007500092E00E94152F82E192E00E94B11E0AC031
:1007600070E06F5F7F4F072E000C880B990B4AE0FB
:100770000E94991F61E080E00E94B31E8091900169
:10078000843049F400E110E080E20E948E1F0150A5
:100790001109D1F7D1C010918F0167E871E082E1B2
:1007A00092E00E94152F1F921F9382E192E09F9387
:1007B0008F938E010F5F1F4F1F930F930E94742C16
:1007C0000F900F900F900F900F900F9080918A01D3
:1007D000882369F080919101813049F464E871E0E7
:1007E00082E192E00E94152F82E192E001C0C801EF
:1007F0000E94B11E8AE30E948E1FF0908E016FE767
:1008000071E082E192E00E94152F1F92FF9282E137
:1008100092E09F938F931F930F930E94742C0F90DD
:100820000F900F900F900F900F9080918A01882366
:1008300069F080919101823049F46CE771E082E1C6
:1008400092E00E94152F82E192E001C0C8010E944F
:10085000B11E80918A01882331F08091910183300B
:1008600011F480E207C080918B01813011F081E4A6
:1008700001C080E50E948E1F80E20E948E1F00E072
:1008800010E06CE671E082E192E00E94152FE2E157
:10089000F2E001900020E9F73197E251F2400E17A3
:1008A0001F0758F58091910190E098012C5F3F4F10
:1008B0002817390731F480918A01882311F080E2EA
:1008C00017C080918D0190E0002E02C0959587950C
:1008D0000A94E2F780FF0BC064E771E082E192E0E6
:1008E0000E94152FF801EE5EFD4F808101C08DE260
:1008F0000E948E1F0F5F1F4FC4CF80E20E948E1F89
:10090000809191018B3031F480918A01882311F01C
:1009100080E20DC080918C01811102C08EE407C07D
:10092000813011F483E503C0823031F487E40E9402
:100930008E1F02C080E0B9CE0F900F900F900F90E5
:10094000DF91CF911F910F91FF9008958F929F9209
:10095000AF92BF92EF92FF920F931F93CF93DF93CB
:100960007C010E94A50D4B015C01C0E0D0E00FE0CE
:1009700017E20E94A50DDC01CB0188199909AA098B
:10098000BB094497A105B10568F4F70187810E946E
:10099000540DC817D90708F4EC018017910748F7E0
:1009A0008C01E7CF0B5F110901331140A0F0C6366F
:1009B00083E0D80798F4CE01875093408F35910596
:1009C00080F0835A9F4F8D35910570F0C256D2400A
:1009D000C834D10560F085E090E00BC081E090E084
:1009E00008C082E090E005C083E090E002C084E0AF
:1009F00090E0DF91CF911F910F91FF90EF90BF900A
:100A0000AF909F908F900895CF92DF92EF92FF92D8
:100A10000F931F93CF93DF93EC018B01888181307B
:100A200019F440917D0302C040917E03023011050C
:100A300018F4602F8D81A4C0209167033091680362
:100A4000A8EEB3E00E94AD280330110521F496957D
:100A50008795779567954423D1F0A42F440FBB0B5E
:100A6000AC59BF4F9B01AC010E94CE2824E630E078
:100A700040E050E00E946628203787E138074105B2
:100A8000510568F460E777E180E090E010C06133E1
:100A9000E5E77E078105910508F098C01AC0CA01F4
:100AA000B901213335474105510508F08FC02CE3CA
:100AB00030E040E050E00E946628942F832F722F90
:100AC000662728EE33E040E050E00E948828790154
:100AD00009C0603727E172078105910540F7EE24D0
:100AE000EA94F12CCD80DE8061E08C2D0E94180DFF
:100AF000FFEFEF16F10409F441C0F601FF27E45DB2
:100B0000FC4FE491E330E1F058F4E23099F584B51C
:100B1000806284BD27B530E058E4C52ED12C3DC09D
:100B2000E430D9F0E83031F58091B00080628093F4
:100B3000B0002091B30030E084EBC82ED12C2DC042
:100B400080918000806880938000209186003091A1
:100B5000870048E8C42ED12C2CC080918000806290
:100B60008093800020918600309187009AE8C92EFA
:100B7000D12C1FC0E7FC02C060E001C061E08C2DF9
:100B80000E94E80C19A308A3DF91CF911F910F9148
:100B9000FF90EF90DF90CF900895D7010E94AD288D
:100BA0002FEF30E040E050E00E946628F6012083FD
:100BB000E9CFD7010E94AD282FEF30E040E050E0B0
:100BC0000E946628F60131832083DCCF60E375E75D
:100BD00080E090E06CCFFC0180917302811112C023
:100BE000258536852530310581F083899489A5894D
:100BF000B689892B8A2B8B2B39F42385348581E0A8
:100C0000232B19F480E0089581E008950F931F933A
:100C1000CF93DF938C01EB0180910B0390910C0338
:100C2000892B49F480913D0390913E03892B19F45F
:100C300061307105C1F0F801838594858C179D079B
:100C4000A9F06C2F83810E94E80CF801D487C38738
:100C50000E94A50D609374027093750280937602D2
:100C60009093770203C00E948406E5CFDF91CF9175
:100C70001F910F91089560E070E080E093E00E9482
:100C8000040560E070E082E393E00E94040560E008
:100C900070E080E093E00E94060660E070E082E38E
:100CA00093E00E940606A895FECFC82F81E00E941F
:100CB000FF1E0E94F01E66E071E082E192E00E9459
:100CC000152F82E192E00E94B11E61E080E00E9457
:100CD000B31E6FEF70E082E192E00E94152F82E177
:100CE00092E00E94B11ECC2319F06BEF70E002C0BD
:100CF00065EF70E082E192E00E94152F82E192E0C0
:100D00000E94B11E0E943B06CF92DF92EF92FF92AB
:100D10000F931F93CF93DF9310927802C2E3D0E03A
:100D20000BEF1CE761E083E00E94E80CC80101972B
:100D3000F1F760E083E00E94E80CC8010197F1F749
:100D400080917802811103C0A895219759F780916D
:100D500078028823B9F00E94A50D6B017C0124E67E
:100D6000C20ED11CE11CF11C82E00E94BF0C019755
:100D700059F4A8950E94A50DC616D706E806F906EF
:100D800098F781E00E94550680E991E00E94E90110
:100D900010927802DF91CF911F910F91FF90EF9009
:100DA000DF90CF9008950F931F93CF93DF93EC01C3
:100DB000CE01837099278130910549F0029751F057
:100DC000CC7FCE0181600E94D306C260F1CF01E4E6
:100DD00010E002C002E418E061E0812F0E94B31E1F
:100DE000802F0E948E1F8AE30E948E1F9E0128730F
:100DF000332720313105B1F048F42115310579F060
:100E000028303105E9F469EE70E00EC02831310573
:100E1000A1F020323105A1F467ED70E005C06FEE5E
:100E200070E002C063EE70E082E192E00E94152F54
:100E300082E192E00E94B11E38C06DED70E0F4CF07
:100E400081E00E94FF1E62ED70E082E192E00E946C
:100E5000152F82E192E00E94B11E9E01207C31702C
:100E600020383105B9F038F42115310589F02034E6
:100E70003105C1F015C0211581E0380769F0203433
:100E800081E0380759F0203C310551F484E50BC06E
:100E900086E409C087E407C082E505C085E403C095
:100EA0008FE301C08FE40E948E1F81E791E00E94D2
:100EB000B11EC2FF0CC061E086E0810F0E94B31E2C
:100EC0008AE2DF91CF911F910F910C948E1FDF91D9
:100ED000CF911F910F910895CF92DF92EF92FF92E1
:100EE0000F931F93CF93DF938C010E94A50D6B018D
:100EF0007C01E801C370DD2710920E0210920F02F0
:100F00001092100210921102C230D10520F02297E7
:100F100009F047C024C061E070E080E093E00E94E7
:100F2000040580910D0390910E03059771F085E003
:100F300090E090930E0380930D03C0921703D0921C
:100F40001803E0921903F0921A03109213031092FF
:100F500014031092150310921603CD2B11F561E0C6
:100F600070E082E393E00E94040580913F0390913A
:100F70004003059771F085E090E0909340038093E3
:100F80003F03C0924903D0924A03E0924B03F09290
:100F90004C0310924503109246031092470310929F
:100FA0004803C801DF91CF911F910F91FF90EF90FF
:100FB000DF90CF900C94D306CF92DF92EF92FF9206
:100FC000CF93DF9380916903882309F462C00E9464
:100FD000700E6B017C010E945911EC016091A60317
:100FE0007091A7038091A8039091A9030E945911C1
:100FF000C817D90731F0C701B6010E9459110E94E4
:101000007B1DC701B6010E945911EC016091A60336
:101010007091A7038091A8039091A9030E94591190
:10102000C817D90731F0C701B6010E9459110E94B3
:101030007B1D4091AA035091AB036091AC0370916A
:10104000AD038091A6039091A703A091A803B0914E
:10105000A903481759076A077B0741F184179507C9
:10106000A607B70758F4C816D906EA06FB06F0F03B
:10107000C416D506E606F706C8F413C0C416D5068E
:10108000E606F70670F0C816D906EA06FB0648F42D
:101090000DC0DF91CF91FF90EF90DF90CF900C9437
:1010A000700EA0919803B091990304C0A091A4037D
:1010B000B091A5032CE330E00E94BC286C0D7D1D8F
:1010C0008E1D9F1DDF91CF91FF90EF90DF90CF900D
:1010D0000895CF92DF92EF92FF920F931F93CF93D9
:1010E000DF93CDB7DEB72E970FB6F894DEBF0FBEF5
:1010F000CDBFF82E0E9402028C01FF2009F456C0D9
:101100000E94F01E62E671E082E192E00E94152FDB
:1011100082E192E00E94B11E0E94DC070E9435111C
:101120002091EB02222331F0822F90E02D3020F02D
:101130000C9702C08CE090E080938F010E94DC0746
:101140000E9435118091EB0290E021E00C970CF4A5
:1011500020E020938B010E94DC070E9435118091D2
:10116000EA0280938E010E94DC070E943511809173
:10117000ED02809389010E94DC070E943511809165
:10118000EE02809388010E94DC070E9459119C01A5
:101190002A5D37402B30310510F08AED97E09093AF
:1011A000870180938601109291015DC08130910585
:1011B00009F051C090919101923001F128F49923E6
:1011C00049F0913081F09BC1943061F110F195307C
:1011D00091F195C180918F018F5F8D3008F081E092
:1011E00080938F018CC180918E018F5F8C3318F4B6
:1011F00080938E0184C110928E0181C180918B01F8
:101200008F5F823018F480938B0179C110928B012B
:1012100076C1809189018F5F803208F081E08093F0
:1012200089016DC1809188018F5F8D3008F081E068
:101230008093880164C18091860190918701019615
:10124000853E27E0920710F08AED97E090938701A2
:101250008093860154C1029709F051C18091910198
:101260008F5F8093910180919101863008F445C190
:1012700090918B0180918F01911105C08C3051F4B8
:1012800010928F0107C0913029F48C3019F0845FDF
:1012900080938F0180918601825B8E878091880187
:1012A0008D87809189018C8780918F018A878091B9
:1012B0008E0189871886CE0108960E94FA0E6B016E
:1012C0007C0180916903882309F47FC0C701B601BE
:1012D0000E9459118C016091AE037091AF0380910F
:1012E000B0039091B1030E9459110817190731F00A
:1012F000C701B6010E9459110E947B1DC701B601AA
:101300000E9459118C016091AE037091AF038091DE
:10131000B0039091B1030E9459110817190731F0D9
:10132000C701B6010E9459110E947B1D4091AA037A
:101330005091AB036091AC037091AD038091A60313
:101340009091A703A091A803B091A903481759074A
:101350006A077B0709F4F3C14091B2035091B303CC
:101360006091B4037091B5038091AE039091AF0387
:10137000A091B003B091B10384179507A607B707F2
:1013800068F4C816D906EA06FB0608F4D8C1C416E4
:10139000D506E606F70608F0D2C10BC0C416D5067E
:1013A000E606F70630F0C816D906EA06FB0608F48A
:1013B000C6C1A0919803B09199032CE330E00E943C
:1013C000BC28C61AD70AE80AF90AC701B6010E9462
:1013D000490EAE014F5F5F4FC701B6010E94641016
:1013E00088E60E94ED1D60E084EF92E00E94900C80
:1013F00060E884EF92E00E94900C8A811AE0612FED
:101400000E943228692F30E1839F600D112484EF00
:1014100092E00E94900C8B81612F0E943228692FEC
:1014200020E1829F600D112484EF92E00E94900CD5
:101430008C81612F0E943228692F30E1839F600DDB
:10144000112484EF92E00E94900C8D81612F0E9404
:101450003228692F20E1829F600D112484EF92E0F1
:101460000E94900C8E81612F0E943228692F30E1FA
:10147000839F600D112484EF92E00E94900C8F8175
:101480008E51612F0E943228692F20E1829F600DCA
:10149000112484EF92E00E94900C0E94F71D882393
:1014A00019F0109292011EC001E00093920188E6AB
:1014B0000E94ED1D60E084EF92E00E94900C898113
:1014C000612F0E943228692F30E1839F600D112423
:1014D00084EF92E00E94900C0E94F71D8111E1CFF1
:1014E0000093920186EE94E19093050180930401AC
:1014F000109279020E94F01E27C102E010E00E94C3
:10150000A50D28EE33E040E050E00E94662821E07F
:10151000643F71408105910508F420E0012B29F416
:1015200090918A01921709F40FC120938A0161E01A
:1015300080E00E94B31E10918F016EE571E082E1A0
:1015400092E00E94152F1F921F9382E192E09F93D9
:101550008F938E010F5F1F4F1F930F930E94742C68
:101560000F900F900F900F900F900F90809191011E
:1015700081110DC080918A01882349F06BE571E0EB
:1015800082E192E00E94152F82E192E001C0C80141
:101590000E94B11E8AE30E948E1FF0908E0166E5C4
:1015A00071E082E192E00E94152F1F92FF9282E18A
:1015B00092E09F938F931F930F930E94742C0F9030
:1015C0000F900F900F900F900F90809191018130AC
:1015D00069F480918A01882349F063E571E082E132
:1015E00092E00E94152F82E192E001C0C8010E94A2
:1015F000B11E80919101823031F480918A0188235B
:1016000011F080E207C080918B01811102C081E45A
:1016100001C080E50E948E1FF09089016EE471E0A8
:1016200082E192E00E94152F1F92FF9282E192E0E8
:101630009F938F931F930F930E94742C0F900F9082
:101640000F900F900F900F9080919101833069F46B
:1016500080918A01882349F06AE471E082E192E096
:101660000E94152F82E192E001C0C8010E94B11EC4
:101670008DE20E948E1F80919101843069F48091E7
:101680008A01882349F066E471E082E192E00E94D9
:10169000152F82E192E019C02091880183E0289FF4
:1016A00090011124ACE7B1E080E090E0FC01E20F92
:1016B000F31FE95EFE4FE491ED93019683309105AF
:1016C000A9F710927F018CE791E00E94B11E8DE294
:1016D0000E948E1F809186019091870164E670E0E0
:1016E0000E943E28F82EE92E62E471E082E192E049
:1016F0000E94152FEF92FF9282E192E09F938F93C9
:101700001F930F930E94742C0F900F900F900F90C7
:101710000F900F9080919101853069F480918A013A
:10172000882349F06FE371E082E192E00E94152F77
:1017300082E192E001C0C8010E94B11E05C0A091E3
:10174000A403B091A50339CE2E960FB6F894DEBF50
:101750000FBECDBFDF91CF911F910F91FF90EF9002
:10176000DF90CF900895833081F028F4813099F094
:101770008230A1F008958730A9F08830B9F0843024
:10178000D1F4809180008F7D03C0809180008F779D
:1017900080938000089584B58F7702C084B58F7DD3
:1017A00084BD08958091B0008F7703C08091B00010
:1017B0008F7D8093B00008953FB7F8948091E90140
:1017C0009091EA01A091EB01B091EC0126B5A89BA4
:1017D00005C02F3F19F00196A11DB11D3FBFBA2FC3
:1017E000A92F982F8827820F911DA11DB11DBC0123
:1017F000CD0142E0660F771F881F991F4A95D1F7E8
:10180000089508958091F20290E02091F302821BE6
:101810009109089585ED8093BC008091BC0084FD02
:10182000FCCF1092C70208954091B501262F30E0F9
:10183000240F311D21323105DCF42091C702243000
:10184000C9F4FC0180E090E0861758F43091B501AE
:101850002191DC01AD56BE4FA30FB11D2C93019613
:10186000F3CF8091B501680F6093B50180E00895D2
:1018700081E0089582E008950895E091F302809157
:10188000F202E81730F4F0E0EF57FD4F808190E06E
:1018900008958FEF9FEF08959091F3028091F202E7
:1018A000981750F4E92FF0E0EF57FD4F208130E01A
:1018B0009F5F9093F30202C02FEF3FEFC90108959D
:1018C000CF92DF92EF92FF920F931F93CF93DF930C
:1018D0007C01262F972F8A018091E802882391F0BE
:1018E000C62FD72F6E01C40ED51ECC15DD0571F0A5
:1018F0006991D701ED91FC910190F081E02DC70134
:101900000995F3CF642F822F0E94140CC801DF9138
:10191000CF911F910F91FF90EF90DF90CF9008959E
:10192000CF93DF931F92CDB7DEB769832091E80292
:101930002223D1F02091F002203240F021E030E06B
:10194000FC013383228380E090E015C08091F10296
:10195000E82FF0E0E853FD4F998190838F5F8093EB
:10196000F1028093F00205C061E0CE0101960E9471
:10197000140C81E090E00F90DF91CF910895CF9308
:10198000DF93282F30E0F901E45DFC4F8491F901E9
:10199000ED52FE4FD491F901E154FE4FC491CC2396
:1019A00091F081110E94B30BEC2FF0E0EE0FFF1FBE
:1019B000EB54FE4FA591B491EC91ED2381E090E0C2
:1019C00021F480E002C080E090E0DF91CF910895A3
:1019D0001F93CF93DF93282F30E0F901E45DFC4F94
:1019E0008491F901ED52FE4FD491F901E154FE4F7B
:1019F000C491CC23C9F0162F81110E94B30BEC2F98
:101A0000F0E0EE0FFF1FE555FE4FA591B4918FB7A3
:101A1000F894111105C09C91ED2FE095E92302C0C7
:101A2000EC91ED2BEC938FBFDF91CF911F91089537
:101A3000CF93DF9390E0FC01ED52FE4F2491FC0127
:101A4000E154FE4F8491882361F190E0880F991F43
:101A5000FC01EF55FE4FC591D491FC01E555FE4FB9
:101A6000A591B491611109C09FB7F8948881209520
:101A700082238883EC912E230BC0623061F49FB7E0
:101A8000F8943881822F809583238883EC912E2BC4
:101A90002C939FBF06C08FB7F894E8812E2B288324
:101AA0008FBFDF91CF9108958E3008F08E508770F0
:101AB000806480937C0080917A00806480937A00B7
:101AC00080917A0086FDFCCF80917800209179008A
:101AD00090E0922B08958F929F92AF92BF92CF92F7
:101AE000DF92EF92FF926B017C010E94DC0B4B01B5
:101AF0005C01C114D104E104F104F1F00E94DC0B9B
:101B0000DC01CB0188199909AA09BB09883E9340D9
:101B1000A105B10570F321E0C21AD108E108F1086E
:101B200088EE880E83E0981EA11CB11CC114D1045C
:101B3000E104F10419F7DDCFFF90EF90DF90CF9033
:101B4000BF90AF909F908F9008952FB7F8946091B9
:101B5000E5017091E6018091E7019091E8012FBFC6
:101B600008951F920F920FB60F9211242F933F9357
:101B70008F939F93AF93BF938091E5019091E6017E
:101B8000A091E701B091E8013091E40123E0230F37
:101B90002D3720F40196A11DB11D05C026E8230FA5
:101BA0000296A11DB11D2093E4018093E50190935D
:101BB000E601A093E701B093E8018091E9019091DB
:101BC000EA01A091EB01B091EC010196A11DB11DBC
:101BD0008093E9019093EA01A093EB01B093EC01AB
:101BE000BF91AF919F918F913F912F910F900FBE19
:101BF0000F901F9018951F920F920FB60F921124FD
:101C00002F933F934F935F936F937F938F939F9304
:101C1000AF93BF93EF93FF93E0910201F091030123
:101C20000995FF91EF91BF91AF919F918F917F9116
:101C30006F915F914F913F912F910F900FBE0F9039
:101C40001F9018951F920F920FB60F9211242F9389
:101C50003F934F935F936F937F938F939F93AF9334
:101C6000BF93EF93FF93E0910001F091010109957B
:101C7000FF91EF91BF91AF919F918F917F916F9164
:101C80005F914F913F912F910F900FBE0F901F903A
:101C90001895609300027093010280930202909362
:101CA0000302DC01CB01845D9E4FAF4FBF4F809399
:101CB000FC019093FD01A093FE01B093FF0182E02F
:101CC00090E09093E3018093E2010E94A50D609360
:101CD000DE017093DF018093E0019093E1010895AC
:101CE000CF92DF92EF92FF920F931F930E94A50D68
:101CF000C090DE01D090DF01E090E001F090E101C2
:101D00008B019C010C191D092E093F0980910002CD
:101D100090910102A0910202B0910302083E13408B
:101D200021053105D0F00196A11DB11D809300025F
:101D300090930102A0930202B0930302B701A6019F
:101D400048515C4F6F4F7F4F4093DE015093DF014E
:101D50006093E0017093E101C9CF4091FC01509183
:101D6000FD016091FE017091FF0184179507A607A0
:101D7000B70788F1E0910402F0910502309759F11C
:101D80000995611571058105910519F00E94490EAB
:101D900022C08091000290910102A0910202B091B4
:101DA0000302845D9E4FAF4FBF4F8093FC01909321
:101DB000FD01A093FE01B093FF0181E090E020912E
:101DC000E2013091E301232B11F480E090E0909345
:101DD000E3018093E2016091000270910102809121
:101DE0000202909103021F910F91FF90EF90DF90FC
:101DF000CF9008956F927F928F929F92AF92BF92F1
:101E0000CF92DF92EF92FF920F931F93CF93DF93C6
:101E1000EC01EE81AE2FB0E020E833E341EE51E07B
:101E20000E94C3284B015C0122EB37E0FD0104E670
:101E300010E080E9E82EFF24F394C901825B97400B
:101E40008E179F07DCF4C90183709927892B99F4B9
:101E5000C901B8010E945228892B31F4C901B70188
:101E60000E945228892B39F480E8880E81E5981E5B
:101E700081E0A81EB11C2F5F3F4FDFCF6D80712C1A
:101E8000EE54F84FCF0164E670E00E9452287C01C6
:101E9000CF0160E971E00E9452286C0101E010E07E
:101EA000E370FF27061517052CF50230110581F4A4
:101EB000309771F4E114F10419F4C114D10441F420
:101EC00080E8880E8BE3981E86E2A81EB11C0FC026
:101ED000D801AB5FBE4FAC91B0E020E831E541E006
:101EE00050E00E94C328860E971EA81EB91E0F5FE1
:101EF0001F4FD8CF49812A8130E0A0E1BEE00E9487
:101F0000AD286B017C01242F30E0ACE3B0E00E94EF
:101F1000AD28DC01CB018C0D9D1DAE1DBF1D2881A0
:101F20006C017D01C20ED11CE11CF11CAC81B0E042
:101F3000119720E831E541E050E00E94CE28DC0115
:101F4000CB018C0D9D1DAE1DBF1DBC01CD01680DCB
:101F5000791D8A1D9B1DDF91CF911F910F91FF90DD
:101F6000EF90DF90CF90BF90AF909F908F907F9039
:101F70006F9008951F93CF93DF93CDB7DEB7279768
:101F80000FB6F894DEBF0FBECDBF88E60E94ED1DF0
:101F900060E084EF92E00E94900C0E94F71D88237D
:101FA00019F01092920183C081E08093920167E062
:101FB00070E088E690E00E94541E8091F20290E06A
:101FC0002091F302821B910907970CF470C084EFF3
:101FD00092E00E944C0C182F8695869586958E70FF
:101FE000982F990F990F890F912F9F70890F8983CF
:101FF00084EF92E00E944C0C282F22952F70982F8E
:102000009F708AE0289F900D11249A8384EF92E0BC
:102010000E944C0C982F282F2695269526952670E1
:10202000822F880F880F280F9F70920F9B8384EF59
:1020300092E00E944C0C282F22952F70982F9F70B1
:102040008AE0289F900D11249C8384EF92E00E94E7
:102050004C0C282F22952F70982F9F708AE0289F74
:10206000900D11249D8384EF92E00E944C0C282F48
:1020700022952F70982F9F708AE0289F900D112431
:102080009E8384EF92E00E944C0C982F9F70925E8A
:10209000282F22952F708AE0289F900D11249F836E
:1020A00017FD05C0CE0101960E94FA0E03C060E044
:1020B00070E0CB0127960FB6F894DEBF0FBECDBF00
:1020C000DF91CF911F9108956F927F928F929F928F
:1020D000AF92BF92CF92DF92EF92FF920F931F9336
:1020E000CF93DF93EA012CE3C22ED12CE12CF12C0B
:1020F000A70196010E9466286883CA01B901A70159
:1021000096010E9466286983CA01B90128E130E07E
:1021100040E050E00E94662869017A016A83CA01A2
:10212000B9016C5F7F4F8F4F9F4F27E030E040E059
:1021300050E00E9466286F5F6B83812C912C5401C4
:1021400040E034E6632E712C00E911E0242F30E0EA
:102150002E54384FF901E370FF27309789F4C901F5
:10216000B3010E945228892B31F4C901B8010E94A1
:102170005228892B29F48EE691E0A0E0B0E004C05B
:102180008DE691E0A0E0B0E0880E991EAA1EBB1E6D
:10219000D501C401AA27BB27C816D906EA06FB0643
:1021A00010F04F5FD3CF4E83309799F4C90164E6A6
:1021B00070E00E945228892B39F4C90160E971E06E
:1021C0000E945228892B29F48EE691E0A0E0B0E02D
:1021D00004C08DE691E0A0E0B0E0881A990AAA0A4E
:1021E000BB0AC818D908EA08FB08C90164E670E010
:1021F0000E9452288C01C90160E971E00E945228B6
:10220000A6E0B1E020E0213041F4309751F401150F
:10221000110529F4009729F402C04C9103C04DE147
:1022200001C04CE150E060E070E0C416D506E6065F
:10223000F70640F0C41AD50AE60AF70A2F5F11968E
:102240002C3009F72F5F2D83C394CC82DF91CF917F
:102250001F910F91FF90EF90DF90CF90BF90AF90C4
:102260009F908F907F906F900895CF92DF92EF9222
:10227000FF92C090DA01D090DB01E090DC01F09099
:10228000DD016C157D058E059F0571F06B017C01EC
:1022900049EE52E00E946410C092DA01D092DB0154
:1022A000E092DC01F092DD01FF90EF90DF90CF90A3
:1022B00008950E9435118091EF0290E08E54984F5E
:1022C0000895CF92DF92EF92FF92CF936B017C0142
:1022D0009B01AC016EEF7FEF81E090E00E9422282D
:1022E0009B01AC0160E074E284EF90E00E946628FC
:1022F000C0E0EC2FF0E0EE0FFF1FEB59FE4F8081A6
:102300009181CF5F82179307A0F3A7019601220F57
:10231000331F441F551FEC2FF0E0EE0FFF1FEB594A
:10232000FE4FA081B1810E94C3289B01AC0160E0F7
:1023300074E284EF90E00E94662830938700209337
:10234000860080918100C770887FC82BC093810070
:1023500081E0CF91FF90EF90DF90CF900895682FAC
:1023600084EF92E00C94900CCF93DF931F92CDB743
:10237000DEB7FC018185806269830E94ED1D89E0E2
:102380000E94AF116981862F0E94AF110E94F71D34
:102390008111FCCF0F90DF91CF910895CF93DF9300
:1023A0001F92CDB7DEB7FC018185806269830E94F0
:1023B000ED1D83E10E94AF116981862F0E94AF114C
:1023C0000E94F71D8111FCCF0F90DF91CF910895EE
:1023D000FF920F931F93CF93DF938C01C62FF42EA0
:1023E000FC0186858130B1F56585C4FD6061C5FD60
:1023F0006860C6FD6460C7FD6260D62FFF2011F0E3
:10240000D06A01C0D0626D2FC8010E94CE116D2F1D
:102410006F7DC8010E94CE11F8016585C0FD606125
:10242000C1FD6860C2FD6460C3FD6260C62FFF200D
:1024300011F0C06A01C0C0626C2FC8010E94CE11A9
:102440006C2F6F7DC801DF91CF911F910F91FF908D
:102450000C94CE11607F70E075956795442311F060
:10246000666001C06460F801858183FD02C0D0E030
:1024700001C0D0E8D62B6D2FC8010E94B4116D2F7A
:102480006B7FC8010E94B411CF70CC0FCC0FCC0F62
:10249000FF2011F0C66001C0C460F801858183FD92
:1024A00002C060E001C060E8C62B6C2FC8010E942A
:1024B000B4116C2F6B7FC801DF91CF911F910F91E9
:1024C000FF900C94B411FC012385222319F041E004
:1024D0000E94E81181E090E008951F920F920FB6DC
:1024E0000F9211242F933F934F935F936F937F939A
:1024F0008F939F93AF93BF93EF93FF938091B90016
:10250000887F803609F49CC068F5883209F45BC086
:1025100090F4803109F454C038F4882309F4F6C0EB
:10252000883009F44DC0F6C0883109F44CC08032BF
:1025300009F45DC0EFC0803409F468C048F480330A
:1025400009F455C0883309F0E5C08093C502D8C0AE
:10255000803509F44FC0883509F45DC0883409F02E
:10256000D9C0D6C0883909F4C7C0A8F4883709F49F
:1025700067C038F4883609F463C0803709F460C056
:10258000C9C0883809F4B8C0803909F45FC0803800
:1025900009F0C0C05BC0803B09F486C038F4803AC3
:1025A00009F466C0883A09F47FC0B4C0803C09F4DD
:1025B000A7C0883C09F4A4C0883B09F48AC0AAC01B
:1025C0008091A20210C09091C4028091C30298171A
:1025D00070F5E091C40281E08E0F8093C402F0E0B8
:1025E000ED55FD4F80818093BB0085EC86C08093C4
:1025F000C5028EC0E091C40281E08E0F8093C402B8
:102600008091BB00F0E0ED55FD4F80839091C402B6
:102610008091C3026EC0E091C40281E08E0F80936E
:10262000C4028091BB00F0E0ED55FD4F80838091A6
:10263000C60281116DC081E08093A10284EA61C06D
:1026400083E08093C7021092D901CFCF8091D90146
:10265000803208F051C0E091D90181E08E0F809363
:10266000D9018091BB00F0E0E754FE4F8083BDCFDD
:1026700085EC8093BC001092C7028091D901803212
:1026800030F4E091D901F0E0E754FE4F1082609100
:10269000D90170E0E091B701F091B80189EB91E0C8
:1026A00009951092D90136C084E08093C702109238
:1026B000B6011092B501E091B301F091B401099512
:1026C0008091B501811105C081E08093B501109220
:1026D0009301E091B60181E08E0F8093B601F0E0A6
:1026E000ED56FE4F80818093BB009091B6018091A2
:1026F000B501981708F479CF85E88093BC000AC02B
:1027000085EC8093BC001092C70204C01092C502F1
:102710000E940A0CFF91EF91BF91AF919F918F9111
:102720007F916F915F914F913F912F910F900FBECD
:102730000F901F9018951092C70281E08093C602F7
:102740001092A10261E082E10E94E80C61E083E165
:102750000E94E80CE9EBF0E080818E7F808380812D
:102760008D7F808388E48093B80085E48093BC00EB
:102770000895CF93DF93EC0161E070E00E940405BF
:1027800064E070E089819A810E94040580E79EE000
:10279000092E000CAA0BBB0B80930E0290930F0224
:1027A000A0931002B0931102888190E02F8D211127
:1027B00003C028E130E002C020E230E0822B932BFE
:1027C0000E94D306E981FA818081886090E0DF91E0
:1027D000CF910C94D306CF92DF92EF92FF920F939A
:1027E0001F93CF93DF93CDB7DEB761970FB6F89401
:1027F000DEBF0FBECDBF182F0E9402029C01112325
:1028000029F00E94F01E1092ED013AC09091ED0166
:1028100090FF05C0ACE7B3E0EEE7F3E004C0ABE740
:10282000B3E0EDE7F3E02130310521F0223031054E
:10283000A9F0BDC0923018F0943010F507C08C910B
:102840008F5F86300CF08BEF8C931AC080818150A3
:10285000863F14F0808314C0108212C09F5F909353
:10286000ED01943068F084E693E00E94601F86EEEC
:1028700094E190930501809304011092790297C02E
:102880008091ED0180FF0BC005E711E04CE7C42EFD
:1028900043E0D42E5EE7E52E53E0F52E0AC003E7B1
:1028A00011E02BE7C22E23E0D22E3DE7E32E33E0EA
:1028B000F32E823090F1843008F079C00E94F01E2F
:1028C00065EF71E082E192E00E94152F82E192E0D3
:1028D0000E94B11E61E080E00E94B31EF701F0800B
:1028E000CF2C0F2C000CDD0867EE71E082E192E046
:1028F0000E94152FDF92FF921F930F9382E192E0C7
:102900009F938F931F9281E18F938E010F5F1F4FD3
:102910001F930F930E94442C42C00E94F01E62E15C
:1029200072E082E192E00E94152F82E192E00E9423
:10293000B11E61E080E00E94B31EF6012081822F6B
:10294000022E000C990B97FF03C091958195910978
:10295000D82EC92E27FD05C099E7E92E91E0F92E62
:1029600004C087E7E82E81E0F82E62E072E082E1A1
:1029700092E00E94152FCF92DF92FF92EF921F9369
:102980000F9382E192E09F938F931F9281E18F9347
:102990008E010F5F1F4F1F930F930E94442CC8019D
:1029A0000E94B11E0FB6F894DEBF0FBECDBF619678
:1029B0000FB6F894DEBF0FBECDBFDF91CF911F9150
:1029C0000F91FF90EF90DF90CF900895CF93C82F95
:1029D0000E940202CC2361F083E00E94FF1E0E944D
:1029E000F01E87EE93E09093F5018093F4011FC0F1
:1029F000009709F443C281309105B1F48091F2014E
:102A00009091F30101969093F3018093F20120914C
:102A1000F0013091F1012817390708F0DFC010925A
:102A2000F3011092F201DAC0029709F0D7C0E091E9
:102A3000F401F091F501E730F10508F066C0E05CC3
:102A4000FF4F0C94A7288091F201809366030CC07D
:102A5000E091F201F091F301E65DFE4F808190E09C
:102A6000909368038093670384E693E00E94601F5D
:102A70004CC08091F2019091F301892B09F045C07F
:102A800089E698E0909305018093040181E0CF915D
:102A90000C94690881E02091F2013091F301232B1D
:102AA00009F080E080936903DFCF8091F20190917B
:102AB000F301892B51F58DE992E090930501809304
:102AC000040181E0CF910C949D028091F2019091DC
:102AD000F301892BD1F48BEE93E190930501809360
:102AE000040181E0CF910C94EB138091F20190915D
:102AF000F301892B19F410927902C0C187EE93E09B
:102B00009093F5018093F401B9C18091F401909103
:102B1000F50101968730910528F49093F501809393
:102B2000F40104C01092F5011092F401E091F40157
:102B3000F091F501E730F10508F048C0E95BFF4F7F
:102B40000C94A7288091660390E09093F301809302
:102B5000F20136C06091670370916803EAE2F1E028
:102B600050E040E080E090E0219130E06217730790
:102B700011F4582F492F01968B309105A9F75093E6
:102B8000F2014093F3018AE090E01CC081E090E004
:102B90009093F1018093F00190916903892790E06F
:102BA0009093F3018093F20111C081E090E0909343
:102BB000F3018093F20106C01092F3011092F2012A
:102BC00081E090E09093F1018093F0018091F20117
:102BD0009091F3019093EF018093EE010E94F01E1B
:102BE000E091F401F091F501E730F10508F046C1FC
:102BF000E25BFF4F0C94A72863EA72E082E192E067
:102C00000E94152F82E192E00E94B11E61E080E0F7
:102C10000E94B31E2091F2013091F3018091EE01E8
:102C20009091EF012817390711F080E201C08BE283
:102C30000E948E1F8091F2019091F301009731F074
:102C4000019709F01BC161E972E00FC16CE972E004
:102C50000CC162E872E082E192E00E94152F82E1ED
:102C600092E00E94B11E61E080E00E94B31E2091BC
:102C7000F2013091F3018091EE019091EF0128175C
:102C8000390711F080E201C08BE20E948E1FE091B3
:102C9000F201F091F301E65DFE4F608170E080E0AB
:102CA00090E04AE00E94991F6CE772E0DEC061E7A5
:102CB00072E082E192E00E94152F82E192E00E9490
:102CC000B11E61E080E00E94B31E2091F2013091BC
:102CD000F3018091EE019091EF012817390711F06F
:102CE00080E201C08BE20E948E1F8091F2019091E0
:102CF000F301009731F0019709F0C0C06AE672E075
:102D0000B4C06DE672E0B1C06EE572E082E192E0BF
:102D10000E94152F82E192E00E94B11E61E080E0E6
:102D20000E94B31E2091F2013091F3018091EE01D7
:102D30009091EF012817390711F080E201C08BE272
:102D40000E948E1F8091F2019091F301009731F063
:102D5000019709F093C067E572E087C06AE572E009
:102D600084C068E472E082E192E00E94152F82E163
:102D700092E00E94B11E61E080E00E94B31E2091AB
:102D8000F2013091F3018091EE019091EF0128174B
:102D9000390711F080E201C08BE20E948E1F809102
:102DA000F2019091F301009731F0019709F066C0AC
:102DB00061E472E05AC064E472E057C064E372E018
:102DC00082E192E00E94152F82E192E00E94B11E02
:102DD00061E080E00E94B31E2091F2013091F30186
:102DE0008091EE019091EF012817390711F080E2F0
:102DF00001C08BE20E948E1F8091F2019091F3013D
:102E0000009729F00197D1F56DE272E02EC060E3E2
:102E100072E02BC061E272E082E192E00E94152F25
:102E200082E192E00E94B11E61E080E00E94B31E48
:102E30002091F2013091F3018091EE019091EF0128
:102E40002817390711F080E201C08BE20E948E1F23
:102E50008091F2019091F301009729F0019771F4AC
:102E60006AE172E002C06DE172E082E192E00E94EC
:102E7000152F82E192E0CF910C94B11ECF9108956D
:102E80000F931F93CF93DF93EC018B899C89AD89BE
:102E9000BE89892B8A2B8B2B89F00E94A50D0B896B
:102EA0001C892D893E89DC01CB01801B910BA20B73
:102EB000B30B85399141A105B105D8F48F89988D5F
:102EC000A98DBA8D892B8A2B8B2B09F448C00E94BF
:102ED000A50D0F89188D298D3A8DDC01CB01801B42
:102EE000910BA20BB30B893B9B40A105B10580F46C
:102EF00036C01B8A1C8A1D8A1E8A8881806190E0E8
:102F00000E94D30661E070E0CE010E940606D6CF93
:102F10001F8A188E198E1A8E60E070E0CE010E9412
:102F2000060680917302882329F08881886090E0EA
:102F30000E94D30689819A810E94EB05E981FA817A
:102F4000811104C085859685029749F464E070E09C
:102F5000CF01DF91CF911F910F910C940405DF9168
:102F6000CF911F910F9108952F923F924F925F92B0
:102F70006F927F928F929F92AF92BF92CF92DF9289
:102F8000EF92FF920F931F93CF93DF93CDB7DEB7EE
:102F90002F970FB6F894DEBF0FBECDBFFC0183851F
:102FA0009485019721F485859685059749F51786BF
:102FB000108A118A128A16A617A610AA11AA12A69A
:102FC00013A614A615A616A217A210A611A62F9630
:102FD0000FB6F894DEBF0FBECDBFDF91CF911F912A
:102FE0000F91FF90EF90DF90CF90BF90AF909F90A8
:102FF0008F907F906F905F904F903F902F900895AB
:103000008081813021F440907B034D8203C0509039
:103010007C035D82FF87EE870E94A50D6E837F8310
:1030200088879987212C312CCC24CA94DC2C7601FA
:1030300019821A821B821C8200E010E0812C912CE4
:1030400054010E94A50DAB01BC01DB01CA014E80F9
:103050005F806884798484199509A609B7098397E4
:10306000A105B10508F088C0AE85BF8519968C9181
:103070004C875D876A877B870E94540D2C01990FCE
:10308000660877084C855D856A857B85BFEFCB1622
:10309000DB06EB06FB0641F181E0E1E0CE16E2E063
:1030A000DE06E104F1040CF480E091E0F1E04F165B
:1030B000F2E05F06610471040CF490E08917A1F05E
:1030C000DB01CA01C980DA80EB80FC808C199D0984
:1030D000AE09BF090697A105B10530F00F5F1F4F7C
:1030E00049835A836B837C830130110508F441C006
:1030F0000330110520F00330110591F03AC0C301EF
:10310000B2017250810991099B01AC010E942228F1
:10311000860E971EA81EB91E2FEF221A320A29C04A
:10312000910140E050E0C501B4010E946628CA0147
:10313000B9010E94232A0E94EA2B0E94F4299B01D4
:10314000AC01AAE6B0E00E94C328693833E17307F6
:1031500081059105A8F04D81A4E64A026001112481
:103160000D2C000CEE08FF08C60ED71EE81EF91E37
:1031700009C07301620165CFC12CD12C760102C058
:103180006B017C010E94A50DAE85BF855B960D91FC
:103190001D912D913C915E972B013C01401A510AE3
:1031A000620A730A49EE441643E05406610471044E
:1031B00030F05B966D937D938D939C935E972091F9
:1031C000670330916803A8EEB3E00E94AD28EE8556
:1031D000FF8520A131A12330310529F021E030E025
:1031E00040E050E004C022E030E040E050E00E94C7
:1031F0006628DA01C90188519C4FAF4FBF4FEE8559
:10320000FF858C159D05AE05BF0508F045C0878577
:103210009089A189B289892B8A2B8B2B59F40E9422
:10322000A50DAE85BF851F966D937D938D939C9361
:10323000529736C00E94A50DEE85FF85078510893F
:1032400021893289DC01CB01801B910BA20BB30BCE
:10325000813A9F40A105B10518F1AE85BF858C91DB
:10326000886690E02F960FB6F894DEBF0FBECDBFF4
:10327000DF91CF911F910F91FF90EF90DF90CF9052
:10328000BF90AF909F908F907F906F905F904F9086
:103290003F902F900C946C071786108A118A128A1F
:1032A0000E94A50D0E94232A4B015C01C701B601B3
:1032B0000E94232A2B013C01AE85BF859E96CD90AE
:1032C000DD90ED90FC90D197C982DA82EB82FC828E
:1032D000A5019401C701B6010E94D6286B017C01AB
:1032E00020E030E0A9010E94FC2A181624F4F7FA25
:1032F000F094F7F8F094EE85FF8522A133A144A164
:1033000055A1C701B6010E9448290E94C2296B013C
:103310007C0129813A814B815C81C501B4010E9405
:10332000FC2A181694F5AE85BF859A962D913D918D
:103330004D915C919D97C701B6010E94772BA30127
:1033400092010E94D728EE85FF8562A773A784A704
:1033500095A726A137A140A551A5C701B6010E9496
:10336000772B20E030E040E85FE30E94D728AE856D
:10337000BF8596966D937D938D939C939997FD0150
:1033800086A697A6A0AAB1AA28C0A3019201C70148
:10339000B6010E94772B9B01AC01AE85BF859A9642
:1033A0006D917D918D919C919D970E94D728EE857E
:1033B000FF8562A773A784A795A7A701960166A1B9
:1033C00077A180A591A50E94D728AE85BF85969646
:1033D0006D937D938D939C939997EE85FF85808166
:1033E000880F880F880F61E088500E94B31EAE8559
:1033F000BF858C91805C0E948E1F8AE30E948E1F85
:10340000EE85FF85C6A0D7A0E0A4F1A420E030E0BF
:10341000A901C701B6010E94FC2A18165CF42DEB25
:1034200037E346E855E3C701B6010E94432987FF09
:103430000BC017C02DEB37E346E855EBC701B601CB
:103440000E94FC2A18166CF0A7019601AE85BF8574
:103450009A966D917D918D919C919D970E9448299E
:1034600003C060E070E0CB010E94F4296B017C0195
:103470002AE030E040E050E00E946628B8EECB162B
:10348000B3E0DB06E104F104B8F462EB72E082E140
:1034900092E02A873B874C875D870E94152FAAE020
:1034A000B0E02A853B854C855D850E94C3289F93AB
:1034B0008F937F936F9331C0CA01B90124E630E046
:1034C00040E050E00E946628CB016AE070E00E9474
:1034D000522821E030E0059714F420E030E05B0151
:1034E000A20EB31EC701B60128EE33E040E050E063
:1034F0000E9466288901FAE0AF16B10421F40F5F3B
:103500001F4FA12CB12C69EB72E082E192E00E9486
:10351000152FBF92AF921F930F9382E192E09F937A
:103520008F9386EF91E09F938F930E94742C0FB638
:10353000F894DEBF0FBECDBF86EF91E02F960FB699
:10354000F894DEBF0FBECDBFDF91CF911F910F91D9
:10355000FF90EF90DF90CF90BF90AF909F908F90B3
:103560007F906F905F904F903F902F900C94B11E82
:10357000EF92FF920F931F93CF93DF93EC018B0198
:10358000809173028111B3C18D859E85853091052F
:1035900009F4FEC16817790709F404C28091660333
:1035A000882321F0813009F49DC0FCC17E876D879E
:1035B0006530710540F46330710508F047C0613033
:1035C000710530F4EFC16530710509F480C1EAC1BD
:1035D00060E070E0CE010E9406060130110549F05E
:1035E00089819A810E94EB05811106C064E070E038
:1035F00005C061E070E002C063E070E0CE010E94AF
:103600000405888190E00130110519F028E030E0D0
:1036100002C020E030E0822B932B0E94D3061B8A4D
:103620001C8A1D8A1E8A89819A81FC0120A131A1F0
:103630002330310509F0B6C164E070E0DF91CF912D
:103640001F910F91FF90EF900C940405CE010E9402
:10365000EB058111A7C189819A810E94EB0588231E
:10366000E1F00E94A50D6B8B7C8B8D8B9E8B63E0B4
:1036700070E089819A810E94040563E070E0CE01C8
:103680000E9404058881886190E0DF91CF911F91AD
:103690000F91FF90EF900C94D30689819A81FC01E1
:1036A00020A131A12430310521F463E070E00E94B3
:1036B000040564E070E0CE010E9404051B8A1C8AA8
:1036C0001D8A1E8A8881806190E00E94D30661E095
:1036D00070E0CE01DF91CF911F910F91FF90EF909D
:1036E0000C940606E981FA81E584F684653071055B
:1036F00058F46330710508F0CAC06130710549F0B3
:103700006230710591F1F0C06530710509F4DFC0D8
:10371000EBC060E070E0CE010E94060661E070E060
:10372000CE010E94040510920E0210920F02109218
:10373000100210921102F2E0EF16F10469F464E055
:1037400070E089819A810E940405E981FA81808173
:10375000886090E00E94D306888190E00E94D306A2
:103760001F8EE981FA81178EBFC060E070E0CE0144
:103770000E9406068D859E850397029708F044C037
:1037800082E0E816F10491F5E981FA81878D8111D3
:103790000BC061E070E0CE010E94040564E070E0BF
:1037A00089819A810E940405E981FA81808190E0F3
:1037B000278D211103C028E030E002C020E230E074
:1037C000822B932B0E94D3068881806290E00E9416
:1037D000D30681E08F8F0E94A50D60930E02709337
:1037E0000F0280931002909311027EC0888188603E
:1037F00090E00E94D30610920E0210920F021092D7
:1038000010021092110270C0E1E0EE16F10491F482
:1038100064E070E0CE010E9404051F8EE981FA8108
:10382000178E10920E0210920F0210921002109238
:1038300011021BC0E894E1F88881EF28E1F490912F
:1038400072029813AFC09F8D911115C064E070E0B3
:10385000CE010E9404050E94A50D60930E02709394
:103860000F0280931002909311028881886090E08B
:103870000E94D30639C090E02F8D211103C028E1AA
:1038800030E002C020E230E0822B932BF1CFCE015A
:103890000E94EB05811128C088A199A1049721F00D
:1038A0008881886E90E018C010920E0210920F026C
:1038B00010921002109211028881806190E00E94A3
:1038C000D30661E070E0CE010E9406060DC088813B
:1038D000886290E080649160DF91CF911F910F9199
:1038E000FF90EF900C946C071E870D875BC06130D2
:1038F000710509F053C0888190E00E94D3061E87AD
:103900000D878F89988DA98DBA8D892B8A2B8B2B4A
:10391000A9F01F8A188E198E1A8E60E070E0CE0111
:103920000E94060689819A810E94EB05E981FA814D
:10393000811128C085859685029721F180917302B7
:10394000882381F10230110569F58D859E850197E7
:1039500029F48881809372021E870D872881822F27
:10396000886090E030916603313039F43091720212
:10397000321303C024E030E002C020E030E0822BAC
:10398000932B83CE64E070E0CF010E940405D6CF74
:103990006130710519F41E861D86B3CF0230110502
:1039A00009F4AFCFDF91CF911F910F91FF90EF906E
:1039B0000895CF92DF92EF92FF920F931F93CF93D0
:1039C000DF936C017A018B01C0E0D0E0CE15DF05FA
:1039D00089F0D8016D918D01D601ED91FC91019096
:1039E000F081E02DC6010995892B11F47E0102C0FA
:1039F0002196ECCFC701DF91CF911F910F91FF90DE
:103A0000EF90DF90CF9008950E943F2C8F929F926D
:103A1000AF92BF92CF92DF92EF92FF920F931F93DC
:103A2000CF93DF93CDB7DEB764970FB6F894DEBFC0
:103A30000FBECDBF5F87798BF42E411109C06F5F38
:103A40006D3040F02FEFC21AD20A21E061E003C0CE
:103A5000242F01C021E089898B831A82198281E099
:103A60008D836E838EE48C0D8F83CE0101962C8B1B
:103A70000E94FA0E4B015C010F8510E00E94351187
:103A80002C8930E02150310987E0829FF001839F2B
:103A9000F00D11248091EC029801281B3109C90115
:103AA000079667E070E00E945228DF01A80FB91F57
:103AB00020E831E541E050E00E94CE28680D791DF4
:103AC0008A1D9B1DF11004C060587A4389409109FA
:103AD00064960FB6F894DEBF0FBECDBFDF91CF91D5
:103AE0001F910F91FF90EF90DF90CF90BF90AF901C
:103AF0009F908F9008958F929F92AF92BF92CF9296
:103B0000DF92EF92FF920F931F93CF93DF936C019D
:103B1000E0908E03F0908F03009190031091910339
:103B20002091920330919303409194035091950317
:103B300060919603709197038091980390919903F7
:103B40000E94061DCEE8D3E068A379A38AA39BA3B5
:103B5000EAE9F3E0E080F18002811381248135817C
:103B60004681578160857185828593850E94061DF7
:103B70006B017C016CA37DA38EA39FA3AE89BF893B
:103B80002CE330E00E94BC2808A119A12AA13BA186
:103B900048015901861A970AA80AB90A888E998E8F
:103BA000AA8EBB8EAA85BB852CE330E00E94BC2880
:103BB000C61AD70AE80AF90ACC8EDD8EEE8EFF8E81
:103BC000DF91CF911F910F91FF90EF90DF90CF90F9
:103BD000BF90AF909F908F90089591E09093E802EE
:103BE0008093B6031092F1021092F0020895209192
:103BF000F0029091B603213208F04AC08091C702CA
:103C00008111FCCF32E03093C70231E03093C6021D
:103C10003FEF3093C5021092C4022093C302A8EC78
:103C2000B2E043EA52E0FA013E2F341B321718F497
:103C30003D913193F9CF1092A2022091A202990FE7
:103C4000922B9093A2029091A102913061F4109274
:103C5000A1029091A2029093BB009091BC0093FDB1
:103C6000F8CF95EC01C095EE9093BC009091C702FF
:103C70009230E1F39091C5029F3F79F08091C502A7
:103C8000803241F08091C502803331F084E005C07C
:103C900081E003C082E001C083E01092F102109243
:103CA000F0021092E80208959091C7029111FCCFA2
:103CB000613208F060E291E09093C7029093C602EF
:103CC0002FEF2093C5021092C402260F2093C30247
:103CD0009093A2029091A202880F892B8093A20256
:103CE0008091A102813061F41092A1028091A20220
:103CF0008093BB008091BC0083FDF8CF85EC01C0B0
:103D000085EE8093BC008091C7028130E1F3809101
:103D1000C402861710F46091C402A3EAB2E021E85D
:103D200032E0F9018E2F821B861718F48D91819352
:103D3000F9CF1092F3026093F202862F0895009754
:103D400069F0FC0101900020E9F73197AF01481BB1
:103D5000590BBC018FE793E00C94D91C80E090E0F4
:103D600008950C949F1ECF93DF93CDB7DEB72897AD
:103D70000FB6F894DEBF0FBECDBF20918A03222379
:103D800031F128E0E2E1F1E0DE01119601900D92BF
:103D90002A95E1F720918603261710F46FEF620F42
:103DA000FE013196E60FF11DE60FF11D9081682F9F
:103DB000690F606840E08FE793E028960FB6F894AB
:103DC000DEBF0FBECDBFDF91CF910C94E8112896D6
:103DD0000FB6F894DEBF0FBECDBFDF91CF9108952F
:103DE00080918A03882351F040E061E08FE793E0FF
:103DF0000E94E8118BE39FE10197F1F70895CF93BB
:103E0000DF9390918A03992309F457C09091890315
:103E1000992311F097E0892790918D039130C1F596
:103E200080FD03C020EC31E002C020E831E0309397
:103E30008C0320938B0381FF09C020918B03309169
:103E40008C032F7730938C0320938B0382FF09C060
:103E500080918B0390918C039E7F90938C03809331
:103E60008B03D0918B03C0918C0380918803806277
:103E70000E94ED1D82E10E94AF118D2F0E94AF11B3
:103E80008C2F0E94AF110E94F71D8111FCCF15C02D
:103E900090918403882311F0986001C0977F9093DC
:103EA000840380918403682F687083FD60E88FE746
:103EB00093E0DF91CF910C94B411DF91CF910895ED
:103EC000CF92DF92EF92FF920F931F93CF93DF93E6
:103ED0001F92CDB7DEB77C018C01C12CD12CF8012B
:103EE00061918F01C60169830E941C2F6981681747
:103EF00019F0C6010E94242FFFEFCF1ADF0A8BE1D1
:103F0000C816D10461F7C7010F90DF91CF911F91BF
:103F10000F91FF90EF90DF90CF900895E0917F0395
:103F2000F09180030190F081E02D682F8FE793E0FE
:103F300009948F929F92AF92BF920F931F93CF934A
:103F4000DF93CDB7DEB7A1970FB6F894DEBF0FBEF3
:103F5000CDBF19A2423008F44AE08E010F5D1F4F19
:103F6000842E912CA12CB12CA50194010E946628CD
:103F7000E62FB901CA0101501109EA3014F4E05DDD
:103F800001C0E95CD801EC93232B242B252B61F78E
:103F9000C8010E949F1EA1960FB6F894DEBF0FBE07
:103FA000CDBFDF91CF911F910F91BF90AF909F90A8
:103FB0008F900895CF92DF92EF92FF920F931F930D
:103FC000CF93E82F880FFF0BE45DFC4FE4918DEF5A
:103FD0008E0F823068F468EE73E080E090E0CF915D
:103FE0001F910F91FF90EF90DF90CF900C94611193
:103FF000E83091F5C0E00FE110E0C12C94E2D92E39
:1040000094EFE92EF12CCF5FEC2FF0E0EE0FFF1FC5
:10401000EB5AFE4F8081918180179107A0F38C01AC
:104020009C01A0EDB7E00E94AD289B01AC01C70147
:10403000B6010E9466282F3F31054105510509F060
:1040400010F72093B3008091B100C770887FC82B10
:10405000C093B10081E001C080E0CF911F910F912A
:10406000FF90EF90DF90CF900895CF93DF93CDB77F
:10407000DEB761970FB6F894DEBF0FBECDBF789460
:1040800084B5826084BD84B5816084BD85B582605D
:1040900085BD85B5816085BD80916E00816080930E
:1040A0006E00109281008091810082608093810077
:1040B0008091810081608093810080918000816087
:1040C000809380008091B10084608093B1008091E2
:1040D000B00081608093B00080917A00846080930A
:1040E0007A0080917A00826080937A0080917A00D1
:1040F000816080937A0080917A00806880937A0052
:104100001092C10014BE9EE088E10FB6F894A89505
:10411000809360000FBE90936000809180008C7F40
:104120008093800080918100877E806180938100F0
:1041300064EF71E080E090E00E9461118091B00036
:104140008C7F81608093B0008091B1008860809303
:10415000B10010E07EE3E72EF12C812CE4E29E2EEC
:10416000E4EFAE2EB12C1F5FE12FF0E0EE0FFF1F4A
:10417000EB5AFE4F808191818E159F05A0F37C0143
:104180009C01A8EEB3E00E94AD289B01AC01C501E3
:10419000B4010E9466282F3F31054105510509F001
:1041A00010F72093B3008091B1001770887F182B0F
:1041B0001093B10081E080938D0362E370E080E0B2
:1041C00090E00E946B0D1092F3021092F202109296
:1041D000F1021092F0020E949B1390918D03809146
:1041E00088038062913069F50E94ED1D80E00E9495
:1041F000AF118FE10E94AF110E94F71D882339F0A3
:1042000080918A03823019F410928A03EDC0809164
:10421000880380620E94ED1D8CE00E94AF118FE147
:104220000E94AF110E94F71D882321F080918A031C
:10423000823051F38091880380620E94ED1D81E0FD
:1042400032C00E94ED1D80E00E94AF118FEF0E94EE
:10425000AF1180E00E94AF1180E00E94AF1180E0BA
:104260000E94AF1180E00E94AF1180E00E94AF1168
:1042700080E00E94AF1180E00E94AF1180E00E94B8
:10428000AF1180E00E94AF110E94F71D882329F032
:1042900080918A03823009F4B7CF809188038062CD
:1042A0000E94ED1D80E00E94AF1180E00E94AF11DE
:1042B0000E94F71D882329F080918A03823009F437
:1042C000A3CF80918A03823019F481E080938A031E
:1042D0008091830388608093830382E080938603C8
:1042E0001092870380918D038130E1F410928C034A
:1042F00010928B0313E068E38FE793E00E94CE11E6
:1043000068E18FE793E00E94CE111150A1F768E2B7
:104310008FE793E00E94CE1168E08FE793E00E9460
:10432000CE1128C06CE98FE793E00E94B41168E9D0
:104330008FE793E00E94B4116CE98FE793E00E944D
:10434000B41168E98FE793E00E94B4116CE98FE73C
:1043500093E00E94B41168E98FE793E00E94B411E2
:1043600064E98FE793E00E94B41160E98FE793E07E
:104370000E94B41165E070E080E090E00E946B0D57
:1043800060918303606240E08FE793E00E94E81150
:1043900065E070E080E090E00E946B0D6091830327
:1043A000606240E08FE793E00E94E81165E070E012
:1043B00080E090E00E946B0D8CE0809384038091FC
:1043C0008A03882331F040E06CE08FE793E00E949D
:1043D000E8110E94F01E82E08093850340E066E0D1
:1043E0008FE793E00E94E81187E00E94FF1E0E9481
:1043F000F01E60E080E00E94B31E6BEE72E082E18E
:1044000092E00E94152F82E192E00E94B11E61E0CD
:1044100081E00E94B31E67EE72E082E192E00E94AA
:10442000152F82E192E00E94B11E80E20E948E1F51
:1044300061EE72E082E192E00E94152F82E192E04B
:104440000E94B11E80ED97E00E94E90161E081E0E9
:104450000E94B31E6DED72E082E192E00E94152F82
:1044600082E192E00E94B11E80E20E948E1F63ED05
:1044700072E082E192E00E94152F82E192E00E94B8
:10448000B11E08E010E080E20E948E1F0150110969
:10449000D1F761E083E00E94180D60E083E00E94A4
:1044A000E80C60E082E00E94180D8BEC91E09093A4
:1044B000010180930001809169008360809369000D
:1044C000E89A61E08AE00E94180D61E089E00E94AC
:1044D000180D61E088E00E94180D61E087E00E94FD
:1044E000180D60E081E10E94180D60E080E10E94FB
:1044F000180D61E070E080E093E00E94040561E047
:1045000070E082E393E00E94040560E070E080E0E8
:1045100093E00E94060660E070E082E393E00E9470
:10452000060610920A0210920B0210920C021092D0
:104530000D021092060210920702109208021092C9
:10454000090210920E0210920F02109210021092A5
:10455000110283E690E090937B0280937A0210929E
:10456000740210927502109276021092770281E026
:10457000809372028AEB9FE090930502809304027D
:104580008091000290910102A0910202B091030279
:104590008093FC019093FD01A093FE01B093FF0175
:1045A0000E94700E80916A03682F082E000C770B12
:1045B00077FF03C0719561957109162F1F7187FFF1
:1045C000106288E60E94ED1D67E084EF92E00E9491
:1045D000900C612F84EF92E00E94900C0E94F71DD6
:1045E0008AE00E94DA1F811103C083E00E94FF1E4F
:1045F00089E00E94DA1F811103C084E00E94FF1E3F
:1046000080ED97E00E94E9010E94F01E0E9484065E
:1046100081E10E94BF0C01E0019709F000E080E118
:104620000E94BF0C11E0019709F010E0011102C0D7
:104630001123F9F081E00E94FF1E0E94F01E63EC3E
:1046400072E082E192E00E94152F82E192E00E94E6
:10465000B11E61E080E00E94B31E002319F081E4E6
:104660000E948E1F112319F082E40E948E1F0E9467
:104670003B068E010F5F1F4F3324339450E0852E8D
:1046800050E0952EFF24F39431E1E32E42E0242EF6
:10469000A89580917902882339F0E0910401F09186
:1046A000050180E009958DC280917802882331F060
:1046B00088EA90E00E946C07109278028091740260
:1046C00090917502A0917602B0917702892B8A2B86
:1046D0008B2B81F581E10E94BF0C019739F4809109
:1046E0000B0390910C03892B09F472C280E10E94A4
:1046F000BF0C019739F480913D0390913E03892BC3
:1047000009F46BC281E10E94BF0C892B39F48091BE
:104710000B0390910C03019709F464C280E10E949D
:10472000BF0C892B39F480913D0390913E03019792
:1047300009F45DC28091740290917502A091760295
:10474000B0917702892B8A2B8B2BB1F00E94A50D9B
:1047500040907402509075026090760270907702DB
:1047600024EF420E21E0521E611C711C46165706B2
:104770006806790608F440C280910D0390910E03FB
:10478000059731F080913F0390914003059711F414
:1047900081E01AC080E093E00E94EB05D82E82E30E
:1047A00093E00E94EB05D1100AC081110CC08091EA
:1047B0007302811102C082E007C083E005C0882334
:1047C00011F085E001C086E00E94FF1E90918002FA
:1047D00080917302992309F454C081114FC08091D4
:1047E0006603813089F4809120039091210304971E
:1047F00019F4F092720208C0809152039091530311
:104800000497B9F72092720261E070E080E093E0D3
:104810000E94040561E070E082E393E00E940405D9
:104820000E94A50D609317037093180380931903DA
:1048300090931A0310920E0310920D03109213031B
:1048400010921403109215031092160310921F0376
:104850006093490370934A0380934B0390934C03F6
:104860001092400310923F031092450310924603AA
:10487000109247031092480310925103F092730272
:104880000CC0882341F010920E0310920D03109279
:10489000400310923F031092730260E080E00E9498
:1048A000B31E88E60E94ED1D60E084EF92E00E9456
:1048B000900C0E94F71D61E070E088E690E00E9495
:1048C000541E84EF92E00E944C0C87FD43C00E946E
:1048D000DC070E9435118091EB0290E00C971CF4EC
:1048E00021E4D22E02C090E5D92E0E94DC070E945E
:1048F0003511C090EA020E94DC070E9435118091B8
:10490000EB02882341F0A82EB12C8D3038F08CE0DA
:10491000A81AB10803C08CE0A82EB12C6FE173E097
:1049200082E192E00E94152F1F92DF921F92CF9298
:10493000BF92AF9282E192E09F938F931F92EF928A
:104940001F930F930E94442C0FB6F894DEBF0FBE46
:10495000CDBF16C066E173E082E192E00E94152FA0
:1049600082E192E09F938F931F92EF921F930F9398
:104970000E94442C0F900F900F900F900F900F906B
:10498000C8010E94B11E80917302882319F06DE066
:1049900073E018C06AE073E082E192E00E94152F94
:1049A00082E192E00E94B11E80916603882329F083
:1049B000813031F46CEF72E005C063E073E002C057
:1049C00068EF72E082E192E00E94152F82E192E0AE
:1049D0000E94B11E80E093E00E94A6045C01BC012D
:1049E00080E093E00E94B81A82E393E00E94A6045C
:1049F0006C01BC0182E393E00E94B81A40900E0261
:104A000050900F02609010027090110241145104F6
:104A10006104710401F10E94A50DDC01CB01841930
:104A20009509A609B709813E9349A440B10598F0BC
:104A30008091200390912103049719F480E093E082
:104A400008C08091520390915303049721F482E3AC
:104A500093E00E94B9130E94A50D20917C02309131
:104A60007D0240917E0250917F022B013C01421A4F
:104A7000530A640A750AE1E64E16EAEE5E06610420
:104A8000710440F060937C0270937D0280937E02FB
:104A900090937F0280E093E00E94B41782E393E05A
:104AA0000E94B41780E093E00E94401782E393E0F5
:104AB0000E9440170E9402029C01019729F49091E4
:104AC0007302932590938002AA94AB2899F4CA9418
:104AD000CD2881F42230310569F4F09279021092E8
:104AE0000E0310920D031092400310923F0381E0D9
:104AF0000E94E614C0907A02D0907B020E94DC07EC
:104B00000E9435118091EA0290E0C816D90609F496
:104B100058C00E94DC070E9435118091EA0290E0A3
:104B200090937B0280937A020E94DC070E943511E9
:104B3000D090EB020E94DC070E943511C090EA027F
:104B40000E94DC0720E831E541E050E00E94662841
:104B5000CA01B9016C5F7F4F8F4F9F4F27E030E054
:104B600040E050E00E94662881E001C0880F6A950D
:104B7000EAF720E030E0F901EC59FC4F92859923E7
:104B800071F047814D110BC040854C1108C0418523
:104B9000482329F0913049F0923071F012C02C5F17
:104BA0003F4F2031310539F70CC0809173028111DC
:104BB00008C09093800205C0809173028111109209
:104BC00080028114910409F463CD0E9400005CCD41
:104BD00089E291E00E946C0789CD8AE291E00E940F
:104BE0006C0790CD8AE290E00E946C0797CD8AE234
:104BF00090E00E946C079ECD109274021092750294
:104C00001092760210927702B7CDEF92FF920F9337
:104C10001F93CF93DF93CDB7DEB768970FB6F894A5
:104C2000DEBF0FBECDBF1092F3021092F2021092BF
:104C3000F1021092F0020E949B131092F702109260
:104C4000F60288EE93E0A0E0B0E08093F802909343
:104C5000F902A093FA02B093FB028EE191E09093E7
:104C6000F5028093F4028CE0E9E4F1E0DE011D96A8
:104C700001900D928A95E1F78CE0EDE3F1E0DE0121
:104C8000119601900D928A95E1F78CE0FE013D9618
:104C9000AEE8B3E001900D928A95E1F78CE0FE0159
:104CA0003196AAE9B3E001900D928A95E1F710924E
:104CB00082031092810389E391E0909380038093B3
:104CC0007F0382E080938A031092890380E28093BD
:104CD00088031092830310928D0310927B0310922D
:104CE0007C0310927D0310927E0384E6E82E83E01D
:104CF000F82E00E010E0C8010E941C2FF7018193FC
:104D00007F010F5F1F4F0B311105A9F780916403DD
:104D100090916503813F910509F444C081EF90E0D3
:104D20009093650380936403109266038CE090E097
:104D3000909368038093670381E0809369031092E6
:104D40006A0380E090E0FC01EC59FC4F1286178268
:104D500010861186049680319105A9F78EE3809321
:104D6000710380936D0387E180936B0387E08093E9
:104D70006F0381EC8093750383E1809373038FEF5E
:104D8000809379038FE08093770310927B031092D6
:104D90007C0310927D0310927E0384E693E00E94D0
:104DA000601F65C080916603823010F01092660328
:104DB0004091670350916803EAE2F1E020E081E06E
:104DC000E533F80739F0819190E084179507B9F73A
:104DD00021E0F5CF211106C08CE090E090936803AC
:104DE00080936703EEE6F3E08081833008F0108261
:104DF000DF0113978C91883108F01C92DF01129724
:104E00008C918C3308F01C92DF018E918F778C93FC
:104E1000349683E0EE37F80739F780917B03082E4C
:104E2000000C990B97FF03C0919581959109069706
:104E300014F010927B0380917C03082E000C990BD8
:104E400097FF03C0919581959109069714F01092F0
:104E50007C0380917D03865F8B3010F010927D0380
:104E600080917E03865F8B3010F010927E0381E08C
:104E70008093000382E393E0909302038093010305
:104E800088E090E090930403809303038AE090E02D
:104E9000909306038093050381E090E090930803CC
:104EA0008093070327E030E030930A03209309033F
:104EB00010920C0310920B0310920E0310920D032C
:104EC00010920F031092100310921103109212030C
:104ED00010921303109214031092150310921603EC
:104EE00010921703109218031092190310921A03CC
:104EF00010921B0310921C0310921D0310921E03AC
:104F000010921F0310922103109220038EEA90E466
:104F1000A7E0B5E48093220390932303A093240396
:104F2000B093250310922E0310922F03109230039A
:104F30001092310310922A0310922B0310922C032B
:104F400010922D031092260310922703109228032B
:104F50001092290342E04093320340E053E0509323
:104F6000340340933303309336032093350329E011
:104F700030E0309338032093370310923A031092B5
:104F8000390326E030E030933C0320933B0310923A
:104F90003E0310923D031092400310923F03109283
:104FA0004103109242031092430310924403109263
:104FB0004503109246031092470310924803109243
:104FC000490310924A0310924B0310924C03109223
:104FD0004D0310924E0310924F0310925003109203
:104FE00051031092530310925203809354039093F1
:104FF0005503A0935603B093570310926003109289
:105000006103109262031092630310925C0310928A
:105010005D0310925E0310925F031092580310928A
:10502000590310925A0310925B0368960FB6F894D6
:10503000DEBF0FBECDBFDF91CF911F910F91FF90CB
:10504000EF900895DB018F939F930E94C328BF9137
:10505000AF91A29F800D911DA39F900DB29F900DC7
:1050600011240895991B79E004C0991F961708F040
:10507000961B881F7A95C9F780950895AA1BBB1BBC
:1050800051E107C0AA1FBB1FA617B70710F0A61B48
:10509000B70B881F991F5A95A9F780959095BC0169
:1050A000CD01089597FB072E16F4009407D077FDE5
:1050B00009D00E943E2807FC05D03EF490958195CA
:1050C0009F4F0895709561957F4F0895A1E21A2E24
:1050D000AA1BBB1BFD010DC0AA1FBB1FEE1FFF1F9C
:1050E000A217B307E407F50720F0A21BB30BE40BEC
:1050F000F50B661F771F881F991F1A9469F7609533
:105100007095809590959B01AC01BD01CF010895EC
:10511000052E97FB1EF400940E949F2857FD07D090
:105120000E94662807FC03D04EF40C949F285095EB
:105130004095309521953F4F4F4F5F4F0895909583
:105140008095709561957F4F8F4F9F4F0895EE0F1B
:10515000FF1F0590F491E02D0994A29FB001B39F29
:10516000C001A39F700D811D1124911DB29F700D70
:10517000811D1124911D08950E94AD28B7FF089547
:10518000821B930B08950E94AD28A59F900DB49F9C
:10519000900DA49F800D911D11240895B7FF0C94CC
:1051A000C3280E94C328821B930B08955058BB2725
:1051B000AA270E94EE280C94C22A0E94B42A38F032
:1051C0000E94BB2A20F039F49F3F19F426F40C9476
:1051D0008A2A0EF4E095E7FB0C94842AE92F0E94BA
:1051E000D32A58F3BA17620773078407950720F08C
:1051F00079F4A6F50C94F52A0EF4E0950B2EBA2F4F
:10520000A02D0B01B90190010C01CA01A0011124CC
:10521000FF27591B99F0593F50F4503E68F11A1678
:10522000F040A22F232F342F4427585FF3CF469509
:1052300037952795A795F0405395C9F77EF41F162B
:10524000BA0B620B730B840BBAF09150A1F0FF0FF5
:10525000BB1F661F771F881FC2F70EC0BA0F621FE1
:10526000731F841F48F4879577956795B795F795D1
:105270009E3F08F0B0CF9395880F08F09927EE0F66
:105280009795879508950E94602A08F481E0089513
:105290000E945C290C94C22A0E94BB2A58F00E94EA
:1052A000B42A40F029F45F3F29F00C94842A51116C
:1052B0000C94F62A0C948A2A0E94D32A68F3992324
:1052C000B1F3552391F3951B550BBB27AA27621702
:1052D0007307840738F09F5F5F4F220F331F441F0F
:1052E000AA1FA9F335D00E2E3AF0E0E832D0915043
:1052F0005040E695001CCAF72BD0FE2F29D0660F30
:10530000771F881FBB1F261737074807AB07B0E872
:1053100009F0BB0B802DBF01FF2793585F4F3AF078
:105320009E3F510578F00C94842A0C94F62A5F3F36
:10533000E4F3983ED4F3869577956795B795F795FE
:105340009F5FC9F7880F911D9695879597F90895E6
:10535000E1E0660F771F881FBB1F62177307840782
:10536000BA0720F0621B730B840BBA0BEE1F88F791
:10537000E095089529F416F00C94842A0C94F52AEB
:105380000C948A2A0E94DB2AA8F39638A0F707F823
:105390000F92E8942BE33AEA48EB5FE70E948D2BEB
:1053A0000F920F920F924DB75EB70F920E94432B50
:1053B000EAEAF0E00E948D2A4F915F91EF91FF9110
:1053C000E595EE1FFF1F49F0FE57E0684427EE0FFA
:1053D000441FFA95E1F74195550B0E940D2B0F9054
:1053E00007FE0C94012B08950E94DB2A88F09F573A
:1053F00098F0B92F9927B751B0F0E1F0660F771FF9
:10540000881F991F1AF0BA95C9F714C0B13091F0EE
:105410000E94F52AB1E008950C94F52A672F782FA1
:105420008827B85F39F0B93FCCF3869577956795B3
:10543000B395D9F73EF490958095709561957F4F1F
:105440008F4F9F4F0895E89409C097FB3EF49095C5
:105450008095709561957F4F8F4F9F4F9923A9F04D
:10546000F92F96E9BB279395F695879577956795DC
:10547000B795F111F8CFFAF4BB0F11F460FF1BC020
:105480006F5F7F4F8F4F9F4F16C0882311F096E9B3
:1054900011C0772321F09EE8872F762F05C0662361
:1054A00071F096E8862F70E060E02AF09A95660F1A
:1054B000771F881FDAF7880F9695879597F90895D3
:1054C000990F0008550FAA0BE0E8FEEF1616170615
:1054D000E807F907C0F012161306E407F50798F07D
:1054E000621B730B840B950B39F40A2661F0232B96
:1054F000242B252B21F408950A2609F4A140A69512
:105500008FEF811D811D089597F99F6780E870E0F6
:1055100060E008959FEF80EC0895DF93CF931F9391
:105520000F93FF92EF92DF927B018C01689406C08B
:10553000DA2EEF010E948A2BFE01E894A5912591B5
:10554000359145915591A6F3EF010E94EE28FE0199
:105550009701A801DA9469F7DF90EF90FF900F911F
:105560001F91CF91DF91089500240A941616170613
:1055700018060906089500240A9412161306140644
:1055800005060895092E0394000C11F4882352F0A7
:10559000BB0F40F4BF2B11F460FF04C06F5F7F4F5F
:1055A0008F4F9F4F089557FD9058440F551F59F046
:1055B0005F3F71F04795880F97FB991F61F09F3F00
:1055C00079F087950895121613061406551FF2CF29
:1055D0004695F1DF08C0161617061806991FF1CF79
:1055E00086957105610508940895E894BB276627A0
:1055F0007727CB0197F908950E94602A08F48FEF6E
:1056000008959B01AC0160E070E080E89FE30C949A
:1056100048290C94842A0C942A2C0E94DB2AD8F363
:105620009923C9F3940F511DA3F39150504094F066
:1056300059F0882332F0660F771F881F9150504031
:10564000C1F79E3F51052CF7880F911D96958795C0
:1056500097F908955F3FACF0983E9CF0BB27869584
:1056600077956795B79508F4B1609395C1F7BB0F2F
:1056700058F711F460FFE8CF6F5F7F4F8F4F9F4F58
:10568000E3CF0C94F62AFA01DC01AA0FBB1F9B01A1
:10569000AC01BF5728F4222733274427507820C075
:1056A000B75190F4AB2F0024469537952795011CF0
:1056B000A395D2F3002071F0220F331F441FB3953E
:1056C000DAF30ED00C94D62861307105A0E88A0771
:1056D000B94630F49B01AC0166277727882790787C
:1056E000309621F0208331834283538308950E94B2
:1056F0008A2B0C94C22A0E94B42A38F00E94BB2A3A
:1057000020F0952311F00C94842A0C948A2A1124F9
:105710000C94F62A0E94D32A70F3959FC1F3950F3B
:1057200050E0551F629FF001729FBB27F00DB11D25
:10573000639FAA27F00DB11DAA1F649F6627B00DB5
:10574000A11D661F829F2227B00DA11D621F739F9E
:10575000B00DA11D621F839FA00D611D221F749FAC
:105760003327A00D611D231F849F600D211D822FF3
:10577000762F6A2F11249F5750409AF0F1F088231A
:105780004AF0EE0FFF1FBB1F661F771F881F915047
:105790005040A9F79E3F510580F00C94842A0C9448
:1057A000F62A5F3FE4F3983ED4F3869577956795A4
:1057B000B795F795E7959F5FC1F7FE2B880F911D71
:1057C0009695879597F9089519F416F40C948A2AFA
:1057D0000C942A2C0E94DB2AB8F39923C9F3B6F360
:1057E0009F57550B87FF0E94382C0024A0E640EA03
:1057F000900180585695979528F4805C660F771F26
:10580000881F20F026173707480730F4621B730BF8
:10581000840B202931294A2BA6951794079420251B
:1058200031254A2758F7660F771F881F20F0261763
:105830003707480730F4620B730B840B200D311DC2
:10584000411DA09581F7B901842F9158880F969535
:10585000879508959F3F31F0915020F48795779573
:105860006795B795880F911D9695879597F9089537
:1058700091505040660F771F881FD2F7089581E03E
:1058800090E0F8940C94692FAEE0B0E0EAE4FCE21A
:105890000C94402F0D891E898F89988D26E02C83CA
:1058A0001A83098397FF02C080E090E801979E83E6
:1058B0008D83AE01455E5F4F698D7A8DCE01019675
:1058C0000E94972C4D815E8157FD0AC02F8138853B
:1058D000421753070CF49A01F801E20FF31F1082EC
:1058E0002E96E4E00C945C2FAEE0B0E0EAE7FCE238
:1058F0000C94402F0D891E8986E08C831A830983BE
:105900008FEF9FE79E838D83AE01475E5F4F6F8968
:10591000788DCE0101960E94972C2F813885F80151
:10592000E20FF31F10822E96E4E00C945C2FACE0A3
:10593000B0E0EDE9FCE20C94322F7C016B018A01AE
:10594000FC0117821682838181FFBDC1CE010196C1
:105950004C01F7019381F60193FD859193FF8191AD
:105960006F01882309F4ABC1853239F493FD859129
:1059700093FF81916F01853229F4B70190E00E9475
:105980007F2EE7CF512C312C20E02032A0F48B3237
:1059900069F030F4803259F0833269F420612CC010
:1059A0008D3239F0803339F4216026C022602460C2
:1059B00023C0286021C027FD27C030ED380F3A30C2
:1059C00078F426FF06C0FAE05F9E300D1124532EB6
:1059D00013C08AE0389E300D1124332E20620CC093
:1059E0008E3221F426FD6BC1206406C08C3611F482
:1059F000206802C0883641F4F60193FD859193FF3B
:105A000081916F018111C1CF982F9F7D9554933063
:105A100028F40C5F1F4FFFE3F9830DC0833631F08C
:105A2000833771F0833509F05BC022C0F8018081B3
:105A300089830E5F1F4F44244394512C540115C099
:105A40003801F2E06F0E711CF801A080B18026FFD2
:105A500003C0652D70E002C06FEF7FEFC5012C879A
:105A60000E94742E2C0183012C852F77222E17C0C3
:105A70003801F2E06F0E711CF801A080B18026FFA2
:105A800003C0652D70E002C06FEF7FEFC5012C876A
:105A90000E94692E2C012C852068222E830123FC74
:105AA0001BC0832D90E048165906B0F4B70180E280
:105AB00090E00E947F2E3A94F4CFF50127FC859167
:105AC00027FE81915F01B70190E00E947F2E311087
:105AD0003A94F1E04F1A51084114510471F7E5C0AE
