:100000000C949D010C94430F0C941C0F0C94C5018F
:100010000C94C5010C94C5010C94C5010C94C50148
:100020000C94C5010C94C5010C94C5010C94C50138
:100030000C94C5010C94C5010C94C5010C94C50128
:100040000C94D20E0C94C5010C943E160C94181608
:100050000C94C5010C94C5010C94C5010C94C50108
:100060000C94A4130C94C501500683068C069706C5
:100070009F069F069F069F069F069F069F06AD064A
:10008000A817AD17BE17CF17DA17EA17FA172718F0
:100090002F185A184B185A185A1861188118AE1888
:1000A000DC180919361963198F1907634236B79B93
:1000B000D8A71A39685618AEBAAB558C1D3CB7CCC8
:1000C0005763BD6DEDFD753EF6177231BF00000040
:1000D000803F455252200020646F6E65002077619A
:1000E000697400206F6E202000206F66662000205B
:1000F0002D2D2D2000636C656172007365740053B3
:100100007475636B2000474649205465737420461C
:1001100061696C757265004572724A616E4665620E
:100120004D61724170724D61794A756E4A756C41CC
:1001300075675365704F63744E6F76446563002036
:1001400020002532640020202000202020002025CF
:100150003264002020002530326400202000253247
:10016000640053657420436C6F636B00534D5457A8
:1001700054465300534D54575446530020200025F5
:100180003032640020200025326400457869740014
:10019000202020200045646974204576656E742017
:1001A0000000000000240027002A000000000025B5
:1001B0000028002B00000000002300260029000476
:1001C00004040404040404020202020202030303FE
:1001D00003030301020408102040800102040810F8
:1001E0002001020408102052656C61792046616983
:1001F0006C7572653A2000322E342E312D6465768E
:100200000053573A00342E332E310048573A004AF3
:10021000313737322048796472612000554E4B00E7
:100220007365716E746C00736861726564004D3A39
:10023000004D3A504155534544002532643A25302B
:10024000326425634D2000204361722025733A20DB
:10025000256425250050696C6F7420646572617493
:100260006500204361722025733A202573302E25C6
:100270006400416D6D65746572004E6F0059657361
:100280000045786974204D656E75733F004E6F00B0
:100290005965730043616C6962726174696F6E3F86
:1002A000004E6F0059657300436F6E6669672045A5
:1002B00076656E74733F004E6F0059657300456E2E
:1002C00061626C65204453543F004E6F0059657362
:1002D0000053657420436C6F636B3F0020416D7069
:1002E000730043757272656E7420417661696C2E7D
:1002F0000053657175656E7469616C005368617255
:100300006564004F7065726174696E67204D6F643B
:10031000650025336C756D41002532642E25303122
:10032000644100000000080002010000030407000F
:100330000000000000000000182911241FBECFEFAC
:10034000D8E0DEBFCDBF24E0A4E8B1E001C01D923B
:10035000A635B207E1F711E0A0E0B1E0E0E1F6E692
:1003600002C005900D92A438B107D9F711E0CDE98C
:10037000D1E004C02197FE010E94FE2BCC39D107A9
:10038000C9F70E9451230C9406330C94000060E0DE
:1003900088E00E94090E60E087E00E94090E10923A
:1003A000D8031092D7031092A6031092A5030E94BF
:1003B000C60E60936202709363028093640290930E
:1003C000650281E0809366020895CF93DF93EC018C
:1003D000C536D10550F064E670E080E090E00E9400
:1003E0008C0EC456D109A895F3CFBE0180E090E0F1
:1003F0000E948C0EA895DF91CF9108950F931F93C3
:1004000080914E0490914F04A0915004B0915104FA
:10041000892B8A2B8B2BA9F00E94C60E00914E04CB
:1004200010914F042091500430915104DC01CB0114
:10043000801B910BA20BB30BC297A105B10508F469
:1004400044C010924E0410924F0410925004109227
:100450005104809141048823C1F080913F0480625F
:100460000E946D2082E10E94E6120E947720809116
:100470003F04806261E070E090E00E94D4208EE84A
:1004800093E00E946D0D80958F7140914A045091C8
:100490004B0460914C0470914D0480FF19C0452BB2
:1004A000462B472B91F40E94C60E60934A0470932A
:1004B0004B0480934C0490934D0460934E047093CE
:1004C0004F04809350049093510480E090E02EC03C
:1004D000452B462B472BC9F30E94C60E60934E0452
:1004E00070934F04809350049093510400914A04F8
:1004F00010914B0420914C0430914D04DC01CB0150
:10050000801B910BA20BB30B10924A0410924B0468
:1005100010924C0410924D048B3F9105A105B1053A
:1005200018F481E090E002C082E090E01F910F910A
:1005300008958F929F92AF92BF92EF92FF920F9386
:100540001F93CF93DF937C010E94C60E4B015C0189
:10055000C0E0D0E00FE017E20E94C60EDC01CB0144
:1005600088199909AA09BB094497A105B10568F43E
:10057000F70187810E94750EC817D90708F4EC01AE
:100580008017910748F78C01E7CF0B5F1109013302
:100590001140A0F0C63683E0D80798F4CE0187500A
:1005A00093408F35910580F0835A9F4F8D3591058B
:1005B00070F0C256D240C834D10560F085E090E0BA
:1005C0000BC081E090E008C082E090E005C083E0CD
:1005D00090E002C084E090E0DF91CF911F910F91F5
:1005E000FF90EF90BF90AF909F908F900895CF9223
:1005F000DF92EF92FF920F931F93CF93DF93EC0163
:100600008B018881813019F44091160402C0409119
:1006100017040230110518F4602F8D81A4C02091B9
:10062000010430910204A8EEB3E00E94C03203300E
:10063000110521F496958795779567954423D1F018
:10064000A42F440FBB0BAC59BF4F9B01AC010E94C0
:10065000963224E630E040E050E00E949E3220379F
:1006600087E138074105510568F460E777E180E0EC
:1006700090E010C06133E5E77E078105910508F041
:1006800098C01AC0CA01B901213335474105510547
:1006900008F08FC02CE330E040E050E00E949E3232
:1006A000942F832F722F662728EE33E040E050E02E
:1006B0000E946C32790109C0603727E17207810519
:1006C000910540F7EE24EA94F12CCD80DE8061E0C4
:1006D0008C2D0E94390EFFEFEF16F10409F441C092
:1006E000F601FF27ED5DFC4FE491E330E1F058F4B3
:1006F000E23099F584B5806284BD27B530E058E4D6
:10070000C52ED12C3DC0E430D9F0E83031F58091D0
:10071000B00080628093B0002091B30030E084EBA1
:10072000C82ED12C2DC080918000806880938000DD
:10073000209186003091870048E8C42ED12C2CC02F
:1007400080918000806280938000209186003091AB
:1007500087009AE8C92ED12C1FC0E7FC02C060E0D8
:1007600001C061E08C2D0E94090E19A308A3DF913E
:10077000CF911F910F91FF90EF90DF90CF90089550
:10078000D7010E94C0322FEF30E040E050E00E94DD
:100790009E32F6012083E9CFD7010E94C0322FEFAD
:1007A00030E040E050E00E949E32F6013183208329
:1007B000DCCF60E375E780E090E06CCFFC018091D6
:1007C0006102811112C0258536852530310581F001
:1007D00083899489A589B689892B8A2B8B2B39F437
:1007E0002385348581E0232B19F480E0089581E08E
:1007F00008950F931F93CF93DF938C01EB018091AA
:10080000A5039091A603892B49F48091D703909179
:10081000D803892B19F461307105C1F0F801838583
:1008200094858C179D07A9F06C2F83810E94090E77
:10083000F801D487C3870E94C60E6093620270934A
:100840006302809364029093650203C00E94770460
:10085000E5CFDF91CF911F910F91089560E070E097
:100860008AE993E00E94F70260E070E08CEC93E08C
:100870000E94F70260E070E08AE993E00E94F903C9
:1008800060E070E08CEC93E00E94F903A895FECF45
:10089000C82F81E00E94B7210E94702166E071E0BC
:1008A00080E092E00E944F3280E092E00E9431218D
:1008B00061E080E00E9433216FEF70E080E092E021
:1008C0000E944F3280E092E00E943121CC2319F047
:1008D0006BEF70E002C065EF70E080E092E00E9494
:1008E0004F3280E092E00E9431210E942E04CF928C
:1008F000DF92EF92FF920F931F93CF93DF931092AB
:100900006602C2E3D0E00BEF1CE761E083E00E94E7
:10091000090EC8010197F1F760E083E00E94090E1B
:10092000C8010197F1F780916602811103C0A89573
:10093000219759F7809166028823B9F00E94C60E6C
:100940006B017C0124E6C20ED11CE11CF11C82E08B
:100950000E94E00D019759F4A8950E94C60EC61694
:10096000D706E806F90698F781E00E94480480E976
:1009700091E00E94E50110926602DF91CF911F91F4
:100980000F91FF90EF90DF90CF9008950F931F93FA
:10099000CF93DF93EC01CE018370992781309105CD
:1009A00049F0029751F0CC7FCE0181600E94C604CD
:1009B000C260F1CF01E410E002C002E418E061E09F
:1009C000812F0E943321802F0E9420228AE30E94DF
:1009D00020229E012873332720313105B1F048F4DD
:1009E0002115310579F028303105E9F469EE70E020
:1009F0000EC028313105A1F020323105A1F467ED98
:100A000070E005C06FEE70E002C063EE70E080E061
:100A100092E00E944F3280E092E00E94312138C083
:100A20006DED70E0F4CF81E00E94B72162ED70E0DF
:100A300080E092E00E944F3280E092E00E943121FB
:100A40009E01207C317020383105B9F038F4211531
:100A5000310589F020343105C1F015C0211581E040
:100A6000380769F0203481E0380759F0203C31051F
:100A700051F484E50BC086E409C087E407C082E531
:100A800005C085E403C08FE301C08FE40E942022EB
:100A900089E791E00E943121C2FF0CC061E086E04D
:100AA000810F0E9433218AE2DF91CF911F910F9134
:100AB0000C942022DF91CF911F910F910895CF9236
:100AC000DF92EF92FF920F931F93CF93DF938C01EE
:100AD0000E94C60E6B017C01E801C370DD270E94F5
:100AE0001822C801807C91708038910549F480916A
:100AF000FF0191E0980F9093FF01853008F458C0F2
:100B0000C230D10520F0229709F047C024C061E02F
:100B100070E08AE993E00E94F7028091A703909128
:100B2000A803059771F085E090E09093A803809367
:100B3000A703C092B103D092B203E092B303F09244
:100B4000B4031092AD031092AE031092AF03109253
:100B5000B003CD2B11F561E070E08CEC93E00E94C6
:100B6000F7028091D9039091DA03059771F085E03F
:100B700090E09093DA038093D903C092E303D0927C
:100B8000E403E092E503F092E6031092DF03109293
:100B9000E0031092E1031092E203C801DF91CF91CC
:100BA0001F910F91FF90EF90DF90CF900C94C604AF
:100BB000C0925204D0925304E0925404F09255042F
:100BC0009FCFCF92DF92EF92FF920E94AF0F6B0107
:100BD0007C0180910304882369F0C701B6010E945B
:100BE000D41E882339F0C701B601605F714F8F4F63
:100BF0009F4F02C0C701B601FF90EF90DF90CF90EA
:100C00000895EF92FF920F931F93CF93DF931F925C
:100C1000CDB7DEB78C01E12CF12CF80161918F0189
:100C2000C70169830E9456326981681719F0C701AC
:100C30000E945E32FFEFEF1AFF0A88E3E816F10424
:100C400061F70F90DF91CF911F910F91FF90EF907F
:100C50000895FF920F931F93CF93DF9300D000D09E
:100C6000CDB7DEB7F82E0E94FE018C01FF2039F0CF
:100C70000E947021109299011092980104C0813055
:100C8000910509F075C090919901492F50E04C30C1
:100C9000510508F0AFC0FA01EC5CFF4F0C94FE2B3D
:100CA000F11005C0809198018F5F80939801809129
:100CB0009801853010F010929801E0919801E4308D
:100CC00008F098C034E0E39FF0011124EC5FFB4F83
:100CD0008081809397019181909396019281909366
:100CE000950193819093940191E08C3008F490E009
:100CF00090939301811102C08CE00BC08D3008F4F9
:100D000079C08C5006C0809197018F5F8D3008F0BC
:100D100081E0809397016EC0809196018F5F8C3344
:100D200018F48093960166C01092960163C081E02A
:100D300090919301911180E0809393015BC02CEF1F
:100D4000290F81E090E001C0880F2A95EAF7909181
:100D500095018927809395014DC0809194018F5F03
:100D6000833018F48093940145C01092940142C0DE
:100D7000029709F041C09091990191110FC08091A3
:100D80009801843059F48BE697E1909305018093A4
:100D90000401109267020E9470215AC19F5F9093D4
:100DA00099019C3048F180919701909193019111A4
:100DB00003C08C3031F44AC1913019F48C3009F001
:100DC000845FE091980194E0E99FF0011124EC5FC9
:100DD000FB4F80838091960181838091950182836E
:100DE0008091940183838EEF93E00E94010610921C
:100DF00099012EC101E010E00E94C60E28EE33E0FA
:100E000040E050E00E949E3221E0643F7140810545
:100E1000910508F420E0012B29F49091920192179A
:100E200009F416C12093920160E080E00E94332112
:100E300065E971E080E092E00E944F3280E092E04C
:100E40000E94312180919201882339F0809199018B
:100E5000811103C060E971E006C0609198016430BF
:100E600059F46BE871E080E092E00E944F3280E03C
:100E700092E00E9431210AC070E06F5F7F4F072E21
:100E8000000C880B990B4AE00E942B2261E080E065
:100E90000E94332180919801843049F400E110E0F0
:100EA00080E20E94202201501109D1F7D1C0109197
:100EB000970167E871E080E092E00E944F321F9254
:100EC0001F9380E092E09F938F938E010F5F1F4FDF
:100ED0001F930F930E94AE2F0F900F900F900F90C3
:100EE0000F900F9080919201882369F08091990171
:100EF000813049F464E871E080E092E00E944F3272
:100F000080E092E001C0C8010E9431218AE30E9482
:100F10002022F09096016FE771E080E092E00E945D
:100F20004F321F92FF9280E092E09F938F931F9326
:100F30000F930E94AE2F0F900F900F900F900F9075
:100F40000F9080919201882369F0809199018230FD
:100F500049F46CE771E080E092E00E944F3280E05B
:100F600092E001C0C8010E94312180919201882342
:100F700031F080919901833011F480E207C08091B3
:100F80009301813011F081E401C080E50E942022AC
:100F900080E20E94202200E010E06CE671E080E038
:100FA00092E00E944F32E0E0F2E001900020E9F789
:100FB0003197E050F2400E171F0758F580919901C4
:100FC00090E098012C5F3F4F2817390731F480914A
:100FD0009201882311F080E217C08091950190E082
:100FE000002E02C0959587950A94E2F780FF0BC00A
:100FF00064E771E080E092E00E944F32F801E05037
:10100000FE4F808101C08DE20E9420220F5F1F4FA2
:10101000C4CF80E20E942022809199018B3031F46C
:1010200080919201882311F080E20DC0809194019B
:10103000811102C08EE407C0813011F483E503C042
:10104000823031F487E40E94202202C080E0B9CED1
:101050000F900F900F900F90DF91CF911F910F91F4
:10106000FF9008954F925F926F927F928F929F921E
:10107000AF92BF92CF92DF92EF92FF920F931F93A6
:10108000CF93DF93CDB7DEB762970FB6F894DEBF8C
:101090000FBECDBFF82E0E94FE018C01FF2009F487
:1010A00060C00E94702162E671E080E092E00E94E0
:1010B0004F3280E092E00E9431210E94E1056B01F5
:1010C0007C010E9474122091E802222331F0822FC9
:1010D00090E02D3020F00C9702C08CE090E08093DF
:1010E0009701C701B6010E9474128091E80290E056
:1010F00021E00C970CF420E020939301C701B60186
:101100000E9474128091E70280939601C701B60194
:101110000E9474128091EA0280939101C701B60186
:101120000E9474128091EB0280939001C701B60176
:101130000E9474128091EC0290E09C012E54384F72
:1011400088970B9728F430938F0120938E0106C067
:101150008AED97E090938F0180938E011092990110
:101160005DC08130910509F051C090919901923094
:1011700001F128F4992349F0913081F0D7C29430DD
:1011800061F110F1953091F1D1C2809197018F5F9B
:101190008D3008F081E080939701C8C2809196015C
:1011A0008F5F8C3318F480939601C0C21092960121
:1011B000BDC2809193018F5F823018F480939301B8
:1011C000B5C210929301B2C2809191018F5F8032BB
:1011D00008F081E080939101A9C2809190018F5F16
:1011E0008D3008F081E080939001A0C280918E0143
:1011F00090918F010196853E27E0920710F08AEDCD
:1012000097E090938F0180938E0190C2029709F02E
:101210008DC2809199018F5F80939901809199018E
:10122000863008F481C290919301809197019111C9
:1012300005C08C3051F41092970107C0913029F409
:101240008C3019F0845F8093970180918E01825BCE
:101250008E87809190018D87809191018C878091FC
:1012600097018A878091960189871886CE01089612
:101270000E9439106B017C0180910304882331F0B6
:10128000C701B6010E94D41E811170C30E94AF0F26
:101290006F87788B898B9A8BC701B6010E94880F64
:1012A000AE014F5F5F4FC701B6010E94A31188E6F0
:1012B0000E946D2060E08EE893E00E94B10D60E82E
:1012C0008EE893E00E94B10D8A811AE0612F0E949E
:1012D000CA2B692F30E1839F600D11248EE893E0C3
:1012E0000E94B10D8B81612F0E94CA2B692F40E1B2
:1012F000849F600D11248EE893E00E94B10D8C81D3
:10130000612F0E94CA2B692F50E1859F600D112427
:101310008EE893E00E94B10D8D81612F0E94CA2B4F
:10132000692F20E1829F600D11248EE893E00E94D6
:10133000B10D8E81612F0E94CA2B692F30E1839FEE
:10134000600D11248EE893E00E94B10D8F818E51C3
:10135000612F0E94CA2B692F40E1849F600D1124E8
:101360008EE893E00E94B10D0E947720882319F047
:1013700010929A011EC001E000939A0188E60E9433
:101380006D2060E08EE893E00E94B10D8981612FAD
:101390000E94CA2B692F50E1859F600D11248EE8B1
:1013A00093E00E94B10D0E9477208111E1CF00935C
:1013B0009A01C701B6010E94582D4B015C01209192
:1013C00024043091250440912604509127040E9462
:1013D000712C87FF34C010922404109225041092BF
:1013E00026041092270410922004109221041092D7
:1013F00022041092230410921C0410921D041092D7
:101400001E0410921F0480912A0490912B04A09135
:101410002C04B0912D0480932E0490932F04A0935C
:101420003004B093310410923204109233041092BD
:10143000340410923504109228041092290440902C
:10144000240450902504609026047090270420E026
:1014500030E0A901C301B2010E94712C81110FC0BB
:1014600040912E0450912F0460913004709131040A
:101470009501840188E194E00E94F01442C1C70103
:10148000B6012F85388949895A89621B730B840BF1
:10149000950B0E94582D6B017C01A3019201C5019F
:1014A000B4010E94042C9B01AC01C701B6010E944B
:1014B000762C20E030EC48EA57E40E94AC2E6B0119
:1014C0007C0120E030E0A9010E94312E18165CF466
:1014D00020E030E040EA52E4C701B6010E94312E1C
:1014E00018165CF040C020E030E040EA52ECC70142
:1014F000B6010E94712C87FF36C01092240410920E
:1015000025041092260410922704109220041092B1
:101510002104109222041092230410921C041092B1
:101520001D0410921E0410921F0480912A049091B1
:101530002B04A0912C04B0912D0480932E04909341
:101540002F04A0933004B09331041092320410920F
:10155000330410923404109235041092280410922F
:10156000290480E0D0C010912904112309F474C02B
:10157000A701960160913204709133048091340484
:10158000909135040E94042C2B013C01612F110F16
:10159000770B880B990B0E945A2D9B01AC01C3015C
:1015A000B2010E94762C2B013C012FE632E143E888
:1015B0005AE30E94712C87FDA0CFA3019201C301C1
:1015C000B2010E945F2F811198CF95018401B30170
:1015D000A20188E194E00E94F01480901C04909095
:1015E0001D04A0901E04B0901F0420E030E0A9016B
:1015F000C501B4010E94312E18165CF42DEB37E3BF
:1016000046E855E3C501B4010E94712C87FF0BC069
:1016100017C02DEB37E346E855EBC501B4010E9436
:10162000312E18166CF0A501940160912004709180
:10163000210480912204909123040E94762C03C0FF
:1016400060E070E0CB0160932E0470932F048093D0
:101650003004909331040EC040912E0450912F0419
:1016600060913004709131049501840188E194E027
:101670000E94F014C0923204D0923304E0923404F9
:10168000F092350420912E0430912F0440913004C3
:1016900050913104C701B6010E94762C6B017C0188
:1016A00020E030E0A9010E94312E20E030E040E04F
:1016B0005FE387FD05C0C701B6010E94052C04C089
:1016C000C701B6010E94042C0E94222D809128049B
:1016D0009B01280F311D87FD3A952038310514F004
:1016E0009FE704C020383F4F2CF490E8981B90935C
:1016F000290402C06093290490912904890F8093E2
:101700002804809128040E946A0F8EEF93E00E94C3
:1017100001068BE697E190930501809304011092F6
:1017200067020E94702129C102E010E00E94C60EEB
:1017300028EE33E040E050E00E949E3221E0643F1A
:1017400071408105910508F420E0012B29F4909166
:101750009201921709F411C12093920161E080E097
:101760000E943321109197016EE571E080E092E0D4
:101770000E944F321F921F9380E092E09F938F93BD
:101780008E010F5F1F4F1F930F930E94AE2F0F907C
:101790000F900F900F900F900F90809199018111F1
:1017A0000DC080919201882349F06BE571E080E0E3
:1017B00092E00E944F3280E092E001C0C8010E9496
:1017C00031218AE30E942022F090960166E571E0C3
:1017D00080E092E00E944F321F92FF9280E092E000
:1017E0009F938F931F930F930E94AE2F0F900F9094
:1017F0000F900F900F900F9080919901813069F4B4
:1018000080919201882349F063E571E080E092E0E5
:101810000E944F3280E092E001C0C8010E94312155
:1018200080919901823031F480919201882311F0E6
:1018300080E207C080919301811102C081E401C060
:1018400080E50E942022F09091016EE471E080E03A
:1018500092E00E944F321F92FF9280E092E09F93AD
:101860008F931F930F930E94AE2F0F900F900F90A6
:101870000F900F900F9080919901833069F48091BF
:101880009201882349F06AE471E080E092E00E94CE
:101890004F3280E092E001C0C8010E9431218DE208
:1018A0000E94202280919901843069F480919201F4
:1018B000882349F066E471E080E092E00E944F32B4
:1018C00080E092E019C02091900183E0289F900170
:1018D0001124A4E8B1E080E090E0FC01E20FF31FE6
:1018E000E95EFE4FE491ED93019683309105A9F7EF
:1018F0001092870184E891E00E9431218DE20E94DC
:10190000202280918E0190918F0164E670E00E9408
:10191000D62BF82EE92E62E471E080E092E00E947E
:101920004F32EF92FF9280E092E09F938F931F934C
:101930000F930E94AE2F0F900F900F900F900F906B
:101940000F9080919901853069F4809192018823EC
:1019500049F06FE371E080E092E00E944F3280E056
:1019600092E001C0C8010E94312107C090E1C91A6C
:101970009EE0D90AE108F10889CC62960FB6F89486
:10198000DEBF0FBECDBFDF91CF911F910F91FF90B2
:10199000EF90DF90CF90BF90AF909F908F907F900F
:1019A0006F905F904F900895833081F028F48130DC
:1019B00099F08230A1F008958730A9F08830B9F00D
:1019C0008430D1F4809180008F7D03C080918000AD
:1019D0008F7780938000089584B58F7702C084B597
:1019E0008F7D84BD08958091B0008F7703C0809172
:1019F000B0008F7D8093B00008953FB7F894809138
:101A0000F1019091F201A091F301B091F40126B59A
:101A1000A89B05C02F3F19F00196A11DB11D3FBF26
:101A2000BA2FA92F982F8827820F911DA11DB11DB4
:101A3000BC01CD0142E0660F771F881F991F4A95B0
:101A4000D1F70895089580918C0390E020918D0343
:101A5000821B9109089585ED8093BC008091BC00A4
:101A600084FDFCCF1092C40208954091BD01262F41
:101A700030E0240F311D21323105DCF42091C40205
:101A80002430C9F4FC0180E090E0861758F43091CE
:101A9000BD012191DC01A556BE4FA30FB11D2C93B2
:101AA0000196F3CF8091BD01680F6093BD0180E086
:101AB000089581E0089582E008950895E0918D03EE
:101AC00080918C03E81730F4F0E0E258FD4F8081FC
:101AD00090E008958FEF9FEF089590918D0380918E
:101AE0008C03981750F4E92FF0E0E258FD4F208165
:101AF00030E09F5F90938D0302C02FEF3FEFC9014D
:101B00000895CF92DF92EF92FF920F931F93CF939E
:101B1000DF937C01262F972F8A018091E50288238D
:101B200091F0C62FD72F6E01C40ED51ECC15DD0542
:101B300071F06991D701ED91FC910190F081E02D58
:101B4000C7010995F3CF642F822F0E94350DC8017C
:101B5000DF91CF911F910F91FF90EF90DF90CF9089
:101B60000895CF93DF931F92CDB7DEB7698320919D
:101B7000E5022223D1F020918A03203240F021E0B7
:101B800030E0FC013383228380E090E015C0809137
:101B90008B03E82FF0E0EB53FD4F998190838F5F2B
:101BA00080938B0380938A0305C061E0CE01019688
:101BB0000E94350D81E090E00F90DF91CF91089564
:101BC000CF93DF93282F30E0F901ED5DFC4F849136
:101BD000F901ED52FE4FD491F901E154FE4FC49149
:101BE000CC2391F081110E94D40CEC2FF0E0EE0F89
:101BF000FF1FEB54FE4FA591B491EC91ED2381E0D2
:101C000090E021F480E002C080E090E0DF91CF918D
:101C100008951F93CF93DF93282F30E0F901ED5DF6
:101C2000FC4F8491F901ED52FE4FD491F901E1543A
:101C3000FE4FC491CC23C9F0162F81110E94D40C01
:101C4000EC2FF0E0EE0FFF1FE555FE4FA591B4918C
:101C50008FB7F894111105C09C91ED2FE095E92301
:101C600002C0EC91ED2BEC938FBFDF91CF911F91D0
:101C70000895CF93DF9390E0FC01ED52FE4F249145
:101C8000FC01E154FE4F8491882361F190E0880FBC
:101C9000991FFC01EF55FE4FC591D491FC01E5550C
:101CA000FE4FA591B491611109C09FB7F894888146
:101CB000209582238883EC912E230BC0623061F43F
:101CC0009FB7F8943881822F809583238883EC9185
:101CD0002E2B2C939FBF06C08FB7F894E8812E2B34
:101CE00028838FBFDF91CF9108958E3008F08E50FA
:101CF0008770806480937C0080917A0080648093F8
:101D00007A0080917A0086FDFCCF80917800209146
:101D1000790090E0922B08958F929F92AF92BF929C
:101D2000CF92DF92EF92FF926B017C010E94FD0C3B
:101D30004B015C01C114D104E104F104F1F00E94F3
:101D4000FD0CDC01CB0188199909AA09BB09883E61
:101D50009340A105B10570F321E0C21AD108E10852
:101D6000F10888EE880E83E0981EA11CB11CC114F6
:101D7000D104E104F10419F7DDCFFF90EF90DF907B
:101D8000CF90BF90AF909F908F9008952FB7F89409
:101D90006091ED017091EE018091EF019091F00161
:101DA0002FBF08951F920F920FB60F9211242F93F9
:101DB0003F938F939F93AF93BF938091ED01909149
:101DC000EE01A091EF01B091F0013091EC0123E020
:101DD000230F2D3720F40196A11DB11D05C026E863
:101DE000230F0296A11DB11D2093EC018093ED01FC
:101DF0009093EE01A093EF01B093F0018091F10177
:101E00009091F201A091F301B091F4010196A11D0E
:101E1000B11D8093F1019093F201A093F301B0936F
:101E2000F401BF91AF919F918F913F912F910F90AE
:101E30000FBE0F901F9018951F920F920FB60F9222
:101E400011242F933F934F935F936F937F938F93BF
:101E50009F93AF93BF93EF93FF93E0910201F091B3
:101E600003010995FF91EF91BF91AF919F918F91E0
:101E70007F916F915F914F913F912F910F900FBE86
:101E80000F901F9018951F920F920FB60F9211246A
:101E90002F933F934F935F936F937F938F939F9372
:101EA000AF93BF93EF93FF93E0910001F091010195
:101EB0000995FF91EF91BF91AF919F918F917F9184
:101EC0006F915F914F913F912F910F900FBE0F90A7
:101ED0001F901895CF93682F082E000C770B77FF73
:101EE00003C0719561957109C62FCF7187FFC062DC
:101EF00088E60E946D2067E08EE893E00E94B10DB5
:101F00006C2F8EE893E00E94B10DCF910C94772056
:101F10006093F9017093FA018093FB019093FC01A7
:101F2000DC01CB01845D9E4FAF4FBF4F8093F50125
:101F30009093F601A093F701B093F80182E090E04E
:101F40009093EB018093EA010E94C60E6093E60134
:101F50007093E7018093E8019093E9010895CF928F
:101F6000DF92EF92FF920F931F930E94C60EC090D4
:101F7000E601D090E701E090E801F090E9018B01E3
:101F80009C010C191D092E093F098091F9019091BE
:101F9000FA01A091FB01B091FC01083E134021051C
:101FA0003105D0F00196A11DB11D8093F9019093E8
:101FB000FA01A093FB01B093FC01B701A6014851BF
:101FC0005C4F6F4F7F4F4093E6015093E701609362
:101FD000E8017093E901C9CF4091F5015091F601F4
:101FE0006091F7017091F80184179507A607B7076C
:101FF00088F1E091FD01F091FE01309759F10995CA
:10200000611571058105910519F00E94880F22C0A4
:102010008091F9019091FA01A091FB01B091FC012E
:10202000845D9E4FAF4FBF4F8093F5019093F601B3
:10203000A093F701B093F80181E090E02091EA01CC
:102040003091EB01232B11F480E090E09093EB01B1
:102050008093EA016091F9017091FA018091FB018E
:102060009091FC011F910F91FF90EF90DF90CF9026
:1020700008956F927F928F929F92AF92BF92CF926C
:10208000DF92EF92FF920F931F93CF93DF93EC01B8
:10209000EE81AE2FB0E020E833E341EE51E00E9444
:1020A0008B324B015C0122EB37E0FD0104E610E0CE
:1020B00080E9E82EFF24F394C901825B97408E17D4
:1020C0009F07DCF4C90183709927892B99F4C90112
:1020D000B8010E94EA2B892B31F4C901B7010E9493
:1020E000EA2B892B39F480E8880E81E5981E81E07F
:1020F000A81EB11C2F5F3F4FDFCF6D80712CEE54B7
:10210000F84FCF0164E670E00E94EA2B7C01CF011A
:1021100060E971E00E94EA2B6C0101E010E0E370DD
:10212000FF27061517052CF50230110581F43097AD
:1021300071F4E114F10419F4C114D10441F480E8FC
:10214000880E8BE3981E86E2A81EB11C0FC0D80132
:10215000AB5EBE4FAC91B0E020E831E541E050E02D
:102160000E948B32860E971EA81EB91E0F5F1F4F4E
:10217000D8CF49812A8130E0A0E1BEE00E94C03280
:102180006B017C01242F30E0ACE3B0E00E94C03250
:10219000DC01CB018C0D9D1DAE1DBF1D28816C0186
:1021A0007D01C20ED11CE11CF11CAC81B0E0119785
:1021B00020E831E541E050E00E949632DC01CB019D
:1021C0008C0D9D1DAE1DBF1DBC01CD01680D791D7F
:1021D0008A1D9B1DDF91CF911F910F91FF90EF9072
:1021E000DF90CF90BF90AF909F908F907F906F9037
:1021F00008951F93CF93DF93CDB7DEB727970FB620
:10220000F894DEBF0FBECDBF88E60E946D2060E06F
:102210008EE893E00E94B10D0E947720882319F088
:1022200010929A0183C081E080939A0167E070E088
:1022300088E690E00E94D42080918C0390E0209169
:102240008D03821B910907970CF470C08EE893E010
:102250000E946D0D182F8695869586958E70982F05
:10226000990F990F890F912F9F70890F89838EE89D
:1022700093E00E946D0D282F22952F70982F9F704C
:102280008AE0289F900D11249A838EE893E00E94A3
:102290006D0D982F282F2695269526952670822F2E
:1022A000880F880F280F9F70920F9B838EE893E012
:1022B0000E946D0D282F22952F70982F9F708AE015
:1022C000289F900D11249C838EE893E00E946D0D51
:1022D000282F22952F70982F9F708AE0289F900DAD
:1022E00011249D838EE893E00E946D0D282F229586
:1022F0002F70982F9F708AE0289F900D11249E8345
:102300008EE893E00E946D0D982F9F70925E282FAB
:1023100022952F708AE0289F900D11249F8317FD2E
:1023200005C0CE0101960E94391003C060E070E044
:10233000CB0127960FB6F894DEBF0FBECDBFDF915D
:10234000CF911F9108956F927F928F929F92AF923B
:10235000BF92CF92DF92EF92FF920F931F93CF9392
:10236000DF93EA012CE3C22ED12CE12CF12CA70142
:1023700096010E949E326883CA01B901A7019601A5
:102380000E949E326983CA01B90128E130E040E031
:1023900050E00E949E3269017A016A83CA01B90144
:1023A0006C5F7F4F8F4F9F4F27E030E040E050E061
:1023B0000E949E326F5F6B83812C912C540140E010
:1023C00034E6632E712C00E911E0242F30E02E5406
:1023D000384FF901E370FF27309789F4C901B30141
:1023E0000E94EA2B892B31F4C901B8010E94EA2B23
:1023F000892B29F48EE691E0A0E0B0E004C08DE6E0
:1024000091E0A0E0B0E0880E991EAA1EBB1ED50187
:10241000C401AA27BB27C816D906EA06FB0610F096
:102420004F5FD3CF4E83309799F4C90164E670E0D3
:102430000E94EA2B892B39F4C90160E971E00E94FE
:10244000EA2B892B29F48EE691E0A0E0B0E004C0ED
:102450008DE691E0A0E0B0E0881A990AAA0ABB0ACA
:10246000C818D908EA08FB08C90164E670E00E94B0
:10247000EA2B8C01C90160E971E00E94EA2BA6E118
:10248000B1E020E0213041F4309751F401151105FD
:1024900029F4009729F402C04C9103C04DE101C01A
:1024A0004CE150E060E070E0C416D506E606F706A1
:1024B00040F0C41AD50AE60AF70A2F5F11962C30AD
:1024C00009F72F5F2D83C394CC82DF91CF911F91A9
:1024D0000F91FF90EF90DF90CF90BF90AF909F90C3
:1024E0008F907F906F900895CF92DF92EF92FF923E
:1024F000C090E201D090E301E090E401F090E501AA
:102500006C157D058E059F0571F06B017C0146EE13
:1025100052E00E94A311C092E201D092E301E09246
:10252000E401F092E501FF90EF90DF90CF900895E5
:10253000CF92DF92EF92FF92CF936B017C019B01D0
:10254000AC016EEF7FEF81E090E00E94BA2B9B011F
:10255000AC0160E074E284EF90E00E949E32C0E043
:10256000EC2FF0E0EE0FFF1FE359FE4F80819181C9
:10257000CF5F82179307A0F3A7019601220F331FA5
:10258000441F551FEC2FF0E0EE0FFF1FE359FE4FE5
:10259000A081B1810E948B329B01AC0160E074E2AA
:1025A00084EF90E00E949E32309387002093860053
:1025B00080918100C770887FC82BC093810081E023
:1025C000CF91FF90EF90DF90CF900895682F8EE825
:1025D00093E00C94B10DCF93DF931F92CDB7DEB78C
:1025E000FC018185806269830E946D2089E00E94E0
:1025F000E6126981862F0E94E6120E9477208111DF
:10260000FCCF0F90DF91CF910895CF93DF931F926E
:10261000CDB7DEB7FC018185806269830E946D20A1
:1026200083E10E94E6126981862F0E94E6120E94D1
:1026300077208111FCCF0F90DF91CF910895FF9209
:102640000F931F93CF93DF938C01C62FF42EFC01C1
:1026500086858130B1F56585C4FD6061C5FD686022
:10266000C6FD6460C7FD6260D62FFF2011F0D06AFE
:1026700001C0D0626D2FC8010E9405136D2F6F7DC0
:10268000C8010E940513F8016585C0FD6061C1FDA8
:102690006860C2FD6460C3FD6260C62FFF2011F058
:1026A000C06A01C0C0626C2FC8010E9405136C2F64
:1026B0006F7DC801DF91CF911F910F91FF900C9416
:1026C0000513607F70E075956795442311F066608F
:1026D00001C06460F801858183FD02C0D0E001C0C3
:1026E000D0E8D62B6D2FC8010E94EB126D2F6B7FA7
:1026F000C8010E94EB12CF70CC0FCC0FCC0FFF2083
:1027000011F0C66001C0C460F801858183FD02C07C
:1027100060E001C060E8C62B6C2FC8010E94EB127C
:102720006C2F6B7FC801DF91CF911F910F91FF90AC
:102730000C94EB12FC012385222319F041E00E9446
:102740001F1381E090E008951F920F920FB60F9231
:1027500011242F933F934F935F936F937F938F93A6
:102760009F93AF93BF93EF93FF938091B900887FBE
:10277000803609F49CC068F5883209F45BC090F497
:10278000803109F454C038F4882309F4F6C0883045
:1027900009F44DC0F6C0883109F44CC0803209F408
:1027A0005DC0EFC0803409F468C048F4803309F498
:1027B00055C0883309F0E5C08093C202D8C0803587
:1027C00009F44FC0883509F45DC0883409F0D9C0D8
:1027D000D6C0883909F4C7C0A8F4883709F467C09F
:1027E00038F4883609F463C0803709F460C0C9C082
:1027F000883809F4B8C0803909F45FC0803809F01E
:10280000C0C05BC0803B09F486C038F4803A09F44C
:1028100066C0883A09F47FC0B4C0803C09F4A7C000
:10282000883C09F4A4C0883B09F48AC0AAC08091FE
:102830009F0210C09091C1028091C002981770F55C
:10284000E091C10281E08E0F8093C102F0E0E0567A
:10285000FD4F80818093BB0085EC86C08093C202CF
:102860008EC0E091C10281E08E0F8093C102809101
:10287000BB00F0E0E056FD4F80839091C102809153
:10288000C0026EC0E091C10281E08E0F8093C10250
:102890008091BB00F0E0E056FD4F80838091C30241
:1028A00081116DC081E080939E0284EA61C083E063
:1028B0008093C4021092E101CFCF8091E101803278
:1028C00008F051C0E091E10181E08E0F8093E101B9
:1028D0008091BB00F0E0EF53FE4F8083BDCF85ECCD
:1028E0008093BC001092C4028091E101803230F4E8
:1028F000E091E101F0E0EF53FE4F10826091E101C1
:1029000070E0E091BF01F091C00181EC91E0099588
:102910001092E10136C084E08093C4021092BE019F
:102920001092BD01E091BB01F091BC01099580912D
:10293000BD01811105C081E08093BD0110929B0112
:10294000E091BE0181E08E0F8093BE01F0E0E5567C
:10295000FE4F80818093BB009091BE018091BD01AC
:10296000981708F479CF85E88093BC000AC085ECFD
:102970008093BC001092C40204C01092C2020E9454
:102980002B0DFF91EF91BF91AF919F918F917F910F
:102990006F915F914F913F912F910F900FBE0F90CC
:1029A0001F9018951092C40281E08093C302109288
:1029B0009E0261E082E10E94090E61E083E10E94D3
:1029C000090EE9EBF0E080818E7F808380818D7F2E
:1029D000808388E48093B80085E48093BC000895E8
:1029E0002F923F924F925F926F927F928F929F921F
:1029F000AF92BF92CF92DF92EF92FF920F931F930D
:102A0000CF93DF9300D000D0CDB7DEB71C012A01F1
:102A10003B0148015901DC011C968D919D910D905F
:102A2000BC91A02D89839A83AB83BC83A9019801B3
:102A3000BC01CD010E94042C6B017C0120E030E040
:102A4000A9010E94312E181624F4F7FAF094F7F831
:102A5000F094F1012081318142815381C701B60197
:102A60000E94762C0E94F02C6B017C0129813A8116
:102A70004B815C81C501B4010E94312E18167CF592
:102A8000D10118962D913D914D915C911B97C701F5
:102A9000B6010E94AC2EA30192010E94052CF10107
:102AA000608771878287938724813581468157812A
:102AB000C701B6010E94AC2E20E030E040E85FE3A1
:102AC0000E94052CD10114966D937D938D939C9358
:102AD0001797F10184869586A686B78625C0A3013F
:102AE0009201C701B6010E94AC2E9B01AC01D1013D
:102AF00018966D917D918D919C911B970E94052C4C
:102B0000F1016087718782879387A70196016481AD
:102B10007581868197810E94052CD10114966D9351
:102B20007D938D939C9317970F900F900F900F901C
:102B3000DF91CF911F910F91FF90EF90DF90CF9099
:102B4000BF90AF909F908F907F906F905F904F90CD
:102B50003F902F900895CF92DF92EF92FF92CF9304
:102B6000DF93EC016A017B0161E070E00E94F702F3
:102B700064E070E089819A810E94F702C092460465
:102B8000D0924704E0924804F0924904888190E092
:102B90002F8D211103C028E130E002C020E230E097
:102BA000822B932B0E94C604E981FA818081886080
:102BB00090E0DF91CF91FF90EF90DF90CF900C9459
:102BC000C604CF92DF92EF92FF920F931F93CF93A1
:102BD000DF936C017A018B01C0E0D0E0CE15DF05F8
:102BE00089F0D8016D918D01D601ED91FC91019094
:102BF000F081E02DC6010995892B11F47E0102C0F8
:102C00002196ECCFC701DF91CF911F910F91FF90DB
:102C1000EF90DF90CF9008950E94792F8DEE92E093
:102C20000E94A12121E0892B09F420E0822F089540
:102C30001F920F920FB60F9211242F933F934F9331
:102C40005F936F937F938F939F93AF93BF93EF9314
:102C5000FF938DEE92E00E94C722FF91EF91BF910A
:102C6000AF919F918F917F916F915F914F913F9124
:102C70002F910F900FBE0F901F9018951F920F92DB
:102C80000FB60F9211242F938F939F93EF93FF937F
:102C9000E091FD02F091FE028081E0910303F0914A
:102CA000040382FD12C09081809106038F5F8F73B1
:102CB00020910703821751F0E0910603F0E0E35101
:102CC000FD4F958F8093060301C08081FF91EF91A6
:102CD0009F918F912F910F900FBE0F901F9018957D
:102CE000CF92DF92EF92FF920F931F93CF93DF93D8
:102CF000CDB7DEB761970FB6F894DEBF0FBECDBF7C
:102D0000182F0E94FE019C01112329F00E947021BE
:102D100010926F023AC090916F0290FF05C0A5E13A
:102D2000B4E0E7E1F4E004C0A4E1B4E0E6E1F4E0FB
:102D30002130310521F022303105A9F0BDC092309B
:102D400018F0943010F507C08C918F5F86300CF02E
:102D50008BEF8C931AC080818150863F14F0808362
:102D600014C0108212C09F5F90936F02943068F07D
:102D70008EEF93E00E9401068BE697E190930501A8
:102D8000809304011092670297C080916F0280FFC8
:102D90000BC00DE711E045E1C42E44E0D42E57E10D
:102DA000E52E54E0F52E0AC00BE711E024E1C22E17
:102DB00024E0D22E36E1E32E34E0F32E823090F17F
:102DC000843008F079C00E94702165E572E080E0EF
:102DD00092E00E944F3280E092E00E94312161E057
:102DE00080E00E943321F701F080CF2C0F2C000CE3
:102DF000DD0867E472E080E092E00E944F32DF92EB
:102E0000FF921F930F9380E092E09F938F931F9206
:102E100081E18F938E010F5F1F4F1F930F930E94CD
:102E20007E2F42C00E94702162E772E080E092E053
:102E30000E944F3280E092E00E94312161E080E008
:102E40000E943321F6012081822F022E000C990B63
:102E500097FF03C0919581959109D82EC92E27FD22
:102E600005C091E8E92E91E0F92E04C08FE7E82E25
:102E700081E0F82E62E672E080E092E00E944F323C
:102E8000CF92DF92FF92EF921F930F9380E092E038
:102E90009F938F931F9281E18F938E010F5F1F4F3E
:102EA0001F930F930E947E2FC8010E9431210FB6FD
:102EB000F894DEBF0FBECDBF61960FB6F894DEBFAB
:102EC0000FBECDBFDF91CF911F910F91FF90EF907B
:102ED000DF90CF900895CF93C82F0E94FE01CC239E
:102EE00061F083E00E94B7210E94702187EE93E099
:102EF00090937702809376021FC0009709F443C233
:102F000081309105B1F4809174029091750201961F
:102F10009093750280937402209172023091730233
:102F20002817390708F0DFC010927502109274025A
:102F3000DAC0029709F0D7C0E0917602F0917702EB
:102F4000E730F10508F066C0E05CFF4F0C94FE2B03
:102F500080917402809300040CC0E0917402F0919F
:102F60007502E65BFE4F808190E0909302048093AF
:102F700001048EEF93E00E9401064CC08091740220
:102F800090917502892B09F045C082E398E09093F7
:102F900005018093040181E0CF910C94320881E017
:102FA0002091740230917502232B09F080E0809308
:102FB0000304DFCF8091740290917502892B51F543
:102FC00089E296E0909305018093040181E0CF911E
:102FD0000C9429068091740290917502892BD1F48A
:102FE00080E796E1909305018093040181E0CF9101
:102FF0000C9470168091740290917502892B19F4CB
:1030000010926702C0C187EE93E09093770280939D
:103010007602B9C18091760290917702019687304D
:10302000910528F4909377028093760204C0109261
:10303000770210927602E0917602F0917702E73003
:10304000F10508F048C0E95BFF4F0C94FE2B80911E
:10305000000490E0909375028093740236C06091F2
:10306000010470910204EAE4F1E050E040E080E005
:1030700090E0219130E06217730711F4582F492F27
:1030800001968B309105A9F7509374024093750215
:103090008AE090E01CC081E090E0909373028093FE
:1030A000720290910304892790E0909375028093B7
:1030B000740211C081E090E09093750280937402D5
:1030C00006C0109275021092740281E090E0909315
:1030D00073028093720280917402909175029093B2
:1030E0007102809370020E947021E0917602F0914B
:1030F0007702E730F10508F046C1E25BFF4F0C9420
:10310000FE2B63E073E080E092E00E944F3280E0AB
:1031100092E00E94312161E080E00E943321209101
:10312000740230917502809170029091710228179B
:10313000390711F080E201C08BE20E9420228091C9
:10314000740290917502009731F0019709F01BC14C
:1031500061EF72E00FC16CEF72E00CC162EE72E0E1
:1031600080E092E00E944F3280E092E00E943121A4
:1031700061E080E00E943321209174023091750259
:1031800080917002909171022817390711F080E246
:1031900001C08BE20E942022E0917402F09175023E
:1031A000E65BFE4F608170E080E090E04AE00E94C4
:1031B0002B226CED72E0DEC061ED72E080E092E007
:1031C0000E944F3280E092E00E94312161E080E075
:1031D0000E94332120917402309175028091700217
:1031E000909171022817390711F080E201C08BE23B
:1031F0000E9420228091740290917502009731F014
:10320000019709F0C0C06AEC72E0B4C06DEC72E0E6
:10321000B1C06EEB72E080E092E00E944F3280E03D
:1032200092E00E94312161E080E00E9433212091F0
:10323000740230917502809170029091710228178A
:10324000390711F080E201C08BE20E9420228091B8
:10325000740290917502009731F0019709F093C0C4
:1032600067EB72E087C06AEB72E084C068EA72E0E4
:1032700080E092E00E944F3280E092E00E94312193
:1032800061E080E00E943321209174023091750248
:1032900080917002909171022817390711F080E235
:1032A00001C08BE20E9420228091740290917502ED
:1032B000009731F0019709F066C061EA72E05AC0E8
:1032C00064EA72E057C064E972E080E092E00E9434
:1032D0004F3280E092E00E94312161E080E00E9464
:1032E0003321209174023091750280917002909187
:1032F00071022817390711F080E201C08BE20E94A9
:1033000020228091740290917502009729F0019714
:10331000D1F56DE872E02EC060E972E02BC061E883
:1033200072E080E092E00E944F3280E092E00E94E2
:10333000312161E080E00E943321209174023091BC
:10334000750280917002909171022817390711F06F
:1033500080E201C08BE20E94202280917402909151
:103360007502009729F0019771F46AE772E002C0D4
:103370006DE772E080E092E00E944F3280E092E0E0
:10338000CF910C943121CF9108950F931F93CF9338
:10339000DF93EC018B899C89AD89BE89892B8A2BAF
:1033A0008B2B89F00E94C60E0B891C892D893E89C2
:1033B000DC01CB01801B910BA20BB30B8539914132
:1033C000A105B105D8F48F89988DA98DBA8D892B67
:1033D0008A2B8B2B09F448C00E94C60E0F89188DCA
:1033E000298D3A8DDC01CB01801B910BA20BB30B15
:1033F000893B9B40A105B10580F436C01B8A1C8A1D
:103400001D8A1E8A8881806190E00E94C60461E066
:1034100070E0CE010E94F903D6CF1F8A188E198E54
:103420001A8E60E070E0CE010E94F9038091610283
:10343000882329F08881886090E00E94C6048981F1
:103440009A810E94DE03E981FA81811104C0858599
:103450009685029749F464E070E0CF01DF91CF9147
:103460001F910F910C94F702DF91CF911F910F9153
:1034700008952F923F924F925F926F927F928F9218
:103480009F92AF92BF92CF92DF92EF92FF920F93F3
:103490001F93CF93DF93CDB7DEB72F970FB6F89476
:1034A000DEBF0FBECDBFFC0183859485019721F45B
:1034B00085859685059749F51786108A118A128A9F
:1034C00016A617A610AA11AA12A613A614A615A628
:1034D00016A217A210A611A62F960FB6F894DEBF5B
:1034E0000FBECDBFDF91CF911F910F91FF90EF9055
:1034F000DF90CF90BF90AF909F908F907F906F9014
:103500005F904F903F902F9008958081813021F4FB
:10351000409014044D8203C0509015045D82FF87D3
:10352000EE870E94C60E6E837F8388879987212C41
:10353000312CCC24CA94DC2C760119821A821B828D
:103540001C8200E010E0812C912C54010E94C60ED8
:10355000AB01BC01DB01CA014E805F8068847984C5
:1035600084199509A609B7098397A105B10508F043
:1035700087C0EE85FF8581854C875D876A877B875D
:103580000E94750E2C01990F660877084C855D85A1
:103590006A857B85FFEFCF16DF06EF06FF0641F158
:1035A00081E021E0C21622E0D206E104F1040CF42D
:1035B00080E091E031E0431632E05306610471048B
:1035C0000CF490E08917A1F0DB01CA01C980DA8010
:1035D000EB80FC808C199D09AE09BF090697A105F7
:1035E000B10530F00F5F1F4F49835A836B837C8393
:1035F0000130110508F441C00330110520F00330FB
:10360000110591F03AC0C301B201725081099109CC
:103610009B01AC010E94BA2B860E971EA81EB91EF4
:103620002FEF221A320A29C0910140E050E0C50173
:10363000B4010E949E32CA01B9010E94582D0E9415
:103640001F2F0E94292D9B01AC01AAE6B0E00E9429
:103650008B32693833E1730781059105A8F04D81FC
:10366000E4E64E02600111240D2C000CEE08FF0868
:10367000C60ED71EE81EF91E09C07301620166CF8F
:10368000C12CD12C760102C06B017C010E94C60EB8
:10369000EE85FF85038D148D258D368D2B013C0124
:1036A000401A510A620A730A49EE441643E054066E
:1036B0006104710420F0638F748F858F968F209141
:1036C000010430910204A8EEB3E00E94C032EE85FE
:1036D000FF8520A131A12330310529F021E030E020
:1036E00040E050E004C022E030E040E050E00E94C2
:1036F0009E32DA01C90188519C4FAF4FBF4FEE8512
:10370000FF858C159D05AE05BF0508F043C0878574
:103710009089A189B289892B8A2B8B2B49F40E942D
:10372000C60EEE85FF856787708B818B928B36C0C6
:103730000E94C60EEE85FF85078510892189328992
:10374000DC01CB01801B910BA20BB30B813A9F4094
:10375000A105B10518F1EE85FF858081886690E0AE
:103760002F960FB6F894DEBF0FBECDBFDF91CF917D
:103770001F910F91FF90EF90DF90CF90BF90AF908F
:103780009F908F907F906F905F904F903F902F9081
:103790000C945F051786108A118A128A0E94C60E41
:1037A0000E94582D4B015C01C701B6010E94582DA3
:1037B000AB01BC01950184018E859F8582960E9494
:1037C000F014EE85FF858081880F880F880F61E0F7
:1037D00088500E943321EE85FF858081805C0E94A5
:1037E00020228AE30E942022EE85FF85C6A0D7A072
:1037F000E0A4F1A420E030E0A901C701B6010E94D5
:10380000312E18165CF42DEB37E346E855E3C7017B
:10381000B6010E94712C87FF0BC015C02DEB37E35A
:1038200046E855EBC701B6010E94312E18165CF030
:10383000A7019601EE85FF8562A573A584A595A5D0
:103840000E94762C03C060E070E0CB010E94292D1D
:103850006B017C012AE030E040E050E00E949E32A3
:10386000F8EECF16F3E0DF06E104F104B8F462E10C
:1038700073E080E092E02A873B874C875D870E9457
:103880004F32AAE0B0E02A853B854C855D850E94D9
:103890008B329F938F937F936F9331C0CA01B9018D
:1038A00024E630E040E050E00E949E32CB016AE026
:1038B00070E00E94EA2B21E030E0059714F420E04C
:1038C00030E05B01A20EB31EC701B60128EE33E063
:1038D00040E050E00E949E3289018AE0A816B104BF
:1038E00021F40F5F1F4FA12CB12C69E173E080E040
:1038F00092E00E944F32BF92AF921F930F9380E0ED
:1039000092E09F938F9388E792E09F938F930E941A
:10391000AE2F0FB6F894DEBF0FBECDBF88E792E0A2
:103920002F960FB6F894DEBF0FBECDBFDF91CF91BB
:103930001F910F91FF90EF90DF90CF90BF90AF90CD
:103940009F908F907F906F905F904F903F902F90BF
:103950000C943121EF92FF920F931F93CF93DF933B
:10396000EC018B01809161028111B3C18D859E852F
:103970008530910509F4FEC16817790709F40DC275
:1039800080910004882321F0813009F49DC005C294
:103990007E876D876530710540F46330710508F0EE
:1039A00047C06130710530F4F8C16530710509F424
:1039B00080C1F3C160E070E0CE010E94F9030130E4
:1039C000110549F089819A810E94DE03811106C0A8
:1039D00064E070E005C061E070E002C063E070E0A8
:1039E000CE010E94F702888190E00130110519F0A4
:1039F00028E030E002C020E030E0822B932B0E94D0
:103A0000C6041B8A1C8A1D8A1E8A89819A81FC0130
:103A100020A131A12330310509F0BFC164E070E07D
:103A2000DF91CF911F910F91FF90EF900C94F702CF
:103A3000CE010E94DE038111B0C189819A810E946A
:103A4000DE038823E1F00E94C60E6B8B7C8B8D8B8E
:103A50009E8B63E070E089819A810E94F70263E0A7
:103A600070E0CE010E94F7028881886190E0DF91CA
:103A7000CF911F910F91FF90EF900C94C604898114
:103A80009A81FC0120A131A12430310521F463E0A9
:103A900070E00E94F70264E070E0CE010E94F7023D
:103AA0001B8A1C8A1D8A1E8A8881806190E00E9480
:103AB000C60461E070E0CE01DF91CF911F910F91BC
:103AC000FF90EF900C94F903E981FA81E584F68484
:103AD0006530710558F46330710508F0CAC0613073
:103AE000710549F06230710591F1F0C065307105E2
:103AF00009F4DFC0EBC060E070E0CE010E94F90382
:103B000061E070E0CE010E94F7021092460410922C
:103B100047041092480410924904F2E0EF16F104B1
:103B200069F464E070E089819A810E94F702E9817A
:103B3000FA818081886090E00E94C604888190E0CC
:103B40000E94C6041F8EE981FA81178EBFC060E013
:103B500070E0CE010E94F9038D859E850397029740
:103B600008F044C082E0E816F10491F5E981FA8199
:103B7000878D81110BC061E070E0CE010E94F702D9
:103B800064E070E089819A810E94F702E981FA81FC
:103B9000808190E0278D211103C028E030E002C031
:103BA00020E230E0822B932B0E94C6048881806241
:103BB00090E00E94C60481E08F8F0E94C60E609341
:103BC00046047093470480934804909349047EC050
:103BD0008881886090E00E94C6041092460410928A
:103BE0004704109248041092490470C0E1E0EE16B8
:103BF000F10491F464E070E0CE010E94F7021F8EA0
:103C0000E981FA81178E10924604109247041092AF
:103C10004804109249041BC0E894E1F88881EF2819
:103C2000E1F4909160029813B8C09F8D911115C076
:103C300064E070E0CE010E94F7020E94C60E60931D
:103C40004604709347048093480490934904888104
:103C5000886090E00E94C60439C090E02F8D211149
:103C600003C028E130E002C020E230E0822B932B39
:103C7000F1CFCE010E94DE03811128C088A199A155
:103C8000049721F08881886E90E018C01092460455
:103C90001092470410924804109249048881806170
:103CA00090E00E94C60461E070E0CE010E94F9033A
:103CB0000DC08881886290E080649160DF91CF912F
:103CC0001F910F91FF90EF900C945F051E870D8759
:103CD00064C06130710509F05CC0888190E00E9489
:103CE000C6041E870D878F89988DA98DBA8D892B63
:103CF0008A2B8B2BA9F01F8A188E198E1A8E60E0E2
:103D000070E0CE010E94F90389819A810E94DE034E
:103D1000E981FA81811128C085859685029721F174
:103D2000809161028823C9F102301105B1F58D85BA
:103D30009E85019729F48881809360021E870D87F4
:103D40002881822F886090E030910004313039F46E
:103D500030916002321303C024E030E002C020E062
:103D600030E0822B932B83CE64E070E0CF010E9481
:103D7000F702D6CF6130710561F41E861D86E98198
:103D8000FA8185859685019709F0ADCF1092FF01E4
:103D9000AACF0230110509F4A6CFDF91CF911F9170
:103DA0000F91FF90EF9008952F923F924F925F9264
:103DB0006F927F928F929F92AF92BF92CF92DF923B
:103DC000EF92FF920F931F93CF93DF93CDB7DEB7A0
:103DD00028970FB6F894DEBF0FBECDBF6B017C01F4
:103DE00020E831E541E050E00E949E322D833E8381
:103DF0004F83588781E1282E81E0382E81010550BC
:103E00001109C701B6010E9474128091EB02F10101
:103E100031979081981728F481E0D8012D913C9139
:103E200040C1891708F42FC15101B3E0AB1AB108A2
:103E3000F50180813196843009F47CC09080C701FF
:103E4000B6010E947412F501A081B0E020E83AE3C7
:103E500049E050E00E948B322B013C018091EA0244
:103E600021E030E040E050E0281B310941095109D0
:103E7000DA01C9012D813E814F815885280F391FF4
:103E80004A1F5B1F60E871E581E090E00E94BA2B59
:103E9000640D751D861D971D20E831E541E050E059
:103EA0000E949E3229013A01DA01C901890D911D52
:103EB000A11DB11D4C015D01CA01B9016C5F7F4FAD
:103EC0008F4F9F4F27E030E040E050E00E949E324D
:103ED000A5019401261B370B480B590B60E871E5CF
:103EE00081E090E00E94BA2B69837A838B839C8364
:103EF0004B015C0190E8891A91E5990A91E0A90AC1
:103F0000B108A301920160E871E581E090E00E94B0
:103F1000BA2B86169706A806B90648F489809A80B7
:103F2000AB80BC80A9EE9A0EA7E0AA1EB11CF101DD
:103F300020819AC0B080C701B6010E94741280919E
:103F4000EA022D813E814F815885281B31094109A4
:103F5000510960E871E581E090E00E94BA2B705D44
:103F6000854D9F4F20E831E541E050E00E949E32B0
:103F700029013A01C701B6010E9474128091EA0238
:103F80002D813E814F815885281B310941095109F6
:103F900060E871E581E090E00E94BA2B705D854D8C
:103FA0009F4F0E9474128091EA0221E030E040E0CD
:103FB00050E0281B310941095109240D351D461DCA
:103FC000571D60E871E581E090E00E94BA2B6058CF
:103FD00071458140910920E831E541E050E00E94BF
:103FE0009E3229013A01CA01B9016C5F7F4F8F4FA0
:103FF0009F4F27E030E040E050E00E949E32A30156
:104000009201261B370B480B590B2B0D311D411DFF
:10401000511D60E871E581E090E00E94BA2B698350
:104020007A838B839C834B015C0130E8831A31E5F2
:10403000930A31E0A30AB108A301920160E871E597
:1040400081E090E00E94BA2B681579058A059B05EE
:1040500048F489809A80AB80BC804CE8941A4AE08E
:10406000A40AB108D1012C9130E0A0E1BEE00E9489
:10407000C032860E971EA81EB91EC814D904EA04C1
:10408000FB0408F0C9CEB6E02B1A3108E5E02E1685
:10409000E1E03E0609F0B2CE81E020910C013091C2
:1040A0000D01232B09F080E028960FB6F894DEBFAF
:1040B0000FBECDBFDF91CF911F910F91FF90EF9079
:1040C000DF90CF90BF90AF909F908F907F906F9038
:1040D0005F904F903F902F90089591E09093E5026C
:1040E0008093450410928B0310928A0308952091C7
:1040F0008A0390914504213208F04AC08091C4029D
:104100008111FCCF32E03093C40231E03093C3021E
:104110003FEF3093C2021092C1022093C002A5EC7F
:10412000B2E040EA52E0FA013E2F341B321718F495
:104130003D913193F9CF10929F0220919F02990FE8
:10414000922B90939F0290919E02913061F4109275
:104150009E0290919F029093BB009091BC0093FDB2
:10416000F8CF95EC01C095EE9093BC009091C402FD
:104170009230E1F39091C2029F3F79F08091C202A8
:10418000803241F08091C202803331F084E005C07A
:1041900081E003C082E001C083E010928B031092A3
:1041A0008A031092E50208959091C4029111FCCF08
:1041B000613208F060E291E09093C4029093C302F0
:1041C0002FEF2093C2021092C102260F2093C0024B
:1041D00090939F0290919F02880F892B80939F025A
:1041E00080919E02813061F410929E0280919F0224
:1041F0008093BB008091BC0083FDF8CF85EC01C0AB
:1042000085EE8093BC008091C4028130E1F38091FF
:10421000C102861710F46091C102A0EAB2E02EE755
:1042200032E0F9018E2F821B861718F48D9181934D
:10423000F9CF10928D0360938C03862F0895009719
:1042400069F0FC0101900020E9F73197AF01481BAC
:10425000590BBC0186E394E00C94E11580E090E0FA
:1042600008950C941F21CF93DF93CDB7DEB7289725
:104270000FB6F894DEBF0FBECDBF209141042223BC
:1042800031F128E0E2E2F1E0DE01119601900D92B9
:104290002A95E1F720913D04261710F46FEF620F85
:1042A000FE013196E60FF11DE60FF11D9081682F9A
:1042B000690F606840E086E394E028960FB6F894B2
:1042C000DEBF0FBECDBFDF91CF910C941F13289698
:1042D0000FB6F894DEBF0FBECDBFDF91CF9108952A
:1042E00080914104882351F040E061E086E394E04E
:1042F0000E941F138BE39FE10197F1F70895FC01E2
:10430000918D828D981761F0828DDF01A80FB11D0C
:104310005D968C91928D9F5F9F73928F90E0089530
:104320008FEF9FEF0895FC01918D828D981731F0EA
:10433000828DE80FF11D858D90E008958FEF9FEF3E
:104340000895FC01918D228D892F90E0805C9F4F14
:10435000821B91098F739927089580E090E0892B43
:1043600029F00E940E1681110C9400000895CF933D
:10437000DF9390914104992309F457C09091400430
:10438000992311F097E08927909144049130C1F569
:1043900080FD03C020EC31E002C020E831E0309322
:1043A00043042093420481FF09C0209142043091CC
:1043B00043042F77309343042093420482FF09C0C3
:1043C00080914204909143049E7F90934304809394
:1043D0004204D0914204C091430480913F04806222
:1043E0000E946D2082E10E94E6128D2F0E94E6124B
:1043F0008C2F0E94E6120E9477208111FCCF15C0FD
:1044000090913B04882311F0986001C0977F9093AE
:104410003B0480913B04682F687083FD60E886E36D
:1044200094E0DF91CF910C94EB12DF91CF9108953E
:1044300080E1E6E4F4E0DF011D928A95E9F7089552
:10444000E0913604F09137040190F081E02D682F5F
:1044500086E394E009948F929F92AF92BF920F935C
:104460001F93CF93DF93CDB7DEB7A1970FB6F89424
:10447000DEBF0FBECDBF19A2423008F44AE08E0164
:104480000F5D1F4F842E912CA12CB12CA5019401FE
:104490000E949E32E62FB901CA0101501109EA308B
:1044A00014F4E05D01C0E95CD801EC93232B242BCC
:1044B000252B61F7C8010E941F21A1960FB6F89421
:1044C000DEBF0FBECDBFDF91CF911F910F91BF9087
:1044D000AF909F908F900895CF92DF92EF92FF92CE
:1044E0000F931F93CF93E82F880FFF0BED5DFC4FC9
:1044F000E4918DEF8E0F823068F468EE73E080E017
:1045000090E0CF911F910F91FF90EF90DF90CF90AF
:104510000C949812E83091F5C0E00FE110E0C12C46
:1045200094E2D92E94EFE92EF12CCF5FEC2FF0E03E
:10453000EE0FFF1FE35AFE4F808191818017910794
:10454000A0F38C019C01A0EDB7E00E94C0329B015A
:10455000AC01C701B6010E949E322F3F31054105D3
:10456000510509F010F72093B3008091B100C77096
:10457000887FC82BC093B10081E001C080E0CF915B
:104580001F910F91FF90EF90DF90CF900895FC0165
:10459000848DDF01A80FB11DA35ABF4F2C91848DCC
:1045A00090E001968F739927848FA689B7892C9301
:1045B000A089B1898C9180648C93938D848D98139C
:1045C00006C00288F389E02D80818F7D8083089565
:1045D000EF92FF920F931F93CF93DF93EC0181E053
:1045E000888F9B8D8C8D981305C0E889F98980810F
:1045F00085FD24C0F62E0B8D10E00F5F1F4F0F734B
:104600001127E02E8C8DE8120CC00FB607FCFACFF4
:10461000E889F989808185FFF5CFCE010E94C72204
:10462000F1CF8B8DFE01E80FF11DE35AFF4FF082B1
:104630000B8FEA89FB898081806207C0EE89FF8940
:104640006083E889F98980818064808381E090E0DB
:10465000DF91CF911F910F91FF90EF900895CF932D
:10466000DF93EC01888D8823C9F0EA89FB8980817A
:1046700085FD05C0A889B9898C9186FD0FC00FB64C
:1046800007FCF5CF808185FFF2CFA889B9898C918D
:1046900085FFEDCFCE010E94C722E7CFDF91CF91FA
:1046A0000895CF93DF93CDB7DEB767970FB6F89431
:1046B000DEBF0FBECDBF789484B5826084BD84B563
:1046C000816084BD85B5826085BD85B5816085BD0D
:1046D00080916E00816080936E00109281008091C5
:1046E000810082608093810080918100816080934D
:1046F0008100809180008160809380008091B10072
:1047000084608093B1008091B00081608093B0009C
:1047100080917A00846080937A0080917A00826030
:1047200080937A0080917A00816080937A008091F2
:104730007A00806880937A001092C10014BE9EE0D7
:1047400088E10FB6F894A895809360000FBE90930F
:104750006000809180008C7F809380008091810038
:10476000877E80618093810064EF71E080E090E05B
:104770000E9498128091B0008C7F81608093B0007D
:104780008091B10088608093B10010E07EE3E72E55
:10479000F12C812CE4E29E2EE4EFAE2EB12C1F5FB3
:1047A000E12FF0E0EE0FFF1FE35AFE4F8081918171
:1047B0008E159F05A0F37C019C01A8EEB3E00E943A
:1047C000C0329B01AC01C501B4010E949E322F3F53
:1047D00031054105510509F010F72093B300809190
:1047E000B1001770887F182B1093B10081E080937F
:1047F000440462E370E080E090E00E948C0E10922E
:104800008D0310928C0310928B0310928A030E94E6
:10481000D2149091440480913F048062913069F5F4
:104820000E946D2080E00E94E6128FE10E94E61255
:104830000E947720882339F080914104823019F456
:1048400010924104EDC080913F0480620E946D206F
:104850008CE00E94E6128FE10E94E6120E9477200F
:10486000882321F080914104823051F380913F04EC
:1048700080620E946D2081E032C00E946D2080E045
:104880000E94E6128FEF0E94E61280E00E94E6127C
:1048900080E00E94E61280E00E94E61280E00E9422
:1048A000E61280E00E94E61280E00E94E61280E0BC
:1048B0000E94E61280E00E94E61280E00E94E6126A
:1048C0000E947720882329F080914104823009F4E6
:1048D000B7CF80913F0480620E946D2080E00E94EB
:1048E000E61280E00E94E6120E947720882329F0D9
:1048F00080914104823009F4A3CF80914104823039
:1049000019F481E08093410480913A048860809397
:104910003A0482E080933D0410923E048091440466
:104920008130E1F4109243041092420413E068E3F2
:1049300086E394E00E94051368E186E394E00E9418
:1049400005131150A1F768E286E394E00E94051375
:1049500068E086E394E00E94051328C06CE986E3D2
:1049600094E00E94EB1268E986E394E00E94EB1267
:104970006CE986E394E00E94EB1268E986E394E038
:104980000E94EB126CE986E394E00E94EB1268E966
:1049900086E394E00E94EB1264E986E394E00E94CF
:1049A000EB1260E986E394E00E94EB1265E070E0B0
:1049B00080E090E00E948C0E60913A04606240E0DA
:1049C00086E394E00E941F1365E070E080E090E0D1
:1049D0000E948C0E60913A04606240E086E394E0AD
:1049E0000E941F1365E070E080E090E00E948C0E52
:1049F0008CE080933B0480914104882331F040E0B7
:104A00006CE086E394E00E941F130E94702182E014
:104A100080933C0440E066E086E394E00E941F132C
:104A200087E00E94B7210E94702160E080E00E9430
:104A300033216FE072E080E092E00E944F3280E02C
:104A400092E00E94312161E081E00E9433216BE01D
:104A500072E080E092E00E944F3280E092E00E949B
:104A6000312180E20E94202265E072E080E092E045
:104A70000E944F3280E092E00E94312180ED97E069
:104A80000E94E50161E081E00E94332161E072E073
:104A900080E092E00E944F3280E092E00E9431215B
:104AA00080E20E94202267EF71E080E092E00E94A5
:104AB0004F3280E092E00E94312108E010E080E275
:104AC0000E94202201501109D1F761E083E00E9489
:104AD000390E60E083E00E94090E60E082E00E94EF
:104AE000390E87EC91E09093010180930001809151
:104AF0006900836080936900E89A61E08AE00E941F
:104B0000390E61E089E00E94390E61E088E00E9480
:104B1000390E61E087E00E94390E60E081E10E9479
:104B2000390E60E080E10E94390E61E070E08AE9B0
:104B300093E00E94F70261E070E08CEC93E00E9449
:104B4000F70260E070E08AE993E00E94F90360E018
:104B500070E08CEC93E00E94F9030E9418221092FE
:104B60006202109263021092640210926502109227
:104B7000FF0183E690E0909369028093680281E0F0
:104B80008093600289EF90E19093FE018093FD0194
:104B90008091F9019091FA01A091FB01B091FC0183
:104BA0008093F5019093F601A093F701B093F8017B
:104BB0000E94AF0F809128040E946A0F8AE00E9431
:104BC0006C22811103C083E00E94B72189E00E941A
:104BD0006C22811103C084E00E94B72180ED97E030
:104BE0000E94E5010E9470210E94770481E10E94E9
:104BF000E00D01E0019709F000E080E10E94E00D86
:104C000011E0019709F010E0011102C01123F9F041
:104C100081E00E94B7210E94702167EE71E080E080
:104C200092E00E944F3280E092E00E94312161E0E8
:104C300080E00E943321002319F081E40E942022A9
:104C4000112319F082E40E9420220E942E0430E8F1
:104C5000832E31E5932EAA24A394B12C47E0442E51
:104C6000512C612C712C3324339452E0252EA895BD
:104C700080916702882339F0E0910401F0910501E9
:104C800080E00995AAC280916602882331F088EA03
:104C900090E00E945F0510926602809162029091FE
:104CA0006302A0916402B0916502892B8A2B8B2B41
:104CB00081F581E10E94E00D019739F48091A5030F
:104CC0009091A603892B09F48BC280E10E94E00D2C
:104CD000019739F48091D7039091D803892B09F477
:104CE00084C281E10E94E00D892B39F48091A503F3
:104CF0009091A603019709F47DC280E10E94E00D26
:104D0000892B39F48091D7039091D803019709F446
:104D100076C28091620290916302A0916402B09188
:104D20006502892B8A2B8B2BA1F00E94C60E009165
:104D300062021091630220916402309165020C506E
:104D40001E4F2F4F3F4F061717072807390708F444
:104D50005BC28091A7039091A803059731F08091E1
:104D6000D9039091DA03059711F481E01AC08AE91A
:104D700093E00E94DE03182F8CEC93E00E94DE0388
:104D800011110AC081110CC080916102811102C011
:104D900082E007C083E005C0882311F085E001C0F0
:104DA00086E00E94B72190916E0280916102992362
:104DB00009F456C0811151C00E941822809100044C
:104DC000813089F48091BA039091BB03049719F460
:104DD0003092600208C08091EC039091ED0304973B
:104DE000B9F72092600261E070E08AE993E00E94E6
:104DF000F70261E070E08CEC93E00E94F7020E9401
:104E0000C60E6093B1037093B2038093B303909383
:104E1000B4031092A8031092A7031092AD0310924E
:104E2000AE031092AF031092B0031092B9036093D7
:104E3000E3037093E4038093E5039093E6031092F9
:104E4000DA031092D9031092DF031092E00310925C
:104E5000E1031092E2031092EB03309261020EC064
:104E6000882351F01092A8031092A7031092DA033E
:104E70001092D9030E9418221092610260E080E033
:104E80000E94332188E60E946D2060E08EE893E066
:104E90000E94B10D0E94772061E070E088E690E00A
:104EA0000E94D4208EE893E00E946D0D87FD4AC0D9
:104EB0000E94E1050E9474128091E80290E00C9734
:104EC0001CF421E4F22E02C090E5F92E0E94E105C7
:104ED0000E947412E090E7020E94E1050E947412A1
:104EE0008091E802882339F0082F10E08D3028F0F7
:104EF0000C50110902C00CE010E06AE372E080E09F
:104F000092E00E944F321F92FF921F92EF921F93E6
:104F10000F9380E092E09F938F931F9281E1E82EA0
:104F2000EF9201E010E00C0F1D1F1F930F930E94E2
:104F30007E2FC8010E9431210FB6F894DEBF0FBE4C
:104F4000CDBF08C008E010E080E20E94202201509E
:104F50001109D1F780916102882319F061E372E0B1
:104F600018C06EE272E080E092E00E944F3280E072
:104F700092E00E94312180910004882329F0813041
:104F800031F460E272E005C067E272E002C06CE1F9
:104F900072E080E092E00E944F3280E092E00E9456
:104FA0003121C0905204D0905304E0905404F0900A
:104FB0005504C114D104E104F10471F00E94C60E3D
:104FC00097018601005A1541210931090617170773
:104FD0002807390708F421C18AE993E00E94990261
:104FE0006C01BC018AE993E00E94AA1C8CEC93E05E
:104FF0000E9499029F8B8E8BBC018CEC93E00E94E7
:10500000AA1C8091460490914704A0914804B09155
:105010004904892B8A2B8B2B61F10E94C60EAB01B0
:10502000BC018091460490914704A0914804B0913E
:1050300049047A018B01E81AF90A0A0B1B0B21EECD
:10504000E21623E9F2060440110598F08091BA03B4
:105050009091BB03049719F48AE993E008C080910A
:10506000EC039091ED03049721F48CEC93E00E9403
:10507000AB150E94C60EE0906A02F0906B020091A0
:105080006C0210916D029B01AC012E193F09400B7F
:10509000510B21363A4E4105510540F060936A02AA
:1050A00070936B0280936C0290936D028AE993E097
:1050B0000E94391A8CEC93E00E94391A8AE993E035
:1050C0000E94C5198CEC93E00E94C5190E94FE0154
:1050D0009C01019729F490916102932590936E02AF
:1050E000CA94CD28A9F40E891F890130110581F4D5
:1050F0002230310569F4309267021092A8031092B1
:10510000A7031092DA031092D90381E00E946B1773
:1051100000916802109169020E94E1050E947412D8
:105120008091E70290E00817190709F456C00E9421
:10513000E1050E9474128091E70290E09093690269
:10514000809368020E94E1056B017C010E94741249
:105150000091E802C701B6010E9474121091E702A3
:10516000C701B601A50194010E949E32CA01B9018E
:105170006C5F7F4F8F4F9F4FA30192010E949E3221
:1051800081E001C0880F6A95EAF720E030E0F9017C
:10519000E250FC4F9185992371F0468140130BC07A
:1051A0004781411308C04085482329F0913049F0D8
:1051B000923071F012C02C5F3F4F2031310539F72A
:1051C0000CC080916102811108C090936E0205C0ED
:1051D00080916102811110926E020E94AD2147CD33
:1051E00089E291E00E945F0570CD8AE291E00E9421
:1051F0005F0577CD8AE290E00E945F057ECD8AE26E
:1052000090E00E945F0585CD1092620210926302C9
:1052100010926402109265029CCD0E941822109296
:10522000A8031092A7031092DA031092D903D4CEE8
:10523000CF92DF92EF92FF920F931F93CF93DF9362
:105240001092F0021092EF0288EEC82E83E0D82E62
:10525000E12CF12CC092F102D092F202E092F30222
:10526000F092F4028EE291E09093EE028093ED02D0
:1052700085EC90E09093FA028093F90284EC90E040
:105280009093FC028093FB0280EC90E09093FE02EE
:105290008093FD0281EC90E0909300038093FF02E5
:1052A00082EC90E0909302038093010386EC90E0FF
:1052B0009093040380930303109206031092070354
:1052C000109208031092090310928D0310928C0320
:1052D00010928B0310928A030E94D21410929103B1
:1052E00010929003C0929203D0929303E0929403A1
:1052F000F09295038EE391E090938F0380938E0359
:10530000109239041092380489E591E090933704A3
:105310008093360482E0809341041092400480E23E
:1053200080933F0410923A041092440410921404A3
:105330001092150410921604109217048FED95E048
:10534000A5EDB9E48093180490931904A0931A046E
:10535000B0931B041092240410922504109226048A
:10536000109227041092200410922104109222041B
:105370001092230410921C0410921D0410921E041B
:1053800010921F0480E090E0A0E0BFE380932A0425
:1053900090932B04A0932C04B0932D0480932E049F
:1053A00090932F04A0933004B093310410923204F0
:1053B0001092330410923404109235041092280491
:1053C000109229040EEF13E0C0E0D0E0CE010E945D
:1053D0005632F80181938F012196C833D105B1F778
:1053E0008091FE039091FF038B36994009F476C0BB
:1053F0008BE699E09093FF038093FE0310920004E4
:105400008CE090E0909302048093010481E080930B
:10541000030480E090E0FC01E250FC4F118616820C
:1054200017821086049680319105A9F78EE3809348
:105430000A048093060487E18093040487E0809344
:10544000080481EC80930E0483E180930C048FEFB9
:10545000809312048FE08093100410921404109231
:10546000150410921604109217041092240410923E
:105470002504109226041092270410922004109202
:105480002104109222041092230410921C04109202
:105490001D0410921E0410921F0480912A04909102
:1054A0002B04A0912C04B0912D0480932E04909392
:1054B0002F04A0933004B093310410923204109260
:1054C0003304109234041092350410922804109280
:1054D00029048EEF93E00E94010665C080910004CC
:1054E000823010F0109200044091010450910204A7
:1054F000EAE4F1E020E081E0E535F80739F0819158
:1055000090E084179507B9F721E0F5CF211106C087
:105510008CE090E09093020480930104E7E0F4E0D3
:105520008081833008F01082DF0113978C918831DD
:1055300008F01C92DF0112978C918C3308F01C92BA
:10554000DF018E918F778C93349624E0E731F20758
:1055500039F780911404082E000C990B97FF03C0B3
:10556000919581959109069714F0109214048091F9
:105570001504082E000C990B97FF03C09195819597
:105580009109069714F01092150480911604865F15
:105590008B3010F01092160480911704865F8B30C8
:1055A00010F01092170481E080939A038CEC93E042
:1055B00090939C0380939B0388E090E090939E03DC
:1055C00080939D038AE090E09093A00380939F03D3
:1055D00081E090E09093A2038093A10327E030E064
:1055E0003093A4032093A3031092A6031092A50363
:1055F0001092A8031092A7031092A9031092AA0375
:105600001092AB031092AC031092AD031092AE0354
:105610001092AF031092B0031092B1031092B20334
:105620001092B3031092B4031092B5031092B60314
:105630001092B7031092B8031092B9031092BB03F3
:105640001092BA038EEA90E4A7E0B5E48093BC031D
:105650009093BD03A093BE03B093BF031092C80301
:105660001092C9031092CA031092CB031092C40384
:105670001092C5031092C6031092C7031092C00384
:105680001092C1031092C2031092C30342E04093F0
:10569000CC034AE953E05093CE034093CD033093BB
:1056A000D0032093CF0329E030E03093D20320933E
:1056B000D1031092D4031092D30326E030E030934C
:1056C000D6032093D5031092D8031092D7031092DB
:1056D000DA031092D9031092DB031092DC031092CC
:1056E000DD031092DE031092DF031092E0031092AC
:1056F000E1031092E2031092E3031092E40310928C
:10570000E5031092E6031092E7031092E80310926B
:10571000E9031092EA031092EB031092ED0310924A
:10572000EC038093EE039093EF03A093F003B09308
:10573000F1031092FA031092FB031092FC031092F3
:10574000FD031092F6031092F7031092F8031092E3
:10575000F9031092F2031092F3031092F4031092E3
:10576000F503DF91CF911F910F91FF90EF90DF90A4
:10577000CF900895DB018F939F930E948B32BF914E
:10578000AF91A29F800D911DA39F900DB29F900D90
:1057900011240895991B79E004C0991F961708F009
:1057A000961B881F7A95C9F780950895AA1BBB1B85
:1057B00051E107C0AA1FBB1FA617B70710F0A61B11
:1057C000B70B881F991F5A95A9F780959095BC0132
:1057D000CD01089597FB072E16F4009407D077FDAE
:1057E00009D00E94D62B07FC05D03EF490958195F8
:1057F0009F4F0895709561957F4F0895EE0FFF1F9D
:105800000590F491E02D09945058BB27AA270E94D7
:105810001C2C0C94F72D0E94E92D38F00E94F02DDD
:1058200020F039F49F3F19F426F40C94BF2D0EF4A8
:10583000E095E7FB0C94B92DE92F0E94082E58F350
:10584000BA17620773078407950720F079F4A6F565
:105850000C942A2E0EF4E0950B2EBA2FA02D0B01DE
:10586000B90190010C01CA01A0011124FF27591BA5
:1058700099F0593F50F4503E68F11A16F040A22FAB
:10588000232F342F4427585FF3CF4695379527951C
:10589000A795F0405395C9F77EF41F16BA0B620B1B
:1058A000730B840BBAF09150A1F0FF0FBB1F661F62
:1058B000771F881FC2F70EC0BA0F621F731F841FA5
:1058C00048F4879577956795B795F7959E3F08F0CB
:1058D000B0CF9395880F08F09927EE0F979587958D
:1058E00008950E94952D08F481E008950E948A2C65
:1058F0000C94F72D0E94F02D58F00E94E92D40F0F5
:1059000029F45F3F29F00C94B92D51110C942B2EE2
:105910000C94BF2D0E94082E68F39923B1F35523F0
:1059200091F3951B550BBB27AA27621773078407B2
:1059300038F09F5F5F4F220F331F441FAA1FA9F348
:1059400035D00E2E3AF0E0E832D091505040E69536
:10595000001CCAF72BD0FE2F29D0660F771F881F97
:10596000BB1F261737074807AB07B0E809F0BB0B8A
:10597000802DBF01FF2793585F4F3AF09E3F51059E
:1059800078F00C94B92D0C942B2E5F3FE4F3983EE5
:10599000D4F3869577956795B795F7959F5FC9F787
:1059A000880F911D9695879597F90895E1E0660F08
:1059B000771F881FBB1F621773078407BA0720F081
:1059C000621B730B840BBA0BEE1F88F7E0950895EA
:1059D00029F416F00C94B92D0C942A2E0C94BF2D9A
:1059E0000E94102EA8F39638A0F707F80F92E894BB
:1059F0002BE33AEA48EB5FE70E94C22E0F920F9228
:105A00000F924DB75EB70F920E94782EEAEAF0E04F
:105A10000E94C22D4F915F91EF91FF91E595EE1F8E
:105A2000FF1F49F0FE57E0684427EE0F441FFA9528
:105A3000E1F74195550B0E94422E0F9007FE0C9402
:105A4000362E08950E94292D6894B1110C942B2EA6
:105A500008950E94102E88F09F5798F0B92F99272B
:105A6000B751B0F0E1F0660F771F881F991F1AF049
:105A7000BA95C9F714C0B13091F00E942A2EB1E056
:105A800008950C942A2E672F782F8827B85F39F055
:105A9000B93FCCF3869577956795B395D9F73EF4E2
:105AA00090958095709561957F4F8F4F9F4F08958A
:105AB000E89409C097FB3EF49095809570956195A8
:105AC0007F4F8F4F9F4F9923A9F0F92F96E9BB275E
:105AD0009395F695879577956795B795F111F8CFDA
