:100000000C948D010C940E0E0C94E70D0C94B5011C
:100010000C94B5010C94B5010C94B5010C94B50188
:100020000C94B5010C94B5010C94B5010C94B50178
:100030000C94B5010C94B5010C94B5010C94B50168
:100040000C949D0D0C94B5010C94B5010C94B50164
:100050000C94B5010C94B5010C94B5010C94B50148
:100060000C9459120C94B501B002E302EC02F702B1
:10007000FF02FF02FF02FF02FF02FF02FF020D0369
:100080007E1583159415A515B015C015D015FD1551
:1000900005163016211630163016371657168416E8
:1000A000B216DF160C17391765174552522000207B
:1000B000646F6E6500207761697400206F6E202088
:1000C00000206F66662000202D2D2D2000636C65BA
:1000D00061720073657400537475636B200047464A
:1000E000492054657374204661696C7572650045DA
:1000F00072724A616E4665624D61724170724D6105
:10010000794A756E4A756C4175675365704F6374B3
:100110004E6F764465630020200025326400202065
:1001200020002020200020253264002020002530DF
:100130003264002020002532640053657420436C33
:100140006F636B00534D545754465300534D5457EF
:100150005446530020200025303264002020002522
:1001600032640045786974002020202000456469CD
:1001700074204576656E742000000000002400277E
:10018000002A0000000000250028002B00000000CD
:1001900000230026002900040404040404040402CB
:1001A0000202020202030303030303010204081014
:1001B000204080010204081020010204081020528F
:1001C000656C6179204661696C7572653A20003210
:1001D0002E342E312D6465760053573A00322E337B
:1001E0002E310048573A004A313737322048796477
:1001F00072612000554E4B007365716E746C007314
:100200006861726564004D3A004D3A50415553455E
:1002100044002020202020202020002532643A2580
:1002200030326425634D2000204361722025733AEB
:1002300020256425250050696C6F74206465726107
:10024000746500204361722025733A202573302E97
:10025000256400416D6D65746572004E6F005965CF
:10026000730045786974204D656E75733F004E6F5D
:10027000005965730043616C6962726174696F6EE5
:100280003F004E6F0059657300436F6E66696720CB
:100290004576656E74733F004E6F00596573004577
:1002A0006E61626C65204453543F004E6F00596587
:1002B000730053657420436C6F636B3F0020416D86
:1002C00070730043757272656E7420417661696C5B
:1002D0002E0053657175656E7469616C00536861B9
:1002E000726564004F7065726174696E67204D6F4E
:1002F00064650025336C756D41002532642E253010
:1003000031644100000000080002010000030407FE
:100310000000000000000000282511241FBECFEFC0
:10032000D8E0DEBFCDBF11E0A0E0B1E0EEEDF5E535
:1003300002C005900D92AC37B107D9F723E0ACE7C6
:10034000B1E001C01D92A73EB207E1F711E0CDE890
:10035000D1E004C02197FE010E949427CC38D10738
:10036000C9F70E941D1F0C94ED2A0C94000060E058
:1003700088E00E94D40C60E087E00E94D40C1092C8
:1003800056031092550310920C0310920B030E9417
:10039000910D60936502709366028093670290935B
:1003A000680281E0809369020895CF93DF93EC01A6
:1003B000C536D10550F064E670E080E090E00E9420
:1003C000570DC456D109A895F3CFBE0180E090E047
:1003D0000E94570DA895DF91CF9108950F931F9319
:1003E0008091FB019091FC01A091FD01B091FE0173
:1003F000892B8A2B8B2BA9F00E94910D0091FB0178
:100400001091FC012091FD013091FE01DC01CB0136
:10041000801B910BA20BB30BC297A105B10508F489
:1004200044C01092FB011092FC011092FD01109249
:10043000FE018091BA038823C1F08091B8038062E5
:100440000E94D51C82E10E949B110E94DF1C8091BA
:10045000B803806261E070E090E00E943C1D84EF90
:1004600092E00E94380C80958F714091F701509175
:10047000F8016091F9017091FA0180FF19C0452BD4
:10048000462B472B91F40E94910D6093F7017093D6
:10049000F8018093F9019093FA016093FB01709346
:1004A000FC018093FD019093FE0180E090E02EC05E
:1004B000452B462B472BC9F30E94910D6093FB01FE
:1004C0007093FC018093FD019093FE010091F70170
:1004D0001091F8012091F9013091FA01DC01CB0172
:1004E000801B910BA20BB30B1092F7011092F80135
:1004F0001092F9011092FA018B3F9105A105B10507
:1005000018F481E090E002C082E090E01F910F912A
:100510000895FF920F931F93CF93DF9300D000D0E5
:10052000CDB7DEB7F82E0E94EE018C01FF2039F026
:100530000E94D81D109291011092900104C0813048
:10054000910509F075C090919101492F50E04C3010
:10055000510508F0AFC0FA01EC5CFF4F0C949427F2
:10056000F11005C0809190018F5F80939001809180
:100570009001853010F010929001E0919001E430EC
:1005800008F098C034E0E39FF0011124E556FC4FD9
:10059000808180938F01918190938E0192819093BD
:1005A0008D01938190938C0191E08C3008F490E060
:1005B00090938B01811102C08CE00BC08D3008F448
:1005C00079C08C5006C080918F018F5F8D3008F00C
:1005D00081E080938F016EC080918E018F5F8C339C
:1005E00018F480938E0166C010928E0163C081E082
:1005F00090918B01911180E080938B015BC02CEF77
:10060000290F81E090E001C0880F2A95EAF79091C8
:100610008D01892780938D014DC080918C018F5F62
:10062000833018F480938C0145C010928C0142C035
:10063000029709F041C09091910191110FC08091F2
:100640009001843059F481E495E190930501809301
:10065000040110926A020E94D81D5AC19F5F9093B4
:1006600091019C3048F180918F0190918B01911103
:1006700003C08C3031F44AC1913019F48C3009F048
:10068000845FE091900194E0E99FF0011124E55628
:10069000FC4F808380918E01818380918D018283C4
:1006A00080918C01838384E993E00E94481E10921C
:1006B00091012EC101E010E00E94910D28EE33E07F
:1006C00040E050E00E94532721E0643F71408105E3
:1006D000910508F420E0012B29F490918A019217EA
:1006E00009F416C120938A0160E080E00E949B1DFE
:1006F0006DE671E083E092E00E94992A83E092E047
:100700000E94991D80918A01882339F0809191017E
:10071000811103C068E671E006C060919001643009
:1007200059F463E671E083E092E00E94992A83E045
:1007300092E00E94991D0AC070E06F5F7F4F072E04
:10074000000C880B990B4AE00E94811E61E080E05A
:100750000E949B1D80919001843049F400E110E0DB
:1007600080E20E94761E01501109D1F7D1C010918C
:100770008F016FE571E083E092E00E94992A1F9259
:100780001F9383E092E09F938F938E010F5F1F4F23
:100790001F930F930E94F8270F900F900F900F90C8
:1007A0000F900F9080918A01882369F080919101C8
:1007B000813049F46CE571E083E092E00E94992A6F
:1007C00083E092E001C0C8010E94991D8AE30E9463
:1007D000761EF0908E0167E571E083E092E00E9462
:1007E000992A1F92FF9283E092E09F938F931F9329
:1007F0000F930E94F8270F900F900F900F900F907B
:100800000F9080918A01882369F080919101823054
:1008100049F464E571E083E092E00E94992A83E064
:1008200092E001C0C8010E94991D80918A0188232D
:1008300031F080919101833011F480E207C0809102
:100840008B01813011F081E401C080E50E94761EA9
:1008500080E20E94761E00E010E064E471E083E034
:1008600092E00E94992AE3E0F2E001900020E9F78B
:100870003197E350F2400E171F0758F58091910110
:1008800090E098012C5F3F4F2817390731F4809191
:100890008A01882311F080E217C080918D0190E0D9
:1008A000002E02C0959587950A94E2F780FF0BC051
:1008B0006CE471E083E092E00E94992AF801ED5F18
:1008C000FD4F808101C08DE20E94761E0F5F1F4F99
:1008D000C4CF80E20E94761E809191018B3031F46A
:1008E00080918A01882311F080E20DC080918C01F3
:1008F000811102C08EE407C0813011F483E503C08A
:10090000823031F487E40E94761E02C080E0B9CEC6
:100910000F900F900F900F90DF91CF911F910F913B
:10092000FF9008958F929F92AF92BF92EF92FF92A5
:100930000F931F93CF93DF937C010E94910D4B0186
:100940005C01C0E0D0E00FE017E20E94910DDC01F5
:10095000CB0188199909AA09BB094497A105B105DA
:1009600068F4F70187810E94400DC817D90708F481
:10097000EC018017910748F78C01E7CF0B5F110955
:1009800001331140A0F0C63683E0D80798F4CE01B9
:10099000875093408F35910580F0835A9F4F8D3556
:1009A000910570F0C256D240C834D10560F085E0A0
:1009B00090E00BC081E090E008C082E090E005C0CC
:1009C00083E090E002C084E090E0DF91CF911F913E
:1009D0000F91FF90EF90BF90AF909F908F900895F0
:1009E000CF92DF92EF92FF920F931F93CF93DF93FB
:1009F000EC018B018881813019F44091AD0302C074
:100A00004091AE030230110518F4602F8D81A4C00F
:100A10002091970330919803A8EEB3E00E949A27A3
:100A20000330110521F496958795779567954423B2
:100A3000D1F0A42F440FBB0BAC59BF4F9B01AC01AD
:100A40000E94BB2724E630E040E050E00E9453279C
:100A5000203787E138074105510568F460E777E101
:100A600080E090E010C06133E5E77E0781059105E5
:100A700008F098C01AC0CA01B901213335474105B1
:100A8000510508F08FC02CE330E040E050E00E94B8
:100A90005327942F832F722F662728EE33E040E0F0
:100AA00050E00E947527790109C0603727E172077D
:100AB0008105910540F7EE24EA94F12CCD80DE808B
:100AC00061E08C2D0E94040DFFEFEF16F10409F494
:100AD00041C0F601FF27EC5FFC4FE491E330E1F009
:100AE00058F4E23099F584B5806284BD27B530E0D2
:100AF00058E4C52ED12C3DC0E430D9F0E83031F5B2
:100B00008091B00080628093B0002091B30030E00B
:100B100084EBC82ED12C2DC08091800080688093FA
:100B20008000209186003091870048E8C42ED12CA7
:100B30002CC080918000806280938000209186008C
:100B4000309187009AE8C92ED12C1FC0E7FC02C063
:100B500060E001C061E08C2D0E94D40C19A308A3B1
:100B6000DF91CF911F910F91FF90EF90DF90CF9089
:100B70000895D7010E949A272FEF30E040E050E01F
:100B80000E945327F6012083E9CFD7010E949A27BC
:100B90002FEF30E040E050E00E945327F601318310
:100BA0002083DCCF60E375E780E090E06CCFFC0150
:100BB00080916402811112C025853685253031056A
:100BC00081F083899489A589B689892B8A2B8B2BFF
:100BD00039F42385348581E0232B19F480E00895CE
:100BE00081E008950F931F93CF93DF938C01EB0166
:100BF00080910B0390910C03892B49F4809155034C
:100C000090915603892B19F461307105C1F0F801F8
:100C1000838594858C179D07A9F06C2F83810E9492
:100C2000D40CF801D487C3870E94910D60936502AC
:100C300070936602809367029093680203C00E94DB
:100C40007006E5CFDF91CF911F910F91089560E07D
:100C500070E080E093E00E94F00460E070E08AE4DD
:100C600093E00E94F00460E070E080E093E00E9476
:100C7000F20560E070E08AE493E00E94F205A89536
:100C8000FECFC82F81E00E94E71D0E94D81D6EEDA7
:100C900070E083E092E00E94992A83E092E00E9453
:100CA000991D61E080E00E949B1D67ED70E083E08C
:100CB00092E00E94992A83E092E00E94991DCC2341
:100CC00019F063ED70E002C06DEC70E083E092E03B
:100CD0000E94992A83E092E00E94991D0E942706B3
:100CE000CF92DF92EF92FF920F931F93CF93DF93F8
:100CF00010926902C2E3D0E00BEF1CE761E083E0F1
:100D00000E94D40CC8010197F1F760E083E00E94D3
:100D1000D40CC8010197F1F780916902811103C0D9
:100D2000A895219759F7809169028823B9F00E940C
:100D3000910D6B017C0124E6C20ED11CE11CF11C5B
:100D400082E00E94AB0C019759F4A8950E94910D86
:100D5000C616D706E806F90698F781E00E94410614
:100D600080E991E00E94D50110926902DF91CF9154
:100D70001F910F91FF90EF90DF90CF9008950F9308
:100D80001F93CF93DF93EC01CE01837099278130BD
:100D9000910549F0029751F0CC7FCE0181600E940D
:100DA000BF06C260F1CF01E410E002C002E418E027
:100DB00061E0812F0E949B1D802F0E94761E8AE396
:100DC0000E94761E9E012873332720313105B1F031
:100DD00048F42115310579F028303105E9F461EC4A
:100DE00070E00EC028313105A1F020323105A1F4A8
:100DF0006FEA70E005C067EC70E002C06BEB70E07A
:100E000083E092E00E94992A83E092E00E94991D7B
:100E100038C065EB70E0F4CF81E00E94E71D6AEA1C
:100E200070E083E092E00E94992A83E092E00E94C1
:100E3000991D9E01207C317020383105B9F038F4BD
:100E40002115310589F020343105C1F015C0211577
:100E500081E0380769F0203481E0380759F0203C00
:100E6000310551F484E50BC086E409C087E407C06E
:100E700082E505C085E403C08FE301C08FE40E94D2
:100E8000761E81E791E00E94991DC2FF0CC061E0CF
:100E900086E0810F0E949B1D8AE2DF91CF911F9116
:100EA0000F910C94761EDF91CF911F910F910895B1
:100EB000CF92DF92EF92FF920F931F93CF93DF9326
:100EC0008C010E94910D6B017C01E801C370DD274C
:100ED0001092FF0110920002109201021092020281
:100EE000C230D10520F0229709F047C024C061E04C
:100EF00070E080E093E00E94F00480910D039091F7
:100F00000E03059771F085E090E090930E038093B7
:100F10000D03C0921703D0921803E0921903F092C8
:100F20001A031092130310921403109215031092D7
:100F30001603CD2B11F561E070E08AE493E00E9486
:100F4000F0048091570390915803059771F085E064
:100F500090E09093580380935703C0926103D0921E
:100F60006203E0926303F092640310925D031092B7
:100F70005E0310925F0310926003C801DF91CF916E
:100F80001F910F91FF90EF90DF90CF900C94BF06D0
:100F9000CF92DF92EF92FF92CF93DF9380919903EC
:100FA000882309F462C00E945C0E6B017C010E94E0
:100FB0004511EC016091D6037091D7038091D8035D
:100FC0009091D9030E944511C817D90731F0C70184
:100FD000B6010E9445110E94631CC701B6010E9420
:100FE0004511EC016091D6037091D7038091D8032D
:100FF0009091D9030E944511C817D90731F0C70154
:10100000B6010E9445110E94631C4091DA03509181
:10101000DB036091DC037091DD038091D603909136
:10102000D703A091D803B091D903481759076A078D
:101030007B0741F184179507A607B70758F4C81630
:10104000D906EA06FB06F0F0C416D506E606F70652
:10105000C8F413C0C416D506E606F70670F0C81625
:10106000D906EA06FB0648F40DC0DF91CF91FF9048
:10107000EF90DF90CF900C945C0EA091C803B091DC
:10108000C90304C0A091D403B091D5032CE330E090
:101090000E94A9276C0D7D1D8E1D9F1DDF91CF9194
:1010A000FF90EF90DF90CF900895CF92DF92EF9274
:1010B000FF920F931F93CF93DF93CDB7DEB72E9799
:1010C0000FB6F894DEBF0FBECDBFF82E0E94EE0122
:1010D0008C01FF2009F456C00E94D81D6AE371E01C
:1010E00083E092E00E94992A83E092E00E94991D99
:1010F0000E94C8070E9421112091EB02222331F0A7
:10110000822F90E02D3020F00C9702C08CE090E010
:1011100080938F010E94C8070E9421118091EB02E9
:1011200090E021E00C970CF420E020938B010E94CA
:10113000C8070E9421118091EA0280938E010E94CB
:10114000C8070E9421118091ED02809389010E94BD
:10115000C8070E9421118091EE02809388010E94AD
:10116000C8070E9445119C012A5D37402B3031058C
:1011700010F08AED97E0909387018093860110929A
:1011800091015DC08130910509F051C090919101AC
:10119000923001F128F4992349F0913081F09BC1FC
:1011A000943061F110F1953091F195C180918F01EA
:1011B0008F5F8D3008F081E080938F018CC180912A
:1011C0008E018F5F8C3318F480938E0184C110924E
:1011D0008E0181C180918B018F5F823018F48093E2
:1011E0008B0179C110928B0176C1809189018F5F4B
:1011F000803208F081E0809389016DC1809188017F
:101200008F5F8D3008F081E08093880164C1809108
:101210008601909187010196853E27E0920710F0A4
:101220008AED97E0909387018093860154C10297DD
:1012300009F051C1809191018F5F8093910180915C
:101240009101863008F445C190918B0180918F0106
:10125000911105C08C3051F410928F0107C091306C
:1012600029F48C3019F0845F80938F01809186017E
:10127000825B8E87809188018D87809189018C8720
:1012800080918F018A8780918E0189871886CE018F
:1012900008960E94E60E6B017C01809199038823D9
:1012A00009F47FC0C701B6010E9445118C0160910D
:1012B000DE037091DF038091E0039091E1030E94CF
:1012C00045110817190731F0C701B6010E944511F1
:1012D0000E94631CC701B6010E9445118C016091F8
:1012E000DE037091DF038091E0039091E1030E949F
:1012F00045110817190731F0C701B6010E944511C1
:101300000E94631C4091DA035091DB036091DC037F
:101310007091DD038091D6039091D703A091D803FB
:10132000B091D903481759076A077B0709F4F3C13D
:101330004091E2035091E3036091E4037091E5036F
:101340008091DE039091DF03A091E003B091E1036F
:1013500084179507A607B70768F4C816D906EA06E2
:10136000FB0608F4D8C1C416D506E606F70608F051
:10137000D2C10BC0C416D506E606F70630F0C81673
:10138000D906EA06FB0608F4C6C1A091C803B091CD
:10139000C9032CE330E00E94A927C61AD70AE80A3D
:1013A000F90AC701B6010E94350EAE014F5F5F4FCB
:1013B000C701B6010E94501088E60E94D51C60E06B
:1013C00084EF92E00E947C0C60E884EF92E00E943F
:1013D0007C0C8A811AE0612F0E941F27692F30E15F
:1013E000839F600D112484EF92E00E947C0C8B811E
:1013F000612F0E941F27692F20E1829F600D112419
:1014000084EF92E00E947C0C8C81612F0E941F2748
:10141000692F30E1839F600D112484EF92E00E94D8
:101420007C0C8D81612F0E941F27692F20E1829FF4
:10143000600D112484EF92E00E947C0C8E81612F5C
:101440000E941F27692F30E1839F600D112484EFD4
:1014500092E00E947C0C8F818E51612F0E941F2789
:10146000692F20E1829F600D112484EF92E00E9499
:101470007C0C0E94DF1C882319F0109292011EC080
:1014800001E00093920188E60E94D51C60E084EFA1
:1014900092E00E947C0C8981612F0E941F27692F96
:1014A00030E1839F600D112484EF92E00E947C0C58
:1014B0000E94DF1C8111E1CF0093920181E495E14C
:1014C000909305018093040110926A020E94D81D36
:1014D00027C102E010E00E94910D28EE33E040E0C9
:1014E00050E00E94532721E0643F7140810591053F
:1014F00008F420E0012B29F490918A01921709F455
:101500000FC120938A0161E080E00E949B1D109131
:101510008F0166E371E083E092E00E94992A1F92B6
:101520001F9383E092E09F938F938E010F5F1F4F75
:101530001F930F930E94F8270F900F900F900F901A
:101540000F900F908091910181110DC080918A01BF
:10155000882349F063E371E083E092E00E94992AD6
:1015600083E092E001C0C8010E94991D8AE30E94B5
:10157000761EF0908E016EE271E083E092E00E94B0
:10158000992A1F92FF9283E092E09F938F931F937B
:101590000F930E94F8270F900F900F900F900F90CD
:1015A0000F9080919101813069F480918A018823A4
:1015B00049F06BE271E083E092E00E94992A83E0B7
:1015C00092E001C0C8010E94991D80919101823072
:1015D00031F480918A01882311F080E207C0809164
:1015E0008B01811102C081E401C080E50E94761E5A
:1015F000F090890166E271E083E092E00E94992A0E
:101600001F92FF9283E092E09F938F931F930F931B
:101610000E94F8270F900F900F900F900F900F904F
:1016200080919101833069F480918A01882349F087
:1016300062E271E083E092E00E94992A83E092E006
:1016400001C0C8010E94991D8DE20E94761E809102
:101650009101843069F480918A01882349F06EE118
:1016600071E083E092E00E94992A83E092E019C041
:101670002091880183E0289F90011124ACE7B1E01C
:1016800080E090E0FC01E20FF31FE151FF4FE49195
:10169000ED93019683309105A9F710927F018CE7B5
:1016A00091E00E94991D8DE20E94761E8091860134
:1016B0009091870164E670E00E942B27F82EE92EB6
:1016C0006AE171E083E092E00E94992AEF92FF9232
:1016D00083E092E09F938F931F930F930E94F827CC
:1016E0000F900F900F900F900F900F90809191019D
:1016F000853069F480918A01882349F067E171E0BF
:1017000083E092E00E94992A83E092E001C0C80140
:101710000E94991D05C0A091D403B091D50339CE84
:101720002E960FB6F894DEBF0FBECDBFDF91CF91DE
:101730001F910F91FF90EF90DF90CF90089583302D
:1017400081F028F4813099F08230A1F0089587303B
:10175000A9F08830B9F08430D1F4809180008F7D79
:1017600003C0809180008F7780938000089584B5B6
:101770008F7702C084B58F7D84BD08958091B000BD
:101780008F7703C08091B0008F7D8093B000089563
:101790003FB7F8948091E9019091EA01A091EB01A3
:1017A000B091EC0126B5A89B05C02F3F19F001961A
:1017B000A11DB11D3FBFBA2FA92F982F8827820FD7
:1017C000911DA11DB11DBC01CD0142E0660F771F27
:1017D000881F991F4A95D1F7089508958091F202C4
:1017E00090E02091F302821B9109089585ED80938A
:1017F000BC008091BC0084FDFCCF1092C70208950C
:101800004091B501262F30E0240F311D21323105E2
:10181000DCF42091C7022430C9F4FC0180E090E0A0
:10182000861758F43091B5012191DC01AD56BE4FB9
:10183000A30FB11D2C930196F3CF8091B501680FD2
:101840006093B50180E0089581E0089582E00895F5
:101850000895E091F3028091F202E81730F4F0E08D
:10186000EF57FD4F808190E008958FEF9FEF08952F
:101870009091F3028091F202981750F4E92FF0E072
:10188000EF57FD4F208130E09F5F9093F30202C03D
:101890002FEF3FEFC9010895CF92DF92EF92FF92B1
:1018A0000F931F93CF93DF937C01262F972F8A01ED
:1018B0008091E802882391F0C62FD72F6E01C40EC5
:1018C000D51ECC15DD0571F06991D701ED91FC9124
:1018D0000190F081E02DC7010995F3CF642F822F8D
:1018E0000E94000CC801DF91CF911F910F91FF90D2
:1018F000EF90DF90CF900895CF93DF931F92CDB7F5
:10190000DEB769832091E8022223D1F02091F00212
:10191000203240F021E030E0FC013383228380E07C
:1019200090E015C08091F102E82FF0E0E853FD4F00
:10193000998190838F5F8093F1028093F00205C0BC
:1019400061E0CE0101960E94000C81E090E00F90D2
:10195000DF91CF910895CF93DF93282F30E0F901E5
:10196000EC5FFC4F8491F901E555FE4FD491F901EC
:10197000E956FE4FC491CC2391F081110E949F0B38
:10198000EC2FF0E0EE0FFF1FE357FE4FA591B4914F
:10199000EC91ED2381E090E021F480E002C080E052
:1019A00090E0DF91CF9108951F93CF93DF93282F7D
:1019B00030E0F901EC5FFC4F8491F901E555FE4FF1
:1019C000D491F901E956FE4FC491CC23C9F0162FEA
:1019D00081110E949F0BEC2FF0E0EE0FFF1FED57DF
:1019E000FE4FA591B4918FB7F894111105C09C9149
:1019F000ED2FE095E92302C0EC91ED2BEC938FBF26
:101A0000DF91CF911F910895CF93DF9390E0FC0178
:101A1000E555FE4F2491FC01E956FE4F8491882341
:101A200061F190E0880F991FFC01E758FE4FC591C6
:101A3000D491FC01ED57FE4FA591B491611109C0FD
:101A40009FB7F8948881209582238883EC912E2378
:101A50000BC0623061F49FB7F8943881822F809573
:101A600083238883EC912E2B2C939FBF06C08FB7C6
:101A7000F894E8812E2B28838FBFDF91CF910895B2
:101A80008E3008F08E508770806480937C00809147
:101A90007A00806480937A0080917A0086FDFCCF82
:101AA000809178002091790090E0922B08958F9298
:101AB0009F92AF92BF92CF92DF92EF92FF926B0113
:101AC0007C010E94C80B4B015C01C114D104E104EC
:101AD000F104F1F00E94C80BDC01CB0188199909CF
:101AE000AA09BB09883E9340A105B10570F321E026
:101AF000C21AD108E108F10888EE880E83E0981E2A
:101B0000A11CB11CC114D104E104F10419F7DDCF0B
:101B1000FF90EF90DF90CF90BF90AF909F908F900D
:101B200008952FB7F8946091E5017091E6018091D6
:101B3000E7019091E8012FBF08951F920F920FB611
:101B40000F9211242F933F938F939F93AF93BF9343
:101B50008091E5019091E601A091E701B091E80143
:101B60003091E40123E0230F2D3720F40196A11DCD
:101B7000B11D05C026E8230F0296A11DB11D2093BB
:101B8000E4018093E5019093E601A093E701B0930F
:101B9000E8018091E9019091EA01A091EB01B091F7
:101BA000EC010196A11DB11D8093E9019093EA011A
:101BB000A093EB01B093EC01BF91AF919F918F91F6
:101BC0003F912F910F900FBE0F901F9018951F926D
:101BD0000F920FB60F9211242F933F934F935F9361
:101BE0006F937F938F939F93AF93BF93EF93FF93E5
:101BF000E0910201F09103010995FF91EF91BF91EE
:101C0000AF919F918F917F916F915F914F913F9194
:101C10002F910F900FBE0F901F9018951F920F924B
:101C20000FB60F9211242F933F934F935F936F93AF
:101C30007F938F939F93AF93BF93EF93FF93E09125
:101C40000001F09101010995FF91EF91BF91AF91D2
:101C50009F918F917F916F915F914F913F912F91C4
:101C60000F900FBE0F901F9018956093F101709325
:101C7000F2018093F3019093F401DC01CB01845DC8
:101C80009E4FAF4FBF4F8093ED019093EE01A09315
:101C9000EF01B093F00182E090E09093E301809334
:101CA000E2010E94910D6093DE017093DF01809349
:101CB000E0019093E1010895CF92DF92EF92FF92BD
:101CC0000F931F930E94910DC090DE01D090DF0111
:101CD000E090E001F090E1018B019C010C191D09DD
:101CE0002E093F098091F1019091F201A091F30139
:101CF000B091F401083E134021053105D0F0019662
:101D0000A11DB11D8093F1019093F201A093F30105
:101D1000B093F401B701A60148515C4F6F4F7F4F5C
:101D20004093DE015093DF016093E0017093E10185
:101D3000C9CF4091ED015091EE016091EF0170919A
:101D4000F00184179507A607B70788F1E091F50120
:101D5000F091F601309759F10995611571058105EA
:101D6000910519F00E94350E22C08091F1019091E9
:101D7000F201A091F301B091F401845D9E4FAF4F49
:101D8000BF4F8093ED019093EE01A093EF01B093CC
:101D9000F00181E090E02091E2013091E301232BFA
:101DA00011F480E090E09093E3018093E201609170
:101DB000F1017091F2018091F3019091F4011F9172
:101DC0000F91FF90EF90DF90CF9008956F927F92E8
:101DD0008F929F92AF92BF92CF92DF92EF92FF923B
:101DE0000F931F93CF93DF93EC01EE81AE2FB0E002
:101DF00020E833E341EE51E00E94B0274B015C0143
:101E000022EB37E0FD0104E610E080E9E82EFF2434
:101E1000F394C901825B97408E179F07DCF4C901D8
:101E200083709927892B99F4C901B8010E943F2733
:101E3000892B31F4C901B7010E943F27892B39F45E
:101E400080E8880E81E5981E81E0A81EB11C2F5FF6
:101E50003F4FDFCF6D80712CEE54F84FCF0164E619
:101E600070E00E943F277C01CF0160E971E00E9491
:101E70003F276C0101E010E0E370FF27061517050E
:101E80002CF50230110581F4309771F4E114F1045E
:101E900019F4C114D10441F480E8880E8BE3981E34
:101EA00086E2A81EB11C0FC0D801AB5FBE4FAC913B
:101EB000B0E020E831E541E050E00E94B027860E16
:101EC000971EA81EB91E0F5F1F4FD8CF49812A81C8
:101ED00030E0A0E1BEE00E949A276B017C01242F34
:101EE00030E0ACE3B0E00E949A27DC01CB018C0D1E
:101EF0009D1DAE1DBF1D28816C017D01C20ED11C30
:101F0000E11CF11CAC81B0E0119720E831E541E023
:101F100050E00E94BB27DC01CB018C0D9D1DAE1D46
:101F2000BF1DBC01CD01680D791D8A1D9B1DDF9170
:101F3000CF911F910F91FF90EF90DF90CF90BF90C6
:101F4000AF909F908F907F906F9008951F93CF9345
:101F5000DF93CDB7DEB727970FB6F894DEBF0FBE7D
:101F6000CDBF88E60E94D51C60E084EF92E00E941D
:101F70007C0C0E94DF1C882319F01092920183C010
:101F800081E08093920167E070E088E690E00E9433
:101F90003C1D8091F20290E02091F302821B910996
:101FA00007970CF470C084EF92E00E94380C182F51
:101FB0008695869586958E70982F990F990F890F23
:101FC000912F9F70890F898384EF92E00E94380CD3
:101FD000282F22952F70982F9F708AE0289F900DB0
:101FE00011249A8384EF92E00E94380C982F282FB6
:101FF0002695269526952670822F880F880F280F04
:102000009F70920F9B8384EF92E00E94380C282FE0
:1020100022952F70982F9F708AE0289F900D112491
:102020009C8384EF92E00E94380C282F22952F7019
:10203000982F9F708AE0289F900D11249D8384EF34
:1020400092E00E94380C282F22952F70982F9F70B5
:102050008AE0289F900D11249E8384EF92E00E94D5
:10206000380C982F9F70925E282F22952F708AE04F
:10207000289F900D11249F8317FD05C0CE01019666
:102080000E94E60E03C060E070E0CB0127960FB619
:10209000F894DEBF0FBECDBFDF91CF911F910895A1
:1020A0006F927F928F929F92AF92BF92CF92DF9268
:1020B000EF92FF920F931F93CF93DF93EA012CE3EC
:1020C000C22ED12CE12CF12CA70196010E9453279E
:1020D0006883CA01B901A70196010E945327698349
:1020E000CA01B90128E130E040E050E00E945327E6
:1020F00069017A016A83CA01B9016C5F7F4F8F4F12
:102100009F4F27E030E040E050E00E9453276F5F90
:102110006B83812C912C540140E034E6632E712CAA
:1021200000E911E0242F30E02E54384FF901E3701C
:10213000FF27309789F4C901B3010E943F27892BFB
:1021400031F4C901B8010E943F27892B29F48EE69A
:1021500091E0A0E0B0E004C08DE691E0A0E0B0E046
:10216000880E991EAA1EBB1ED501C401AA27BB2733
:10217000C816D906EA06FB0610F04F5FD3CF4E8390
:10218000309799F4C90164E670E00E943F27892BDB
:1021900039F4C90160E971E00E943F27892B29F4D5
:1021A0008EE691E0A0E0B0E004C08DE691E0A0E012
:1021B000B0E0881A990AAA0ABB0AC818D908EA081E
:1021C000FB08C90164E670E00E943F278C01C90149
:1021D00060E971E00E943F27A6E0B1E020E02130F5
:1021E00041F4309751F40115110529F4009729F4B1
:1021F00002C04C9103C04DE101C04CE150E060E0F1
:1022000070E0C416D506E606F70640F0C41AD50AF3
:10221000E60AF70A2F5F11962C3009F72F5F2D83FE
:10222000C394CC82DF91CF911F910F91FF90EF90DB
:10223000DF90CF90BF90AF909F908F907F906F90E6
:102240000895CF92DF92EF92FF92C090DA01D09082
:10225000DB01E090DC01F090DD016C157D058E0561
:102260009F0571F06B017C0149EE52E00E94501015
:10227000C092DA01D092DB01E092DC01F092DD0144
:10228000FF90EF90DF90CF9008950E9421118091F0
:10229000EF0290E08E54984F0895CF92DF92EF9224
:1022A000FF92CF936B017C019B01AC016EEF7FEF3E
:1022B00081E090E00E940F279B01AC0160E074E296
:1022C00084EF90E00E945327C0E0EC2FF0E0EE0F87
:1022D000FF1FEB59FE4F80819181CF5F82179307DB
:1022E000A0F3A7019601220F331F441F551FEC2FA7
:1022F000F0E0EE0FFF1FEB59FE4FA081B1810E946D
:10230000B0279B01AC0160E074E284EF90E00E9492
:102310005327309387002093860080918100C770F7
:10232000887FC82BC093810081E0CF91FF90EF9010
:10233000DF90CF900895682F84EF92E00C947C0C8E
:10234000CF93DF931F92CDB7DEB7FC01818580620A
:1023500069830E94D51C89E00E949B116981862FA8
:102360000E949B110E94DF1C8111FCCF0F90DF9116
:10237000CF910895CF93DF931F92CDB7DEB7FC01C5
:102380008185806269830E94D51C83E10E949B1134
:102390006981862F0E949B110E94DF1C8111FCCF56
:1023A0000F90DF91CF910895FF920F931F93CF93DA
:1023B000DF938C01C62FF42EFC0186858130B1F5A8
:1023C0006585C4FD6061C5FD6860C6FD6460C7FDCC
:1023D0006260D62FFF2011F0D06A01C0D0626D2F4D
:1023E000C8010E94BA116D2F6F7DC8010E94BA11F9
:1023F000F8016585C0FD6061C1FD6860C2FD646073
:10240000C3FD6260C62FFF2011F0C06A01C0C06228
:102410006C2FC8010E94BA116C2F6F7DC801DF912B
:10242000CF911F910F91FF900C94BA11607F70E0D3
:1024300075956795442311F0666001C06460F801EA
:10244000858183FD02C0D0E001C0D0E8D62B6D2F7E
:10245000C8010E94A0116D2F6B7FC8010E94A011BE
:10246000CF70CC0FCC0FCC0FFF2011F0C66001C095
:10247000C460F801858183FD02C060E001C060E8AE
:10248000C62B6C2FC8010E94A0116C2F6B7FC80156
:10249000DF91CF911F910F91FF900C94A011FC013F
:1024A0002385222319F041E00E94D41181E090E0BD
:1024B00008951F920F920FB60F9211242F933F93FE
:1024C0004F935F936F937F938F939F93AF93BF933C
:1024D000EF93FF938091B900887F803609F49CC008
:1024E00068F5883209F45BC090F4803109F454C077
:1024F00038F4882309F4F6C0883009F44DC0F6C0DA
:10250000883109F44CC0803209F45DC0EFC08034DA
:1025100009F468C048F4803309F455C0883309F0E1
:10252000E5C08093C502D8C0803509F44FC0883516
:1025300009F45DC0883409F0D9C0D6C0883909F4DF
:10254000C7C0A8F4883709F467C038F4883609F49E
:1025500063C0803709F460C0C9C0883809F4B8C0C6
:10256000803909F45FC0803809F0C0C05BC0803B8F
:1025700009F486C038F4803A09F466C0883A09F450
:102580007FC0B4C0803C09F4A7C0883C09F4A4C053
:10259000883B09F48AC0AAC08091A20210C0909121
:1025A000C4028091C302981770F5E091C40281E0E3
:1025B0008E0F8093C402F0E0ED55FD4F8081809333
:1025C000BB0085EC86C08093C5028EC0E091C4023A
:1025D00081E08E0F8093C4028091BB00F0E0ED5546
:1025E000FD4F80839091C4028091C3026EC0E09140
:1025F000C40281E08E0F8093C4028091BB00F0E0A2
:10260000ED55FD4F80838091C60281116DC081E040
:102610008093A10284EA61C083E08093C702109294
:10262000D901CFCF8091D901803208F051C0E0911B
:10263000D90181E08E0F8093D9018091BB00F0E039
:10264000E754FE4F8083BDCF85EC8093BC00109291
:10265000C7028091D901803230F4E091D901F0E0D5
:10266000E754FE4F10826091D90170E0E091B7010C
:10267000F091B80189EB91E009951092D90136C02B
:1026800084E08093C7021092B6011092B501E091E8
:10269000B301F091B40109958091B501811105C094
:1026A00081E08093B50110929301E091B60181E041
:1026B0008E0F8093B601F0E0ED56FE4F808180933F
:1026C000BB009091B6018091B501981708F479CFBD
:1026D00085E88093BC000AC085EC8093BC00109212
:1026E000C70204C01092C5020E94F60BFF91EF9141
:1026F000BF91AF919F918F917F916F915F914F911A
:102700003F912F910F900FBE0F901F901895109230
:10271000C70281E08093C6021092A10261E082E1CB
:102720000E94D40C61E083E10E94D40CE9EBF0E05C
:1027300080818E7F808380818D7F808388E48093F9
:10274000B80085E48093BC0008950F931F93CF9346
:10275000DF93EC018B899C89AD89BE89892B8A2BFB
:102760008B2B89F00E94910D0B891C892D893E8944
:10277000DC01CB01801B910BA20BB30B853991417E
:10278000A105B105D8F48F89988DA98DBA8D892BB3
:102790008A2B8B2B09F448C00E94910D0F89188D4C
:1027A000298D3A8DDC01CB01801B910BA20BB30B61
:1027B000893B9B40A105B10580F436C01B8A1C8A69
:1027C0001D8A1E8A8881806190E00E94BF0661E0B8
:1027D00070E0CE010E94F205D6CF1F8A188E198EA6
:1027E0001A8E60E070E0CE010E94F20580916402D2
:1027F000882329F08881886090E00E94BF06898143
:102800009A810E94D705E981FA81811104C08585EA
:102810009685029749F464E070E0CF01DF91CF9193
:102820001F910F910C94F004DF91CF911F910F91A4
:102830000895CF92DF92EF92FF920F931F93CF9361
:10284000DF936C017A018B01C0E0D0E0CE15DF058B
:1028500089F0D8016D918D01D601ED91FC91019027
:10286000F081E02DC6010995892B11F47E0102C08B
:102870002196ECCFC701DF91CF911F910F91FF906F
:10288000EF90DF90CF9008950E94C327CF92DF9200
:10289000EF92FF920F931F93CF93DF93CDB7DEB7E5
:1028A00061970FB6F894DEBF0FBECDBF182F0E9400
:1028B000EE019C01112329F00E94D81D1092720292
:1028C0003AC09091720290FF05C0ACEAB3E0EEEA24
:1028D000F3E004C0ABEAB3E0EDEAF3E02130310508
:1028E00021F022303105A9F0BDC0923018F09430AB
:1028F00010F507C08C918F5F86300CF08BEF8C93B6
:102900001AC080818150863F14F0808314C01082E9
:1029100012C09F5F90937202943068F084E993E054
:102920000E94481E81E495E1909305018093040183
:1029300010926A0297C08091720280FF0BC005E777
:1029400011E04CEAC42E43E0D42E5EEAE52E53E0BB
:10295000F52E0AC003E711E02BEAC22E23E0D22EA7
:102960003DEAE32E33E0F32E823090F1843008F01C
:1029700079C00E94D81D66E372E083E092E00E9475
:10298000992A83E092E00E94991D61E080E00E9414
:102990009B1DF701F080CF2C0F2C000CDD0868E2A6
:1029A00072E083E092E00E94992ADF92FF921F93E7
:1029B0000F9383E092E09F938F931F9281E18F9317
:1029C0008E010F5F1F4F1F930F930E94C82742C0B5
:1029D0000E94D81D63E572E083E092E00E94992A8C
:1029E00083E092E00E94991D61E080E00E949B1DBF
:1029F000F6012081822F022E000C990B97FF03C055
:102A0000919581959109D82EC92E27FD05C099E78A
:102A1000E92E91E0F92E04C087E7E82E81E0F82E38
:102A200063E472E083E092E00E94992ACF92DF9201
:102A3000FF92EF921F930F9383E092E09F938F9307
:102A40001F9281E18F938E010F5F1F4F1F930F9392
:102A50000E94C827C8010E94991D0FB6F894DEBFD6
:102A60000FBECDBF61960FB6F894DEBF0FBECDBFCF
:102A7000DF91CF911F910F91FF90EF90DF90CF905A
:102A80000895CF93C82F0E94EE01CC2361F083E01C
:102A90000E94E71D0E94D81D87EE93E090937A0272
:102AA000809379021FC0009709F443C281309105D9
:102AB000B1F4809177029091780201969093780218
:102AC000809377022091750230917602281739079A
:102AD00008F0DFC01092780210927702DAC00297F5
:102AE00009F0D7C0E0917902F0917A02E730F10560
:102AF00008F066C0E05CFF4F0C9494278091770249
:102B0000809396030CC0E0917702F0917802E65D25
:102B1000FE4F808190E0909398038093970384E91F
:102B200093E00E94481E4CC08091770290917802F9
:102B3000892B09F045C085E598E0909305018093C5
:102B4000040181E0CF910C94550881E02091770237
:102B500030917802232B09F080E080939903DFCF36
:102B60008091770290917802892B51F589E892E063
:102B7000909305018093040181E0CF910C94890228
:102B80008091770290917802892BD1F486E494E1C8
:102B9000909305018093040181E0CF910C94461439
:102BA0008091770290917802892B19F410926A0231
:102BB000C0C187EE93E090937A0280937902B9C105
:102BC0008091790290917A0201968730910528F4DC
:102BD00090937A028093790204C010927A02109244
:102BE0007902E0917902F0917A02E730F10508F07C
:102BF00048C0E95BFF4F0C9494278091960390E0C6
:102C0000909378028093770236C060919703709119
:102C10009803EAE2F1E050E040E080E090E02191AA
:102C200030E06217730711F4582F492F01968B304B
:102C30009105A9F750937702409378028AE090E0DB
:102C40001CC081E090E09093760280937502909191
:102C50009903892790E0909378028093770211C0BE
:102C600081E090E0909378028093770206C0109202
:102C700078021092770281E090E090937602809340
:102C800075028091770290917802909374028093FC
:102C900073020E94D81DE0917902F0917A02E73028
:102CA000F10508F046C1E25BFF4F0C94942764EEF7
:102CB00072E083E092E00E94992A83E092E00E9411
:102CC000991D61E080E00E949B1D20917702309168
:102CD000780280917302909174022817390711F0DD
:102CE00080E201C08BE20E94761E80917702909173
:102CF0007802009731F0019709F01BC162ED72E094
:102D00000FC16DED72E00CC163EC72E083E092E004
:102D10000E94992A83E092E00E94991D61E080E080
:102D20000E949B1D2091770230917802809173025E
:102D3000909174022817390711F080E201C08BE2EC
:102D40000E94761EE0917702F0917802E65DFE4FD8
:102D5000608170E080E090E04AE00E94811E6DEBAF
:102D600072E0DEC062EB72E083E092E00E94992A9A
:102D700083E092E00E94991D61E080E00E949B1D2B
:102D800020917702309178028091730290917402C1
:102D90002817390711F080E201C08BE20E94761EED
:102DA0008091770290917802009731F0019709F0B5
:102DB000C0C06BEA72E0B4C06EEA72E0B1C06FE905
:102DC00072E083E092E00E94992A83E092E00E9400
:102DD000991D61E080E00E949B1D20917702309157
:102DE000780280917302909174022817390711F0CC
:102DF00080E201C08BE20E94761E80917702909162
:102E00007802009731F0019709F093C068E972E009
:102E100087C06BE972E084C069E872E083E092E009
:102E20000E94992A83E092E00E94991D61E080E06F
:102E30000E949B1D2091770230917802809173024D
:102E4000909174022817390711F080E201C08BE2DB
:102E50000E94761E8091770290917802009731F05F
:102E6000019709F066C062E872E05AC065E872E056
:102E700057C065E772E083E092E00E94992A83E000
:102E800092E00E94991D61E080E00E949B1D2091CC
:102E90007702309178028091730290917402281722
:102EA000390711F080E201C08BE20E94761E80910A
:102EB000770290917802009729F00197D1F56EE69C
:102EC00072E02EC061E772E02BC062E672E083E040
:102ED00092E00E94992A83E092E00E94991D61E0AD
:102EE00080E00E949B1D20917702309178028091B2
:102EF0007302909174022817390711F080E201C023
:102F00008BE20E94761E8091770290917802009762
:102F100029F0019771F46BE572E002C06EE572E092
:102F200083E092E00E94992A83E092E0CF910C9492
:102F3000991DCF9108952F923F924F925F926F9279
:102F40007F928F929F92AF92BF92CF92DF92EF9239
:102F5000FF920F931F93CF93DF93CDB7DEB72F97D9
:102F60000FB6F894DEBF0FBECDBFFC0183859485FC
:102F7000019721F485859685059721F51786108A96
:102F8000118A128ADF01929688E2FD0111928A95D8
:102F9000E9F72F960FB6F894DEBF0FBECDBFDF91D5
:102FA000CF911F910F91FF90EF90DF90CF90BF9046
:102FB000AF909F908F907F906F905F904F903F90D9
:102FC0002F9008958081813021F44090AB034D8291
:102FD00003C05090AC035D82FF87EE870E94910D85
:102FE0006E837F8388879987212C312CCC24CA94C7
:102FF000DC2C760119821A821B821C8200E010E010
:10300000812C912C54010E94910DAB01BC01DB017C
:10301000CA014E805F806884798484199509A60965
:10302000B7098397A105B10508F099C0EE85FF8522
:1030300081854C875D876A877B870E94400D2C01C4
:10304000990F660877084C855D856A857B85FFEF5B
:10305000CF16DF06EF06FF0641F181E021E0C21640
:1030600022E0D206E104F1040CF480E091E031E0CA
:10307000431632E05306610471040CF490E08917A2
:10308000A1F0DB01CA01C980DA80EB80FC808C19D9
:103090009D09AE09BF090697A105B10530F00F5F84
:1030A0001F4F49835A836B837C830130110508F4D9
:1030B00053C00330110590F00330110509F04CC0E6
:1030C000910140E050E0C501B4010E94532749013D
:1030D0005A01C12CD12C7601C39411C0C301B20195
:1030E0007250810991099B01AC010E940F27860E45
:1030F000971EA81EB91E2FEF221A320A2DC0A70153
:103100009601C701B6010E940F2786169706A806EA
:10311000B90630F03FEFC31AD30AE30AF30AEFCF40
:103120002150310941095109AAE6B0E00E94B027B7
:10313000693843E1740781059105A8F0ED81F4E653
:10314000EF02600111240D2C000CEE08FF08C60EE2
:10315000D71EE81EF91E09C07301620154CFC12CAD
:10316000D12C760102C06B017C010E94910DEE858D
:10317000FF85038D148D258D368D2B013C01401A62
:10318000510A620A730A49EE441643E05406610488
:10319000710420F0638F748F858F968F2091970331
:1031A00030919803A8EEB3E00E949A27EE85FF8540
:1031B00020A131A12330310529F021E030E040E0A9
:1031C00050E004C022E030E040E050E00E9453278D
:1031D000DA01C90188519C4FAF4FBF4FEE85FF8583
:1031E0008C159D05AE05BF0508F043C08785908905
:1031F000A189B289892B8A2B8B2B49F40E94910DCE
:10320000EE85FF856787708B818B928B36C00E941D
:10321000910DEE85FF850785108921893289DC01B2
:10322000CB01801B910BA20BB30B813A9F40A105F0
:10323000B10518F1EE85FF858081886690E02F96B4
:103240000FB6F894DEBF0FBECDBFDF91CF911F91B7
:103250000F91FF90EF90DF90CF90BF90AF909F9035
:103260008F907F906F905F904F903F902F900C9435
:1032700058071786108A118A128AEE85FF85808189
:10328000880F880F880F61E088500E949B1DEE8593
:10329000FF858081805C0E94761E8AE30E94761EF4
:1032A000C701B6012AE030E040E050E00E94532719
:1032B000F8EECF16F3E0DF06E104F104B8F463EFB3
:1032C00072E083E092E02A873B874C875D870E940B
:1032D000992AAAE0B0E02A853B854C855D850E944D
:1032E000B0279F938F937F936F9331C0CA01B90129
:1032F00024E630E040E050E00E945327CB016AE032
:1033000070E00E943F2721E030E0059714F420E0B0
:1033100030E05B01A20EB31EC701B60128EE33E018
:1033200040E050E00E94532789018AE0A816B104CA
:1033300021F40F5F1F4FA12CB12C6AEF72E083E0E4
:1033400092E00E94992ABF92AF921F930F9383E05D
:1033500092E09F938F938BE792E09F938F930E94CD
:10336000F8270FB6F894DEBF0FBECDBF8BE792E013
:103370002F960FB6F894DEBF0FBECDBFDF91CF9171
:103380001F910F91FF90EF90DF90CF90BF90AF9083
:103390009F908F907F906F905F904F903F902F9075
:1033A0000C94991DEF92FF920F931F93CF93DF938D
:1033B000EC018B01809164028111B3C18D859E85E2
:1033C0008530910509F4F9C16817790709F4FFC13F
:1033D00080919603882321F0813009F49DC0F7C1C4
:1033E0007E876D876530710540F46330710508F0A4
:1033F00047C06130710530F4EAC16530710509F4E8
:1034000080C1E5C160E070E0CE010E94F2050130AC
:10341000110549F089819A810E94D705811106C062
:1034200064E070E005C061E070E002C063E070E05D
:10343000CE010E94F004888190E00130110519F05E
:1034400028E030E002C020E030E0822B932B0E9485
:10345000BF061B8A1C8A1D8A1E8A89819A81FC01EB
:1034600020A131A12330310509F0B1C164E070E041
:10347000DF91CF911F910F91FF90EF900C94F0048A
:10348000CE010E94D7058111A2C189819A810E9433
:10349000D7058823E1F00E94910D6B8B7C8B8D8B7F
:1034A0009E8B63E070E089819A810E94F00463E062
:1034B00070E0CE010E94F0048881886190E0DF9185
:1034C000CF911F910F91FF90EF900C94BF068981CF
:1034D0009A81FC0120A131A12430310521F463E05F
:1034E00070E00E94F00464E070E0CE010E94F004FD
:1034F0001B8A1C8A1D8A1E8A8881806190E00E9436
:10350000BF0661E070E0CE01DF91CF911F910F9176
:10351000FF90EF900C94F205E981FA81E584F6843E
:103520006530710558F46330710508F0CAC0613028
:10353000710549F06230710591F1F0C06530710597
:1035400009F4DFC0EBC060E070E0CE010E94F2053C
:1035500061E070E0CE010E94F0041092FF01109231
:1035600000021092010210920202F2E0EF16F10442
:1035700069F464E070E089819A810E94F004E98135
:10358000FA818081886090E00E94BF06888190E087
:103590000E94BF061F8EE981FA81178EBFC060E0CE
:1035A00070E0CE010E94F2058D859E8503970297FB
:1035B00008F044C082E0E816F10491F5E981FA814F
:1035C000878D81110BC061E070E0CE010E94F00494
:1035D00064E070E089819A810E94F004E981FA81B7
:1035E000808190E0278D211103C028E030E002C0E7
:1035F00020E230E0822B932B0E94BF0688818062FC
:1036000090E00E94BF0681E08F8F0E94910D609331
:10361000FF017093000280930102909302027EC02A
:103620008881886090E00E94BF061092FF0110928E
:103630000002109201021092020270C0E1E0EE1648
:10364000F10491F464E070E0CE010E94F0041F8E5A
:10365000E981FA81178E1092FF01109200021092F8
:103660000102109202021BC0E894E1F88881EF2861
:10367000E1F4909163029813AAC09F8D911115C037
:1036800064E070E0CE010E94F0040E94910D60930E
:10369000FF017093000280930102909302028881DF
:1036A000886090E00E94BF0639C090E02F8D211104
:1036B00003C028E130E002C020E230E0822B932BEF
:1036C000F1CFCE010E94D705811128C088A199A110
:1036D000049721F08881886E90E018C01092FF0155
:1036E0001092000210920102109202028881806101
:1036F00090E00E94BF0661E070E0CE010E94F205FA
:103700000DC08881886290E080649160DF91CF91E4
:103710001F910F91FF90EF900C9458071E870D8713
:1037200056C06130710509F04EC0888190E00E945A
:10373000BF061E870D878F89988DA98DBA8D892B1D
:103740008A2B8B2BA9F01F8A188E198E1A8E60E097
:1037500070E0CE010E94F20589819A810E94D7050E
:10376000811124C0E981FA81858596850297F1F05F
:1037700080916402882359F10230110541F58D854D
:103780009E85019729F48881809363021E870D87A7
:1037900080919603813039F480916302813019F46D
:1037A0008DE090E08CCE89E090E089CE64E070E01E
:1037B0008AE493E00E94F004DBCF6130710519F4D4
:1037C0001E861D86B8CF0230110509F4B4CFDF91F3
:1037D000CF911F910F91FF90EF9008958F929F923C
:1037E000AF92BF92CF92DF92EF92FF920F931F930F
:1037F000CF93DF93CDB7DEB764970FB6F894DEBFF3
:103800000FBECDBF5F87798BF42E411109C06F5F6A
:103810006D3040F02FEFC21AD20A21E061E003C000
:10382000242F01C021E089898B831A82198281E0CB
:103830008D836E838EE48C0D8F83CE0101962C8B4D
:103840000E94E60E4B015C010F8510E00E942111E1
:103850002C8930E02150310987E0829FF001839F5D
:10386000F00D11248091EC029801281B3109C90147
:10387000079667E070E00E943F27DF01A80FB91F9D
:1038800020E831E541E050E00E94BB27680D791D3A
:103890008A1D9B1DF11004C060587A43894091092C
:1038A00064960FB6F894DEBF0FBECDBFDF91CF9107
:1038B0001F910F91FF90EF90DF90CF90BF90AF904E
:1038C0009F908F9008958F929F92AF92BF92CF92C8
:1038D000DF92EF92FF920F931F93CF93DF936C01D0
:1038E000E090BE03F090BF030091C0031091C103AC
:1038F0002091C2033091C3034091C4035091C5038A
:103900006091C6037091C7038091C8039091C90369
:103910000E94EE1BCEEBD3E068A379A38AA39BA3FE
:10392000EAECF3E0E080F1800281138124813581AB
:103930004681578160857185828593850E94EE1B43
:103940006B017C016CA37DA38EA39FA3AE89BF896D
:103950002CE330E00E94A92708A119A12AA13BA1CC
:1039600048015901861A970AA80AB90A888E998EC1
:10397000AA8EBB8EAA85BB852CE330E00E94A927C6
:10398000C61AD70AE80AF90ACC8EDD8EEE8EFF8EB3
:10399000DF91CF911F910F91FF90EF90DF90CF902B
:1039A000BF90AF909F908F90089591E09093E80220
:1039B0008093E6031092F1021092F0020895209194
:1039C000F0029091E603213208F04AC08091C702CC
:1039D0008111FCCF32E03093C70231E03093C60250
:1039E0003FEF3093C5021092C4022093C302A8ECAB
:1039F000B2E043EA52E0FA013E2F341B321718F4CA
:103A00003D913193F9CF1092A2022091A202990F19
:103A1000922B9093A2029091A102913061F41092A6
:103A2000A1029091A2029093BB009091BC0093FDE3
:103A3000F8CF95EC01C095EE9093BC009091C70231
:103A40009230E1F39091C5029F3F79F08091C502D9
:103A5000803241F08091C502803331F084E005C0AE
:103A600081E003C082E001C083E01092F102109275
:103A7000F0021092E80208959091C7029111FCCFD4
:103A8000613208F060E291E09093C7029093C60221
:103A90002FEF2093C5021092C402260F2093C30279
:103AA0009093A2029091A202880F892B8093A20288
:103AB0008091A102813061F41092A1028091A20252
:103AC0008093BB008091BC0083FDF8CF85EC01C0E2
:103AD00085EE8093BC008091C7028130E1F3809134
:103AE000C402861710F46091C402A3EAB2E021E890
:103AF00032E0F9018E2F821B861718F48D91819385
:103B0000F9CF1092F3026093F202862F0895009786
:103B100069F0FC0101900020E9F73197AF01481BE3
:103B2000590BBC018FEA93E00C94191480E090E0EB
:103B300008950C94871DCF93DF93CDB7DEB72897F8
:103B40000FB6F894DEBF0FBECDBF2091BA0322237B
:103B500031F128E0E2E1F1E0DE01119601900D92F1
:103B60002A95E1F72091B603261710F46FEF620F44
:103B7000FE013196E60FF11DE60FF11D9081682FD1
:103B8000690F606840E08FEA93E028960FB6F894DA
:103B9000DEBF0FBECDBFDF91CF910C94D41128961C
:103BA0000FB6F894DEBF0FBECDBFDF91CF91089561
:103BB0008091BA03882351F040E061E08FEA93E0FE
:103BC0000E94D4118BE39FE10197F1F70895CF9301
:103BD000DF939091BA03992309F457C09091B903E8
:103BE000992311F097E089279091BD039130C1F599
:103BF00080FD03C020EC31E002C020E831E03093CA
:103C0000BC032093BB0381FF09C02091BB0330910B
:103C1000BC032F773093BC032093BB0382FF09C002
:103C20008091BB039091BC039E7F9093BC038093D3
:103C3000BB03D091BB03C091BC038091B8038062E9
:103C40000E94D51C82E10E949B118D2F0E949B1126
:103C50008C2F0E949B110E94DF1C8111FCCF15C08C
:103C60009091B403882311F0986001C0977F9093DE
:103C7000B4038091B403682F687083FD60E88FEA15
:103C800093E0DF91CF910C94A011DF91CF91089533
:103C9000CF92DF92EF92FF920F931F93CF93DF9318
:103CA0001F92CDB7DEB77C018C01C12CD12CF8015D
:103CB00061918F01C60169830E94A02A69816817FA
:103CC00019F0C6010E94A82AFFEFCF1ADF0A8BE184
:103CD000C816D10461F7C7010F90DF91CF911F91F2
:103CE0000F91FF90EF90DF90CF900895E091AF0398
:103CF000F091B0030190F081E02D682F8FEA93E0FE
:103D000009948F929F92AF92BF920F931F93CF937C
:103D1000DF93CDB7DEB7A1970FB6F894DEBF0FBE25
:103D2000CDBF19A2423008F44AE08E010F5D1F4F4B
:103D3000842E912CA12CB12CA50194010E94532713
:103D4000E62FB901CA0101501109EA3014F4E05D0F
:103D500001C0E95CD801EC93232B242B252B61F7C0
:103D6000C8010E94871DA1960FB6F894DEBF0FBE52
:103D7000CDBFDF91CF911F910F91BF90AF909F90DA
:103D80008F900895CF92DF92EF92FF920F931F933F
:103D9000CF93E82F880FFF0BEC5FFC4FE4918DEF82
:103DA0008E0F823068F468EE73E080E090E0CF918F
:103DB0001F910F91FF90EF90DF90CF900C944D11D9
:103DC000E83091F5C0E00FE110E0C12C94E2D92E6B
:103DD00094EFE92EF12CCF5FEC2FF0E0EE0FFF1FF8
:103DE000EB5AFE4F8081918180179107A0F38C01DF
:103DF0009C01A0EDB7E00E949A279B01AC01C7018E
:103E0000B6010E9453272F3F31054105510509F0A6
:103E100010F72093B3008091B100C770887FC82B42
:103E2000C093B10081E001C080E0CF911F910F915C
:103E3000FF90EF90DF90CF900895CF93DF93CDB7B1
:103E4000DEB761970FB6F894DEBF0FBECDBF789492
:103E500084B5826084BD84B5816084BD85B582608F
:103E600085BD85B5816085BD80916E008160809340
:103E70006E001092810080918100826080938100A9
:103E800080918100816080938100809180008160B9
:103E9000809380008091B10084608093B100809114
:103EA000B00081608093B00080917A00846080933C
:103EB0007A0080917A00826080937A0080917A0003
:103EC000816080937A0080917A00806880937A0084
:103ED0001092C10014BE9EE088E10FB6F894A89538
:103EE000809360000FBE90936000809180008C7F73
:103EF0008093800080918100877E80618093810023
:103F000064EF71E080E090E00E944D118091B0007C
:103F10008C7F81608093B0008091B1008860809335
:103F2000B10010E03EE3E32EF12C812C44E2942E0C
:103F300044EFA42EB12C1F5FE12FF0E0EE0FFF1F26
:103F4000EB5AFE4F808191818E159F05A0F37C0175
:103F50009C01A8EEB3E00E949A279B01AC01C50129
:103F6000B4010E9453272F3F31054105510509F047
:103F700010F72093B3008091B1001770887F182B41
:103F80001093B10081E08093BD0362E370E080E0B4
:103F900090E00E94570D1092F3021092F2021092DC
:103FA000F1021092F0020E9487139091BD0380915C
:103FB000B8038062913069F50E94D51C80E00E94B0
:103FC0009B118FE10E949B110E94DF1C882339F016
:103FD0008091BA03823019F41092BA03EDC0809137
:103FE000B80380620E94D51C8CE00E949B118FE177
:103FF0000E949B110E94DF1C882321F08091BA034C
:10400000823051F38091B80380620E94D51C81E018
:1040100032C00E94D51C80E00E949B118FEF0E944D
:104020009B1180E00E949B1180E00E949B1180E028
:104030000E949B1180E00E949B1180E00E949B11D6
:1040400080E00E949B1180E00E949B1180E00E9412
:104050009B1180E00E949B110E94DF1C882329F0A5
:104060008091BA03823009F4B7CF8091B80380629F
:104070000E94D51C80E00E949B1180E00E949B1151
:104080000E94DF1C882329F08091BA03823009F452
:10409000A3CF8091BA03823019F481E08093BA03F0
:1040A0008091B30388608093B30382E08093B6036A
:1040B0001092B7038091BD038130E1F41092BC03EC
:1040C0001092BB0313E068E38FEA93E00E94BA11F9
:1040D00068E18FEA93E00E94BA111150A1F768E2FB
:1040E0008FEA93E00E94BA1168E08FEA93E00E94A1
:1040F000BA1128C06CE98FEA93E00E94A01168E928
:104100008FEA93E00E94A0116CE98FEA93E00E948D
:10411000A01168E98FEA93E00E94A0116CE98FEA90
:1041200093E00E94A01168E98FEA93E00E94A01139
:1041300064E98FEA93E00E94A01160E98FEA93E0BE
:104140000E94A01165E070E080E090E00E94570DB1
:104150006091B303606240E08FEA93E00E94D41163
:1041600065E070E080E090E00E94570D6091B3033D
:10417000606240E08FEA93E00E94D41165E070E055
:1041800080E090E00E94570D8CE08093B403809112
:10419000BA03882331F040E06CE08FEA93E00E949C
:1041A000D4110E94D81D82E08093B50340E066E000
:1041B0008FEA93E00E94D41187E00E94E71D0E94DD
:1041C000D81D60E080E00E949B1D67EE71E083E0F7
:1041D00092E00E94992A83E092E00E94991D61E09A
:1041E00081E00E949B1D63EE71E083E092E00E94FB
:1041F000992A83E092E00E94991D80E20E94761E37
:104200006DED71E083E092E00E94992A83E092E0F4
:104210000E94991D80ED97E00E94D50161E081E048
:104220000E949B1D69ED71E083E092E00E94992A53
:1042300083E092E00E94991D80E20E94761E6FEC5E
:1042400071E083E092E00E94992A83E092E00E946C
:10425000991D08E010E080E20E94761E01501109CD
:10426000D1F761E083E00E94040D60E083E00E94EA
:10427000D40C60E082E00E94040D87EB91E0909303
:10428000010180930001809169008360809369003F
:10429000E89A61E08AE00E94040D61E089E00E94F2
:1042A000040D61E088E00E94040D61E087E00E9457
:1042B000040D60E081E10E94040D60E080E10E9455
:1042C000040D61E070E080E093E00E94F00461E0A2
:1042D00070E08AE493E00E94F00460E070E080E027
:1042E00093E00E94F20560E070E08AE493E00E94AF
:1042F000F2051092FB011092FC011092FD01109248
:10430000FE011092F7011092F8011092F90110923B
:10431000FA011092FF011092000210920102109215
:10432000020283E690E090936C0280936B021092FD
:10433000650210926602109267021092680281E094
:104340008093630286EA9FE09093F6018093F501E3
:104350008091F1019091F201A091F301B091F401EB
:104360008093ED019093EE01A093EF01B093F001E3
:104370000E945C0E80919A03682F082E000C770B28
:1043800077FF03C0719561957109162F1F7187FF23
:10439000106288E60E94D51C67E084EF92E00E94DC
:1043A0007C0C612F84EF92E00E947C0C0E94DF1C49
:1043B0008AE00E94C21E811103C083E00E94E71DB3
:1043C00089E00E94C21E811103C084E00E94E71DA3
:1043D00080ED97E00E94D5010E94D81D0E947006D2
:1043E00081E10E94AB0C01E0019709F000E080E15F
:1043F0000E94AB0C11E0019709F010E0011102C01E
:104400001123F9F081E00E94E71D0E94D81D6FEB97
:1044100071E083E092E00E94992A83E092E00E949A
:10442000991D61E080E00E949B1D002319F081E44A
:104430000E94761E112319F082E40E94761E0E94CB
:1044400027069E012F5F3F4F49013324339491E1AA
:10445000292EA89580916A02882339F0E091040101
:10446000F091050180E00995CEC280916902882310
:1044700031F088EA90E00E9458071092690280911A
:10448000650290916602A0916702B0916802892B43
:104490008A2B8B2B81F581E10E94AB0C019739F4BB
:1044A00080910B0390910C03892B09F4B4C280E135
:1044B0000E94AB0C019739F48091550390915603FB
:1044C000892B09F4ADC281E10E94AB0C892B39F430
:1044D00080910B0390910C03019709F4A6C280E12F
:1044E0000E94AB0C892B39F48091550390915603AF
:1044F000019709F49FC28091650290916602A09194
:104500006702B0916802892B8A2B8B2BA1F00E9445
:10451000910D009165021091660220916702309121
:1045200068020C501E4F2F4F3F4F061717072807E2
:10453000390708F484C280910D0390910E0305970A
:1045400031F08091570390915803059711F481E061
:104550001AC080E093E00E94D705182F8AE493E008
:104560000E94D70511110AC081110CC0809164020C
:10457000811102C082E007C083E005C0882311F0EA
:1045800085E001C086E00E94E71D90917102809154
:104590006402992309F455C0811150C0809196039B
:1045A000813091F48091200390912103049719F4B4
:1045B0003092630209C080916A0390916B03049763
:1045C000B9F732E03093630261E070E080E093E09D
:1045D0000E94F00461E070E08AE493E00E94F0043D
:1045E0000E94910D60931703709318038093190331
:1045F00090931A0310920E0310920D03109213035E
:1046000010921403109215031092160310921F03B8
:1046100060936103709362038093630390936403D8
:10462000109258031092570310925D0310925E038C
:1046300010925F031092600310926903309264023B
:104640000CC0882341F010920E0310920D031092BB
:104650005803109257031092640260E080E00E94B9
:104660009B1D88E60E94D51C60E084EF92E00E94CA
:104670007C0C0E94DF1C61E070E088E690E00E9404
:104680003C1D84EF92E00E94380C87FD41C00E94DF
:10469000C8070E9421118091EB0290E00C9714F45E
:1046A00011E401C010E50E94C8070E942111009189
:1046B000EA020E94C8070E9421118091EB02882320
:1046C00041F0E82EF12C8D3038F04CE0E41AF1087E
:1046D00003C08CE0E82EF12C6BE172E083E092E005
:1046E0000E94992A1F921F931F920F93FF92EF929D
:1046F00083E092E09F938F931F922F929F928F92CD
:104700000E94C8270FB6F894DEBF0FBECDBF16C0FB
:1047100062E172E083E092E00E94992A83E092E0F5
:104720009F938F931F922F929F928F920E94C827E0
:104730000F900F900F900F900F900F90C4010E9458
:10474000991D80916402882319F069E072E018C015
:1047500066E072E083E092E00E94992A83E092E0B2
:104760000E94991D80919603882329F0813031F4AD
:1047700068EF71E005C06FEF71E002C064EF71E0B7
:1047800083E092E00E94992A83E092E00E94991DC2
:1047900080E093E00E9492045C01BC0180E093E021
:1047A0000E94D2198AE493E00E9492048C01BC0119
:1047B0008AE493E00E94D2194090FF0150900002D9
:1047C000609001027090020241145104610471046E
:1047D00009F461C00E94910D6B017C01DC01CB01E9
:1047E00084199509A609B709813E9349A440B105EA
:1047F00008F451C08091200390912103049711F592
:1048000061E070E080E093E00E94F00464E070E01A
:104810008AE493E00E94F004C092FF01D09200026B
:10482000E0920102F092020280911F03811103C005
:1048300089E190E002C081E290E00E94BF068AE038
:1048400090E027C080916A0390916B03049719F55B
:1048500061E070E08AE493E00E94F00464E070E0BC
:1048600080E093E00E94F004C092FF01D092000229
:10487000E0920102F092020280916903811103C06B
:104880008AE190E002C082E290E00E94BF0689E0E7
:1048900090E00E94BF060E94910DC0906D02D090E2
:1048A0006E02E0906F02F09070029B01AC012C1937
:1048B0003D094E095F0969017A0131E6C3163AEEF6
:1048C000D306E104F10440F060936D0270936E0230
:1048D00080936F029093700280E093E00E949B1798
:1048E0008AE493E00E949B1780E093E00E94A51366
:1048F0008AE493E00E94A5130E94EE019C010197B7
:1049000029F490916402932590937102AA94AB28A4
:1049100099F40130110581F42230310569F43092A7
:104920006A0210920E0310920D0310925803109217
:10493000570381E00E94411500916B0210916C02B7
:104940000E94C8070E9421118091EA0290E0081796
:10495000190709F458C00E94C8070E9421118091CC
:10496000EA0290E090936C0280936B020E94C80769
:104970000E9421111091EB020E94C8070E94211190
:104980000091EA020E94C80720E831E541E050E0CA
:104990000E945327CA01B9016C5F7F4F8F4F9F4F11
:1049A00027E030E040E050E00E94532781E001C062
:1049B000880F6A95EAF720E030E0F901EC56FC4FE9
:1049C0009285992371F0478141130BC040854013B4
:1049D00008C04185482329F0913049F0923071F0A8
:1049E00012C02C5F3F4F2031310539F70CC0809148
:1049F0006402811108C09093710205C08091640225
:104A000081111092710280E090E0892B09F421CD90
:104A10000E9400001ACD89E291E00E94580747CD1C
:104A20008AE291E00E9458074ECD8AE290E00E940F
:104A3000580755CD8AE290E00E9458075CCD10924D
:104A4000650210926602109267021092680273CD9E
:104A5000EF92FF920F931F93CF93DF93CDB7DEB703
:104A600068970FB6F894DEBF0FBECDBF1092F30269
:104A70001092F2021092F1021092F0020E9487133B
:104A80001092F7021092F60288EE93E0A0E0B0E0F8
:104A90008093F8029093F902A093FA02B093FB027C
:104AA0008EE191E09093F5028093F4028CE0E9E4CA
:104AB000F1E0DE011D9601900D928A95E1F78CE000
:104AC000EDE3F1E0DE01119601900D928A95E1F798
:104AD0008CE0FE013D96AEEBB3E001900D928A951D
:104AE000E1F78CE0FE013196AAECB3E001900D9263
:104AF0008A95E1F71092B2031092B10389E391E035
:104B00009093B0038093AF0382E08093BA03109236
:104B1000B90380E28093B8031092B3031092BD03EF
:104B20001092AB031092AC031092AD031092AE033F
:104B300084E9E82E83E0F82E00E010E0C8010E942E
:104B4000A02AD7018D937D010F5F1F4F0B311105F7
:104B5000A9F78091940390919503813F910509F401
:104B600044C081EF90E0909395038093940310925A
:104B700096038CE090E0909398038093970381E0F4
:104B80008093990310929A0380E090E0FC01EC5628
:104B9000FC4F12861782108611860496803191058B
:104BA000A9F78EE38093A10380939D0387E180930F
:104BB0009B0387E080939F0381EC8093A50383E1AF
:104BC0008093A3038FEF8093A9038FE08093A703C3
:104BD0001092AB031092AC031092AD031092AE038F
:104BE00084E993E00E94481E65C08091960382305C
:104BF00010F0109296034091970350919803EAE2C7
:104C0000F1E020E0B1E0E533FB0739F0819190E07D
:104C100084179507B9F721E0F5CF211106C08CE084
:104C200090E09093980380939703EEE9F3E08081FE
:104C3000833008F01082DF0113978C91883108F0DF
:104C40001C92DF0112978C918C3308F01C92DF01CB
:104C50008E918F778C93349683E0EE3AF80739F78C
:104C60008091AB03082E000C990B97FF03C0919520
:104C700081959109069714F01092AB038091AC03D3
:104C8000082E000C990B97FF03C09195819591090F
:104C9000069714F01092AC038091AD03865F8B30C1
:104CA00010F01092AD038091AE03865F8B3010F050
:104CB0001092AE0381E0809300038AE493E0909326
:104CC00002038093010388E090E0909304038093B3
:104CD00003038AE090E0909306038093050381E04C
:104CE00090E0909308038093070327E030E030932F
:104CF0000A032093090310920C0310920B031092E5
:104D00000E0310920D0310920F03109210031092D5
:104D100011031092120310921303109214031092B5
:104D20001503109216031092170310921803109295
:104D3000190310921A0310921B0310921C03109275
:104D40001D0310921E0310921F0310922103109254
:104D5000200388E2E2E2F3E0DF01982F1D929A95AA
:104D6000E9F792E090934A0340E053E050934C03FC
:104D700040934B0330934E0320934D0329E030E0E2
:104D80003093500320934F0310925203109251031B
:104D900026E030E0309354032093530310925603DF
:104DA0001092550310925803109257031092590312
:104DB00010925A0310925B0310925C0310925D03F1
:104DC00010925E0310925F031092600310926103D1
:104DD00010926203109263031092640310926503B1
:104DE0001092660310926703109268031092690391
:104DF00010926B0310926A03ECE6F3E0DF011D9260
:104E00008A95E9F768960FB6F894DEBF0FBECDBF5E
:104E1000DF91CF911F910F91FF90EF900895DB01EB
:104E20008F939F930E94B027BF91AF91A29F800D57
:104E3000911DA39F900DB29F900D11240895991B71
:104E400079E004C0991F961708F0961B881F7A9581
:104E5000C9F780950895AA1BBB1B51E107C0AA1F83
:104E6000BB1FA617B70710F0A61BB70B881F991F0B
:104E70005A95A9F780959095BC01CD01089597FBAF
:104E8000072E16F4009407D077FD09D00E942B2737
:104E900007FC05D03EF4909581959F4F089570953D
:104EA00061957F4F0895A1E21A2EAA1BBB1BFD013D
:104EB0000DC0AA1FBB1FEE1FFF1FA217B307E407F9
:104EC000F50720F0A21BB30BE40BF50B661F771F51
:104ED000881F991F1A9469F7609570958095909531
:104EE0009B01AC01BD01CF010895052E97FB1EF477
:104EF00000940E948C2757FD07D00E94532707FC7F
:104F000003D04EF40C948C27509540953095219504
:104F10003F4F4F4F5F4F08959095809570956195E5
:104F20007F4F8F4F9F4F0895EE0FFF1F0590F49115
:104F3000E02D0994A29FB001B39FC001A39F700D03
:104F4000811D1124911DB29F700D811D1124911D91
:104F500008950E949A27B7FF0895821B930B089526
:104F60000E949A27A59F900DB49F900DA49F800D3D
:104F7000911D11240895B7FF0C94B0270E94B0270B
:104F8000821B930B089581E090E0F8940C94ED2A35
:104F9000AEE0B0E0EEECF7E20C94C42A0D891E8975
:104FA0008F89988D26E02C831A83098397FF02C08E
:104FB00080E090E801979E838D83AE01455E5F4F50
:104FC000698D7A8DCE0101960E941B284D815E81EC
:104FD00057FD0AC02F813885421753070CF49A01F8
:104FE000F801E20FF31F10822E96E4E00C94E02A01
:104FF000AEE0B0E0EEEFF7E20C94C42A0D891E8912
:1050000086E08C831A8309838FEF9FE79E838D83CD
:10501000AE01475E5F4F6F89788DCE0101960E9489
:105020001B282F813885F801E20FF31F10822E967E
:10503000E4E00C94E02AACE0B0E0E1E2F8E20C94A9
:10504000B62A7C016B018A01FC01178216828381DA
:1050500081FFBDC1CE0101964C01F7019381F6019C
:1050600093FD859193FF81916F01882309F4ABC172
:10507000853239F493FD859193FF81916F018532DB
:1050800029F4B70190E00E94032AE7CF512C312C7C
:1050900020E02032A0F48B3269F030F4803259F0F5
:1050A000833269F420612CC08D3239F0803339F4B9
:1050B000216026C02260246023C0286021C027FD13
:1050C00027C030ED380F3A3078F426FF06C0FAE0FA
:1050D0005F9E300D1124532E13C08AE0389E300D90
:1050E0001124332E20620CC08E3221F426FD6BC1B8
:1050F000206406C08C3611F4206802C0883641F462
:10510000F60193FD859193FF81916F018111C1CFCC
:10511000982F9F7D9554933028F40C5F1F4FFFE329
:10512000F9830DC0833631F0833771F0833509F090
:105130005BC022C0F801808189830E5F1F4F442429
:105140004394512C540115C03801F2E06F0E711CCC
:10515000F801A080B18026FF03C0652D70E002C079
:105160006FEF7FEFC5012C870E94F8292C01830186
:105170002C852F77222E17C03801F2E06F0E711C9C
:10518000F801A080B18026FF03C0652D70E002C049
:105190006FEF7FEFC5012C870E94ED292C012C8534
:1051A0002068222E830123FC1BC0832D90E048162B
:1051B0005906B0F4B70180E290E00E94032A3A94C5
:1051C000F4CFF50127FC859127FE81915F01B7019E
:1051D00090E00E94032A31103A94F1E04F1A5108EE
:1051E0004114510471F7E5C0843611F0893639F560
:1051F000F80127FF07C060817181828193810C5F74
:105200001F4F08C060817181072E000C880B990B1D
:105210000E5F1F4F2F76722E97FF09C090958095D5
:10522000709561957F4F8F4F9F4F2068722E2AE0B7
:1052300030E0A4010E943B2AA82EA81844C085375C
:1052400029F42F7EB22E2AE030E025C0F22FF97F1C
:10525000BF2E8F36C1F018F4883579F0B4C080378E
:1052600019F0883721F0AFC02F2F2061B22EB4FE85
:105270000DC08B2D8460B82E09C024FF0AC09F2F5B
:105280009660B92E06C028E030E005C020E130E08D
:1052900002C020E132E0F801B7FE07C060817181F1
:1052A000828193810C5F1F4F06C06081718180E015
:1052B00090E00E5F1F4FA4010E943B2AA82EA81861
:1052C000FB2DFF777F2E76FE0BC0372D3E7FA5147A
:1052D00050F474FE0AC072FC08C0372D3E7E05C033
:1052E000BA2C372D03C0BA2C01C0B52C34FF0DC029
:1052F000FE01EA0DF11D8081803311F4397E09C071
:1053000032FF06C0B394B39404C0832F867809F0AB
:10531000B39433FD13C030FF06C05A2CB31418F4F5
:10532000530C5B18B32CB31468F4B70180E290E01F
:105330003C870E94032AB3943C85F5CFB31410F444
:105340003B1801C0312C34FF12C0B70180E390E05C
:105350003C870E94032A3C8532FF17C031FD03C001
:1053600088E790E002C088E590E0B7010CC0832F89
:10537000867859F031FF02C08BE201C080E237FD30
:105380008DE2B70190E00E94032AA51438F4B7011A
:1053900080E390E00E94032A5A94F7CFAA94F40184
:1053A000EA0DF11D8081B70190E00E94032AA1104F
:1053B000F5CF332009F451CEB70180E290E00E948E
:1053C000032A3A94F6CFF7018681978102C08FEFC6
:1053D0009FEF2C96E2E10C94D22AFC0105906150DB
:1053E00070400110D8F7809590958E0F9F1F0895FB
:1053F000FC016150704001900110D8F780959095A4
:105400008E0F9F1F08950F931F93CF93DF93FB0180
:10541000238121FD03C08FEF9FEF28C022FF16C01C
:1054200046815781248135814217530744F4A08176
:10543000B1819D012F5F3F4F318320838C93268163
:1054400037812F5F3F4F3783268310C0EB01092F31
:10545000182F0084F185E02D0995892BE1F68E81C6
:105460009F8101969F838E83812F902FDF91CF9113
:105470001F910F910895FA01AA27283051F1203188
:1054800081F1E8946F936E7F6E5F7F4F8F4F9F4FD8
:10549000AF4FB1E03ED0B4E03CD0670F781F891F1A
:1054A0009A1FA11D680F791F8A1F911DA11D6A0FE8
:1054B000711D811D911DA11D20D009F468943F919B
:1054C0002AE0269F11243019305D3193DEF6CF019A
:1054D0000895462F4770405D4193B3E00FD0C9F760
:1054E000F6CF462F4F70405D4A3318F0495D31FDCD
:1054F0004052419302D0A9F7EACFB4E0A695979520
:10550000879577956795BA95C9F7009761057105F5
:1055100008959B01AC010A2E06945795479537953F
:105520002795BA95C9F7620F731F841F951FA01D99
:105530000895FB01DC0105900D920020E1F708952C
:10554000F999FECF92BD81BDF89A992780B508954B
:10555000262FF999FECF1FBA92BD81BD20BD0FB68F
:10556000F894FA9AF99A0FBE019608952F923F92F5
:105570004F925F926F927F928F929F92AF92BF9263
:10558000CF92DF92EF92FF920F931F93CF93DF930F
:10559000CDB7DEB7CA1BDB0B0FB6F894DEBF0FBE6C
:1055A000CDBF09942A88398848885F846E847D84B9
:1055B0008C849B84AA84B984C884DF80EE80FD80BB
:1055C0000C811B81AA81B981CE0FD11D0FB6F89431
:0E55D000DEBF0FBECDBFED010895F894FFCFF2
:1055DE00ED0BED0B41151F1C1F1E1F1E1F1F1E1F47
:1055EE001E1F0000400014005400000000007C0C40
:1055FE004C0CEE0B380C290C280C0C1014181C1E1D
:10560E002024282C32000000004F1219145354008D
:10561E0000000001010B0200004453540000000280
:10562E000103023C00000001000800200040008041
:10563E00000001000400000100080040000001000D
:0C564E00042000410042002D002B000051
:00000001FF
