:100000000C948D010C94A50E0C947E0E0C94B501ED
:100010000C94B5010C94B5010C94B5010C94B50188
:100020000C94B5010C94B5010C94B5010C94B50178
:100030000C94B5010C94B5010C94B5010C94B50168
:100040000C94340E0C94B5010C94B5010C94B501CC
:100050000C94B5010C94B5010C94B5010C94B50148
:100060000C94E8120C94B501AE02E102EA02F5022A
:10007000FD02FD02FD02FD02FD02FD02FD020B0379
:100080004316481659166A16751685169516C21621
:10009000CA16F516E616F516F516FC161C174917BE
:1000A0007717A417D117FE172A184552522000209F
:1000B000646F6E6500207761697400206F6E202088
:1000C00000206F66662000202D2D2D2000636C65BA
:1000D00061720073657400537475636B200047464A
:1000E000492054657374204661696C7572650045DA
:1000F00072724A616E4665624D61724170724D6105
:10010000794A756E4A756C4175675365704F6374B3
:100110004E6F764465630020200025326400202065
:1001200020002020200020253264002020002530DF
:100130003264002020002532640053657420436C33
:100140006F636B00534D545754465300534D5457EF
:100150005446530020200025303264002020002522
:1001600032640045786974002020202000456469CD
:1001700074204576656E742000000000002400277E
:10018000002A0000000000250028002B00000000CD
:1001900000230026002900040404040404040402CB
:1001A0000202020202030303030303010204081014
:1001B000204080010204081020010204081020528F
:1001C000656C6179204661696C7572653A20003210
:1001D0002E342E312D6465760053573A00322E337B
:1001E0002E310048573A004A313737322048796477
:1001F00072612000554E4B007365716E746C007314
:100200006861726564004D3A004D3A50415553455E
:1002100044002020202020202020002532643A2580
:1002200030326425634D2000204361722025733AEB
:1002300020256425250050696C6F74206465726107
:10024000746500204361722025733A202573302E97
:10025000256400416D6D65746572004E6F005965CF
:10026000730045786974204D656E75733F004E6F5D
:10027000005965730043616C6962726174696F6EE5
:100280003F004E6F0059657300436F6E66696720CB
:100290004576656E74733F004E6F00596573004577
:1002A0006E61626C65204453543F004E6F00596587
:1002B000730053657420436C6F636B3F0020416D86
:1002C00070730043757272656E7420417661696C5B
:1002D0002E0053657175656E7469616C00536861B9
:1002E000726564004F7065726174696E67204D6F4E
:1002F00064650025336C756D41002532642E253010
:1003000031644100000000080002010000030407FE
:100310000000000000000000DC2411241FBECFEF0D
:10032000D8E0DEBFCDBF11E0A0E0B1E0EAEAF4E53D
:1003300002C005900D92A037B107D9F723E0A0E7DE
:10034000B1E001C01D92A336B207E1F711E0CDE89C
:10035000D1E004C02197FE010E940127CC38D107CB
:10036000C9F70E94F91E0C94532A0C94000060E017
:1003700088E00E946B0D60E087E00E946B0DE4EF67
:10038000F2E016A615A6148613860E94280E609326
:10039000600270936102809362029093630281E035
:1003A000809364020895CF93DF93EC01C536D105A5
:1003B00050F064E670E080E090E00E94EE0DC456DC
:1003C000D109A895F3CFBE0180E090E00E94EE0D28
:1003D000A895DF91CF9108950F931F938091EF011E
:1003E0009091F001A091F101B091F201892B8A2B3B
:1003F0008B2BA9F00E94280E0091EF011091F001C3
:100400002091F1013091F201DC01CB01801B910BB5
:10041000A20BB30BC297A105B10508F444C010921A
:10042000EF011092F0011092F1011092F20180910F
:100430005E038823C1F080915C0380620E94C31C2C
:1004400082E10E942A120E94CD1C80915C0380628E
:1004500061E070E090E00E942A1D88EE92E00E9428
:10046000CF0C80958F714091EB015091EC01609120
:10047000ED017091EE0180FF19C0452B462B472BF3
:1004800091F40E94280E6093EB017093EC0180932D
:10049000ED019093EE016093EF017093F001809372
:1004A000F1019093F20180E090E02EC0452B462BA5
:1004B000472BC9F30E94280E6093EF017093F0015F
:1004C0008093F1019093F2010091EB011091EC0106
:1004D0002091ED013091EE01DC01CB01801B910BED
:1004E000A20BB30B1092EB011092EC011092ED01F4
:1004F0001092EE018B3F9105A105B10518F481E042
:1005000090E002C082E090E01F910F910895FF9269
:100510000F931F93CF93DF9300D000D0CDB7DEB7FA
:10052000F82E0E94EC018C01FF2039F00E94B41DCE
:10053000109285011092840104C08130910509F068
:1005400075C090918501492F50E04C30510508F05D
:10055000AFC0FA01EC5CFF4F0C940127F11005C00D
:10056000809184018F5F8093840180918401853024
:1005700010F010928401E0918401E43008F098C0FA
:1005800034E0E39FF0011124E15CFC4F8081809313
:100590008301918190938201928190938101938153
:1005A0009093800191E08C3008F490E090937F016B
:1005B000811102C08CE00BC08D3008F479C08C50E2
:1005C00006C0809183018F5F8D3008F081E08093B9
:1005D00083016EC0809182018F5F8C3318F4809309
:1005E000820166C01092820163C081E090917F0118
:1005F000911180E080937F015BC02CEF290F81E097
:1006000090E001C0880F2A95EAF79091810189272F
:10061000809381014DC0809180018F5F833018F4F9
:100620008093800145C01092800142C0029709F07A
:1006300041C09091850191110FC080918401843057
:1006400059F486E096E19093110180931001109285
:1006500065020E94B41D5AC19F5F909385019C3032
:1006600048F18091830190917F01911103C08C30FA
:1006700031F44AC1913019F48C3009F0845FE09173
:10068000840194E0E99FF0011124E15CFC4F808338
:100690008091820181838091810182838091800198
:1006A000838388E393E00E94241E109285012EC16B
:1006B00001E010E00E94280E28EE33E040E050E018
:1006C0000E94C02621E0643F71408105910508F435
:1006D00020E0012B29F490917E01921709F416C1B4
:1006E00020937E0160E080E00E94771D6DE671E05E
:1006F0008EEF91E00E94FF298EEF91E00E94751D20
:1007000080917E01882339F080918501811103C099
:1007100068E671E006C060918401643059F463E6D4
:1007200071E08EEF91E00E94FF298EEF91E00E9430
:10073000751D0AC070E06F5F7F4F072E000C880B9D
:10074000990B4AE00E945D1E61E080E00E94771DE7
:1007500080918401843049F400E110E080E20E943D
:10076000521E01501109D1F7D1C0109183016FE5DC
:1007700071E08EEF91E00E94FF291F921F938EEF90
:1007800091E09F938F938E010F5F1F4F1F930F93E5
:100790000E945E270F900F900F900F900F900F9078
:1007A00080917E01882369F080918501813049F430
:1007B0006CE571E08EEF91E00E94FF298EEF91E0F1
:1007C00001C0C8010E94751D8AE30E94521EF0906C
:1007D000820167E571E08EEF91E00E94FF291F9290
:1007E000FF928EEF91E09F938F931F930F930E9440
:1007F0005E270F900F900F900F900F900F908091A9
:100800007E01882369F080918501823049F464E596
:1008100071E08EEF91E00E94FF298EEF91E001C020
:10082000C8010E94751D80917E01882331F080915E
:100830008501833011F480E207C080917F0181300F
:1008400011F081E401C080E50E94521E80E20E9406
:10085000521E00E010E064E471E08EEF91E00E942F
:10086000FF29EEEFF1E001900020E9F73197EE5F0C
:10087000F1400E171F0758F58091850190E098010F
:100880002C5F3F4F2817390731F480917E01882370
:1008900011F080E217C08091810190E0002E02C02B
:1008A000959587950A94E2F780FF0BC06CE471E0A0
:1008B0008EEF91E00E94FF29F801E250FE4F808107
:1008C00001C08DE20E94521E0F5F1F4FC4CF80E215
:1008D0000E94521E809185018B3031F480917E01FF
:1008E000882311F080E20DC080918001811102C047
:1008F0008EE407C0813011F483E503C0823031F407
:1009000087E40E94521E02C080E0B9CE0F900F9083
:100910000F900F90DF91CF911F910F91FF9008954D
:100920008F929F92AF92BF92EF92FF920F931F937D
:10093000CF93DF937C010E94280E4B015C01C0E045
:10094000D0E00FE017E20E94280EDC01CB018819ED
:100950009909AA09BB094497A105B10568F4F701F3
:1009600087810E94D70DC817D90708F4EC018017BA
:10097000910748F78C01E7CF0B5F11090133114054
:10098000A0F0C63683E0D80798F4CE018750934094
:100990008F35910580F0835A9F4F8D35910570F00A
:1009A000C256D240C834D10560F085E090E00BC05B
:1009B00081E090E008C082E090E005C083E090E034
:1009C00002C084E090E0DF91CF911F910F91FF90E2
:1009D000EF90BF90AF909F908F900895CF92DF924D
:1009E000EF92FF920F931F93CF93DF93EC018B0154
:1009F0008881813019F44091510302C04091520323
:100A00000230110518F4602F8D81A4C020913B03A2
:100A100030913C03A8EEB3E00E9407270330110594
:100A200021F496958795779567954423D1F0A42F67
:100A3000440FBB0BAC59BF4F9B01AC010E94212757
:100A400024E630E040E050E00E94C026203787E1F5
:100A500038074105510568F460E777E180E090E0F0
:100A600010C06133E5E77E078105910508F098C065
:100A70001AC0CA01B901213335474105510508F0B3
:100A80008FC02CE330E040E050E00E94C026942F5D
:100A9000832F722F662728EE33E040E050E00E945B
:100AA000E226790109C0603727E1720781059105C7
:100AB00040F7EE24EA94F12CCD80DE8061E08C2DAD
:100AC0000E949B0DFFEFEF16F10409F441C0F601FF
:100AD000FF27EC5FFC4FE491E330E1F058F4E230A3
:100AE00099F584B5806284BD27B530E058E4C52E01
:100AF000D12C3DC0E430D9F0E83031F58091B00020
:100B000080628093B0002091B30030E084EBC82E67
:100B1000D12C2DC08091800080688093800020912E
:100B200086003091870048E8C42ED12C2CC08091DB
:100B30008000806280938000209186003091870041
:100B40009AE8C92ED12C1FC0E7FC02C060E001C0AA
:100B500061E08C2D0E946B0D19A308A3DF91CF914A
:100B60001F910F91FF90EF90DF90CF900895D701E4
:100B70000E9407272FEF30E040E050E00E94C0269F
:100B8000F6012083E9CFD7010E9407272FEF30E03D
:100B900040E050E00E94C026F60131832083DCCF84
:100BA00060E375E780E090E06CCFFC0180915F022C
:100BB000811112C0258536852530310581F0838964
:100BC0009489A589B689892B8A2B8B2B39F42385A7
:100BD000348581E0232B19F480E0089581E00895A5
:100BE0000F931F93CF93DF938C01EB018091FF0252
:100BF00090910003892B49F4809121039091220365
:100C0000892B19F461307105C1F0F8018385948551
:100C10008C179D07A9F06C2F83810E946B0DF80142
:100C2000D487C3870E94280E60936002709361028C
:100C3000809362029093630203C00E946E06E5CF28
:100C4000DF91CF911F910F91089560E070E084EFE4
:100C500092E00E94EE0460E070E086E193E00E9482
:100C6000EE0460E070E084EF92E00E94F00560E046
:100C700070E086E193E00E94F005A895FECFC82FB2
:100C800081E00E94C31D0E94B41D6EED70E08EEFE6
:100C900091E00E94FF298EEF91E00E94751D61E0B6
:100CA00080E00E94771D67ED70E08EEF91E00E947A
:100CB000FF298EEF91E00E94751DCC2319F063EDA2
:100CC00070E002C06DEC70E08EEF91E00E94FF29B1
:100CD0008EEF91E00E94751D0E942506CF92DF9253
:100CE000EF92FF920F931F93CF93DF9310926402C2
:100CF000C2E3D0E00BEF1CE761E083E00E946B0DE4
:100D0000C8010197F1F760E083E00E946B0DC80114
:100D10000197F1F780916402811103C0A895219792
:100D200059F7809164028823B9F00E94280E6B0164
:100D30007C0124E6C20ED11CE11CF11C82E00E9461
:100D4000420D019759F4A8950E94280EC616D706A1
:100D5000E806F90698F781E00E943F0680E991E0F5
:100D60000E94D30110926402DF91CF911F910F91E5
:100D7000FF90EF90DF90CF9008950F931F93CF9344
:100D8000DF93EC01CE01837099278130910549F002
:100D9000029751F0CC7FCE0181600E94BD06C260F7
:100DA000F1CF01E410E002C002E418E061E0812F1D
:100DB0000E94771D802F0E94521E8AE30E94521EBD
:100DC0009E012873332720313105B1F048F42115F5
:100DD000310579F028303105E9F461EC70E00EC09E
:100DE00028313105A1F020323105A1F46FEA70E01D
:100DF00005C067EC70E002C06BEB70E08EEF91E035
:100E00000E94FF298EEF91E00E94751D38C065EBAE
:100E100070E0F4CF81E00E94C31D6AEA70E08EEFBB
:100E200091E00E94FF298EEF91E00E94751D9E01C6
:100E3000207C317020383105B9F038F421153105A6
:100E400089F020343105C1F015C0211581E0380743
:100E500069F0203481E0380759F0203C310551F425
:100E600084E50BC086E409C087E407C082E505C0BD
:100E700085E403C08FE301C08FE40E94521E85E623
:100E800091E00E94751DC2FF0CC061E086E0810FF9
:100E90000E94771D8AE2DF91CF911F910F910C94F0
:100EA000521EDF91CF911F910F910895CF92DF9243
:100EB000EF92FF920F931F93CF93DF938C010E94C9
:100EC000280E6B017C01E801C370DD271092FA0146
:100ED0001092FB011092FC011092FD01C230D1056D
:100EE00020F0229709F047C024C061E070E084EF51
:100EF00092E00E94EE048091010390910203059715
:100F000071F085E090E09093020380930103C0921A
:100F10000B03D0920C03E0920D03F0920E0310929B
:100F20000703109208031092090310920A03CD2BB5
:100F300011F561E070E086E193E00E94EE0480919B
:100F4000230390912403059771F085E090E090933E
:100F5000240380932303C0922D03D0922E03E092AA
:100F60002F03F09230031092290310922A0310925B
:100F70002B0310922C03C801DF91CF911F910F9189
:100F8000FF90EF90DF90CF900C94BD062F923F9290
:100F90004F925F926F927F928F929F92AF92BF9289
:100FA000CF92DF92EF92FF920F931F93CF93DF9335
:100FB000CDB7DEB728970FB6F894DEBF0FBECDBF12
:100FC0000E94F30E6B017C0180913D03882309F49C
:100FD0006AC1C701B60120E831E541E050E00E9456
:100FE000C0262D833E834F8358878BE0282E81E0D7
:100FF000382E810105501109C701B6010E94B811B0
:101000008091F801F10131979081981720F4D8016F
:101010008D919C913FC1891708F42FC15101B3E014
:10102000AB1AB108F50180813196843009F47CC097
:101030009080C701B6010E94B811F501A081B0E00F
:1010400020E83AE349E050E00E9416272B013C01DA
:101050008091F70121E030E040E050E0281B3109A9
:1010600041095109DA01C9012D813E814F8158851D
:10107000280F391F4A1F5B1F60E871E581E090E08F
:101080000E947C26640D751D861D971D20E831E5A4
:1010900041E050E00E94C02629013A01DA01C9016D
:1010A000890D911DA11DB11D4C015D01CA01B90140
:1010B0006C5F7F4F8F4F9F4F27E030E040E050E064
:1010C0000E94C026A5019401261B370B480B590B23
:1010D00060E871E581E090E00E947C2669837A8374
:1010E0008B839C834B015C0190E8891A91E5990AF6
:1010F00091E0A90AB108A301920160E871E581E0DD
:1011000090E00E947C2686169706A806B90648F449
:1011100089809A80AB80BC80A9EE9A0EA7E0AA1EB7
:10112000B11CF10120819AC0B080C701B6010E94B4
:10113000B8118091F7012D813E814F815885281B80
:1011400031094109510960E871E581E090E00E94B0
:101150007C26705D854D9F4F20E831E541E050E0F1
:101160000E94C02629013A01C701B6010E94B811A8
:101170008091F7012D813E814F815885281B3109CF
:101180004109510960E871E581E090E00E947C2608
:10119000705D854D9F4F0E94B8118091F70121E04D
:1011A00030E040E050E0281B310941095109240D8D
:1011B000351D461D571D60E871E581E090E00E94F5
:1011C0007C26605871458140910920E831E541E075
:1011D00050E00E94C02629013A01CA01B9016C5FA2
:1011E0007F4F8F4F9F4F27E030E040E050E00E945C
:1011F000C026A3019201261B370B480B590B2B0D60
:10120000311D411D511D60E871E581E090E00E94B3
:101210007C2669837A838B839C834B015C0130E855
:10122000831A31E5930A31E0A30AB108A3019201C0
:1012300060E871E581E090E00E947C266815790500
:101240008A059B0548F489809A80AB80BC804CE875
:10125000941A4AE0A40AB108D1012C9130E0A0E12F
:10126000BEE00E940727860E971EA81EB91EC8144E
:10127000D904EA04FB0408F0CACEB6E02B1A310800
:10128000EFEF2E16E0E03E0609F0B3CE80910601A6
:1012900090910701892B39F4C701B601605F714F46
:1012A0008F4F9F4F02C0C701B60128960FB6F89422
:1012B000DEBF0FBECDBFDF91CF911F910F91FF9089
:1012C000EF90DF90CF90BF90AF909F908F907F90E6
:1012D0006F905F904F903F902F900895CF92DF9244
:1012E000EF92FF920F931F93CF93DF93CDB7DEB7AB
:1012F0002E970FB6F894DEBF0FBECDBFF82E0E941A
:10130000EC018C01FF2009F460C00E94B41D6AE367
:1013100071E08EEF91E00E94FF298EEF91E00E9434
:10132000751D0E94C6076B017C010E94B8112091B7
:10133000F501222331F0822F90E02D3020F00C9720
:1013400002C08CE090E080938301C701B6010E9447
:10135000B8118091F50190E021E00C970CF420E0A9
:1013600020937F01C701B6010E94B8118091F4015A
:1013700080938201C701B6010E94B8118091F701E4
:1013800080937D01C701B6010E94B8118091F801D8
:1013900080937C01C701B6010E94B8118091F901C8
:1013A00090E09C012E54384F88970B9728F4309387
:1013B0007B0120937A0106C08AED97E090937B0130
:1013C00080937A01109285015DC08130910509F00A
:1013D00051C090918501923001F128F4992349F090
:1013E000913081F015C1943061F110F1953091F197
:1013F0000FC1809183018F5F8D3008F081E0809371
:10140000830106C1809182018F5F8C3318F4809331
:101410008201FEC010928201FBC080917F018F5F2C
:10142000823018F480937F01F3C010927F01F0C0E6
:1014300080917D018F5F803208F081E080937D0193
:10144000E7C080917C018F5F8D3008F081E0809350
:101450007C01DEC080917A0190917B010196853EEE
:1014600027E0920710F08AED97E090937B0180933C
:101470007A01CEC0029709F0CBC0809185018F5FC1
:101480008093850180918501863008F4BFC09091DA
:101490007F0180918301911105C08C3051F410922D
:1014A000830107C0913029F48C3019F0845F809358
:1014B000830180917A01825B8E8780917C018D8788
:1014C00080917D018C87809183018A878091820140
:1014D00089871886CE0108960E947D0F6B017C01DA
:1014E0000E94CC0EAE014F5F5F4FC701B6010E9454
:1014F000E71088E60E94C31C60E088EE92E00E943C
:10150000130D60E888EE92E00E94130D8A811AE0C4
:10151000612F0E948C26692F30E1839F600D11247A
:1015200088EE92E00E94130D8B81612F0E948C2621
:10153000692F20E1829F600D112488EE92E00E94C5
:10154000130D8C81612F0E948C26692F30E1839FBF
:10155000600D112488EE92E00E94130D8D81612FA1
:101560000E948C26692F20E1829F600D112488EE55
:1015700092E00E94130D8E81612F0E948C26692FAC
:1015800030E1839F600D112488EE92E00E94130DDC
:101590008F818E51612F0E948C26692F20E1829FBE
:1015A000600D112488EE92E00E94130D0E94CD1C64
:1015B000882319F0109286011EC001E00093860175
:1015C00088E60E94C31C60E088EE92E00E94130D42
:1015D0008981612F0E948C26692F30E1839F600DE5
:1015E000112488EE92E00E94130D0E94CD1C8111FF
:1015F000E1CF0093860186E096E1909311018093FC
:101600001001109265020E94B41D21C102E010E099
:101610000E94280E28EE33E040E050E00E94C026F1
:1016200021E0643F71408105910508F420E0012B21
:1016300029F490917E01921709F409C120937E014B
:1016400061E080E00E94771D1091830166E371E004
:101650008EEF91E00E94FF291F921F938EEF91E081
:101660009F938F938E010F5F1F4F1F930F930E94C5
:101670005E270F900F900F900F900F900F9080911A
:10168000850181110DC080917E01882349F063E3BB
:1016900071E08EEF91E00E94FF298EEF91E001C092
:1016A000C8010E94751D8AE30E94521EF0908201BB
:1016B0006EE271E08EEF91E00E94FF291F92FF928F
:1016C0008EEF91E09F938F931F930F930E945E275D
:1016D0000F900F900F900F900F900F9080918501B9
:1016E000813069F480917E01882349F06BE271E0DA
:1016F0008EEF91E00E94FF298EEF91E001C0C801BA
:101700000E94751D80918501823031F480917E01A7
:10171000882311F080E207C080917F01811102C00F
:1017200081E401C080E50E94521EF0907D0166E2D6
:1017300071E08EEF91E00E94FF291F92FF928EEFE1
:1017400091E09F938F931F930F930E945E270F90BA
:101750000F900F900F900F900F9080918501833024
:1017600069F480917E01882349F062E271E08EEF96
:1017700091E00E94FF298EEF91E001C0C8010E9414
:10178000751D8DE20E94521E80918501843069F49E
:1017900080917E01882349F06EE171E08EEF91E047
:1017A0000E94FF298EEF91E019C020917C0183E017
:1017B000289F90011124A0E7B1E080E090E0FC01B7
:1017C000E20FF31FE151FF4FE491ED930196833057
:1017D0009105A9F71092730180E791E00E94751DB1
:1017E0008DE20E94521E80917A0190917B0164E605
:1017F00070E00E949826F82EE92E6AE171E08EEFE3
:1018000091E00E94FF29EF92FF928EEF91E09F936B
:101810008F931F930F930E945E270F900F900F904E
:101820000F900F900F9080918501853069F4809121
:101830007E01882349F067E171E08EEF91E00E941C
:10184000FF298EEF91E001C0C8010E94751D2E9600
:101850000FB6F894DEBF0FBECDBFDF91CF911F91C1
:101860000F91FF90EF90DF90CF900895833081F03B
:1018700028F4813099F08230A1F008958730A9F0E2
:101880008830B9F08430D1F4809180008F7D03C01E
:10189000809180008F7780938000089584B58F7742
:1018A00002C084B58F7D84BD08958091B0008F778C
:1018B00003C08091B0008F7D8093B00008953FB742
:1018C000F8948091DD019091DE01A091DF01B0914B
:1018D000E00126B5A89B05C02F3F19F00196A11D78
:1018E000B11D3FBFBA2FA92F982F8827820F911DB6
:1018F000A11DB11DBC01CD0142E0660F771F881FFD
:10190000991F4A95D1F7089508958091E60290E0D5
:101910002091E702821B9109089585ED8093BC0018
:101920008091BC0084FDFCCF1092C20208954091CA
:10193000A901262F30E0240F311D21323105DCF4BE
:101940002091C2022430C9F4FC0180E090E08617A7
:1019500058F43091A9012191DC01A957BE4FA30F82
:10196000B11D2C930196F3CF8091A901680F60936C
:10197000A90180E0089581E0089582E00895089526
:10198000E091E7028091E602E81730F4F0E0E458D5
:10199000FD4F808190E008958FEF9FEF0895909123
:1019A000E7028091E602981750F4E92FF0E0E4583E
:1019B000FD4F208130E09F5F9093E70202C02FEF40
:1019C0003FEFC9010895CF92DF92EF92FF920F93FC
:1019D0001F93CF93DF937C01262F972F8A0180914D
:1019E000E302882391F0C62FD72F6E01C40ED51EB7
:1019F000CC15DD0571F06991D701ED91FC91019055
:101A0000F081E02DC7010995F3CF642F822F0E944A
:101A1000970CC801DF91CF911F910F91FF90EF902C
:101A2000DF90CF900895CF93DF931F92CDB7DEB7AD
:101A300069832091E3022223D1F02091E402203235
:101A400040F021E030E0FC013383228380E090E02D
:101A500015C08091E502E82FF0E0ED53FD4F99812C
:101A600090838F5F8093E5028093E40205C061E07C
:101A7000CE0101960E94970C81E090E00F90DF91DB
:101A8000CF910895CF93DF93282F30E0F901EC5FD9
:101A9000FC4F8491F901E555FE4FD491F901E956C7
:101AA000FE4FC491CC2391F081110E94360CEC2F93
:101AB000F0E0EE0FFF1FE357FE4FA591B491EC91BC
:101AC000ED2381E090E021F480E002C080E090E02E
:101AD000DF91CF9108951F93CF93DF93282F30E0AC
:101AE000F901EC5FFC4F8491F901E555FE4FD4916B
:101AF000F901E956FE4FC491CC23C9F0162F81118C
:101B00000E94360CEC2FF0E0EE0FFF1FED57FE4F5A
:101B1000A591B4918FB7F894111105C09C91ED2F48
:101B2000E095E92302C0EC91ED2BEC938FBFDF91A0
:101B3000CF911F910895CF93DF9390E0FC01E5557D
:101B4000FE4F2491FC01E956FE4F8491882361F1F8
:101B500090E0880F991FFC01E758FE4FC591D49182
:101B6000FC01ED57FE4FA591B491611109C09FB7DB
:101B7000F8948881209582238883EC912E230BC0D2
:101B8000623061F49FB7F8943881822F8095832367
:101B90008883EC912E2B2C939FBF06C08FB7F894AF
:101BA000E8812E2B28838FBFDF91CF9108958E304F
:101BB00008F08E508770806480937C0080917A005A
:101BC000806480937A0080917A0086FDFCCF8091BA
:101BD00078002091790090E0922B08958F929F9247
:101BE000AF92BF92CF92DF92EF92FF926B017C0196
:101BF0000E945F0C4B015C01C114D104E104F104AB
:101C0000F1F00E945F0CDC01CB0188199909AA0947
:101C1000BB09883E9340A105B10570F321E0C21ACB
:101C2000D108E108F10888EE880E83E0981EA11C17
:101C3000B11CC114D104E104F10419F7DDCFFF9008
:101C4000EF90DF90CF90BF90AF909F908F900895CE
:101C50002FB7F8946091D9017091DA018091DB017E
:101C60009091DC012FBF08951F920F920FB60F9233
:101C700011242F933F938F939F93AF93BF938091A2
:101C8000D9019091DA01A091DB01B091DC01309192
:101C9000D80123E0230F2D3720F40196A11DB11D9B
:101CA00005C026E8230F0296A11DB11D2093D8017F
:101CB0008093D9019093DA01A093DB01B093DC010A
:101CC0008091DD019091DE01A091DF01B091E001F2
:101CD0000196A11DB11D8093DD019093DE01A093BB
:101CE000DF01B093E001BF91AF919F918F913F9140
:101CF0002F910F900FBE0F901F9018951F920F926B
:101D00000FB60F9211242F933F934F935F936F93CE
:101D10007F938F939F93AF93BF93EF93FF93E09144
:101D20000E01F0910F010995FF91EF91BF91AF91D5
:101D30009F918F917F916F915F914F913F912F91E3
:101D40000F900FBE0F901F9018951F920F920FB615
:101D50000F9211242F933F934F935F936F937F9331
:101D60008F939F93AF93BF93EF93FF93E0910C01F9
:101D7000F0910D010995FF91EF91BF91AF919F9166
:101D80008F917F916F915F914F913F912F910F9024
:101D90000FBE0F901F9018956093E5017093E601B8
:101DA0008093E7019093E801DC01CB01845D9E4FB5
:101DB000AF4FBF4F8093E1019093E201A093E30105
:101DC000B093E40182E090E09093D7018093D60134
:101DD0000E94280E6093D2017093D3018093D401A6
:101DE0009093D5010895CF92DF92EF92FF920F93D7
:101DF0001F930E94280EC090D201D090D301E09092
:101E0000D401F090D5018B019C010C191D092E09FC
:101E10003F098091E5019091E601A091E701B09121
:101E2000E801083E134021053105D0F00196A11DBF
:101E3000B11D8093E5019093E601A093E701B09373
:101E4000E801B701A60148515C4F6F4F7F4F4093A7
:101E5000D2015093D3016093D4017093D501C9CFBF
:101E60004091E1015091E2016091E3017091E40140
:101E700084179507A607B70788F1E091E901F0916B
:101E8000EA01309759F109956115710581059105B0
:101E900019F00E94CC0E22C08091E5019091E601DC
:101EA000A091E701B091E801845D9E4FAF4FBF4F15
:101EB0008093E1019093E201A093E301B093E401E8
:101EC00081E090E02091D6013091D701232B11F4CD
:101ED00080E090E09093D7018093D6016091E50176
:101EE0007091E6018091E7019091E8011F910F91B7
:101EF000FF90EF90DF90CF9008956F927F928F9236
:101F00009F92AF92BF92CF92DF92EF92FF920F9388
:101F10001F93CF93DF93EC01EE81AE2FB0E020E86A
:101F200033E341EE51E00E9416274B015C0122EBA6
:101F300037E0FD0104E610E080E9E82EFF24F39489
:101F4000C901825B97408E179F07DCF4C90183703B
:101F50009927892B99F4C901B8010E94AC26892BD5
:101F600031F4C901B7010E94AC26892B39F480E80D
:101F7000880E81E5981E81E0A81EB11C2F5F3F4F9F
:101F8000DFCF6D80712CEE54F84FCF0164E670E026
:101F90000E94AC267C01CF0160E971E00E94AC2672
:101FA0006C0101E010E0E370FF27061517052CF522
:101FB0000230110581F4309771F4E114F10419F441
:101FC000C114D10441F480E8880E8BE3981E86E2A8
:101FD000A81EB11C0FC0D801AF5EBE4FAC91B0E0DF
:101FE00020E831E541E050E00E941627860E971E5A
:101FF000A81EB91E0F5F1F4FD8CF49812A8130E03C
:10200000A0E1BEE00E9407276B017C01242F30E095
:10201000ACE3B0E00E940727DC01CB018C0D9D1DD5
:10202000AE1DBF1D28816C017D01C20ED11CE11CBB
:10203000F11CAC81B0E0119720E831E541E050E0BF
:102040000E942127DC01CB018C0D9D1DAE1DBF1D03
:10205000BC01CD01680D791D8A1D9B1DDF91CF91BB
:102060001F910F91FF90EF90DF90CF90BF90AF90B6
:102070009F908F907F906F9008951F93CF93DF93E1
:10208000CDB7DEB727970FB6F894DEBF0FBECDBF32
:1020900088E60E94C31C60E088EE92E00E94130D67
:1020A0000E94CD1C882319F01092860183C081E024
:1020B0008093860167E070E088E690E00E942A1D28
:1020C0008091E60290E02091E702821B9109079738
:1020D0000CF470C088EE92E00E94CF0C182F869509
:1020E000869586958E70982F990F990F890F912F4D
:1020F0009F70890F898388EE92E00E94CF0C282F71
:1021000022952F70982F9F708AE0289F900D1124A0
:102110009A8388EE92E00E94CF0C982F282F269564
:10212000269526952670822F880F880F280F9F707E
:10213000920F9B8388EE92E00E94CF0C282F22956D
:102140002F70982F9F708AE0289F900D11249C83F8
:1021500088EE92E00E94CF0C282F22952F70982FA6
:102160009F708AE0289F900D11249D8388EE92E055
:102170000E94CF0C282F22952F70982F9F708AE0F5
:10218000289F900D11249E8388EE92E00E94CF0C30
:10219000982F9F70925E282F22952F708AE0289F9B
:1021A000900D11249F8317FD05C0CE0101960E945A
:1021B0007D0F03C060E070E0CB0127960FB6F89466
:1021C000DEBF0FBECDBFDF91CF911F9108956F92FB
:1021D0007F928F929F92AF92BF92CF92DF92EF92B7
:1021E000FF920F931F93CF93DF93EA012CE3C22E4C
:1021F000D12CE12CF12CA70196010E94C026688306
:10220000CA01B901A70196010E94C0266983CA01CB
:10221000B90128E130E040E050E00E94C0266901A9
:102220007A016A83CA01B9016C5F7F4F8F4F9F4F5C
:1022300027E030E040E050E00E94C0266F5F6B83F3
:10224000812C912C540140E034E6632E712C00E97E
:1022500011E0242F30E02E54384FF901E370FF27AE
:10226000309789F4C901B3010E94AC26892B31F45F
:10227000C901B8010E94AC26892B29F48EE691E0B1
:10228000A0E0B0E004C08DE691E0A0E0B0E0880EF0
:10229000991EAA1EBB1ED501C401AA27BB27C816BA
:1022A000D906EA06FB0610F04F5FD3CF4E83309776
:1022B00099F4C90164E670E00E94AC26892B39F4D8
:1022C000C90160E971E00E94AC26892B29F48EE6F1
:1022D00091E0A0E0B0E004C08DE691E0A0E0B0E0C5
:1022E000881A990AAA0ABB0AC818D908EA08FB087A
:1022F000C90164E670E00E94AC268C01C90160E966
:1023000071E00E94AC26A2E1B1E020E0213041F46E
:10231000309751F40115110529F4009729F402C0F2
:102320004C9103C04DE101C04CE150E060E070E031
:10233000C416D506E606F70640F0C41AD50AE60A22
:10234000F70A2F5F11962C3009F72F5F2D83C39466
:10235000CC82DF91CF911F910F91FF90EF90DF9092
:10236000CF90BF90AF909F908F907F906F90089587
:10237000CF92DF92EF92FF92C090CE01D090CF012A
:10238000E090D001F090D1016C157D058E059F0580
:1023900071F06B017C0143EF51E00E94E710C092A5
:1023A000CE01D092CF01E092D001F092D101FF9006
:1023B000EF90DF90CF900895CF92DF92EF92FF924F
:1023C000CF936B017C019B01AC016EEF7FEF81E04D
:1023D00090E00E947C269B01AC0160E074E284EFF7
:1023E00090E00E94C026C0E0EC2FF0E0EE0FFF1F4F
:1023F000EA5CFE4F80819181CF5F82179307A0F343
:10240000A7019601220F331F441F551FEC2FF0E048
:10241000EE0FFF1FEA5CFE4FA081B1810E941627DC
:102420009B01AC0160E074E284EF90E00E94C02662
:10243000309387002093860080918100C770887F49
:10244000C82BC093810081E0CF91FF90EF90DF9087
:10245000CF900895682F88EE92E00C94130DCF93DF
:10246000DF931F92CDB7DEB7FC018185806269835F
:102470000E94C31C89E00E942A126981862F0E9453
:102480002A120E94CD1C8111FCCF0F90DF91CF91B9
:102490000895CF93DF931F92CDB7DEB7FC018185FE
:1024A000806269830E94C31C83E10E942A126981B1
:1024B000862F0E942A120E94CD1C8111FCCF0F9002
:1024C000DF91CF910895FF920F931F93CF93DF93E6
:1024D0008C01C62FF42EFC0186858130B1F565850F
:1024E000C4FD6061C5FD6860C6FD6460C7FD6260D3
:1024F000D62FFF2011F0D06A01C0D0626D2FC80125
:102500000E9449126D2F6F7DC8010E944912F80187
:102510006585C0FD6061C1FD6860C2FD6460C3FD8A
:102520006260C62FFF2011F0C06A01C0C0626C2F2C
:10253000C8010E9449126C2F6F7DC801DF91CF91B5
:102540001F910F91FF900C944912607F70E0759578
:102550006795442311F0666001C06460F8018581CD
:1025600083FD02C0D0E001C0D0E8D62B6D2FC8019A
:102570000E942F126D2F6B7FC8010E942F12CF7007
:10258000CC0FCC0FCC0FFF2011F0C66001C0C4608F
:10259000F801858183FD02C060E001C060E8C62BC0
:1025A0006C2FC8010E942F126C2F6B7FC801DF9126
:1025B000CF911F910F91FF900C942F12FC01238556
:1025C000222319F041E00E94631281E090E0089517
:1025D0001F920F920FB60F9211242F933F934F9398
:1025E0005F936F937F938F939F93AF93BF93EF937B
:1025F000FF938091B900887F803609F49CC068F50C
:10260000883209F45BC090F4803109F454C038F486
:10261000882309F4F6C0883009F44DC0F6C088312B
:1026200009F44CC0803209F45DC0EFC0803409F475
:1026300068C048F4803309F455C0883309F0E5C018
:102640008093C002D8C0803509F44FC0883509F4A2
:102650005DC0883409F0D9C0D6C0883909F4C7C034
:10266000A8F4883709F467C038F4883609F463C0E1
:10267000803709F460C0C9C0883809F4B8C080390F
:1026800009F45FC0803809F0C0C05BC0803B09F42A
:1026900086C038F4803A09F466C0883A09F47FC0ED
:1026A000B4C0803C09F4A7C0883C09F4A4C0883BAE
:1026B00009F48AC0AAC080919D0210C09091BF0207
:1026C0008091BE02981770F5E091BF0281E08E0FF5
:1026D0008093BF02F0E0E256FD4F80818093BB0003
:1026E00085EC86C08093C0028EC0E091BF0281E07D
:1026F0008E0F8093BF028091BB00F0E0E256FD4F49
:1027000080839091BF028091BE026EC0E091BF02B3
:1027100081E08E0F8093BF028091BB00F0E0E25613
:10272000FD4F80838091C10281116DC081E0809353
:102730009C0284EA61C083E08093C2021092CD01C2
:10274000CFCF8091CD01803208F051C0E091CD0112
:1027500081E08E0F8093CD018091BB00F0E0E355C6
:10276000FE4F8083BDCF85EC8093BC001092C202E7
:102770008091CD01803230F4E091CD01F0E0E3555D
:10278000FE4F10826091CD0170E0E091AB01F091BD
:10279000AC018DEA91E009951092CD0136C084E03C
:1027A0008093C2021092AA011092A901E091A701A0
:1027B000F091A80109958091A901811105C081E0DE
:1027C0008093A90110928701E091AA0181E08E0F08
:1027D0008093AA01F0E0E957FE4F80818093BB000F
:1027E0009091AA018091A901981708F479CF85E802
:1027F0008093BC000AC085EC8093BC001092C2029A
:1028000004C01092C0020E948D0CFF91EF91BF9105
:10281000AF919F918F917F916F915F914F913F9178
:102820002F910F900FBE0F901F9018951092C2021B
:1028300081E08093C10210929C0261E082E10E94DB
:102840006B0D61E083E10E946B0DE9EBF0E08081AC
:102850008E7F808380818D7F808388E48093B80021
:1028600085E48093BC000895CF92DF92EF92FF92AF
:10287000CF93DF93EC016A017B0161E070E00E947D
:10288000EE0464E070E089819A810E94EE04C092B7
:10289000FA01D092FB01E092FC01F092FD018881E7
:1028A00090E02F8D211103C028E130E002C020E22A
:1028B00030E0822B932B0E94BD06E981FA81808152
:1028C000886090E0DF91CF91FF90EF90DF90CF9004
:1028D0000C94BD060F931F93CF93DF93EC018B896C
:1028E0009C89AD89BE89892B8A2B8B2B89F00E940C
:1028F000280E0B891C892D893E89DC01CB01801BA8
:10290000910BA20BB30B85399141A105B105D8F408
:102910008F89988DA98DBA8D892B8A2B8B2B09F4E1
:1029200048C00E94280E0F89188D298D3A8DDC0130
:10293000CB01801B910BA20BB30B893B9B40A105E4
:10294000B10580F436C01B8A1C8A1D8A1E8A8881C4
:10295000806190E00E94BD0661E070E0CE010E94BF
:10296000F005D6CF1F8A188E198E1A8E60E070E09F
:10297000CE010E94F00580915F02882329F08881B2
:10298000886090E00E94BD0689819A810E94D505E9
:10299000E981FA81811104C085859685029749F401
:1029A00064E070E0CF01DF91CF911F910F910C9403
:1029B000EE04DF91CF911F910F910895CF92DF9296
:1029C000EF92FF920F931F93CF93DF936C017A01E5
:1029D0008B01C0E0D0E0CE15DF0589F0D8016D9104
:1029E0008D01D601ED91FC910190F081E02DC601A1
:1029F0000995892B11F47E0102C02196ECCFC70105
:102A0000DF91CF911F910F91FF90EF90DF90CF90CA
:102A100008950E942927CF92DF92EF92FF920F93A1
:102A20001F93CF93DF93CDB7DEB761970FB6F894BE
:102A3000DEBF0FBECDBF182F0E94EC019C011123F9
:102A400029F00E94B41D10926D023AC090916D025F
:102A500090FF05C0A0E5B3E0E2E5F3E004C0AFE419
:102A6000B3E0E1E5F3E02130310521F0223031051A
:102A7000A9F0BDC0923018F0943010F507C08C91C9
:102A80008F5F86300CF08BEF8C931AC08081815061
:102A9000863F14F0808314C0108212C09F5F909311
:102AA0006D02943068F088E393E00E94241E86E073
:102AB00096E190931101809310011092650297C0E6
:102AC00080916D0280FF0BC009E611E040E5C42E45
:102AD00043E0D42E52E5E52E53E0F52E0AC007E67A
:102AE00011E02FE4C22E23E0D22E31E5E32E33E0B5
:102AF000F32E823090F1843008F079C00E94B41D2A
:102B000066E372E08EEF91E00E94FF298EEF91E084
:102B10000E94751D61E080E00E94771DF701F08042
:102B2000CF2C0F2C000CDD0868E272E08EEF91E0F4
:102B30000E94FF29DF92FF921F930F938EEF91E087
:102B40009F938F931F9281E18F938E010F5F1F4F91
:102B50001F930F930E942E2742C00E94B41D63E56D
:102B600072E08EEF91E00E94FF298EEF91E00E94CB
:102B7000751D61E080E00E94771DF6012081822FA3
:102B8000022E000C990B97FF03C091958195910936
:102B9000D82EC92E27FD05C09DE6E92E91E0F92E1D
:102BA00004C08BE6E82E81E0F82E63E472E08EEF3D
:102BB00091E00E94FF29CF92DF92FF92EF921F9344
:102BC0000F938EEF91E09F938F931F9281E18F93EC
:102BD0008E010F5F1F4F1F930F930E942E27C80176
:102BE0000E94751D0FB6F894DEBF0FBECDBF619673
:102BF0000FB6F894DEBF0FBECDBFDF91CF911F910E
:102C00000F91FF90EF90DF90CF900895CF93C82F52
:102C10000E94EC01CC2361F083E00E94C31D0E945E
:102C2000B41D87EE93E090937502809374021FC0E9
:102C3000009709F443C281309105B1F4809172028A
:102C40009091730201969093730280937202209187
:102C50007002309171022817390708F0DFC0109216
:102C6000730210927202DAC0029709F0D7C0E091A5
:102C70007402F0917502E730F10508F066C0E05C7F
:102C8000FF4F0C9401278091720280933A030CC08D
:102C9000E0917202F0917302EE5AFE4F808190E053
:102CA00090933C0380933B0388E393E00E94241EAF
:102CB0004CC08091720290917302892B09F045C03B
:102CC0008EE699E0909311018093100181E0CF91FD
:102CD0000C946E0981E02091720230917302232BD3
:102CE00009F080E080933D03DFCF809172029091E4
:102CF0007302892B51F587E892E09093110180933C
:102D0000100181E0CF910C94870280917202909122
:102D10007302892BD1F48BE095E19093110180939C
:102D2000100181E0CF910C940B158091720290916B
:102D30007302892B19F410926502C0C187EE93E0EB
:102D40009093750280937402B9C18091740290913E
:102D5000750201968730910528F49093750280934F
:102D6000740204C01092750210927402E091740211
:102D7000F0917502E730F10508F048C0E95BFF4FBC
:102D80000C94012780913A0390E090937302809312
:102D9000720236C060913B0370913C03E2E5F1E0C2
:102DA00050E040E080E090E0219130E0621773074E
:102DB00011F4582F492F01968B309105A9F75093A4
:102DC0007202409373028AE090E01CC081E090E0C0
:102DD000909371028093700290913D03892790E057
:102DE000909373028093720211C081E090E09093FF
:102DF00073028093720206C01092730210927202E4
:102E000081E090E090937102809370028091720251
:102E10009091730290936F0280936E020E94B41D92
:102E2000E0917402F0917502E730F10508F046C1B7
:102E3000E25BFF4F0C94012764EE72E08EEF91E0AD
:102E40000E94FF298EEF91E00E94751D61E080E0F5
:102E50000E94771D209172023091730280916E0260
:102E600090916F022817390711F080E201C08BE2C0
:102E70000E94521E8091720290917302009731F06D
:102E8000019709F01BC162ED72E00FC16DED72E0B8
:102E90000CC163EC72E08EEF91E00E94FF298EEF8F
:102EA00091E00E94751D61E080E00E94771D2091F5
:102EB00072023091730280916E0290916F02281716
:102EC000390711F080E201C08BE20E94521EE091AE
:102ED0007202F0917302EE5AFE4F608170E080E062
:102EE00090E04AE00E945D1E6DEB72E0DEC062EB96
:102EF00072E08EEF91E00E94FF298EEF91E00E9438
:102F0000751D61E080E00E94771D20917202309172
:102F1000730280916E0290916F022817390711F0A9
:102F200080E201C08BE20E94521E80917202909159
:102F30007302009731F0019709F0C0C06BEA72E0AC
:102F4000B4C06EEA72E0B1C06FE972E08EEF91E05A
:102F50000E94FF298EEF91E00E94751D61E080E0E4
:102F60000E94771D209172023091730280916E024F
:102F700090916F022817390711F080E201C08BE2AF
:102F80000E94521E8091720290917302009731F05C
:102F9000019709F093C068E972E087C06BE972E0BD
:102FA00084C069E872E08EEF91E00E94FF298EEF05
:102FB00091E00E94751D61E080E00E94771D2091E4
:102FC00072023091730280916E0290916F02281705
:102FD000390711F080E201C08BE20E94521E8091FD
:102FE000720290917302009731F0019709F066C068
:102FF00062E872E05AC065E872E057C065E772E0C7
:103000008EEF91E00E94FF298EEF91E00E94751DE6
:1030100061E080E00E94771D20917202309173027E
:1030200080916E0290916F022817390711F080E2AB
:1030300001C08BE20E94521E809172029091730235
:10304000009729F00197D1F56EE672E02EC061E796
:1030500072E02BC062E672E08EEF91E00E94FF29E1
:103060008EEF91E00E94751D61E080E00E94771D67
:10307000209172023091730280916E0290916F02E2
:103080002817390711F080E201C08BE20E94521E1E
:103090008091720290917302009729F0019771F468
:1030A0006BE572E002C06EE572E08EEF91E00E9487
:1030B000FF298EEF91E0CF910C94751DCF9108956B
:1030C0002F923F924F925F926F927F928F929F9238
:1030D000AF92BF92CF92DF92EF92FF920F931F9326
:1030E000CF93DF93CDB7DEB72F970FB6F894DEBF3F
:1030F0000FBECDBFFC0183859485019721F48585A2
:1031000096850597E9F41786108A118A128A2F96F8
:103110000FB6F894DEBF0FBECDBFDF91CF911F91E8
:103120000F91FF90EF90DF90CF90BF90AF909F9066
:103130008F907F906F905F904F903F902F90089569
:103140008081813021F440904F034D8203C0509024
:1031500050035D82FF87EE870E94280E6E837F8377
:1031600088879987212C312CCC24CA94DC2C7601B9
:1031700019821A821B821C8200E010E0812C912CA3
:1031800054010E94280EAB01BC01DB01CA014E8034
:103190005F806884798484199509A609B7098397A3
:1031A000A105B10508F099C0EE85FF8581854C87A2
:1031B0005D876A877B870E94D70D2C01990F66086F
:1031C00077084C855D856A857B85FFEFCF16DF0626
:1031D000EF06FF0641F181E021E0C21622E0D206AF
:1031E000E104F1040CF480E091E031E0431632E0B8
:1031F0005306610471040CF490E08917A1F0DB011F
:10320000CA01C980DA80EB80FC808C199D09AE0967
:10321000BF090697A105B10530F00F5F1F4F498325
:103220005A836B837C830130110508F453C003304B
:10323000110590F00330110509F04CC0910140E0F8
:1032400050E0C501B4010E94C02649015A01C12CB9
:10325000D12C7601C39411C0C301B201725081090F
:1032600091099B01AC010E947C26860E971EA81E28
:10327000B91E2FEF221A320A2DC0A7019601C701ED
:10328000B6010E947C2686169706A806B90630F07D
:103290003FEFC31AD30AE30AF30AEFCF21503109F3
:1032A00041095109AAE6B0E00E941627693843E1B6
:1032B000740781059105A8F0ED81F4E6EF02600145
:1032C00011240D2C000CEE08FF08C60ED71EE81EB8
:1032D000F91E09C07301620154CFC12CD12C7601B3
:1032E00002C06B017C010E94280EEE85FF85038DD4
:1032F000148D258D368D2B013C01401A510A620A2E
:10330000730A49EE441643E054066104710420F048
:10331000638F748F858F968F20913B0330913C0390
:10332000A8EEB3E00E940727EE85FF8520A131A11A
:103330002330310529F021E030E040E050E004C0C6
:1033400022E030E040E050E00E94C026DA01C901EE
:1033500088519C4FAF4FBF4FEE85FF858C159D0563
:10336000AE05BF0508F043C087859089A189B28961
:10337000892B8A2B8B2B49F40E94280EEE85FF8522
:103380006787708B818B928B36C00E94280EEE85EA
:10339000FF850785108921893289DC01CB01801BDB
:1033A000910BA20BB30B813A9F40A105B10518F117
:1033B000EE85FF858081886690E02F960FB6F894A1
:1033C000DEBF0FBECDBFDF91CF911F910F91FF9058
:1033D000EF90DF90CF90BF90AF909F908F907F90B5
:1033E0006F905F904F903F902F900C9456071786E8
:1033F000108A118A128AEE85FF858081880F880FD6
:10340000880F61E088500E94771DEE85FF858081DE
:10341000805C0E94521E8AE30E94521EC701B601C0
:103420002AE030E040E050E00E94C026F8EECF16DF
:10343000F3E0DF06E104F104B8F463EF72E08EEF2D
:1034400091E02A873B874C875D870E94FF29AAE08D
:10345000B0E02A853B854C855D850E9416279F93A9
:103460008F937F936F9331C0CA01B90124E630E096
:1034700040E050E00E94C026CB016AE070E00E946C
:10348000AC2621E030E0059714F420E030E05B0149
:10349000A20EB31EC701B60128EE33E040E050E0B3
:1034A0000E94C02689018AE0A816B10421F40F5FAA
:1034B0001F4FA12CB12C6AEF72E08EEF91E00E94B9
:1034C000FF29BF92AF921F930F938EEF91E09F93CE
:1034D0008F9386E792E09F938F930E945E270FB6AB
:1034E000F894DEBF0FBECDBF86E792E02F960FB6F1
:1034F000F894DEBF0FBECDBFDF91CF911F910F912A
:10350000FF90EF90DF90CF90BF90AF909F908F9003
:103510007F906F905F904F903F902F900C94751D0F
:10352000EF92FF920F931F93CF93DF93EC018B01E8
:1035300080915F028111B3C18D859E858530910593
:1035400009F4FEC16817790709F404C280913A03AF
:10355000882321F0813009F49DC0FCC17E876D87EE
:103560006530710540F46330710508F047C0613083
:10357000710530F4EFC16530710509F480C1EAC10D
:1035800060E070E0CE010E94F0050130110549F0C5
:1035900089819A810E94D505811106C064E070E09E
:1035A00005C061E070E002C063E070E0CE010E94FF
:1035B000EE04888190E00130110519F028E030E038
:1035C00002C020E030E0822B932B0E94BD061B8AB4
:1035D0001C8A1D8A1E8A89819A81FC0120A131A141
:1035E0002330310509F0B6C164E070E0DF91CF917E
:1035F0001F910F91FF90EF900C94EE04CE010E946A
:10360000D5058111A7C189819A810E94D50588239A
:10361000E1F00E94280E6B8B7C8B8D8B9E8B63E080
:1036200070E089819A810E94EE0463E070E0CE012F
:103630000E94EE048881886190E0DF91CF911F9114
:103640000F91FF90EF900C94BD0689819A81FC0147
:1036500020A131A12430310521F463E070E00E9403
:10366000EE0464E070E0CE010E94EE041B8A1C8A26
:103670001D8A1E8A8881806190E00E94BD0661E0FB
:1036800070E0CE01DF91CF911F910F91FF90EF90ED
:103690000C94F005E981FA81E584F68465307105C2
:1036A00058F46330710508F0CAC06130710549F003
:1036B0006230710591F1F0C06530710509F4DFC029
:1036C000EBC060E070E0CE010E94F00561E070E0C8
:1036D000CE010E94EE041092FA011092FB011092AA
:1036E000FC011092FD01F2E0EF16F10469F464E0D0
:1036F00070E089819A810E94EE04E981FA818081DB
:10370000886090E00E94BD06888190E00E94BD061E
:103710001F8EE981FA81178EBFC060E070E0CE0194
:103720000E94F0058D859E850397029708F044C09E
:1037300082E0E816F10491F5E981FA81878D811123
:103740000BC061E070E0CE010E94EE0464E070E026
:1037500089819A810E94EE04E981FA81808190E05A
:10376000278D211103C028E030E002C020E230E0C4
:10377000822B932B0E94BD068881806290E00E947C
:10378000BD0681E08F8F0E94280E6093FA0170932E
:10379000FB018093FC019093FD017EC088818860CD
:1037A00090E00E94BD061092FA011092FB01109267
:1037B000FC011092FD0170C0E1E0EE16F10491F4FD
:1037C00064E070E0CE010E94EE041F8EE981FA8170
:1037D000178E1092FA011092FB011092FC011092C8
:1037E000FD011BC0E894E1F88881EF28E1F4909195
:1037F0005E029813AFC09F8D911115C064E070E018
:10380000CE010E94EE040E94280E6093FA0170938C
:10381000FB018093FC019093FD018881886090E01A
:103820000E94BD0639C090E02F8D211103C028E110
:1038300030E002C020E230E0822B932BF1CFCE01AA
:103840000E94D505811128C088A199A1049721F073
:103850008881886E90E018C01092FA011092FB01E6
:103860001092FC011092FD018881806190E00E941D
:10387000BD0661E070E0CE010E94F0050DC08881B8
:10388000886290E080649160DF91CF911F910F91E9
:10389000FF90EF900C9456071E870D875BC0613038
:1038A000710509F053C0888190E00E94BD061E8713
:1038B0000D878F89988DA98DBA8D892B8A2B8B2B9B
:1038C000A9F01F8A188E198E1A8E60E070E0CE0162
:1038D0000E94F00589819A810E94D505E981FA81CB
:1038E000811128C085859685029721F180915F021C
:1038F000882381F10230110569F58D859E85019738
:1039000029F4888180935E021E870D872881822F8B
:10391000886090E030913A03313039F430915E02A2
:10392000321303C024E030E002C020E030E0822BFC
:10393000932B83CE64E070E0CF010E94EE04D6CFDB
:103940006130710519F41E861D86B3CF0230110552
:1039500009F4AFCFDF91CF911F910F91FF90EF90BE
:103960000895009769F0FC0101900020E9F7319774
:10397000AF01481B590BBC0183E593E00C94DE14A6
:1039800080E090E0089591E09093E30280936203D9
:103990001092E5021092E40208952091E4029091C1
:1039A0006203213208F04AC08091C2028111FCCF2B
:1039B00032E03093C20231E03093C1023FEF3093E6
:1039C000C0021092BF022093BE02A3ECB2E04EE907
:1039D00052E0FA013E2F341B321718F43D91319317
:1039E000F9CF10929D0220919D02990F922B9093F6
:1039F0009D0290919C02913061F410929C029091F2
:103A00009D029093BB009091BC0093FDF8CF95EC84
:103A100001C095EE9093BC009091C2029230E1F308
:103A20009091C0029F3F79F08091C002803241F0B6
:103A30008091C002803331F084E005C081E003C092
:103A400082E001C083E01092E5021092E40210923D
:103A5000E30208959091C2029111FCCF613208F007
:103A600060E291E09093C2029093C1022FEF209305
:103A7000C0021092BF02260F2093BE0290939D02B7
:103A800090919D02880F892B80939D0280919C02CA
:103A9000813061F410929C0280919D028093BB0062
:103AA0008091BC0083FDF8CF85EC01C085EE80934A
:103AB000BC008091C2028130E1F38091BF02861781
:103AC00010F46091BF02AEE9B2E02CE732E0F901F8
:103AD0008E2F821B861718F48D918193F9CF109247
:103AE000E7026093E602862F08950C94B11CCF93F1
:103AF000DF93CDB7DEB728970FB6F894DEBF0FBEC1
:103B0000CDBF20915E03222331F128E0EEE1F1E008
:103B1000DE01119601900D922A95E1F720915A034A
:103B2000261710F46FEF620FFE013196E60FF11DBC
:103B3000E60FF11D9081682F690F606840E083E512
:103B400093E028960FB6F894DEBF0FBECDBFDF918D
:103B5000CF910C94631228960FB6F894DEBF0FBE77
:103B6000CDBFDF91CF91089580915E03882351F0FE
:103B700040E061E083E593E00E9463128BE39FE104
:103B80000197F1F70895CF93DF9390915E03992306
:103B900009F457C090915D03992311F097E08927AC
:103BA000909161039130C1F580FD03C020EC31E0BC
:103BB00002C020E831E03093600320935F0381FF6F
:103BC00009C020915F03309160032F773093600329
:103BD00020935F0382FF09C080915F03909160038F
:103BE0009E7F9093600380935F03D0915F03C091A9
:103BF000600380915C0380620E94C31C82E10E948A
:103C00002A128D2F0E942A128C2F0E942A120E94A3
:103C1000CD1C8111FCCF15C090915803882311F061
:103C2000986001C0977F9093580380915803682F44
:103C3000687083FD60E883E593E0DF91CF910C9499
:103C40002F12DF91CF910895CF92DF92EF92FF92E2
:103C50000F931F93CF93DF931F92CDB7DEB77C01F5
:103C60008C01C12CD12CF80161918F01C6016983AF
:103C70000E94062A6981681719F0C6010E940E2A5F
:103C8000FFEFCF1ADF0A8BE1C816D10461F7C70135
:103C90000F90DF91CF911F910F91FF90EF90DF90E8
:103CA000CF900895E0915303F09154030190F08177
:103CB000E02D682F83E593E009948F929F92AF9255
:103CC000BF920F931F93CF93DF93CDB7DEB7A1972A
:103CD0000FB6F894DEBF0FBECDBF19A2423008F474
:103CE0004AE08E010F5D1F4F842E912CA12CB12C28
:103CF000A50194010E94C026E62FB901CA01015016
:103D00001109EA3014F4E05D01C0E95CD801EC93DC
:103D1000232B242B252B61F7C8010E94B11CA196EF
:103D20000FB6F894DEBF0FBECDBFDF91CF911F91CC
:103D30000F91BF90AF909F908F900895CF92DF9298
:103D4000EF92FF920F931F93CF93E82F880FFF0BF3
:103D5000EC5FFC4FE4918DEF8E0F823068F468EEDB
:103D600073E080E090E0CF911F910F91FF90EF9072
:103D7000DF90CF900C94DC11E83091F5C0E00FE1BA
:103D800010E0C12C94E2D92E94EFE92EF12CCF5FF4
:103D9000EC2FF0E0EE0FFF1FEA5DFE4F8081918176
:103DA00080179107A0F38C019C01A0EDB7E00E9461
:103DB00007279B01AC01C701B6010E94C0262F3F17
:103DC00031054105510509F010F72093B3008091AA
:103DD000B100C770887FC82BC093B10081E001C0DB
:103DE00080E0CF911F910F91FF90EF90DF90CF90E7
:103DF0000895CF93DF93CDB7DEB763970FB6F894EE
:103E0000DEBF0FBECDBF789484B5826084BD84B51B
:103E1000816084BD85B5826085BD85B5816085BDC5
:103E200080916E00816080936E001092810080917D
:103E30008100826080938100809181008160809305
:103E40008100809180008160809380008091B1002A
:103E500084608093B1008091B00081608093B00055
:103E600080917A00846080937A0080917A008260E9
:103E700080937A0080917A00816080937A008091AB
:103E80007A00806880937A001092C10014BE9EE090
:103E900088E10FB6F894A895809360000FBE9093C8
:103EA0006000809180008C7F8093800080918100F1
:103EB000877E80618093810064EF71E080E090E014
:103EC0000E94DC118091B0008C7F81608093B000F3
:103ED0008091B10088608093B10010E0BEE3EB2ECA
:103EE000F12C812C04E2902E04EFA02EB12C1F5F48
:103EF000E12FF0E0EE0FFF1FEA5DFE4F8081918120
:103F00008E159F05A0F37C019C01A8EEB3E00E94F2
:103F100007279B01AC01C501B4010E94C0262F3FB9
:103F200031054105510509F010F72093B300809148
:103F3000B1001770887F182B1093B10081E0809337
:103F4000610362E370E080E090E00E94EE0D109269
:103F5000E7021092E6021092E5021092E4020E943B
:103F600016149091610380915C038062913069F531
:103F70000E94C31C80E00E942A128FE10E942A1234
:103F80000E94CD1C882339F080915E03823019F4A1
:103F900010925E03EDC080915C0380620E94C31C9E
:103FA0008CE00E942A128FE10E942A120E94CD1CEE
:103FB000882321F080915E03823051F380915C036D
:103FC00080620E94C31C81E032C00E94C31C80E05A
:103FD0000E942A128FEF0E942A1280E00E942A1269
:103FE00080E00E942A1280E00E942A1280E00E9453
:103FF0002A1280E00E942A1280E00E942A1280E0A9
:104000000E942A1280E00E942A1280E00E942A1256
:104010000E94CD1C882329F080915E03823009F430
:10402000B7CF80915C0380620E94C31C80E00E9435
:104030002A1280E00E942A120E94CD1C882329F0B7
:1040400080915E03823009F4A3CF80915E038230B9
:1040500019F481E080935E03809157038860809318
:10406000570382E080935A0310925B0380916103AF
:104070008130E1F41092600310925F0313E068E373
:1040800083E593E00E94491268E183E593E00E9492
:1040900049121150A1F768E283E593E00E944912AA
:1040A00068E083E593E00E94491228C06CE983E54B
:1040B00093E00E942F1268E983E593E00E942F129B
:1040C0006CE983E593E00E942F1268E983E593E0B1
:1040D0000E942F126CE983E593E00E942F1268E999
:1040E00083E593E00E942F1264E983E593E00E9448
:1040F0002F1260E983E593E00E942F1265E070E0E3
:1041000080E090E00E94EE0D60915703606240E015
:1041100083E593E00E94631265E070E080E090E048
:104120000E94EE0D60915703606240E083E593E0EA
:104130000E94631265E070E080E090E00E94EE0D66
:104140008CE08093580380915E03882331F040E037
:104150006CE083E593E00E9463120E94B41D82E04C
:104160008093590340E066E083E593E00E94631288
:1041700087E00E94C31D0E94B41D60E080E00E94A1
:10418000771D67EE71E08EEF91E00E94FF298EEFC0
:1041900091E00E94751D61E081E00E94771D63EE51
:1041A00071E08EEF91E00E94FF298EEF91E00E9476
:1041B000751D80E20E94521E6DED71E08EEF91E060
:1041C0000E94FF298EEF91E00E94751D80ED97E01F
:1041D0000E94D30161E081E00E94771D69ED71E0EA
:1041E0008EEF91E00E94FF298EEF91E00E94751DF5
:1041F00080E20E94521E6FEC71E08EEF91E00E940F
:10420000FF298EEF91E00E94751D08E010E080E22A
:104210000E94521E01501109D1F761E083E00E9413
:104220009B0D60E083E00E946B0D60E082E00E94E5
:104230009B0D87EB91E090930D0180930C01809191
:104240006900836080936900E89A61E08AE00E94D7
:104250009B0D61E089E00E949B0D61E088E00E9477
:104260009B0D61E087E00E949B0D60E081E10E9470
:104270009B0D60E080E10E949B0D61E070E084EFA7
:1042800092E00E94EE0461E070E086E193E00E941B
:10429000EE0460E070E084EF92E00E94F00560E0E0
:1042A00070E086E193E00E94F0051092EF01109219
:1042B000F0011092F1011092F2011092EB011092B4
:1042C000EC011092ED011092EE011092FA011092A1
:1042D000FB011092FC011092FD0183E690E09093A7
:1042E000670280936602109260021092610210923F
:1042F00062021092630281E080935E028DE390E19E
:104300009093EA018093E9018091E5019091E601A3
:10431000A091E701B091E8018093E1019093E2015F
:10432000A093E301B093E4010E94F30E80913E0359
:10433000682F082E000C770B77FF03C071956195ED
:104340007109162F1F7187FF106288E60E94C31C37
:1043500067E088EE92E00E94130D612F88EE92E0F4
:104360000E94130D0E94CD1C8AE00E949E1E8111A6
:1043700003C083E00E94C31D89E00E949E1E81113C
:1043800003C084E00E94C31D80ED97E00E94D3012A
:104390000E94B41D0E946E0681E10E94420D01E060
:1043A000019709F000E080E10E94420D11E00197C1
:1043B00009F010E0011102C01123F9F081E00E9420
:1043C000C31D0E94B41D6FEB71E08EEF91E00E945F
:1043D000FF298EEF91E00E94751D61E080E00E9450
:1043E000771D002319F081E40E94521E112319F059
:1043F00082E40E94521E0E94250670E8872E71E515
:10440000972EAA24A394B12CE7E04E2E512C612CB8
:10441000712C3324339461E1262EA8958091650296
:10442000882339F0E0911001F091110180E00995A5
:104430009CC280916402882331F088EA90E00E9457
:104440005607109264028091600290916102A091DF
:104450006202B0916302892B8A2B8B2B81F581E15B
:104460000E94420D019739F48091FF029091000360
:10447000892B09F484C280E10E94420D019739F42E
:104480008091210390912203892B09F47DC281E15F
:104490000E94420D892B39F48091FF029091000314
:1044A000019709F476C280E10E94420D892B39F40C
:1044B0008091210390912203019709F46FC28091AA
:1044C000600290916102A0916202B0916302892B17
:1044D0008A2B8B2BA1F00E94280E00916002109174
:1044E000610220916202309163020C501E4F2F4FE7
:1044F0003F4F061717072807390708F454C2809161
:10450000010390910203059731F08091230390916C
:104510002403059711F481E01AC084EF92E00E9411
:10452000D505182F86E193E00E94D50511110AC028
:1045300081110CC080915F02811102C082E007C02E
:1045400083E005C0882311F085E001C086E00E9469
:10455000C31D90916C0280915F02992309F456C0AB
:10456000811151C080913A03813099F480911403F4
:1045700090911503049719F430925E020AC080915D
:104580003603909137030497B9F752E0C52EC092D5
:104590005E0261E070E084EF92E00E94EE0461E070
:1045A00070E086E193E00E94EE040E94280E609382
:1045B0000B0370930C0380930D0390930E031092E2
:1045C0000203109201031092070310920803109245
:1045D000090310920A031092130360932D03709342
:1045E0002E0380932F039093300310922403109294
:1045F00023031092290310922A0310922B03109286
:104600002C031092350330925F020CC0882341F0D6
:1046100010920203109201031092240310922303BC
:1046200010925F0260E080E00E94771D88E60E94A1
:10463000C31C60E088EE92E00E94130D0E94CD1C26
:1046400061E070E088E690E00E942A1D88EE92E02A
:104650000E94CF0C87FD46C00E94C6070E94B81179
:104660008091F50190E00C971CF441E4F42E02C017
:1046700030E5F32E0E94C6070E94B811E090F401C5
:104680000E94C6070E94B8118091F501882339F075
:10469000082F10E08D3028F00C50110902C00CE0FA
:1046A00010E06BE172E08EEF91E00E94FF291F9213
:1046B000FF921F92EF921F930F938EEF91E09F93C3
:1046C0008F931F922F92EE24E394F12CEC0EFD1E9B
:1046D000FF92EF920E942E270FB6F894DEBF0FBE16
:1046E000CDBF1BC062E172E08EEF91E00E94FF2916
:1046F0008EEF91E09F938F931F922F92CC24C394BF
:10470000D12CCC0EDD1EDF92CF920E942E270F906F
:104710000F900F900F900F900F90CE0101960E9476
:10472000751D80915F02882319F069E072E018C05E
:1047300066E072E08EEF91E00E94FF298EEF91E03B
:104740000E94751D80913A03882329F0813031F44D
:1047500068EF71E005C06FEF71E002C064EF71E0D7
:104760008EEF91E00E94FF298EEF91E00E94751D6F
:1047700084EF92E00E9490049B8B8A8BBC0184EFB3
:1047800092E00E94901A86E193E00E9490048C01CE
:10479000BC0186E193E00E94901AC090FA01D0908B
:1047A000FB01E090FC01F090FD01C114D104E10493
:1047B000F10421F10E94280EAB01BC01DB01CA010A
:1047C0008C199D09AE09BF09813E9349A440B105EA
:1047D000A8F020911403309115032430310519F409
:1047E00084EF92E009C020913603309137032430E2
:1047F000310521F486E193E00E9434140E94280ED2
:10480000209168023091690240916A0250916B02D6
:104810006B017C01C21AD30AE40AF50AE1E6CE165E
:10482000EAEEDE06E104F10440F060936802709362
:10483000690280936A0290936B0284EF92E00E9477
:10484000601886E193E00E94601884EF92E00E9475
:104850006A1486E193E00E946A140E94EC019C01B4
:10486000019739F490915F02CC24C3949C259093D6
:104870006C028A899B89019799F40130110581F4B2
:104880002230310569F430926502109202031092D1
:104890000103109224031092230381E00E94061664
:1048A00000916602109167020E94C6070E94B8112B
:1048B0008091F40190E00817190709F456C00E948E
:1048C000C6070E94B8118091F40190E090936702AE
:1048D000809366020E94C6076B017C010E94B8119A
:1048E0000091F501C701B6010E94B8111091F401C1
:1048F000C701B601A50194010E94C026CA01B901F1
:104900006C5F7F4F8F4F9F4FA30192010E94C02683
:1049100081E001C0880F6A95EAF720E030E0F901F4
:10492000E85CFC4F9285992371F0478140130BC0DE
:104930004085411308C04185482329F0913049F052
:10494000923071F012C02C5F3F4F2031310539F7A2
:104950000CC080915F02811108C090936C0205C069
:1049600080915F02811110926C0280E0C82E80E07D
:10497000D82ECD2809F451CD0E9400004CCD89E2FB
:1049800091E00E94560777CD8AE291E00E94560797
:104990007ECD8AE290E00E94560785CD8AE290E0C3
:1049A0000E9456078CCD1092600210926102109204
:1049B000620210926302A3CD0F931F93CF93DF93F4
:1049C0001092E7021092E6021092E5021092E402C1
:1049D0000E9416141092EB021092EA0288EE93E005
:1049E000A0E0B0E08093EC029093ED02A093EE0281
:1049F000B093EF0286E491E09093E9028093E8029D
:104A0000109256031092550381E691E0909354035F
:104A10008093530382E080935E0310925D0380E2F3
:104A200080935C03109257031092610310924F031E
:104A300010925003109251031092520308E313E0B6
:104A4000C0E0D0E0CE010E94062AF80181938F01D8
:104A50002196CB31D105B1F780913803909139037C
:104A6000813F910509F444C081EF90E090933903B0
:104A70008093380310923A038CE090E090933C03CB
:104A800080933B0381E080933D0310923E0380E0DE
:104A900090E0FC01E85CFC4F1286178210861186BC
:104AA000049680319105A9F78EE3809345038093A6
:104AB000410387E180933F0387E08093430381ECC8
:104AC0008093490383E1809347038FEF80934D03E5
:104AD0008FE080934B0310924F031092500310927B
:104AE00051031092520388E393E00E94241E65C094
:104AF00080913A03823010F010923A0340913B03C8
:104B000050913C03E2E5F1E020E081E0ED35F8076B
:104B100039F0819190E084179507B9F721E0F5CF3E
:104B2000211106C08CE090E090933C0380933B03FE
:104B3000E2E4F3E08081833008F01082DF01139714
:104B40008C91883108F01C92DF0112978C918C3384
:104B500008F01C92DF018E918F778C93349683E05E
:104B6000E235F80739F780914F03082E000C990BB6
:104B700097FF03C0919581959109069714F01092C3
:104B80004F0380915003082E000C990B97FF03C030
:104B9000919581959109069714F010925003809198
:104BA0005103865F8B3010F01092510380915203B5
:104BB000865F8B3010F01092520381E08093F402F4
:104BC00086E193E09093F6028093F50288E090E00E
:104BD0009093F8028093F7028AE090E09093FA02B3
:104BE0008093F90281E090E09093FC028093FB02B5
:104BF00087E090E09093FE028093FD021092000304
:104C00001092FF021092020310920103109203030C
:104C100010920403109205031092060310920703EA
:104C2000109208031092090310920A0310920B03CA
:104C300010920C0310920D0310920E0310920F03AA
:104C4000109210031092110310921203109213038A
:104C5000109215031092140322E02093160324EF00
:104C600032E0309318032093170390931A03809334
:104C7000190389E090E090931C0380931B0310922A
:104C80001E0310921D0386E090E090932003809312
:104C90001F031092220310922103109224031092FA
:104CA00023031092250310922603109227031092DB
:104CB00028031092290310922A0310922B031092BA
:104CC0002C0310922D0310922E0310922F0310929A
:104CD000300310923103109232031092330310927A
:104CE0003403109235031092370310923603DF918C
:104CF000CF911F910F910895DB018F939F930E9495
:104D00001627BF91AF91A29F800D911DA39F900D7B
:104D1000B29F900D11240895991B79E004C0991F4A
:104D2000961708F0961B881F7A95C9F78095089505
:104D3000AA1BBB1B51E107C0AA1FBB1FA617B707C1
:104D400010F0A61BB70B881F991F5A95A9F78095DD
:104D50009095BC01CD01089597FB072E16F40094A1
:104D600007D077FD09D00E94982607FC05D03EF4B5
:104D7000909581959F4F0895709561957F4F089507
:104D8000A1E21A2EAA1BBB1BFD010DC0AA1FBB1F4F
:104D9000EE1FFF1FA217B307E407F50720F0A21BC1
:104DA000B30BE40BF50B661F771F881F991F1A942E
:104DB00069F760957095809590959B01AC01BD0158
:104DC000CF010895052E97FB1EF400940E94F9264A
:104DD00057FD07D00E94C02607FC03D04EF40C9468
:104DE000F92650954095309521953F4F4F4F5F4F95
:104DF000089590958095709561957F4F8F4F9F4F47
:104E00000895EE0FFF1F0590F491E02D0994A29FE5
:104E1000B001B39FC001A39F700D811D1124911D8E
:104E2000B29F700D811D1124911D08950E940727C6
:104E3000A59F900DB49F900DA49F800D911D1124EE
:104E40000895B7FF0C9416270E941627821B930B18
:104E5000089581E090E0F8940C94532AAEE0B0E01D
:104E6000E4E3F7E20C942A2A0D891E898F89988D34
:104E700026E02C831A83098397FF02C080E090E824
:104E800001979E838D83AE01455E5F4F698D7A8D5C
:104E9000CE0101960E9481274D815E8157FD0AC097
:104EA0002F813885421753070CF49A01F801E20F5D
:104EB000F31F10822E96E4E00C94462AAEE0B0E098
:104EC000E4E6F7E20C942A2A0D891E8986E08C8399
:104ED0001A8309838FEF9FE79E838D83AE01475E20
:104EE0005F4F6F89788DCE0101960E9481272F81B7
:104EF0003885F801E20FF31F10822E96E4E00C943F
:104F0000462AACE0B0E0E7E8F7E20C941C2A7C010A
:104F10006B018A01FC0117821682838181FFBDC16A
:104F2000CE0101964C01F7019381F60193FD859125
:104F300093FF81916F01882309F4ABC1853239F465
:104F400093FD859193FF81916F01853229F4B7011B
:104F500090E00E946929E7CF512C312C20E02032CB
:104F6000A0F48B3269F030F4803259F0833269F466
:104F700020612CC08D3239F0803339F4216026C095
:104F80002260246023C0286021C027FD27C030EDA7
:104F9000380F3A3078F426FF06C0FAE05F9E300DF5
:104FA0001124532E13C08AE0389E300D1124332E65
:104FB00020620CC08E3221F426FD6BC1206406C035
:104FC0008C3611F4206802C0883641F4F60193FD56
:104FD000859193FF81916F018111C1CF982F9F7DA2
:104FE0009554933028F40C5F1F4FFFE3F9830DC0F5
:104FF000833631F0833771F0833509F05BC022C00E
:10500000F801808189830E5F1F4F44244394512C03
:10501000540115C03801F2E06F0E711CF801A08038
:10502000B18026FF03C0652D70E002C06FEF7FEFF7
:10503000C5012C870E945E292C0183012C852F77C6
:10504000222E17C03801F2E06F0E711CF801A0800B
:10505000B18026FF03C0652D70E002C06FEF7FEFC7
:10506000C5012C870E9453292C012C852068222EF3
:10507000830123FC1BC0832D90E048165906B0F431
:10508000B70180E290E00E9469293A94F4CFF501DB
:1050900027FC859127FE81915F01B70190E00E9476
:1050A000692931103A94F1E04F1A51084114510422
:1050B00071F7E5C0843611F0893639F5F80127FF1C
:1050C00007C060817181828193810C5F1F4F08C08E
:1050D00060817181072E000C880B990B0E5F1F4FAA
:1050E0002F76722E97FF09C09095809570956195E7
:1050F0007F4F8F4F9F4F2068722E2AE030E0A4012F
:105100000E94A129A82EA81844C0853729F42F7E13
:10511000B22E2AE030E025C0F22FF97FBF2E8F3665
:10512000C1F018F4883579F0B4C0803719F08837A9
:1051300021F0AFC02F2F2061B22EB4FE0DC08B2DF9
:105140008460B82E09C024FF0AC09F2F9660B92E34
:1051500006C028E030E005C020E130E002C020E1D8
:1051600032E0F801B7FE07C06081718182819381CE
:105170000C5F1F4F06C06081718180E090E00E5F80
:105180001F4FA4010E94A129A82EA818FB2DFF776C
:105190007F2E76FE0BC0372D3E7FA51450F474FE93
:1051A0000AC072FC08C0372D3E7E05C0BA2C372DD0
:1051B00003C0BA2C01C0B52C34FF0DC0FE01EA0DAE
:1051C000F11D8081803311F4397E09C032FF06C0A1
:1051D000B394B39404C0832F867809F0B39433FD5D
:1051E00013C030FF06C05A2CB31418F4530C5B18CC
:1051F000B32CB31468F4B70180E290E03C870E94BE
:105200006929B3943C85F5CFB31410F43B1801C061
:10521000312C34FF12C0B70180E390E03C870E943C
:1052200069293C8532FF17C031FD03C088E790E053
:1052300002C088E590E0B7010CC0832F867859F052
:1052400031FF02C08BE201C080E237FD8DE2B70181
:1052500090E00E946929A51438F4B70180E390E03A
:105260000E9469295A94F7CFAA94F401EA0DF11D1E
:105270008081B70190E00E946929A110F5CF332009
:1052800009F451CEB70180E290E00E9469293A9476
:10529000F6CFF7018681978102C08FEF9FEF2C96A2
:1052A000E2E10C94382AFC01059061507040011035
:1052B000D8F7809590958E0F9F1F0895FC0161503F
:1052C000704001900110D8F7809590958E0F9F1F28
:1052D00008950F931F93CF93DF93FB01238121FD4B
:1052E00003C08FEF9FEF28C022FF16C04681578171
:1052F000248135814217530744F4A081B1819D0177
:105300002F5F3F4F318320838C93268137812F5F1E
:105310003F4F3783268310C0EB01092F182F0084DD
:10532000F185E02D0995892BE1F68E819F8101960B
:105330009F838E83812F902FDF91CF911F910F91AB
:105340000895FA01AA27283051F1203181F1E8941B
:105350006F936E7F6E5F7F4F8F4F9F4FAF4FB1E068
:105360003ED0B4E03CD0670F781F891F9A1FA11D63
:10537000680F791F8A1F911DA11D6A0F711D811D64
:10538000911DA11D20D009F468943F912AE0269F29
:1053900011243019305D3193DEF6CF010895462F88
:1053A0004770405D4193B3E00FD0C9F7F6CF462F69
:1053B0004F70405D4A3318F0495D31FD40524193D2
:1053C00002D0A9F7EACFB4E0A6959795879577958F
:1053D0006795BA95C9F700976105710508959B0116
:1053E000AC010A2E06945795479537952795BA959F
:1053F000C9F7620F731F841F951FA01D0895FB013D
:10540000DC0105900D920020E1F70895F999FECF97
:1054100092BD81BDF89A992780B50895262FF999F4
:10542000FECF1FBA92BD81BD20BD0FB6F894FA9A87
:10543000F99A0FBE019608952F923F924F925F9274
:105440006F927F928F929F92AF92BF92CF92DF9294
:10545000EF92FF920F931F93CF93DF93CDB7DEB7F9
:10546000CA1BDB0B0FB6F894DEBF0FBECDBF09948D
:105470002A88398848885F846E847D848C849B84E4
:10548000AA84B984C884DF80EE80FD800C811B81F2
:10549000AA81B981CE0FD11D0FB6F894DEBF0FBE21
:0A54A000CDBFED010895F894FFCF91
:1054AA00000001010302010000010B02840C840CBC
:1054BA0006161F1C1F1E1F1E1F1F1E1F1E1F000059
:1054CA0040001400540000000100080020004000C1
:1054DA0080000001000400000100080040000001F3
:1054EA00000400000000130DE30C850CCF0CC00C67
:1054FA00BF0C0C1014181C1E2024282C320000008B
:10550A0000DE12DE142000410042002D002B0000B4
:00000001FF
