:100000000C94E2030C94E2120C94BB120C940A04BC
:100010000C940A040C940A040C940A040C940A0428
:100020000C940A040C940A040C940A040C940A0418
:100030000C940A040C940A040C940A040C940A0408
:100040000C9471120C940A040C940A040C940A0483
:100050000C940A040C940A040C940A040C940A04E8
:100060000C942D170C940A04A018D318DC18E71868
:10007000EF18EF18EF18EF18EF18EF18EF18FD183A
:10008000C61BCB1BD91BE51BEC1BF81B041C2D1C32
:10009000361C611C521C611C611C681C881CB51C30
:1000A000E31C101D3D1D6A1D961D25336C756D41A9
:1000B000002532642E253031644100455252200023
:1000C00020646F6E6500207761697400206F6E2078
:1000D0002000206F66662000202D2D2D20007374D7
:1000E000617475733A2025782C204341523A256378
:1000F0002C2073746174757320626974733A2025BF
:10010000782C20737461747573206D61736B3A2061
:1001100025782E004572726F72202563206F6E2045
:1001200025730053657474696E67202573207265AA
:100130006C617920746F2025730050696E202564EE
:1001400020746F2050574D2025640050696E202583
:100150006420746F206469676974616C2025640091
:1001600053657474696E672025732070696C6F74B1
:1001700020746F2025730025732068696768202527
:1001800075206C6F7720257520636F756E74202540
:100190006C7500427574746F6E2073686F72742D85
:1001A00070757368206576656E7400427574746F3F
:1001B0006E206C6F6E672D70757368206576656E46
:1001C0007400427574746F6E2069732075700042FC
:1001D0007574746F6E20697320646F776E0042755A
:1001E00074746F6E7320256400436865636B696E79
:1001F0006720666F7220627574746F6E2065766515
:100200006E7400554E495420495320444541442EB4
:1002100000636C6561720073657400537475636B81
:1002200020004746492054657374204661696C7507
:100230007265004572724A616E4665624D61724137
:1002400070724D61794A756E4A756C417567536578
:10025000704F63744E6F7644656300202000253232
:10026000640020202000202020002025326400206F
:1002700020002530326400202000253264005365C0
:100280007420436C6F636B0052656C61792046612A
:10029000696C7572653A200053657450696E4672D8
:1002A000657175656E637920666F72206361722077
:1002B00042206661696C6564210053657450696E03
:1002C0004672657175656E637920666F7220636131
:1002D000722041206661696C65642100322E342EE3
:1002E000310053573A00323331750048573A004ACB
:1002F000313737322048796472612000537461725B
:1003000074696E672048573A25732053573A25730E
:1003100000506F7765722077697468647261776ED8
:10032000206166746572206572726F722064656CFC
:100330006179206F6E20636172204200506F776593
:10034000722077697468647261776E206166746583
:10035000722070617573652064656C6179206F6EC1
:100360002063617220420044656C61796564207489
:1003700072616E736974696F6E20636F6D706C6506
:10038000746564206F6E20636172204200506F7745
:1003900065722077697468647261776E2061667433
:1003A0006572206572726F722064656C6179206F6E
:1003B0006E20636172204100506F7765722077690B
:1003C0007468647261776E20616674657220706112
:1003D0007573652064656C6179206F6E206361724E
:1003E00020410044656C61796564207472616E73AC
:1003F0006974696F6E20636F6D706C6574656420DD
:100400006F6E20636172204100436172204220635D
:10041000757272656E74206472617720256C752028
:100420006D410043617220412063757272656E7484
:10043000206472617720256C75206D4100506F77C4
:10044000657220617661696C61626C6520256C75EE
:10045000206D41005374617465733A2043617220CA
:10046000412C2025733B2043617220422C202573B0
:100470000053657175656E7469616C206D6F64659C
:10048000206F666665722074696D656F75742C20C7
:100490006D6F76696E67206F6666657220746F2077
:1004A00025730053657175656E7469616C206D6F9D
:1004B0006465206F666665722074696D656F75741A
:1004C0002C206D6F76696E67206F6666657220748A
:1004D0006F2025730043617220422073746174653C
:1004E000207472616E736974696F6E3A2025732D82
:1004F0003E25732E00436172204220646973636F4E
:100500006E6E65637465642C20636C656172696EE0
:1005100067206572726F72004361722041207374AC
:10052000617465207472616E736974696F6E3A20CC
:1005300025732D3E25732E0043617220412064698E
:1005400073636F6E6E65637465642C20636C6561A4
:1005500072696E67206572726F7200554E4B007340
:1005600065716E746C00736861726564004D3A0069
:100570004D3A504155534544002020202020202052
:1005800020002532643A2530326425634D20005026
:10059000617573696E672E0047726F756E642066B1
:1005A00061696C7572652064657465637465642047
:1005B0006F6E2063617220420047726F756E642017
:1005C0006661696C757265206465746563746564E1
:1005D000206F6E2063617220410052656C6179204A
:1005E0006661756C74206465746563746564206FFE
:1005F0006E2063617220420052656C6179206661F1
:10060000756C74206465746563746564206F6E2016
:10061000636172204100474649206661756C742011
:10062000646574656374656400000000002400273D
:10063000002A0000000000250028002B0000000018
:100640000023002600290004040404040404040216
:10065000020202020203030303030301020408105F
:1006600020408001020408102001020408102053D9
:100670004D545754465300534D545754465300203D
:100680002000253032640020200025326400202024
:100690002020202020202020202020202020004555
:1006A0007869740020202020004564697420457614
:1006B000656E742000536176696E67206576656E9D
:1006C00074202564202D2025643A256420646F77EA
:1006D0005F6D61736B202578206576656E742025CB
:1006E0006400204361722025733A2025642525008B
:1006F00050696C6F74206465726174650020436199
:10070000722025733A202573302E256400416D6DCB
:1007100065746572004E6F005965730045786974A1
:10072000204D656E75733F004E6F00596573004331
:10073000616C6962726174696F6E3F004E6F00593F
:10074000657300436F6E666967204576656E7473E6
:100750003F004E6F0059657300456E61626C652005
:100760004453543F004E6F00596573005365742025
:10077000436C6F636B3F0020416D70730043757273
:1007800072656E7420417661696C2E0053657175D7
:10079000656E7469616C00536861726564004F70C6
:1007A00065726174696E67204D6F646500000000BA
:1007B0000800020100000304070000000000000020
:1007C0000000512B11241FBECFEFD8E0DEBFCDBFFC
:1007D00011E0A0E0B1E0EEEAF0E602C005900D9273
:1007E000A238B107D9F723E0A2E8B1E001C01D9219
:1007F000AB3DB207E1F713E0C2EED3E004C02197AE
:10080000FE010E94FC2CC13ED107C9F70E94FB20CB
:100810000C9455300C94000060E088E00E94A81110
:1008200060E087E00E94A8111092CC011092CB01E9
:100830001092CE011092CD010E9465126093CF01FB
:100840007093D0018093D1019093D20181E0809385
:1008500033020895CF92DF92EF92FF92CF93DF930E
:100860008091FC02882309F462C00E9430136B015E
:100870007C010E941916EC016091A0037091A10304
:100880008091A2039091A3030E941916C817D9075B
:1008900031F0C701B6010E9419160E94411EC7011E
:1008A000B6010E941916EC016091A0037091A1039A
:1008B0008091A2039091A3030E941916C817D9072B
:1008C00031F0C701B6010E9419160E94411E4091E5
:1008D000A4035091A5036091A6037091A703809192
:1008E000A0039091A103A091A203B091A303481784
:1008F00059076A077B0741F184179507A607B707D1
:1009000058F4C816D906EA06FB06F0F0C416D50658
:10091000E606F706C8F413C0C416D506E606F706C1
:1009200070F0C816D906EA06FB0648F40DC0DF9140
:10093000CF91FF90EF90DF90CF900C943013A09167
:100940009203B091930304C0A0919E03B0919F03C2
:100950002CE330E00E94112D6C0D7D1D8E1D9F1D1E
:10096000DF91CF91FF90EF90DF90CF900895CF93DC
:10097000DF93EC01C536D10550F064E670E080E00D
:1009800090E00E942B12C456D109A895F3CFBE0166
:1009900080E090E00E942B12A895DF91CF910895FE
:1009A0000F931F93CF9369EE71E083ED91E00E9466
:1009B00001308091A4019091A501A091A601B09170
:1009C000A701892B8A2B8B2BA9F00E94651200911D
:1009D000A4011091A5012091A6013091A701DC018D
:1009E000CB01801B910BA20BB30BC297A105B105E4
:1009F00008F451C01092A4011092A5011092A60112
:100A00001092A701C091D603CC23C9F08091D403E2
:100A100080620E94B31E82E10E946F160E94BD1E7A
:100A20008091D403806261E070E090E00E941A1F20
:100A30008CE793E00E940A118095C82FCF716EED6C
:100A400071E083ED91E00E940130C0FF27C06FECA0
:100A500071E083ED91E00E9401308091A0019091BE
:100A6000A101A091A201B091A301892B8A2B8B2B0C
:100A700091F40E9465126093A0017093A10180938C
:100A8000A2019093A3016093A4017093A5018093A8
:100A9000A6019093A70180E090E048C062EC71E06D
:100AA00083ED91E00E9401308091A0019091A1011D
:100AB000A091A201B091A301892B8A2B8B2B59F312
:100AC0000E9465126093A4017093A5018093A60112
:100AD0009093A7010091A0011091A1012091A20182
:100AE0003091A301DC01CB01801B910BA20BB30B56
:100AF0001092A0011092A1011092A2011092A301E4
:100B00008B3F9105A105B10548F06BEA71E083EDDB
:100B100091E00E94013082E090E008C063E971E05A
:100B200083ED91E00E94013081E090E0CF911F9130
:100B30000F910895CF92DF92EF92FF920F931F9340
:100B4000CF93DF93CDB7DEB72E970FB6F894DEBF05
:100B50000FBECDBFF82E0E94D0048C01FF2009F4F7
:100B600056C00E9450206EE772E083ED91E00E9433
:100B7000013083ED91E00E94ED1F0E942A040E9443
:100B8000F51520917303222331F0822F90E02D3050
:100B900020F00C9702C08CE090E08093FA020E9453
:100BA0002A040E94F5158091730390E021E00C97D0
:100BB0000CF420E02093F8020E942A040E94F5150C
:100BC000809172038093F9020E942A040E94F51515
:100BD00080917503809395010E942A040E94F51567
:100BE00080917603809394010E942A040E94191632
:100BF0009C012A5D37402B30310510F08AED97E0DB
:100C000090939301809392011092FB025DC081301A
:100C1000910509F051C09091FB02923001F128F446
:100C2000992349F0913081F09BC1943061F110F12A
:100C3000953091F195C18091FA028F5F8D3008F067
:100C400081E08093FA028CC18091F9028F5F8C332E
:100C500018F48093F90284C11092F90281C1809145
:100C6000F8028F5F823018F48093F80279C11092F5
:100C7000F80276C1809195018F5F803208F081E0A3
:100C8000809395016DC1809194018F5F8D3008F044
:100C900081E08093940164C18091920190919301CD
:100CA0000196853E27E0920710F08AED97E0909339
:100CB00093018093920154C1029709F051C1809130
:100CC000FB028F5F8093FB028091FB02863008F469
:100CD00045C19091F8028091FA02911105C08C30C3
:100CE00051F41092FA0207C0913029F48C3019F0B7
:100CF000845F8093FA0280919201825B8E8780915B
:100D000094018D87809195018C878091FA028A8762
:100D10008091F90289871886CE0108960E94BA133D
:100D20006B017C018091FC02882309F47FC0C7011C
:100D3000B6010E9419168C016091A8037091A90355
:100D40008091AA039091AB030E9419160817190706
:100D500031F0C701B6010E9419160E94411EC70159
:100D6000B6010E9419168C016091A8037091A90325
:100D70008091AA039091AB030E94191608171907D6
:100D800031F0C701B6010E9419160E94411E409120
:100D9000A4035091A5036091A6037091A7038091CD
:100DA000A0039091A103A091A203B091A3034817BF
:100DB00059076A077B0709F4F3C14091AC035091CE
:100DC000AD036091AE037091AF038091A803909141
:100DD000A903A091AA03B091AB0384179507A607B6
:100DE000B70768F4C816D906EA06FB0608F4D8C1A6
:100DF000C416D506E606F70608F0D2C10BC0C41625
:100E0000D506E606F70630F0C816D906EA06FB0650
:100E100008F4C6C1A0919203B09193032CE330E093
:100E20000E94112DC61AD70AE80AF90AC701B601AD
:100E30000E940913AE014F5F5F4FC701B6010E94C8
:100E4000241588E60E94B31E60E08CE793E00E94C0
:100E50004E1160E88CE793E00E944E118A811AE0FF
:100E6000612F0E94872C692F30E1839F600D112430
:100E70008CE793E00E944E118B81612F0E94872C9A
:100E8000692F20E1829F600D11248CE793E00E947E
:100E90004E118C81612F0E94872C692F30E1839F36
:100EA000600D11248CE793E00E944E118D81612F1B
:100EB0000E94872C692F20E1829F600D11248CE70E
:100EC00093E00E944E118E81612F0E94872C692F22
:100ED00030E1839F600D11248CE793E00E944E1156
:100EE0008F818E51612F0E94872C692F20E1829F74
:100EF000600D11248CE793E00E944E110E94BD1EEC
:100F0000882319F010929C021EC001E000939C02FD
:100F100088E60E94B31E60E08CE793E00E944E11C9
:100F20008981612F0E94872C692F30E1839F600D9A
:100F300011248CE793E00E944E110E94BD1E811186
:100F4000E1CF00939C0285E89BE19093050180939B
:100F50000401109234020E94502027C102E010E0E8
:100F60000E94651228EE33E040E050E00E94BB2C66
:100F700021E0643F71408105910508F420E0012BD8
:100F800029F49091F702921709F40FC12093F70208
:100F900061E080E00E949E1F1091FA026AE772E011
:100FA00083ED91E00E9401301F921F9383ED91E049
:100FB0009F938F938E010F5F1F4F1F930F930E947C
:100FC000602D0F900F900F900F900F900F908091C9
:100FD000FB0281110DC08091F702882349F067E779
:100FE00072E083ED91E00E94013083ED91E001C059
:100FF000C8010E94ED1F8AE30E94931FF090F9023E
:1010000062E772E083ED91E00E9401301F92FF924F
:1010100083ED91E09F938F931F930F930E94602D18
:101020000F900F900F900F900F900F908091FB02F8
:10103000813069F48091F702882349F06FE672E00D
:1010400083ED91E00E94013083ED91E001C0C80181
:101050000E94ED1F8091FB02823031F48091F702F3
:10106000882311F080E207C08091F802811102C04C
:1010700081E401C080E50E94931FF09095016AE62B
:1010800072E083ED91E00E9401301F92FF9283EDA8
:1010900091E09F938F931F930F930E94602D0F9069
:1010A0000F900F900F900F900F908091FB02833064
:1010B00069F48091F702882349F066E672E083EDD7
:1010C00091E00E94013083ED91E001C0C8010E94CF
:1010D000ED1F8DE20E94931F8091FB02843069F422
:1010E0008091F702882349F062E672E083ED91E097
:1010F0000E94013083ED91E019C02091940183E0BA
:10110000289F90011124A8E8B1E080E090E0FC0164
:10111000E20FF31FED5CFD4FE491ED9301968330F8
:101120009105A9F710928B0188E891E00E94ED1FCC
:101130008DE20E94931F809192019091930164E649
:1011400070E00E94932CF82EE92E6EE572E083ED9C
:1011500091E00E940130EF92FF9283ED91E09F9326
:101160008F931F930F930E94602D0F900F900F90FD
:101170000F900F900F908091FB02853069F4809161
:10118000F702882349F06BE572E083ED91E00E945D
:10119000013083ED91E001C0C8010E94ED1F05C040
:1011A000A0919E03B0919F0339CE2E960FB6F8946E
:1011B000DEBF0FBECDBFDF91CF911F910F91FF908A
:1011C000EF90DF90CF9008952F923F924F925F92D1
:1011D0006F927F928F929F92AF92BF92CF92DF9247
:1011E000EF92FF920F931F93CF93DF93CDB7DEB7AC
:1011F0002E970FB6F894DEBF0FBECDBF019709F052
:10120000C9C01091C70307E00E9465126D837E83F9
:101210008F839887212C312C44244A94542C3201FA
:1012200019821A821B821C821E861D86812C912C9B
:1012300054010E946512AB01BC01DB01CA01CD80E3
:10124000DE80EF80F8848C199D09AE09BF09839771
:10125000A105B10508F09AC0802F49875A876B878E
:101260007C870E9414126C01990FEE08FF084985D3
:101270005A856B857C852FEF4216520662067206F0
:1012800059F181E091E0491692E059066104710438
:101290000CF480E091E021E0C21622E0D206E104E5
:1012A000F1040CF490E08917B9F0DB01CA01498020
:1012B0005A806B807C8084199509A609B709069726
:1012C000A105B10548F08D859E8501969E878D8785
:1012D00049835A836B837C838D859E8581309105FC
:1012E00008F451C08330910588F0039709F04BC092
:1012F000910140E050E0C501B4010E94BB2C4901BE
:101300005A01C12CD12C7601C39411C0C701B6017A
:101310007250810991099B01AC010E94772C860EC5
:10132000971EA81EB91E9FEF291A390A2CC0A701C3
:101330009601C701B6010E94772C86169706A8066B
:10134000B90630F02FEFC21AD20AE20AF20AEFCF42
:101350002150310941095109AAE6B0E00E94182D37
:10136000693823E1720781059105C0F024E6120275
:1013700080011124012E000C220B330B600F711F12
:10138000821F931F0BC02601370153CF60E070E02E
:10139000CB0104C01091C80306E036CF2E960FB6DD
:1013A000F894DEBF0FBECDBFDF91CF911F910F919B
:1013B000FF90EF90DF90CF90BF90AF909F908F9075
:1013C0007F906F905F904F903F902F9008958F92F5
:1013D0009F92AF92BF92FF920F931F93CF93DF9391
:1013E000FF24F394019709F0F12C0E9465124B0140
:1013F0005C01C0E0D0E00FE017E20E946512AB0193
:10140000BC01481959096A097B0944315105610534
:10141000710560F48F2D0E941412C817D90708F4C3
:10142000EC018017910748F78C01E7CF67E771E07F
:1014300083ED91E00E9401300B5F110901331140EF
:10144000A0F0C63683E0D80798F4CE0187509340C9
:101450008F35910580F0835A9F4F8D35910570F03F
:10146000C256D240C834D10560F085E090E00BC090
:1014700081E090E008C082E090E005C083E090E069
:1014800002C084E090E0DF91CF911F910F91FF9017
:10149000BF90AF909F908F900895FF920F931F93EE
:1014A000CF93DF93EC018B0160E671E083ED91E077
:1014B0000E940130C130D10561F0229709F0E4C0EB
:1014C0001093BF010093BE014091CA03C9E0D0E070
:1014D00008C01093C3010093C2014091C903CAE040
:1014E000D0E00230110540F46BE471E083ED91E04F
:1014F0000E940130602F65C02091B3033091B40386
:10150000A8EEB3E00E94022D0330110521F4969558
:101510008795779567954423D1F0A42F440FBB0B93
:10152000AC59BF4F9B01AC010E94232D24E630E053
:1015300040E050E00E94BB2C203787E1380741058E
:10154000510568F460E777E180E090E011C0613315
:1015500025E772078105910508F091C01BC0CA01FB
:10156000B901613325E772078105910508F087C04D
:101570002CE330E040E050E00E94BB2C942F832FFE
:10158000722F662728EE33E040E050E00E94DD2C09
:10159000890108C0603727E172078105910540F78E
:1015A0000FEF10E06AE371E083ED91E00E940130FB
:1015B000FC2E61E08C2F0E94D8110F3F110519F409
:1015C00061E08C2F3EC0FE01E355F84FE491E3301B
:1015D000D1F050F4E23079F584B5806284BD27B54E
:1015E00030E0C8E4D0E034C0E430C9F0E83019F5A8
:1015F0008091B00080628093B0002091B30030E011
:10160000C4EBD0E025C0809180008068809380008A
:101610002091860030918700C8E8D0E024C08091F6
:101620008000806280938000209186003091870046
:10163000CAE8D0E018C007FD02C060E001C061E068
:101640008F2DDF91CF911F910F91FF900C94A811D6
:10165000D8010E94022D2FEF30E040E050E00E94C0
:10166000BB2C288311C0D8010E94022D2FEF30E03F
:1016700040E050E00E94BB2C3983288305C060E322
:1016800075E780E090E074CFDF91CF911F910F91CB
:10169000FF9008959C018091C601811139C02130CD
:1016A000310521F022303105C9F008952091C9019A
:1016B0003091CA012530310571F18091B2019091CC
:1016C000B301A091B401B091B501892B8A2B8B2B6A
:1016D00009F52091CD013091CE0117C02091C701AD
:1016E0003091C80125303105B1F08091AE01909163
:1016F000AF01A091B001B091B101892B8A2B8B2B46
:1017000049F42091CB013091CC0181E0232B19F4D5
:1017100080E0089581E008950F931F93CF93DF93A6
:101720008C01EB018091CD019091CE01892B49F480
:101730008091CB019091CC01892B19F46130710516
:10174000B9F163E271E083ED91E00E940130013074
:10175000110521F00230110589F01FC08091CD01E3
:101760009091CE018C179D0731F16C2F88E00E947B
:10177000A811D093CE01C093CD010FC08091CB01B1
:101780009091CC018C179D07B1F06C2F87E00E94DF
:10179000A811D093CC01C093CB010E946512609335
:1017A000CF017093D0018093D1019093D20103C0F7
:1017B0000E942F0CC6CFDF91CF911F910F910895FA
:1017C00060E070E081E090E00E944D0A60E070E02F
:1017D00082E090E00E944D0A60E070E081E090E0DD
:1017E0000E948C0B60E070E082E090E00E948C0B25
:1017F00063E072E083ED91E00E940130A895FECF96
:10180000C82F81E00E94EF1F0E94502062E272E028
:1018100083ED91E00E94013083ED91E00E94ED1F85
:1018200061E080E00E949E1F6BE172E083ED91E039
:101830000E94013083ED91E00E94ED1FCC2319F04E
:1018400067E172E002C061E172E083ED91E00E9425
:10185000013083ED91E00E94ED1F0E94E00BCF92DA
:10186000DF92EF92FF920F931F93CF93DF9310922B
:101870003302C2E3D0E00BEF1CE761E083E00E949B
:10188000A811C8010197F1F760E083E00E94A81158
:10189000C8010197F1F780913302811103C0A89527
:1018A000219759F7809133028823B9F00E9465127D
:1018B0006B017C0124E6C20ED11CE11CF11C82E00C
:1018C0000E947F11019759F4A8950E946512C616CF
:1018D000D706E806F90698F781E00E94000C82E33B
:1018E00090E00E94B70410923302DF91CF911F91D4
:1018F0000F91FF90EF90DF90CF9008950F931F937B
:10190000CF93DF93EC01CE0183709927813091054D
:1019100049F0029751F0CC7FCE0181600E947E0C8D
:10192000C260F1CF01E410E002C002E418E061E01F
:10193000812F0E949E1F802F0E94931F8AE30E9486
:10194000931F6EED70E083ED91E00E9401309E01E7
:101950002873332720313105B1F048F421153105C2
:1019600079F028303105E9F462ED70E00EC02831DD
:101970003105A1F020323105A1F460EC70E005C022
:1019800068ED70E002C06CEC70E083ED91E00E94C5
:10199000013083ED91E00E94ED1F38C066EC70E0ED
:1019A000F4CF81E00E94EF1F6BEB70E083ED91E0DC
:1019B0000E94013083ED91E00E94ED1F9E01207C8A
:1019C000317020383105B9F038F42115310589F02E
:1019D00020343105C1F015C0211581E0380769F0C8
:1019E000203481E0380759F0203C310551F484E57A
:1019F0000BC086E409C087E407C082E505C085E422
:101A000003C08FE301C08FE40E94931F81E791E040
:101A10000E94ED1FC2FF0CC061E086E0810F0E94B2
:101A20009E1F8AE2DF91CF911F910F910C94931F1B
:101A3000DF91CF911F910F910895CF92DF92EF9296
:101A4000FF920F931F93CF93DF938C010E94651237
:101A50006B017C01E801C370DD271092A801109290
:101A6000A9011092AA011092AB01C230D10520F059
:101A7000229709F047C024C061E070E081E090E067
:101A80000E944D0A8091C9019091CA01059771F099
:101A900085E090E09093CA018093C901C092BA0199
:101AA000D092BB01E092BC01F092BD011092B20154
:101AB0001092B3011092B4011092B501CD2B11F523
:101AC00061E070E082E090E00E944D0A8091C701E1
:101AD0009091C801059771F085E090E09093C8015E
:101AE0008093C701C092B601D092B701E092B801CD
:101AF000F092B9011092AE011092AF011092B001B4
:101B00001092B101C8010E947E0C64E171E083ED86
:101B100091E0DF91CF911F910F91FF90EF90DF90B7
:101B2000CF900C940130CF92DF92EF92FF920F93FF
:101B30001F93CF93DF938130910551F4E9ECF1E0ED
:101B400042E0E42EF12C52EBC52E51E0D52E09C017
:101B5000E7ECF1E0EE24E394F12C3EEAC32E31E011
:101B6000D32E718360836530710550F48B01EC01D5
:101B70006330710508F059C06130710588F4AAC05E
:101B80006530710509F0A6C088669160DF91CF913C
:101B90001F910F91FF90EF90DF90CF900C941D0D4F
:101BA00060E070E00E948C0B0130110541F0C7012C
:101BB0000E944A0B811106C064E070E005C061E03C
:101BC00070E002C063E070E0CE010E944D0A013077
:101BD000110519F088E090E002C080E090E08C2BC5
:101BE0009D2B0E947E0CF6011082118212821382BC
:101BF000F1E0EF16F10429F48091C2019091C30144
:101C000004C08091BE019091BF01039709F062C0AA
:101C100064E070E0C701DF91CF911F910F91FF90B9
:101C2000EF90DF90CF900C944D0A0E944A0B8111E7
:101C300051C0C7010E944A0B8823E9F00E94651237
:101C4000F601608371838283938363E070E0C70150
:101C50000E944D0A63E070E0CE010E944D0ACE0161
:101C60008861DF91CF911F910F91FF90EF90DF90EE
:101C7000CF900C947E0CF1E0EF16F10429F48091E2
:101C8000C2019091C30104C08091BE019091BF0137
:101C9000049729F463E070E0C7010E944D0A64E0F4
:101CA00070E0CE010E944D0AF6011082118212826C
:101CB0001382CE0180610E947E0C61E070E0CE0153
:101CC000DF91CF911F910F91FF90EF90DF90CF9018
:101CD0000C948C0BDF91CF911F910F91FF90EF909F
:101CE000DF90CF9008956F927F928F929F92AF92E4
:101CF000BF92CF92DF92EF92FF920F931F93CF93F9
:101D0000DF93EC017B01019709F01EC16090C701D0
:101D10007090C80132E0A32EB12C49EC842E41E032
:101D2000942E0DEA11E05CEAC52E51E0D52E85E037
:101D3000E816F10470F4E3E0EE16F10408F0C8C010
:101D4000F1E0EF16F10471F082E0E816F10489F198
:101D5000F7C0E5E0EE16F10409F0F2C0CE018866A6
:101D60009160DEC060E070E0CE010E948C0B61E00B
:101D700070E0CE010E944D0A1092A8011092A901B4
:101D80001092AA011092AB01F2E06F16710449F4AF
:101D900064E070E0C5010E944D0AC50188600E94A0
:101DA0007E0CCE010E947E0CF8011082F60110829A
:101DB000C7C060E070E0CE010E948C0BF40180810E
:101DC000918103970297F0F5F2E06F16710469F5BF
:101DD000F601808181110AC061E070E0CE010E94AD
:101DE0004D0A64E070E0C5010E944D0AF601808151
:101DF000811103C088E090E002C080E290E08A296F
:101E00009B290E947E0CCE0180620E947E0C81E0A4
:101E1000F80180830E9465126093A8017093A90164
:101E20008093AA019093AB018BC0CE0188600E9481
:101E30007E0C1092A8011092A9011092AA01109292
:101E4000AB017EC0F1E06F16710491F464E070E0C4
:101E5000CE010E944D0AF8011082F6011082109204
:101E6000A8011092A9011092AA011092AB011FC003
:101E7000E89461F8672801F58091C0019091C10153
:101E80008C179D0709F072C0F8018081811114C080
:101E900064E070E0CE010E944D0A0E9465126093DA
:101EA000A8017093A9018093AA019093AB01CE0180
:101EB00088600E947E0C44C0F8018081811103C0BB
:101EC00088E190E002C080E290E08C2B9D2BF1CF66
:101ED000CE010E944A0B811133C0C130D10529F4D3
:101EE0008091C2019091C30104C08091BE01909184
:101EF000BF01049719F0CE01886E12C01092A8019C
:101F00001092A9011092AA011092AB01CE0180613A
:101F10000E947E0C61E070E0CE010E948C0B10C02C
:101F2000DF91CF911F910F91FF90EF90DF90CF90B5
:101F3000BF90AF909F908F907F906F900C941D0DED
:101F4000F401F182E08212C06090C9017090CA0170
:101F5000AA24A394B12C97EC892E91E0992E0CEA37
:101F600011E02DEAC22E21E0D22EE1CEDF91CF91F9
:101F70001F910F91FF90EF90DF90CF90BF90AF90A7
:101F80009F908F907F906F900895CF92DF92EF9205
:101F9000FF920F931F93CF93DF9300D000D0CDB764
:101FA000DEB76B017C012AE030E040E050E00E94A7
:101FB000BB2C88EEC81683E0D806E104F104B8F41F
:101FC0006AEA70E083ED91E029833A834B835C8376
:101FD0000E940130AAE0B0E029813A814B815C8106
:101FE0000E94182D9F938F937F936F9331C0CA01E6
:101FF000B90124E630E040E050E00E94BB2CCB0168
:102000006AE070E00E94A72C21E030E0059714F40C
:1020100020E030E08B01020F131FC701B60128EE4C
:1020200033E040E050E00E94BB2C79010A301105FA
:1020300029F49FEFE91AF90A00E010E061EB70E083
:1020400083ED91E00E9401301F930F93FF92EF9276
:1020500083ED91E09F938F9382E891E09F938F931C
:102060000E94602D0FB6F894DEBF0FBECDBF82E890
:1020700091E00F900F900F900F90DF91CF911F91F3
:102080000F91FF90EF90DF90CF900895CF92DF9265
:10209000EF92FF920F931F93CF93DF936C017A011E
:1020A0008B01C0E0D0E0CE15DF0589F0D8016D913D
:1020B0008D01D601ED91FC910190F081E02DC601DA
:1020C0000995892B11F47E0102C02196ECCFC7013E
:1020D000DF91CF911F910F91FF90EF90DF90CF9004
:1020E0000895833081F028F4813099F08230A1F096
:1020F00008958730A9F08830B9F08430D1F4809108
:1021000080008F7D03C0809180008F778093800056
:10211000089584B58F7702C084B58F7D84BD0895FE
:102120008091B0008F7703C08091B0008F7D809345
:10213000B00008953FB7F8948091F3029091F402B3
:10214000A091F502B091F60226B5A89B05C02F3FDD
:1021500019F00196A11DB11D3FBFBA2FA92F982FCD
:102160008827820F911DA11DB11DBC01CD0142E048
:10217000660F771F881F991F4A95D1F70895089514
:1021800080917A0390E020917B03821B910908954E
:1021900085ED8093BC008091BC0084FDFCCF109243
:1021A0004F0308954091BF02262F30E0240F311DC8
:1021B00021323105DCF420914F032430C9F4FC01B5
:1021C00080E090E0861758F43091BF022191DC0145
:1021D000A356BD4FA30FB11D2C930196F3CF809151
:1021E000BF02680F6093BF0280E0089581E0089508
:1021F00082E008950895E0917B0380917A03E817C7
:1022000030F4F0E0E75FFC4F808190E008958FEFBD
:102210009FEF089590917B0380917A03981750F473
:10222000E92FF0E0E75FFC4F208130E09F5F909363
:102230007B0302C02FEF3FEFC9010895CF92DF92D9
:10224000EF92FF920F931F93CF93DF937C01262F82
:10225000972F8A0180917003882391F0C62FD72F82
:102260006E01C40ED51ECC15DD0571F06991D70144
:10227000ED91FC910190F081E02DC7010995F3CF1C
:10228000642F822F0E94D210C801DF91CF911F913D
:102290000F91FF90EF90DF90CF900895CF93DF9351
:1022A0001F92CDB7DEB76983209170032223D1F04E
:1022B00020917803203240F021E030E0FC013383AC
:1022C000228380E090E015C080917903E82FF0E050
:1022D000E05BFC4F998190838F5F809379038093BB
:1022E000780305C061E0CE0101960E94D21081E022
:1022F00090E00F90DF91CF9108950E942B2DCF9306
:10230000DF93282F30E0F901E355F84F8491F9016C
:10231000E55AF94FD491F901E95BF94FC491CC2307
:1023200091F081110E947110EC2FF0E0EE0FFF1F71
:10233000E35CF94FA591B491EC91ED2381E090E03D
:1023400021F480E002C080E090E0DF91CF91089519
:102350001F93CF93DF93282F30E0F901E355F84F17
:102360008491F901E55AF94FD491F901E95BF94FEC
:10237000C491CC23C9F0162F81110E947110EC2F4B
:10238000F0E0EE0FFF1FED5CF94FA591B4918FB710
:10239000F894111105C09C91ED2FE095E92302C03E
:1023A000EC91ED2BEC938FBFDF91CF911F910895AE
:1023B000CF93DF9390E0FC01E55AF94F2491FC01A3
:1023C000E95BF94F8491882361F190E0880F991FB0
:1023D000FC01E75DF94FC591D491FC01ED5CF94F2B
:1023E000A591B491611109C09FB7F8948881209597
:1023F00082238883EC912E230BC0623061F49FB757
:10240000F8943881822F809583238883EC912E2B3A
:102410002C939FBF06C08FB7F894E8812E2B28839A
:102420008FBFDF91CF9108958E3008F08E50877066
:10243000806480937C0080917A00806480937A002D
:1024400080917A0086FDFCCF809178002091790000
:1024500090E0922B08958F929F92AF92BF92CF926D
:10246000DF92EF92FF926B017C010E949A104B0168
:102470005C01C114D104E104F104F1F00E949A104E
:10248000DC01CB0188199909AA09BB09883E934050
:10249000A105B10570F321E0C21AD108E108F108E5
:1024A00088EE880E83E0981EA11CB11CC114D104D3
:1024B000E104F10419F7DDCFFF90EF90DF90CF90AA
:1024C000BF90AF909F908F9008952FB7F894609130
:1024D000EF027091F0028091F1029091F2022FBF11
:1024E00008951F920F920FB60F9211242F933F93CE
:1024F0008F939F93AF93BF938091EF029091F002DF
:10250000A091F102B091F2023091EE0223E0230F8C
:102510002D3720F40196A11DB11D05C026E8230F1B
:102520000296A11DB11D2093EE028093EF029093BD
:10253000F002A093F102B093F2028091F302909125
:10254000F402A091F502B091F6020196A11DB11D11
:102550008093F3029093F402A093F502B093F602F5
:10256000BF91AF919F918F913F912F910F900FBE8F
:102570000F901F9018951F920F920FB60F92112473
:102580002F933F934F935F936F937F938F939F937B
:10259000AF93BF93EF93FF93E0910201F09103019A
:1025A0000995FF91EF91BF91AF919F918F917F918D
:1025B0006F915F914F913F912F910F900FBE0F90B0
:1025C0001F9018951F920F920FB60F9211242F9300
:1025D0003F934F935F936F937F938F939F93AF93AB
:1025E000BF93EF93FF93E0910001F09101010995F2
:1025F000FF91EF91BF91AF919F918F917F916F91DB
:102600005F914F913F912F910F900FBE0F901F90B0
:10261000189560939A0170939B0180939C0190930D
:102620009D01DC01CB01845D9E4FAF4FBF4F809376
:10263000960190939701A0939801B093990182E03D
:1026400090E09093ED028093EC020E9465126093FB
:10265000E8027093E9028093EA029093EB020895F6
:10266000CF92DF92EF92FF920F931F930E94651219
:10267000C090E802D090E902E090EA02F090EB020C
:102680008B019C010C191D092E093F0980919A01AB
:1026900090919B01A0919C01B0919D01083E134037
:1026A00021053105D0F00196A11DB11D80939A013D
:1026B00090939B01A0939C01B0939D01B701A6014B
:1026C00048515C4F6F4F7F4F4093E8025093E902AF
:1026D0006093EA027093EB02C9CF4091960150914A
:1026E0009701609198017091990184179507A60749
:1026F000B70788F1E0919E01F0919F01309759F161
:102700000995611571058105910519F00E9409135C
:1027100022C080919A0190919B01A0919C01B0915F
:102720009D01845D9E4FAF4FBF4F80939601909364
:102730009701A0939801B093990181E090E02091D6
:10274000EC023091ED02232B11F480E090E09093A5
:10275000ED028093EC0260919A0170919B0180914F
:102760009C0190919D011F910F91FF90EF90DF9040
:10277000CF9008956F927F928F929F92AF92BF9267
:10278000CF92DF92EF92FF920F931F93CF93DF933D
:10279000EC01EE81AE2FB0E020E833E341EE51E0F2
:1027A0000E94182D4B015C0122EB37E0FD0104E68D
:1027B00010E080E9E82EFF24F394C901825B974082
:1027C0008E179F07DCF4C90183709927892B99F430
:1027D000C901B8010E94A72C892B31F4C901B701A6
:1027E0000E94A72C892B39F480E8880E81E5981E79
:1027F00081E0A81EB11C2F5F3F4FDFCF6D80712C91
:10280000EE54F84FCF0164E670E00E94A72C7C01E3
:10281000CF0160E971E00E94A72C6C0101E010E09B
:10282000E370FF27061517052CF50230110581F41A
:10283000309771F4E114F10419F4C114D10441F496
:1028400080E8880E8BE3981E86E2A81EB11C0FC09C
:10285000D801AB5FBE4FAC91B0E020E831E541E07C
:1028600050E00E94182D860E971EA81EB91E0F5FFD
:102870001F4FD8CF49812A8130E0A0E1BEE00E94FD
:10288000022D6B017C01242F30E0ACE3B0E00E940C
:10289000022DDC01CB018C0D9D1DAE1DBF1D2881BD
:1028A0006C017D01C20ED11CE11CF11CAC81B0E0B9
:1028B000119720E831E541E050E00E94232DDC0132
:1028C000CB018C0D9D1DAE1DBF1DBC01CD01680D42
:1028D000791D8A1D9B1DDF91CF911F910F91FF9054
:1028E000EF90DF90CF90BF90AF909F908F907F90B0
:1028F0006F9008951F93CF93DF93CDB7DEB72797DF
:102900000FB6F894DEBF0FBECDBF88E60E94B31E9F
:1029100060E08CE793E00E944E110E94BD1E882368
:1029200019F010929C0283C081E080939C0267E0C2
:1029300070E088E690E00E941A1F80917A0390E090
:1029400020917B03821B910907970CF470C08CE7E0
:1029500093E00E940A11182F8695869586958E70B1
:10296000982F990F990F890F912F9F70890F898345
:102970008CE793E00E940A11282F22952F70982F40
:102980009F708AE0289F900D11249A838CE793E032
:102990000E940A11982F282F269526952695267095
:1029A000822F880F880F280F9F70920F9B838CE7D0
:1029B00093E00E940A11282F22952F70982F9F7064
:1029C0008AE0289F900D11249C838CE793E00E945D
:1029D0000A11282F22952F70982F9F708AE0289F28
:1029E000900D11249D838CE793E00E940A11282FFB
:1029F00022952F70982F9F708AE0289F900D1124A8
:102A00009E838CE793E00E940A11982F9F70925E3C
:102A1000282F22952F708AE0289F900D11249F83E4
:102A200017FD05C0CE0101960E94BA1303C060E0F5
:102A300070E0CB0127960FB6F894DEBF0FBECDBF76
:102A4000DF91CF911F9108956F927F928F929F9205
:102A5000AF92BF92CF92DF92EF92FF920F931F93AC
:102A6000CF93DF93EA012CE3C22ED12CE12CF12C81
:102A7000A70196010E94BB2C6883CA01B901A70176
:102A800096010E94BB2C6983CA01B90128E130E09C
:102A900040E050E00E94BB2C69017A016A83CA01C0
:102AA000B9016C5F7F4F8F4F9F4F27E030E040E0D0
:102AB00050E00E94BB2C6F5F6B83812C912C5401E2
:102AC00040E034E6632E712C00E911E0242F30E061
:102AD0002E54384FF901E370FF27309789F4C9016C
:102AE000B3010E94A72C892B31F4C901B8010E94BF
:102AF000A72C892B29F48EE691E0A0E0B0E004C079
:102B00008DE691E0A0E0B0E0880E991EAA1EBB1EE3
:102B1000D501C401AA27BB27C816D906EA06FB06B9
:102B200010F04F5FD3CF4E83309799F4C90164E61C
:102B300070E00E94A72C892B39F4C90160E971E08B
:102B40000E94A72C892B29F48EE691E0A0E0B0E04A
:102B500004C08DE691E0A0E0B0E0881A990AAA0AC4
:102B6000BB0AC818D908EA08FB08C90164E670E086
:102B70000E94A72C8C01C90160E971E00E94A72C7A
:102B8000A6E0B1E020E0213041F4309751F4011586
:102B9000110529F4009729F402C04C9103C04DE1BE
:102BA00001C04CE150E060E070E0C416D506E606D6
:102BB000F70640F0C41AD50AE60AF70A2F5F119605
:102BC0002C3009F72F5F2D83C394CC82DF91CF91F6
:102BD0001F910F91FF90EF90DF90CF90BF90AF903B
:102BE0009F908F907F906F900895CF92DF92EF9299
:102BF000FF92C090E402D090E502E090E602F090EF
:102C0000E7026C157D058E059F0571F06B017C0157
:102C100041E753E00E942415C092E402D092E502FD
:102C2000E092E602F092E702FF90EF90DF90CF9003
:102C300008950E94F5158091770390E08E54984F87
:102C40000895CF92DF92EF92FF92CF936B017C01B8
:102C50009B01AC016EEF7FEF81E090E00E94772C4A
:102C60009B01AC0160E074E284EF90E00E94BB2C19
:102C7000C0E0EC2FF0E0EE0FFF1FEB59FE4F80811C
:102C80009181CF5F82179307A0F3A7019601220FCE
:102C9000331F441F551FEC2FF0E0EE0FFF1FEB59C1
:102CA000FE4FA081B1810E94182D9B01AC0160E014
:102CB00074E284EF90E00E94BB2C30938700209355
:102CC000860080918100C770887FC82BC0938100E7
:102CD00081E0CF91FF90EF90DF90CF900895682F23
:102CE0008CE793E00C944E11CF93DF931F92CDB7F6
:102CF000DEB7FC018185806269830E94B31E89E092
:102D00000E946F166981862F0E946F160E94BD1E59
:102D10008111FCCF0F90DF91CF910895CF93DF9376
:102D20001F92CDB7DEB7FC018185806269830E9466
:102D3000B31E83E10E946F166981862F0E946F1671
:102D40000E94BD1E8111FCCF0F90DF91CF9108959D
:102D5000FF920F931F93CF93DF938C01C62FF42E16
:102D6000FC0186858130B1F56585C4FD6061C5FDD6
:102D70006860C6FD6460C7FD6260D62FFF2011F059
:102D8000D06A01C0D0626D2FC8010E948E166D2FCF
:102D90006F7DC8010E948E16F8016585C0FD6061D7
:102DA000C1FD6860C2FD6460C3FD6260C62FFF2084
:102DB00011F0C06A01C0C0626C2FC8010E948E165B
:102DC0006C2F6F7DC801DF91CF911F910F91FF9004
:102DD0000C948E16607F70E075956795442311F012
:102DE000666001C06460F801858183FD02C0D0E0A7
:102DF00001C0D0E8D62B6D2FC8010E9474166D2F2C
:102E00006B7FC8010E947416CF70CC0FCC0FCC0F13
:102E1000FF2011F0C66001C0C460F801858183FD08
:102E200002C060E001C060E8C62B6C2FC8010E94A0
:102E300074166C2F6B7FC801DF91CF911F910F919A
:102E4000FF900C947416FC012385222319F041E0B5
:102E50000E94A81681E090E008951F920F920FB68D
:102E60000F9211242F933F934F935F936F937F9310
:102E70008F939F93AF93BF93EF93FF938091B9008C
:102E8000887F803609F49CC068F5883209F45BC0FD
:102E900090F4803109F454C038F4882309F4F6C062
:102EA000883009F44DC0F6C0883109F44CC0803236
:102EB00009F45DC0EFC0803409F468C048F4803381
:102EC00009F455C0883309F0E5C080934D03D8C09C
:102ED000803509F44FC0883509F45DC0883409F0A5
:102EE000D9C0D6C0883909F4C7C0A8F4883709F416
:102EF00067C038F4883609F463C0803709F460C0CD
:102F0000C9C0883809F4B8C0803909F45FC0803876
:102F100009F0C0C05BC0803B09F486C038F4803A39
:102F200009F466C0883A09F47FC0B4C0803C09F453
:102F3000A7C0883C09F4A4C0883B09F48AC0AAC091
:102F400080912A0310C090914C0380914B039817F5
:102F500070F5E0914C0381E08E0F80934C03F0E01C
:102F6000E55DFC4F80818093BB0085EC86C080933B
:102F70004D038EC0E0914C0381E08E0F80934C0393
:102F80008091BB00F0E0E55DFC4F808390914C03A5
:102F900080914B036EC0E0914C0381E08E0F8093D3
:102FA0004C038091BB00F0E0E55DFC4F8083809195
:102FB0004E0381116DC081E08093290384EA61C0D2
:102FC00083E080934F031092E302CFCF8091E3021E
:102FD000803208F051C0E091E30281E08E0F8093CF
:102FE000E3028091BB00F0E0ED53FD4F8083BDCF45
:102FF00085EC8093BC0010924F038091E3028032F5
:1030000030F4E091E302F0E0ED53FD4F1082609167
:10301000E30270E0E091C102F091C20283EC92E021
:1030200009951092E30236C084E080934F0310921A
:10303000C0021092BF02E091BD02F091BE0209955C
:103040008091BF02811105C081E08093BF02109280
:103050009D02E091C00281E08E0F8093C002F0E0FB
:10306000E356FD4F80818093BB009091C002809118
:10307000BF02981708F479CF85E88093BC000AC096
:1030800085EC8093BC0010924F0304C010924D0356
:103090000E94C810FF91EF91BF91AF919F918F91C6
:1030A0007F916F915F914F913F912F910F900FBE44
:1030B0000F901F90189510924F0381E080934E035C
:1030C0001092290361E082E10E94A81161E083E18E
:1030D0000E94A811E9EBF0E080818E7F80838081DF
:1030E0008D7F808388E48093B80085E48093BC0062
:1030F0000895FF920F931F93CF93DF9300D000D0DA
:10310000CDB7DEB7F82E0E94D0048C01FF2039F035
:103110000E9450201092FB021092FF0204C08130E6
:10312000910509F075C09091FB02492F50E04C3099
:10313000510508F0B5C0FA01EC5CFF4F0C94FC2C73
:10314000F11005C08091FF028F5F8093FF02809194
:10315000FF02853010F01092FF02E091FF02E43090
:1031600008F09EC034E0E39FF0011124E954FC4FC5
:1031700080818093FA0291819093F90292819093D9
:10318000FE0293819093FD0291E08C3008F490E070
:103190009093F802811102C08CE00BC08D3008F4CE
:1031A0007FC08C5006C08091FA028F5F8D3008F08E
:1031B00081E08093FA0274C08091F9028F5F8C33B2
:1031C00018F48093F9026CC01092F90269C081E092
:1031D0009091F802911180E08093F80261C02CEF89
:1031E000290F81E090E001C0880F2A95EAF79091BD
:1031F000FE0289278093FE0253C08091FD028F5FFB
:10320000833018F48093FD024BC01092FD0248C039
:10321000029709F047C09091FB0291110FC0809175
:10322000FF02843059F485E89BE190930501809377
:103230000401109234020E94502062C19F5F90935B
:10324000FB029C3078F11091FA028091F802811112
:1032500003C01C3031F452C1813019F41C3009F024
:10326000145F65EB76E083ED91E00E940130E09120
:10327000FF0284E0E89FF0011124E954FC4F108321
:103280008091F90281838091FE0282838091FD0208
:10329000838380EB93E00E94651F1092FB0230C194
:1032A00001E010E00E94651228EE33E040E050E0BB
:1032B0000E94BB2C21E0643F71408105910508F418
:1032C00020E0012B29F49091F702921709F418C11C
:1032D0002093F70260E080E00E949E1F69EA76E09A
:1032E00083ED91E00E94013083ED91E00E94ED1F9B
:1032F0008091F702882339F08091FB02811103C08D
:1033000064EA76E006C06091FF02643059F46FE928
:1033100076E083ED91E00E94013083ED91E00E9420
:10332000ED1F0AC070E06F5F7F4F072E000C880B07
:10333000990B4AE00E945F2061E080E00E949E1F9E
:103340008091FF02843059F46EE876E083ED91E0DD
:103350000E94013083ED91E00E94ED1FD1C01091D9
:10336000FA026AE876E083ED91E00E9401301F9254
:103370001F9383ED91E09F938F938E010F5F1F4FFB
:103380001F930F930E94602D0F900F900F900F903E
:103390000F900F908091F702882369F08091FB02D3
:1033A000813049F467E876E083ED91E00E940130D6
:1033B00083ED91E001C0C8010E94ED1F8AE30E94E5
:1033C000931FF090F90262E876E083ED91E00E94AD
:1033D00001301F92FF9283ED91E09F938F931F9393
:1033E0000F930E94602D0F900F900F900F900F90F1
:1033F0000F908091F702882369F08091FB02823060
:1034000049F46FE776E083ED91E00E94013083EDAF
:1034100091E001C0C8010E94ED1F8091F70288234E
:1034200031F08091FB02833011F480E207C080917B
:10343000F802813011F081E401C080E50E94931F01
:1034400080E20E94931F00E010E06FE676E083EDDB
:1034500091E00E940130E3EDF1E001900020E9F7F6
:103460003197E35DF1400E171F0758F58091FB027D
:1034700090E098012C5F3F4F2817390731F4809175
:10348000F702882311F080E217C08091FE0290E0DD
:10349000002E02C0959587950A94E2F780FF0BC035
:1034A00067E776E083ED91E00E940130F801ED528C
:1034B000FE4F808101C08DE20E94931F0F5F1F4F5E
:1034C000C4CF80E20E94931F8091FB028B3031F4C5
:1034D0008091F702882311F080E20DC08091FD02F7
:1034E000811102C08EE407C0813011F483E503C06E
:1034F000823031F487E40E94931F02C010E0B1CE05
:103500000F900F900F900F90DF91CF911F910F911F
:10351000FF900895CF92DF92EF92FF920F931F9347
:10352000CF93DF93CDB7DEB761970FB6F894DEBFC8
:103530000FBECDBF182F0E94D0049C01112329F08B
:103540000E945020109200033AC09091000390FF17
:1035500005C0A8ECB3E0EAECF3E004C0A7ECB3E0EC
:10356000E9ECF3E02130310521F022303105A9F0FA
:10357000BDC0923018F0943010F507C08C918F5F69
:1035800086300CF08BEF8C931AC080818150863F7F
:1035900014F0808314C0108212C09F5F90930003C8
:1035A000943068F080EB93E00E94651F85E89BE112
:1035B00090930501809304011092340297C080918A
:1035C000000380FF0BC00BE711E048ECC42E43E082
:1035D000D42E5AECE52E53E0F52E0AC009E711E08F
:1035E00027ECC22E23E0D22E39ECE32E33E0F32E6B
:1035F000823090F1843008F079C00E94502060EF52
:1036000076E083ED91E00E94013083ED91E00E942D
:10361000ED1F61E080E00E949E1FF701F080CF2C3B
:103620000F2C000CDD0862EE76E083ED91E00E9445
:103630000130DF92FF921F930F9383ED91E09F93F0
:103640008F931F9281E18F938E010F5F1F4F1F9306
:103650000F930E94302D42C00E9450206DE077E011
:1036600083ED91E00E94013083ED91E00E94ED1F17
:1036700061E080E00E949E1FF6012081822F022ED1
:10368000000C990B97FF03C0919581959109D82E55
:10369000C92E27FD05C09FE7E92E91E0F92E04C051
:1036A0008DE7E82E81E0F82E6DEF76E083ED91E076
:1036B0000E940130CF92DF92FF92EF921F930F93FF
:1036C00083ED91E09F938F931F9281E18F938E0101
:1036D0000F5F1F4F1F930F930E94302DC8010E9450
:1036E000ED1F0FB6F894DEBF0FBECDBF61960FB6CB
:1036F000F894DEBF0FBECDBFDF91CF911F910F9128
:10370000FF90EF90DF90CF900895CF93C82F0E9445
:10371000D004CC2361F083E00E94EF1F0E94502070
:1037200087EE93E090930803809307031FC00097F0
:1037300009F430C281309105B1F480910503909174
:1037400006030196909306038093050320910303DB
:10375000309104032817390708F0CCC010920603F3
:1037600010920503C7C0029709F0C4C0E091070397
:10377000F0910803E730F10508F052C0E05CFF4F1C
:1037800080910503909106030C94FC2C9093C50145
:103790008093C40109C0FC01E65DFE4F808190E08A
:1037A0009093B4038093B30380EB93E00E94651F72
:1037B00037C0892BA9F58AE995E09093050180939C
:1037C000040181E0CF910C949A0521E0892B09F046
:1037D00020E02093FC02E8CF892B11F589E798E1DE
:1037E000909305018093040181E0CF910C947918A6
:1037F000892BB1F48AE89AE1909305018093040142
:1038000081E0CF910C948A1A892B19F4109234021A
:10381000C1C187EE93E09093080380930703BAC178
:10382000809107039091080301968730910528F451
:10383000909308038093070304C01092080310922A
:103840000703E0910703F0910803E730F10508F062
:1038500049C0E95BFF4F0C94FC2C8091C40190910E
:10386000C501909306038093050336C06091B303AE
:103870007091B403EAE2F1E050E040E080E090E0D3
:10388000219130E06217730711F4582F492F0196E8
:103890008B309105A9F750930503409306038AE006
:1038A00090E01CC081E090E09093040380930303B8
:1038B0009091FC02892790E0909306038093050382
:1038C00011C081E090E0909306038093050306C049
:1038D000109206031092050381E090E09093040398
:1038E0008093030380910503909106039093020354
:1038F000809301030E945020E0910703F091080398
:10390000E730F10508F046C1E25BFF4F0C94FC2C58
:103910006EE977E083ED91E00E94013083ED91E064
:103920000E94ED1F61E080E00E949E1F2091050330
:103930003091060380910103909102032817390703
:1039400011F080E201C08BE20E94931F8091050379
:1039500090910603009731F0019709F01BC16CE8C4
:1039600077E00FC167E977E00CC16DE777E083EDA1
:1039700091E00E94013083ED91E00E94ED1F61E033
:1039800080E00E949E1F20910503309106038091E4
:103990000103909102032817390711F080E201C05A
:1039A0008BE20E94931FE0910503F0910603E65D10
:1039B000FE4F608170E080E090E04AE00E945F206E
:1039C00067E777E0DEC06CE677E083ED91E00E9488
:1039D000013083ED91E00E94ED1F61E080E00E94E4
:1039E0009E1F209105033091060380910103909161
:1039F00002032817390711F080E201C08BE20E9410
:103A0000931F8091050390910603009731F0019771
:103A100009F0C0C065E677E0B4C068E677E0B1C001
:103A200069E577E083ED91E00E94013083ED91E05C
:103A30000E94ED1F61E080E00E949E1F209105031F
:103A400030910603809101039091020328173907F2
:103A500011F080E201C08BE20E94931F8091050368
:103A600090910603009731F0019709F093C062E549
:103A700077E087C065E577E084C063E477E083EDB5
:103A800091E00E94013083ED91E00E94ED1F61E022
:103A900080E00E949E1F20910503309106038091D3
:103AA0000103909102032817390711F080E201C049
:103AB0008BE20E94931F809105039091060300976B
:103AC00031F0019709F066C06CE377E05AC06FE30C
:103AD00077E057C06FE277E083ED91E00E9401301C
:103AE00083ED91E00E94ED1F61E080E00E949E1F47
:103AF0002091050330910603809101039091020308
:103B00002817390711F080E201C08BE20E94931F51
:103B10008091050390910603009729F00197D1F554
:103B200068E277E02EC06BE277E02BC06CE177E0D3
:103B300083ED91E00E94013083ED91E00E94ED1F42
:103B400061E080E00E949E1F2091050330910603F2
:103B500080910103909102032817390711F080E248
:103B600001C08BE20E94931F809105039091060390
:103B7000009729F0019771F465E177E002C068E1F0
:103B800077E083ED91E00E94013083ED91E0CF91E9
:103B90000C94ED1FCF9108958F929F92AF92BF9298
:103BA000CF92DF92EF92FF920F931F93CF93DF9309
:103BB000CDB7DEB764970FB6F894DEBF0FBECDBFAA
:103BC0005F87798BF42E411109C06F5F6D3040F033
:103BD0002FEFC21AD20A21E061E003C0242F01C0F6
:103BE00021E089898B831A82198281E08D836E831B
:103BF0008EE48C0D8F83CE0101962C8B0E94BA131C
:103C00004B015C010F8510E00E94F5152C8930E016
:103C10002150310987E0829FF001839FF00D11242C
:103C2000809174039801281B3109C901079667E048
:103C300070E00E94A72CDF01A80FB91F20E831E532
:103C400041E050E00E94232D680D791D8A1D9B1DC7
:103C5000F11004C060587A438940910964960FB608
:103C6000F894DEBF0FBECDBFDF91CF911F910F91B2
:103C7000FF90EF90DF90CF90BF90AF909F908F908C
:103C800008958F929F92AF92BF92CF92DF92EF9260
:103C9000FF920F931F93CF93DF936C01E090880303
:103CA000F090890300918A0310918B0320918C037B
:103CB00030918D0340918E0350918F03609190035A
:103CC0007091910380919203909193030E94CC1D77
:103CD000C8E8D3E068A379A38AA39BA3E4E9F3E04F
:103CE000E080F180028113812481358146815781F2
:103CF00060857185828593850E94CC1D6B017C0156
:103D00006CA37DA38EA39FA3AE89BF892CE330E073
:103D10000E94112D08A119A12AA13BA14801590116
:103D2000861A970AA80AB90A888E998EAA8EBB8E1F
:103D3000AA85BB852CE330E00E94112DC61AD70A54
:103D4000E80AF90ACC8EDD8EEE8EFF8EDF91CF91E0
:103D50001F910F91FF90EF90DF90CF90BF90AF90A9
:103D60009F908F90089591E0909370038093DA0371
:103D7000109279031092780308952091780390911E
:103D8000DA03213208F04AC080914F038111FCCF41
:103D900032E030934F0331E030934E033FEF3093E6
:103DA0004D0310924C0320934B03A0E5B3E04BE28C
:103DB00053E0FA013E2F341B321718F43D91319332
:103DC000F9CF10922A0320912A03990F922B9093F6
:103DD0002A0390912903913061F410922903909164
:103DE0002A039093BB009091BC0093FDF8CF95EC13
:103DF00001C095EE9093BC0090914F039230E1F397
:103E000090914D039F3F79F080914D03803241F0B6
:103E100080914D03803331F084E005C081E003C020
:103E200082E001C083E0109279031092780310922F
:103E30007003089590914F039111FCCF613208F007
:103E400060E291E090934F0390934E032FEF209305
:103E50004D0310924C03260F20934B0390932A039B
:103E600090912A03880F892B80932A03809129033C
:103E7000813061F41092290380912A038093BB0062
:103E80008091BC0083FDF8CF85EC01C085EE809366
:103E9000BC0080914F038130E1F380914C03861781
:103EA00010F460914C03ABE2B3E029E033E0F90198
:103EB0008E2F821B861718F48D918193F9CF109263
:103EC0007B0360937A03862F0895CF92DF92EF925F
:103ED000FF920F931F93CF93DF931F92CDB7DEB75F
:103EE0007C018C01C12CD12CF80161918F01C6019C
:103EF00069830E9408306981681719F0C6010E9421
:103F00001030FFEFCF1ADF0A8BE1C816D10461F73A
:103F1000C7010F90DF91CF911F910F91FF90EF900C
:103F2000DF90CF900895E091CB03F091CC03019006
:103F3000F081E02D682F8BEC93E00994CF93DF9311
:103F4000CDB7DEB728970FB6F894DEBF0FBECDBF52
:103F50002091D603222331F128E0E2E1F1E0DE01F5
:103F6000119601900D922A95E1F72091D203261720
:103F700010F46FEF620FFE013196E60FF11DE60FB0
:103F8000F11D9081682F690F606840E08BEC93E031
:103F900028960FB6F894DEBF0FBECDBFDF91CF914C
:103FA0000C94A81628960FB6F894DEBF0FBECDBFAE
:103FB000DF91CF910895009769F0FC0101900020F6
:103FC000E9F73197AF01481B590BBC018BEC93E02B
:103FD0000C94461080E090E008950C94DB1FCF9382
:103FE000DF939091D603992309F457C09091D5039C
:103FF000992311F097E089279091D9039130C1F569
:1040000080FD03C020EC31E002C020E831E03093B5
:10401000D8032093D70381FF09C02091D7033091A3
:10402000D8032F773093D8032093D70382FF09C09A
:104030008091D7039091D8039E7F9093D80380936B
:10404000D703D091D703C091D8038091D403806265
:104050000E94B31E82E10E946F168D2F0E946F1680
:104060008C2F0E946F160E94BD1E8111FCCF15C0BF
:104070009091D003882311F0986001C0977F9093AE
:10408000D0038091D003682F687083FD60E88BECCB
:1040900093E0DF91CF910C947416DF91CF91089546
:1040A0008091D603882351F040E061E08BEC93E0EF
:1040B0000E94A8168BE39FE10197F1F708958F9274
:1040C0009F92AF92BF920F931F93CF93DF93CDB781
:1040D000DEB7A1970FB6F894DEBF0FBECDBF19A211
:1040E000423008F44AE08E010F5D1F4F842E912C60
:1040F000A12CB12CA50194010E94BB2CE62FB90183
:10410000CA0101501109EA3014F4E05D01C0E95C14
:10411000D801EC93232B242B252B61F7C8010E9497
:10412000DB1FA1960FB6F894DEBF0FBECDBFDF91A7
:10413000CF911F910F91BF90AF909F908F90089556
:10414000CF92DF92EF92FF920F931F93CF93E82FBE
:10415000880FFF0BE355F84FE4918DEF8E0F8230FF
:1041600068F468EE73E080E090E0CF911F910F91CA
:10417000FF90EF90DF90CF900C942116E83091F5EE
:10418000C0E00FE110E0C12C94E2D92E94EFE92EAB
:10419000F12CCF5FEC2FF0E0EE0FFF1FEB5AFE4F3C
:1041A0008081918180179107A0F38C019C01A0ED83
:1041B000B7E00E94022D9B01AC01C701B6010E942D
:1041C000BB2C2F3F31054105510509F010F7209315
:1041D000B3008091B100C770887FC82BC093B10035
:1041E00081E001C080E0CF911F910F91FF90EF908F
:1041F000DF90CF900895CF93DF93CDB7DEB76B9765
:104200000FB6F894DEBF0FBECDBF789484B5826040
:1042100084BD84B5816084BD85B5826085BD85B56A
:10422000816085BD80916E00816080936E001092E8
:104230008100809181008260809381008091810063
:1042400081608093810080918000816080938000F4
:104250008091B10084608093B1008091B000816052
:104260008093B00080917A00846080937A0080917E
:104270007A00826080937A0080917A0081608093D6
:104280007A0080917A00806880937A001092C10051
:1042900014BE9EE088E10FB6F894A8958093600064
:1042A0000FBE909360006CEF72E083ED91E00E948E
:1042B0000130809180008C7F80938000809181000C
:1042C000877E80618093810064EF71E080E090E000
:1042D0000E9421168091B0008C7F81608093B00095
:1042E0008091B10088608093B10010E03EE3E32E3E
:1042F000F12C812C44E2942E44EFA42EB12C1F5FAC
:10430000E12FF0E0EE0FFF1FEB5AFE4F808191810D
:104310008E159F05A0F37C019C01A8EEB3E00E94DE
:10432000022D9B01AC01C501B4010E94BB2C2F3FA3
:1043300031054105510509F010F72093B300809134
:10434000B1001770887F182B1093B10081E0809323
:10435000D90362E370E080E090E00E942B1210929B
:104360007B0310927A0310927903109278030E94D3
:104370005B189091D9038091D4038062913069F5E4
:104380000E94B31E80E00E946F168FE10E946F169C
:104390000E94BD1E882339F08091D603823019F423
:1043A0001092D603EDC08091D40380620E94B31EA8
:1043B0008CE00E946F168FE10E946F160E94BD1E56
:1043C000882321F08091D603823051F38091D40369
:1043D00080620E94B31E81E032C00E94B31E80E062
:1043E0000E946F168FEF0E946F1680E00E946F167A
:1043F00080E00E946F1680E00E946F1680E00E94AD
:104400006F1680E00E946F1680E00E946F1680E0B9
:104410000E946F1680E00E946F1680E00E946F1667
:104420000E94BD1E882329F08091D603823009F4B2
:10443000B7CF8091D40380620E94B31E80E00E94B7
:104440006F1680E00E946F160E94BD1E882329F01F
:104450008091D603823009F4A3CF8091D6038230B5
:1044600019F481E08093D6038091CF038860809314
:10447000CF0382E08093D2031092D3038091D903BB
:104480008130E1F41092D8031092D70313E068E36F
:104490008BEC93E00E948E1668E18BEC93E00E9417
:1044A0008E161150A1F768E28BEC93E00E948E16F5
:1044B00068E08BEC93E00E948E1628C06CE98BECD0
:1044C00093E00E94741668E98BEC93E00E947416E6
:1044D0006CE98BEC93E00E94741668E98BEC93E036
:1044E0000E9474166CE98BEC93E00E94741668E9E4
:1044F0008BEC93E00E94741664E98BEC93E00E94CD
:10450000741660E98BEC93E00E94741665E070E02D
:1045100080E090E00E942B126091CF03606240E047
:104520008BEC93E00E94A81665E070E080E090E0DC
:104530000E942B126091CF03606240E08BEC93E00D
:104540000E94A81665E070E080E090E00E942B12C7
:104550008CE08093D0038091D603882331F040E033
:104560006CE08BEC93E00E94A8160E94502082E041
:104570008093D10340E066E08BEC93E00E94A816A4
:1045800087E00E94EF1F0E94502060E080E00E94C0
:104590009E1F6FEE72E083ED91E00E94013083ED8B
:1045A00091E00E94ED1F61E080E00E949E1F6BEE93
:1045B00072E083ED91E00E94013083ED91E00E9472
:1045C000ED1F66EE72E083ED91E00E94013083ED15
:1045D00091E00E94ED1F61E088E00E949E1F62EE64
:1045E00072E083ED91E00E94013083ED91E00E9442
:1045F000ED1F6CED72E083ED91E00E94013083EDE0
:1046000091E00E94ED1F61E083E00E94D81160E01C
:1046100083E00E94A81160E082E00E94D8118CE043
:1046200094E0909301018093000180916900836080
:1046300080936900E89A61E08AE00E94D81161E005
:1046400089E00E94D81161E088E00E94D81161E001
:1046500087E00E94D81160E081E10E94D81160E0FB
:1046600080E10E94D81161E070E081E090E00E945A
:104670004D0A61E070E082E090E00E944D0A60E047
:1046800070E081E090E00E948C0B60E070E082E0DE
:1046900090E00E948C0B88E2E5E3F2E0DF01C82E97
:1046A0001D92CA94E9F7E7E6F2E0DF011D928A95D0
:1046B000E9F71092CA011092C9011092C801109234
:1046C000C7011092B2011092B3011092B40110927E
:1046D000B5011092AE011092AF011092B00110928C
:1046E000B10110928F0210929002109291021092DA
:1046F000920210925F021092600210926102109278
:1047000062021092930210929402109295021092FB
:104710009602109263021092640210926502109247
:1047200066021092A4011092A5011092A6011092A7
:10473000A7011092A0011092A1011092A201109263
:10474000A3011092A8011092A9011092AA0110923F
:10475000AB0183E690E090935E0280935D0210923D
:10476000CF011092D0011092D1011092D20181E0BC
:1047700090E09093C1018093C0018AE794E1909307
:104780009F0180939E0180919A0190919B01A0913D
:104790009C01B0919D018093960190939701A09305
:1047A0009801B09399010E9430138091B603682F4D
:1047B000082E000C770B77FF03C071956195710986
:1047C000162F1F7187FF106288E60E94B31E67E0F4
:1047D0008CE793E00E944E11612F8CE793E00E94DA
:1047E0004E110E94BD1E8AE00E94A020811109C0C6
:1047F0006AEB72E083ED91E00E94013083E00E9459
:10480000EF1F89E00E94A020811109C068E972E0D1
:1048100083ED91E00E94013084E00E94EF1F80ED63
:1048200097E00E94B7040E9450200E942F0C81E163
:104830000E947F1101E0019709F000E080E10E94F1
:104840007F1111E0019709F010E0011102C011235E
:10485000F9F081E00E94EF1F0E94502068E872E0AA
:1048600083ED91E00E94013083ED91E00E94ED1F05
:1048700061E080E00E949E1F002319F081E40E9405
:10488000931F112319F082E40E94931F0E94E00BF2
:1048900097E6292E92E0392EA8958091340288233C
:1048A00039F0E0910401F091050180E0099537C3EA
:1048B00080913302882361F066E176E083ED91E038
:1048C0000E94013088EA90E00E941D0D1092330290
:1048D0008091CF019091D001A091D101B091D201EE
:1048E000892B8A2B8B2B81F581E10E947F11019707
:1048F00039F48091CD019091CE01892B09F417C331
:1049000080E10E947F11019739F48091CB01909151
:10491000CC01892B09F416C381E10E947F11892BF8
:1049200039F48091CD019091CE01019709F415C31E
:1049300080E10E947F11892B39F48091CB01909105
:10494000CC01019709F414C32091B3033091B4034F
:10495000A8EEB3E00E94022D2B013C018091CF0113
:104960009091D001A091D101B091D201892B8A2BD5
:104970008B2BA1F00E9465120091CF011091D00104
:104980002091D1013091D2010C501E4F2F4F3F4F3B
:10499000061717072807390708F4F5C28091C901DF
:1049A0009091CA01059731F08091C7019091C8019B
:1049B000059711F481E01AC081E090E00E944A0B53
:1049C000182F82E090E00E944A0B11110AC0811159
:1049D0000CC08091C601811102C082E007C083E053
:1049E00005C0882311F085E001C086E00E94EF1F1A
:1049F00090919B028091C601992309F461C08111B5
:104A00005BC08091C4019091C5010197A9F4809188
:104A1000C2019091C301049719F481E090E008C0AD
:104A20008091BE019091BF010497B9F782E090E0B8
:104A30009093C1018093C00161E070E081E090E05B
:104A40000E944D0A61E070E082E090E00E944D0A11
:104A50000E9465126093BA017093BB018093BC0100
:104A60009093BD016093B6017093B7018093B80134
:104A70009093B9011092CA011092C9011092C80115
:104A80001092C7011092B2011092B3011092B401BA
:104A90001092B5011092AE011092AF011092B001C8
:104AA0001092B1011092AD011092AC016FE875E067
:104AB00083ED91E00E94013081E08093C6010CC03B
:104AC000882341F01092CA011092C9011092C801C6
:104AD0001092C7011092C60160E080E00E949E1F04
:104AE00088E60E94B31E60E08CE793E00E944E11BE
:104AF0000E94BD1E61E070E088E690E00E941A1FEF
:104B00008CE793E00E940A1187FD46C00E942A04A8
:104B10000E94F5158091730390E00C9714F411E452
:104B200001C010E50E942A040E94F515009172034D
:104B30000E942A040E94F51580917303882341F096
:104B4000E82EF12C8D3038F0BCE0EB1AF10803C0F0
:104B50008CE0E82EF12C62E875E083ED91E00E9494
:104B600001301F921F931F920F93FF92EF9283EDDC
:104B700091E09F938F931F9281E18F93E1E0F0E0AA
:104B8000EC0FFD1FFF93EF930E94302D0FB6F894AA
:104B9000DEBF0FBECDBF1BC069E775E083ED91E0BE
:104BA0000E94013083ED91E09F938F931F9281E1EA
:104BB0008F9341E050E04C0F5D1F5F934F930E9435
:104BC000302D0F900F900F900F900F900F90CE01FF
:104BD00001960E94ED1F8091C601882319F060E7BD
:104BE00075E01AC06DE675E083ED91E00E9401303A
:104BF00083ED91E00E94ED1F8091C4019091C50169
:104C0000009729F0019731F46FE575E005C066E67D
:104C100075E002C06BE575E083ED91E00E94013024
:104C200083ED91E00E94ED1F81E090E00E94E70992
:104C30009B8F8A8F8091C6018111C4C48091C90164
:104C40009091CA018530910521F1CA8CDB8CC81680
:104C5000D90609F43FC0892B31F068E175E083ED96
:104C600091E00E9401308091C4019091C5010097AC
:104C700049F0019779F56A8D7B8D81E090E00E9483
:104C8000730E28C06A8D7B8D81E090E00E94930DA9
:104C900021C02A8D3B8D2130310509F08EC4109240
:104CA000CA011092C90168E375E083ED91E00E94AA
:104CB00001308091BA019091BB01A091BC01B091EB
:104CC000BD01892B8A2B8B2B09F02BC48091C60147
:104CD000811143C482E090E00E94E7098C01809139
:104CE000C6018111CDC48091C7019091C801853062
:104CF0009105F9F008171907D9F1892B31F065ED05
:104D000074E083ED91E00E9401308091C4019091A4
:104D1000C501009741F0019759F5B80182E090E094
:104D20000E94730E25C0B80182E090E00E94930DAE
:104D30001FC00130110509F0AFC41092C8011092D4
:104D4000C70165EF74E083ED91E00E94013080912E
:104D5000B6019091B701A091B801B091B901892B2A
:104D60008A2B8B2B09F043C48091C60181115BC44F
:104D70002091A8013091A9014091AA015091AB0165
:104D8000211531054105510509F475C02A8B3B8B6E
:104D90004C8B5D8B0E9465124B015C012A893B891B
:104DA0004C895D89DC01CB01821B930BA40BB50BF5
:104DB000813E9349A440B10508F45DC08091C201D1
:104DC0009091C301049741F563EA74E083ED91E0AB
:104DD0000E94013061E070E081E090E00E944D0AA5
:104DE00064E070E082E090E00E944D0A8092A801A9
:104DF0009092A901A092AA01B092AB018091AD015D
:104E0000811103C089E190E002C081E290E00E943C
:104E10007E0C8AE090E02DC08091BE019091BF0190
:104E2000049749F561E774E083ED91E00E94013059
:104E300061E070E082E090E00E944D0A64E070E082
:104E400081E090E00E944D0A8092A8019092A90111
:104E5000A092AA01B092AB018091AC01811103C074
:104E60008AE190E002C082E290E00E947E0C89E03C
:104E700090E00E947E0C0E946512809097029090B4
:104E80009802A0909902B0909A026B017C01C81818
:104E9000D908EA08FB0821E6C2162AEED206E10488
:104EA000F104A0F0609397027093980280939902A6
:104EB00090939A0264E574E083ED91E00E940130E2
:104EC0006DE374E083ED91E00E9401308091CD01AB
:104ED0009091CE01019709F05FC08091C901909136
:104EE000CA01059709F074C057C02A8B3B8B4C8BC5
:104EF0005D8B0E9465122A893B894C895D89DC01A2
:104F0000CB01821B930BA40BB50B813A9F40A105EB
:104F1000B10508F4C5C089E690E00E941D0D80E04F
:104F200090E0892B09F4B8CC0E940000B5CC68EF62
:104F300075E083ED91E00E94013089E291E00E94EA
:104F40001D0DDECC6AED75E083ED91E00E9401302D
:104F50008AE291E00E941D0DDFCC69EB75E083EDE4
:104F600091E00E9401308AE290E00E941D0DE0CCA9
:104F700068E975E083ED91E00E9401308AE290E0FB
:104F80000E941D0DE1CC1092CF011092D001109221
:104F9000D1011092D20102CD10928F021092900294
:104FA000109291021092920288E2D1011D928A958C
:104FB000E9F78091CB019091CC01019709F05DC296
:104FC0008091C7019091C801059709F078C055C23A
:104FD00081E090E00E94E4084B015C010E946512B0
:104FE000C0909302D0909402E0909502F0909602C7
:104FF0009B01AC012C193D094E095F09293E334044
:105000004105510570F06093930270939402809370
:1050100095029093960263E274E083ED91E00E9422
:1050200001308091C2019091C301039729F021E0E2
:1050300030E040E050E004C022E030E040E050E0EA
:10504000C301B2010E94BB2CDA01C90188519C4FF7
:10505000AF4FBF4F88159905AA05BB05C8F420912D
:105060008F0230919002409191025091920221154D
:1050700031054105510509F038CF0E946512609352
:105080008F0270939002809391029093920208C0D5
:1050900010928F021092900210929102109292023E
:1050A00061E080E00E949E1F83E791E00E94ED1F77
:1050B000C501B4010E94C50F0E94ED1F7ACF82E0A6
:1050C00090E00E94E4084B015C010E946512C090D0
:1050D0006302D0906402E0906502F09066029B014A
:1050E000AC012C193D094E095F09293E33404105A9
:1050F000510570F0609363027093640280936502BF
:105100009093660269E074E083ED91E00E940130C3
:105110008091BE019091BF01039729F021E030E01A
:1051200040E050E004C022E030E040E050E0C30145
:10513000B2010E94BB2CDA01C90188519C4FAF4FCC
:10514000BF4F88159905AA05BB0540F540905F0241
:1051500050906002609061027090620241145104AC
:105160006104710459F40E94651260935F027093A8
:105170006002809361029093620218C00E946512DF
:10518000DC01CB0184199509A609B709813A9F4032
:10519000A105B10558F08AE690E0BFCE10925F02FB
:1051A00010926002109261021092620261E088E047
:1051B0000E949E1F86E791E00E94ED1FC501B40189
:1051C0000E94C50F0E94ED1F8091B2019091B30122
:1051D000A091B401B091B501892B8A2B8B2BB1F032
:1051E0000E9465128090B2019090B301A090B4012A
:1051F000B090B501DC01CB0188199909AA09BB0956
:1052000085399141A105B10508F045C18090BA01E9
:105210009090BB01A090BC01B090BD01811491049D
:10522000A104B104B9F10E946512DC01CB01881917
:105230009909AA09BB09893B9B40A105B10550F119
:105240001092BA011092BB011092BC011092BD01E4
:1052500060E070E081E090E00E948C0B8091C601DC
:10526000882309F431C189E090E00E947E0C68EB4C
:1052700073E083ED91E00E94013082E090E00E94B3
:105280004A0B811124C18091C7019091C8010297F6
:1052900009F41DC18091AE019091AF01A091B001C0
:1052A000B091B101892B8A2B8B2BB1F00E94651232
:1052B0008090AE019090AF01A090B001B090B1018C
:1052C000DC01CB0188199909AA09BB0985399141EB
:1052D000A105B10508F002C18090B6019090B70118
:1052E000A090B801B090B90181149104A104B10457
:1052F000B9F10E946512DC01CB0188199909AA094C
:10530000BB09893B9B40A105B10550F11092B60144
:105310001092B7011092B8011092B90160E070E0EC
:1053200082E090E00E948C0B8091C601882309F4F2
:10533000EEC08AE090E00E947E0C6CE373E083EDA7
:1053400091E00E94013081E090E00E944A0B8111BF
:10535000E1C08091C9019091CA01029709F4DAC0B5
:105360000E94D0049C01019731F48091C60191E024
:10537000982790939B024A8D5B8D4130510599F49B
:105380000130110581F42230310569F481E0809308
:1053900034021092CA011092C9011092C8011092F1
:1053A000C7010E94851B00915D0210915E020E9460
:1053B0002A040E94F5158091720390E008171907DE
:1053C00009F4ADCD0E942A040E94F5158091720364
:1053D00090E090935E0280935D020E942A040E94F6
:1053E000F515109173030E942A040E94F51500918F
:1053F00072030E942A0420E831E541E050E00E9457
:10540000BB2CCA01B9016C5F7F4F8F4F9F4F27E0C4
:1054100030E040E050E00E94BB2C81E001C0880FEA
:105420006A95EAF720E030E0F901E055FC4F9285FB
:10543000992371F0478141130BC04085401308C088
:105440004185482329F0913049F0923071F067CDC1
:105450002C5F3F4F2031310539F761CD8091C60176
:1054600081115DCD90939B025ACD8091C601882316
:1054700009F455CD10929B0252CD10925F0210920A
:105480006002109261021092620288E2F1011192B0
:105490008A95E9F799CE63EE73E083ED91E00E947F
:1054A00001301092B2011092B3011092B401109227
:1054B000B50181E190E00E947E0C61E070E081E046
:1054C00090E00E948C0BA2CE6DE873E0D2CE64E037
:1054D00070E082E090E00E944D0ADCCE67E673E067
:1054E00083ED91E00E9401301092AE011092AF0165
:1054F0001092B0011092B10182E190E00E947E0C06
:1055000061E070E082E090E00E948C0BE5CE61E10A
:1055100073E015CF64E070E081E090E00E944D0AF6
:105520001FCF1092BA011092BB011092BC011092D1
:10553000BD0160E070E081E090E00E948C0B82E0B1
:1055400090E00E944A0B811131C08091C701909177
:10555000C801029709F0BACB29C02A8D3B8D2230B1
:10556000310509F0B7CB8091C9019091CA01813012
:10557000910541F49093C1018093C0013093CA0119
:105580002093C9018091C4019091C501019749F40C
:105590008091C0019091C101019719F48DE090E0D4
:1055A00002C089E090E00E947E0C94CB64E070E041
:1055B00082E090E00E944D0A89CB2230310509F447
:1055C00078CB88CB4A8D5B8D4130510559F481E011
:1055D00090E00E947E0CCA8CDB8CD092CA01C092F3
:1055E000C90167CB4230510509F463CB73CB1092EC
:1055F000B6011092B7011092B8011092B90160E0A3
:1056000070E082E090E00E948C0B81E090E00E94CC
:105610004A0B81112EC08091C9019091CA01029755
:1056200009F0A2CB26C00230110509F0A1CB809170
:10563000C7019091C801019741F41093C1010093F3
:10564000C0011093C8010093C7018091C4019091DB
:10565000C501019749F48091C0019091C101029761
:1056600019F48EE090E002C08AE090E00E947E0C87
:105670007FCB64E070E081E090E00E944D0A74CB43
:105680000130110549F482E090E00E947E0C1093F5
:10569000C8010093C7015BCB0230110509F457CB59
:1056A00067CBEF92FF920F931F93CF93DF93CDB70A
:1056B000DEB768970FB6F894DEBF0FBECDBF10926D
:1056C0007B0310927A0310927903109278030E9460
:1056D0005B1810927F0310927E0388EE93E0A0E0A7
:1056E000B0E08093800390938103A0938203B093F2
:1056F00083038EE191E090937D0380937C0310926D
:10570000CE031092CD0389E391E09093CC03809374
:10571000CB0382E08093D6031092D50380E280937E
:10572000D4031092CF031092D9031092C7031092A2
:10573000C8031092C9031092CA0380EBE82E83E0DD
:10574000F82E00E010E0C8010E940830F7018193B4
:105750007F010F5F1F4F0B311105A9F78091B00337
:105760009091B103813F910561F181EF90E09093B9
:10577000B1038093B0031092B2038CE090E0909359
:10578000B4038093B3031092B5031092B60380E084
:1057900090E0FC01E055FC4F1286178210861186BE
:1057A000049680319105A9F71092C7031092C8039F
:1057B0001092C9031092CA0380EB93E00E94651F08
:1057C00065C08091B203823010F01092B203409114
:1057D000B3035091B403EAE2F1E020E081E0E53365
:1057E000F80739F0819190E084179507B9F721E027
:1057F000F5CF211106C08CE090E09093B403809324
:10580000B303EAEBF3E08081833008F01082DF011C
:1058100013978C91883108F01C92DF0112978C91BC
:105820008C3308F01C92DF018E918F778C93349625
:1058300083E0EA3CF80739F78091C703082E000C93
:10584000990B97FF03C0919581959109069714F0E4
:105850001092C7038091C803082E000C990B97FF84
:1058600003C0919581959109069714F01092C80391
:105870008091C903865F8B3010F01092C90380912C
:10588000CA03865F8B3010F01092CA038CE0E9E403
:10589000F1E0DE011D9601900D928A95E1F78CE012
:1058A000EDE3F1E0DE01119601900D928A95E1F7AA
:1058B0008CE0FE013D96A8E8B3E001900D928A9538
:1058C000E1F78CE0FE013196A4E9B3E001900D927E
:1058D0008A95E1F768960FB6F894DEBF0FBECDBF8C
:1058E000DF91CF911F910F91FF90EF900895DB0111
:1058F0008F939F930E94182DBF91AF91A29F800D0F
:10590000911DA39F900DB29F900D11240895991B96
:1059100079E004C0991F961708F0961B881F7A95A6
:10592000C9F780950895AA1BBB1B51E107C0AA1FA8
:10593000BB1FA617B70710F0A61BB70B881F991F30
:105940005A95A9F780959095BC01CD01089597FBD4
:10595000072E16F4009407D077FD09D00E94932CEF
:1059600007FC05D03EF4909581959F4F0895709562
:1059700061957F4F0895A1E21A2EAA1BBB1BFD0162
:105980000DC0AA1FBB1FEE1FFF1FA217B307E4071E
:10599000F50720F0A21BB30BE40BF50B661F771F76
:1059A000881F991F1A9469F7609570958095909556
:1059B0009B01AC01BD01CF010895052E97FB1EF49C
:1059C00000940E94F42C57FD07D00E94BB2C07FCCA
:1059D00003D04EF40C94F42C5095409530952195BD
:1059E0003F4F4F4F5F4F089590958095709561950B
:1059F0007F4F8F4F9F4F0895EE0FFF1F0590F4913B
:105A0000E02D0994A29FB001B39FC001A39F700D28
:105A1000811D1124911DB29F700D811D1124911DB6
:105A200008950E94022DB7FF0895821B930B0895DD
:105A30000E94022DA59F900DB49F900DA49F800DF4
:105A4000911D11240895B7FF0C94182D0E94182D54
:105A5000821B930B089581E090E0F8940C945530EC
:105A6000AEE0B0E0E6E3FDE20C942C300D891E8937
:105A70008F89988D26E02C831A83098397FF02C0B3
:105A800080E090E801979E838D83AE01455E5F4F75
:105A9000698D7A8DCE0101960E94832D4D815E81A4
:105AA00057FD0AC02F813885421753070CF49A011D
:105AB000F801E20FF31F10822E96E4E00C944830B8
:105AC000AEE0B0E0E6E6FDE20C942C300D891E89D4
:105AD00086E08C831A8309838FEF9FE79E838D83F3
