:100000000C94A1010C94B50E0C948E0E0C94C901A5
:100010000C94C9010C94C9010C94C9010C94C90138
:100020000C94C9010C94C9010C94C9010C94C90128
:100030000C94C9010C94C9010C94C9010C94C90118
:100040000C94440E0C94C9010C94C9010C94C90180
:100050000C94C9010C94C9010C94C9010C94C901F8
:100060000C94F8120C94C901C402F70200030B03AC
:1000700013031303130313031303130313032103C2
:100080005316581669167A1685169516A516D216A1
:10009000DA160517F616051705170C172C1759173A
:1000A0008717B417E1170E183A1807634236B79B43
:1000B000D8A71A39685618AEBAAB558C1D3CB7CCC8
:1000C0005763BD6DEDFD753EF6177231BF00000040
:1000D000803F455252200020646F6E65002077619A
:1000E000697400206F6E202000206F66662000205B
:1000F0002D2D2D2000636C656172007365740053B3
:100100007475636B2000474649205465737420461C
:1001100061696C757265004572724A616E4665620E
:100120004D61724170724D61794A756E4A756C41CC
:1001300075675365704F63744E6F76446563002036
:1001400020002532640020202000202020002025CF
:100150003264002020002530326400202000253247
:10016000640053657420436C6F636B00534D5457A8
:1001700054465300534D54575446530020200025F5
:100180003032640020200025326400457869740014
:10019000202020200045646974204576656E742017
:1001A0000000000000240027002A000000000025B5
:1001B0000028002B00000000002300260029000476
:1001C00004040404040404020202020202030303FE
:1001D00003030301020408102040800102040810F8
:1001E0002001020408102052656C61792046616983
:1001F0006C7572653A2000322E342E312D6465768E
:100200000053573A00342E332E310048573A004AF3
:10021000313737322048796472612000554E4B00E7
:100220007365716E746C00736861726564004D3A39
:10023000004D3A50415553454400202020202020B5
:100240002020002532643A2530326425634D200099
:10025000204361722025733A2025642525005069CA
:100260006C6F742064657261746500204361722054
:1002700025733A202573302E256400416D6D657419
:100280006572004E6F005965730045786974204DA2
:10029000656E75733F004E6F005965730043616C66
:1002A0006962726174696F6E3F004E6F00596573C9
:1002B00000436F6E666967204576656E74733F0014
:1002C0004E6F0059657300456E61626C6520445342
:1002D000543F004E6F005965730053657420436CA2
:1002E0006F636B3F0020416D7073004375727265E0
:1002F0006E7420417661696C2E0053657175656E70
:100300007469616C00536861726564004F70657256
:100310006174696E67204D6F64650025336C756D7F
:1003200041002532642E2530316441000000000870
:1003300000020100000304070000000000000000AC
:10034000F22511241FBECFEFD8E0DEBFCDBF11E0F4
:10035000A0E0B1E0E0E3FEE502C005900D92A03719
:10036000B107D9F723E0A0E7B1E001C01D92A8389A
:10037000B207E1F711E0C1EAD1E004C02197FE0124
:100380000E945B28C03AD107C9F70E941E200C9436
:10039000162F0C94000060E088E00E947B0D60E066
:1003A00087E00E947B0D1092370310923603109263
:1003B0000503109204030E94380E60935502709357
:1003C0005602809357029093580281E0809359021D
:1003D0000895CF93DF93EC01C536D10550F064E664
:1003E00070E080E090E00E94FE0DC456D109A8950F
:1003F000F3CFBE0180E090E00E94FE0DA895DF9152
:10040000CF9108950F931F938091790290917A0272
:10041000A0917B02B0917C02892B8A2B8B2BA9F0B7
:100420000E94380E0091790210917A0220917B028D
:1004300030917C02DC01CB01801B910BA20BB30B32
:10044000C297A105B10508F444C010927902109238
:100450007A0210927B0210927C028091830388239F
:10046000C1F08091810380620E94E01D82E10E94C0
:100470003A120E94EA1D80918103806261E070E07F
:1004800090E00E94471E8DEE92E00E94DF0C809566
:100490008F71409175025091760260917702709150
:1004A000780280FF19C0452B462B472B91F40E9400
:1004B000380E609375027093760280937702909362
:1004C00078026093790270937A0280937B02909312
:1004D0007C0280E090E02EC0452B462B472BC9F3D1
:1004E0000E94380E6093790270937A0280937B02A7
:1004F00090937C0200917502109176022091770210
:1005000030917802DC01CB01801B910BA20BB30B65
:100510001092750210927602109277021092780271
:100520008B3F9105A105B10518F481E090E002C070
:1005300082E090E01F910F910895FF920F931F9317
:10054000CF93DF9300D000D0CDB7DEB7F82E0E9456
:1005500002028C01FF2039F00E94D11E1092850109
:100560001092840104C08130910509F075C090910A
:100570008501492F50E04C30510508F0AFC0FA0119
:10058000EC5CFF4F0C945B28F11005C08091840156
:100590008F5F8093840180918401853010F01092E8
:1005A0008401E0918401E43008F098C034E0E39FD6
:1005B000F0011124EC59FC4F8081809383019181DB
:1005C0009093820192819093810193819093800115
:1005D00091E08C3008F490E090937F01811102C08B
:1005E0008CE00BC08D3008F479C08C5006C080912F
:1005F00083018F5F8D3008F081E0809383016EC0AE
:10060000809182018F5F8C3318F48093820166C0E1
:100610001092820163C081E090917F01911180E08E
:1006200080937F015BC02CEF290F81E090E001C037
:10063000880F2A95EAF7909181018927809381019B
:100640004DC0809180018F5F833018F480938001CA
:1006500045C01092800142C0029709F041C09091BC
:10066000850191110FC080918401843059F486E195
:1006700096E1909311018093100110925A020E940A
:10068000D11E5AC19F5F909385019C3048F18091A3
:10069000830190917F01911103C08C3031F44AC1E4
:1006A000913019F48C3009F0845FE091840194E07A
:1006B000E99FF0011124EC59FC4F80838091820165
:1006C00081838091810182838091800183838DE584
:1006D00093E00E94411F109285012EC101E010E0BD
:1006E0000E94380E28EE33E040E050E00E941A28C5
:1006F00021E0643F71408105910508F420E0012B61
:1007000029F490917E01921709F416C120937E017D
:1007100060E080E00E94941E65E971E083EF91E063
:100720000E94C22E83EF91E00E94921E80917E0172
:10073000882339F080918501811103C060E971E05F
:1007400006C060918401643059F46BE871E083EF76
:1007500091E00E94C22E83EF91E00E94921E0AC097
:1007600070E06F5F7F4F072E000C880B990B4AE0FB
:100770000E94821F61E080E00E94941E80918401AB
:10078000843049F400E110E080E20E94771F0150BC
:100790001109D1F7D1C01091830167E871E083EFAF
:1007A00091E00E94C22E1F921F9383EF91E09F93CE
:1007B0008F938E010F5F1F4F1F930F930E94212C69
:1007C0000F900F900F900F900F900F9080917E01DF
:1007D000882369F080918501813049F464E871E0F3
:1007E00083EF91E00E94C22E83EF91E001C0C80127
:1007F0000E94921E8AE30E94771FF09082016FE7A9
:1008000071E083EF91E00E94C22E1F92FF9283EF6E
:1008100091E09F938F931F930F930E94212C0F9031
:100820000F900F900F900F900F9080917E01882372
:1008300069F080918501823049F46CE771E083EFC3
:1008400091E00E94C22E83EF91E001C0C8010E9496
:10085000921E80917E01882331F080918501833042
:1008600011F480E207C080917F01813011F081E4B2
:1008700001C080E50E94771F80E20E94771F00E0A0
:1008800010E06CE671E083EF91E00E94C22EE3EF8E
:10089000F1E001900020E9F73197E35FF1400E1796
:1008A0001F0758F58091850190E098012C5F3F4F1C
:1008B0002817390731F480917E01882311F080E2F6
:1008C00017C08091810190E0002E02C09595879518
:1008D0000A94E2F780FF0BC064E771E083EF91E0D8
:1008E0000E94C22EF801ED50FE4F808101C08DE2C2
:1008F0000E94771F0F5F1F4FC4CF80E20E94771FB7
:10090000809185018B3031F480917E01882311F034
:1009100080E20DC080918001811102C08EE407C089
:10092000813011F483E503C0823031F487E40E9402
:10093000771F02C080E0B9CE0F900F900F900F90FC
:10094000DF91CF911F910F91FF9008958F929F9209
:10095000AF92BF92EF92FF920F931F93CF93DF93CB
:100960007C010E94380E4B015C01C0E0D0E00FE03A
:1009700017E20E94380EDC01CB0188199909AA09F7
:10098000BB094497A105B10568F4F70187810E946E
:10099000E70DC817D90708F4EC018017910748F74D
:1009A0008C01E7CF0B5F110901331140A0F0C6366F
:1009B00083E0D80798F4CE01875093408F35910596
:1009C00080F0835A9F4F8D35910570F0C256D2400A
:1009D000C834D10560F085E090E00BC081E090E084
:1009E00008C082E090E005C083E090E002C084E0AF
:1009F00090E0DF91CF911F910F91FF90EF90BF900A
:100A0000AF909F908F900895CF92DF92EF92FF92D8
:100A10000F931F93CF93DF93EC018B01888181307B
:100A200019F44091760302C040917703023011051A
:100A300018F4602F8D81A4C0209160033091610370
:100A4000A8EEB3E00E9461280330110521F49695C9
:100A50008795779567954423D1F0A42F440FBB0B5E
:100A6000AC59BF4F9B01AC010E947B2824E630E0CB
:100A700040E050E00E941A28203787E138074105FE
:100A8000510568F460E777E180E090E010C06133E1
:100A9000E5E77E078105910508F098C01AC0CA01F4
:100AA000B901213335474105510508F08FC02CE3CA
:100AB00030E040E050E00E941A28942F832F722FDC
:100AC000662728EE33E040E050E00E943C287901A0
:100AD00009C0603727E172078105910540F7EE24D0
:100AE000EA94F12CCD80DE8061E08C2D0E94AB0D6C
:100AF000FFEFEF16F10409F441C0F601FF27E45DB2
:100B0000FC4FE491E330E1F058F4E23099F584B51C
:100B1000806284BD27B530E058E4C52ED12C3DC09D
:100B2000E430D9F0E83031F58091B00080628093F4
:100B3000B0002091B30030E084EBC82ED12C2DC042
:100B400080918000806880938000209186003091A1
:100B5000870048E8C42ED12C2CC080918000806290
:100B60008093800020918600309187009AE8C92EFA
:100B7000D12C1FC0E7FC02C060E001C061E08C2DF9
:100B80000E947B0D19A308A3DF91CF911F910F91B4
:100B9000FF90EF90DF90CF900895D7010E946128D9
:100BA0002FEF30E040E050E00E941A28F601208349
:100BB000E9CFD7010E9461282FEF30E040E050E0FC
:100BC0000E941A28F60131832083DCCF60E375E7A9
:100BD00080E090E06CCFFC0180915402811112C042
:100BE000258536852530310581F083899489A5894D
:100BF000B689892B8A2B8B2B39F42385348581E0A8
:100C0000232B19F480E0089581E008950F931F933A
:100C1000CF93DF938C01EB01809104039091050346
:100C2000892B49F48091360390913703892B19F46D
:100C300061307105C1F0F801838594858C179D079B
:100C4000A9F06C2F83810E947B0DF801D487C387A4
:100C50000E94380E6093550270935602809357029B
:100C60009093580203C00E948406E5CFDF91CF9194
:100C70001F910F91089560E070E089EF92E00E946B
:100C8000040560E070E08BE293E00E94040560E000
:100C900070E089EF92E00E94060660E070E08BE26F
:100CA00093E00E940606A895FECFC82F81E00E941F
:100CB000E01E0E94D11E66E071E083EF91E00E9489
:100CC000C22E83EF91E00E94921E61E080E00E94BC
:100CD000941E6FEF70E083EF91E00E94C22E83EFCD
:100CE00091E00E94921ECC2319F06BEF70E002C0DD
:100CF00065EF70E083EF91E00E94C22E83EF91E0F8
:100D00000E94921E0E943B06CF92DF92EF92FF92CA
:100D10000F931F93CF93DF9310925902C2E3D0E059
:100D20000BEF1CE761E083E00E947B0DC801019797
:100D3000F1F760E083E00E947B0DC8010197F1F7B5
:100D400080915902811103C0A895219759F780918C
:100D500059028823B9F00E94380E6B017C0124E609
:100D6000C20ED11CE11CF11C82E00E94520D0197C1
:100D700059F4A8950E94380EC616D706E806F9065B
:100D800098F781E00E94550680E991E00E94E90110
:100D900010925902DF91CF911F910F91FF90EF9028
:100DA000DF90CF9008950F931F93CF93DF93EC01C3
:100DB000CE01837099278130910549F0029751F057
:100DC000CC7FCE0181600E94D306C260F1CF01E4E6
:100DD00010E002C002E418E061E0812F0E94941E3E
:100DE000802F0E94771F8AE30E94771F9E0128733D
:100DF000332720313105B1F048F42115310579F060
:100E000028303105E9F469EE70E00EC02831310573
:100E1000A1F020323105A1F467ED70E005C06FEE5E
:100E200070E002C063EE70E083EF91E00E94C22E9A
:100E300083EF91E00E94921E38C06DED70E0F4CF18
:100E400081E00E94E01E62ED70E083EF91E00E947D
:100E5000C22E83EF91E00E94921E9E01207C317091
:100E600020383105B9F038F42115310589F02034E6
:100E70003105C1F015C0211581E0380769F0203433
:100E800081E0380759F0203C310551F484E50BC06E
:100E900086E409C087E407C082E505C085E403C095
:100EA0008FE301C08FE40E94771F85E691E00E94E6
:100EB000921EC2FF0CC061E086E0810F0E94941E6A
:100EC0008AE2DF91CF911F910F910C94771FDF91F0
:100ED000CF911F910F910895CF92DF92EF92FF92E1
:100EE0000F931F93CF93DF938C010E94380E6B01F9
:100EF0007C01E801C370DD270E946F1FC230D1055D
:100F000020F0229709F047C024C061E070E089EF2B
:100F100092E00E94040580910603909107030597D3
:100F200071F085E090E09093070380930603C092F0
:100F30001003D0921103E0921203F0921303109267
:100F40000C0310920D0310920E0310920F03CD2B81
:100F500011F561E070E08BE293E00E94040580915E
:100F6000380390913903059771F085E090E09093F4
:100F7000390380933803C0924203D0924303E09236
:100F80004403F092450310923E0310923F031092E7
:100F9000400310924103C801DF91CF911F910F913F
:100FA000FF90EF90DF90CF900C94D3062F923F925A
:100FB0004F925F926F927F928F929F92AF92BF9269
:100FC000CF92DF92EF92FF920F931F93CF93DF9315
:100FD000CDB7DEB728970FB6F894DEBF0FBECDBFF2
:100FE0000E94030F6B017C0180916203882309F446
:100FF0006AC1C701B60120E831E541E050E00E9436
:101000001A282D833E834F8358878BE0282E81E05A
:10101000382E810105501109C701B6010E94C8117F
:101020008091F101F10131979081981720F4D80156
:101030008D919C913FC1891708F42FC15101B3E0F4
:10104000AB1AB108F50180813196843009F47CC077
:101050009080C701B6010E94C811F501A081B0E0DF
:1010600020E83AE349E050E00E9470282B013C015F
:101070008091F00121E030E040E050E0281B310990
:1010800041095109DA01C9012D813E814F815885FD
:10109000280F391F4A1F5B1F60E871E581E090E06F
:1010A0000E94D627640D751D861D971D20E831E529
:1010B00041E050E00E941A2829013A01DA01C901F1
:1010C000890D911DA11DB11D4C015D01CA01B90120
:1010D0006C5F7F4F8F4F9F4F27E030E040E050E044
:1010E0000E941A28A5019401261B370B480B590BA7
:1010F00060E871E581E090E00E94D62769837A83F9
:101100008B839C834B015C0190E8891A91E5990AD5
:1011100091E0A90AB108A301920160E871E581E0BC
:1011200090E00E94D62786169706A806B90648F4CE
:1011300089809A80AB80BC80A9EE9A0EA7E0AA1E97
:10114000B11CF10120819AC0B080C701B6010E9494
:10115000C8118091F0012D813E814F815885281B57
:1011600031094109510960E871E581E090E00E9490
:10117000D627705D854D9F4F20E831E541E050E076
:101180000E941A2829013A01C701B6010E94C8111C
:101190008091F0012D813E814F815885281B3109B6
:1011A0004109510960E871E581E090E00E94D6278D
:1011B000705D854D9F4F0E94C8118091F00121E024
:1011C00030E040E050E0281B310941095109240D6D
:1011D000351D461D571D60E871E581E090E00E94D5
:1011E000D627605871458140910920E831E541E0FA
:1011F00050E00E941A2829013A01CA01B9016C5F26
:101200007F4F8F4F9F4F27E030E040E050E00E943B
:101210001A28A3019201261B370B480B590B2B0DE3
:10122000311D411D511D60E871E581E090E00E9493
:10123000D62769837A838B839C834B015C0130E8DA
:10124000831A31E5930A31E0A30AB108A3019201A0
:1012500060E871E581E090E00E94D6276815790585
:101260008A059B0548F489809A80AB80BC804CE855
:10127000941A4AE0A40AB108D1012C9130E0A0E10F
:10128000BEE00E946128860E971EA81EB91EC814D3
:10129000D904EA04FB0408F0CACEB6E02B1A3108E0
:1012A000EFEF2E16E0E03E0609F0B3CE8091060186
:1012B00090910701892B39F4C701B601605F714F26
:1012C0008F4F9F4F02C0C701B60128960FB6F89402
:1012D000DEBF0FBECDBFDF91CF911F910F91FF9069
:1012E000EF90DF90CF90BF90AF909F908F907F90C6
:1012F0006F905F904F903F902F900895CF92DF9224
:10130000EF92FF920F931F93CF93DF93CDB7DEB78A
:101310002E970FB6F894DEBF0FBECDBFF82E0E94F9
:1013200002028C01FF2009F460C00E94D11E62E617
:1013300071E083EF91E00E94C22E83EF91E00E9462
:10134000921E0E94D6076B017C010E94C811209159
:10135000EE01222331F0822F90E02D3020F00C9707
:1013600002C08CE090E080938301C701B6010E9427
:10137000C8118091EE0190E021E00C970CF420E080
:1013800020937F01C701B6010E94C8118091ED0131
:1013900080938201C701B6010E94C8118091F001BB
:1013A00080937D01C701B6010E94C8118091F101AF
:1013B00080937C01C701B6010E94C8118091F2019F
:1013C00090E09C012E54384F88970B9728F4309367
:1013D0007B0120937A0106C08AED97E090937B0110
:1013E00080937A01109285015DC08130910509F0EA
:1013F00051C090918501923001F128F4992349F070
:10140000913081F015C1943061F110F1953091F176
:101410000FC1809183018F5F8D3008F081E0809350
:10142000830106C1809182018F5F8C3318F4809311
:101430008201FEC010928201FBC080917F018F5F0C
:10144000823018F480937F01F3C010927F01F0C0C6
:1014500080917D018F5F803208F081E080937D0173
:10146000E7C080917C018F5F8D3008F081E0809330
:101470007C01DEC080917A0190917B010196853ECE
:1014800027E0920710F08AED97E090937B0180931C
:101490007A01CEC0029709F0CBC0809185018F5FA1
:1014A0008093850180918501863008F4BFC09091BA
:1014B0007F0180918301911105C08C3051F410920D
:1014C000830107C0913029F48C3019F0845F809338
:1014D000830180917A01825B8E8780917C018D8768
:1014E00080917D018C87809183018A878091820120
:1014F00089871886CE0108960E948D0F6B017C01AA
:101500000E94DC0EAE014F5F5F4FC701B6010E9423
:10151000F71088E60E94E01D60E08DEE92E00E94E8
:10152000230D60E88DEE92E00E94230D8A811AE07F
:10153000612F0E94E627692F30E1839F600D1124FF
:101540008DEE92E00E94230D8B81612F0E94E62791
:10155000692F20E1829F600D11248DEE92E00E94A0
:10156000230D8C81612F0E94E627692F30E1839F34
:10157000600D11248DEE92E00E94230D8D81612F6C
:101580000E94E627692F20E1829F600D11248DEED5
:1015900092E00E94230D8E81612F0E94E627692F21
:1015A00030E1839F600D11248DEE92E00E94230DA7
:1015B0008F818E51612F0E94E627692F20E1829F43
:1015C000600D11248DEE92E00E94230D0E94EA1D11
:1015D000882319F0109286011EC001E00093860155
:1015E00088E60E94E01D60E08DEE92E00E94230DEF
:1015F0008981612F0E94E627692F30E1839F600D6A
:1016000011248DEE92E00E94230D0E94EA1D8111AB
:10161000E1CF0093860186E196E1909311018093DA
:10162000100110925A020E94D11E21C102E010E066
:101630000E94380E28EE33E040E050E00E941A2865
:1016400021E0643F71408105910508F420E0012B01
:1016500029F490917E01921709F409C120937E012B
:1016600061E080E00E94941E109183016EE571E0BC
:1016700083EF91E00E94C22E1F921F9383EF91E0AF
:101680009F938F938E010F5F1F4F1F930F930E94A5
:10169000212C0F900F900F900F900F900F90809132
:1016A000850181110DC080917E01882349F06BE591
:1016B00071E083EF91E00E94C22E83EF91E001C0C0
:1016C000C8010E94921E8AE30E94771FF090820157
:1016D00066E571E083EF91E00E94C22E1F92FF92B7
:1016E00083EF91E09F938F931F930F930E94212C80
:1016F0000F900F900F900F900F900F908091850199
:10170000813069F480917E01882349F063E571E0BE
:1017100083EF91E00E94C22E83EF91E001C0C801E7
:101720000E94921E80918501823031F480917E0169
:10173000882311F080E207C080917F01811102C0EF
:1017400081E401C080E50E94771FF0907D016EE486
:1017500071E083EF91E00E94C22E1F92FF9283EF0F
:1017600091E09F938F931F930F930E94212C0F90D2
:101770000F900F900F900F900F9080918501833004
:1017800069F480917E01882349F06AE471E083EF77
:1017900091E00E94C22E83EF91E001C0C8010E9437
:1017A000921E8DE20E94771F80918501843069F43A
:1017B00080917E01882349F066E471E083EF91E037
:1017C0000E94C22E83EF91E019C020917C0183E03A
:1017D000289F90011124A0E7B1E080E090E0FC0197
:1017E000E20FF31FE95EFE4FE491ED930196833023
:1017F0009105A9F71092730180E791E00E94921E73
:101800008DE20E94771F80917A0190917B0164E6BE
:1018100070E00E94F227F82EE92E62E471E083EF77
:1018200091E00E94C22EEF92FF9283EF91E09F938E
:101830008F931F930F930E94212C0F900F900F9066
:101840000F900F900F9080918501853069F4809101
:101850007E01882349F06FE371E083EF91E00E94FD
:10186000C22E83EF91E001C0C8010E94921E2E9605
:101870000FB6F894DEBF0FBECDBFDF91CF911F91A1
:101880000F91FF90EF90DF90CF900895833081F01B
:1018900028F4813099F08230A1F008958730A9F0C2
:1018A0008830B9F08430D1F4809180008F7D03C0FE
:1018B000809180008F7780938000089584B58F7722
:1018C00002C084B58F7D84BD08958091B0008F776C
:1018D00003C08091B0008F7D8093B00008953FB722
:1018E000F8948091DD019091DE01A091DF01B0912B
:1018F000E00126B5A89B05C02F3F19F00196A11D58
:10190000B11D3FBFBA2FA92F982F8827820F911D95
:10191000A11DB11DBC01CD0142E0660F771F881FDC
:10192000991F4A95D1F7089508958091EB0290E0B0
:101930002091EC02821B9109089585ED8093BC00F3
:101940008091BC0084FDFCCF1092C70208954091A5
:10195000A901262F30E0240F311D21323105DCF49E
:101960002091C7022430C9F4FC0180E090E0861782
:1019700058F43091A9012191DC01A957BE4FA30F62
:10198000B11D2C930196F3CF8091A901680F60934C
:10199000A90180E0089581E0089582E00895089506
:1019A000E091EC028091EB02E81730F4F0E0EF57A1
:1019B000FD4F808190E008958FEF9FEF0895909103
:1019C000EC028091EB02981750F4E92FF0E0EF570A
:1019D000FD4F208130E09F5F9093EC0202C02FEF1B
:1019E0003FEFC9010895CF92DF92EF92FF920F93DC
:1019F0001F93CF93DF937C01262F972F8A0180912D
:101A0000E802882391F0C62FD72F6E01C40ED51E91
:101A1000CC15DD0571F06991D701ED91FC91019034
:101A2000F081E02DC7010995F3CF642F822F0E942A
:101A3000A70CC801DF91CF911F910F91FF90EF90FC
:101A4000DF90CF900895CF93DF931F92CDB7DEB78D
:101A500069832091E8022223D1F02091E90220320B
:101A600040F021E030E0FC013383228380E090E00D
:101A700015C08091EA02E82FF0E0E853FD4F99810C
:101A800090838F5F8093EA028093E90205C061E052
:101A9000CE0101960E94A70C81E090E00F90DF91AB
:101AA000CF910895CF93DF93282F30E0F901E45DC3
:101AB000FC4F8491F901ED52FE4FD491F901E154AC
:101AC000FE4FC491CC2391F081110E94460CEC2F63
:101AD000F0E0EE0FFF1FEB54FE4FA591B491EC9197
:101AE000ED2381E090E021F480E002C080E090E00E
:101AF000DF91CF9108951F93CF93DF93282F30E08C
:101B0000F901E45DFC4F8491F901ED52FE4FD4914F
:101B1000F901E154FE4FC491CC23C9F0162F811175
:101B20000E94460CEC2FF0E0EE0FFF1FE555FE4F34
:101B3000A591B4918FB7F894111105C09C91ED2F28
:101B4000E095E92302C0EC91ED2BEC938FBFDF9180
:101B5000CF911F910895CF93DF9390E0FC01ED5258
:101B6000FE4F2491FC01E154FE4F8491882361F1E2
:101B700090E0880F991FFC01EF55FE4FC591D4915D
:101B8000FC01E555FE4FA591B491611109C09FB7C5
:101B9000F8948881209582238883EC912E230BC0B2
:101BA000623061F49FB7F8943881822F8095832347
:101BB0008883EC912E2B2C939FBF06C08FB7F8948F
:101BC000E8812E2B28838FBFDF91CF9108958E302F
:101BD00008F08E508770806480937C0080917A003A
:101BE000806480937A0080917A0086FDFCCF80919A
:101BF00078002091790090E0922B08958F929F9227
:101C0000AF92BF92CF92DF92EF92FF926B017C0175
:101C10000E946F0C4B015C01C114D104E104F1047A
:101C2000F1F00E946F0CDC01CB0188199909AA0917
:101C3000BB09883E9340A105B10570F321E0C21AAB
:101C4000D108E108F10888EE880E83E0981EA11CF7
:101C5000B11CC114D104E104F10419F7DDCFFF90E8
:101C6000EF90DF90CF90BF90AF909F908F900895AE
:101C70002FB7F8946091D9017091DA018091DB015E
:101C80009091DC012FBF08951F920F920FB60F9213
:101C900011242F933F938F939F93AF93BF93809182
:101CA000D9019091DA01A091DB01B091DC01309172
:101CB000D80123E0230F2D3720F40196A11DB11D7B
:101CC00005C026E8230F0296A11DB11D2093D8015F
:101CD0008093D9019093DA01A093DB01B093DC01EA
:101CE0008091DD019091DE01A091DF01B091E001D2
:101CF0000196A11DB11D8093DD019093DE01A0939B
:101D0000DF01B093E001BF91AF919F918F913F911F
:101D10002F910F900FBE0F901F9018951F920F924A
:101D20000FB60F9211242F933F934F935F936F93AE
:101D30007F938F939F93AF93BF93EF93FF93E09124
:101D40000E01F0910F010995FF91EF91BF91AF91B5
:101D50009F918F917F916F915F914F913F912F91C3
:101D60000F900FBE0F901F9018951F920F920FB6F5
:101D70000F9211242F933F934F935F936F937F9311
:101D80008F939F93AF93BF93EF93FF93E0910C01D9
:101D9000F0910D010995FF91EF91BF91AF919F9146
:101DA0008F917F916F915F914F913F912F910F9004
:101DB0000FBE0F901F9018956093E5017093E60198
:101DC0008093E7019093E801DC01CB01845D9E4F95
:101DD000AF4FBF4F8093E1019093E201A093E301E5
:101DE000B093E40182E090E09093D7018093D60114
:101DF0000E94380E6093D2017093D3018093D40176
:101E00009093D5010895CF92DF92EF92FF920F93B6
:101E10001F930E94380EC090D201D090D301E09061
:101E2000D401F090D5018B019C010C191D092E09DC
:101E30003F098091E5019091E601A091E701B09101
:101E4000E801083E134021053105D0F00196A11D9F
:101E5000B11D8093E5019093E601A093E701B09353
:101E6000E801B701A60148515C4F6F4F7F4F409387
:101E7000D2015093D3016093D4017093D501C9CF9F
:101E80004091E1015091E2016091E3017091E40120
:101E900084179507A607B70788F1E091E901F0914B
:101EA000EA01309759F10995611571058105910590
:101EB00019F00E94DC0E22C08091E5019091E601AC
:101EC000A091E701B091E801845D9E4FAF4FBF4FF5
:101ED0008093E1019093E201A093E301B093E401C8
:101EE00081E090E02091D6013091D701232B11F4AD
:101EF00080E090E09093D7018093D6016091E50156
:101F00007091E6018091E7019091E8011F910F9196
:101F1000FF90EF90DF90CF9008956F927F928F9215
:101F20009F92AF92BF92CF92DF92EF92FF920F9368
:101F30001F93CF93DF93EC01EE81AE2FB0E020E84A
:101F400033E341EE51E00E9470284B015C0122EB2B
:101F500037E0FD0104E610E080E9E82EFF24F39469
:101F6000C901825B97408E179F07DCF4C90183701B
:101F70009927892B99F4C901B8010E940628892B59
:101F800031F4C901B7010E940628892B39F480E891
:101F9000880E81E5981E81E0A81EB11C2F5F3F4F7F
:101FA000DFCF6D80712CEE54F84FCF0164E670E006
:101FB0000E9406287C01CF0160E971E00E9406289A
:101FC0006C0101E010E0E370FF27061517052CF502
:101FD0000230110581F4309771F4E114F10419F421
:101FE000C114D10441F480E8880E8BE3981E86E288
:101FF000A81EB11C0FC0D801AF5EBE4FAC91B0E0BF
:1020000020E831E541E050E00E947028860E971EDE
:10201000A81EB91E0F5F1F4FD8CF49812A8130E01B
:10202000A0E1BEE00E9461286B017C01242F30E01A
:10203000ACE3B0E00E946128DC01CB018C0D9D1D5A
:10204000AE1DBF1D28816C017D01C20ED11CE11C9B
:10205000F11CAC81B0E0119720E831E541E050E09F
:102060000E947B28DC01CB018C0D9D1DAE1DBF1D88
:10207000BC01CD01680D791D8A1D9B1DDF91CF919B
:102080001F910F91FF90EF90DF90CF90BF90AF9096
:102090009F908F907F906F9008951F93CF93DF93C1
:1020A000CDB7DEB727970FB6F894DEBF0FBECDBF12
:1020B00088E60E94E01D60E08DEE92E00E94230D14
:1020C0000E94EA1D882319F01092860183C081E0E6
:1020D0008093860167E070E088E690E00E94471EEA
:1020E0008091EB0290E02091EC02821B910907970E
:1020F0000CF470C08DEE92E00E94DF0C182F8695D4
:10210000869586958E70982F990F990F890F912F2C
:102110009F70890F89838DEE92E00E94DF0C282F3B
:1021200022952F70982F9F708AE0289F900D112480
:102130009A838DEE92E00E94DF0C982F282F26952F
:10214000269526952670822F880F880F280F9F705E
:10215000920F9B838DEE92E00E94DF0C282F229538
:102160002F70982F9F708AE0289F900D11249C83D8
:102170008DEE92E00E94DF0C282F22952F70982F71
:102180009F708AE0289F900D11249D838DEE92E030
:102190000E94DF0C282F22952F70982F9F708AE0C5
:1021A000289F900D11249E838DEE92E00E94DF0CFB
:1021B000982F9F70925E282F22952F708AE0289F7B
:1021C000900D11249F8317FD05C0CE0101960E943A
:1021D0008D0F03C060E070E0CB0127960FB6F89436
:1021E000DEBF0FBECDBFDF91CF911F9108956F92DB
:1021F0007F928F929F92AF92BF92CF92DF92EF9297
:10220000FF920F931F93CF93DF93EA012CE3C22E2B
:10221000D12CE12CF12CA70196010E941A28688389
:10222000CA01B901A70196010E941A286983CA014F
:10223000B90128E130E040E050E00E941A2869012D
:102240007A016A83CA01B9016C5F7F4F8F4F9F4F3C
:1022500027E030E040E050E00E941A286F5F6B8377
:10226000812C912C540140E034E6632E712C00E95E
:1022700011E0242F30E02E54384FF901E370FF278E
:10228000309789F4C901B3010E940628892B31F4E3
:10229000C901B8010E940628892B29F48EE691E035
:1022A000A0E0B0E004C08DE691E0A0E0B0E0880ED0
:1022B000991EAA1EBB1ED501C401AA27BB27C8169A
:1022C000D906EA06FB0610F04F5FD3CF4E83309756
:1022D00099F4C90164E670E00E940628892B39F45C
:1022E000C90160E971E00E940628892B29F48EE675
:1022F00091E0A0E0B0E004C08DE691E0A0E0B0E0A5
:10230000881A990AAA0ABB0AC818D908EA08FB0859
:10231000C90164E670E00E9406288C01C90160E9E9
:1023200071E00E940628A2E1B1E020E0213041F4F2
:10233000309751F40115110529F4009729F402C0D2
:102340004C9103C04DE101C04CE150E060E070E011
:10235000C416D506E606F70640F0C41AD50AE60A02
:10236000F70A2F5F11962C3009F72F5F2D83C39446
:10237000CC82DF91CF911F910F91FF90EF90DF9072
:10238000CF90BF90AF909F908F907F906F90089567
:10239000CF92DF92EF92FF92C090CE01D090CF010A
:1023A000E090D001F090D1016C157D058E059F0560
:1023B00071F06B017C014CEE51E00E94F710C0926D
:1023C000CE01D092CF01E092D001F092D101FF90E6
:1023D000EF90DF90CF900895CF92DF92EF92FF922F
:1023E000CF936B017C019B01AC016EEF7FEF81E02D
:1023F00090E00E94D6279B01AC0160E074E284EF7C
:1024000090E00E941A28C0E0EC2FF0E0EE0FFF1FD2
:10241000EA5CFE4F80819181CF5F82179307A0F322
:10242000A7019601220F331F441F551FEC2FF0E028
:10243000EE0FFF1FEA5CFE4FA081B1810E94702861
:102440009B01AC0160E074E284EF90E00E941A28E6
:10245000309387002093860080918100C770887F29
:10246000C82BC093810081E0CF91FF90EF90DF9067
:10247000CF900895682F8DEE92E00C94230DCF93AA
:10248000DF931F92CDB7DEB7FC018185806269833F
:102490000E94E01D89E00E943A126981862F0E9405
:1024A0003A120E94EA1D8111FCCF0F90DF91CF916B
:1024B0000895CF93DF931F92CDB7DEB7FC018185DE
:1024C000806269830E94E01D83E10E943A12698163
:1024D000862F0E943A120E94EA1D8111FCCF0F90B4
:1024E000DF91CF910895FF920F931F93CF93DF93C6
:1024F0008C01C62FF42EFC0186858130B1F56585EF
:10250000C4FD6061C5FD6860C6FD6460C7FD6260B2
:10251000D62FFF2011F0D06A01C0D0626D2FC80104
:102520000E9459126D2F6F7DC8010E945912F80147
:102530006585C0FD6061C1FD6860C2FD6460C3FD6A
:102540006260C62FFF2011F0C06A01C0C0626C2F0C
:10255000C8010E9459126C2F6F7DC801DF91CF9185
:102560001F910F91FF900C945912607F70E0759548
:102570006795442311F0666001C06460F8018581AD
:1025800083FD02C0D0E001C0D0E8D62B6D2FC8017A
:102590000E943F126D2F6B7FC8010E943F12CF70C7
:1025A000CC0FCC0FCC0FFF2011F0C66001C0C4606F
:1025B000F801858183FD02C060E001C060E8C62BA0
:1025C0006C2FC8010E943F126C2F6B7FC801DF91F6
:1025D000CF911F910F91FF900C943F12FC01238526
:1025E000222319F041E00E94731281E090E00895E7
:1025F0001F920F920FB60F9211242F933F934F9378
:102600005F936F937F938F939F93AF93BF93EF935A
:10261000FF938091B900887F803609F49CC068F5EB
:10262000883209F45BC090F4803109F454C038F466
:10263000882309F4F6C0883009F44DC0F6C088310B
:1026400009F44CC0803209F45DC0EFC0803409F455
:1026500068C048F4803309F455C0883309F0E5C0F8
:102660008093C502D8C0803509F44FC0883509F47D
:102670005DC0883409F0D9C0D6C0883909F4C7C014
:10268000A8F4883709F467C038F4883609F463C0C1
:10269000803709F460C0C9C0883809F4B8C08039EF
:1026A00009F45FC0803809F0C0C05BC0803B09F40A
:1026B00086C038F4803A09F466C0883A09F47FC0CD
:1026C000B4C0803C09F4A7C0883C09F4A4C0883B8E
:1026D00009F48AC0AAC08091A20210C09091C402DD
:1026E0008091C302981770F5E091C40281E08E0FCB
:1026F0008093C402F0E0ED55FD4F80818093BB00D4
:1027000085EC86C08093C5028EC0E091C40281E052
:102710008E0F8093C4028091BB00F0E0ED55FD4F19
:1027200080839091C4028091C3026EC0E091C40284
:1027300081E08E0F8093C4028091BB00F0E0ED55E4
:10274000FD4F80838091C60281116DC081E080932E
:10275000A10284EA61C083E08093C7021092CD0198
:10276000CFCF8091CD01803208F051C0E091CD01F2
:1027700081E08E0F8093CD018091BB00F0E0E355A6
:10278000FE4F8083BDCF85EC8093BC001092C702C2
:102790008091CD01803230F4E091CD01F0E0E3553D
:1027A000FE4F10826091CD0170E0E091AB01F0919D
:1027B000AC018DEA91E009951092CD0136C084E01C
:1027C0008093C7021092AA011092A901E091A7017B
:1027D000F091A80109958091A901811105C081E0BE
:1027E0008093A90110928701E091AA0181E08E0FE8
:1027F0008093AA01F0E0E957FE4F80818093BB00EF
:102800009091AA018091A901981708F479CF85E8E1
:102810008093BC000AC085EC8093BC001092C70274
:1028200004C01092C5020E949D0CFF91EF91BF91D0
:10283000AF919F918F917F916F915F914F913F9158
:102840002F910F900FBE0F901F9018951092C702F6
:1028500081E08093C6021092A10261E082E10E94B1
:102860007B0D61E083E10E947B0DE9EBF0E080816C
:102870008E7F808380818D7F808388E48093B80001
:1028800085E48093BC000895CF92DF92EF92FF928F
:10289000CF93DF93EC016A017B0161E070E00E945D
:1028A000040564E070E089819A810E940405C09269
:1028B0007102D0927202E0927302F09274028881E7
:1028C00090E02F8D211103C028E130E002C020E20A
:1028D00030E0822B932B0E94D306E981FA8180811C
:1028E000886090E0DF91CF91FF90EF90DF90CF90E4
:1028F0000C94D3060F931F93CF93DF93EC018B8936
:102900009C89AD89BE89892B8A2B8B2B89F00E94EB
:10291000380E0B891C892D893E89DC01CB01801B77
:10292000910BA20BB30B85399141A105B105D8F4E8
:102930008F89988DA98DBA8D892B8A2B8B2B09F4C1
:1029400048C00E94380E0F89188D298D3A8DDC0100
:10295000CB01801B910BA20BB30B893B9B40A105C4
:10296000B10580F436C01B8A1C8A1D8A1E8A8881A4
:10297000806190E00E94D30661E070E0CE010E9489
:102980000606D6CF1F8A188E198E1A8E60E070E068
:10299000CE010E94060680915402882329F0888186
:1029A000886090E00E94D30689819A810E94EB059D
:1029B000E981FA81811104C085859685029749F4E1
:1029C00064E070E0CF01DF91CF911F910F910C94E3
:1029D0000405DF91CF911F910F910895CF92DF925F
:1029E000EF92FF920F931F93CF93DF936C017A01C5
:1029F0008B01C0E0D0E0CE15DF0589F0D8016D91E4
:102A00008D01D601ED91FC910190F081E02DC60180
:102A10000995892B11F47E0102C02196ECCFC701E4
:102A2000DF91CF911F910F91FF90EF90DF90CF90AA
:102A300008950E94EC2BCF92DF92EF92FF920F93BA
:102A40001F93CF93DF93CDB7DEB761970FB6F8949E
:102A5000DEBF0FBECDBF182F0E9402029C011123C2
:102A600029F00E94D11E109262023AC09091620237
:102A700090FF05C0A5E7B3E0E7E7F3E004C0A4E7F3
:102A8000B3E0E6E7F3E02130310521F022303105F3
:102A9000A9F0BDC0923018F0943010F507C08C91A9
:102AA0008F5F86300CF08BEF8C931AC08081815041
:102AB000863F14F0808314C0108212C09F5F9093F1
:102AC0006202943068F08DE593E00E94411F86E138
:102AD00096E1909311018093100110925A0297C0D1
:102AE0008091620280FF0BC009E611E045E7C42E29
:102AF00043E0D42E57E7E52E53E0F52E0AC007E653
:102B000011E024E7C22E23E0D22E36E7E32E33E095
:102B1000F32E823090F1843008F079C00E94D11EEB
:102B20006EE572E083EF91E00E94C22E83EF91E0A8
:102B30000E94921E61E080E00E94941EF701F080E6
:102B4000CF2C0F2C000CDD0860E572E083EF91E0E4
:102B50000E94C22EDF92FF921F930F9383EF91E0AA
:102B60009F938F931F9281E18F938E010F5F1F4F71
:102B70001F930F930E94F12B42C00E94D11E6BE75E
:102B800072E083EF91E00E94C22E83EF91E00E94F9
:102B9000921E61E080E00E94941EF6012081822F47
:102BA000022E000C990B97FF03C091958195910916
:102BB000D82EC92E27FD05C09DE6E92E91E0F92EFD
:102BC00004C08BE6E82E81E0F82E6BE672E083EF1E
:102BD00091E00E94C22ECF92DF92FF92EF921F935C
:102BE0000F9383EF91E09F938F931F9281E18F93D7
:102BF0008E010F5F1F4F1F930F930E94F12BC8018F
:102C00000E94921E0FB6F894DEBF0FBECDBF619634
:102C10000FB6F894DEBF0FBECDBFDF91CF911F91ED
:102C20000F91FF90EF90DF90CF900895CF93C82F32
:102C30000E940202CC2361F083E00E94E01E0E9409
:102C4000D11E87EE93E090936A02809369021FC0C1
:102C5000009709F443C281309105B1F48091670275
:102C60009091680201969093680280936702209188
:102C70006502309166022817390708F0DFC010920C
:102C8000680210926702DAC0029709F0D7C0E0919B
:102C90006902F0916A02E730F10508F066C0E05C75
:102CA000FF4F0C945B288091670280935F030CC0F8
:102CB000E0916702F0916802EE5AFE4F808190E049
:102CC00090936103809360038DE593E00E94411F20
:102CD0004CC08091670290916802892B09F045C031
:102CE0008EE799E0909311018093100181E0CF91DC
:102CF0000C947E0981E02091670230916802232BB9
:102D000009F080E080936203DFCF809167029091A9
:102D10006802892B51F58DE992E09093110180931F
:102D2000100181E0CF910C949D02809167029091F7
:102D30006802892BD1F48BE195E190931101809386
:102D4000100181E0CF910C941B1580916702909146
:102D50006802892B19F410925A02C0C187EE93E0E1
:102D600090936A0280936902B9C18091690290913F
:102D70006A0201968730910528F490936A02809345
:102D8000690204C010926A0210926902E09169021D
:102D9000F0916A02E730F10508F048C0E95BFF4FA7
:102DA0000C945B2880915F0390E09093680280937D
:102DB000670236C06091600370916103E2E5F1E063
:102DC00050E040E080E090E0219130E0621773072E
:102DD00011F4582F492F01968B309105A9F7509384
:102DE0006702409368028AE090E01CC081E090E0B6
:102DF000909366028093650290916203892790E028
:102E0000909368028093670211C081E090E09093F4
:102E100068028093670206C01092680210926702EF
:102E200081E090E090936602809365028091670252
:102E30009091680290936402809363020E94D11E75
:102E4000E0916902F0916A02E730F10508F046C1AD
:102E5000E25BFF4F0C945B286CE073E083EF91E042
:102E60000E94C22E83EF91E00E94921E61E080E0FA
:102E70000E94941E20916702309168028091630243
:102E8000909164022817390711F080E201C08BE2AB
:102E90000E94771F8091670290916802009731F03D
:102EA000019709F01BC16AEF72E00FC165E073E0A2
:102EB0000CC16BEE72E083EF91E00E94C22E83EFB3
:102EC00091E00E94921E61E080E00E94941E209199
:102ED0006702309168028091630290916402281722
:102EE000390711F080E201C08BE20E94771FE09168
:102EF0006702F0916802EE5AFE4F608170E080E058
:102F000090E04AE00E94821F65EE72E0DEC06AED4A
:102F100072E083EF91E00E94C22E83EF91E00E9465
:102F2000921E61E080E00E94941E20916702309121
:102F3000680280916302909164022817390711F0AA
:102F400080E201C08BE20E94771F8091670290911E
:102F50006802009731F0019709F0C0C063ED72E09C
:102F6000B4C066ED72E0B1C067EC72E083EF91E04F
:102F70000E94C22E83EF91E00E94921E61E080E0E9
:102F80000E94941E20916702309168028091630232
:102F9000909164022817390711F080E201C08BE29A
:102FA0000E94771F8091670290916802009731F02C
:102FB000019709F093C060EC72E087C063EC72E0A7
:102FC00084C061EB72E083EF91E00E94C22E83EF38
:102FD00091E00E94921E61E080E00E94941E209188
:102FE0006702309168028091630290916402281711
:102FF000390711F080E201C08BE20E94771F8091B7
:10300000670290916802009731F0019709F066C05D
:103010006AEA72E05AC06DEA72E057C06DE972E088
:1030200083EF91E00E94C22E83EF91E00E94921EF6
:1030300061E080E00E94941E209167023091680256
:1030400080916302909164022817390711F080E2A1
:1030500001C08BE20E94771F809167029091680205
:10306000009729F00197D1F566E972E02EC069E971
:1030700072E02BC06AE872E083EF91E00E94C22EFA
:1030800083EF91E00E94921E61E080E00E94941E16
:1030900020916702309168028091630290916402EE
:1030A0002817390711F080E201C08BE20E94771FD8
:1030B0008091670290916802009729F0019771F45E
:1030C00063E872E002C066E872E083EF91E00E947C
:1030D000C22E83EF91E0CF910C94921ECF91089570
:1030E0002F923F924F925F926F927F928F929F9218
:1030F000AF92BF92CF92DF92EF92FF920F931F9306
:10310000CF93DF93CDB7DEB72F970FB6F894DEBF1E
:103110000FBECDBFFC0183859485019721F4858581
:103120009685059749F51786108A118A128A16A680
:1031300017A610AA11AA12A613A614A615A616A2BF
:1031400017A210A611A62F960FB6F894DEBF0FBED9
:10315000CDBFDF91CF911F910F91FF90EF90DF9046
:10316000CF90BF90AF909F908F907F906F905F9027
:103170004F903F902F9008958081813021F44090AE
:1031800074034D8203C0509075035D82FF87EE8704
:103190000E94380E6E837F8388879987212C312C7B
:1031A000CC24CA94DC2C760119821A821B821C82E0
:1031B00000E010E0812C912C54010E94380EAB01EC
:1031C000BC01DB01CA014E805F8068847984841968
:1031D0009509A609B7098397A105B10508F088C02C
:1031E000AE85BF8519968C914C875D876A877B87F2
:1031F0000E94E70D2C01990F660877084C855D85C4
:103200006A857B85BFEFCB16DB06EB06FB0641F13B
:1032100081E0E1E0CE16E2E0DE06E104F1040CF428
:1032200080E091E0F1E04F16F2E05F066104710486
:103230000CF490E08917A1F0DB01CA01C980DA80A3
:10324000EB80FC808C199D09AE09BF090697A1058A
:10325000B10530F00F5F1F4F49835A836B837C8326
:103260000130110508F441C00330110520F003308E
:10327000110591F03AC0C301B20172508109910960
:103280009B01AC010E94D627860E971EA81EB91E70
:103290002FEF221A320A29C0910140E050E0C50107
:1032A000B4010E941A28CA01B9010E94D0290E94C3
:1032B000972B0E94A1299B01AC01AAE6B0E00E94D5
:1032C0007028693833E1730781059105A8F04D81B5
:1032D000A4E64A02600111240D2C000CEE08FF0840
:1032E000C60ED71EE81EF91E09C07301620165CF24
:1032F000C12CD12C760102C06B017C010E94380EDA
:10330000AE85BF855B960D911D912D913C915E9789
:103310002B013C01401A510A620A730A49EE441615
:1033200043E054066104710430F05B966D937D9325
:103330008D939C935E972091600330916103A8EE7A
:10334000B3E00E946128EE85FF8520A131A12330E2
:10335000310529F021E030E040E050E004C022E0F7
:1033600030E040E050E00E941A28DA01C90188519B
:103370009C4FAF4FBF4FEE85FF858C159D05AE0569
:10338000BF0508F045C087859089A189B289892B3E
:103390008A2B8B2B59F40E94380EAE85BF851F9661
:1033A0006D937D938D939C93529736C00E94380EF7
:1033B000EE85FF850785108921893289DC01CB01E3
:1033C000801B910BA20BB30B813A9F40A105B10565
:1033D00018F1AE85BF858C91886690E02F960FB668
:1033E000F894DEBF0FBECDBFDF91CF911F910F913B
:1033F000FF90EF90DF90CF90BF90AF909F908F9015
:103400007F906F905F904F903F902F900C946C073F
:103410001786108A118A128A0E94380E0E94D029BB
:103420004B015C01C701B6010E94D0292B013C0170
:10343000AE85BF859E96CD90DD90ED90FC90D197A6
:10344000C982DA82EB82FC82A5019401C701B60130
:103450000E9483286B017C0120E030E0A9010E94DA
:10346000A92A181624F4F7FAF094F7F8F094EE85E8
:10347000FF8522A133A144A155A1C701B6010E9435
:10348000F5280E946F296B017C0129813A814B81CB
:103490005C81C501B4010E94A92A181694F5AE8575
:1034A000BF859A962D913D914D915C919D97C70155
:1034B000B6010E94242BA30192010E948428EE856C
:1034C000FF8562A773A784A795A726A137A140A56A
:1034D00051A5C701B6010E94242B20E030E040E84E
:1034E0005FE30E948428AE85BF8596966D937D9399
:1034F0008D939C939997FD0186A697A6A0AAB1AA41
:1035000028C0A3019201C701B6010E94242B9B0190
:10351000AC01AE85BF859A966D917D918D919C9100
:103520009D970E948428EE85FF8562A773A784A7D4
:1035300095A7A701960166A177A180A591A50E94F4
:103540008428AE85BF8596966D937D938D939C93CD
:103550009997EE85FF858081880F880F880F61E03D
:1035600088500E94941EAE85BF858C91805C0E941D
:10357000771F8AE30E94771FEE85FF85C6A0D7A03C
:10358000E0A4F1A420E030E0A901C701B6010E9447
:10359000A92A18165CF42DEB37E346E855E3C7017A
:1035A000B6010E94F02887FF0BC017C02DEB37E350
:1035B00046E855EBC701B6010E94A92A18166CF01F
:1035C000A7019601AE85BF859A966D917D918D91EB
:1035D0009C919D970E94F52803C060E070E0CB01AC
:1035E0000E94A1296B017C012AE030E040E050E01C
:1035F0000E941A28B8EECB16B3E0DB06E104F10412
:10360000B8F46BE173E083EF91E02A873B874C8746
:103610005D870E94C22EAAE0B0E02A853B854C85DA
:103620005D850E9470289F938F937F936F9331C025
:10363000CA01B90124E630E040E050E00E941A28B7
:10364000CB016AE070E00E94062821E030E0059797
:1036500014F420E030E05B01A20EB31EC701B601F6
:1036600028EE33E040E050E00E941A288901FAE099
:10367000AF16B10421F40F5F1F4FA12CB12C62E2F1
:1036800073E083EF91E00E94C22EBF92AF921F932E
:103690000F9383EF91E09F938F938BE692E09F933C
:1036A0008F930E94212C0FB6F894DEBF0FBECDBFC2
:1036B0008BE692E02F960FB6F894DEBF0FBECDBF1B
:1036C000DF91CF911F910F91FF90EF90DF90CF90FE
:1036D000BF90AF909F908F907F906F905F904F9032
:1036E0003F902F900C94921ECF92DF92EF92FF9218
:1036F0000F931F93CF93DF93EC018B0180915402C2
:103700008111DFC18D859E858530910509F42AC21E
:103710006817790709F4B1C180915F03882321F00C
:10372000813009F4A3C031C27E876D876530710591
:1037300040F46330710508F049C06130710530F420
:1037400024C26530710509F486C11FC260E070E0D3
:10375000CE010E9406060130110549F089819A8147
:103760000E94EB05811106C064E070E005C061E0D5
:1037700070E002C063E070E0CE010E940405888121
:1037800090E00130110519F028E030E002C020E09F
:1037900030E0822B932B0E94D3061B8A1C8A1D8A41
:1037A0001E8A89819A81FC0120A131A12330310533
:1037B00009F0EBC164E070E0DF91CF911F910F91B0
:1037C000FF90EF90DF90CF900C940405CE010E9403
:1037D000EB058111DAC189819A810E94EB0588236A
:1037E000F1F00E94380E6B8B7C8B8D8B9E8B63E08F
:1037F00070E089819A810E94040563E070E0CE0147
:103800000E9404058881886190E0DF91CF911F912B
:103810000F91FF90EF90DF90CF900C94D3068981A9
:103820009A81FC0120A131A12430310521F463E00B
:1038300070E00E94040564E070E0CE010E9404057F
:103840001B8A1C8A1D8A1E8A8881806190E00E94E2
:10385000D30661E070E0CE01DF91CF911F910F910F
:10386000FF90EF90DF90CF900C940606E981FA81EB
:10387000E584F6846530710558F46330710508F00D
:10388000CAC06130710549F06230710591F1F2C032
:103890006530710509F4DFC0EDC060E070E0CE0175
:1038A0000E94060661E070E0CE010E9404051092BD
:1038B0007102109272021092730210927402F2E07E
:1038C000EF16F10469F464E070E089819A810E9446
:1038D0000405E981FA818081886090E00E94D30626
:1038E000888190E00E94D3061F8EE981FA81178EAD
:1038F000C1C060E070E0CE010E9406068D859E8505
:103900000397029708F044C022E0E216F10491F513
:10391000E981FA81878D81110BC061E070E0CE01F1
:103920000E94040564E070E089819A810E94040588
:10393000E981FA81808190E0278D211103C028E080
:1039400030E002C020E230E0822B932B0E94D306AD
:103950008881806290E00E94D30681E08F8F0E9470
:10396000380E609371027093720280937302909389
:10397000740280C08881886090E00E94D306109213
:10398000710210927202109273021092740272C04D
:1039900081E0E816F10491F464E070E0CE010E9449
:1039A00004051F8EE981FA81178E10927102109220
:1039B000720210927302109274021BC0E894E1F834
:1039C0008881EF28E1F4909153029813DEC09F8D17
:1039D000911115C064E070E0CE010E9404050E94C0
:1039E000380E609371027093720280937302909309
:1039F00074028881886090E00E94D3063BC090E00A
:103A00002F8D211103C028E130E002C020E230E018
:103A1000822B932BF1CFCE010E94EB0581112AC09E
:103A200088A199A1049721F08881886E90E018C040
:103A3000109271021092720210927302109274022C
:103A40008881806190E00E94D30661E070E0CE0141
:103A50000E9406060FC08881886290E080649160B1
:103A6000DF91CF911F910F91FF90EF90DF90CF905A
:103A70000C946C071E870D8788C0C0907D02D09083
:103A80007E02E0907F02F0908002C114D104E10434
:103A9000F10409F47AC00E94380EECE3CE0ED11C7A
:103AA000E11CF11CC616D706E806F90608F06DC041
:103AB00010920703109206031092390310923803F4
:103AC00064C06130710509F05CC0888190E00E949B
:103AD000D3061E870D878F89988DA98DBA8D892B66
:103AE0008A2B8B2BA9F01F8A188E198E1A8E60E0F4
:103AF00070E0CE010E94060689819A810E94EB0542
:103B0000E981FA81811128C085859685029721F186
:103B1000809154028823C9F102301105B1F58D85D9
:103B20009E85019729F48881809353021E870D8713
:103B30002881822F886090E030915F03313039F422
:103B400030915302321303C024E030E002C020E081
:103B500030E0822B932B59CE64E070E0CF010E94BD
:103B60000405D6CF6130710561F41E861D86E9819A
:103B7000FA8185859685019709F0ADCF1092EB010A
:103B8000AACF0230110509F4A6CFDF91CF911F9182
:103B90000F91FF90EF90DF90CF900895009769F01C
:103BA000FC0101900020E9F73197AF01481B590B48
:103BB000BC0188E793E00C94EE1480E090E0089557
:103BC00091E09093E802809387031092EA021092AA
:103BD000E90208952091E90290918703213208F0CB
:103BE0004AC08091C7028111FCCF32E03093C702F6
:103BF00031E03093C6023FEF3093C5021092C40209
:103C00002093C302A8ECB2E043EA52E0FA013E2F4F
:103C1000341B321718F43D913193F9CF1092A20260
:103C20002091A202990F922B9093A2029091A1024F
:103C3000913061F41092A1029091A2029093BB0086
:103C40009091BC0093FDF8CF95EC01C095EE909358
:103C5000BC009091C7029230E1F39091C5029F3F62
:103C600079F08091C502803241F08091C5028033A5
:103C700031F084E005C081E003C082E001C083E050
:103C80001092EA021092E9021092E80208959091CF
:103C9000C7029111FCCF613208F060E291E090938D
:103CA000C7029093C6022FEF2093C5021092C40260
:103CB000260F2093C3029093A2029091A202880F34
:103CC000892B8093A2028091A102813061F410922D
:103CD000A1028091A2028093BB008091BC0083FD71
:103CE000F8CF85EC01C085EE8093BC008091C702BF
:103CF0008130E1F38091C402861710F46091C40210
:103D0000A3EAB2E021E832E0F9018E2F821B861788
:103D100018F48D918193F9CF1092EC026093EB022D
:103D2000862F08950C94CE1DCF93DF93CDB7DEB7C9
:103D300028970FB6F894DEBF0FBECDBF2091830346
:103D4000222331F128E0EEE1F1E0DE01119601904D
:103D50000D922A95E1F720917F03261710F46FEF5B
:103D6000620FFE013196E60FF11DE60FF11D908105
:103D7000682F690F606840E088E793E028960FB6E7
:103D8000F894DEBF0FBECDBFDF91CF910C947312BC
:103D900028960FB6F894DEBF0FBECDBFDF91CF914E
:103DA000089580918303882351F040E061E088E723
:103DB00093E00E9473128BE39FE10197F1F708955E
:103DC000CF93DF9390918303992309F457C0909187
:103DD0008203992311F097E089279091860391300F
:103DE000C1F580FD03C020EC31E002C020E831E0E5
:103DF000309385032093840381FF09C020918403BD
:103E0000309185032F77309385032093840382FFBD
:103E100009C080918403909185039E7F90938503D0
:103E200080938403D0918403C091850380918103A2
:103E300080620E94E01D82E10E943A128D2F0E9452
:103E40003A128C2F0E943A120E94EA1D8111FCCF77
:103E500015C090917D03882311F0986001C0977F71
:103E600090937D0380917D03682F687083FD60E8E7
:103E700088E793E0DF91CF910C943F12DF91CF91CF
:103E80000895CF92DF92EF92FF920F931F93CF93FB
:103E9000DF931F92CDB7DEB77C018C01C12CD12CF2
:103EA000F80161918F01C60169830E94C92E698161
:103EB000681719F0C6010E94D12EFFEFCF1ADF0A52
:103EC0008BE1C816D10461F7C7010F90DF91CF9144
:103ED0001F910F91FF90EF90DF90CF90089580E1B8
:103EE000E1E7F2E0DF011D928A95E9F70895E0919C
:103EF0007803F09179030190F081E02D682F88E735
:103F000093E009948F929F92AF92BF920F931F9369
:103F1000CF93DF93CDB7DEB7A1970FB6F894DEBF8E
:103F20000FBECDBF19A2423008F44AE08E010F5DEA
:103F30001F4F842E912CA12CB12CA50194010E941D
:103F40001A28E62FB901CA0101501109EA3014F408
:103F5000E05D01C0E95CD801EC93232B242B252BD9
:103F600061F7C8010E94CE1DA1960FB6F894DEBF7E
:103F70000FBECDBFDF91CF911F910F91BF90AF903A
:103F80009F908F900895CF92DF92EF92FF920F93C0
:103F90001F93CF93E82F880FFF0BE45DFC4FE49154
:103FA0008DEF8E0F823068F468EE73E080E090E071
:103FB000CF911F910F91FF90EF90DF90CF900C94D5
:103FC000EC11E83091F5C0E00FE110E0C12C94E273
:103FD000D92E94EFE92EF12CCF5FEC2FF0E0EE0F0D
:103FE000FF1FEA5DFE4F8081918180179107A0F34A
:103FF0008C019C01A0EDB7E00E9461289B01AC01FF
:10400000C701B6010E941A282F3F3105410551050D
:1040100009F010F72093B3008091B100C770887F3A
:10402000C82BC093B10081E001C080E0CF911F9107
:104030000F91FF90EF90DF90CF900895CF93DF9393
:10404000CDB7DEB767970FB6F894DEBF0FBECDBF12
:10405000789484B5826084BD84B5816084BD85B563
:10406000826085BD85B5816085BD80916E0081606F
:1040700080936E0010928100809181008260809315
:104080008100809181008160809381008091800017
:104090008160809380008091B10084608093B10042
:1040A0008091B00081608093B00080917A0084603C
:1040B00080937A0080917A00826080937A00809168
:1040C0007A00816080937A0080917A008068809382
:1040D0007A001092C10014BE9EE088E10FB6F894F9
:1040E000A895809360000FBE90936000809180003F
:1040F0008C7F8093800080918100877E8061809397
:10410000810064EF71E080E090E00E94EC1180910A
:10411000B0008C7F81608093B0008091B100886096
:104120008093B10010E07EE3E72EF12C812CE4E2D5
:104130009E2EE4EFAE2EB12C1F5FE12FF0E0EE0FCC
:10414000FF1FEA5DFE4F808191818E159F05A0F3D0
:104150007C019C01A8EEB3E00E9461289B01AC01A8
:10416000C501B4010E941A282F3F310541055105B0
:1041700009F010F72093B3008091B1001770887F89
:10418000182B1093B10081E08093860362E370E006
:1041900080E090E00E94FE0D1092EC021092EB0283
:1041A0001092EA021092E9020E942614909186036E
:1041B000809181038062913069F50E94E01D80E06A
:1041C0000E943A128FE10E943A120E94EA1D88234F
:1041D00039F080918303823019F410928303EDC08B
:1041E0008091810380620E94E01D8CE00E943A125F
:1041F0008FE10E943A120E94EA1D882321F08091EB
:104200008303823051F38091810380620E94E01D1C
:1042100081E032C00E94E01D80E00E943A128FEFE0
:104220000E943A1280E00E943A1280E00E943A1204
:1042300080E00E943A1280E00E943A1280E00E94E0
:104240003A1280E00E943A1280E00E943A1280E026
:104250000E943A1280E00E943A120E94EA1D8823CE
:1042600029F080918303823009F4B7CF80918103D4
:1042700080620E94E01D80E00E943A1280E00E946D
:104280003A120E94EA1D882329F08091830382302C
:1042900009F4A3CF80918303823019F481E08093E5
:1042A000830380917C03886080937C0382E0809309
:1042B0007F0310928003809186038130E1F4109295
:1042C00085031092840313E068E388E793E00E947B
:1042D000591268E188E793E00E9459121150A1F742
:1042E00068E288E793E00E94591268E088E793E06B
:1042F0000E94591228C06CE988E793E00E943F129F
:1043000068E988E793E00E943F126CE988E793E050
:104310000E943F1268E988E793E00E943F126CE92F
:1043200088E793E00E943F1268E988E793E00E94E3
:104330003F1264E988E793E00E943F1260E988E752
:1043400093E00E943F1265E070E080E090E00E9400
:10435000FE0D60917C03606240E088E793E00E947C
:10436000731265E070E080E090E00E94FE0D6091C5
:104370007C03606240E088E793E00E94731265E08E
:1043800070E080E090E00E94FE0D8CE080937D0361
:1043900080918303882331F040E06CE088E793E06C
:1043A0000E9473120E94D11E82E080937E0340E03F
:1043B00066E088E793E00E94731287E00E94E01EA7
:1043C0000E94D11E60E080E00E94941E6FE072E0C7
:1043D00083EF91E00E94C22E83EF91E00E94921E33
:1043E00061E081E00E94941E6BE072E083EF91E057
:1043F0000E94C22E83EF91E00E94921E80E20E94F2
:10440000771F65E072E083EF91E00E94C22E83EF98
:1044100091E00E94921E80ED97E00E94E90161E028
:1044200081E00E94941E61E072E083EF91E00E94BF
:10443000C22E83EF91E00E94921E80E20E94771FBD
:1044400067EF71E083EF91E00E94C22E83EF91E06D
:104450000E94921E08E010E080E20E94771F015047
:104460001109D1F761E083E00E94AB0D60E083E0C9
:104470000E947B0D60E082E00E94AB0D8BEC91E02E
:1044800090930D0180930C0180916900836080936B
:104490006900E89A61E08AE00E94AB0D61E089E082
:1044A0000E94AB0D61E088E00E94AB0D61E087E007
:1044B0000E94AB0D60E081E10E94AB0D60E080E105
:1044C0000E94AB0D61E070E089EF92E00E9404056C
:1044D00061E070E08BE293E00E94040560E070E030
:1044E00089EF92E00E94060660E070E08BE293E0C4
:1044F0000E9406060E946F1F1092550210925602EB
:1045000010925702109258021092EB0183E690E04D
:1045100090935C0280935B0281E0809353028DE470
:1045200090E19093EA018093E9018091E5019091F7
:10453000E601A091E701B091E8018093E101909339
:10454000E201A093E301B093E4010E94030F809184
:104550006303682F082E000C770B77FF03C071955B
:1045600061957109162F1F7187FF106288E60E94FE
:10457000E01D67E08DEE92E00E94230D612F8DEE2D
:1045800092E00E94230D0E94EA1D8AE00E94C31F50
:10459000811103C083E00E94E01E89E00E94C31FD6
:1045A000811103C084E00E94E01E80ED97E00E942C
:1045B000E9010E94D11E0E94840681E10E94520DF1
:1045C00001E0019709F000E080E10E94520D11E046
:1045D000019709F010E0011102C01123F9F081E008
:1045E0000E94E01E0E94D11E67EE71E083EF91E011
:1045F0000E94C22E83EF91E00E94921E61E080E053
:104600000E94941E002319F081E40E94771F112359
:1046100019F082E40E94771F0E943B0640E8842E36
:1046200041E5942EAA24A394B12C57E0452E512C99
:10463000612C712C3324339431E1232EA895809181
:104640005A02882339F0E0911001F091110180E0C5
:104650000995A3C280915902882331F088EA90E03D
:104660000E946C0710925902809155029091560257
:10467000A0915702B0915802892B8A2B8B2B81F580
:1046800081E10E94520D019739F4809104039091C9
:104690000503892B09F489C280E10E94520D01971C
:1046A00039F48091360390913703892B09F482C243
:1046B00081E10E94520D892B39F48091040390917D
:1046C0000503019709F47BC280E10E94520D892BFA
:1046D00039F48091360390913703019709F474C23D
:1046E0008091550290915602A0915702B0915802C4
:1046F000892B8A2B8B2BA1F00E94380E009155023A
:104700001091560220915702309158020C501E4FC2
:104710002F4F3F4F061717072807390708F459C2CC
:104720008091060390910703059731F0809138033B
:1047300090913903059711F481E01AC089EF92E056
:104740000E94EB05182F8BE293E00E94EB051111FC
:104750000AC081110CC080915402811102C082E014
:1047600007C083E005C0882311F085E001C086E022
:104770000E94E01E9091610280915402992309F4F5
:1047800058C0811153C00E946F1F80915F03813018
:1047900099F48091190390911A03049719F43092B7
:1047A00053020AC080914B0390914C030497B9F7D0
:1047B00022E0E22EE092530261E070E089EF92E0A5
:1047C0000E94040561E070E08BE293E00E94040522
:1047D0000E94380E609310037093110380931203AC
:1047E00090931303109207031092060310920C0388
:1047F00010920D0310920E0310920F0310921803E3
:104800006093420370934303809344039093450362
:10481000109239031092380310923E0310923F0316
:10482000109240031092410310924A0330925402B6
:104830000EC0882351F010920703109206031092C5
:104840003903109238030E946F1F1092540260E0E7
:1048500080E00E94941E88E60E94E01D60E08DEEDC
:1048600092E00E94230D0E94EA1D61E070E088E65C
:1048700090E00E94471E8DEE92E00E94DF0C87FDC3
:1048800045C00E94D6070E94C8118091EE0190E0B9
:104890000C971CF491E4F92E02C080E5F82E0E94DA
:1048A000D6070E94C811E090ED010E94D6070E9431
:1048B000C8118091EE01882339F0082F10E08D3067
:1048C00028F00C50110902C00CE010E063E472E023
:1048D00083EF91E00E94C22E1F92FF921F92EF92EF
:1048E0001F930F9383EF91E09F938F931F922F92CB
:1048F00001E010E00C0F1D1F1F930F930E94F12B7E
:104900000FB6F894DEBF0FBECDBF1AC06AE372E0E7
:1049100083EF91E00E94C22E83EF91E09F938F93EB
:104920001F922F9241E050E04C0F5D1F5F934F9319
:104930000E94F12B0F900F900F900F900F900F90FF
:10494000CE0101960E94921E80915402882319F094
:1049500061E372E018C06EE272E083EF91E00E94C2
:10496000C22E83EF91E00E94921E80915F03882304
:1049700029F0813031F460E272E005C067E272E054
:1049800002C06CE172E083EF91E00E94C22E83EFDF
:1049900091E00E94921E89EF92E00E94A6046C01B1
:1049A000BC0189EF92E00E94741B8BE293E00E94AD
:1049B000A6049F8B8E8BBC018BE293E00E94741B3C
:1049C0008091710290917202A0917302B091740271
:1049D000892B8A2B8B2B61F10E94380EAB01BC0115
:1049E0008091710290917202A0917302B091740251
:1049F0007A018B01E81AF90A0A0B1B0B21EEE21669
:104A000023E9F2060440110598F080911903909172
:104A10001A03049719F489EF92E008C080914B03C0
:104A200090914C03049721F48BE293E00E9444148C
:104A30000E94380EE0905D02F0905E0200915F02ED
:104A4000109160029B01AC012E193F09400B510BE4
:104A500021363A4E4105510540F060935D02709356
:104A60005E0280935F029093600289EF92E00E9461
:104A700070188BE293E00E94701889EF92E00E9418
:104A80007A148BE293E00E947A140E9402029C0145
:104A9000019731F490915402B1E09B279093610209
:104AA000CA94CD28A9F40E891F890130110581F41B
:104AB0002230310569F430925A02109207031092A5
:104AC0000603109239031092380381E00E941616F3
:104AD00000915B0210915C020E94D6070E94C811EF
:104AE0008091ED0190E00817190709F456C00E9463
:104AF000D6070E94C8118091ED0190E090935C026E
:104B000080935B020E94D6076B017C010E94C81152
:104B10000091EE01C701B6010E94C8111091ED018C
:104B2000C701B601A50194010E941A28CA01B90162
:104B30006C5F7F4F8F4F9F4FA30192010E941A28F5
:104B400081E001C0880F6A95EAF720E030E0F901C2
:104B5000E35AFC4F9285992371F0478140130BC0B3
:104B60004085411308C04185482329F0913049F020
:104B7000923071F012C02C5F3F4F2031310539F770
:104B80000CC080915402811108C09093610205C04D
:104B90008091540281111092610220E030E0232BB9
:104BA00009F44CCD0E94000047CD89E291E00E94BB
:104BB0006C0772CD8AE291E00E946C0779CD8AE29F
:104BC00090E00E946C0780CD8AE290E00E946C0722
:104BD00087CD1092550210925602109257021092F1
:104BE00058029ECD0F931F93CF93DF931092EC0248
:104BF0001092EB021092EA021092E9020E9426142F
:104C00001092F0021092EF0288EE93E0A0E0B0E084
:104C10008093F1029093F202A093F302B093F40216
:104C200086E491E09093EE028093ED0210927B0374
:104C300010927A0381E691E0909379038093780350
:104C400082E0809383031092820380E28093810349
:104C500010927C03109286031092740310927503D5
:104C600010927603109277030DE513E0C0E0D0E0D8
:104C7000CE010E94C92EF80181938F012196CB317C
:104C8000D105B1F780915D0390915E03813F91055D
:104C900009F444C081EF90E090935E0380935D033C
:104CA00010925F038CE090E0909361038093600327
:104CB00081E0809362031092630380E090E0FC0146
:104CC000E35AFC4F128617821086118604968031B3
:104CD0009105A9F78EE380936A038093660387E1C9
:104CE0008093640387E08093680381EC80936E0374
:104CF00083E180936C038FEF809372038FE0809346
:104D00007003109274031092750310927603109240
:104D100077038DE593E00E94411F65C080915F039A
:104D2000823010F010925F03409160035091610354
:104D3000E2E5F1E020E081E0ED35F80739F081911E
:104D400090E084179507B9F721E0F5CF211106C04F
:104D50008CE090E09093610380936003E7E6F3E0DA
:104D60008081833008F01082DF0113978C918831A5
:104D700008F01C92DF0112978C918C3308F01C9282
:104D8000DF018E918F778C93349683E0E737F807B5
:104D900039F780917403082E000C990B97FF03C01C
:104DA000919581959109069714F010927403809162
:104DB0007503082E000C990B97FF03C09195819500
:104DC0009109069714F01092750380917603865F1F
:104DD0008B3010F01092760380917703865F8B30D2
:104DE00010F01092770381E08093F9028BE293E058
:104DF0009093FB028093FA0288E090E09093FD028A
:104E00008093FC028AE090E09093FF028093FE0280
:104E100081E090E0909301038093000327E030E06D
:104E200030930303209302031092050310920403AE
:104E300010920703109206031092080310920903C0
:104E400010920A0310920B0310920C0310920D03A0
:104E500010920E0310920F03109210031092110380
:104E60001092120310921303109214031092150360
:104E700010921603109217031092180310921A033F
:104E8000109219038EEA90E4A7E0B5E480931B0327
:104E900090931C03A0931D03B0931E03109227034D
:104EA000109228031092290310922A0310922303D0
:104EB00010922403109225031092260310921F03D0
:104EC00010922003109221031092220342E040939B
:104ED0002B0349EF52E050932D0340932C03309362
:104EE0002F0320932E0329E030E0309331032093E9
:104EF0003003109233031092320326E030E03093F7
:104F00003503209334031092370310923603109226
:104F100039031092380310923A0310923B03109217
:104F20003C0310923D0310923E0310923F031092F7
:104F300040031092410310924203109243031092D7
:104F400044031092450310924603109247031092B7
:104F500048031092490310924A0310924C03109296
:104F60004B0380934D0390934E03A0934F03B09354
:104F700050031092590310925A0310925B0310923F
:104F80005C0310925503109256031092570310922F
:104F9000580310925103109252031092530310922F
:104FA0005403DF91CF911F910F910895DB018F93EF
:104FB0009F930E947028BF91AF91A29F800D911D79
:104FC000A39F900DB29F900D11240895991B79E035
:104FD00004C0991F961708F0961B881F7A95C9F789
:104FE00080950895AA1BBB1B51E107C0AA1FBB1FD8
:104FF000A617B70710F0A61BB70B881F991F5A9565
:10500000A9F780959095BC01CD01089597FB072ED7
:1050100016F4009407D077FD09D00E94F22707FC10
:1050200005D03EF4909581959F4F089570956195B8
:105030007F4F0895A1E21A2EAA1BBB1BFD010DC0D4
:10504000AA1FBB1FEE1FFF1FA217B307E407F50738
:1050500020F0A21BB30BE40BF50B661F771F881F14
:10506000991F1A9469F760957095809590959B01AA
:10507000AC01BD01CF010895052E97FB1EF40094ED
:105080000E94532857FD07D00E941A2807FC03D01E
:105090004EF40C94532850954095309521953F4FF0
:1050A0004F4F5F4F089590958095709561957F4F14
:1050B0008F4F9F4F0895EE0FFF1F0590F491E02D45
:1050C0000994A29FB001B39FC001A39F700D811DE1
:1050D0001124911DB29F700D811D1124911D089501
:1050E0000E946128A59F900DB49F900DA49F800DF4
:1050F000911D11240895B7FF0C9470280E94702808
:10510000821B930B08955058BB27AA270E949B2807
:105110000C946F2A0E94612A38F00E94682A20F0BD
:1051200039F49F3F19F426F40C94372A0EF4E095D5
:10513000E7FB0C94312AE92F0E94802A58F3BA1712
:10514000620773078407950720F079F4A6F50C949D
:10515000A22A0EF4E0950B2EBA2FA02D0B01B90157
:1051600090010C01CA01A0011124FF27591B99F0DD
:10517000593F50F4503E68F11A16F040A22F232FE9
:10518000342F4427585FF3CF469537952795A79539
:10519000F0405395C9F77EF41F16BA0B620B730BE0
:1051A000840BBAF09150A1F0FF0FBB1F661F771F51
:1051B000881FC2F70EC0BA0F621F731F841F48F406
:1051C000879577956795B795F7959E3F08F0B0CF8F
:1051D0009395880F08F09927EE0F97958795089576
:1051E0000E940D2A08F481E008950E9409290C9478
:1051F0006F2A0E94682A58F00E94612A40F029F420
:105200005F3F29F00C94312A51110C94A32A0C947D
:10521000372A0E94802A68F39923B1F3552391F32A
:10522000951B550BBB27AA2762177307840738F015
:105230009F5F5F4F220F331F441FAA1FA9F335D072
:105240000E2E3AF0E0E832D091505040E695001C26
:10525000CAF72BD0FE2F29D0660F771F881FBB1FE0
:10526000261737074807AB07B0E809F0BB0B802DBE
:10527000BF01FF2793585F4F3AF09E3F510578F0EA
:105280000C94312A0C94A32A5F3FE4F3983ED4F3A4
:10529000869577956795B795F7959F5FC9F7880FBE
:1052A000911D9695879597F90895E1E0660F771F10
:1052B000881FBB1F621773078407BA0720F0621BA1
:1052C000730B840BBA0BEE1F88F7E095089529F451
:1052D00016F00C94312A0C94A22A0C94372A0E94BE
:1052E000882AA8F39638A0F707F80F92E8942BE3E2
:1052F0003AEA48EB5FE70E943A2B0F920F920F9227
:105300004DB75EB70F920E94F02AEAEAF0E00E94E1
:105310003A2A4F915F91EF91FF91E595EE1FFF1FA4
:1053200049F0FE57E0684427EE0F441FFA95E1F775
:105330004195550B0E94BA2A0F9007FE0C94AE2A95
:1053400008950E94882A88F09F5798F0B92F9927CE
:10535000B751B0F0E1F0660F771F881F991F1AF060
:10536000BA95C9F714C0B13091F00E94A22AB1E0F9
:1053700008950C94A22A672F782F8827B85F39F0F8
:10538000B93FCCF3869577956795B395D9F73EF4F9
:1053900090958095709561957F4F8F4F9F4F0895A1
:1053A000E89409C097FB3EF49095809570956195BF
:1053B0007F4F8F4F9F4F9923A9F0F92F96E9BB2775
:1053C0009395F695879577956795B795F111F8CFF1
:1053D000FAF4BB0F11F460FF1BC06F5F7F4F8F4F5C
:1053E0009F4F16C0882311F096E911C0772321F052
:1053F0009EE8872F762F05C0662371F096E8862FEA
:1054000070E060E02AF09A95660F771F881FDAF740
:10541000880F9695879597F90895990F0008550F6D
:10542000AA0BE0E8FEEF16161706E807F907C0F02A
:1054300012161306E407F50798F0621B730B840B32
:10544000950B39F40A2661F0232B242B252B21F40C
:1054500008950A2609F4A140A6958FEF811D811DAC
:10546000089597F99F6780E870E060E008959FEFE6
:1054700080EC0895DF93CF931F930F93FF92EF92E9
:10548000DF927B018C01689406C0DA2EEF010E9446
:10549000372BFE01E894A5912591359145915591C1
:1054A000A6F3EF010E949B28FE019701A801DA9460
:1054B00069F7DF90EF90FF900F911F91CF91DF91EF
:1054C000089500240A94161617061806090608956A
:1054D00000240A9412161306140605060895092ED0
:1054E0000394000C11F4882352F0BB0F40F4BF2B3F
:1054F00011F460FF04C06F5F7F4F8F4F9F4F08957F
:1055000057FD9058440F551F59F05F3F71F0479574
:10551000880F97FB991F61F09F3F79F08795089559
:10552000121613061406551FF2CF4695F1DF08C078
:10553000161617061806991FF1CF86957105610595
:1055400008940895E894BB2766277727CB0197F93D
:1055500008950E940D2A08F48FEF08959B01AC0175
:1055600060E070E080E89FE30C94F5280C94312A09
:105570000C94D72B0E94882AD8F39923C9F3940F4F
:10558000511DA3F39150504094F059F0882332F00C
:10559000660F771F881F91505040C1F79E3F5105FD
:1055A0002CF7880F911D9695879597F908955F3F81
:1055B000ACF0983E9CF0BB27869577956795B7959C
:1055C00008F4B1609395C1F7BB0F58F711F460FF71
:1055D000E8CF6F5F7F4F8F4F9F4FE3CF0C94A32A8D
:1055E000FA01DC01AA0FBB1F9B01AC01BF5728F4D5
:1055F000222733274427507820C0B75190F4AB2F8F
:105600000024469537952795011CA395D2F30020D9
:1056100071F0220F331F441FB395DAF30ED00C94B0
:10562000832861307105A0E88A07B94630F49B01F0
:10563000AC016627772788279078309621F0208361
:1056400031834283538308950E94372B0C946F2A31
:105650000E94612A38F00E94682A20F0952311F0F8
:105660000C94312A0C94372A11240C94A32A0E94FA
:10567000802A70F3959FC1F3950F50E0551F629FEC
:10568000F001729FBB27F00DB11D639FAA27F00D9B
:10569000B11DAA1F649F6627B00DA11D661F829FC2
:1056A0002227B00DA11D621F739FB00DA11D621FA7
:1056B000839FA00D611D221F749F3327A00D611DC4
:1056C000231F849F600D211D822F762F6A2F1124A6
:1056D0009F5750409AF0F1F088234AF0EE0FFF1FD9
:1056E000BB1F661F771F881F91505040A9F79E3F30
:1056F000510580F00C94312A0C94A32A5F3FE4F307
:10570000983ED4F3869577956795B795F795E79585
:105710009F5FC1F7FE2B880F911D9695879597F98E
:10572000089519F416F40C94372A0C94D72B0E9480
:10573000882AB8F39923C9F3B6F39F57550B87FF0F
:105740000E94E52B0024A0E640EA9001805856957F
:10575000979528F4805C660F771F881F20F0261726
:105760003707480730F4621B730B840B202931295B
:105770004A2BA69517940794202531254A2758F7D8
:10578000660F771F881F20F026173707480730F469
:10579000620B730B840B200D311D411DA09581F709
:1057A000B901842F9158880F9695879508959F3F4A
:1057B00031F0915020F4879577956795B795880FCC
:1057C000911D9695879597F9089591505040660FD1
:1057D000771F881FD2F7089581E090E0F8940C9429
:1057E000162FAEE0B0E0E7EFFBE20C94ED2E0D8952
:1057F0001E898F89988D26E02C831A83098397FF51
:1058000002C080E090E801979E838D83AE01455EE3
:105810005F4F698D7A8DCE0101960E94442C4D8197
:105820005E8157FD0AC02F813885421753070CF45B
:105830009A01F801E20FF31F10822E96E4E00C9417
:10584000092FAEE0B0E0E7E2FCE20C94ED2E0D890A
:105850001E8986E08C831A8309838FEF9FE79E83DE
:105860008D83AE01475E5F4F6F89788DCE010196C3
:105870000E94442C2F813885F801E20FF31F10821B
:105880002E96E4E00C94092FACE0B0E0EAE4FCE2F0
:105890000C94DF2E7C016B018A01FC0117821682B9
:1058A000838181FFBDC1CE0101964C01F701938137
:1058B000F60193FD859193FF81916F01882309F48F
:1058C000ABC1853239F493FD859193FF81916F01CE
:1058D000853229F4B70190E00E942C2EE7CF512C9D
:1058E000312C20E02032A0F48B3269F030F4803289
:1058F00059F0833269F420612CC08D3239F0803345
:1059000039F4216026C02260246023C0286021C0B1
:1059100027FD27C030ED380F3A3078F426FF06C057
:10592000FAE05F9E300D1124532E13C08AE0389E9A
:10593000300D1124332E20620CC08E3221F426FD4E
:105940006BC1206406C08C3611F4206802C0883612
:1059500041F4F60193FD859193FF81916F018111CF
:10596000C1CF982F9F7D9554933028F40C5F1F4F23
:10597000FFE3F9830DC0833631F0833771F083354F
:1059800009F05BC022C0F801808189830E5F1F4F40
:1059900044244394512C540115C03801F2E06F0E99
:1059A000711CF801A080B18026FF03C0652D70E056
:1059B00002C06FEF7FEFC5012C870E94212E2C01C2
:1059C00083012C852F77222E17C03801F2E06F0E4D
:1059D000711CF801A080B18026FF03C0652D70E026
:1059E00002C06FEF7FEFC5012C870E94162E2C019D
:1059F0002C852068222E830123FC1BC0832D90E080
:105A000048165906B0F4B70180E290E00E942C2EAF
:105A10003A94F4CFF50127FC859127FE81915F012F
:105A2000B70190E00E942C2E31103A94F1E04F1A09
:105A300051084114510471F7E5C0843611F08936DC
:105A400039F5F80127FF07C0608171818281938158
:105A50000C5F1F4F08C060817181072E000C880BFE
:105A6000990B0E5F1F4F2F76722E97FF09C09095EE
:105A70008095709561957F4F8F4F9F4F2068722E54
:105A80002AE030E0A4010E94642EA82EA81844C089
:105A9000853729F42F7EB22E2AE030E025C0F22F80
:105AA000F97FBF2E8F36C1F018F4883579F0B4C075
:105AB000803719F0883721F0AFC02F2F2061B22E28
:105AC000B4FE0DC08B2D8460B82E09C024FF0AC01F
:105AD0009F2F9660B92E06C028E030E005C020E177
