:100000000C948D010C940E0E0C94E70D0C94B5011C
:100010000C94B5010C94B5010C94B5010C94B50188
:100020000C94B5010C94B5010C94B5010C94B50178
:100030000C94B5010C94B5010C94B5010C94B50168
:100040000C949D0D0C94B5010C94B5010C94B50164
:100050000C94B5010C94B5010C94B5010C94B50148
:100060000C9459120C94B501B002E302EC02F702B1
:10007000FF02FF02FF02FF02FF02FF02FF020D0369
:100080007E1583159415A515B015C015D015FD1551
:1000900005163016211630163016371657168416E8
:1000A000B216DF160C17391765174552522000207B
:1000B000646F6E6500207761697400206F6E202088
:1000C00000206F66662000202D2D2D2000636C65BA
:1000D00061720073657400537475636B200047464A
:1000E000492054657374204661696C7572650045DA
:1000F00072724A616E4665624D61724170724D6105
:10010000794A756E4A756C4175675365704F6374B3
:100110004E6F764465630020200025326400202065
:1001200020002020200020253264002020002530DF
:100130003264002020002532640053657420436C33
:100140006F636B00534D545754465300534D5457EF
:100150005446530020200025303264002020002522
:1001600032640045786974002020202000456469CD
:1001700074204576656E742000000000002400277E
:10018000002A0000000000250028002B00000000CD
:1001900000230026002900040404040404040402CB
:1001A0000202020202030303030303010204081014
:1001B000204080010204081020010204081020528F
:1001C000656C6179204661696C7572653A20003210
:1001D0002E342E312D6465760053573A00322E337B
:1001E0002E310048573A004A313737322048796477
:1001F00072612000554E4B007365716E746C007314
:100200006861726564004D3A004D3A50415553455E
:1002100044002020202020202020002532643A2580
:1002200030326425634D2000204361722025733AEB
:1002300020256425250050696C6F74206465726107
:10024000746500204361722025733A202573302E97
:10025000256400416D6D65746572004E6F005965CF
:10026000730045786974204D656E75733F004E6F5D
:10027000005965730043616C6962726174696F6EE5
:100280003F004E6F0059657300436F6E66696720CB
:100290004576656E74733F004E6F00596573004577
:1002A0006E61626C65204453543F004E6F00596587
:1002B000730053657420436C6F636B3F0020416D86
:1002C00070730043757272656E7420417661696C5B
:1002D0002E0053657175656E7469616C00536861B9
:1002E000726564004F7065726174696E67204D6F4E
:1002F00064650025336C756D41002532642E253010
:1003000031644100000000080002010000030407FE
:1003100000000000000000001D2511241FBECFEFCB
:10032000D8E0DEBFCDBF11E0A0E0B1E0E8ECF5E53C
:1003300002C005900D92AE37B107D9F723E0AEE7C2
:10034000B1E001C01D92A93EB207E1F711E0CDE88E
:10035000D1E004C02197FE010E948927CC38D10743
:10036000C9F70E94121F0C94E22A0C94000060E06E
:1003700088E00E94D40C60E087E00E94D40C1092C8
:1003800058031092570310920E0310920D030E940F
:10039000910D609367027093680280936902909355
:1003A0006A0281E080936B020895CF93DF93EC01A2
:1003B000C536D10550F064E670E080E090E00E9420
:1003C000570DC456D109A895F3CFBE0180E090E047
:1003D0000E94570DA895DF91CF9108950F931F9319
:1003E0008091FD019091FE01A091FF01B09100026A
:1003F000892B8A2B8B2BA9F00E94910D0091FD0176
:100400001091FE012091FF0130910002DC01CB012F
:10041000801B910BA20BB30BC297A105B10508F489
:1004200044C01092FD011092FE011092FF01109243
:1004300000028091BC038823C1F08091BA038062DE
:100440000E94CA1C82E10E949B110E94D41C8091D0
:10045000BA03806261E070E090E00E94311D86EF97
:1004600092E00E94380C80958F714091F901509173
:10047000FA016091FB017091FC0180FF19C0452BCE
:10048000462B472B91F40E94910D6093F9017093D4
:10049000FA018093FB019093FC016093FD0170933E
:1004A000FE018093FF019093000280E090E02EC057
:1004B000452B462B472BC9F30E94910D6093FD01FC
:1004C0007093FE018093FF01909300020091F90167
:1004D0001091FA012091FB013091FC01DC01CB016C
:1004E000801B910BA20BB30B1092F9011092FA0131
:1004F0001092FB011092FC018B3F9105A105B10503
:1005000018F481E090E002C082E090E01F910F912A
:100510000895FF920F931F93CF93DF9300D000D0E5
:10052000CDB7DEB7F82E0E94EE018C01FF2039F026
:100530000E94CD1D109293011092920104C081304F
:10054000910509F075C090919301492F50E04C300E
:10055000510508F0AFC0FA01EC5CFF4F0C948927FD
:10056000F11005C0809192018F5F8093920180917C
:100570009201853010F010929201E0919201E430E6
:1005800008F098C034E0E39FF0011124E356FC4FDB
:1005900080818093910191819093900192819093B9
:1005A0008F01938190938E0191E08C3008F490E05C
:1005B00090938D01811102C08CE00BC08D3008F446
:1005C00079C08C5006C0809191018F5F8D3008F00A
:1005D00081E0809391016EC0809190018F5F8C3398
:1005E00018F48093900166C01092900163C081E07E
:1005F00090918D01911180E080938D015BC02CEF73
:10060000290F81E090E001C0880F2A95EAF79091C8
:100610008F01892780938F014DC080918E018F5F5C
:10062000833018F480938E0145C010928E0142C031
:10063000029709F041C09091930191110FC08091F0
:100640009201843059F481E495E1909305018093FF
:10065000040110926C020E94CD1D5AC19F5F9093BD
:1006600093019C3048F18091910190918D019111FD
:1006700003C08C3031F44AC1913019F48C3009F048
:10068000845FE091920194E0E99FF0011124E35628
:10069000FC4F808380919001818380918F018283C0
:1006A00080918E01838386E993E00E943D1E109223
:1006B00093012EC101E010E00E94910D28EE33E07D
:1006C00040E050E00E94482721E0643F71408105EE
:1006D000910508F420E0012B29F490918C019217E8
:1006E00009F416C120938C0160E080E00E94901D07
:1006F0006DE671E085E092E00E948E2A85E092E04E
:100700000E948E1D80918C01882339F08091930185
:10071000811103C068E671E006C060919201643007
:1007200059F463E671E085E092E00E948E2A85E04C
:1007300092E00E948E1D0AC070E06F5F7F4F072E0F
:10074000000C880B990B4AE00E94761E61E080E065
:100750000E94901D80919201843049F400E110E0E4
:1007600080E20E946B1E01501109D1F7D1C0109197
:1007700091016FE571E085E092E00E948E2A1F9260
:100780001F9385E092E09F938F938E010F5F1F4F21
:100790001F930F930E94ED270F900F900F900F90D3
:1007A0000F900F9080918C01882369F080919301C4
:1007B000813049F46CE571E085E092E00E948E2A78
:1007C00085E092E001C0C8010E948E1D8AE30E946C
:1007D0006B1EF090900167E571E085E092E00E9469
:1007E0008E2A1F92FF9285E092E09F938F931F9332
:1007F0000F930E94ED270F900F900F900F900F9086
:100800000F9080918C01882369F080919301823050
:1008100049F464E571E085E092E00E948E2A85E06B
:1008200092E001C0C8010E948E1D80918C01882336
:1008300031F080919301833011F480E207C0809100
:100840008D01813011F081E401C080E50E946B1EB2
:1008500080E20E946B1E00E010E064E471E085E03D
:1008600092E00E948E2AE5E0F2E001900020E9F794
:100870003197E550F2400E171F0758F5809193010C
:1008800090E098012C5F3F4F2817390731F4809191
:100890008C01882311F080E217C080918F0190E0D5
:1008A000002E02C0959587950A94E2F780FF0BC051
:1008B0006CE471E085E092E00E948E2AF801EB5F23
:1008C000FD4F808101C08DE20E946B1E0F5F1F4FA4
:1008D000C4CF80E20E946B1E809193018B3031F473
:1008E00080918C01882311F080E20DC080918E01EF
:1008F000811102C08EE407C0813011F483E503C08A
:10090000823031F487E40E946B1E02C080E0B9CED1
:100910000F900F900F900F90DF91CF911F910F913B
:10092000FF9008958F929F92AF92BF92EF92FF92A5
:100930000F931F93CF93DF937C010E94910D4B0186
:100940005C01C0E0D0E00FE017E20E94910DDC01F5
:10095000CB0188199909AA09BB094497A105B105DA
:1009600068F4F70187810E94400DC817D90708F481
:10097000EC018017910748F78C01E7CF0B5F110955
:1009800001331140A0F0C63683E0D80798F4CE01B9
:10099000875093408F35910580F0835A9F4F8D3556
:1009A000910570F0C256D240C834D10560F085E0A0
:1009B00090E00BC081E090E008C082E090E005C0CC
:1009C00083E090E002C084E090E0DF91CF911F913E
:1009D0000F91FF90EF90BF90AF909F908F900895F0
:1009E000CF92DF92EF92FF920F931F93CF93DF93FB
:1009F000EC018B018881813019F44091AF0302C072
:100A00004091B0030230110518F4602F8D81A4C00D
:100A10002091990330919A03A8EEB3E00E948F27AA
:100A20000330110521F496958795779567954423B2
:100A3000D1F0A42F440FBB0BAC59BF4F9B01AC01AD
:100A40000E94B02724E630E040E050E00E944827B2
:100A5000203787E138074105510568F460E777E101
:100A600080E090E010C06133E5E77E0781059105E5
:100A700008F098C01AC0CA01B901213335474105B1
:100A8000510508F08FC02CE330E040E050E00E94B8
:100A90004827942F832F722F662728EE33E040E0FB
:100AA00050E00E946A27790109C0603727E1720788
:100AB0008105910540F7EE24EA94F12CCD80DE808B
:100AC00061E08C2D0E94040DFFEFEF16F10409F494
:100AD00041C0F601FF27EC5FFC4FE491E330E1F009
:100AE00058F4E23099F584B5806284BD27B530E0D2
:100AF00058E4C52ED12C3DC0E430D9F0E83031F5B2
:100B00008091B00080628093B0002091B30030E00B
:100B100084EBC82ED12C2DC08091800080688093FA
:100B20008000209186003091870048E8C42ED12CA7
:100B30002CC080918000806280938000209186008C
:100B4000309187009AE8C92ED12C1FC0E7FC02C063
:100B500060E001C061E08C2D0E94D40C19A308A3B1
:100B6000DF91CF911F910F91FF90EF90DF90CF9089
:100B70000895D7010E948F272FEF30E040E050E02A
:100B80000E944827F6012083E9CFD7010E948F27D2
:100B90002FEF30E040E050E00E944827F60131831B
:100BA0002083DCCF60E375E780E090E06CCFFC0150
:100BB00080916602811112C0258536852530310568
:100BC00081F083899489A589B689892B8A2B8B2BFF
:100BD00039F42385348581E0232B19F480E00895CE
:100BE00081E008950F931F93CF93DF938C01EB0166
:100BF00080910D0390910E03892B49F48091570346
:100C000090915803892B19F461307105C1F0F801F6
:100C1000838594858C179D07A9F06C2F83810E9492
:100C2000D40CF801D487C3870E94910D60936702AA
:100C3000709368028093690290936A0203C00E94D5
:100C40007006E5CFDF91CF911F910F91089560E07D
:100C500070E082E093E00E94F00460E070E08CE4D9
:100C600093E00E94F00460E070E082E093E00E9474
:100C7000F20560E070E08CE493E00E94F205A89534
:100C8000FECFC82F81E00E94DC1D0E94CD1D6EEDBD
:100C900070E085E092E00E948E2A85E092E00E945A
:100CA0008E1D61E080E00E94901D67ED70E085E0A0
:100CB00092E00E948E2A85E092E00E948E1DCC2355
:100CC00019F063ED70E002C06DEC70E085E092E039
:100CD0000E948E2A85E092E00E948E1D0E942706C7
:100CE000CF92DF92EF92FF920F931F93CF93DF93F8
:100CF00010926B02C2E3D0E00BEF1CE761E083E0EF
:100D00000E94D40CC8010197F1F760E083E00E94D3
:100D1000D40CC8010197F1F780916B02811103C0D7
:100D2000A895219759F780916B028823B9F00E940A
:100D3000910D6B017C0124E6C20ED11CE11CF11C5B
:100D400082E00E94AB0C019759F4A8950E94910D86
:100D5000C616D706E806F90698F781E00E94410614
:100D600080E991E00E94D50110926B02DF91CF9152
:100D70001F910F91FF90EF90DF90CF9008950F9308
:100D80001F93CF93DF93EC01CE01837099278130BD
:100D9000910549F0029751F0CC7FCE0181600E940D
:100DA000BF06C260F1CF01E410E002C002E418E027
:100DB00061E0812F0E94901D802F0E946B1E8AE3AC
:100DC0000E946B1E9E012873332720313105B1F03C
:100DD00048F42115310579F028303105E9F461EC4A
:100DE00070E00EC028313105A1F020323105A1F4A8
:100DF0006FEA70E005C067EC70E002C06BEB70E07A
:100E000085E092E00E948E2A85E092E00E948E1D8D
:100E100038C065EB70E0F4CF81E00E94DC1D6AEA27
:100E200070E085E092E00E948E2A85E092E00E94C8
:100E30008E1D9E01207C317020383105B9F038F4C8
:100E40002115310589F020343105C1F015C0211577
:100E500081E0380769F0203481E0380759F0203C00
:100E6000310551F484E50BC086E409C087E407C06E
:100E700082E505C085E403C08FE301C08FE40E94D2
:100E80006B1E81E791E00E948E1DC2FF0CC061E0E5
:100E900086E0810F0E94901D8AE2DF91CF911F9121
:100EA0000F910C946B1EDF91CF911F910F910895BC
:100EB000CF92DF92EF92FF920F931F93CF93DF9326
:100EC0008C010E94910D6B017C01E801C370DD274C
:100ED0001092010210920202109203021092040278
:100EE000C230D10520F0229709F047C024C061E04C
:100EF00070E082E093E00E94F00480910F039091F3
:100F00001003059771F085E090E0909310038093B3
:100F10000F03C0921903D0921A03E0921B03F092C0
:100F20001C031092150310921603109217031092CF
:100F30001803CD2B11F561E070E08CE493E00E9482
:100F4000F0048091590390915A03059771F085E060
:100F500090E090935A0380935903C0926303D09218
:100F60006403E0926503F092660310925F031092AF
:100F700060031092610310926203C801DF91CF9168
:100F80001F910F91FF90EF90DF90CF900C94BF06D0
:100F9000CF92DF92EF92FF92CF93DF9380919B03EA
:100FA000882309F462C00E945C0E6B017C010E94E0
:100FB0004511EC016091D8037091D9038091DA0357
:100FC0009091DB030E944511C817D90731F0C70182
:100FD000B6010E9445110E94581CC701B6010E942B
:100FE0004511EC016091D8037091D9038091DA0327
:100FF0009091DB030E944511C817D90731F0C70152
:10100000B6010E9445110E94581C4091DC0350918A
:10101000DD036091DE037091DF038091D80390912E
:10102000D903A091DA03B091DB03481759076A0787
:101030007B0741F184179507A607B70758F4C81630
:10104000D906EA06FB06F0F0C416D506E606F70652
:10105000C8F413C0C416D506E606F70670F0C81625
:10106000D906EA06FB0648F40DC0DF91CF91FF9048
:10107000EF90DF90CF900C945C0EA091CA03B091DA
:10108000CB0304C0A091D603B091D7032CE330E08A
:101090000E949E276C0D7D1D8E1D9F1DDF91CF919F
:1010A000FF90EF90DF90CF900895CF92DF92EF9274
:1010B000FF920F931F93CF93DF93CDB7DEB72E9799
:1010C0000FB6F894DEBF0FBECDBFF82E0E94EE0122
:1010D0008C01FF2009F456C00E94CD1D6AE371E027
:1010E00085E092E00E948E2A85E092E00E948E1DAB
:1010F0000E94C8070E9421112091ED02222331F0A5
:10110000822F90E02D3020F00C9702C08CE090E010
:10111000809391010E94C8070E9421118091ED02E5
:1011200090E021E00C970CF420E020938D010E94C8
:10113000C8070E9421118091EC02809390010E94C7
:10114000C8070E9421118091EF0280938B010E94B9
:10115000C8070E9421118091F00280938A010E94A9
:10116000C8070E9445119C012A5D37402B3031058C
:1011700010F08AED97E09093890180938801109296
:1011800093015DC08130910509F051C090919301A8
:10119000923001F128F4992349F0913081F09BC1FC
:1011A000943061F110F1953091F195C180919101E8
:1011B0008F5F8D3008F081E0809391018CC1809128
:1011C00090018F5F8C3318F48093900184C110924A
:1011D000900181C180918D018F5F823018F48093DE
:1011E0008D0179C110928D0176C180918B018F5F45
:1011F000803208F081E080938B016DC180918A017B
:101200008F5F8D3008F081E080938A0164C1809106
:101210008801909189010196853E27E0920710F0A0
:101220008AED97E0909389018093880154C10297D9
:1012300009F051C1809193018F5F80939301809158
:101240009301863008F445C190918D018091910100
:10125000911105C08C3051F41092910107C091306A
:1012600029F48C3019F0845F80939101809188017A
:10127000825B8E8780918A018D8780918B018C871C
:10128000809191018A878091900189871886CE018B
:1012900008960E94E60E6B017C0180919B038823D7
:1012A00009F47FC0C701B6010E9445118C0160910D
:1012B000E0037091E1038091E2039091E3030E94C7
:1012C00045110817190731F0C701B6010E944511F1
:1012D0000E94581CC701B6010E9445118C01609103
:1012E000E0037091E1038091E2039091E3030E9497
:1012F00045110817190731F0C701B6010E944511C1
:101300000E94581C4091DC035091DD036091DE0384
:101310007091DF038091D8039091D903A091DA03F3
:10132000B091DB03481759076A077B0709F4F3C13B
:101330004091E4035091E5036091E6037091E70367
:101340008091E0039091E103A091E203B091E30367
:1013500084179507A607B70768F4C816D906EA06E2
:10136000FB0608F4D8C1C416D506E606F70608F051
:10137000D2C10BC0C416D506E606F70630F0C81673
:10138000D906EA06FB0608F4C6C1A091CA03B091CB
:10139000CB032CE330E00E949E27C61AD70AE80A46
:1013A000F90AC701B6010E94350EAE014F5F5F4FCB
:1013B000C701B6010E94501088E60E94CA1C60E076
:1013C00086EF92E00E947C0C60E886EF92E00E943B
:1013D0007C0C8A811AE0612F0E941427692F30E16A
:1013E000839F600D112486EF92E00E947C0C8B811C
:1013F000612F0E941427692F20E1829F600D112424
:1014000086EF92E00E947C0C8C81612F0E94142751
:10141000692F30E1839F600D112486EF92E00E94D6
:101420007C0C8D81612F0E941427692F20E1829FFF
:10143000600D112486EF92E00E947C0C8E81612F5A
:101440000E941427692F30E1839F600D112486EFDD
:1014500092E00E947C0C8F818E51612F0E94142794
:10146000692F20E1829F600D112486EF92E00E9497
:101470007C0C0E94D41C882319F0109294011EC089
:1014800001E00093940188E60E94CA1C60E086EFA8
:1014900092E00E947C0C8981612F0E941427692FA1
:1014A00030E1839F600D112486EF92E00E947C0C56
:1014B0000E94D41C8111E1CF0093940181E495E155
:1014C000909305018093040110926C020E94CD1D3F
:1014D00027C102E010E00E94910D28EE33E040E0C9
:1014E00050E00E94482721E0643F7140810591054A
:1014F00008F420E0012B29F490918C01921709F453
:101500000FC120938C0161E080E00E94901D10913A
:10151000910166E371E085E092E00E948E2A1F92BD
:101520001F9385E092E09F938F938E010F5F1F4F73
:101530001F930F930E94ED270F900F900F900F9025
:101540000F900F908091930181110DC080918C01BB
:10155000882349F063E371E085E092E00E948E2ADF
:1015600085E092E001C0C8010E948E1D8AE30E94BE
:101570006B1EF09090016EE271E085E092E00E94B7
:101580008E2A1F92FF9285E092E09F938F931F9384
:101590000F930E94ED270F900F900F900F900F90D8
:1015A0000F9080919301813069F480918C018823A0
:1015B00049F06BE271E085E092E00E948E2A85E0BE
:1015C00092E001C0C8010E948E1D8091930182307B
:1015D00031F480918C01882311F080E207C0809162
:1015E0008D01811102C081E401C080E50E946B1E63
:1015F000F0908B0166E271E085E092E00E948E2A15
:101600001F92FF9285E092E09F938F931F930F9319
:101610000E94ED270F900F900F900F900F900F905A
:1016200080919301833069F480918C01882349F083
:1016300062E271E085E092E00E948E2A85E092E00D
:1016400001C0C8010E948E1D8DE20E946B1E809118
:101650009301843069F480918C01882349F06EE114
:1016600071E085E092E00E948E2A85E092E019C048
:1016700020918A0183E0289F90011124AEE7B1E018
:1016800080E090E0FC01E20FF31FE151FF4FE49195
:10169000ED93019683309105A9F7109281018EE7B1
:1016A00091E00E948E1D8DE20E946B1E8091880148
:1016B0009091890164E670E00E942027F82EE92EBF
:1016C0006AE171E085E092E00E948E2AEF92FF923B
:1016D00085E092E09F938F931F930F930E94ED27D5
:1016E0000F900F900F900F900F900F90809193019B
:1016F000853069F480918C01882349F067E171E0BD
:1017000085E092E00E948E2A85E092E001C0C80147
:101710000E948E1D05C0A091D603B091D70339CE8B
:101720002E960FB6F894DEBF0FBECDBFDF91CF91DE
:101730001F910F91FF90EF90DF90CF90089583302D
:1017400081F028F4813099F08230A1F0089587303B
:10175000A9F08830B9F08430D1F4809180008F7D79
:1017600003C0809180008F7780938000089584B5B6
:101770008F7702C084B58F7D84BD08958091B000BD
:101780008F7703C08091B0008F7D8093B000089563
:101790003FB7F8948091EB019091EC01A091ED019D
:1017A000B091EE0126B5A89B05C02F3F19F0019618
:1017B000A11DB11D3FBFBA2FA92F982F8827820FD7
:1017C000911DA11DB11DBC01CD0142E0660F771F27
:1017D000881F991F4A95D1F7089508958091F402C2
:1017E00090E02091F502821B9109089585ED809388
:1017F000BC008091BC0084FDFCCF1092C90208950A
:101800004091B701262F30E0240F311D21323105E0
:10181000DCF42091C9022430C9F4FC0180E090E09E
:10182000861758F43091B7012191DC01AB56BE4FB9
:10183000A30FB11D2C930196F3CF8091B701680FD0
:101840006093B70180E0089581E0089582E00895F3
:101850000895E091F5028091F402E81730F4F0E089
:10186000ED57FD4F808190E008958FEF9FEF089531
:101870009091F5028091F402981750F4E92FF0E06E
:10188000ED57FD4F208130E09F5F9093F50202C03D
:101890002FEF3FEFC9010895CF92DF92EF92FF92B1
:1018A0000F931F93CF93DF937C01262F972F8A01ED
:1018B0008091EA02882391F0C62FD72F6E01C40EC3
:1018C000D51ECC15DD0571F06991D701ED91FC9124
:1018D0000190F081E02DC7010995F3CF642F822F8D
:1018E0000E94000CC801DF91CF911F910F91FF90D2
:1018F000EF90DF90CF900895CF93DF931F92CDB7F5
:10190000DEB769832091EA022223D1F02091F2020E
:10191000203240F021E030E0FC013383228380E07C
:1019200090E015C08091F302E82FF0E0E653FD4F00
:10193000998190838F5F8093F3028093F20205C0B8
:1019400061E0CE0101960E94000C81E090E00F90D2
:10195000DF91CF910895CF93DF93282F30E0F901E5
:10196000EC5FFC4F8491F901E555FE4FD491F901EC
:10197000E956FE4FC491CC2391F081110E949F0B38
:10198000EC2FF0E0EE0FFF1FE357FE4FA591B4914F
:10199000EC91ED2381E090E021F480E002C080E052
:1019A00090E0DF91CF9108951F93CF93DF93282F7D
:1019B00030E0F901EC5FFC4F8491F901E555FE4FF1
:1019C000D491F901E956FE4FC491CC23C9F0162FEA
:1019D00081110E949F0BEC2FF0E0EE0FFF1FED57DF
:1019E000FE4FA591B4918FB7F894111105C09C9149
:1019F000ED2FE095E92302C0EC91ED2BEC938FBF26
:101A0000DF91CF911F910895CF93DF9390E0FC0178
:101A1000E555FE4F2491FC01E956FE4F8491882341
:101A200061F190E0880F991FFC01E758FE4FC591C6
:101A3000D491FC01ED57FE4FA591B491611109C0FD
:101A40009FB7F8948881209582238883EC912E2378
:101A50000BC0623061F49FB7F8943881822F809573
:101A600083238883EC912E2B2C939FBF06C08FB7C6
:101A7000F894E8812E2B28838FBFDF91CF910895B2
:101A80008E3008F08E508770806480937C00809147
:101A90007A00806480937A0080917A0086FDFCCF82
:101AA000809178002091790090E0922B08958F9298
:101AB0009F92AF92BF92CF92DF92EF92FF926B0113
:101AC0007C010E94C80B4B015C01C114D104E104EC
:101AD000F104F1F00E94C80BDC01CB0188199909CF
:101AE000AA09BB09883E9340A105B10570F321E026
:101AF000C21AD108E108F10888EE880E83E0981E2A
:101B0000A11CB11CC114D104E104F10419F7DDCF0B
:101B1000FF90EF90DF90CF90BF90AF909F908F900D
:101B200008952FB7F8946091E7017091E8018091D2
:101B3000E9019091EA012FBF08951F920F920FB60D
:101B40000F9211242F933F938F939F93AF93BF9343
:101B50008091E7019091E801A091E901B091EA013B
:101B60003091E60123E0230F2D3720F40196A11DCB
:101B7000B11D05C026E8230F0296A11DB11D2093BB
:101B8000E6018093E7019093E801A093E901B09307
:101B9000EA018091EB019091EC01A091ED01B091EF
:101BA000EE010196A11DB11D8093EB019093EC0114
:101BB000A093ED01B093EE01BF91AF919F918F91F2
:101BC0003F912F910F900FBE0F901F9018951F926D
:101BD0000F920FB60F9211242F933F934F935F9361
:101BE0006F937F938F939F93AF93BF93EF93FF93E5
:101BF000E0910201F09103010995FF91EF91BF91EE
:101C0000AF919F918F917F916F915F914F913F9194
:101C10002F910F900FBE0F901F9018951F920F924B
:101C20000FB60F9211242F933F934F935F936F93AF
:101C30007F938F939F93AF93BF93EF93FF93E09125
:101C40000001F09101010995FF91EF91BF91AF91D2
:101C50009F918F917F916F915F914F913F912F91C4
:101C60000F900FBE0F901F9018956093F301709323
:101C7000F4018093F5019093F601DC01CB01845DC2
:101C80009E4FAF4FBF4F8093EF019093F001A09311
:101C9000F101B093F20182E090E09093E50180932E
:101CA000E4010E94910D6093E0017093E101809343
:101CB000E2019093E3010895CF92DF92EF92FF92B9
:101CC0000F931F930E94910DC090E001D090E1010D
:101CD000E090E201F090E3018B019C010C191D09D9
:101CE0002E093F098091F3019091F401A091F50133
:101CF000B091F601083E134021053105D0F0019660
:101D0000A11DB11D8093F3019093F401A093F501FF
:101D1000B093F601B701A60148515C4F6F4F7F4F5A
:101D20004093E0015093E1016093E2017093E3017D
:101D3000C9CF4091EF015091F0016091F101709194
:101D4000F20184179507A607B70788F1E091F7011C
:101D5000F091F801309759F10995611571058105E8
:101D6000910519F00E94350E22C08091F3019091E7
:101D7000F401A091F501B091F601845D9E4FAF4F43
:101D8000BF4F8093EF019093F001A093F101B093C6
:101D9000F20181E090E02091E4013091E501232BF4
:101DA00011F480E090E09093E5018093E40160916C
:101DB000F3017091F4018091F5019091F6011F916A
:101DC0000F91FF90EF90DF90CF9008956F927F92E8
:101DD0008F929F92AF92BF92CF92DF92EF92FF923B
:101DE0000F931F93CF93DF93EC01EE81AE2FB0E002
:101DF00020E833E341EE51E00E94A5274B015C014E
:101E000022EB37E0FD0104E610E080E9E82EFF2434
:101E1000F394C901825B97408E179F07DCF4C901D8
:101E200083709927892B99F4C901B8010E9434273E
:101E3000892B31F4C901B7010E943427892B39F469
:101E400080E8880E81E5981E81E0A81EB11C2F5FF6
:101E50003F4FDFCF6D80712CEE54F84FCF0164E619
:101E600070E00E9434277C01CF0160E971E00E949C
:101E700034276C0101E010E0E370FF270615170519
:101E80002CF50230110581F4309771F4E114F1045E
:101E900019F4C114D10441F480E8880E8BE3981E34
:101EA00086E2A81EB11C0FC0D801AB5FBE4FAC913B
:101EB000B0E020E831E541E050E00E94A527860E21
:101EC000971EA81EB91E0F5F1F4FD8CF49812A81C8
:101ED00030E0A0E1BEE00E948F276B017C01242F3F
:101EE00030E0ACE3B0E00E948F27DC01CB018C0D29
:101EF0009D1DAE1DBF1D28816C017D01C20ED11C30
:101F0000E11CF11CAC81B0E0119720E831E541E023
:101F100050E00E94B027DC01CB018C0D9D1DAE1D51
:101F2000BF1DBC01CD01680D791D8A1D9B1DDF9170
:101F3000CF911F910F91FF90EF90DF90CF90BF90C6
:101F4000AF909F908F907F906F9008951F93CF9345
:101F5000DF93CDB7DEB727970FB6F894DEBF0FBE7D
:101F6000CDBF88E60E94CA1C60E086EF92E00E9426
:101F70007C0C0E94D41C882319F01092940183C019
:101F800081E08093940167E070E088E690E00E9431
:101F9000311D8091F40290E02091F502821B91099D
:101FA00007970CF470C086EF92E00E94380C182F4F
:101FB0008695869586958E70982F990F990F890F23
:101FC000912F9F70890F898386EF92E00E94380CD1
:101FD000282F22952F70982F9F708AE0289F900DB0
:101FE00011249A8386EF92E00E94380C982F282FB4
:101FF0002695269526952670822F880F880F280F04
:102000009F70920F9B8386EF92E00E94380C282FDE
:1020100022952F70982F9F708AE0289F900D112491
:102020009C8386EF92E00E94380C282F22952F7017
:10203000982F9F708AE0289F900D11249D8386EF32
:1020400092E00E94380C282F22952F70982F9F70B5
:102050008AE0289F900D11249E8386EF92E00E94D3
:10206000380C982F9F70925E282F22952F708AE04F
:10207000289F900D11249F8317FD05C0CE01019666
:102080000E94E60E03C060E070E0CB0127960FB619
:10209000F894DEBF0FBECDBFDF91CF911F910895A1
:1020A0006F927F928F929F92AF92BF92CF92DF9268
:1020B000EF92FF920F931F93CF93DF93EA012CE3EC
:1020C000C22ED12CE12CF12CA70196010E944827A9
:1020D0006883CA01B901A70196010E944827698354
:1020E000CA01B90128E130E040E050E00E944827F1
:1020F00069017A016A83CA01B9016C5F7F4F8F4F12
:102100009F4F27E030E040E050E00E9448276F5F9B
:102110006B83812C912C540140E034E6632E712CAA
:1021200000E911E0242F30E02E54384FF901E3701C
:10213000FF27309789F4C901B3010E943427892B06
:1021400031F4C901B8010E943427892B29F48EE6A5
:1021500091E0A0E0B0E004C08DE691E0A0E0B0E046
:10216000880E991EAA1EBB1ED501C401AA27BB2733
:10217000C816D906EA06FB0610F04F5FD3CF4E8390
:10218000309799F4C90164E670E00E943427892BE6
:1021900039F4C90160E971E00E943427892B29F4E0
:1021A0008EE691E0A0E0B0E004C08DE691E0A0E012
:1021B000B0E0881A990AAA0ABB0AC818D908EA081E
:1021C000FB08C90164E670E00E9434278C01C90154
:1021D00060E971E00E943427A6E0B1E020E0213000
:1021E00041F4309751F40115110529F4009729F4B1
:1021F00002C04C9103C04DE101C04CE150E060E0F1
:1022000070E0C416D506E606F70640F0C41AD50AF3
:10221000E60AF70A2F5F11962C3009F72F5F2D83FE
:10222000C394CC82DF91CF911F910F91FF90EF90DB
:10223000DF90CF90BF90AF909F908F907F906F90E6
:102240000895CF92DF92EF92FF92C090DC01D09080
:10225000DD01E090DE01F090DF016C157D058E055B
:102260009F0571F06B017C014BEE52E00E94501013
:10227000C092DC01D092DD01E092DE01F092DF013C
:10228000FF90EF90DF90CF9008950E9421118091F0
:10229000F10290E08E54984F0895CF92DF92EF9222
:1022A000FF92CF936B017C019B01AC016EEF7FEF3E
:1022B00081E090E00E9404279B01AC0160E074E2A1
:1022C00084EF90E00E944827C0E0EC2FF0E0EE0F92
:1022D000FF1FEB59FE4F80819181CF5F82179307DB
:1022E000A0F3A7019601220F331F441F551FEC2FA7
:1022F000F0E0EE0FFF1FEB59FE4FA081B1810E946D
:10230000A5279B01AC0160E074E284EF90E00E949D
:102310004827309387002093860080918100C77002
:10232000887FC82BC093810081E0CF91FF90EF9010
:10233000DF90CF900895682F86EF92E00C947C0C8C
:10234000CF93DF931F92CDB7DEB7FC01818580620A
:1023500069830E94CA1C89E00E949B116981862FB3
:102360000E949B110E94D41C8111FCCF0F90DF9121
:10237000CF910895CF93DF931F92CDB7DEB7FC01C5
:102380008185806269830E94CA1C83E10E949B113F
:102390006981862F0E949B110E94D41C8111FCCF61
:1023A0000F90DF91CF910895FF920F931F93CF93DA
:1023B000DF938C01C62FF42EFC0186858130B1F5A8
:1023C0006585C4FD6061C5FD6860C6FD6460C7FDCC
:1023D0006260D62FFF2011F0D06A01C0D0626D2F4D
:1023E000C8010E94BA116D2F6F7DC8010E94BA11F9
:1023F000F8016585C0FD6061C1FD6860C2FD646073
:10240000C3FD6260C62FFF2011F0C06A01C0C06228
:102410006C2FC8010E94BA116C2F6F7DC801DF912B
:10242000CF911F910F91FF900C94BA11607F70E0D3
:1024300075956795442311F0666001C06460F801EA
:10244000858183FD02C0D0E001C0D0E8D62B6D2F7E
:10245000C8010E94A0116D2F6B7FC8010E94A011BE
:10246000CF70CC0FCC0FCC0FFF2011F0C66001C095
:10247000C460F801858183FD02C060E001C060E8AE
:10248000C62B6C2FC8010E94A0116C2F6B7FC80156
:10249000DF91CF911F910F91FF900C94A011FC013F
:1024A0002385222319F041E00E94D41181E090E0BD
:1024B00008951F920F920FB60F9211242F933F93FE
:1024C0004F935F936F937F938F939F93AF93BF933C
:1024D000EF93FF938091B900887F803609F49CC008
:1024E00068F5883209F45BC090F4803109F454C077
:1024F00038F4882309F4F6C0883009F44DC0F6C0DA
:10250000883109F44CC0803209F45DC0EFC08034DA
:1025100009F468C048F4803309F455C0883309F0E1
:10252000E5C08093C702D8C0803509F44FC0883514
:1025300009F45DC0883409F0D9C0D6C0883909F4DF
:10254000C7C0A8F4883709F467C038F4883609F49E
:1025500063C0803709F460C0C9C0883809F4B8C0C6
:10256000803909F45FC0803809F0C0C05BC0803B8F
:1025700009F486C038F4803A09F466C0883A09F450
:102580007FC0B4C0803C09F4A7C0883C09F4A4C053
:10259000883B09F48AC0AAC08091A40210C090911F
:1025A000C6028091C502981770F5E091C60281E0DD
:1025B0008E0F8093C602F0E0EB55FD4F8081809333
:1025C000BB0085EC86C08093C7028EC0E091C60236
:1025D00081E08E0F8093C6028091BB00F0E0EB5546
:1025E000FD4F80839091C6028091C5026EC0E0913C
:1025F000C60281E08E0F8093C6028091BB00F0E09E
:10260000EB55FD4F80838091C80281116DC081E040
:102610008093A30284EA61C083E08093C902109290
:10262000DB01CFCF8091DB01803208F051C0E09117
:10263000DB0181E08E0F8093DB018091BB00F0E035
:10264000E554FE4F8083BDCF85EC8093BC00109293
:10265000C9028091DB01803230F4E091DB01F0E0CF
:10266000E554FE4F10826091DB0170E0E091B9010A
:10267000F091BA018BEB91E009951092DB0136C025
:1026800084E08093C9021092B8011092B701E091E2
:10269000B501F091B60109958091B701811105C08E
:1026A00081E08093B70110929501E091B80181E03B
:1026B0008E0F8093B801F0E0EB56FE4F808180933F
:1026C000BB009091B8018091B701981708F479CFB9
:1026D00085E88093BC000AC085EC8093BC00109212
:1026E000C90204C01092C7020E94F60BFF91EF913D
:1026F000BF91AF919F918F917F916F915F914F911A
:102700003F912F910F900FBE0F901F901895109230
:10271000C90281E08093C8021092A30261E082E1C5
:102720000E94D40C61E083E10E94D40CE9EBF0E05C
:1027300080818E7F808380818D7F808388E48093F9
:10274000B80085E48093BC0008950F931F93CF9346
:10275000DF93EC018B899C89AD89BE89892B8A2BFB
:102760008B2B89F00E94910D0B891C892D893E8944
:10277000DC01CB01801B910BA20BB30B853991417E
:10278000A105B105D8F48F89988DA98DBA8D892BB3
:102790008A2B8B2B09F448C00E94910D0F89188D4C
:1027A000298D3A8DDC01CB01801B910BA20BB30B61
:1027B000893B9B40A105B10580F436C01B8A1C8A69
:1027C0001D8A1E8A8881806190E00E94BF0661E0B8
:1027D00070E0CE010E94F205D6CF1F8A188E198EA6
:1027E0001A8E60E070E0CE010E94F20580916602D0
:1027F000882329F08881886090E00E94BF06898143
:102800009A810E94D705E981FA81811104C08585EA
:102810009685029749F464E070E0CF01DF91CF9193
:102820001F910F910C94F004DF91CF911F910F91A4
:102830000895CF92DF92EF92FF920F931F93CF9361
:10284000DF936C017A018B01C0E0D0E0CE15DF058B
:1028500089F0D8016D918D01D601ED91FC91019027
:10286000F081E02DC6010995892B11F47E0102C08B
:102870002196ECCFC701DF91CF911F910F91FF906F
:10288000EF90DF90CF9008950E94B827CF92DF920B
:10289000EF92FF920F931F93CF93DF93CDB7DEB7E5
:1028A00061970FB6F894DEBF0FBECDBF182F0E9400
:1028B000EE019C01112329F00E94CD1D109274029B
:1028C0003AC09091740290FF05C0AEEAB3E0E0EB2D
:1028D000F3E004C0ADEAB3E0EFEAF3E02130310504
:1028E00021F022303105A9F0BDC0923018F09430AB
:1028F00010F507C08C918F5F86300CF08BEF8C93B6
:102900001AC080818150863F14F0808314C01082E9
:1029100012C09F5F90937402943068F086E993E050
:102920000E943D1E81E495E190930501809304018E
:1029300010926C0297C08091740280FF0BC005E773
:1029400011E04EEAC42E43E0D42E50EBE52E53E0C6
:10295000F52E0AC003E711E02DEAC22E23E0D22EA5
:102960003FEAE32E33E0F32E823090F1843008F01A
:1029700079C00E94CD1D66E372E085E092E00E947E
:102980008E2A85E092E00E948E1D61E080E00E9428
:10299000901DF701F080CF2C0F2C000CDD0868E2B1
:1029A00072E085E092E00E948E2ADF92FF921F93F0
:1029B0000F9385E092E09F938F931F9281E18F9315
:1029C0008E010F5F1F4F1F930F930E94BD2742C0C0
:1029D0000E94CD1D63E572E085E092E00E948E2AA0
:1029E00085E092E00E948E1D61E080E00E94901DD3
:1029F000F6012081822F022E000C990B97FF03C055
:102A0000919581959109D82EC92E27FD05C099E78A
:102A1000E92E91E0F92E04C087E7E82E81E0F82E38
:102A200063E472E085E092E00E948E2ACF92DF920A
:102A3000FF92EF921F930F9385E092E09F938F9305
:102A40001F9281E18F938E010F5F1F4F1F930F9392
:102A50000E94BD27C8010E948E1D0FB6F894DEBFEC
:102A60000FBECDBF61960FB6F894DEBF0FBECDBFCF
:102A7000DF91CF911F910F91FF90EF90DF90CF905A
:102A80000895CF93C82F0E94EE01CC2361F083E01C
:102A90000E94DC1D0E94CD1D87EE93E090937C0286
:102AA00080937B021FC0009709F443C281309105D7
:102AB000B1F48091790290917A02019690937A0212
:102AC0008093790220917702309178022817390794
:102AD00008F0DFC010927A0210927902DAC00297F1
:102AE00009F0D7C0E0917B02F0917C02E730F1055C
:102AF00008F066C0E05CFF4F0C9489278091790252
:102B0000809398030CC0E0917902F0917A02E65D1F
:102B1000FE4F808190E090939A038093990386E919
:102B200093E00E943D1E4CC08091790290917A0200
:102B3000892B09F045C085E598E0909305018093C5
:102B4000040181E0CF910C94550881E02091790235
:102B500030917A02232B09F080E080939B03DFCF32
:102B60008091790290917A02892B51F589E892E05F
:102B7000909305018093040181E0CF910C94890228
:102B80008091790290917A02892BD1F486E494E1C4
:102B9000909305018093040181E0CF910C94461439
:102BA0008091790290917A02892B19F410926C022B
:102BB000C0C187EE93E090937C0280937B02B9C101
:102BC00080917B0290917C0201968730910528F4D8
:102BD00090937C0280937B0204C010927C0210923E
:102BE0007B02E0917B02F0917C02E730F10508F076
:102BF00048C0E95BFF4F0C9489278091980390E0CF
:102C000090937A028093790236C060919903709113
:102C10009A03EAE2F1E050E040E080E090E02191A8
:102C200030E06217730711F4582F492F01968B304B
:102C30009105A9F75093790240937A028AE090E0D7
:102C40001CC081E090E0909378028093770290918D
:102C50009B03892790E090937A028093790211C0B8
:102C600081E090E090937A028093790206C01092FE
:102C70007A021092790281E090E09093780280933A
:102C800077028091790290917A02909376028093F4
:102C900075020E94CD1DE0917B02F0917C02E7302D
:102CA000F10508F046C1E25BFF4F0C94892764EE02
:102CB00072E085E092E00E948E2A85E092E00E9418
:102CC0008E1D61E080E00E94901D2091790230917C
:102CD0007A0280917502909176022817390711F0D7
:102CE00080E201C08BE20E946B1E8091790290917C
:102CF0007A02009731F0019709F01BC162ED72E092
:102D00000FC16DED72E00CC163EC72E085E092E002
:102D10000E948E2A85E092E00E948E1D61E080E094
:102D20000E94901D2091790230917A028091750263
:102D3000909176022817390711F080E201C08BE2EA
:102D40000E946B1EE0917902F0917A02E65DFE4FDF
:102D5000608170E080E090E04AE00E94761E6DEBBA
:102D600072E0DEC062EB72E085E092E00E948E2AA3
:102D700085E092E00E948E1D61E080E00E94901D3F
:102D80002091790230917A028091750290917602B9
:102D90002817390711F080E201C08BE20E946B1EF8
:102DA0008091790290917A02009731F0019709F0B1
:102DB000C0C06BEA72E0B4C06EEA72E0B1C06FE905
:102DC00072E085E092E00E948E2A85E092E00E9407
:102DD0008E1D61E080E00E94901D2091790230916B
:102DE0007A0280917502909176022817390711F0C6
:102DF00080E201C08BE20E946B1E8091790290916B
:102E00007A02009731F0019709F093C068E972E007
:102E100087C06BE972E084C069E872E085E092E007
:102E20000E948E2A85E092E00E948E1D61E080E083
:102E30000E94901D2091790230917A028091750252
:102E4000909176022817390711F080E201C08BE2D9
:102E50000E946B1E8091790290917A02009731F066
:102E6000019709F066C062E872E05AC065E872E056
:102E700057C065E772E085E092E00E948E2A85E007
:102E800092E00E948E1D61E080E00E94901D2091E2
:102E9000790230917A02809175029091760228171A
:102EA000390711F080E201C08BE20E946B1E809115
:102EB000790290917A02009729F00197D1F56EE698
:102EC00072E02EC061E772E02BC062E672E085E03E
:102ED00092E00E948E2A85E092E00E948E1D61E0C1
:102EE00080E00E94901D2091790230917A028091B9
:102EF0007502909176022817390711F080E201C01F
:102F00008BE20E946B1E8091790290917A02009769
:102F100029F0019771F46BE572E002C06EE572E092
:102F200085E092E00E948E2A85E092E0CF910C9499
:102F30008E1DCF9108952F923F924F925F926F9284
:102F40007F928F929F92AF92BF92CF92DF92EF9239
:102F5000FF920F931F93CF93DF93CDB7DEB72F97D9
:102F60000FB6F894DEBF0FBECDBFFC0183859485FC
:102F7000019721F485859685059721F51786108A96
:102F8000118A128ADF01929688E2FD0111928A95D8
:102F9000E9F72F960FB6F894DEBF0FBECDBFDF91D5
:102FA000CF911F910F91FF90EF90DF90CF90BF9046
:102FB000AF909F908F907F906F905F904F903F90D9
:102FC0002F9008958081813021F44090AD034D828F
:102FD00003C05090AE035D82FF87EE870E94910D83
:102FE0006E837F8388879987212C312CCC24CA94C7
:102FF000DC2C760119821A821B821C8200E010E010
:10300000812C912C54010E94910DAB01BC01DB017C
:10301000CA014E805F806884798484199509A60965
:10302000B7098397A105B10508F099C0EE85FF8522
:1030300081854C875D876A877B870E94400D2C01C4
:10304000990F660877084C855D856A857B85FFEF5B
:10305000CF16DF06EF06FF0641F181E021E0C21640
:1030600022E0D206E104F1040CF480E091E031E0CA
:10307000431632E05306610471040CF490E08917A2
:10308000A1F0DB01CA01C980DA80EB80FC808C19D9
:103090009D09AE09BF090697A105B10530F00F5F84
:1030A0001F4F49835A836B837C830130110508F4D9
:1030B00053C00330110590F00330110509F04CC0E6
:1030C000910140E050E0C501B4010E944827490148
:1030D0005A01C12CD12C7601C39411C0C301B20195
:1030E0007250810991099B01AC010E940427860E50
:1030F000971EA81EB91E2FEF221A320A2DC0A70153
:103100009601C701B6010E94042786169706A806F5
:10311000B90630F03FEFC31AD30AE30AF30AEFCF40
:103120002150310941095109AAE6B0E00E94A527C2
:10313000693843E1740781059105A8F0ED81F4E653
:10314000EF02600111240D2C000CEE08FF08C60EE2
:10315000D71EE81EF91E09C07301620154CFC12CAD
:10316000D12C760102C06B017C010E94910DEE858D
:10317000FF85038D148D258D368D2B013C01401A62
:10318000510A620A730A49EE441643E05406610488
:10319000710420F0638F748F858F968F209199032F
:1031A00030919A03A8EEB3E00E948F27EE85FF8549
:1031B00020A131A12330310529F021E030E040E0A9
:1031C00050E004C022E030E040E050E00E94482798
:1031D000DA01C90188519C4FAF4FBF4FEE85FF8583
:1031E0008C159D05AE05BF0508F043C08785908905
:1031F000A189B289892B8A2B8B2B49F40E94910DCE
:10320000EE85FF856787708B818B928B36C00E941D
:10321000910DEE85FF850785108921893289DC01B2
:10322000CB01801B910BA20BB30B813A9F40A105F0
:10323000B10518F1EE85FF858081886690E02F96B4
:103240000FB6F894DEBF0FBECDBFDF91CF911F91B7
:103250000F91FF90EF90DF90CF90BF90AF909F9035
:103260008F907F906F905F904F903F902F900C9435
:1032700058071786108A118A128A61E080E00E943E
:10328000901D8BE791E00E948E1DC701B6012AE0D8
:1032900030E040E050E00E944827F8EECF16F3E01F
:1032A000DF06E104F104B8F463EF72E085E092E038
:1032B0002A873B874C875D870E948E2AAAE0B0E070
:1032C0002A853B854C855D850E94A5279F938F931A
:1032D0007F936F9331C0CA01B90124E630E040E02A
:1032E00050E00E944827CB016AE070E00E9434273A
:1032F00021E030E0059714F420E030E05B01A20EFD
:10330000B31EC701B60128EE33E040E050E00E9452
:10331000482789018AE0A816B10421F40F5F1F4FE6
:10332000A12CB12C6AEF72E085E092E00E948E2A17
:10333000BF92AF921F930F9385E092E09F938F937C
:103340008DE792E09F938F930E94ED270FB6F8943C
:10335000DEBF0FBECDBF8DE792E02F960FB6F8947B
:10336000DEBF0FBECDBFDF91CF911F910F91FF90B8
:10337000EF90DF90CF90BF90AF909F908F907F9015
:103380006F905F904F903F902F900C948E1DEF9216
:10339000FF920F931F93CF93DF93EC018B018091EA
:1033A00066028111B3C18D859E858530910509F432
:1033B000F9C16817790709F4FFC180919803882340
:1033C00021F0813009F49DC0F7C17E876D8765309B
:1033D000710540F46330710508F047C06130710534
:1033E00030F4EAC16530710509F480C1E5C160E0DF
:1033F00070E0CE010E94F2050130110549F089818B
:103400009A810E94D705811106C064E070E005C072
:1034100061E070E002C063E070E0CE010E94F00461
:10342000888190E00130110519F028E030E002C0F9
:1034300020E030E0822B932B0E94BF061B8A1C8A5F
:103440001D8A1E8A89819A81FC0120A131A1233025
:10345000310509F0B1C164E070E0DF91CF911F91B7
:103460000F91FF90EF900C94F004CE010E94D705CD
:103470008111A2C189819A810E94D7058823E1F038
:103480000E94910D6B8B7C8B8D8B9E8B63E070E02B
:1034900089819A810E94F00463E070E0CE010E946D
:1034A000F0048881886190E0DF91CF911F910F91A6
:1034B000FF90EF900C94BF0689819A81FC0120A1B6
:1034C00031A12430310521F463E070E00E94F00462
:1034D00064E070E0CE010E94F0041B8A1C8A1D8A01
:1034E0001E8A8881806190E00E94BF0661E070E0E2
:1034F000CE01DF91CF911F910F91FF90EF900C942F
:10350000F205E981FA81E584F6846530710558F4A5
:103510006330710508F0CAC06130710549F062304E
:10352000710591F1F0C06530710509F4DFC0EBC0A1
:1035300060E070E0CE010E94F20561E070E0CE0133
:103540000E94F004109201021092020210920302F3
:1035500010920402F2E0EF16F10469F464E070E006
:1035600089819A810E94F004E981FA8180818860D2
:1035700090E00E94BF06888190E00E94BF061F8EE7
:10358000E981FA81178EBFC060E070E0CE010E9431
:10359000F2058D859E850397029708F044C082E06E
:1035A000E816F10491F5E981FA81878D81110BC04C
:1035B00061E070E0CE010E94F00464E070E0898177
:1035C0009A810E94F004E981FA81808190E0278D40
:1035D000211103C028E030E002C020E230E0822B5D
:1035E000932B0E94BF068881806290E00E94BF06F4
:1035F00081E08F8F0E94910D60930102709302020F
:1036000080930302909304027EC08881886090E0DA
:103610000E94BF0610920102109202021092030251
:103620001092040270C0E1E0EE16F10491F464E03F
:1036300070E0CE010E94F0041F8EE981FA81178E9E
:1036400010920102109202021092030210920402E0
:103650001BC0E894E1F88881EF28E1F490916502BD
:103660009813AAC09F8D911115C064E070E0CE013F
:103670000E94F0040E94910D609301027093020277
:1036800080930302909304028881886090E00E94F6
:10369000BF0639C090E02F8D211103C028E130E032
:1036A00002C020E230E0822B932BF1CFCE010E94AA
:1036B000D705811128C088A199A1049721F088819C
:1036C000886E90E018C010920102109202021092CF
:1036D0000302109204028881806190E00E94BF067C
:1036E00061E070E0CE010E94F2050DC08881886221
:1036F00090E080649160DF91CF911F910F91FF90D6
:10370000EF900C9458071E870D8756C061307105E5
:1037100009F04EC0888190E00E94BF061E870D8789
:103720008F89988DA98DBA8D892B8A2B8B2BA9F027
:103730001F8A188E198E1A8E60E070E0CE010E94EA
:10374000F20589819A810E94D705811124C0E981FF
:10375000FA81858596850297F1F08091660288232B
:1037600059F10230110541F58D859E85019729F4A7
:103770008881809365021E870D8780919803813030
:1037800039F480916502813019F48DE090E08CCE9F
:1037900089E090E089CE64E070E08CE493E00E94E0
:1037A000F004DBCF6130710519F41E861D86B8CF99
:1037B0000230110509F4B4CFDF91CF911F910F9121
:1037C000FF90EF9008958F929F92AF92BF92CF9209
:1037D000DF92EF92FF920F931F93CF93DF93CDB7BA
:1037E000DEB764970FB6F894DEBF0FBECDBF5F871C
:1037F000798BF42E411109C06F5F6D3040F02FEFCF
:10380000C21AD20A21E061E003C0242F01C021E0E6
:1038100089898B831A82198281E08D836E838EE47D
:103820008C0D8F83CE0101962C8B0E94E60E4B01EE
:103830005C010F8510E00E9421112C8930E021509D
:10384000310987E0829FF001839FF00D1124809160
:10385000EE029801281B3109C901079667E070E064
:103860000E943427DF01A80FB91F20E831E541E0AD
:1038700050E00E94B027680D791D8A1D9B1DF11034
:1038800004C060587A438940910964960FB6F89451
:10389000DEBF0FBECDBFDF91CF911F910F91FF9083
:1038A000EF90DF90CF90BF90AF909F908F90089552
:1038B0008F929F92AF92BF92CF92DF92EF92FF9240
:1038C0000F931F93CF93DF936C01E090C003F090B0
:1038D000C1030091C2031091C3032091C40330912E
:1038E000C5034091C6035091C7036091C80370910E
:1038F000C9038091CA039091CB030E94E31BC0ECE3
:10390000D3E068A379A38AA39BA3ECECF3E0E08067
:10391000F180028113812481358146815781608540
:103920007185828593850E94E31B6B017C016CA3EA
:103930007DA38EA39FA3AE89BF892CE330E00E94B4
:103940009E2708A119A12AA13BA148015901861A65
:10395000970AA80AB90A888E998EAA8EBB8EAA8564
:10396000BB852CE330E00E949E27C61AD70AE80ADE
:10397000F90ACC8EDD8EEE8EFF8EDF91CF911F91F6
:103980000F91FF90EF90DF90CF90BF90AF909F90FE
:103990008F90089591E09093EA028093E80310924B
:1039A000F3021092F20208952091F2029091E8033E
:1039B000213208F04AC08091C9028111FCCF32E067
:1039C0003093C90231E03093C8023FEF3093C70211
:1039D0001092C6022093C502AAECB2E045EA52E07A
:1039E000FA013E2F341B321718F43D913193F9CF71
:1039F0001092A4022091A402990F922B9093A402FA
:103A00009091A302913061F41092A3029091A402CC
:103A10009093BB009091BC0093FDF8CF95EC01C052
:103A200095EE9093BC009091C9029230E1F3909191
:103A3000C7029F3F79F08091C702803241F08091A8
:103A4000C702803331F084E005C081E003C082E02A
:103A500001C083E01092F3021092F2021092EA0287
:103A600008959091C9029111FCCF613208F060E293
:103A700091E09093C9029093C8022FEF2093C70260
:103A80001092C602260F2093C5029093A402909133
:103A9000A402880F892B8093A4028091A302813015
:103AA00061F41092A3028091A4028093BB008091E4
:103AB000BC0083FDF8CF85EC01C085EE8093BC008F
:103AC0008091C9028130E1F38091C602861710F41B
:103AD0006091C602A5EAB2E023E832E0F9018E2F38
:103AE000821B861718F48D918193F9CF1092F502FD
:103AF0006093F402862F0895009769F0FC0101900D
:103B00000020E9F73197AF01481B590BBC0181EB4D
:103B100093E00C94191480E090E008950C947C1DBF
:103B2000CF93DF93CDB7DEB728970FB6F894DEBFFB
:103B30000FBECDBF2091BC03222331F128E0E2E18A
:103B4000F1E0DE01119601900D922A95E1F72091A6
:103B5000B803261710F46FEF620FFE013196E60FDF
:103B6000F11DE60FF11D9081682F690F606840E03C
:103B700081EB93E028960FB6F894DEBF0FBECDBF61
:103B8000DF91CF910C94D41128960FB6F894DEBF34
:103B90000FBECDBFDF91CF9108958091BC038823E4
:103BA00051F040E061E081EB93E00E94D4118BE39F
:103BB0009FE10197F1F70895CF93DF939091BC03B4
:103BC000992309F457C09091BB03992311F097E012
:103BD00089279091BF039130C1F580FD03C020EC8F
:103BE00031E002C020E831E03093BE032093BD03F2
:103BF00081FF09C02091BD033091BE032F77309320
:103C0000BE032093BD0382FF09C08091BD03909144
:103C1000BE039E7F9093BE038093BD03D091BD03EE
:103C2000C091BE038091BA0380620E94CA1C82E1E7
:103C30000E949B118D2F0E949B118C2F0E949B1123
:103C40000E94D41C8111FCCF15C09091B60388232B
:103C500011F0986001C0977F9093B6038091B603EE
:103C6000682F687083FD60E881EB93E0DF91CF916E
:103C70000C94A011DF91CF910895CF92DF92EF9233
:103C8000FF920F931F93CF93DF931F92CDB7DEB7B1
:103C90007C018C01C12CD12CF80161918F01C601EE
:103CA00069830E94952A6981681719F0C6010E94EC
:103CB0009D2AFFEFCF1ADF0A8BE1C816D10461F706
:103CC000C7010F90DF91CF911F910F91FF90EF905F
:103CD000DF90CF900895E091B103F091B20301908D
:103CE000F081E02D682F81EB93E009948F929F92F1
:103CF000AF92BF920F931F93CF93DF93CDB7DEB7F1
:103D0000A1970FB6F894DEBF0FBECDBF19A2423007
:103D100008F44AE08E010F5D1F4F842E912CA12CD8
:103D2000B12CA50194010E944827E62FB901CA01D0
:103D300001501109EA3014F4E05D01C0E95CD801DA
:103D4000EC93232B242B252B61F7C8010E947C1DAB
:103D5000A1960FB6F894DEBF0FBECDBFDF91CF9115
:103D60001F910F91BF90AF909F908F900895CF9229
:103D7000DF92EF92FF920F931F93CF93E82F880F5C
:103D8000FF0BEC5FFC4FE4918DEF8E0F823068F4F7
:103D900068EE73E080E090E0CF911F910F91FF906B
:103DA000EF90DF90CF900C944D11E83091F5C0E08A
:103DB0000FE110E0C12C94E2D92E94EFE92EF12C02
:103DC000CF5FEC2FF0E0EE0FFF1FEB5AFE4F80812C
:103DD000918180179107A0F38C019C01A0EDB7E0C1
:103DE0000E948F279B01AC01C701B6010E944827A2
:103DF0002F3F31054105510509F010F72093B3001D
:103E00008091B100C770887FC82BC093B10081E05A
:103E100001C080E0CF911F910F91FF90EF90DF9054
:103E2000CF900895CF93DF93CDB7DEB761970FB6EC
:103E3000F894DEBF0FBECDBF789484B5826084BD98
:103E400084B5816084BD85B5826085BD85B581609E
:103E500085BD80916E00816080936E00109281001C
:103E600080918100826080938100809181008160D7
:103E70008093810080918000816080938000809198
:103E8000B10084608093B1008091B0008160809324
:103E9000B00080917A00846080937A0080917A00EB
:103EA000826080937A0080917A00816080937A00AA
:103EB00080917A00806880937A001092C10014BECD
:103EC0009EE088E10FB6F894A895809360000FBE3D
:103ED00090936000809180008C7F8093800080911F
:103EE0008100877E80618093810064EF71E080E0D3
:103EF00090E00E944D118091B0008C7F8160809392
:103F0000B0008091B10088608093B10010E03EE382
:103F1000E32EF12C812C44E2942E44EFA42EB12CFC
:103F20001F5FE12FF0E0EE0FFF1FEB5AFE4F808185
:103F300091818E159F05A0F37C019C01A8EEB3E052
:103F40000E948F279B01AC01C501B4010E94482744
:103F50002F3F31054105510509F010F72093B300BB
:103F60008091B1001770887F182B1093B10081E009
:103F70008093BF0362E370E080E090E00E94570D01
:103F80001092F5021092F4021092F3021092F202D3
:103F90000E9487139091BF038091BA038062913091
:103FA00069F50E94CA1C80E00E949B118FE10E946B
:103FB0009B110E94D41C882339F08091BC0382306D
:103FC00019F41092BC03EDC08091BA0380620E9484
:103FD000CA1C8CE00E949B118FE10E949B110E94E1
:103FE000D41C882321F08091BC03823051F380914E
:103FF000BA0380620E94CA1C81E032C00E94CA1CBF
:1040000080E00E949B118FEF0E949B1180E00E9434
:104010009B1180E00E949B1180E00E949B1180E038
:104020000E949B1180E00E949B1180E00E949B11E6
:1040300080E00E949B1180E00E949B1180E00E9422
:104040009B110E94D41C882329F08091BC038230EC
:1040500009F4B7CF8091BA0380620E94CA1C80E045
:104060000E949B1180E00E949B110E94D41C882317
:1040700029F08091BC03823009F4A3CF8091BC0366
:10408000823019F481E08093BC038091B50388608D
:104090008093B50382E08093B8031092B9038091B6
:1040A000BF038130E1F41092BE031092BD0313E010
:1040B00068E381EB93E00E94BA1168E181EB93E041
:1040C0000E94BA111150A1F768E281EB93E00E94BF
:1040D000BA1168E081EB93E00E94BA1128C06CE944
:1040E00081EB93E00E94A01168E981EB93E00E94CC
:1040F000A0116CE981EB93E00E94A01168E981EBCB
:1041000093E00E94A0116CE981EB93E00E94A01162
:1041100068E981EB93E00E94A01164E981EB93E0F0
:104120000E94A01160E981EB93E00E94A01165E07C
:1041300070E080E090E00E94570D6091B5036062EE
:1041400040E081EB93E00E94D41165E070E080E0F4
:1041500090E00E94570D6091B503606240E081EBF2
:1041600093E00E94D41165E070E080E090E00E944E
:10417000570D8CE08093B6038091BC03882331F007
:1041800040E06CE081EB93E00E94D4110E94CD1DD1
:1041900082E08093B70340E066E081EB93E00E9409
:1041A000D41187E00E94DC1D0E94CD1D60E080E0FC
:1041B0000E94901D67EE71E085E092E00E948E2AD9
:1041C00085E092E00E948E1D61E081E00E94901DDA
:1041D00063EE71E085E092E00E948E2A85E092E035
:1041E0000E948E1D80E20E946B1E6DED71E085E0E5
:1041F00092E00E948E2A85E092E00E948E1D80ED62
:1042000097E00E94D50161E081E00E94901D69ED78
:1042100071E085E092E00E948E2A85E092E00E94A3
:104220008E1D80E20E946B1E6FEC71E085E092E0D3
:104230000E948E2A85E092E00E948E1D08E010E028
:1042400080E20E946B1E01501109D1F761E083E00A
:104250000E94040D60E083E00E94D40C60E082E0E4
:104260000E94040D87EB91E090930101809300017F
:1042700080916900836080936900E89A61E08AE038
:104280000E94040D61E089E00E94040D61E088E075
:104290000E94040D61E087E00E94040D60E081E16E
:1042A0000E94040D60E080E10E94040D61E070E076
:1042B00082E093E00E94F00461E070E08CE493E01F
:1042C0000E94F00460E070E082E093E00E94F2055A
:1042D00060E070E08CE493E00E94F2051092FD0132
:1042E0001092FE011092FF01109200021092F9014B
:1042F0001092FA011092FB011092FC01109201023F
:1043000010920202109203021092040283E690E0DF
:1043100090936E0280936D02109267021092680271
:104320001092690210926A0281E08093650286EA27
:104330009FE09093F8018093F7018091F3019091B1
:10434000F401A091F501B091F6018093EF019093F3
:10435000F001A093F101B093F2010E945C0E8091F4
:104360009C03682F082E000C770B77FF03C0719514
:1043700061957109162F1F7187FF106288E60E94F0
:10438000CA1C67E086EF92E00E947C0C612F86EFEA
:1043900092E00E947C0C0E94D41C8AE00E94B71E0E
:1043A000811103C083E00E94DC1D89E00E94B71EDA
:1043B000811103C084E00E94DC1D80ED97E00E9423
:1043C000D5010E94CD1D0E94700681E10E94AB0CB8
:1043D00001E0019709F000E080E10E94AB0C11E0E0
:1043E000019709F010E0011102C01123F9F081E0FA
:1043F0000E94DC1D0E94CD1D6FEB71E085E092E014
:104400000E948E2A85E092E00E948E1D61E080E08D
:104410000E94901D002319F081E40E946B1E11235D
:1044200019F082E40E946B1E0E9427069E012F5FF6
:104430003F4F49013324339491E1292EA89580916F
:104440006C02882339F0E0910401F091050180E0CD
:104450000995CEC280916B02882331F088EA90E002
:104460000E94580710926B02809167029091680237
:10447000A0916902B0916A02892B8A2B8B2B81F55E
:1044800081E10E94AB0C019739F480910D0390916A
:104490000E03892B09F4B4C280E10E94AB0C019792
:1044A00039F48091570390915803892B09F4ADC2D8
:1044B00081E10E94AB0C892B39F480910D0390911E
:1044C0000E03019709F4A6C280E10E94AB0C892B70
:1044D00039F48091570390915803019709F49FC2D2
:1044E0008091670290916802A0916902B0916A027E
:1044F000892B8A2B8B2BA1F00E94910D00916702D2
:10450000109168022091690230916A020C501E4F8E
:104510002F4F3F4F061717072807390708F484C2A3
:1045200080910F0390911003059731F0809159030A
:1045300090915A03059711F481E01AC082E093E04C
:104540000E94D705182F8CE493E00E94D705111123
:104550000AC081110CC080916602811102C082E004
:1045600007C083E005C0882311F085E001C086E024
:104570000E94DC1D9091730280916602992309F4D8
:1045800055C0811150C080919803813091F4809181
:10459000220390912303049719F43092650209C015
:1045A00080916C0390916D030497B9F732E03093DA
:1045B000650261E070E082E093E00E94F00461E057
:1045C00070E08CE493E00E94F0040E94910D6093EF
:1045D000190370931A0380931B0390931C0310928A
:1045E000100310920F0310921503109216031092ED
:1045F00017031092180310922103609363037093C2
:104600006403809365039093660310925A0310929B
:10461000590310925F03109260031092610310928D
:10462000620310926B03309266020CC0882341F043
:104630001092100310920F0310925A031092590314
:104640001092660260E080E00E94901D88E60E9461
:10465000CA1C60E086EF92E00E947C0C0E94D41C91
:1046600061E070E088E690E00E94311D86EF92E004
:104670000E94380C87FD41C00E94C8070E9421118A
:104680008091ED0290E00C9714F411E401C010E564
:104690000E94C8070E9421110091EC020E94C807E5
:1046A0000E9421118091ED02882341F0E82EF12C27
:1046B0008D3038F04CE0E41AF10803C08CE0E82EAD
:1046C000F12C6BE172E085E092E00E948E2A1F924D
:1046D0001F931F920F93FF92EF9285E092E09F93BA
:1046E0008F931F922F929F928F920E94BD270FB699
:1046F000F894DEBF0FBECDBF16C062E172E085E068
:1047000092E00E948E2A85E092E09F938F931F9201
:104710002F929F928F920E94BD270F900F900F9023
:104720000F900F900F90C4010E948E1D8091660221
:10473000882319F069E072E018C066E072E085E055
:1047400092E00E948E2A85E092E00E948E1D809168
:104750009803882329F0813031F468EF71E005C0B7
:104760006FEF71E002C064EF71E085E092E00E94BB
:104770008E2A85E092E00E948E1D82E093E00E94E6
:1047800092045C01BC0182E093E00E94C7198CE4B2
:1047900093E00E9492048C01BC018CE493E00E949F
:1047A000C71940900102509002026090030270907D
:1047B0000402411451046104710409F461C00E94AF
:1047C000910D6B017C01DC01CB0184199509A609CF
:1047D000B709813E9349A440B10508F451C08091C6
:1047E000220390912303049711F561E070E082E0C9
:1047F00093E00E94F00464E070E08CE493E00E9497
:10480000F004C0920102D0920202E0920302F09200
:10481000040280912103811103C089E190E002C06C
:1048200081E290E00E94BF068AE090E027C080917C
:104830006C0390916D03049719F561E070E08CE4CE
:1048400093E00E94F00464E070E082E093E00E9454
:10485000F004C0920102D0920202E0920302F092B0
:10486000040280916B03811103C08AE190E002C0D1
:1048700082E290E00E94BF0689E090E00E94BF06BD
:104880000E94910DC0906F02D0907002E090710272
:10489000F09072029B01AC012C193D094E095F0991
:1048A00069017A0131E6C3163AEED306E104F10458
:1048B00040F060936F027093700280937102909346
:1048C000720282E093E00E949B178CE493E00E94C6
:1048D0009B1782E093E00E94A5138CE493E00E9472
:1048E000A5130E94EE019C01019729F490916602A4
:1048F000932590937302AA94AB2899F40130110583
:1049000081F42230310569F430926C021092100368
:1049100010920F0310925A031092590381E00E94E3
:10492000411500916D0210916E020E94C8070E940D
:1049300021118091EC0290E00817190709F458C082
:104940000E94C8070E9421118091EC0290E0909390
:104950006E0280936D020E94C8070E94211110917F
:10496000ED020E94C8070E9421110091EC020E94F2
:10497000C80720E831E541E050E00E944827CA011D
:10498000B9016C5F7F4F8F4F9F4F27E030E040E0D1
:1049900050E00E94482781E001C0880F6A95EAF73D
:1049A00020E030E0F901EA56FC4F9285992371F03E
:1049B000478141130BC04085401308C041854823FF
:1049C00029F0913049F0923071F012C02C5F3F4FC6
:1049D0002031310539F70CC080916602811108C081
:1049E0009093730205C08091660281111092730248
:1049F00080E090E0892B09F421CD0E9400001ACDBF
:104A000089E291E00E94580747CD8AE291E00E9436
:104A100058074ECD8AE290E00E94580755CD8AE2B1
:104A200090E00E9458075CCD1092670210926802D5
:104A30001092690210926A0273CDEF92FF920F9367
:104A40001F93CF93DF93CDB7DEB768970FB6F89477
:104A5000DEBF0FBECDBF1092F5021092F40210928D
:104A6000F3021092F2020E9487131092F902109240
:104A7000F80288EE93E0A0E0B0E08093FA02909311
:104A8000FB02A093FC02B093FD028EE191E09093B3
:104A9000F7028093F6028CE0E9E4F1E0DE011D9676
:104AA00001900D928A95E1F78CE0EDE3F1E0DE01F3
:104AB000119601900D928A95E1F78CE0FE013D96EA
:104AC000A0ECB3E001900D928A95E1F78CE0FE0135
:104AD0003196ACECB3E001900D928A95E1F710921B
:104AE000B4031092B30389E391E09093B2038093EF
:104AF000B10382E08093BC031092BB0380E28093F9
:104B0000BA031092B5031092BF031092AD03109236
:104B1000AE031092AF031092B00386E9E82E83E053
:104B2000F82E00E010E0C8010E94952AD7018D936D
:104B30007D010F5F1F4F0B311105A9F7809196037F
:104B400090919703813F910509F444C081EF90E073
:104B50009093970380939603109298038CE090E0D3
:104B600090939A038093990381E080939B03109222
:104B70009C0380E090E0FC01EA56FC4F128617820D
:104B800010861186049680319105A9F78EE38093F3
:104B9000A30380939F0387E180939D0387E0809325
:104BA000A10381EC8093A70383E18093A5038FEF9A
:104BB0008093AB038FE08093A9031092AD03109212
:104BC000AE031092AF031092B00386E993E00E9407
:104BD0003D1E65C080919803823010F010929803BA
:104BE0004091990350919A03EAE2F1E020E0B1E0AC
:104BF000E533FB0739F0819190E084179507B9F709
:104C000021E0F5CF211106C08CE090E090939A034B
:104C100080939903E0EAF3E08081833008F010820A
:104C2000DF0113978C91883108F01C92DF011297F5
:104C30008C918C3308F01C92DF018E918F778C93CE
:104C4000349683E0E03BF80739F78091AD03082EF6
:104C5000000C990B97FF03C09195819591090697D8
:104C600014F01092AD038091AE03082E000C990B46
:104C700097FF03C0919581959109069714F01092C2
:104C8000AE038091AF03865F8B3010F01092AF03BC
:104C90008091B003865F8B3010F01092B00381E0FA
:104CA000809302038CE493E09093040380930303C6
:104CB00088E090E090930603809305038AE090E0FB
:104CC000909308038093070381E090E090930A0398
:104CD0008093090327E030E030930C0320930B030B
:104CE00010920E0310920D031092100310920F03F6
:104CF00010921103109212031092130310921403D6
:104D000010921503109216031092170310921803B5
:104D10001092190310921A0310921B0310921C0395
:104D200010921D0310921E0310921F031092200375
:104D300010922103109223031092220388E2E4E2EE
:104D4000F3E0DF01982F1D929A95E9F792E0909396
:104D50004C0342E053E050934E0340934D03309395
:104D6000500320934F0329E030E030935203209307
:104D70005103109254031092530326E030E0309315
:104D80005603209355031092580310925703109224
:104D90005A031092590310925B0310925C03109215
:104DA0005D0310925E0310925F03109260031092F5
:104DB00061031092620310926303109264031092D5
:104DC00065031092660310926703109268031092B5
:104DD000690310926A0310926B0310926D03109294
:104DE0006C03EEE6F3E0DF011D928A95E9F7689621
:104DF0000FB6F894DEBF0FBECDBFDF91CF911F91EC
:104E00000F91FF90EF900895DB018F939F930E9485
:104E1000A527BF91AF91A29F800D911DA39F900DDB
:104E2000B29F900D11240895991B79E004C0991F39
:104E3000961708F0961B881F7A95C9F780950895F4
:104E4000AA1BBB1B51E107C0AA1FBB1FA617B707B0
:104E500010F0A61BB70B881F991F5A95A9F78095CC
:104E60009095BC01CD01089597FB072E16F4009490
:104E700007D077FD09D00E94202707FC05D03EF41B
:104E8000909581959F4F0895709561957F4F0895F6
:104E9000A1E21A2EAA1BBB1BFD010DC0AA1FBB1F3E
:104EA000EE1FFF1FA217B307E407F50720F0A21BB0
:104EB000B30BE40BF50B661F771F881F991F1A941D
:104EC00069F760957095809590959B01AC01BD0147
:104ED000CF010895052E97FB1EF400940E948127B0
:104EE00057FD07D00E94482707FC03D04EF40C94CE
:104EF000812750954095309521953F4F4F4F5F4FFB
:104F0000089590958095709561957F4F8F4F9F4F35
:104F10000895EE0FFF1F0590F491E02D0994A29FD4
:104F2000B001B39FC001A39F700D811D1124911D7D
:104F3000B29F700D811D1124911D08950E948F272D
:104F4000B7FF0895821B930B08950E948F27A59F9A
:104F5000900DB49F900DA49F800D911D1124089574
:104F6000B7FF0C94A5270E94A527821B930B0895D9
:104F700081E090E0F8940C94E22AAEE0B0E0E3EC3B
:104F8000F7E20C94B92A0D891E898F89988D26E045
:104F90002C831A83098397FF02C080E090E8019771
:104FA0009E838D83AE01455E5F4F698D7A8DCE0104
:104FB00001960E9410284D815E8157FD0AC02F8105
:104FC0003885421753070CF49A01F801E20FF31FDA
:104FD00010822E96E4E00C94D52AAEE0B0E0E3EF28
:104FE000F7E20C94B92A0D891E8986E08C831A8316
:104FF00009838FEF9FE79E838D83AE01475E5F4FEE
:105000006F89788DCE0101960E9410282F813885F6
:10501000F801E20FF31F10822E96E4E00C94D52ADB
:10502000ACE0B0E0E6E1F8E20C94AB2A7C016B0165
:105030008A01FC0117821682838181FFBDC1CE01E6
:1050400001964C01F7019381F60193FD859193FF41
:1050500081916F01882309F4ABC1853239F493FD46
:10506000859193FF81916F01853229F4B70190E01A
:105070000E94F829E7CF512C312C20E02032A0F4F7
:105080008B3269F030F4803259F0833269F4206158
:105090002CC08D3239F0803339F4216026C0226073
:1050A000246023C0286021C027FD27C030ED380FC1
:1050B0003A3078F426FF06C0FAE05F9E300D1124E6
:1050C000532E13C08AE0389E300D1124332E2062F7
:1050D0000CC08E3221F426FD6BC1206406C08C36D4
:1050E00011F4206802C0883641F4F60193FD8591E1
:1050F00093FF81916F018111C1CF982F9F7D9554AE
:10510000933028F40C5F1F4FFFE3F9830DC0833603
:1051100031F0833771F0833509F05BC022C0F801AC
:10512000808189830E5F1F4F44244394512C540186
:1051300015C03801F2E06F0E711CF801A080B1803B
:1051400026FF03C0652D70E002C06FEF7FEFC50141
:105150002C870E94ED292C0183012C852F77222E8C
:1051600017C03801F2E06F0E711CF801A080B18009
:1051700026FF03C0652D70E002C06FEF7FEFC50111
:105180002C870E94E2292C012C852068222E830185
:1051900023FC1BC0832D90E048165906B0F4B701DC
:1051A00080E290E00E94F8293A94F4CFF50127FCC0
:1051B000859127FE81915F01B70190E00E94F82957
:1051C00031103A94F1E04F1A51084114510471F72B
:1051D000E5C0843611F0893639F5F80127FF07C09C
:1051E00060817181828193810C5F1F4F08C0608153
:1051F0007181072E000C880B990B0E5F1F4F2F76C5
:10520000722E97FF09C090958095709561957F4F9C
:105210008F4F9F4F2068722E2AE030E0A4010E9439
:10522000302AA82EA81844C0853729F42F7EB22E24
:105230002AE030E025C0F22FF97FBF2E8F36C1F073
:1052400018F4883579F0B4C0803719F0883721F028
:10525000AFC02F2F2061B22EB4FE0DC08B2D846005
:10526000B82E09C024FF0AC09F2F9660B92E06C031
:1052700028E030E005C020E130E002C020E132E06B
:10528000F801B7FE07C060817181828193810C5F54
:105290001F4F06C06081718180E090E00E5F1F4F5C
:1052A000A4010E94302AA82EA818FB2DFF777F2E7C
:1052B00076FE0BC0372D3E7FA51450F474FE0AC055
:1052C00072FC08C0372D3E7E05C0BA2C372D03C0B6
:1052D000BA2C01C0B52C34FF0DC0FE01EA0DF11D42
:1052E0008081803311F4397E09C032FF06C0B39447
:1052F000B39404C0832F867809F0B39433FD13C0B0
:1053000030FF06C05A2CB31418F4530C5B18B32C9E
:10531000B31468F4B70180E290E03C870E94F8295A
:10532000B3943C85F5CFB31410F43B1801C0312C75
:1053300034FF12C0B70180E390E03C870E94F82957
:105340003C8532FF17C031FD03C088E790E002C002
:1053500088E590E0B7010CC0832F867859F031FFC3
:1053600002C08BE201C080E237FD8DE2B70190E020
:105370000E94F829A51438F4B70180E390E00E9458
:10538000F8295A94F7CFAA94F401EA0DF11D80810F
:10539000B70190E00E94F829A110F5CF332009F45D
:1053A00051CEB70180E290E00E94F8293A94F6CFFE
:1053B000F7018681978102C08FEF9FEF2C96E2E183
:1053C0000C94C72AFC010590615070400110D8F779
:1053D000809590958E0F9F1F0895FC01615070403D
:1053E00001900110D8F7809590958E0F9F1F08951A
:1053F0000F931F93CF93DF93FB01238121FD03C004
:105400008FEF9FEF28C022FF16C04681578124816D
:1054100035814217530744F4A081B1819D012F5F6C
:105420003F4F318320838C93268137812F5F3F4FFD
:105430003783268310C0EB01092F182F0084F185D4
:10544000E02D0995892BE1F68E819F8101969F833E
:105450008E83812F902FDF91CF911F910F9108950F
:10546000FA01AA27283051F1203181F1E8946F9395
:105470006E7F6E5F7F4F8F4F9F4FAF4FB1E03ED03B
:10548000B4E03CD0670F781F891F9A1FA11D680FD9
:10549000791F8A1F911DA11D6A0F711D811D911D0C
:1054A000A11D20D009F468943F912AE0269F112481
:1054B0003019305D3193DEF6CF010895462F4770E5
:1054C000405D4193B3E00FD0C9F7F6CF462F4F7040
:1054D000405D4A3318F0495D31FD4052419302D09E
:1054E000A9F7EACFB4E0A695979587957795679544
:1054F000BA95C9F700976105710508959B01AC0144
:105500000A2E06945795479537952795BA95C9F76A
:10551000620F731F841F951FA01D0895FB01DC01FE
:1055200005900D920020E1F70895F999FECF92BD04
:1055300081BDF89A992780B50895262FF999FECF55
:105540001FBA92BD81BD20BD0FB6F894FA9AF99AA0
:105550000FBE019608952F923F924F925F926F92E5
:105560007F928F929F92AF92BF92CF92DF92EF92F3
:10557000FF920F931F93CF93DF93CDB7DEB7CA1B74
:10558000DB0B0FB6F894DEBF0FBECDBF09942A889F
:10559000398848885F846E847D848C849B84AA8447
:1055A000B984C884DF80EE80FD800C811B81AA81D4
:1055B000B981CE0FD11D0FB6F894DEBF0FBECDBF9F
:0855C000ED010895F894FFCFFE
:1055C800ED0BED0B41151F1C1F1E1F1E1F1F1E1F5D
:1055D8001E1F0000400014005400000000007C0C56
:1055E8004C0CEE0B380C290C280C0C1014181C1E33
:1055F8002024282C32000000004F121914535400A4
:1056080000000001010B0200004453540000000296
:105618000103023C00000001000800200040008057
:105628000000010004000001000800400000010023
:0E563800042000410042002D002B00413A00EA
:00000001FF
