:100000000C948D010C940C0E0C94E50D0C94B50120
:100010000C94B5010C94B5010C94B5010C94B50188
:100020000C94B5010C94B5010C94B5010C94B50178
:100030000C94B5010C94B5010C94B5010C94B50168
:100040000C949B0D0C94B5010C94B5010C94B50166
:100050000C94B5010C94B5010C94B5010C94B50148
:100060000C9457120C94B501AE02E102EA02F502BB
:10007000FD02FD02FD02FD02FD02FD02FD020B0379
:100080003E15431554156515701580159015BD1551
:10009000C515F015E115F015F015F71517164416EE
:1000A00072169F16CC16F9162517455252200020BD
:1000B000646F6E6500207761697400206F6E202088
:1000C00000206F66662000202D2D2D2000636C65BA
:1000D00061720073657400537475636B200047464A
:1000E000492054657374204661696C7572650045DA
:1000F00072724A616E4665624D61724170724D6105
:10010000794A756E4A756C4175675365704F6374B3
:100110004E6F764465630020200025326400202065
:1001200020002020200020253264002020002530DF
:100130003264002020002532640053657420436C33
:100140006F636B00534D545754465300534D5457EF
:100150005446530020200025303264002020002522
:1001600032640045786974002020202000456469CD
:1001700074204576656E742000000000002400277E
:10018000002A0000000000250028002B00000000CD
:1001900000230026002900040404040404040402CB
:1001A0000202020202030303030303010204081014
:1001B000204080010204081020010204081020528F
:1001C000656C6179204661696C7572653A20003210
:1001D0002E342E312D6465760053573A00322E337B
:1001E0002E310048573A004A313737322048796477
:1001F00072612000554E4B007365716E746C007314
:100200006861726564004D3A004D3A50415553455E
:1002100044002020202020202020002532643A2580
:1002200030326425634D2000204361722025733AEB
:1002300020256425250050696C6F74206465726107
:10024000746500204361722025733A202573302E97
:10025000256400416D6D65746572004E6F005965CF
:10026000730045786974204D656E75733F004E6F5D
:10027000005965730043616C6962726174696F6EE5
:100280003F004E6F0059657300436F6E66696720CB
:100290004576656E74733F004E6F00596573004577
:1002A0006E61626C65204453543F004E6F00596587
:1002B000730053657420436C6F636B3F0020416D86
:1002C00070730043757272656E7420417661696C5B
:1002D0002E0053657175656E7469616C00536861B9
:1002E000726564004F7065726174696E67204D6F4E
:1002F00064650025336C756D41002532642E253010
:1003000031644100000000080002010000030407FE
:100310000000000000000000232511241FBECFEFC5
:10032000D8E0DEBFCDBF11E0A0E0B1E0E8EBF5E53D
:1003300002C005900D92AC37B107D9F723E0ACE7C6
:10034000B1E001C01D92A739B207E1F711E0CDE895
:10035000D1E004C02197FE010E948127CC38D1074B
:10036000C9F70E944F1F0C94DA2A0C94000060E039
:1003700088E00E94D20C60E087E00E94D20CE0E0AE
:10038000F3E016A615A6148613860E948F0D6093BF
:10039000650270936602809367029093680281E021
:1003A000809369020895CF93DF93EC01C536D105A0
:1003B00050F064E670E080E090E00E94550DC45675
:1003C000D109A895F3CFBE0180E090E00E94550DC1
:1003D000A895DF91CF9108950F931F938091FB0112
:1003E0009091FC01A091FD01B091FE01892B8A2B17
:1003F0008B2BA9F00E948F0D0091FB011091FC0145
:100400002091FD013091FE01DC01CB01801B910B9D
:10041000A20BB30BC297A105B10508F444C010921A
:10042000FB011092FC011092FD011092FE018091DF
:100430006A038823C1F08091680380620E94071DCF
:1004400082E10E9499110E94111D809168038062CF
:1004500061E070E090E00E946E1D84EF92E00E94E7
:10046000360C80958F714091F7015091F8016091A1
:10047000F9017091FA0180FF19C0452B462B472BDB
:1004800091F40E948F0D6093F7017093F8018093AF
:10049000F9019093FA016093FB017093FC01809342
:1004A000FD019093FE0180E090E02EC0452B462B8D
:1004B000472BC9F30E948F0D6093FB017093FC01E1
:1004C0008093FD019093FE010091F7011091F801D6
:1004D0002091F9013091FA01DC01CB01801B910BD5
:1004E000A20BB30B1092F7011092F8011092F901D0
:1004F0001092FA018B3F9105A105B10518F481E036
:1005000090E002C082E090E01F910F910895FF9269
:100510000F931F93CF93DF9300D000D0CDB7DEB7FA
:10052000F82E0E94EC018C01FF2039F00E940A1E77
:10053000109291011092900104C08130910509F050
:1005400075C090919101492F50E04C30510508F051
:10055000AFC0FA01EC5CFF4F0C948127F11005C08D
:10056000809190018F5F8093900180919001853000
:1005700010F010929001E0919001E43008F098C0E2
:1005800034E0E39FF0011124E55BFC4F8081809310
:100590008F01918190938E01928190938D0193812F
:1005A00090938C0191E08C3008F490E090938B0153
:1005B000811102C08CE00BC08D3008F479C08C50E2
:1005C00006C080918F018F5F8D3008F081E08093AD
:1005D0008F016EC080918E018F5F8C3318F48093F1
:1005E0008E0166C010928E0163C081E090918B01F4
:1005F000911180E080938B015BC02CEF290F81E08B
:1006000090E001C0880F2A95EAF790918D01892723
:1006100080938D014DC080918C018F5F833018F4E1
:1006200080938C0145C010928C0142C0029709F062
:1006300041C09091910191110FC08091900184303F
:1006400059F481E095E190930501809304011092A3
:100650006A020E940A1E5AC19F5F909391019C30CA
:1006600048F180918F0190918B01911103C08C30E2
:1006700031F44AC1913019F48C3009F0845FE09173
:10068000900194E0E99FF0011124E55BFC4F808329
:1006900080918E01818380918D01828380918C0174
:1006A000838384E493E00E947A1E109291012EC10C
:1006B00001E010E00E948F0D28EE33E040E050E0B2
:1006C0000E94402721E0643F71408105910508F4B4
:1006D00020E0012B29F490918A01921709F416C1A8
:1006E00020938A0160E080E00E94CD1D6DE671E0FC
:1006F00083E092E00E94862A83E092E00E94CB1D74
:1007000080918A01882339F080919101811103C081
:1007100068E671E006C060919001643059F463E6C8
:1007200071E083E092E00E94862A83E092E00E94DA
:10073000CB1D0AC070E06F5F7F4F072E000C880B47
:10074000990B4AE00E94B31E61E080E00E94CD1D3B
:1007500080919001843049F400E110E080E20E9431
:10076000A81E01501109D1F7D1C010918F016FE57A
:1007700071E083E092E00E94862A1F921F9383E03B
:1007800092E09F938F938E010F5F1F4F1F930F93E4
:100790000E94E5270F900F900F900F900F900F90F1
:1007A00080918A01882369F080919101813049F418
:1007B0006CE571E083E092E00E94862A83E092E09B
:1007C00001C0C8010E94CB1D8AE30E94A81EF090C0
:1007D0008E0167E571E083E092E00E94862A1F9215
:1007E000FF9283E092E09F938F931F930F930E9459
:1007F000E5270F900F900F900F900F900F90809122
:100800008A01882369F080919101823049F464E57E
:1008100071E083E092E00E94862A83E092E001C0CA
:10082000C8010E94CB1D80918A01882331F08091FC
:100830009101833011F480E207C080918B018130F7
:1008400011F081E401C080E50E94A81E80E20E94B0
:10085000A81E00E010E064E471E083E092E00E94F2
:10086000862AE3E0F2E001900020E9F73197E350B7
:10087000F2400E171F0758F58091910190E0980102
:100880002C5F3F4F2817390731F480918A01882364
:1008900011F080E217C080918D0190E0002E02C01F
:1008A000959587950A94E2F780FF0BC06CE471E0A0
:1008B00083E092E00E94862AF801ED5FFD4F80817F
:1008C00001C08DE20E94A81E0F5F1F4FC4CF80E2BF
:1008D0000E94A81E809191018B3031F480918A0191
:1008E000882311F080E20DC080918C01811102C03B
:1008F0008EE407C0813011F483E503C0823031F407
:1009000087E40E94A81E02C080E0B9CE0F900F902D
:100910000F900F90DF91CF911F910F91FF9008954D
:100920008F929F92AF92BF92EF92FF920F931F937D
:10093000CF93DF937C010E948F0D4B015C01C0E0DF
:10094000D0E00FE017E20E948F0DDC01CB01881987
:100950009909AA09BB094497A105B10568F4F701F3
:1009600087810E943E0DC817D90708F4EC01801753
:10097000910748F78C01E7CF0B5F11090133114054
:10098000A0F0C63683E0D80798F4CE018750934094
:100990008F35910580F0835A9F4F8D35910570F00A
:1009A000C256D240C834D10560F085E090E00BC05B
:1009B00081E090E008C082E090E005C083E090E034
:1009C00002C084E090E0DF91CF911F910F91FF90E2
:1009D000EF90BF90AF909F908F900895CF92DF924D
:1009E000EF92FF920F931F93CF93DF93EC018B0154
:1009F0008881813019F440915D0302C040915E030B
:100A00000230110518F4602F8D81A4C02091470396
:100A100030914803A8EEB3E00E9487270330110508
:100A200021F496958795779567954423D1F0A42F67
:100A3000440FBB0BAC59BF4F9B01AC010E94A827D0
:100A400024E630E040E050E00E944027203787E174
:100A500038074105510568F460E777E180E090E0F0
:100A600010C06133E5E77E078105910508F098C065
:100A70001AC0CA01B901213335474105510508F0B3
:100A80008FC02CE330E040E050E00E944027942FDC
:100A9000832F722F662728EE33E040E050E00E945B
:100AA0006227790109C0603727E172078105910546
:100AB00040F7EE24EA94F12CCD80DE8061E08C2DAD
:100AC0000E94020DFFEFEF16F10409F441C0F60198
:100AD000FF27EC5FFC4FE491E330E1F058F4E230A3
:100AE00099F584B5806284BD27B530E058E4C52E01
:100AF000D12C3DC0E430D9F0E83031F58091B00020
:100B000080628093B0002091B30030E084EBC82E67
:100B1000D12C2DC08091800080688093800020912E
:100B200086003091870048E8C42ED12C2CC08091DB
:100B30008000806280938000209186003091870041
:100B40009AE8C92ED12C1FC0E7FC02C060E001C0AA
:100B500061E08C2D0E94D20C19A308A3DF91CF91E4
:100B60001F910F91FF90EF90DF90CF900895D701E4
:100B70000E9487272FEF30E040E050E00E9440279E
:100B8000F6012083E9CFD7010E9487272FEF30E0BD
:100B900040E050E00E944027F60131832083DCCF03
:100BA00060E375E780E090E06CCFFC018091640227
:100BB000811112C0258536852530310581F0838964
:100BC0009489A589B689892B8A2B8B2B39F42385A7
:100BD000348581E0232B19F480E0089581E00895A5
:100BE0000F931F93CF93DF938C01EB0180910B0345
:100BF00090910C03892B49F480912D0390912E0341
:100C0000892B19F461307105C1F0F8018385948551
:100C10008C179D07A9F06C2F83810E94D20CF801DC
:100C2000D487C3870E948F0D60936502709366021C
:100C3000809367029093680203C00E946E06E5CF1E
:100C4000DF91CF911F910F91089560E070E080E0F7
:100C500093E00E94EE0460E070E082E293E00E9484
:100C6000EE0460E070E080E093E00E94F00560E058
:100C700070E082E293E00E94F005A895FECFC82FB5
:100C800081E00E94191E0E940A1E6EED70E083E052
:100C900092E00E94862A83E092E00E94CB1D61E0F0
:100CA00080E00E94CD1D67ED70E083E092E00E943D
:100CB000862A83E092E00E94CB1DCC2319F063EDDD
:100CC00070E002C06DEC70E083E092E00E94862A42
:100CD00083E092E00E94CB1D0E942506CF92DF9216
:100CE000EF92FF920F931F93CF93DF9310926902BD
:100CF000C2E3D0E00BEF1CE761E083E00E94D20C7E
:100D0000C8010197F1F760E083E00E94D20CC801AE
:100D10000197F1F780916902811103C0A89521978D
:100D200059F7809169028823B9F00E948F0D6B01F9
:100D30007C0124E6C20ED11CE11CF11C82E00E9461
:100D4000A90C019759F4A8950E948F0DC616D706D5
:100D5000E806F90698F781E00E943F0680E991E0F5
:100D60000E94D30110926902DF91CF911F910F91E0
:100D7000FF90EF90DF90CF9008950F931F93CF9344
:100D8000DF93EC01CE01837099278130910549F002
:100D9000029751F0CC7FCE0181600E94BD06C260F7
:100DA000F1CF01E410E002C002E418E061E0812F1D
:100DB0000E94CD1D802F0E94A81E8AE30E94A81EBB
:100DC0009E012873332720313105B1F048F42115F5
:100DD000310579F028303105E9F461EC70E00EC09E
:100DE00028313105A1F020323105A1F46FEA70E01D
:100DF00005C067EC70E002C06BEB70E083E092E04E
:100E00000E94862A83E092E00E94CB1D38C065EBE9
:100E100070E0F4CF81E00E94191E6AEA70E083E07E
:100E200092E00E94862A83E092E00E94CB1D9E0100
:100E3000207C317020383105B9F038F421153105A6
:100E400089F020343105C1F015C0211581E0380743
:100E500069F0203481E0380759F0203C310551F425
:100E600084E50BC086E409C087E407C082E505C0BD
:100E700085E403C08FE301C08FE40E94A81E81E7D0
:100E800091E00E94CB1DC2FF0CC061E086E0810FA3
:100E90000E94CD1D8AE2DF91CF911F910F910C949A
:100EA000A81EDF91CF911F910F910895CF92DF92ED
:100EB000EF92FF920F931F93CF93DF938C010E94C9
:100EC0008F0D6B017C01E801C370DD271092FF01DB
:100ED000109200021092010210920202C230D1055B
:100EE00020F0229709F047C024C061E070E080E064
:100EF00093E00E94EE0480910D0390910E030597FC
:100F000071F085E090E090930E0380930D03C09202
:100F10001703D0921803E0921903F0921A0310926B
:100F20001303109214031092150310921603CD2B85
:100F300011F561E070E082E293E00E94EE0480919E
:100F40002F0390913003059771F085E090E0909326
:100F5000300380932F03C0923903D0923A03E0927A
:100F60003B03F0923C03109235031092360310922B
:100F7000370310923803C801DF91CF911F910F9171
:100F8000FF90EF90DF90CF900C94BD06CF92DF9250
:100F9000EF92FF92CF93DF9380914903882309F466
:100FA00062C00E945A0E6B017C010E944311EC0149
:100FB00060918603709187038091880390918903E3
:100FC0000E944311C817D90731F0C701B6010E942A
:100FD00043110E94951CC701B6010E944311EC0108
:100FE00060918603709187038091880390918903B3
:100FF0000E944311C817D90731F0C701B6010E94FA
:1010000043110E94951C40918A0350918B0360917B
:101010008C0370918D038091860390918703A0913A
:101020008803B0918903481759076A077B0741F184
:1010300084179507A607B70758F4C816D906EA0615
:10104000FB06F0F0C416D506E606F706C8F413C092
:10105000C416D506E606F70670F0C816D906EA06E5
:10106000FB0648F40DC0DF91CF91FF90EF90DF9029
:10107000CF900C945A0EA0917803B091790304C0DC
:10108000A0918403B09185032CE330E00E94962761
:101090006C0D7D1D8E1D9F1DDF91CF91FF90EF90F8
:1010A000DF90CF900895CF92DF92EF92FF920F934F
:1010B0001F93CF93DF93CDB7DEB72E970FB6F8947B
:1010C000DEBF0FBECDBFF82E0E94EC018C01FF20C9
:1010D00009F456C00E940A1E6AE371E083E092E0C0
:1010E0000E94862A83E092E00E94CB1D0E94C607E0
:1010F0000E941F112091EB02222331F0822F90E0F9
:101100002D3020F00C9702C08CE090E080938F018E
:101110000E94C6070E941F118091EB0290E021E01F
:101120000C970CF420E020938B010E94C6070E94CC
:101130001F118091EA0280938E010E94C6070E94CF
:101140001F118091ED02809389010E94C6070E94C1
:101150001F118091EE02809388010E94C6070E94B1
:1011600043119C012A5D37402B30310510F08AED88
:1011700097E09093870180938601109291015DC062
:101180008130910509F051C090919101923001F1A7
:1011900028F4992349F0913081F09BC1943061F19A
:1011A00010F1953091F195C180918F018F5F8D3055
:1011B00008F081E080938F018CC180918E018F5F58
:1011C0008C3318F480938E0184C110928E0181C1FA
:1011D00080918B018F5F823018F480938B0179C1ED
:1011E00010928B0176C1809189018F5F803208F067
:1011F00081E0809389016DC1809188018F5F8D307E
:1012000008F081E08093880164C18091860190910B
:1012100087010196853E27E0920710F08AED97E05E
:10122000909387018093860154C1029709F051C1C0
:10123000809191018F5F809391018091910186301F
:1012400008F445C190918B0180918F01911105C0E7
:101250008C3051F410928F0107C0913029F48C30FA
:1012600019F0845F80938F0180918601825B8E8765
:10127000809188018D87809189018C8780918F0171
:101280008A8780918E0189871886CE0108960E94F0
:10129000E40E6B017C0180914903882309F47FC02F
:1012A000C701B6010E9443118C0160918E037091B9
:1012B0008F0380919003909191030E94431108172E
:1012C000190731F0C701B6010E9443110E94951C15
:1012D000C701B6010E9443118C0160918E03709189
:1012E0008F0380919003909191030E9443110817FE
:1012F000190731F0C701B6010E9443110E94951CE5
:1013000040918A0350918B0360918C0370918D03FF
:101310008091860390918703A0918803B0918903FF
:10132000481759076A077B0709F4F3C140919203F4
:1013300050919303609194037091950380918E0373
:1013400090918F03A0919003B0919103841795071A
:10135000A607B70768F4C816D906EA06FB0608F41C
:10136000D8C1C416D506E606F70608F0D2C10BC0F0
:10137000C416D506E606F70630F0C816D906EA0602
:10138000FB0608F4C6C1A0917803B09179032CE361
:1013900030E00E949627C61AD70AE80AF90AC70160
:1013A000B6010E94330EAE014F5F5F4FC701B60119
:1013B0000E944E1088E60E94071D60E084EF92E0D4
:1013C0000E947A0C60E884EF92E00E947A0C8A8195
:1013D0001AE0612F0E940C27692F30E1839F600D76
:1013E000112484EF92E00E947A0C8B81612F0E947D
:1013F0000C27692F20E1829F600D112484EF92E079
:101400000E947A0C8C81612F0E940C27692F30E199
:10141000839F600D112484EF92E00E947A0C8D81ED
:10142000612F0E940C27692F20E1829F600D1124FB
:1014300084EF92E00E947A0C8E81612F0E940C272B
:10144000692F30E1839F600D112484EF92E00E94A8
:101450007A0C8F818E51612F0E940C27692F20E119
:10146000829F600D112484EF92E00E947A0C0E940A
:10147000111D882319F0109292011EC001E0009303
:10148000920188E60E94071D60E084EF92E00E94CE
:101490007A0C8981612F0E940C27692F30E1839F8C
:1014A000600D112484EF92E00E947A0C0E94111DBD
:1014B0008111E1CF0093920181E095E190930501C4
:1014C0008093040110926A020E940A1E27C102E062
:1014D00010E00E948F0D28EE33E040E050E00E94C3
:1014E000402721E0643F71408105910508F420E028
:1014F000012B29F490918A01921709F40FC12093CE
:101500008A0161E080E00E94CD1D10918F0166E3A9
:1015100071E083E092E00E94862A1F921F9383E08D
:1015200092E09F938F938E010F5F1F4F1F930F9336
:101530000E94E5270F900F900F900F900F900F9043
:101540008091910181110DC080918A01882349F019
:1015500063E371E083E092E00E94862A83E092E0F8
:1015600001C0C8010E94CB1D8AE30E94A81EF09012
:101570008E016EE271E083E092E00E94862A1F9263
:10158000FF9283E092E09F938F931F930F930E94AB
:10159000E5270F900F900F900F900F900F90809174
:1015A0009101813069F480918A01882349F06BE2CE
:1015B00071E083E092E00E94862A83E092E001C01D
:1015C000C8010E94CB1D80919101823031F480913D
:1015D0008A01882311F080E207C080918B0181117C
:1015E00002C081E401C080E50E94A81EF09089013C
:1015F00066E271E083E092E00E94862A1F92FF92E9
:1016000083E092E09F938F931F930F930E94E527AF
:101610000F900F900F900F900F900F90809191016D
:10162000833069F480918A01882349F062E271E095
:1016300083E092E00E94862A83E092E001C0C80124
:101640000E94CB1D8DE20E94A81E809191018430E2
:1016500069F480918A01882349F06EE171E083E0AA
:1016600092E00E94862A83E092E019C020918801CE
:1016700083E0289F90011124ACE7B1E080E090E086
:10168000FC01E20FF31FE151FF4FE491ED9301964E
:1016900083309105A9F710927F018CE791E00E94B9
:1016A000CB1D8DE20E94A81E80918601909187013A
:1016B00064E670E00E941827F82EE92E6AE171E0D6
:1016C00083E092E00E94862AEF92FF9283E092E00C
:1016D0009F938F931F930F930E94E5270F900F9076
:1016E0000F900F900F900F9080919101853069F4C9
:1016F00080918A01882349F067E171E083E092E0FC
:101700000E94862A83E092E001C0C8010E94CB1D9E
:1017100005C0A0918403B091850339CE2E960FB6F3
:10172000F894DEBF0FBECDBFDF91CF911F910F9117
:10173000FF90EF90DF90CF900895833081F028F4F0
:10174000813099F08230A1F008958730A9F0883077
:10175000B9F08430D1F4809180008F7D03C08091F6
:1017600080008F7780938000089584B58F7702C0C2
:1017700084B58F7D84BD08958091B0008F7703C0BC
:101780008091B0008F7D8093B00008953FB7F894AA
:101790008091E9019091EA01A091EB01B091EC01F7
:1017A00026B5A89B05C02F3F19F00196A11DB11DBC
:1017B0003FBFBA2FA92F982F8827820F911DA11DF7
:1017C000B11DBC01CD0142E0660F771F881F991F34
:1017D0004A95D1F7089508958091F20290E0209102
:1017E000F302821B9109089585ED8093BC008091DE
:1017F000BC0084FDFCCF1092C70208954091B50152
:10180000262F30E0240F311D21323105DCF42091E8
:10181000C7022430C9F4FC0180E090E0861758F438
:101820003091B5012191DC01AD56BE4FA30FB11D22
:101830002C930196F3CF8091B501680F6093B501A9
:1018400080E0089581E0089582E008950895E09190
:10185000F3028091F202E81730F4F0E0EF57FD4F09
:10186000808190E008958FEF9FEF08959091F302AB
:101870008091F202981750F4E92FF0E0EF57FD4FF6
:10188000208130E09F5F9093F30202C02FEF3FEF83
:10189000C9010895CF92DF92EF92FF920F931F93A9
:1018A000CF93DF937C01262F972F8A018091E80246
:1018B000882391F0C62FD72F6E01C40ED51ECC15EC
:1018C000DD0571F06991D701ED91FC910190F081F6
:1018D000E02DC7010995F3CF642F822F0E94FE0BE4
:1018E000C801DF91CF911F910F91FF90EF90DF9092
:1018F000CF900895CF93DF931F92CDB7DEB7698362
:101900002091E8022223D1F02091F002203240F011
:1019100021E030E0FC013383228380E090E015C0B9
:101920008091F102E82FF0E0E853FD4F9981908318
:101930008F5F8093F1028093F00205C061E0CE01D9
:1019400001960E94FE0B81E090E00F90DF91CF9115
:101950000895CF93DF93282F30E0F901EC5FFC4F1F
:101960008491F901E555FE4FD491F901E956FE4FF6
:10197000C491CC2391F081110E949D0BEC2FF0E0DB
:10198000EE0FFF1FE357FE4FA591B491EC91ED23AD
:1019900081E090E021F480E002C080E090E0DF91FF
:1019A000CF9108951F93CF93DF93282F30E0F90153
:1019B000EC5FFC4F8491F901E555FE4FD491F9019C
:1019C000E956FE4FC491CC23C9F0162F81110E9415
:1019D0009D0BEC2FF0E0EE0FFF1FED57FE4FA59192
:1019E000B4918FB7F894111105C09C91ED2FE0953B
:1019F000E92302C0EC91ED2BEC938FBFDF91CF91E7
:101A00001F910895CF93DF9390E0FC01E555FE4FC1
:101A10002491FC01E956FE4F8491882361F190E006
:101A2000880F991FFC01E758FE4FC591D491FC0126
:101A3000ED57FE4FA591B491611109C09FB7F8947D
:101A40008881209582238883EC912E230BC06230FD
:101A500061F49FB7F8943881822F8095832388831F
:101A6000EC912E2B2C939FBF06C08FB7F894E88182
:101A70002E2B28838FBFDF91CF9108958E3008F0F1
:101A80008E508770806480937C0080917A0080649F
:101A900080937A0080917A0086FDFCCF8091780057
:101AA0002091790090E0922B08958F929F92AF92AF
:101AB000BF92CF92DF92EF92FF926B017C010E9466
:101AC000C60B4B015C01C114D104E104F104F1F037
:101AD0000E94C60BDC01CB0188199909AA09BB0930
:101AE000883E9340A105B10570F321E0C21AD108E8
:101AF000E108F10888EE880E83E0981EA11CB11C55
:101B0000C114D104E104F10419F7DDCFFF90EF9087
:101B1000DF90CF90BF90AF909F908F9008952FB798
:101B2000F8946091E5017091E6018091E701909150
:101B3000E8012FBF08951F920F920FB60F92112444
:101B40002F933F938F939F93AF93BF938091E50122
:101B50009091E601A091E701B091E8013091E40194
:101B600023E0230F2D3720F40196A11DB11D05C0E0
:101B700026E8230F0296A11DB11D2093E401809356
:101B8000E5019093E601A093E701B093E80180910D
:101B9000E9019091EA01A091EB01B091EC0101966D
:101BA000A11DB11D8093E9019093EA01A093EB017F
:101BB000B093EC01BF91AF919F918F913F912F9185
:101BC0000F900FBE0F901F9018951F920F920FB697
:101BD0000F9211242F933F934F935F936F937F93B3
:101BE0008F939F93AF93BF93EF93FF93E091020185
:101BF000F09103010995FF91EF91BF91AF919F91F2
:101C00008F917F916F915F914F913F912F910F90A5
:101C10000FBE0F901F9018951F920F920FB60F9244
:101C200011242F933F934F935F936F937F938F93E1
:101C30009F93AF93BF93EF93FF93E0910001F091D7
:101C400001010995FF91EF91BF91AF919F918F9104
:101C50007F916F915F914F913F912F910F900FBEA8
:101C60000F901F9018956093F1017093F20180938B
:101C7000F3019093F401DC01CB01845D9E4FAF4FE3
:101C8000BF4F8093ED019093EE01A093EF01B093CD
:101C9000F00182E090E09093E3018093E2010E94E2
:101CA0008F0D6093DE017093DF018093E0019093CC
:101CB000E1010895CF92DF92EF92FF920F931F936D
:101CC0000E948F0DC090DE01D090DF01E090E00116
:101CD000F090E1018B019C010C191D092E093F09AF
:101CE0008091F1019091F201A091F301B091F40182
:101CF000083E134021053105D0F00196A11DB11D0C
:101D00008093F1019093F201A093F301B093F40159
:101D1000B701A60148515C4F6F4F7F4F4093DE01E2
:101D20005093DF016093E0017093E101C9CF4091CE
:101D3000ED015091EE016091EF017091F001841777
:101D40009507A607B70788F1E091F501F091F60134
:101D5000309759F10995611571058105910519F0C3
:101D60000E94330E22C08091F1019091F201A09166
:101D7000F301B091F401845D9E4FAF4FBF4F80934C
:101D8000ED019093EE01A093EF01B093F00181E09B
:101D900090E02091E2013091E301232B11F480E0E7
:101DA00090E09093E3018093E2016091F1017091E2
:101DB000F2018091F3019091F4011F910F91FF9036
:101DC000EF90DF90CF9008956F927F928F929F92C5
:101DD000AF92BF92CF92DF92EF92FF920F931F9339
:101DE000CF93DF93EC01EE81AE2FB0E020E833E338
:101DF00041EE51E00E949D274B015C0122EB37E050
:101E0000FD0104E610E080E9E82EFF24F394C90107
:101E1000825B97408E179F07DCF4C9018370992776
:101E2000892B99F4C901B8010E942C27892B31F420
:101E3000C901B7010E942C27892B39F480E8880E4C
:101E400081E5981E81E0A81EB11C2F5F3F4FDFCFB8
:101E50006D80712CEE54F84FCF0164E670E00E9463
:101E60002C277C01CF0160E971E00E942C276C01D6
:101E700001E010E0E370FF27061517052CF502308E
:101E8000110581F4309771F4E114F10419F4C114CF
:101E9000D10441F480E8880E8BE3981E86E2A81EE8
:101EA000B11C0FC0D801AB5FBE4FAC91B0E020E8D1
:101EB00031E541E050E00E949D27860E971EA81E46
:101EC000B91E0F5F1F4FD8CF49812A8130E0A0E1B2
:101ED000BEE00E9487276B017C01242F30E0ACE339
:101EE000B0E00E948727DC01CB018C0D9D1DAE1D4B
:101EF000BF1D28816C017D01C20ED11CE11CF11CAB
:101F0000AC81B0E0119720E831E541E050E00E945B
:101F1000A827DC01CB018C0D9D1DAE1DBF1DBC0192
:101F2000CD01680D791D8A1D9B1DDF91CF911F91F9
:101F30000F91FF90EF90DF90CF90BF90AF909F9068
:101F40008F907F906F9008951F93CF93DF93CDB7BD
:101F5000DEB727970FB6F894DEBF0FBECDBF88E679
:101F60000E94071D60E084EF92E00E947A0C0E94BC
:101F7000111D882319F01092920183C081E0809393
:101F8000920167E070E088E690E00E946E1D80910B
:101F9000F20290E02091F302821B910907970CF462
:101FA00070C084EF92E00E94360C182F86958695BB
:101FB00086958E70982F990F990F890F912F9F708A
:101FC000890F898384EF92E00E94360C282F229596
:101FD0002F70982F9F708AE0289F900D11249A836C
:101FE00084EF92E00E94360C982F282F2695269594
:101FF00026952670822F880F880F280F9F70920FCA
:102000009B8384EF92E00E94360C282F22952F703C
:10201000982F9F708AE0289F900D11249C8384EF55
:1020200092E00E94360C282F22952F70982F9F70D7
:102030008AE0289F900D11249D8384EF92E00E94F6
:10204000360C282F22952F70982F9F708AE0289F9A
:10205000900D11249E8384EF92E00E94360C982FFD
:102060009F70925E282F22952F708AE0289F900DF6
:1020700011249F8317FD05C0CE0101960E94E40E36
:1020800003C060E070E0CB0127960FB6F894DEBF86
:102090000FBECDBFDF91CF911F9108956F927F92B8
:1020A0008F929F92AF92BF92CF92DF92EF92FF9268
:1020B0000F931F93CF93DF93EA012CE3C22ED12C11
:1020C000E12CF12CA70196010E9440276883CA01E8
:1020D000B901A70196010E9440276983CA01B9018D
:1020E00028E130E040E050E00E94402769017A0199
:1020F0006A83CA01B9016C5F7F4F8F4F9F4F27E002
:1021000030E040E050E00E9440276F5F6B83812CFD
:10211000912C540140E034E6632E712C00E911E06B
:10212000242F30E02E54384FF901E370FF27309709
:1021300089F4C901B3010E942C27892B31F4C9010C
:10214000B8010E942C27892B29F48EE691E0A0E0AB
:10215000B0E004C08DE691E0A0E0B0E0880E991EEA
:10216000AA1EBB1ED501C401AA27BB27C816D906C3
:10217000EA06FB0610F04F5FD3CF4E83309799F4F9
:10218000C90164E670E00E942C27892B39F4C9014B
:1021900060E971E00E942C27892B29F48EE691E0FA
:1021A000A0E0B0E004C08DE691E0A0E0B0E0881AC5
:1021B000990AAA0ABB0AC818D908EA08FB08C90183
:1021C00064E670E00E942C278C01C90160E971E08F
:1021D0000E942C27A6E0B1E020E0213041F43097A6
:1021E00051F40115110529F4009729F402C04C910E
:1021F00003C04DE101C04CE150E060E070E0C41666
:10220000D506E606F70640F0C41AD50AE60AF70A2C
:102210002F5F11962C3009F72F5F2D83C394CC824A
:10222000DF91CF911F910F91FF90EF90DF90CF90B2
:10223000BF90AF909F908F907F906F900895CF92B6
:10224000DF92EF92FF92C090DA01D090DB01E09034
:10225000DC01F090DD016C157D058E059F0571F0A8
:102260006B017C0149EE52E00E944E10C092DA01EF
:10227000D092DB01E092DC01F092DD01FF90EF9063
:10228000DF90CF9008950E941F118091EF0290E09F
:102290008E54984F0895CF92DF92EF92FF92CF9392
:1022A0006B017C019B01AC016EEF7FEF81E090E060
:1022B0000E94FC269B01AC0160E074E284EF90E098
:1022C0000E944027C0E0EC2FF0E0EE0FFF1FEB591B
:1022D000FE4F80819181CF5F82179307A0F3A70102
:1022E0009601220F331F441F551FEC2FF0E0EE0F15
:1022F000FF1FEB59FE4FA081B1810E949D279B01DA
:10230000AC0160E074E284EF90E00E9440273093DB
:1023100087002093860080918100C770887FC82B3A
:10232000C093810081E0CF91FF90EF90DF90CF903C
:102330000895682F84EF92E00C947A0CCF93DF938A
:102340001F92CDB7DEB7FC018185806269830E9450
:10235000071D89E00E9499116981862F0E949911B9
:102360000E94111D8111FCCF0F90DF91CF91089534
:10237000CF93DF931F92CDB7DEB7FC0181858062DA
:1023800069830E94071D83E10E9499116981862F4C
:102390000E9499110E94111D8111FCCF0F90DF91B5
:1023A000CF910895FF920F931F93CF93DF938C01EA
:1023B000C62FF42EFC0186858130B1F56585C4FDFC
:1023C0006061C5FD6860C6FD6460C7FD6260D62FB0
:1023D000FF2011F0D06A01C0D0626D2FC8010E94A9
:1023E000B8116D2F6F7DC8010E94B811F801658585
:1023F000C0FD6061C1FD6860C2FD6460C3FD6260D4
:10240000C62FFF2011F0C06A01C0C0626C2FC80146
:102410000E94B8116C2F6F7DC801DF91CF911F9181
:102420000F91FF900C94B811607F70E075956795DF
:10243000442311F0666001C06460F801858183FD6A
:1024400002C0D0E001C0D0E8D62B6D2FC8010E9499
:102450009E116D2F6B7FC8010E949E11CF70CC0F13
:10246000CC0FCC0FFF2011F0C66001C0C460F80192
:10247000858183FD02C060E001C060E8C62B6C2F3F
:10248000C8010E949E116C2F6B7FC801DF91CF9114
:102490001F910F91FF900C949E11FC012385222324
:1024A00019F041E00E94D21181E090E008951F925E
:1024B0000F920FB60F9211242F933F934F935F9378
:1024C0006F937F938F939F93AF93BF93EF93FF93FC
:1024D0008091B900887F803609F49CC068F5883205
:1024E00009F45BC090F4803109F454C038F48823B7
:1024F00009F4F6C0883009F44DC0F6C0883109F4FB
:102500004CC0803209F45DC0EFC0803409F468C06B
:1025100048F4803309F455C0883309F0E5C080934E
:10252000C502D8C0803509F44FC0883509F45DC0B4
:10253000883409F0D9C0D6C0883909F4C7C0A8F4D6
:10254000883709F467C038F4883609F463C08037E7
:1025500009F460C0C9C0883809F4B8C0803909F4EA
:102560005FC0803809F0C0C05BC0803B09F486C002
:1025700038F4803A09F466C0883A09F47FC0B4C0E0
:10258000803C09F4A7C0883C09F4A4C0883B09F446
:102590008AC0AAC08091A20210C09091C40280910A
:1025A000C302981770F5E091C40281E08E0F80930A
:1025B000C402F0E0ED55FD4F80818093BB0085ECB7
:1025C00086C08093C5028EC0E091C40281E08E0F68
:1025D0008093C4028091BB00F0E0ED55FD4F8083F5
:1025E0009091C4028091C3026EC0E091C40281E068
:1025F0008E0F8093C4028091BB00F0E0ED55FD4F3B
:1026000080838091C60281116DC081E08093A10218
:1026100084EA61C083E08093C7021092D901CFCFD2
:102620008091D901803208F051C0E091D90181E058
:102630008E0F8093D9018091BB00F0E0E754FE4FEC
:102640008083BDCF85EC8093BC001092C70280913F
:10265000D901803230F4E091D901F0E0E754FE4F27
:1026600010826091D90170E0E091B701F091B8015A
:1026700089EB91E009951092D90136C084E08093EE
:10268000C7021092B6011092B501E091B301F0912A
:10269000B40109958091B501811105C081E0809355
:1026A000B50110929301E091B60181E08E0F809305
:1026B000B601F0E0ED56FE4F80818093BB00909113
:1026C000B6018091B501981708F479CF85E8809319
:1026D000BC000AC085EC8093BC001092C70204C005
:1026E0001092C5020E94F40BFF91EF91BF91AF9140
:1026F0009F918F917F916F915F914F913F912F911A
:102700000F900FBE0F901F9018951092C70281E096
:102710008093C6021092A10261E082E10E94D20C75
:1027200061E083E10E94D20CE9EBF0E080818E7FD2
:10273000808380818D7F808388E48093B80085E4E6
:102740008093BC000895CF92DF92EF92FF92CF93D7
:10275000DF93EC016A017B0161E070E00E94EE040E
:1027600064E070E089819A810E94EE04C092FF01CA
:10277000D0920002E0920102F0920202888190E081
:102780002F8D211103C028E130E002C020E230E0AB
:10279000822B932B0E94BD06E981FA81808188609B
:1027A00090E0DF91CF91FF90EF90DF90CF900C946D
:1027B000BD06CF92DF92EF92FF920F931F93CF93BC
:1027C000DF936C017A018B01C0E0D0E0CE15DF050C
:1027D00089F0D8016D918D01D601ED91FC910190A8
:1027E000F081E02DC6010995892B11F47E0102C00C
:1027F0002196ECCFC701DF91CF911F910F91FF90F0
:10280000EF90DF90CF9008950E94B027CF92DF9293
:10281000EF92FF920F931F93CF93DF93CDB7DEB765
:1028200061970FB6F894DEBF0FBECDBF182F0E9480
:10283000EC019C01112329F00E940A1E10927202E1
:102840003AC09091720290FF05C0ACE5B3E0EEE5AE
:10285000F3E004C0ABE5B3E0EDE5F3E02130310592
:1028600021F022303105A9F0BDC0923018F094302B
:1028700010F507C08C918F5F86300CF08BEF8C9336
:102880001AC080818150863F14F0808314C010826A
:1028900012C09F5F90937202943068F084E493E0DA
:1028A0000E947A1E81E095E19093050180930401D6
:1028B00010926A0297C08091720280FF0BC005E7F8
:1028C00011E04CE5C42E43E0D42E5EE5E52E53E046
:1028D000F52E0AC003E711E02BE5C22E23E0D22E2D
:1028E0003DE5E32E33E0F32E823090F1843008F0A2
:1028F00079C00E940A1E66E372E083E092E00E94C3
:10290000862A83E092E00E94CB1D61E080E00E9475
:10291000CD1DF701F080CF2C0F2C000CDD0868E2F4
:1029200072E083E092E00E94862ADF92FF921F937A
:102930000F9383E092E09F938F931F9281E18F9397
:102940008E010F5F1F4F1F930F930E94B52742C048
:102950000E940A1E63E572E083E092E00E94862AEC
:1029600083E092E00E94CB1D61E080E00E94CD1DDB
:10297000F6012081822F022E000C990B97FF03C0D5
:10298000919581959109D82EC92E27FD05C099E70B
:10299000E92E91E0F92E04C087E7E82E81E0F82EB9
:1029A00063E472E083E092E00E94862ACF92DF9295
:1029B000FF92EF921F930F9383E092E09F938F9388
:1029C0001F9281E18F938E010F5F1F4F1F930F9313
:1029D0000E94B527C8010E94CB1D0FB6F894DEBF38
:1029E0000FBECDBF61960FB6F894DEBF0FBECDBF50
:1029F000DF91CF911F910F91FF90EF90DF90CF90DB
:102A00000895CF93C82F0E94EC01CC2361F083E09E
:102A10000E94191E0E940A1E87EE93E090937A028C
:102A2000809379021FC0009709F443C28130910559
:102A3000B1F4809177029091780201969093780298
:102A4000809377022091750230917602281739071A
:102A500008F0DFC01092780210927702DAC0029775
:102A600009F0D7C0E0917902F0917A02E730F105E0
:102A700008F066C0E05CFF4F0C94812780917702DC
:102A8000809346030CC0E0917702F0917802E65DF6
:102A9000FE4F808190E0909348038093470384E445
:102AA00093E00E947A1E4CC0809177029091780248
:102AB000892B09F045C083E598E090930501809348
:102AC000040181E0CF910C94530881E020917702BA
:102AD00030917802232B09F080E080934903DFCF07
:102AE0008091770290917802892B51F587E892E0E6
:102AF000909305018093040181E0CF910C948702AB
:102B00008091770290917802892BD1F486E094E14C
:102B1000909305018093040181E0CF910C940614F9
:102B20008091770290917802892B19F410926A02B1
:102B3000C0C187EE93E090937A0280937902B9C185
:102B40008091790290917A0201968730910528F45C
:102B500090937A028093790204C010927A021092C4
:102B60007902E0917902F0917A02E730F10508F0FC
:102B700048C0E95BFF4F0C9481278091460390E0A9
:102B8000909378028093770236C0609147037091EA
:102B90004803EAE2F1E050E040E080E090E021917B
:102BA00030E06217730711F4582F492F01968B30CC
:102BB0009105A9F750937702409378028AE090E05C
:102BC0001CC081E090E09093760280937502909112
:102BD0004903892790E0909378028093770211C08F
:102BE00081E090E0909378028093770206C0109283
:102BF00078021092770281E090E0909376028093C1
:102C0000750280917702909178029093740280937C
:102C100073020E940A1EE0917902F0917A02E73075
:102C2000F10508F046C1E25BFF4F0C94812764EE8A
:102C300072E083E092E00E94862A83E092E00E94A4
:102C4000CB1D61E080E00E94CD1D20917702309184
:102C5000780280917302909174022817390711F05D
:102C600080E201C08BE20E94A81E809177029091C1
:102C70007802009731F0019709F01BC162ED72E014
:102C80000FC16DED72E00CC163EC72E083E092E085
:102C90000E94862A83E092E00E94CB1D61E080E0E2
:102CA0000E94CD1D209177023091780280917302AD
:102CB000909174022817390711F080E201C08BE26D
:102CC0000E94A81EE0917702F0917802E65DFE4F27
:102CD000608170E080E090E04AE00E94B31E6DEBFE
:102CE00072E0DEC062EB72E083E092E00E94862A2E
:102CF00083E092E00E94CB1D61E080E00E94CD1D48
:102D00002091770230917802809173029091740241
:102D10002817390711F080E201C08BE20E94A81E3B
:102D20008091770290917802009731F0019709F035
:102D3000C0C06BEA72E0B4C06EEA72E0B1C06FE985
:102D400072E083E092E00E94862A83E092E00E9493
:102D5000CB1D61E080E00E94CD1D20917702309173
:102D6000780280917302909174022817390711F04C
:102D700080E201C08BE20E94A81E809177029091B0
:102D80007802009731F0019709F093C068E972E08A
:102D900087C06BE972E084C069E872E083E092E08A
:102DA0000E94862A83E092E00E94CB1D61E080E0D1
:102DB0000E94CD1D2091770230917802809173029C
:102DC000909174022817390711F080E201C08BE25C
:102DD0000E94A81E8091770290917802009731F0AE
:102DE000019709F066C062E872E05AC065E872E0D7
:102DF00057C065E772E083E092E00E94862A83E094
:102E000092E00E94CB1D61E080E00E94CD1D2091E8
:102E100077023091780280917302909174022817A2
:102E2000390711F080E201C08BE20E94A81E809158
:102E3000770290917802009729F00197D1F56EE61C
:102E400072E02EC061E772E02BC062E672E083E0C0
:102E500092E00E94862A83E092E00E94CB1D61E00E
:102E600080E00E94CD1D2091770230917802809100
:102E70007302909174022817390711F080E201C0A3
:102E80008BE20E94A81E80917702909178020097B1
:102E900029F0019771F46BE572E002C06EE572E013
:102EA00083E092E00E94862A83E092E0CF910C9426
:102EB000CB1DCF9108950F931F93CF93DF93EC0118
:102EC0008B899C89AD89BE89892B8A2B8B2B89F0B4
:102ED0000E948F0D0B891C892D893E89DC01CB0155
:102EE000801B910BA20BB30B85399141A105B10554
:102EF000D8F48F89988DA98DBA8D892B8A2B8B2B2D
:102F000009F448C00E948F0D0F89188D298D3A8DC4
:102F1000DC01CB01801B910BA20BB30B893B9B40C7
:102F2000A105B10580F436C01B8A1C8A1D8A1E8A41
:102F30008881806190E00E94BD0661E070E0CE0172
:102F40000E94F005D6CF1F8A188E198E1A8E60E067
:102F500070E0CE010E94F00580916402882329F080
:102F60008881886090E00E94BD0689819A810E94D4
:102F7000D505E981FA81811104C08585968502977E
:102F800049F464E070E0CF01DF91CF911F910F9180
:102F90000C94EE04DF91CF911F910F9108952F9221
:102FA0003F924F925F926F927F928F929F92AF92D9
:102FB000BF92CF92DF92EF92FF920F931F93CF9326
:102FC000DF93CDB7DEB72F970FB6F894DEBF0FBEF5
:102FD000CDBFFC0183859485019721F48585968575
:102FE0000597E9F41786108A118A128A2F960FB670
:102FF000F894DEBF0FBECDBFDF91CF911F910F912F
:10300000FF90EF90DF90CF90BF90AF909F908F9008
:103010007F906F905F904F903F902F9008958081A8
:10302000813021F440905B034D8203C050905C03DB
:103030005D82FF87EE870E948F0D6E837F83888776
:103040009987212C312CCC24CA94DC2C760119824E
:103050001A821B821C8200E010E0812C912C54010A
:103060000E948F0DAB01BC01DB01CA014E805F8065
:103070006884798484199509A609B7098397A105FD
:10308000B10508F099C0EE85FF8581854C875D8785
:103090006A877B870E943E0D2C01990F660877088E
:1030A0004C855D856A857B85FFEFCF16DF06EF06D1
:1030B000FF0641F181E021E0C21622E0D206E104E0
:1030C000F1040CF480E091E031E0431632E0530665
:1030D000610471040CF490E08917A1F0DB01CA01CE
:1030E000C980DA80EB80FC808C199D09AE09BF098C
:1030F0000697A105B10530F00F5F1F4F49835A8332
:103100006B837C830130110508F453C00330110533
:1031100090F00330110509F04CC0910140E050E0FF
:10312000C501B4010E94402749015A01C12CD12C8C
:103130007601C39411C0C301B20172508109910993
:103140009B01AC010E94FC26860E971EA81EB91E8C
:103150002FEF221A320A2DC0A7019601C701B6012E
:103160000E94FC2686169706A806B90630F03FEFA7
:10317000C31AD30AE30AF30AEFCF215031094109F8
:103180005109AAE6B0E00E949D27693843E174071F
:1031900081059105A8F0ED81F4E6EF0260011124AC
:1031A0000D2C000CEE08FF08C60ED71EE81EF91EF7
:1031B00009C07301620154CFC12CD12C760102C029
:1031C0006B017C010E948F0DEE85FF85038D148DB0
:1031D000258D368D2B013C01401A510A620A730A73
:1031E00049EE441643E054066104710420F0638FF5
:1031F000748F858F968F2091470330914803A8EEF6
:10320000B3E00E948727EE85FF8520A131A12330FE
:10321000310529F021E030E040E050E004C022E038
:1032200030E040E050E00E944027DA01C9018851B7
:103230009C4FAF4FBF4FEE85FF858C159D05AE05AA
:10324000BF0508F043C087859089A189B289892B81
:103250008A2B8B2B49F40E948F0DEE85FF856787A3
:10326000708B818B928B36C00E948F0DEE85FF850F
:103270000785108921893289DC01CB01801B910BE4
:10328000A20BB30B813A9F40A105B10518F1EE8561
:10329000FF858081886690E02F960FB6F894DEBF98
:1032A0000FBECDBFDF91CF911F910F91FF90EF9097
:1032B000DF90CF90BF90AF909F908F907F906F9056
:1032C0005F904F903F902F900C9456071786108A6E
:1032D000118A128AEE85FF858081880F880F880FFA
:1032E00061E088500E94CD1DEE85FF858081805C65
:1032F0000E94A81E8AE30E94A81EC701B6012AE008
:1033000030E040E050E00E944027F8EECF16F3E0B6
:10331000DF06E104F104B8F463EF72E083E092E0C9
:103320002A873B874C875D870E94862AAAE0B0E007
:103330002A853B854C855D850E949D279F938F93B1
:103340007F936F9331C0CA01B90124E630E040E0B9
:1033500050E00E944027CB016AE070E00E942C27D9
:1033600021E030E0059714F420E030E05B01A20E8C
:10337000B31EC701B60128EE33E040E050E00E94E2
:10338000402789018AE0A816B10421F40F5F1F4F7E
:10339000A12CB12C6AEF72E083E092E00E94862AB1
:1033A000BF92AF921F930F9383E092E09F938F930E
:1033B0008BE792E09F938F930E94E5270FB6F894D6
:1033C000DEBF0FBECDBF8BE792E02F960FB6F8940D
:1033D000DEBF0FBECDBFDF91CF911F910F91FF9048
:1033E000EF90DF90CF90BF90AF909F908F907F90A5
:1033F0006F905F904F903F902F900C94CB1DEF9269
:10340000FF920F931F93CF93DF93EC018B01809179
:1034100064028111B3C18D859E858530910509F4C3
:10342000FEC16817790709F404C280914603882316
:1034300021F0813009F49DC0FCC17E876D87653025
:10344000710540F46330710508F047C061307105C3
:1034500030F4EFC16530710509F480C1EAC160E064
:1034600070E0CE010E94F0050130110549F089811C
:103470009A810E94D505811106C064E070E005C004
:1034800061E070E002C063E070E0CE010E94EE04F3
:10349000888190E00130110519F028E030E002C089
:1034A00020E030E0822B932B0E94BD061B8A1C8AF1
:1034B0001D8A1E8A89819A81FC0120A131A12330B5
:1034C000310509F0B6C164E070E0DF91CF911F9142
:1034D0000F91FF90EF900C94EE04CE010E94D50561
:1034E0008111A7C189819A810E94D5058823E1F0C5
:1034F0000E948F0D6B8B7C8B8D8B9E8B63E070E0BD
:1035000089819A810E94EE0463E070E0CE010E94FE
:10351000EE048881886190E0DF91CF911F910F9137
:10352000FF90EF900C94BD0689819A81FC0120A147
:1035300031A12430310521F463E070E00E94EE04F3
:1035400064E070E0CE010E94EE041B8A1C8A1D8A92
:103550001E8A8881806190E00E94BD0661E070E073
:10356000CE01DF91CF911F910F91FF90EF900C94BE
:10357000F005E981FA81E584F6846530710558F437
:103580006330710508F0CAC06130710549F06230DE
:10359000710591F1F0C06530710509F4DFC0EBC031
:1035A00060E070E0CE010E94F00561E070E0CE01C5
:1035B0000E94EE041092FF0110920002109201028C
:1035C00010920202F2E0EF16F10469F464E070E098
:1035D00089819A810E94EE04E981FA818081886064
:1035E00090E00E94BD06888190E00E94BD061F8E7B
:1035F000E981FA81178EBFC060E070E0CE010E94C1
:10360000F0058D859E850397029708F044C082E0FF
:10361000E816F10491F5E981FA81878D81110BC0DB
:1036200061E070E0CE010E94EE0464E070E0898108
:103630009A810E94EE04E981FA81808190E0278DD1
:10364000211103C028E030E002C020E230E0822BEC
:10365000932B0E94BD068881806290E00E94BD0687
:1036600081E08F8F0E948F0D6093FF0170930002A5
:1036700080930102909302027EC08881886090E06E
:103680000E94BD061092FF011092000210920102EA
:103690001092020270C0E1E0EE16F10491F464E0D1
:1036A00070E0CE010E94EE041F8EE981FA81178E30
:1036B0001092FF0110920002109201021092020279
:1036C0001BC0E894E1F88881EF28E1F4909163024F
:1036D0009813AFC09F8D911115C064E070E0CE01CA
:1036E0000E94EE040E948F0D6093FF017093000210
:1036F00080930102909302028881886090E00E948A
:10370000BD0639C090E02F8D211103C028E130E0C3
:1037100002C020E230E0822B932BF1CFCE010E9439
:10372000D505811128C088A199A1049721F088812D
:10373000886E90E018C01092FF0110920002109263
:103740000102109202028881806190E00E94BD0611
:1037500061E070E0CE010E94F0050DC088818862B2
:1037600090E080649160DF91CF911F910F91FF9065
:10377000EF900C9456071E870D875BC06130710572
:1037800009F053C0888190E00E94BD061E870D8716
:103790008F89988DA98DBA8D892B8A2B8B2BA9F0B7
:1037A0001F8A188E198E1A8E60E070E0CE010E947A
:1037B000F00589819A810E94D505E981FA818111FC
:1037C00028C085859685029721F18091640288231F
:1037D00081F10230110569F58D859E85019729F4E7
:1037E0008881809363021E870D872881822F8860DD
:1037F00090E030914603313039F430916302321356
:1038000003C024E030E002C020E030E0822B932BA4
:1038100083CE64E070E0CF010E94EE04D6CF613029
:10382000710519F41E861D86B3CF0230110509F407
:10383000AFCFDF91CF911F910F91FF90EF9008953F
:103840008F929F92AF92BF92CF92DF92EF92FF92B0
:103850000F931F93CF93DF93CDB7DEB764970FB667
:10386000F894DEBF0FBECDBF5F87798BF42E411178
:1038700009C06F5F6D3040F02FEFC21AD20A21E00D
:1038800061E003C0242F01C021E089898B831A8263
:10389000198281E08D836E838EE48C0D8F83CE013F
:1038A00001962C8B0E94E40E4B015C010F8510E009
:1038B0000E941F112C8930E02150310987E0829F3E
:1038C000F001839FF00D11248091EC029801281BD8
:1038D0003109C901079667E070E00E942C27DF01DB
:1038E000A80FB91F20E831E541E050E00E94A82769
:1038F000680D791D8A1D9B1DF11004C060587A4324
:103900008940910964960FB6F894DEBF0FBECDBF13
:10391000DF91CF911F910F91FF90EF90DF90CF90AB
:10392000BF90AF909F908F9008958F929F92AF928B
:10393000BF92CF92DF92EF92FF920F931F93CF939C
:10394000DF936C01E0906E03F0906F0300917003C1
:1039500010917103209172033091730340917403AD
:10396000509175036091760370917703809178038D
:10397000909179030E94201CCEE6D3E068A379A33E
:103980008AA39BA3EAE7F3E0E080F1800281138140
:103990002481358146815781608571858285938533
:1039A0000E94201C6B017C016CA37DA38EA39FA3AE
:1039B000AE89BF892CE330E00E94962708A119A1A7
:1039C0002AA13BA148015901861A970AA80AB90AF7
:1039D000888E998EAA8EBB8EAA85BB852CE330E09B
:1039E0000E949627C61AD70AE80AF90ACC8EDD8EFD
:1039F000EE8EFF8EDF91CF911F910F91FF90EF9090
:103A0000DF90CF90BF90AF909F908F90089591E0FE
:103A10009093E802809396031092F1021092F002C4
:103A200008952091F00290919603213208F04AC047
:103A30008091C7028111FCCF32E03093C70231E0A0
:103A40003093C6023FEF3093C5021092C402209318
:103A5000C302A8ECB2E043EA52E0FA013E2F341B65
:103A6000321718F43D913193F9CF1092A2022091B0
:103A7000A202990F922B9093A2029091A1029130F1
:103A800061F41092A1029091A2029093BB009091D8
:103A9000BC0093FDF8CF95EC01C095EE9093BC006F
:103AA0009091C7029230E1F39091C5029F3F79F067
:103AB0008091C502803241F08091C502803331F09F
:103AC00084E005C081E003C082E001C083E0109281
:103AD000F1021092F0021092E80208959091C7024C
:103AE0009111FCCF613208F060E291E09093C7023F
:103AF0009093C6022FEF2093C5021092C402260FA6
:103B00002093C3029093A2029091A202880F892B66
:103B10008093A2028091A102813061F41092A102EF
:103B20008091A2028093BB008091BC0083FDF8CFFE
:103B300085EC01C085EE8093BC008091C702813086
:103B4000E1F38091C402861710F46091C402A3EAE5
:103B5000B2E021E832E0F9018E2F821B861718F4BB
:103B60008D918193F9CF1092F3026093F202862F28
:103B70000895009769F0FC0101900020E9F7319762
:103B8000AF01481B590BBC018FE593E00C94D9138E
:103B900080E090E008950C94B91DCF93DF93CDB7EA
:103BA000DEB728970FB6F894DEBF0FBECDBF2091C9
:103BB0006A03222331F128E0E2E1F1E0DE0111960F
:103BC00001900D922A95E1F720916603261710F4D3
:103BD0006FEF620FFE013196E60FF11DE60FF11D4A
:103BE0009081682F690F606840E08FE593E0289628
:103BF0000FB6F894DEBF0FBECDBFDF91CF910C940E
:103C0000D21128960FB6F894DEBF0FBECDBFDF915C
:103C1000CF91089580916A03882351F040E061E0DC
:103C20008FE593E00E94D2118BE39FE10197F1F7BA
:103C30000895CF93DF9390916A03992309F457C0B5
:103C400090916903992311F097E0892790916D0372
:103C50009130C1F580FD03C020EC31E002C020E8C6
:103C600031E030936C0320936B0381FF09C02091F6
:103C70006B0330916C032F7730936C0320936B03AD
:103C800082FF09C080916B0390916C039E7F90939B
:103C90006C0380936B03D0916B03C0916C03809194
:103CA000680380620E94071D82E10E9499118D2F96
:103CB0000E9499118C2F0E9499110E94111D81114F
:103CC000FCCF15C090916403882311F0986001C067
:103CD000977F9093640380916403682F687083FDDD
:103CE00060E88FE593E0DF91CF910C949E11DF9116
:103CF000CF910895CF92DF92EF92FF920F931F938F
:103D0000CF93DF931F92CDB7DEB77C018C01C12C1E
:103D1000D12CF80161918F01C60169830E948D2A1F
:103D20006981681719F0C6010E94952AFFEFCF1A22
:103D3000DF0A8BE1C816D10461F7C7010F90DF914C
:103D4000CF911F910F91FF90EF90DF90CF9008954A
:103D5000E0915F03F09160030190F081E02D682F06
:103D60008FE593E009948F929F92AF92BF920F9349
:103D70001F93CF93DF93CDB7DEB7A1970FB6F8941B
:103D8000DEBF0FBECDBF19A2423008F44AE08E015B
:103D90000F5D1F4F842E912CA12CB12CA5019401F5
:103DA0000E944027E62FB901CA0101501109EA30EB
:103DB00014F4E05D01C0E95CD801EC93232B242BC3
:103DC000252B61F7C8010E94B91DA1960FB6F89482
:103DD000DEBF0FBECDBFDF91CF911F910F91BF907E
:103DE000AF909F908F900895CF92DF92EF92FF92C5
:103DF0000F931F93CF93E82F880FFF0BEC5FFC4FBF
:103E0000E4918DEF8E0F823068F468EE73E080E00D
:103E100090E0CF911F910F91FF90EF90DF90CF90A6
:103E20000C944B11E83091F5C0E00FE110E0C12C8B
:103E300094E2D92E94EFE92EF12CCF5FEC2FF0E035
:103E4000EE0FFF1FEB5AFE4F808191818017910783
:103E5000A0F38C019C01A0EDB7E00E9487279B0195
:103E6000AC01C701B6010E9440272F3F3105410533
:103E7000510509F010F72093B3008091B100C7708D
:103E8000887FC82BC093B10081E001C080E0CF9152
:103E90001F910F91FF90EF90DF90CF900895CF93F7
:103EA000DF93CDB7DEB761970FB6F894DEBF0FBED4
:103EB000CDBF789484B5826084BD84B5816084BDB3
:103EC00085B5826085BD85B5816085BD80916E00B8
:103ED000816080936E0010928100809181008260E9
:103EE0008093810080918100816080938100809126
:103EF00080008160809380008091B1008460809315
:103F0000B1008091B00081608093B00080917A0010
:103F1000846080937A0080917A00826080937A0036
:103F200080917A00816080937A0080917A00806825
:103F300080937A001092C10014BE9EE088E10FB613
:103F4000F894A895809360000FBE909360008091D4
:103F500080008C7F8093800080918100877E8061CB
:103F60008093810064EF71E080E090E00E944B114B
:103F70008091B0008C7F81608093B0008091B1000F
:103F800088608093B10010E07EE3E72EF12C812C55
:103F9000E4E29E2EE4EFAE2EB12C1F5FE12FF0E0A5
:103FA000EE0FFF1FEB5AFE4F808191818E159F050A
:103FB000A0F37C019C01A8EEB3E00E9487279B013F
:103FC000AC01C501B4010E9440272F3F31054105D6
:103FD000510509F010F72093B3008091B1001770DC
:103FE000887F182B1093B10081E080936D0362E30A
:103FF00070E080E090E00E94550D1092F302109264
:10400000F2021092F1021092F0020E948513909138
:104010006D03809168038062913069F50E94071DED
:1040200080E00E9499118FE10E9499110E94111D58
:10403000882339F080916A03823019F410926A0360
:10404000EDC08091680380620E94071D8CE00E9491
:1040500099118FE10E9499110E94111D882321F06E
:1040600080916A03823051F38091680380620E94DC
:10407000071D81E032C00E94071D80E00E94991157
:104080008FEF0E94991180E00E94991180E00E94B8
:10409000991180E00E94991180E00E94991180E0BE
:1040A0000E94991180E00E94991180E00E9499116C
:1040B00080E00E94991180E00E9499110E94111DD8
:1040C000882329F080916A03823009F4B7CF809168
:1040D000680380620E94071D80E00E94991180E0C1
:1040E0000E9499110E94111D882329F080916A0372
:1040F000823009F4A3CF80916A03823019F481E001
:1041000080936A038091630388608093630382E0F5
:10411000809366031092670380916D038130E1F410
:1041200010926C0310926B0313E068E38FE593E049
:104130000E94B81168E18FE593E00E94B811115018
:10414000A1F768E28FE593E00E94B81168E08FE57F
:1041500093E00E94B81128C06CE98FE593E00E94BB
:104160009E1168E98FE593E00E949E116CE98FE54E
:1041700093E00E949E1168E98FE593E00E949E11F2
:104180006CE98FE593E00E949E1168E98FE593E06A
:104190000E949E1164E98FE593E00E949E1160E900
:1041A0008FE593E00E949E1165E070E080E090E072
:1041B0000E94550D60916303606240E08FE593E0DB
:1041C0000E94D21165E070E080E090E00E94550D01
:1041D00060916303606240E08FE593E00E94D2113A
:1041E00065E070E080E090E00E94550D8CE08093E7
:1041F000640380916A03882331F040E06CE08FE52E
:1042000093E00E94D2110E940A1E82E0809365030F
:1042100040E066E08FE593E00E94D21187E00E94C3
:10422000191E0E940A1E60E080E00E94CD1D67EE0C
:1042300071E083E092E00E94862A83E092E00E948F
:10424000CB1D61E081E00E94CD1D63EE71E083E053
:1042500092E00E94862A83E092E00E94CB1D80E2D9
:104260000E94A81E6DED71E083E092E00E94862A14
:1042700083E092E00E94CB1D80ED97E00E94D30185
:1042800061E081E00E94CD1D69ED71E083E092E084
:104290000E94862A83E092E00E94CB1D80E20E9469
:1042A000A81E6FEC71E083E092E00E94862A83E012
:1042B00092E00E94CB1D08E010E080E20E94A81E60
:1042C00001501109D1F761E083E00E94020D60E026
:1042D00083E00E94D20C60E082E00E94020D87EB36
:1042E00091E09093010180930001809169008360C7
:1042F00080936900E89A61E08AE00E94020D61E023
:1043000089E00E94020D61E088E00E94020D61E0F8
:1043100087E00E94020D60E081E10E94020D60E0F2
:1043200080E10E94020D61E070E080E093E00E9475
:10433000EE0461E070E082E293E00E94EE0460E04F
:1043400070E080E093E00E94F00560E070E082E2BF
:1043500093E00E94F0051092FB011092FC01109274
:10436000FD011092FE011092F7011092F8011092D7
:10437000F9011092FA011092FF01109200021092BE
:1043800001021092020283E690E090936C02809307
:104390006B021092650210926602109267021092F0
:1043A000680281E08093630284EA9FE09093F601C3
:1043B0008093F5018091F1019091F201A091F301B8
:1043C000B091F4018093ED019093EE01A093EF0181
:1043D000B093F0010E945A0E80914A03682F082E74
:1043E000000C770B77FF03C0719561957109162F4B
:1043F0001F7187FF106288E60E94071D67E084EF47
:1044000092E00E947A0C612F84EF92E00E947A0C75
:104410000E94111D8AE00E94F41E811103C083E0F6
:104420000E94191E89E00E94F41E811103C084E0DD
:104430000E94191E80ED97E00E94D3010E940A1E7F
:104440000E946E0681E10E94A90C01E0019709F02B
:1044500000E080E10E94A90C11E0019709F010E052
:10446000011102C01123F9F081E00E94191E0E947F
:104470000A1E6FEB71E083E092E00E94862A83E0DF
:1044800092E00E94CB1D61E080E00E94CD1D0023E0
:1044900019F081E40E94A81E112319F082E40E9401
:1044A000A81E0E9425068E010F5F1F4F33243394F0
:1044B00050E0852E50E0952EFF24F39431E1E32E59
:1044C00042E0242EA89580916A02882339F0E09179
:1044D0000401F091050180E0099591C28091690283
:1044E000882331F088EA90E00E9456071092690212
:1044F0008091650290916602A0916702B091680276
:10450000892B8A2B8B2B81F581E10E94A90C0197C5
:1045100039F480910B0390910C03892B09F476C236
:1045200080E10E94A90C019739F480912D039091AC
:104530002E03892B09F46FC281E10E94A90C892BFB
:1045400039F480910B0390910C03019709F468C230
:1045500080E10E94A90C892B39F480912D03909160
:104560002E03019709F461C2809165029091660261
:10457000A0916702B0916802892B8A2B8B2BB1F036
:104580000E948F0D40906502509066026090670215
:104590007090680224EF420E21E0521E611C711CD3
:1045A000461657066806790608F444C280910D0342
:1045B00090910E03059731F080912F039091300375
:1045C000059711F481E01AC080E093E00E94D505C0
:1045D000D82E82E293E00E94D505D1100AC0811145
:1045E0000CC080916402811102C082E007C083E0A8
:1045F00005C0882311F085E001C086E00E94191EE5
:104600009091710280916402992309F454C0811140
:104610004FC080914603813089F4809120039091AE
:104620002103049719F4F092630208C080914203B9
:10463000909143030497B9F72092630261E070E020
:1046400080E093E00E94EE0461E070E082E293E09B
:104650000E94EE040E948F0D60931703709318035D
:104660008093190390931A0310920E0310920D0376
:104670001092130310921403109215031092160354
:1046800010921F036093390370933A0380933B03A6
:1046900090933C031092300310922F031092350335
:1046A0001092360310923703109238031092410390
:1046B000F09264020CC0882341F010920E03109215
:1046C0000D031092300310922F031092640260E0E9
:1046D00080E00E94CD1D88E60E94071D60E084EF07
:1046E00092E00E947A0C0E94111D61E070E088E661
:1046F00090E00E946E1D84EF92E00E94360C87FDD0
:1047000043C00E94C6070E941F118091EB0290E0F7
:104710000C971CF421E4D22E02C090E5D92E0E9401
:10472000C6070E941F11C090EA020E94C6070E949D
:104730001F118091EB02882341F0A82EB12C8D30FF
:1047400038F08CE0A81AB10803C08CE0A82EB12C78
:104750006BE172E083E092E00E94862A1F92DF9272
:104760001F92CF92BF92AF9283E092E09F938F937C
:104770001F92EF921F930F930E94B5270FB6F894E4
:10478000DEBF0FBECDBF16C062E172E083E092E0F3
:104790000E94862A83E092E09F938F931F92EF926C
:1047A0001F930F930E94B5270F900F900F900F90BB
:1047B0000F900F90C8010E94CB1D80916402882346
:1047C00019F069E072E018C066E072E083E092E000
:1047D0000E94862A83E092E00E94CB1D80914603CE
:1047E000882329F0813031F468EF71E005C06FEF64
:1047F00071E002C064EF71E083E092E00E94862ADB
:1048000083E092E00E94CB1D80E093E00E94900440
:104810005C01BC0180E093E00E94FF1982E293E01A
:104820000E9490046C01BC0182E293E00E94FF1997
:104830004090FF01509000026090010270900202CF
:10484000411451046104710421F10E948F0DAB01E8
:10485000BC01DB01CA0184199509A609B709813E8B
:104860009349A440B105A8F0209120033091210381
:104870002430310519F480E093E009C0209142030F
:10488000309143032430310521F482E293E00E9409
:10489000A3130E948F0D20916D0230916E02409102
:1048A0006F02509170022B013C01421A530A640AB4
:1048B000750AE1E64E16EAEE5E066104710440F008
:1048C00060936D0270936E0280936F0290937002FA
:1048D00080E093E00E94CF1782E293E00E94CF171E
:1048E00080E093E00E945B1782E293E00E945B17F6
:1048F0000E94EC019C01019729F490916402932598
:1049000090937102AA94AB2899F4CA94CD2881F4AB
:104910002230310569F4F0926A0210920E0310926F
:104920000D031092300310922F0381E00E940115B5
:10493000C0906B02D0906C020E94C6070E941F11AB
:104940008091EA0290E0C816D90609F458C00E9486
:10495000C6070E941F118091EA0290E090936C02BA
:1049600080936B020E94C6070E941F11D090EB0239
:104970000E94C6070E941F11C090EA020E94C6074B
:1049800020E831E541E050E00E944027CA01B9012A
:104990006C5F7F4F8F4F9F4F27E030E040E050E04B
:1049A0000E94402781E001C0880F6A95EAF720E065
:1049B00030E0F901EC5BFC4F9285992371F047815F
:1049C0004D110BC040854C1108C04185482329F08A
:1049D000913049F0923071F012C02C5F3F4F20317E
:1049E000310539F70CC080916402811108C09093A1
:1049F000710205C0809164028111109271028114CC
:104A0000910409F45FCD0E94000058CD89E291E045
:104A10000E94560785CD8AE291E00E9456078CCD10
:104A20008AE290E00E94560793CD8AE290E00E94CD
:104A300056079ACD10926502109266021092670294
:104A400010926802B3CDEF92FF920F931F93CF9312
:104A5000DF93CDB7DEB768970FB6F894DEBF0FBE11
:104A6000CDBF1092F3021092F2021092F102109256
:104A7000F0020E9485131092F7021092F60288EE5F
:104A800093E0A0E0B0E08093F8029093F902A09345
:104A9000FA02B093FB028EE191E09093F5028093CD
:104AA000F4028CE0E9E4F1E0DE011D9601900D9244
:104AB0008A95E1F78CE0EDE3F1E0DE0111960190DB
:104AC0000D928A95E1F78CE0FE013D96AEE6B3E0EB
:104AD00001900D928A95E1F78CE0FE013196AAE7EC
:104AE000B3E001900D928A95E1F710926203109263
:104AF000610389E391E09093600380935F0382E018
:104B000080936A031092690380E280936803109295
:104B1000630310926D0310925B0310925C0310927A
:104B20005D0310925E0384E4E82E83E0F82E00E03B
:104B300010E0C8010E948D2AF70181937F010F5F69
:104B40001F4F0B311105A9F7809144039091450344
:104B5000813F910509F444C081EF90E090934503B3
:104B600080934403109246038CE090E090934803B6
:104B70008093470381E08093490310924A0380E0C9
:104B800090E0FC01EC5BFC4F1286178210861186C8
:104B9000049680319105A9F78EE3809351038093A9
:104BA0004D0387E180934B0387E080934F0381ECB3
:104BB0008093550383E1809353038FEF80935903D0
:104BC0008FE08093570310925B0310925C03109266
:104BD0005D0310925E0384E493E00E947A1E65C038
:104BE00080914603823010F01092460340914703B3
:104BF00050914803EAE2F1E020E081E0E533F80774
:104C000039F0819190E084179507B9F721E0F5CF4D
:104C1000211106C08CE090E09093480380934703F5
:104C2000EEE4F3E08081833008F01082DF01139717
:104C30008C91883108F01C92DF0112978C918C3393
:104C400008F01C92DF018E918F778C93349683E06D
:104C5000EE35F80739F780915B03082E000C990BAD
:104C600097FF03C0919581959109069714F01092D2
:104C70005B0380915C03082E000C990B97FF03C027
:104C8000919581959109069714F010925C0380919B
:104C90005D03865F8B3010F010925D0380915E03A0
:104CA000865F8B3010F010925E0381E080930003EA
:104CB00082E293E0909302038093010388E090E006
:104CC00090930403809303038AE090E0909306039B
:104CD0008093050381E090E090930803809307039D
:104CE00087E090E090930A038093090310920C03ED
:104CF00010920B0310920E0310920D0310920F03EB
:104D000010921003109211031092120310921303C9
:104D100010921403109215031092160310921703A9
:104D2000109218031092190310921A0310921B0389
:104D300010921C0310921D0310921E0310921F0369
:104D4000109221031092200322E02093220320E0FE
:104D500033E030932403209323039093260380931E
:104D6000250389E090E09093280380932703109215
:104D70002A031092290386E090E090932C038093FD
:104D80002B0310922E0310922D03109230031092D9
:104D90002F031092310310923203109233031092BA
:104DA0003403109235031092360310923703109299
:104DB00038031092390310923A0310923B03109279
:104DC0003C0310923D0310923E0310923F03109259
:104DD00040031092410310924303109242036896DD
:104DE0000FB6F894DEBF0FBECDBFDF91CF911F91FC
:104DF0000F91FF90EF900895DB018F939F930E9496
:104E00009D27BF91AF91A29F800D911DA39F900DF3
:104E1000B29F900D11240895991B79E004C0991F49
:104E2000961708F0961B881F7A95C9F78095089504
:104E3000AA1BBB1B51E107C0AA1FBB1FA617B707C0
:104E400010F0A61BB70B881F991F5A95A9F78095DC
:104E50009095BC01CD01089597FB072E16F40094A0
:104E600007D077FD09D00E94182707FC05D03EF433
:104E7000909581959F4F0895709561957F4F089506
:104E8000A1E21A2EAA1BBB1BFD010DC0AA1FBB1F4E
:104E9000EE1FFF1FA217B307E407F50720F0A21BC0
:104EA000B30BE40BF50B661F771F881F991F1A942D
:104EB00069F760957095809590959B01AC01BD0157
:104EC000CF010895052E97FB1EF400940E947927C8
:104ED00057FD07D00E94402707FC03D04EF40C94E6
:104EE000792750954095309521953F4F4F4F5F4F13
:104EF000089590958095709561957F4F8F4F9F4F46
:104F00000895EE0FFF1F0590F491E02D0994A29FE4
:104F1000B001B39FC001A39F700D811D1124911D8D
:104F2000B29F700D811D1124911D08950E94872745
:104F3000B7FF0895821B930B08950E948727A59FB2
:104F4000900DB49F900DA49F800D911D1124089584
:104F5000B7FF0C949D270E949D27821B930B0895F9
:104F600081E090E0F8940C94DA2AAEE0B0E0EBEB4C
:104F7000F7E20C94B12A0D891E898F89988D26E05D
:104F80002C831A83098397FF02C080E090E8019781
:104F90009E838D83AE01455E5F4F698D7A8DCE0114
:104FA00001960E9408284D815E8157FD0AC02F811D
:104FB0003885421753070CF49A01F801E20FF31FEA
:104FC00010822E96E4E00C94CD2AAEE0B0E0EBEE39
:104FD000F7E20C94B12A0D891E8986E08C831A832E
:104FE00009838FEF9FE79E838D83AE01475E5F4FFE
:104FF0006F89788DCE0101960E9408282F8138850F
:10500000F801E20FF31F10822E96E4E00C94CD2AF3
:10501000ACE0B0E0EEE0F8E20C94A32A7C016B0176
:105020008A01FC0117821682838181FFBDC1CE01F6
:1050300001964C01F7019381F60193FD859193FF51
:1050400081916F01882309F4ABC1853239F493FD56
:10505000859193FF81916F01853229F4B70190E02A
:105060000E94F029E7CF512C312C20E02032A0F40F
:105070008B3269F030F4803259F0833269F4206168
:105080002CC08D3239F0803339F4216026C0226083
:10509000246023C0286021C027FD27C030ED380FD1
:1050A0003A3078F426FF06C0FAE05F9E300D1124F6
:1050B000532E13C08AE0389E300D1124332E206207
:1050C0000CC08E3221F426FD6BC1206406C08C36E4
:1050D00011F4206802C0883641F4F60193FD8591F1
:1050E00093FF81916F018111C1CF982F9F7D9554BE
:1050F000933028F40C5F1F4FFFE3F9830DC0833614
:1051000031F0833771F0833509F05BC022C0F801BC
:10511000808189830E5F1F4F44244394512C540196
:1051200015C03801F2E06F0E711CF801A080B1804B
:1051300026FF03C0652D70E002C06FEF7FEFC50151
:105140002C870E94E5292C0183012C852F77222EA4
:1051500017C03801F2E06F0E711CF801A080B18019
:1051600026FF03C0652D70E002C06FEF7FEFC50121
:105170002C870E94DA292C012C852068222E83019D
:1051800023FC1BC0832D90E048165906B0F4B701EC
:1051900080E290E00E94F0293A94F4CFF50127FCD8
:1051A000859127FE81915F01B70190E00E94F0296F
:1051B00031103A94F1E04F1A51084114510471F73B
:1051C000E5C0843611F0893639F5F80127FF07C0AC
:1051D00060817181828193810C5F1F4F08C0608163
:1051E0007181072E000C880B990B0E5F1F4F2F76D5
:1051F000722E97FF09C090958095709561957F4FAD
:105200008F4F9F4F2068722E2AE030E0A4010E9449
:10521000282AA82EA81844C0853729F42F7EB22E3C
:105220002AE030E025C0F22FF97FBF2E8F36C1F083
:1052300018F4883579F0B4C0803719F0883721F038
:10524000AFC02F2F2061B22EB4FE0DC08B2D846015
:10525000B82E09C024FF0AC09F2F9660B92E06C041
:1052600028E030E005C020E130E002C020E132E07B
:10527000F801B7FE07C060817181828193810C5F64
:105280001F4F06C06081718180E090E00E5F1F4F6C
:10529000A4010E94282AA82EA818FB2DFF777F2E94
:1052A00076FE0BC0372D3E7FA51450F474FE0AC065
:1052B00072FC08C0372D3E7E05C0BA2C372D03C0C6
:1052C000BA2C01C0B52C34FF0DC0FE01EA0DF11D52
:1052D0008081803311F4397E09C032FF06C0B39457
:1052E000B39404C0832F867809F0B39433FD13C0C0
:1052F00030FF06C05A2CB31418F4530C5B18B32CAF
:10530000B31468F4B70180E290E03C870E94F02972
:10531000B3943C85F5CFB31410F43B1801C0312C85
:1053200034FF12C0B70180E390E03C870E94F0296F
:105330003C8532FF17C031FD03C088E790E002C012
:1053400088E590E0B7010CC0832F867859F031FFD3
:1053500002C08BE201C080E237FD8DE2B70190E030
:105360000E94F029A51438F4B70180E390E00E9470
:10537000F0295A94F7CFAA94F401EA0DF11D808127
:10538000B70190E00E94F029A110F5CF332009F475
:1053900051CEB70180E290E00E94F0293A94F6CF16
:1053A000F7018681978102C08FEF9FEF2C96E2E193
:1053B0000C94BF2AFC010590615070400110D8F791
:1053C000809590958E0F9F1F0895FC01615070404D
:1053D00001900110D8F7809590958E0F9F1F08952A
:1053E0000F931F93CF93DF93FB01238121FD03C014
:1053F0008FEF9FEF28C022FF16C04681578124817E
:1054000035814217530744F4A081B1819D012F5F7C
:105410003F4F318320838C93268137812F5F3F4F0D
:105420003783268310C0EB01092F182F0084F185E4
:10543000E02D0995892BE1F68E819F8101969F834E
:105440008E83812F902FDF91CF911F910F9108951F
:10545000FA01AA27283051F1203181F1E8946F93A5
:105460006E7F6E5F7F4F8F4F9F4FAF4FB1E03ED04B
:10547000B4E03CD0670F781F891F9A1FA11D680FE9
:10548000791F8A1F911DA11D6A0F711D811D911D1C
:10549000A11D20D009F468943F912AE0269F112491
:1054A0003019305D3193DEF6CF010895462F4770F5
:1054B000405D4193B3E00FD0C9F7F6CF462F4F7050
:1054C000405D4A3318F0495D31FD4052419302D0AE
:1054D000A9F7EACFB4E0A695979587957795679554
:1054E000BA95C9F700976105710508959B01AC0154
:1054F0000A2E06945795479537952795BA95C9F77B
:10550000620F731F841F951FA01D0895FB01DC010E
:1055100005900D920020E1F70895F999FECF92BD14
:1055200081BDF89A992780B50895262FF999FECF65
:105530001FBA92BD81BD20BD0FB6F894FA9AF99AB0
:105540000FBE019608952F923F924F925F926F92F5
:105550007F928F929F92AF92BF92CF92DF92EF9203
:10556000FF920F931F93CF93DF93CDB7DEB7CA1B84
:10557000DB0B0FB6F894DEBF0FBECDBF09942A88AF
:10558000398848885F846E847D848C849B84AA8457
:10559000B984C884DF80EE80FD800C811B81AA81E4
:1055A000B981CE0FD11D0FB6F894DEBF0FBECDBFAF
:0855B000ED010895F894FFCF0E
:1055B800EB0BEB0B01151F1C1F1E1F1E1F1F1E1FB1
:1055C8001E1F0000400014005400000000007A0C68
:1055D8004A0CEC0B360C270C260C0C1014181C1E4D
:1055E8002024282C32000000004D12D913535400F7
:1055F80000000001010B02000044535400000002A7
:105608000103023C00000001000800200040008067
:105618000000010004000001000800400000010033
:0C562800042000410042002D002B000077
:00000001FF
