:100000000C948D010C94750F0C944E0F0C94B5014B
:100010000C94B5010C94B5010C94B5010C94B50188
:100020000C94B5010C94B5010C94B5010C94B50178
:100030000C94B5010C94B5010C94B5010C94B50168
:100040000C94040F0C94B5010C94B5010C94B501FB
:100050000C94B5010C94B5010C94B5010C94B50148
:100060000C94C0130C94B501331566156F157A15F1
:1000700082158215821582158215821582159015BA
:100080004D185218631874187F188F189F18CC18C1
:10009000D418FF18F018FF18FF180619261953195D
:1000A0008119AE19DB19081A341A25336C756D41A4
:1000B000002532642E253031644100455252200023
:1000C00020646F6E6500207761697400206F6E2078
:1000D0002000206F66662000202D2D2D2000636CEF
:1000E0006561720073657400537475636B2000471B
:1000F00046492054657374204661696C75726500C9
:100100004572724A616E4665624D61724170724D10
:1001100061794A756E4A756C4175675365704F63B6
:10012000744E6F7644656300202000253264002001
:1001300020200020202000202532640020200025DF
:10014000303264002020002532640053657420435F
:100150006C6F636B0052656C6179204661696C75E8
:1001600072653A2000322E342E312D6465760053AC
:10017000573A00322E332E310048573A004A313771
:1001800037322048796472612000554E4B00736508
:10019000716E746C00736861726564004D3A004D55
:1001A0003A50415553454400202020202020202053
:1001B000002532643A2530326425634D200000006A
:1001C0000000240027002A0000000000250028006D
:1001D0002B00000000002300260029000404040472
:1001E00004040404020202020202030303030303E1
:1001F00001020408102040800102040810200102BE
:1002000004081020534D545754465300534D54572F
:100210005446530020200025303264002020002561
:10022000326400457869740020202020004564690C
:1002300074204576656E742000204361722025731A
:100240003A20256425250050696C6F74206465721E
:1002500061746500204361722025733A2025733054
:100260002E256400416D6D65746572004E6F0059F6
:1002700065730045786974204D656E75733F004E57
:100280006F005965730043616C6962726174696FD4
:100290006E3F004E6F0059657300436F6E6669676D
:1002A000204576656E74733F004E6F00596573008C
:1002B000456E61626C65204453543F004E6F005997
:1002C00065730053657420436C6F636B3F0020417E
:1002D0006D70730043757272656E7420417661694A
:1002E0006C2E0053657175656E7469616C0053689E
:1002F00061726564004F7065726174696E67204D4C
:100300006F6465000000000800020100000304079C
:1003100000000000000000001E2711241FBECFEFC8
:10032000D8E0DEBFCDBF11E0A0E0B1E0E0EAF9E542
:1003300002C005900D92A238B107D9F723E0A2E8D8
:10034000B1E001C01D92AF3EB207E1F711E0CDE888
:10035000D1E004C02197FE010E947529CC38D10755
:10036000C9F70E94991D0C94CE2C0C94000060E0FB
:1003700088E00E943B0E60E087E00E943B0E1092F6
:100380005E0310925D0310921303109212030E94F9
:10039000F80E60930E0270930F02809310029093F8
:1003A000110281E0809312020895CF92DF92EF92C2
:1003B000FF92CF93DF938091A103882309F462C059
:1003C0000E94C30F6B017C010E94AC12EC01609192
:1003D000DE037091DF038091E0039091E1030E94BE
:1003E000AC12C817D90731F0C701B6010E94AC1290
:1003F0000E94DF1AC701B6010E94AC12EC016091A5
:10040000DE037091DF038091E0039091E1030E948D
:10041000AC12C817D90731F0C701B6010E94AC125F
:100420000E94DF1A4091E2035091E3036091E403DC
:100430007091E5038091DE039091DF03A091E003CA
:10044000B091E103481759076A077B0741F1841708
:100450009507A607B70758F4C816D906EA06FB069B
:10046000F0F0C416D506E606F706C8F413C0C416A5
:10047000D506E606F70670F0C816D906EA06FB06AA
:1004800048F40DC0DF91CF91FF90EF90DF90CF90B7
:100490000C94C30FA091D003B091D10304C0A091DC
:1004A000DC03B091DD032CE330E00E948A296C0D5F
:1004B0007D1D8E1D9F1DDF91CF91FF90EF90DF90EE
:1004C000CF900895CF93DF93EC01C536D10550F05E
:1004D00064E670E080E090E00E94BE0EC456D10950
:1004E000A895F3CFBE0180E090E00E94BE0EA895D3
:1004F000DF91CF9108950F931F938091A401909164
:10050000A501A091A601B091A701892B8A2B8B2B65
:10051000A9F00E94F80E0091A4011091A50120916C
:10052000A6013091A701DC01CB01801B910BA20B2E
:10053000B30BC297A105B10508F444C01092A40101
:100540001092A5011092A6011092A7018091C203FA
:100550008823C1F08091C00380620E94511B82E118
:100560000E9402130E945B1B8091C003806261E0C5
:1005700070E090E00E94B81B8AEF92E00E949D0D0F
:1005800080958F714091A0015091A1016091A201CD
:100590007091A30180FF19C0452B462B472B91F486
:1005A0000E94F80E6093A0017093A1018093A201B4
:1005B0009093A3016093A4017093A5018093A60179
:1005C0009093A70180E090E02EC0452B462B472B4F
:1005D000C9F30E94F80E6093A4017093A501809363
:1005E000A6019093A7010091A0011091A101209173
:1005F000A2013091A301DC01CB01801B910BA20B66
:10060000B30B1092A0011092A1011092A2011092BE
:10061000A3018B3F9105A105B10518F481E090E09D
:1006200002C082E090E01F910F910895CF92DF9277
:10063000EF92FF920F931F93CF93DF93CDB7DEB767
:100640002E970FB6F894DEBF0FBECDBFF82E0E94D6
:100650007B028C01FF2009F456C00E94541C6BE4FD
:1006600071E08CEA91E00E947A2C8CEA91E00E9481
:10067000151C0E94D5010E9488122091F1022223AC
:1006800031F0822F90E02D3020F00C9702C08CE0EA
:1006900090E0809379020E94D5010E948812809197
:1006A000F10290E021E00C970CF420E02093770217
:1006B0000E94D5010E9488128091F00280937802F6
:1006C0000E94D5010E9488128091F30280939501C7
:1006D0000E94D5010E9488128091F40280939401B7
:1006E0000E94D5010E94AC129C012A5D37402B303C
:1006F000310510F08AED97E0909393018093920179
:1007000010927A025DC08130910509F051C090913C
:100710007A02923001F128F4992349F0913081F066
:100720009BC1943061F110F1953091F195C18091A8
:1007300079028F5F8D3008F081E0809379028CC15F
:10074000809178028F5F8C3318F48093780284C193
:100750001092780281C1809177028F5F823018F405
:100760008093770279C11092770276C180919501CA
:100770008F5F803208F081E0809395016DC1809198
:1007800094018F5F8D3008F081E08093940164C103
:1007900080919201909193010196853E27E0920706
:1007A00010F08AED97E0909393018093920154C1E9
:1007B000029709F051C180917A028F5F80937A028B
:1007C00080917A02863008F445C190917702809139
:1007D0007902911105C08C3051F41092790207C052
:1007E000913029F48C3019F0845F809379028091E4
:1007F0009201825B8E87809194018D878091950113
:100800008C87809179028A878091780289871886FF
:10081000CE0108960E944D106B017C018091A103CE
:10082000882309F47FC0C701B6010E94AC128C0175
:100830006091E6037091E7038091E8039091E903EA
:100840000E94AC120817190731F0C701B6010E94C7
:10085000AC120E94DF1AC701B6010E94AC128C01D3
:100860006091E6037091E7038091E8039091E903BA
:100870000E94AC120817190731F0C701B6010E9497
:10088000AC120E94DF1A4091E2035091E3036091A1
:10089000E4037091E5038091DE039091DF03A09162
:1008A000E003B091E103481759076A077B0709F491
:1008B000F3C14091EA035091EB036091EC03709116
:1008C000ED038091E6039091E703A091E803B091D6
:1008D000E90384179507A607B70768F4C816D90671
:1008E000EA06FB0608F4D8C1C416D506E606F706E4
:1008F00008F0D2C10BC0C416D506E606F70630F0E4
:10090000C816D906EA06FB0608F4C6C1A091D003B2
:10091000B091D1032CE330E00E948A29C61AD70A8D
:10092000E80AF90AC701B6010E949C0FAE014F5FA9
:100930005F4FC701B6010E94B71188E60E94511BA4
:1009400060E08AEF92E00E94E10D60E88AEF92E0B9
:100950000E94E10D8A811AE0612F0E940029692F0F
:1009600030E1839F600D11248AEF92E00E94E10D37
:100970008B81612F0E940029692F20E1829F600DE9
:1009800011248AEF92E00E94E10D8C81612F0E9478
:100990000029692F30E1839F600D11248AEF92E0D6
:1009A0000E94E10D8D81612F0E940029692F20E1B5
:1009B000829F600D11248AEF92E00E94E10D8E81EA
:1009C000612F0E940029692F30E1839F600D11245F
:1009D0008AEF92E00E94E10D8F818E51612F0E947B
:1009E0000029692F20E1829F600D11248AEF92E097
:1009F0000E94E10D0E945B1B882319F010921B02DC
:100A00001EC001E000931B0288E60E94511B60E0BB
:100A10008AEF92E00E94E10D8981612F0E940029F6
:100A2000692F30E1839F600D11248AEF92E00E94CC
:100A3000E10D0E945B1B8111E1CF00931B0280E15D
:100A400098E19093050180930401109213020E9493
:100A5000541C27C102E010E00E94F80E28EE33E09B
:100A600040E050E00E94342921E0643F714081055C
:100A7000910508F420E0012B29F490917602921759
:100A800009F40FC12093760261E080E00E94171CF8
:100A90001091790267E471E08CEA91E00E947A2C6F
:100AA0001F921F938CEA91E09F938F938E010F5FAB
:100AB0001F4F1F930F930E94D9290F900F900F90F3
:100AC0000F900F900F9080917A0281110DC080914C
:100AD0007602882349F064E471E08CEA91E00E9498
:100AE0007A2C8CEA91E001C0C8010E94151C8AE3AF
:100AF0000E94F21CF09078026FE371E08CEA91E0C2
:100B00000E947A2C1F92FF928CEA91E09F938F9320
:100B10001F930F930E94D9290F900F900F900F9061
:100B20000F900F9080917A02813069F48091760263
:100B3000882349F06CE371E08CEA91E00E947A2C02
:100B40008CEA91E001C0C8010E94151C80917A02D4
:100B5000823031F480917602882311F080E207C060
:100B600080917702811102C081E401C080E50E947A
:100B7000F21CF090950167E371E08CEA91E00E942D
:100B80007A2C1F92FF928CEA91E09F938F931F9390
:100B90000F930E94D9290F900F900F900F900F90F4
:100BA0000F9080917A02833069F4809176028823D5
:100BB00049F063E371E08CEA91E00E947A2C8CEAC0
:100BC00091E001C0C8010E94151C8DE20E94F21C38
:100BD00080917A02843069F480917602882349F00A
:100BE0006FE271E08CEA91E00E947A2C8CEA91E04D
:100BF00019C02091940183E0289F90011124A8E856
:100C0000B1E080E090E0FC01E20FF31FE050FF4F05
:100C1000E491ED93019683309105A9F710928B0131
:100C200088E891E00E94151C8DE20E94F21C8091E0
:100C300092019091930164E670E00E940C29F82ED5
:100C4000E92E6BE271E08CEA91E00E947A2CEF923F
:100C5000FF928CEA91E09F938F931F930F930E94D2
:100C6000D9290F900F900F900F900F900F908091B7
:100C70007A02853069F480917602882349F068E22F
:100C800071E08CEA91E00E947A2C8CEA91E001C03C
:100C9000C8010E94151C05C0A091DC03B091DD03C2
:100CA00039CE2E960FB6F894DEBF0FBECDBFDF91C2
:100CB000CF911F910F91FF90EF90DF90CF9008950B
:100CC0002F923F924F925F926F927F928F929F925C
:100CD000AF92BF92CF92DF92EF92FF920F931F934A
:100CE000CF93DF93CDB7DEB72F970FB6F894DEBF63
:100CF0000FBECDBF8C01FC0180819181019721F451
:100D00004090B3034D8203C05090B4035D820E94B3
:100D1000F80E6E837F8388879987212C312C442499
:100D20004A94542C320119821A821B821C821F861B
:100D30001E86812C912C54010E94F80EAB01BC013F
:100D4000DB01CA01CE80DF80E884F9848C199D091B
:100D5000AE09BF098397A105B10508F09DC0F80150
:100D600082854A875B876C877D870E94A70E6C010E
:100D7000990FEE08FF084A855B856C857D85FFEF3E
:100D80004F165F066F067F0661F181E021E0421693
:100D900022E05206610471040CF480E091E031E03D
:100DA000C31632E0D306E104F1040CF490E0891795
:100DB000C1F0DB01CA0149805A806B807C808419B4
:100DC0009509A609B7090697A105B10550F02E852A
:100DD0003F852F5F3F4F3F872E8749835A836B8321
:100DE0007C838E859F858130910508F452C08330C5
:100DF000910588F0039709F04CC0910140E050E064
:100E0000C501B4010E94342949015A01C12CD12CD9
:100E10007601C39411C0C701B601725081099109CE
:100E20009B01AC010E94F028860E971EA81EB91ED9
:100E30009FEF291A390A2DC0A7019601C701B601F3
:100E40000E94F02886169706A806B90630F0EFEF44
:100E5000CE1ADE0AEE0AFE0AEFCF2150310941090F
:100E60005109AAE6B0E00E9491296938F3E17F07B1
:100E700081059105A0F02D8134E623026001112443
:100E80000D2C000CEE08FF086C0D7D1D8E1D9F1DA6
:100E900006C02601370150CF60E070E0CB012F96ED
:100EA0000FB6F894DEBF0FBECDBFDF91CF911F917B
:100EB0000F91FF90EF90DF90CF90BF90AF909F90F9
:100EC0008F907F906F905F904F903F902F900895FC
:100ED0008F929F92AF92BF92EF92FF920F931F93C8
:100EE000CF93DF937C010E94F80E4B015C01C0E0C0
:100EF000D0E00FE017E20E94F80EDC01CB01881968
:100F00009909AA09BB094497A105B10568F4F7013D
:100F100080850E94A70EC817D90708F4EC01801736
:100F2000910748F78C01E7CF0B5F1109013311409E
:100F3000A0F0C63683E0D80798F4CE0187509340DE
:100F40008F35910580F0835A9F4F8D35910570F054
:100F5000C256D240C834D10560F085E090E00BC0A5
:100F600081E090E008C082E090E005C083E090E07E
:100F700002C084E090E0DF91CF911F910F91FF902C
:100F8000EF90BF90AF909F908F900895CF92DF9297
:100F9000EF92FF920F931F93CF93DF93EC018B019E
:100FA00088819981019719F44091B50302C040915D
:100FB000B6030230110518F4602F8E81A4C0209171
:100FC0009F033091A003A8EEB3E00E947B29033079
:100FD000110521F496958795779567954423D1F06F
:100FE000A42F440FBB0BAC59BF4F9B01AC010E9417
:100FF0009C2924E630E040E050E00E94342920376C
:1010000087E138074105510568F460E777E180E042
:1010100090E010C06133E5E77E078105910508F097
:1010200098C01AC0CA01B90121333547410551059D
:1010300008F08FC02CE330E040E050E00E943429FB
:10104000942F832F722F662728EE33E040E050E084
:101050000E945629790109C0603727E1720781058E
:10106000910540F7EE24EA94F12CCE80DF8061E018
:101070008C2D0E946B0EFFEFEF16F10409F441C0B6
:10108000F601FF27EC5FFC4FE491E330E1F058F408
:10109000E23099F584B5806284BD27B530E058E42C
:1010A000C52ED12C3DC0E430D9F0E83031F5809127
:1010B000B00080628093B0002091B30030E084EBF8
:1010C000C82ED12C2DC08091800080688093800034
:1010D000209186003091870048E8C42ED12C2CC086
:1010E0008091800080628093800020918600309102
:1010F00087009AE8C92ED12C1FC0E7FC02C060E02F
:1011000001C061E08C2D0E943B0E1AA309A3DF9160
:10111000CF911F910F91FF90EF90DF90CF900895A6
:10112000D7010E947B292FEF30E040E050E00E9481
:101130003429F6012083E9CFD7010E947B292FEFC4
:1011400030E040E050E00E943429F60131832083F2
:10115000DCCF60E375E780E090E06CCFFC0180912C
:101160000D02811112C0268537852530310581F0A9
:1011700084899589A689B789892B8A2B8B2B39F489
:101180002485358581E0232B19F480E0089581E0E2
:1011900008950F931F93CF93DF938C01EB01809100
:1011A000120390911303892B49F480915D03909170
:1011B0005E03892B19F461307105C1F0F801848553
:1011C00095858C179D07A9F06C2F84810E943B0E9A
:1011D000F801D587C4870E94F80E60930E027093C1
:1011E0000F02809310029093110203C00E944709DE
:1011F000E5CFDF91CF911F910F91089560E070E0EE
:1012000086E093E00E94C60760E070E081E593E02D
:101210000E94C60760E070E086E093E00E94C90883
:1012200060E070E081E593E00E94C908A895FECFD8
:10123000C82F81E00E94631C0E94541C6FEE70E076
:101240008CEA91E00E947A2C8CEA91E00E94151CB5
:1012500061E080E00E94171C68EE70E08CEA91E08B
:101260000E947A2C8CEA91E00E94151CCC2319F084
:1012700064EE70E002C06EED70E08CEA91E00E94D6
:101280007A2C8CEA91E00E94151C0E94FE08CF92F5
:10129000DF92EF92FF920F931F93CF93DF93109201
:1012A0001202C2E3D0E00BEF1CE761E083E00E9492
:1012B0003B0EC8010197F1F760E083E00E943B0E0E
:1012C000C8010197F1F780911202811103C0A8951E
:1012D000219759F7809112028823B9F00E94F80EE5
:1012E0006B017C0124E6C20ED11CE11CF11C82E0E2
:1012F0000E94120E019759F4A8950E94F80EC61686
:10130000D706E806F90698F781E00E94180980E9F7
:1013100091E00E94620210921202DF91CF911F9120
:101320000F91FF90EF90DF90CF9008950F931F9350
:10133000CF93DF93EC01CE01837099278130910523
:1013400049F0029751F0CC7FCE0181600E9496094E
:10135000C260F1CF01E410E002C002E418E061E0F5
:10136000812F0E94171C802F0E94F21C8AE30E948A
:10137000F21C9E012873332720313105B1F048F467
:101380002115310579F028303105E9F462ED70E07E
:101390000EC028313105A1F020323105A1F460ECF6
:1013A00070E005C068ED70E002C06CEC70E08CEAA3
:1013B00091E00E947A2C8CEA91E00E94151C38C0C2
:1013C00066EC70E0F4CF81E00E94631C6BEB70E090
:1013D0008CEA91E00E947A2C8CEA91E00E94151C24
:1013E0009E01207C317020383105B9F038F4211588
:1013F000310589F020343105C1F015C0211581E097
:10140000380769F0203481E0380759F0203C310575
:1014100051F484E50BC086E409C087E407C082E587
:1014200005C085E403C08FE301C08FE40E94F21C75
:1014300081E791E00E94151CC2FF0CC061E086E0CC
:10144000810F0E94171C8AE2DF91CF911F910F91AB
:101450000C94F21CDF91CF911F910F910895CF92C0
:10146000DF92EF92FF920F931F93CF93DF938C0144
:101470000E94F80E6B017C01E801C370DD27109219
:10148000A8011092A9011092AA011092AB01C230DA
:10149000D10520F0229709F047C024C061E070E038
:1014A00086E093E00E94C607809114039091150393
:1014B000059771F085E090E09093150380931403F5
:1014C000C0921E03D0921F03E0922003F0922103EA
:1014D00010921A0310921B0310921C0310921D030A
:1014E000CD2B11F561E070E081E593E00E94C60725
:1014F00080915F0390916003059771F085E090E023
:101500009093600380935F03C0926903D0926A0353
:10151000E0926B03F0926C031092650310926603E5
:101520001092670310926803C801DF91CF911F9159
:101530000F91FF90EF90DF90CF900C9496090F934E
:101540001F93CF93DF93EC017F876E876530710522
:1015500048F48B016330710508F04DC061307105AE
:1015600078F490C06530710509F08CC0888199814C
:1015700088669160DF91CF911F910F910C942F0A93
:1015800060E070E00E94C9080130110549F08A81CD
:101590009B810E94AE08811106C064E070E005C026
:1015A00061E070E002C063E070E0CE010E94C60717
:1015B000288139810130110519F088E090E002C0DE
:1015C00080E090E0822B932B0E9496091C8A1D8A52
:1015D0001E8A1F8A8A819B81FC0121A132A12330AE
:1015E000310509F04FC064E070E0DF91CF911F91A9
:1015F0000F910C94C6070E94AE08811143C08A81E6
:101600009B810E94AE088823D1F00E94F80E6C8B5B
:101610007D8B8E8B9F8B63E070E08A819B810E9423
:10162000C60763E070E0CE010E94C60788819981F9
:101630008861DF91CF911F910F910C9496098A8157
:101640009B81FC0121A132A12430310521F463E00A
:1016500070E00E94C60764E070E0CE010E94C607F9
:101660001C8A1D8A1E8A1F8A8881998180610E9436
:10167000960961E070E0CE01DF91CF911F910F914B
:101680000C94C908DF91CF911F910F910895EF92AB
:10169000FF920F931F93CF93DF93EC018B01EA81AD
:1016A000FB81E684F7846530710558F46330710579
:1016B00008F0CFC06130710569F062307105A9F1A1
:1016C000EEC06530710509F0EAC0888199818866AD
:1016D0009160DDC060E070E00E94C90861E070E0E8
:1016E000CE010E94C6071092A8011092A901109283
:1016F000AA011092AB0182E0E816F10469F464E0FB
:1017000070E08A819B810E94C607EA81FB8180810B
:10171000918188600E949609888199810E9496092A
:1017200018A2EA81FB8110A2BAC060E070E00E94BA
:10173000C9088E859F850397029708F044C082E010
:10174000E816F10491F5EA81FB8180A181110BC0BB
:1017500061E070E0CE010E94C60764E070E08A811B
:101760009B810E94C607EA81FB812081318180A193
:10177000811103C088E090E002C080E290E0822BFB
:10178000932B0E9496098881998180620E94960914
:1017900081E088A30E94F80E6093A8017093A901CC
:1017A0008093AA019093AB017AC088819981886067
:1017B0000E9496091092A8011092A9011092AA0104
:1017C0001092AB016CC081E0E816F10491F464E082
:1017D00070E0CE010E94C60718A2EA81FB8110A228
:1017E0001092A8011092A9011092AA011092AB01C7
:1017F0001FC0E894E1F888819981EF28F9F42091DD
:101800000C0230E02817390709F04BC028A121113C
:1018100015C064E070E0CE010E94C6070E94F80E79
:101820006093A8017093A9018093AA019093AB01E2
:101830008881998188600E94960931C028A1211170
:1018400003C028E130E002C020E230E0822B932B7D
:10185000F2CF0E94AE08811122C029A13AA188814D
:1018600099812430310511F0886E11C01092A801C1
:101870001092A9011092AA011092AB0180610E94FE
:10188000960961E070E0CE010E94C90808C0DF91AE
:10189000CF911F910F91FF90EF900C942F0A1F870B
:1018A0000E87DF91CF911F910F91FF90EF900895D8
:1018B000CF92DF92EF92FF920F931F93CF93DF931C
:1018C00000D000D0CDB7DEB76B017C012AE030E05C
:1018D00040E050E00E94342988EEC81683E0D80624
:1018E000E104F104B8F46AEA70E08CEA91E029833B
:1018F0003A834B835C830E947A2CAAE0B0E0298172
:101900003A814B815C810E9491299F938F937F93B1
:101910006F9331C0CA01B90124E630E040E050E0E5
:101920000E943429CB016AE070E00E94202921E066
:1019300030E0059714F420E030E08B01020F131F14
:10194000C701B60128EE33E040E050E00E943429A0
:1019500079010A30110529F49FEFE91AF90A00E02C
:1019600010E061EB70E08CEA91E00E947A2C1F930A
:101970000F93FF92EF928CEA91E09F938F9382E80E
:1019800091E09F938F930E94D9290FB6F894DEBF00
:101990000FBECDBF82E891E00F900F900F900F9097
:1019A000DF91CF911F910F91FF90EF90DF90CF903B
:1019B0000895CF92DF92EF92FF920F931F93CF93F0
:1019C000DF936C017A018B01C0E0D0E0CE15DF051A
:1019D00089F0D8016D918D01D601ED91FC910190B6
:1019E000F081E02DC6010995892B11F47E0102C01A
:1019F0002196ECCFC701DF91CF911F910F91FF90FE
:101A0000EF90DF90CF900895833081F028F48130FB
:101A100099F08230A1F008958730A9F08830B9F0AC
:101A20008430D1F4809180008F7D03C0809180004C
:101A30008F7780938000089584B58F7702C084B536
:101A40008F7D84BD08958091B0008F7703C0809111
:101A5000B0008F7D8093B00008953FB7F8948091D7
:101A6000720290917302A0917402B091750226B532
:101A7000A89B05C02F3F19F00196A11DB11D3FBFC6
:101A8000BA2FA92F982F8827820F911DA11DB11D54
:101A9000BC01CD0142E0660F771F881F991F4A9550
:101AA000D1F7089508958091F80290E02091F9020D
:101AB000821B9109089585ED8093BC008091BC0044
:101AC00084FDFCCF1092CD02089540913E02262F56
:101AD00030E0240F311D21323105DCF42091CD029C
:101AE0002430C9F4FC0180E090E0861758F430916E
:101AF0003E022191DC01A45EBD4FA30FB11D2C93CA
:101B00000196F3CF80913E02680F60933E0280E021
:101B1000089581E0089582E008950895E091F90222
:101B20008091F802E81730F4F0E0E957FD4F80812A
:101B300090E008958FEF9FEF08959091F9028091C2
:101B4000F802981750F4E92FF0E0E957FD4F208193
:101B500030E09F5F9093F90202C02FEF3FEFC90181
:101B60000895CF92DF92EF92FF920F931F93CF933E
:101B7000DF937C01262F972F8A018091EE02882324
:101B800091F0C62FD72F6E01C40ED51ECC15DD05E2
:101B900071F06991D701ED91FC910190F081E02DF8
:101BA000C7010995F3CF642F822F0E94650DC801EC
:101BB000DF91CF911F910F91FF90EF90DF90CF9029
:101BC0000895CF93DF931F92CDB7DEB7698320913D
:101BD000EE022223D1F02091F602203240F021E0E3
:101BE00030E0FC013383228380E090E015C08091D7
:101BF000F702E82FF0E0E253FD4F998190838F5F69
:101C00008093F7028093F60205C061E0CE01019651
:101C10000E94650D81E090E00F90DF91CF910895D3
:101C20000E94A429CF93DF93282F30E0F901EC5FC5
:101C3000FC4F8491F901E051FE4FD491F901E45237
:101C4000FE4FC491CC2391F081110E94040DEC2F22
:101C5000F0E0EE0FFF1FEE52FE4FA591B491EC9114
:101C6000ED2381E090E021F480E002C080E090E08C
:101C7000DF91CF9108951F93CF93DF93282F30E00A
:101C8000F901EC5FFC4F8491F901E051FE4FD491D2
:101C9000F901E452FE4FC491CC23C9F0162F8111F3
:101CA0000E94040DEC2FF0E0EE0FFF1FE853FE4FF3
:101CB000A591B4918FB7F894111105C09C91ED2FA7
:101CC000E095E92302C0EC91ED2BEC938FBFDF91FF
:101CD000CF911F910895CF93DF9390E0FC01E051E5
:101CE000FE4F2491FC01E452FE4F8491882361F160
:101CF00090E0880F991FFC01E254FE4FC591D491EA
:101D0000FC01E853FE4FA591B491611109C09FB742
:101D1000F8948881209582238883EC912E230BC030
:101D2000623061F49FB7F8943881822F80958323C5
:101D30008883EC912E2B2C939FBF06C08FB7F8940D
:101D4000E8812E2B28838FBFDF91CF9108958E30AD
:101D500008F08E508770806480937C0080917A00B8
:101D6000806480937A0080917A0086FDFCCF809118
:101D700078002091790090E0922B08958F929F92A5
:101D8000AF92BF92CF92DF92EF92FF926B017C01F4
:101D90000E942D0D4B015C01C114D104E104F1043A
:101DA000F1F00E942D0DDC01CB0188199909AA09D7
:101DB000BB09883E9340A105B10570F321E0C21A2A
:101DC000D108E108F10888EE880E83E0981EA11C76
:101DD000B11CC114D104E104F10419F7DDCFFF9067
:101DE000EF90DF90CF90BF90AF909F908F9008952D
:101DF0002FB7F89460916E0270916F02809170021B
:101E0000909171022FBF08951F920F920FB60F92FB
:101E100011242F933F938F939F93AF93BF93809100
:101E20006E0290916F02A0917002B0917102309198
:101E30006D0223E0230F2D3720F40196A11DB11D63
:101E400005C026E8230F0296A11DB11D20936D0247
:101E500080936E0290936F02A0937002B093710210
:101E60008091720290917302A0917402B0917502F8
:101E70000196A11DB11D8093720290937302A093ED
:101E80007402B0937502BF91AF919F918F913F9172
:101E90002F910F900FBE0F901F9018951F920F92C9
:101EA0000FB60F9211242F933F934F935F936F932D
:101EB0007F938F939F93AF93BF93EF93FF93E091A3
:101EC0000201F09103010995FF91EF91BF91AF914C
:101ED0009F918F917F916F915F914F913F912F9142
:101EE0000F900FBE0F901F9018951F920F920FB674
:101EF0000F9211242F933F934F935F936F937F9390
:101F00008F939F93AF93BF93EF93FF93E091000163
:101F1000F09101010995FF91EF91BF91AF919F91D0
:101F20008F917F916F915F914F913F912F910F9082
:101F30000FBE0F901F90189560939A0170939B01AC
:101F400080939C0190939D01DC01CB01845D9E4FA9
:101F5000AF4FBF4F8093960190939701A093980144
:101F6000B093990182E090E090936C0280936B02B1
:101F70000E94F80E60936702709368028093690272
:101F800090936A020895CF92DF92EF92FF920F939F
:101F90001F930E94F80EC0906702D0906802E090F4
:101FA0006902F0906A028B019C010C191D092E092F
:101FB0003F0980919A0190919B01A0919C01B09161
:101FC0009D01083E134021053105D0F00196A11D69
:101FD000B11D80939A0190939B01A0939C01B093B3
:101FE0009D01B701A60148515C4F6F4F7F4F409351
:101FF0006702509368026093690270936A02C9CFC6
:1020000040919601509197016091980170919901CA
:1020100084179507A607B70788F1E0919E01F09114
:102020009F01309759F10995611571058105910559
:1020300019F00E949C0F22C080919A0190919B01FF
:10204000A0919C01B0919D01845D9E4FAF4FBF4F09
:102050008093960190939701A0939801B093990172
:1020600081E090E020916B0230916C02232B11F4FF
:1020700080E090E090936C0280936B0260919A01F3
:1020800070919B0180919C0190919D011F910F91F6
:10209000FF90EF90DF90CF9008956F927F928F9294
:1020A0009F92AF92BF92CF92DF92EF92FF920F93E7
:1020B0001F93CF93DF93EC01EE81AE2FB0E020E8C9
:1020C00033E341EE51E00E9491294B015C0122EB88
:1020D00037E0FD0104E610E080E9E82EFF24F394E8
:1020E000C901825B97408E179F07DCF4C90183709A
:1020F0009927892B99F4C901B8010E942029892BBD
:1021000031F4C901B7010E942029892B39F480E8F4
:10211000880E81E5981E81E0A81EB11C2F5F3F4FFD
:10212000DFCF6D80712CEE54F84FCF0164E670E084
:102130000E9420297C01CF0160E971E00E942029E2
:102140006C0101E010E0E370FF27061517052CF580
:102150000230110581F4309771F4E114F10419F49F
:10216000C114D10441F480E8880E8BE3981E86E206
:10217000A81EB11C0FC0D801AB5FBE4FAC91B0E040
:1021800020E831E541E050E00E949129860E971E3B
:10219000A81EB91E0F5F1F4FD8CF49812A8130E09A
:1021A000A0E1BEE00E947B296B017C01242F30E07E
:1021B000ACE3B0E00E947B29DC01CB018C0D9D1DBE
:1021C000AE1DBF1D28816C017D01C20ED11CE11C1A
:1021D000F11CAC81B0E0119720E831E541E050E01E
:1021E0000E949C29DC01CB018C0D9D1DAE1DBF1DE5
:1021F000BC01CD01680D791D8A1D9B1DDF91CF911A
:102200001F910F91FF90EF90DF90CF90BF90AF9014
:102210009F908F907F906F9008951F93CF93DF933F
:10222000CDB7DEB727970FB6F894DEBF0FBECDBF90
:1022300088E60E94511B60E08AEF92E00E94E10D67
:102240000E945B1B882319F010921B0283C081E05F
:1022500080931B0267E070E088E690E00E94B81B64
:102260008091F80290E02091F902821B9109079772
:102270000CF470C08AEF92E00E949D0D182F869595
:10228000869586958E70982F990F990F890F912FAB
:102290009F70890F89838AEF92E00E949D0D282FFD
:1022A00022952F70982F9F708AE0289F900D1124FF
:1022B0009A838AEF92E00E949D0D982F282F2695F1
:1022C000269526952670822F880F880F280F9F70DD
:1022D000920F9B838AEF92E00E949D0D282F2295FA
:1022E0002F70982F9F708AE0289F900D11249C8357
:1022F0008AEF92E00E949D0D282F22952F70982F33
:102300009F708AE0289F900D11249D838AEF92E0B0
:102310000E949D0D282F22952F70982F9F708AE084
:10232000289F900D11249E838AEF92E00E949D0DBC
:10233000982F9F70925E282F22952F708AE0289FF9
:10234000900D11249F8317FD05C0CE0101960E94B8
:102350004D1003C060E070E0CB0127960FB6F894F3
:10236000DEBF0FBECDBFDF91CF911F9108956F9259
:102370007F928F929F92AF92BF92CF92DF92EF9215
:10238000FF920F931F93CF93DF93EA012CE3C22EAA
:10239000D12CE12CF12CA70196010E9434296883ED
:1023A000CA01B901A70196010E9434296983CA01B3
:1023B000B90128E130E040E050E00E943429690191
:1023C0007A016A83CA01B9016C5F7F4F8F4F9F4FBB
:1023D00027E030E040E050E00E9434296F5F6B83DB
:1023E000812C912C540140E034E6632E712C00E9DD
:1023F00011E0242F30E02E54384FF901E370FF270D
:10240000309789F4C901B3010E942029892B31F446
:10241000C901B8010E942029892B29F48EE691E098
:10242000A0E0B0E004C08DE691E0A0E0B0E0880E4E
:10243000991EAA1EBB1ED501C401AA27BB27C81618
:10244000D906EA06FB0610F04F5FD3CF4E833097D4
:1024500099F4C90164E670E00E942029892B39F4BF
:10246000C90160E971E00E942029892B29F48EE6D8
:1024700091E0A0E0B0E004C08DE691E0A0E0B0E023
:10248000881A990AAA0ABB0AC818D908EA08FB08D8
:10249000C90164E670E00E9420298C01C90160E94D
:1024A00071E00E942029A6E0B1E020E0213041F453
:1024B000309751F40115110529F4009729F402C051
:1024C0004C9103C04DE101C04CE150E060E070E090
:1024D000C416D506E606F70640F0C41AD50AE60A81
:1024E000F70A2F5F11962C3009F72F5F2D83C394C5
:1024F000CC82DF91CF911F910F91FF90EF90DF90F1
:10250000CF90BF90AF909F908F907F906F900895E5
:10251000CF92DF92EF92FF92C0906302D09064025C
:10252000E0906502F09066026C157D058E059F05B2
:1025300071F06B017C014FEE52E00E94B711C09226
:102540006302D0926402E0926502F0926602FF900C
:10255000EF90DF90CF9008950E9488128091F5024D
:1025600090E08E54984F0895CF92DF92EF92FF92B1
:10257000CF936B017C019B01AC016EEF7FEF81E09B
:1025800090E00E94F0289B01AC0160E074E284EFCF
:1025900090E00E943429C0E0EC2FF0E0EE0FFF1F26
:1025A000EB59FE4F80819181CF5F82179307A0F393
:1025B000A7019601220F331F441F551FEC2FF0E097
:1025C000EE0FFF1FEB59FE4FA081B1810E949129B0
:1025D0009B01AC0160E074E284EF90E00E9434293A
:1025E000309387002093860080918100C770887F98
:1025F000C82BC093810081E0CF91FF90EF90DF90D6
:10260000CF900895682F8AEF92E00C94E10DCF935C
:10261000DF931F92CDB7DEB7FC01818580626983AD
:102620000E94511B89E00E9402136981862F0E943B
:1026300002130E945B1B8111FCCF0F90DF91CF91A1
:102640000895CF93DF931F92CDB7DEB7FC0181854C
:10265000806269830E94511B83E10E940213698199
:10266000862F0E9402130E945B1B8111FCCF0F90EA
:10267000DF91CF910895FF920F931F93CF93DF9334
:102680008C01C62FF42EFC0186858130B1F565855D
:10269000C4FD6061C5FD6860C6FD6460C7FD626021
:1026A000D62FFF2011F0D06A01C0D0626D2FC80173
:1026B0000E9421136D2F6F7DC8010E942113F80124
:1026C0006585C0FD6061C1FD6860C2FD6460C3FDD9
:1026D0006260C62FFF2011F0C06A01C0C0626C2F7B
:1026E000C8010E9421136C2F6F7DC801DF91CF912B
:1026F0001F910F91FF900C942113607F70E07595EE
:102700006795442311F0666001C06460F80185811B
:1027100083FD02C0D0E001C0D0E8D62B6D2FC801E8
:102720000E9407136D2F6B7FC8010E940713CF70A3
:10273000CC0FCC0FCC0FFF2011F0C66001C0C460DD
:10274000F801858183FD02C060E001C060E8C62B0E
:102750006C2FC8010E9407136C2F6B7FC801DF919B
:10276000CF911F910F91FF900C940713FC012385CB
:10277000222319F041E00E943B1381E090E008958C
:102780001F920F920FB60F9211242F933F934F93E6
:102790005F936F937F938F939F93AF93BF93EF93C9
:1027A000FF938091B900887F803609F49CC068F55A
:1027B000883209F45BC090F4803109F454C038F4D5
:1027C000882309F4F6C0883009F44DC0F6C088317A
:1027D00009F44CC0803209F45DC0EFC0803409F4C4
:1027E00068C048F4803309F455C0883309F0E5C067
:1027F0008093CB02D8C0803509F44FC0883509F4E6
:102800005DC0883409F0D9C0D6C0883909F4C7C082
:10281000A8F4883709F467C038F4883609F463C02F
:10282000803709F460C0C9C0883809F4B8C080395D
:1028300009F45FC0803809F0C0C05BC0803B09F478
:1028400086C038F4803A09F466C0883A09F47FC03B
:10285000B4C0803C09F4A7C0883C09F4A4C0883BFC
:1028600009F48AC0AAC08091A80210C09091CA023F
:102870008091C902981770F5E091CA0281E08E0F2D
:102880008093CA02F0E0E755FD4F80818093BB0042
:1028900085EC86C08093CB028EC0E091CA0281E0B5
:1028A0008E0F8093CA028091BB00F0E0E755FD4F88
:1028B00080839091CA028091C9026EC0E091CA02E1
:1028C00081E08E0F8093CA028091BB00F0E0E75553
:1028D000FD4F80838091CC0281116DC081E0809397
:1028E000A70284EA61C083E08093CD021092620265
:1028F000CFCF80916202803208F051C0E091620235
:1029000081E08E0F809362028091BB00F0E0EE5B6D
:10291000FD4F8083BDCF85EC8093BC001092CD022B
:1029200080916202803230F4E0916202F0E0EE5B6E
:10293000FD4F10826091620270E0E0914002F091E0
:10294000410282E492E009951092620236C084E06E
:102950008093CD0210923F0210923E02E0913C0221
:10296000F0913D02099580913E02811105C081E000
:1029700080933E0210921C02E0913F0281E08E0F94
:1029800080933F02F0E0E45EFD4F80818093BB00C6
:1029900090913F0280913E02981708F479CF85E824
:1029A0008093BC000AC085EC8093BC001092CD02DD
:1029B00004C01092CB020E945B0DFF91EF91BF917A
:1029C000AF919F918F917F916F915F914F913F91C7
:1029D0002F910F900FBE0F901F9018951092CD025F
:1029E00081E08093CC021092A70261E082E10E9414
:1029F0003B0E61E083E10E943B0EE9EBF0E0808159
:102A00008E7F808380818D7F808388E48093B8006F
:102A100085E48093BC000895FF920F931F93CF939A
:102A2000DF9300D000D0CDB7DEB7F82E0E947B0236
:102A30008C01FF2039F00E94541C10927A021092EF
:102A40007D0204C08130910509F075C090917A0231
:102A5000492F50E04C30510508F0AFC0FA01EC5C52
:102A6000FF4F0C947529F11005C080917D028F5F96
:102A700080937D0280917D02853010F010927D025E
:102A8000E0917D02E43008F098C034E0E39FF0016B
:102A90001124ED55FC4F80818093790291819093B0
:102AA0007802928190937C02938190937B0291E0D3
:102AB0008C3008F490E090937702811102C08CE092
:102AC0000BC08D3008F479C08C5006C0809179021B
:102AD0008F5F8D3008F081E0809379026EC0809125
:102AE00078028F5F8C3318F48093780266C010925E
:102AF000780263C081E090917702911180E0809329
:102B000077025BC02CEF290F81E090E001C0880FB5
:102B10002A95EAF790917C02892780937C024DC028
:102B200080917B028F5F833018F480937B0245C0D5
:102B300010927B0242C0029709F041C090917A0244
:102B400091110FC080917D02843059F480E198E1A9
:102B50009093050180930401109213020E94541C6B
:102B60005AC19F5F90937A029C3048F1809179021C
:102B700090917702911103C08C3031F44AC19130A9
:102B800019F48C3009F0845FE0917D0294E0E99FB4
:102B9000F0011124ED55FC4F8083809178028183F0
:102BA00080917C02828380917B0283838CE993E015
:102BB0000E94C41C10927A022EC101E010E00E9413
:102BC000F80E28EE33E040E050E00E94342921E086
:102BD000643F71408105910508F420E0012B29F440
:102BE00090917602921709F416C12093760260E064
:102BF00080E00E94171C6DE272E08CEA91E00E9476
:102C00007A2C8CEA91E00E94151C80917602882330
:102C100039F080917A02811103C068E272E006C047
:102C200060917D02643059F463E272E08CEA91E0D5
:102C30000E947A2C8CEA91E00E94151C0AC070E078
:102C40006F5F7F4F072E000C880B990B4AE00E94A4
:102C5000FD1C61E080E00E94171C80917D028430A1
:102C600049F400E110E080E20E94F21C01501109D9
:102C7000D1F7D1C0109179026FE172E08CEA91E056
:102C80000E947A2C1F921F938CEA91E09F938F935E
:102C90008E010F5F1F4F1F930F930E94D9290F9032
:102CA0000F900F900F900F900F90809176028823D5
:102CB00069F080917A02813049F46CE172E08CEA2B
:102CC00091E00E947A2C8CEA91E001C0C8010E9438
:102CD000151C8AE30E94F21CF090780267E172E012
:102CE0008CEA91E00E947A2C1F92FF928CEA91E08C
:102CF0009F938F931F930F930E94D9290F900F904A
:102D00000F900F900F900F9080917602882369F0BA
:102D100080917A02823049F464E172E08CEA91E0B9
:102D20000E947A2C8CEA91E001C0C8010E94151C17
:102D300080917602882331F080917A02833011F4F9
:102D400080E207C080917702813011F081E401C0F8
:102D500080E50E94F21C80E20E94F21C00E010E07C
:102D600064E072E08CEA91E00E947A2CECEAF1E0F7
:102D700001900020E9F73197EC5AF1400E171F0738
:102D800058F580917A0290E098012C5F3F4F281708
:102D9000390731F480917602882311F080E217C060
:102DA00080917C0290E0002E02C0959587950A9450
:102DB000E2F780FF0BC06CE072E08CEA91E00E94C9
:102DC0007A2CF801E455FE4F808101C08DE20E940B
:102DD000F21C0F5F1F4FC4CF80E20E94F21C809153
:102DE0007A028B3031F480917602882311F080E2F0
:102DF0000DC080917B02811102C08EE407C081303A
:102E000011F483E503C0823031F487E40E94F21CA0
:102E100002C080E0B9CE0F900F900F900F90DF911D
:102E2000CF911F910F91FF900895CF92DF92EF9273
:102E3000FF920F931F93CF93DF93CDB7DEB76197C8
:102E40000FB6F894DEBF0FBECDBF182F0E947B02D5
:102E50009C01112329F00E94541C10927E023AC05A
:102E600090917E0290FF05C0A4EBB3E0E6EBF3E0A7
:102E700004C0A3EBB3E0E5EBF3E02130310521F032
:102E800022303105A9F0BDC0923018F0943010F511
:102E900007C08C918F5F86300CF08BEF8C931AC03B
:102EA00080818150863F14F0808314C0108212C04C
:102EB0009F5F90937E02943068F08CE993E00E94CB
:102EC000C41C80E198E19093050180930401109265
:102ED000130297C080917E0280FF0BC00BE711E0C8
:102EE00044EBC42E43E0D42E56EBE52E53E0F52EF2
:102EF0000AC009E711E023EBC22E23E0D22E35EB06
:102F0000E32E33E0F32E823090F1843008F079C064
:102F10000E94541C67E472E08CEA91E00E947A2CD3
:102F20008CEA91E00E94151C61E080E00E94171C71
:102F3000F701F080CF2C0F2C000CDD0869E372E064
:102F40008CEA91E00E947A2CDF92FF921F930F93FC
:102F50008CEA91E09F938F931F9281E18F938E0172
:102F60000F5F1F4F1F930F930E94A92942C00E9419
:102F7000541C64E672E08CEA91E00E947A2C8CEAA0
:102F800091E00E94151C61E080E00E94171CF60190
:102F90002081822F022E000C990B97FF03C0919580
:102FA00081959109D82EC92E27FD05C09FE7E92EEE
:102FB00091E0F92E04C08DE7E82E81E0F82E64E55B
:102FC00072E08CEA91E00E947A2CCF92DF92FF921D
:102FD000EF921F930F938CEA91E09F938F931F9230
:102FE00081E18F938E010F5F1F4F1F930F930E94FC
:102FF000A929C8010E94151C0FB6F894DEBF0FBEA8
:10300000CDBF61960FB6F894DEBF0FBECDBFDF9186
:10301000CF911F910F91FF90EF90DF90CF90089587
:10302000CF93C82F0E947B02CC2361F083E00E94E3
:10303000631C0E94541C87EE93E090938602809359
:1030400085021FC0009709F443C281309105B1F495
:1030500080918302909184020196909384028093E0
:10306000830220918102309182022817390708F0EB
:10307000DFC01092840210928302DAC0029709F036
:10308000D7C0E0918502F0918602E730F10508F0A3
:1030900066C0E05CFF4F0C94752980918302809399
:1030A0009E030CC0E0918302F0918402E65DFE4F26
:1030B000808190E09093A00380939F038CE993E03C
:1030C0000E94C41C4CC08091830290918402892B81
:1030D00009F045C086E193E09093050180930401D7
:1030E00081E0CF910C94160381E02091830230910E
:1030F0008402232B09F080E08093A103DFCF80912D
:10310000830290918402892B51F58CE095E1909394
:1031100005018093040181E0CF910C940C158091FE
:10312000830290918402892BD1F485E197E19093F9
:1031300005018093040181E0CF910C9415178091D3
:10314000830290918402892B19F410921302C0C15A
:1031500087EE93E09093860280938502B9C18091B7
:1031600085029091860201968730910528F490930C
:1031700086028093850204C0109286021092850216
:10318000E0918502F0918602E730F10508F048C031
:10319000E95BFF4F0C94752980919E0390E090931A
:1031A00084028093830236C060919F037091A003D4
:1031B000EAE2F1E050E040E080E090E0219130E090
:1031C0006217730711F4582F492F01968B30910520
:1031D000A9F750938302409384028AE090E01CC0D8
:1031E00081E090E090938202809381029091A1030C
:1031F000892790E0909384028093830211C081E03C
:1032000090E0909384028093830206C0109284021F
:103210001092830281E090E0909382028093810279
:1032200080918302909184029093800280937F0228
:103230000E94541CE0918502F0918602E730F1056E
:1032400008F046C1E25BFF4F0C94752965EF72E010
:103250008CEA91E00E947A2C8CEA91E00E94151C85
:1032600061E080E00E94171C20918302309184026B
:1032700080917F02909180022817390711F080E237
:1032800001C08BE20E94F21C809183029091840223
:10329000009731F0019709F01BC163EE72E00FC196
:1032A0006EEE72E00CC164ED72E08CEA91E00E9477
:1032B0007A2C8CEA91E00E94151C61E080E00E946B
:1032C000171C209183023091840280917F0290919B
:1032D00080022817390711F080E201C08BE20E94BA
:1032E000F21CE0918302F0918402E65DFE4F608162
:1032F00070E080E090E04AE00E94FD1C6EEC72E01D
:10330000DEC063EC72E08CEA91E00E947A2C8CEAD9
:1033100091E00E94151C61E080E00E94171C209142
:1033200083023091840280917F029091800228175D
:10333000390711F080E201C08BE20E94F21C8091FB
:10334000830290918402009731F0019709F0C0C088
:103350006CEB72E0B4C06FEB72E0B1C060EB72E096
:103360008CEA91E00E947A2C8CEA91E00E94151C74
:1033700061E080E00E94171C20918302309184025A
:1033800080917F02909180022817390711F080E226
:1033900001C08BE20E94F21C809183029091840212
:1033A000009731F0019709F093C069EA72E087C095
:1033B0006CEA72E084C06AE972E08CEA91E00E94F3
:1033C0007A2C8CEA91E00E94151C61E080E00E945A
:1033D000171C209183023091840280917F0290918A
:1033E00080022817390711F080E201C08BE20E94A9
:1033F000F21C8091830290918402009731F0019732
:1034000009F066C063E972E05AC066E972E057C02D
:1034100066E872E08CEA91E00E947A2C8CEA91E0F6
:103420000E94151C61E080E00E94171C209183021D
:103430003091840280917F02909180022817390791
:1034400011F080E201C08BE20E94F21C80918302A5
:1034500090918402009729F00197D1F56FE772E00F
:103460002EC062E872E02BC063E772E08CEA91E064
:103470000E947A2C8CEA91E00E94151C61E080E0A9
:103480000E94171C209183023091840280917F0258
:10349000909180022817390711F080E201C08BE279
:1034A0000E94F21C8091830290918402009729F07F
:1034B000019771F46CE672E002C06FE672E08CEA8C
:1034C00091E00E947A2C8CEA91E0CF910C94151C2B
:1034D000CF9108958F929F92AF92BF92CF92DF9239
:1034E000EF92FF920F931F93CF93DF93CDB7DEB789
:1034F00064970FB6F894DEBF0FBECDBF5F87798BA0
:10350000F42E411109C06F5F6D3040F02FEFC21AE9
:10351000D20A21E061E003C0242F01C021E08989A3
:103520008B831A82198281E08D836E838EE48C0DE9
:103530008F83CE0101962C8B0E944D104B015C01B4
:103540000F8510E00E9488122C8930E0215031094B
:1035500087E0829FF001839FF00D11248091F20299
:103560009801281B3109C901079667E070E00E94A5
:103570002029DF01A80FB91F20E831E541E050E024
:103580000E949C29680D791D8A1D9B1DF11004C0A5
:1035900060587A438940910964960FB6F894DEBF6B
:1035A0000FBECDBFDF91CF911F910F91FF90EF9094
:1035B000DF90CF90BF90AF909F908F9008958F92A3
:1035C0009F92AF92BF92CF92DF92EF92FF920F93B2
:1035D0001F93CF93DF936C01E090C603F090C70375
:1035E0000091C8031091C9032091CA033091CB0305
:1035F0004091CC035091CD036091CE037091CF03E5
:103600008091D0039091D1030E946A1AC6ECD3E056
:1036100068A379A38AA39BA3E2EDF3E0E080F180A5
:1036200002811381248135814681578160857185AE
:10363000828593850E946A1A6B017C016CA37DA32D
:103640008EA39FA3AE89BF892CE330E00E948A2914
:1036500008A119A12AA13BA148015901861A970A7C
:10366000A80AB90A888E998EAA8EBB8EAA85BB85B8
:103670002CE330E00E948A29C61AD70AE80AF90A20
:10368000CC8EDD8EEE8EFF8EDF91CF911F910F914C
:10369000FF90EF90DF90CF90BF90AF909F908F9072
:1036A000089591E09093EE028093EE031092F7025A
:1036B0001092F60208952091F6029091EE032132C5
:1036C00008F04AC08091CD028111FCCF32E03093E6
:1036D000CD0231E03093CC023FEF3093CB02109219
:1036E000CA022093C902AEECB2E049EA52E0FA0104
:1036F0003E2F341B321718F43D913193F9CF1092BD
:10370000A8022091A802990F922B9093A802909161
:10371000A702913061F41092A7029091A8029093B1
:10372000BB009091BC0093FDF8CF95EC01C095EEE5
:103730009093BC009091CD029230E1F39091CB0236
:103740009F3F79F08091CB02803241F08091CB0293
:10375000803331F084E005C081E003C082E001C025
:1037600083E01092F7021092F6021092EE02089592
:103770009091CD029111FCCF613208F060E291E0AE
:103780009093CD029093CC022FEF2093CB02109216
:10379000CA02260F2093C9029093A8029091A80212
:1037A000880F892B8093A8028091A702813061F451
:1037B0001092A7028091A8028093BB008091BC0068
:1037C00083FDF8CF85EC01C085EE8093BC0080912D
:1037D000CD028130E1F38091CA02861710F4609126
:1037E000CA02A9EAB2E027E832E0F9018E2F821B73
:1037F000861718F48D918193F9CF1092F902609396
:10380000F802862F0895009769F0FC0101900020CE
:10381000E9F73197AF01481B590BBC0187EB93E0E7
:103820000C94D90C80E090E008950C94031CCF9385
:10383000DF93CDB7DEB728970FB6F894DEBF0FBE83
:10384000CDBF2091C203222331F128E0E2E1F1E073
:10385000DE01119601900D922A95E1F72091BE03A9
:10386000261710F46FEF620FFE013196E60FF11D7F
:10387000E60FF11D9081682F690F606840E087EBCB
:1038800093E028960FB6F894DEBF0FBECDBFDF9150
:10389000CF910C943B1328960FB6F894DEBF0FBE61
:1038A000CDBFDF91CF9108958091C203882351F05D
:1038B00040E061E087EB93E00E943B138BE39FE1E4
:1038C0000197F1F70895CF93DF939091C203992365
:1038D00009F457C09091C103992311F097E089270B
:1038E0009091C5039130C1F580FD03C020EC31E01B
:1038F00002C020E831E03093C4032093C30381FF6A
:1039000009C02091C3033091C4032F773093C403BF
:103910002093C30382FF09C08091C3039091C40325
:103920009E7F9093C4038093C303D091C303C0913F
:10393000C4038091C00380620E94511B82E10E94F7
:1039400002138D2F0E9402138C2F0E9402130E94DB
:103950005B1B8111FCCF15C09091BC03882311F033
:10396000986001C0977F9093BC038091BC03682F3F
:10397000687083FD60E887EB93E0DF91CF910C9452
:103980000713DF91CF910895CF92DF92EF92FF92CC
:103990000F931F93CF93DF931F92CDB7DEB77C01B8
:1039A0008C01C12CD12CF80161918F01C601698372
:1039B0000E94812C6981681719F0C6010E94892C28
:1039C000FFEFCF1ADF0A8BE1C816D10461F7C701F8
:1039D0000F90DF91CF911F910F91FF90EF90DF90AB
:1039E000CF900895E091B703F091B8030190F08172
:1039F000E02D682F87EB93E009948F929F92AF920E
:103A0000BF920F931F93CF93DF93CDB7DEB7A197EC
:103A10000FB6F894DEBF0FBECDBF19A2423008F436
:103A20004AE08E010F5D1F4F842E912CA12CB12CEA
:103A3000A50194010E943429E62FB901CA01015061
:103A40001109EA3014F4E05D01C0E95CD801EC939F
:103A5000232B242B252B61F7C8010E94031CA19660
:103A60000FB6F894DEBF0FBECDBFDF91CF911F918F
:103A70000F91BF90AF909F908F900895CF92DF925B
:103A8000EF92FF920F931F93CF93E82F880FFF0BB6
:103A9000EC5FFC4FE4918DEF8E0F823068F468EE9E
:103AA00073E080E090E0CF911F910F91FF90EF9035
:103AB000DF90CF900C94B412E83091F5C0E00FE1A4
:103AC00010E0C12C94E2D92E94EFE92EF12CCF5FB7
:103AD000EC2FF0E0EE0FFF1FEB5AFE4F808191813B
:103AE00080179107A0F38C019C01A0EDB7E00E9424
:103AF0007B299B01AC01C701B6010E9434292F3FED
:103B000031054105510509F010F72093B30080916C
:103B1000B100C770887FC82BC093B10081E001C09D
:103B200080E0CF911F910F91FF90EF90DF90CF90A9
:103B30000895CF93DF93CDB7DEB76B970FB6F894A8
:103B4000DEBF0FBECDBF789484B5826084BD84B5DE
:103B5000816084BD85B5826085BD85B5816085BD88
:103B600080916E00816080936E0010928100809140
:103B700081008260809381008091810081608093C8
:103B80008100809180008160809380008091B100ED
:103B900084608093B1008091B00081608093B00018
:103BA00080917A00846080937A0080917A008260AC
:103BB00080937A0080917A00816080937A0080916E
:103BC0007A00806880937A001092C10014BE9EE053
:103BD00088E10FB6F894A895809360000FBE90938B
:103BE0006000809180008C7F8093800080918100B4
:103BF000877E80618093810064EF71E080E090E0D7
:103C00000E94B4128091B0008C7F81608093B000DC
:103C10008091B10088608093B10010E03EE3E32E14
:103C2000F12C812C44E2942E44EFA42EB12C1F5F82
:103C3000E12FF0E0EE0FFF1FEB5AFE4F80819181E4
:103C40008E159F05A0F37C019C01A8EEB3E00E94B5
:103C50007B299B01AC01C501B4010E9434292F3F8F
:103C600031054105510509F010F72093B30080910B
:103C7000B1001770887F182B1093B10081E08093FA
:103C8000C50362E370E080E090E00E94BE0E1092F7
:103C9000F9021092F8021092F7021092F6020E94B6
:103CA000EE149091C5038091C0038062913069F554
:103CB0000E94511B80E00E9402138FE10E940213B8
:103CC0000E945B1B882339F08091C203823019F473
:103CD0001092C203EDC08091C00380620E94511B0C
:103CE0008CE00E9402138FE10E9402130E945B1B72
:103CF000882321F08091C203823051F38091C00368
:103D000080620E94511B81E032C00E94511B80E002
:103D10000E9402138FEF0E94021380E00E940213A0
:103D200080E00E94021380E00E94021380E00E9463
:103D3000021380E00E94021380E00E94021380E0E0
:103D40000E94021380E00E94021380E00E9402138E
:103D50000E945B1B882329F08091C203823009F402
:103D6000B7CF8091C00380620E94511B80E00E9407
:103D7000021380E00E9402130E945B1B882329F03B
:103D80008091C203823009F4A3CF8091C2038230B4
:103D900019F481E08093C2038091BB038860809313
:103DA000BB0382E08093BE031092BF038091C503E2
:103DB0008130E1F41092C4031092C30313E068E36E
:103DC00087EB93E00E94211368E187EB93E00E9468
:103DD00021131150A1F768E287EB93E00E942113B1
:103DE00068E087EB93E00E94211328C06CE987EB21
:103DF00093E00E94071368E987EB93E00E940713A2
:103E00006CE987EB93E00E94071368E987EB93E086
:103E10000E9407136CE987EB93E00E94071368E99F
:103E200087EB93E00E94071364E987EB93E00E941D
:103E3000071360E987EB93E00E94071365E070E0E9
:103E400080E090E00E94BE0E6091BB03606240E0A3
:103E500087EB93E00E943B1365E070E080E090E028
:103E60000E94BE0E6091BB03606240E087EB93E06E
:103E70000E943B1365E070E080E090E00E94BE0E7F
:103E80008CE08093BC038091C203882331F040E032
:103E90006CE087EB93E00E943B130E94541C82E08D
:103EA0008093BD0340E066E087EB93E00E943B1304
:103EB00087E00E94631C0E94541C60E080E00E9426
:103EC000171C6DE771E08CEA91E00E947A2C8CEA75
:103ED00091E00E94151C61E081E00E94171C69E7D7
:103EE00071E08CEA91E00E947A2C8CEA91E00E94C9
:103EF000151C80E20E94F21C63E771E08CEA91E0FD
:103F00000E947A2C8CEA91E00E94151C80ED97E0CB
:103F10000E94620261E081E00E94171C6FE671E07E
:103F20008CEA91E00E947A2C8CEA91E00E94151CA8
:103F300080E20E94F21C65E671E08CEA91E00E944A
:103F40007A2C8CEA91E00E94151C08E010E080E2D7
:103F50000E94F21C01501109D1F761E083E00E9438
:103F60006B0E60E083E00E943B0E60E082E00E9406
:103F70006B0E87EB91E0909301018093000180919B
:103F80006900836080936900E89A61E08AE00E949A
:103F90006B0E61E089E00E946B0E61E088E00E9498
:103FA0006B0E61E087E00E946B0E60E081E10E9491
:103FB0006B0E60E080E10E946B0E61E070E086E0D5
:103FC00093E00E94C60761E070E081E593E00E9403
:103FD000C60760E070E086E093E00E94C90860E0F8
:103FE00070E081E593E00E94C9081092A40110924C
:103FF000A5011092A6011092A7011092A0011092A3
:10400000A1011092A2011092A3011092A801109296
:10401000A9011092AA011092AB0183E690E090935F
:1040200015028093140210920E0210920F02109249
:1040300010021092110281E080930C028DE091E158
:1040400090939F0180939E0180919A0190919B0192
:10405000A0919C01B0919D0180939601909397014E
:10406000A0939801B09399010E94C30F8091A2037D
:10407000682F082E000C770B77FF03C071956195B0
:104080007109162F1F7187FF106288E60E94511B6D
:1040900067E08AEF92E00E94E10D612F8AEF92E0E3
:1040A0000E94E10D0E945B1B8AE00E943E1D81116F
:1040B00003C083E00E94631C89E00E943E1D8111C1
:1040C00003C084E00E94631C80ED97E00E946202BE
:1040D0000E94541C0E94470981E10E94120E01E0D7
:1040E000019709F000E080E10E94120E11E00197B3
:1040F00009F010E0011102C01123F9F081E00E94E3
:10410000631C0E94541C65E571E08CEA91E00E94FA
:104110007A2C8CEA91E00E94151C61E080E00E94FC
:10412000171C002319F081E40E94F21C112319F0DE
:1041300082E40E94F21C0E94FE0894E7292E93E07C
:10414000392EA89580911302882339F0E09104015B
:10415000F091050180E00995EAC28091120288235E
:1041600031F088EA90E00E942F0A109212028091AA
:104170000E0290910F02A0911002B0911102892BB2
:104180008A2B8B2B81F581E10E94120E019739F465
:104190008091120390911303892B09F4D0C280E11E
:1041A0000E94120E019739F480915D0390915E0395
:1041B000892B09F4C9C281E10E94120E892B39F4BE
:1041C0008091120390911303019709F4C2C280E118
:1041D0000E94120E892B39F480915D0390915E0349
:1041E000019709F4BBC220919F033091A003A8EE70
:1041F000B3E00E947B292B013C0180910E0290913B
:104200000F02A0911002B0911102892B8A2B8B2BE7
:10421000A1F00E94F80E00910E0210910F02209161
:104220001002309111020C501E4F2F4F3F4F0617B6
:1042300017072807390708F496C280911403909154
:104240001503059731F080915F0390916003059706
:1042500011F481E01AC086E093E00E94AE08182FA6
:1042600081E593E00E94AE0811110AC081110CC0D3
:1042700080910D02811102C082E007C083E005C079
:10428000882311F085E001C086E00E94631C9091B4
:104290001A0280910D02992309F455C081114FC073
:1042A00080919E03813089F48091270390912803A7
:1042B000049711F481E007C0809172039091730319
:1042C0000497C1F782E080930C0261E070E086E021
:1042D00093E00E94C60761E070E081E593E00E94F0
:1042E000C6070E94F80E60931E0370931F0380930D
:1042F0002003909321036093690370936A03809372
:104300006B0390936C031092150310921403109298
:10431000600310925F0310921A0310921B03109215
:104320001C0310921D0310926503109266031092F5
:10433000670310926803109226031092710381E0C4
:1043400080930D020CC0882341F010921503109247
:1043500014031092600310925F0310920D0260E04C
:1043600080E00E94171C88E60E94511B60E08AEFE3
:1043700092E00E94E10D0E945B1B61E070E088E624
:1043800090E00E94B81B8AEF92E00E949D0D87FD8D
:1043900046C00E94D5010E9488128091F10290E0EF
:1043A0000C9714F411E401C010E50E94D5010E949D
:1043B00088120091F0020E94D5010E94881280911B
:1043C000F102882341F0E82EF12C8D3038F02CE0FA
:1043D000E21AF10803C08CE0E82EF12C61EB71E0E9
:1043E0008CEA91E00E947A2C1F921F931F920F93E8
:1043F000FF92EF928CEA91E09F938F931F9281E15D
:104400008F9341E050E04C0F5D1F5F934F930E94EC
:10441000A9290FB6F894DEBF0FBECDBF1BC068EA56
:1044200071E08CEA91E00E947A2C8CEA91E09F93F3
:104430008F931F9281E18F93E1E0F0E0EC0FFD1F7D
:10444000FF93EF930E94A9290F900F900F900F9068
:104450000F900F90CE0101960E94151C80910D02C5
:10446000882319F06FE971E018C06CE971E08CEAFB
:1044700091E00E947A2C8CEA91E00E94151C8091B8
:104480009E03882329F0813031F46EE871E005C085
:1044900065E971E002C06AE871E08CEA91E00E948F
:1044A0007A2C8CEA91E00E94151C86E093E00E9431
:1044B00068078C0180910D0281114FC48091140313
:1044C0009091150385309105A9F00817190759F146
:1044D00080919E03882341F0813029F5B80186E060
:1044E00093E00E94470B1FC0B80186E093E00E9452
:1044F0009F0A19C00130110509F03BC41092150341
:104500001092140380911E0390911F03A091200329
:10451000B0912103892B8A2B8B2B09F0DAC3809170
:104520000D028111F2C381E593E00E9468079B8F21
:104530008A8F80910D0281116CC480915F039091EC
:10454000600385309105C9F0CA8CDB8CC816D9068A
:1045500079F180919E03882349F0813049F56A8D75
:104560007B8D81E593E00E94470B22C06A8D7B8D95
:1045700081E593E00E949F0A1BC02A8D3B8D21306C
:10458000310509F041C41092600310925F038091DD
:10459000690390916A03A0916B03B0916C03892B1E
:1045A0008A2B8B2B09F0EAC380910D02811102C482
:1045B0002091A8013091A9014091AA015091AB012D
:1045C000211531054105510509F469C02A8B3B8B42
:1045D0004C8B5D8B0E94F80E4B015C012A893B8954
:1045E0004C895D89DC01CB01821B930BA40BB50BBD
:1045F000813E9349A440B10508F451C0809127033E
:1046000090912803049711F561E070E086E093E053
:104610000E94C60764E070E081E593E00E94C6074F
:104620008092A8019092A901A092AA01B092AB0138
:1046300080912603811103C089E190E002C081E2EC
:1046400090E00E9496098AE090E027C08091720372
:1046500090917303049719F561E070E081E593E0B0
:104660000E94C60764E070E086E093E00E94C607FF
:104670008092A8019092A901A092AA01B092AB01E8
:1046800080917103811103C08AE190E002C082E24F
:1046900090E00E94960989E090E00E9496090E94AD
:1046A000F80E8090160290901702A0901802B09019
:1046B00019026B017C01C818D908EA08FB0821E639
:1046C000C2162AEED206E104F10440F0609316020D
:1046D000709317028093180290931902809112032D
:1046E00090911303019709F047C0809114039091B2
:1046F0001503059709F05CC03FC00E94F80E209199
:104700001603309117034091180350911903DC01EF
:10471000CB01821B930BA40BB50B813A9F40A105E3
:10472000B10508F4A6C089E690E00E942F0A80E057
:1047300090E0892B09F405CD0E94000002CD89E2AA
:1047400091E00E942F0A2BCD8AE291E00E942F0A6D
:1047500032CD8AE290E00E942F0A39CD8AE290E0C1
:104760000E942F0A40CD10920E0210920F0210925A
:1047700010021092110261CD1092160310921703CD
:10478000109218031092190388E2F10111928A9590
:10479000E9F780915D0390915E03019709F078C07D
:1047A00080915F0390916003059709F0D7C170C0B5
:1047B00086E093E00E9460064B015C010E94F80EC7
:1047C000C0902203D0902303E0902403F0902503AF
:1047D0009B01AC012C193D094E095F09293E33406C
:1047E0004105510540F060932203709323038093A9
:1047F0002403909325038091270390912803039726
:1048000029F021E030E040E050E004C022E030E058
:1048100040E050E0C301B2010E943429DA01C9012D
:1048200088519C4FAF4FBF4F88159905AA05BB050E
:10483000C0F48091160390911703A0911803B091D2
:104840001903892B8A2B8B2B09F057CF0E94F80E66
:1048500060931603709317038093180390931903C2
:1048600008C01092160310921703109218031092AA
:10487000190361E080E00E94171C83E791E00E9429
:10488000151CC501B4010E94580C0E94151C81CF53
:1048900010926103109262031092630310926403FA
:1048A00088E2F10111928A95E9F780911A039091BB
:1048B0001B03A0911C03B0911D03892B8A2B8B2B0A
:1048C000B1F00E94F80E80901A0390901B03A09004
:1048D0001C03B0901D03DC01CB0188199909AA09BA
:1048E000BB0985399141A105B10508F0BEC1809190
:1048F0001E0390911F03A0912003B0912103892BE7
:104900008A2B8B2BC1F10E94F80E80901E03909091
:104910001F03A0902003B0902103DC01CB01881974
:104920009909AA09BB09893B9B40A105B10518F16A
:1049300010921E0310921F03109220031092210365
:1049400060E070E086E093E00E94C90880910D026B
:10495000882321F089E090E00E94960981E593E0A8
:104960000E94AE08811194C180915F039091600311
:10497000029709F48DC18091650390916603A0911F
:104980006703B0916803892B8A2B8B2BB1F00E94AF
:10499000F80E8090650390906603A0906703B09036
:1049A0006803DC01CB0188199909AA09BB0985397B
:1049B0009141A105B10508F072C180916903909100
:1049C0006A03A0916B03B0916C03892B8A2B8B2B0C
:1049D000C1F10E94F80E8090690390906A03A09044
:1049E0006B03B0906C03DC01CB0188199909AA090B
:1049F000BB09893B9B40A105B10518F110926903E1
:104A000010926A0310926B0310926C0360E070E0E6
:104A100081E593E00E94C90880910D02882321F06E
:104A20008AE090E00E94960986E093E00E94AE083A
:104A3000811148C18091140390911503029709F4E4
:104A400041C10E947B029C01019731F480910D02CB
:104A500091E0982790931A0201301105A9F44A8D2C
:104A60005B8D4130510581F42230310569F481E0DC
:104A70008093130210921503109214031092600396
:104A800010925F030E9410180091140210911502F9
:104A90000E94D5010E9488128091F00290E00817D0
:104AA000190709F444CE0E94D5010E948812809112
:104AB000F00290E090931502809314020E94D501B9
:104AC0000E9488121091F1020E94D5010E94881262
:104AD0000091F0020E94D50120E831E541E050E06C
:104AE0000E943429CA01B9016C5F7F4F8F4F9F4FDD
:104AF00027E030E040E050E00E94342981E001C02E
:104B0000880F6A95EAF720E030E0F901E456FC4F9F
:104B10009285992371F0478141130BC04085401362
:104B200008C04185482329F0913049F0923071F056
:104B3000FECD2C5F3F4F2031310539F7F8CD809104
:104B40000D028111F4CD90931A02F1CD80910D02E6
:104B5000882309F4ECCD10921A02E9CD81E593E0A7
:104B60000E9460064B015C010E94F80EC0906D032C
:104B7000D0906E03E0906F03F09070039B01AC0146
:104B80002C193D094E095F09293E33404105510565
:104B900040F060936D0370936E0380936F03909366
:104BA00070038091720390917303039729F021E0C1
:104BB00030E040E050E004C022E030E040E050E06F
:104BC000C301B2010E943429DA01C90188519C4F06
:104BD000AF4FBF4F88159905AA05BB0578F58091A1
:104BE000610390916203A0916303B0916403892BE8
:104BF0008A2B8B2B59F40E94F80E609361037093FB
:104C00006203809363039093640320C00E94F80EB4
:104C1000409061035090620360906303709064035E
:104C2000DC01CB0184199509A609B709813A9F4097
:104C3000A105B10558F08AE690E077CD10926103A6
:104C400010926203109263031092640361E088E0A3
:104C50000E94171C86E791E00E94151CC501B40153
:104C60000E94580C0E94151C20CE10921A0310921C
:104C70001B0310921C0310921D0381E190E00E941F
:104C8000960961E070E086E093E00E94C9082FCEAB
:104C900064E070E081E593E00E94C6076CCE10925C
:104CA000650310926603109267031092680382E115
:104CB00090E00E94960961E070E081E593E00E9437
:104CC000C9087BCE64E070E086E093E00E94C607EE
:104CD000B8CE10921E0310921F0310922003109260
:104CE000210360E070E086E093E00E94C90881E55E
:104CF00093E00E94AE08811129C080915F039091DA
:104D00006003029709F00BCC21C00230110509F0B5
:104D10000ACC8091140390911503019739F481E036
:104D200080930C02109315030093140380919E034B
:104D3000813039F480910C02813019F48DE090E0DB
:104D400002C089E090E00E949609EDCB64E070E03B
:104D500081E593E00E94C607E2CB0130110549F4DA
:104D600081E090E00E9496091093150300931403CC
:104D7000C9CB0230110509F4C5CBD5CB109269031C
:104D800010926A0310926B0310926C0360E070E063
:104D900081E593E00E94C90886E093E00E94AE0896
:104DA00081112BC08091140390911503029709F093
:104DB000FBCB23C02A8D3B8D2230310509F0F8CB87
:104DC00080915F0390916003019739F482E08093B2
:104DD0000C023093600320935F0380919E03813027
:104DE00039F480910C02823019F48EE090E002C018
:104DF0008AE090E00E949609DBCB64E070E086E0F8
:104E000093E00E94C607D0CB2230310509F4BFCB16
:104E1000CFCB4A8D5B8D4130510559F482E090E053
:104E20000E949609CA8CDB8CD0926003C0925F030B
:104E3000AECB4230510509F4AACBBACBEF92FF9228
:104E40000F931F93CF93DF93CDB7DEB768970FB65D
:104E5000F894DEBF0FBECDBF1092F9021092F80297
:104E60001092F7021092F6020E94EE141092FD02C8
:104E70001092FC0288EE93E0A0E0B0E08093FE0286
:104E80009093FF02A0930003B09301038EE191E0A1
:104E90009093FB028093FA028CE0E9E4F1E0DE01FA
:104EA0001D9601900D928A95E1F78CE0EDE3F1E01B
:104EB000DE01119601900D928A95E1F78CE0FE01DA
:104EC0003D96A6ECB3E001900D928A95E1F78CE057
:104ED000FE013196A2EDB3E001900D928A95E1F7C3
:104EE0001092BA031092B90389E391E09093B8034A
:104EF0008093B70382E08093C2031092C10380E2E3
:104F00008093C0031092BB031092C5031092B303A9
:104F10001092B4031092B5031092B6038CE9E82EF8
:104F200083E0F82E00E010E0C8010E94812CD70138
:104F30008D937D010F5F1F4F0B311105A9F78091F4
:104F40009C0390919D03813F910561F181EF90E079
:104F500090939D0380939C0310929E038CE090E0BD
:104F60009093A00380939F031092A1031092A20339
:104F700080E090E0FC01E456FC4F12861782108618
:104F80001186049680319105A9F71092B30310920F
:104F9000B4031092B5031092B6038CE993E00E941B
:104FA000C41C65C080919E03823010F010929E0355
:104FB00040919F035091A003EAE2F1E020E0B1E0CC
:104FC000E533FB0739F0819190E084179507B9F735
:104FD00021E0F5CF211106C08CE090E09093A00372
:104FE00080939F03E6EAF3E08081833008F010822B
:104FF000DF0113978C91883108F01C92DF01129722
:105000008C918C3308F01C92DF018E918F778C93FA
:10501000349683E0E63BF80739F78091B303082E16
:10502000000C990B97FF03C0919581959109069704
:1050300014F01092B3038091B403082E000C990B66
:1050400097FF03C0919581959109069714F01092EE
:10505000B4038091B503865F8B3010F01092B503D6
:105060008091B603865F8B3010F01092B60381E01A
:1050700090E0909307038093060321E533E030939B
:1050800009032093080328E030E030930B032093BA
:105090000A032AE030E030930D0320930C03909331
:1050A0000F0380930E0327E030E030931103209329
:1050B0001003109213031092120310921503109212
:1050C00014031092160310921703109218031092F3
:1050D000190310921A0310921B0310921C031092D2
:1050E0001D0310921E0310921F03109220031092B2
:1050F0002103109222031092230310922403109292
:10510000250310922603109228031092270388E2A9
:10511000E9E2F3E0DF01982F1D929A95E9F742E06A
:1051200050E0509352034093510346E053E05093B4
:10513000540340935303309356032093550329E0BF
:1051400030E0309358032093570310925A03109283
:10515000590326E030E030935C0320935B03109208
:105160005E0310925D031092600310925F03109231
:105170006103109262031092630310926403109211
:1051800065031092660310926703109268031092F1
:10519000690310926A0310926B0310926C031092D1
:1051A0006D0310926E0310926F03109270031092B1
:1051B00071031092730310927203E4E7F3E0DF01CE
:1051C0001D928A95E9F768960FB6F894DEBF0FBE78
:1051D000CDBFDF91CF911F910F91FF90EF90089578
:1051E000DB018F939F930E949129BF91AF91A29F62
:1051F000800D911DA39F900DB29F900D11240895D5
:10520000991B79E004C0991F961708F0961B881F18
:105210007A95C9F780950895AA1BBB1B51E107C079
:10522000AA1FBB1FA617B70710F0A61BB70B881F36
:10523000991F5A95A9F780959095BC01CD010895C5
:1052400097FB072E16F4009407D077FD09D00E9433
:105250000C2907FC05D03EF4909581959F4F089549
:10526000709561957F4F0895A1E21A2EAA1BBB1B72
:10527000FD010DC0AA1FBB1FEE1FFF1FA217B30722
:10528000E407F50720F0A21BB30BE40BF50B661F38
:10529000771F881F991F1A9469F7609570958095FC
:1052A00090959B01AC01BD01CF010895052E97FBA0
:1052B0001EF400940E946D2957FD07D00E943429E6
:1052C00007FC03D04EF40C946D2950954095309511
:1052D00021953F4F4F4F5F4F089590958095709562
:1052E00061957F4F8F4F9F4F0895EE0FFF1F0590E1
:1052F000F491E02D0994A29FB001B39FC001A39F38
:10530000700D811D1124911DB29F700D811D1124FE
:10531000911D08950E947B29B7FF0895821B930B6E
:1053200008950E947B29A59F900DB49F900DA49F86
:10533000800D911D11240895B7FF0C9491290E94AE
:105340009129821B930B089581E090E0F8940C94CE
:10535000CE2CAEE0B0E0EFEAF9E20C94A52C0D897A
:105360001E898F89988D26E02C831A83098397FFE5
:1053700002C080E090E801979E838D83AE01455E78
:105380005F4F698D7A8DCE0101960E94FC294D8177
:105390005E8157FD0AC02F813885421753070CF4F0
:1053A0009A01F801E20FF31F10822E96E4E00C94AC
:1053B000C12CAEE0B0E0EFEDF9E20C94A52C0D8924
:1053C0001E8986E08C831A8309838FEF9FE79E8373
:1053D0008D83AE01475E5F4F6F89788DCE01019658
:1053E0000E94FC292F813885F801E20FF31F1082FB
:1053F0002E96E4E00C94C12CACE0B0E0E2E0FAE2DE
:105400000C94972C7C016B018A01FC011782168297
:10541000838181FFBDC1CE0101964C01F7019381CB
:10542000F60193FD859193FF81916F01882309F423
:10543000ABC1853239F493FD859193FF81916F0162
:10544000853229F4B70190E00E94E42BE7CF512C7C
:10545000312C20E02032A0F48B3269F030F480321D
:1054600059F0833269F420612CC08D3239F08033D9
:1054700039F4216026C02260246023C0286021C046
:1054800027FD27C030ED380F3A3078F426FF06C0EC
:10549000FAE05F9E300D1124532E13C08AE0389E2F
:1054A000300D1124332E20620CC08E3221F426FDE3
:1054B0006BC1206406C08C3611F4206802C08836A7
:1054C00041F4F60193FD859193FF81916F01811164
:1054D000C1CF982F9F7D9554933028F40C5F1F4FB8
:1054E000FFE3F9830DC0833631F0833771F08335E4
:1054F00009F05BC022C0F801808189830E5F1F4FD5
:1055000044244394512C540115C03801F2E06F0E2D
:10551000711CF801A080B18026FF03C0652D70E0EA
:1055200002C06FEF7FEFC5012C870E94D92B2C01A1
:1055300083012C852F77222E17C03801F2E06F0EE1
:10554000711CF801A080B18026FF03C0652D70E0BA
:1055500002C06FEF7FEFC5012C870E94CE2B2C017C
:105560002C852068222E830123FC1BC0832D90E014
:1055700048165906B0F4B70180E290E00E94E42B8F
:105580003A94F4CFF50127FC859127FE81915F01C4
:10559000B70190E00E94E42B31103A94F1E04F1AE9
:1055A00051084114510471F7E5C0843611F0893671
:1055B00039F5F80127FF07C06081718182819381ED
:1055C0000C5F1F4F08C060817181072E000C880B93
:1055D000990B0E5F1F4F2F76722E97FF09C0909583
:1055E0008095709561957F4F8F4F9F4F2068722EE9
:1055F0002AE030E0A4010E941C2CA82EA81844C068
:10560000853729F42F7EB22E2AE030E025C0F22F14
:10561000F97FBF2E8F36C1F018F4883579F0B4C009
:10562000803719F0883721F0AFC02F2F2061B22EBC
:10563000B4FE0DC08B2D8460B82E09C024FF0AC0B3
:105640009F2F9660B92E06C028E030E005C020E10B
:1056500030E002C020E132E0F801B7FE07C060810F
:105660007181828193810C5F1F4F06C060817181BF
:1056700080E090E00E5F1F4FA4010E941C2CA82E1A
:10568000A818FB2DFF777F2E76FE0BC0372D3E7FAF
:10569000A51450F474FE0AC072FC08C0372D3E7E7B
:1056A00005C0BA2C372D03C0BA2C01C0B52C34FF6D
:1056B0000DC0FE01EA0DF11D8081803311F4397EA9
:1056C00009C032FF06C0B394B39404C0832F867818
:1056D00009F0B39433FD13C030FF06C05A2CB31445
:1056E00018F4530C5B18B32CB31468F4B70180E2C0
:1056F00090E03C870E94E42BB3943C85F5CFB31433
:1057000010F43B1801C0312C34FF12C0B70180E304
:1057100090E03C870E94E42B3C8532FF17C031FDAE
:1057200003C088E790E002C088E590E0B7010CC0B4
:10573000832F867859F031FF02C08BE201C080E2EE
:1057400037FD8DE2B70190E00E94E42BA51438F4F8
:10575000B70180E390E00E94E42B5A94F7CFAA941B
:10576000F401EA0DF11D8081B70190E00E94E42B65
:10577000A110F5CF332009F451CEB70180E290E0BB
:105780000E94E42B3A94F6CFF7018681978102C0FC
:105790008FEF9FEF2C96E2E10C94B32CFC01059067
:1057A000615070400110D8F7809590958E0F9F1F23
:1057B0000895FC016150704001900110D8F7809568
:1057C00090958E0F9F1F08950F931F93CF93DF9394
:1057D000FB01238121FD03C08FEF9FEF28C022FF33
:1057E00016C046815781248135814217530744F4FE
:1057F000A081B1819D012F5F3F4F318320838C9326
:10580000268137812F5F3F4F3783268310C0EB01FE
:10581000092F182F0084F185E02D0995892BE1F6D9
:105820008E819F8101969F838E83812F902FDF91A0
:10583000CF911F910F910895FA01AA27283051F1B5
:10584000203181F1E8946F936E7F6E5F7F4F8F4FB1
:105850009F4FAF4FB1E03ED0B4E03CD0670F781F10
:10586000891F9A1FA11D680F791F8A1F911DA11DF5
:105870006A0F711D811D911DA11D20D009F468942E
:105880003F912AE0269F11243019305D3193DEF6D6
:10589000CF010895462F4770405D4193B3E00FD08C
:1058A000C9F7F6CF462F4F70405D4A3318F0495D77
:1058B00031FD4052419302D0A9F7EACFB4E0A6955A
:1058C0009795879577956795BA95C9F7009761057C
:1058D000710508959B01AC010A2E069457954795D2
:1058E00037952795BA95C9F7620F731F841F951FC7
:1058F000A01D0895FB01DC0105900D920020E1F749
:105900000895F999FECF92BD81BDF89A992780B587
:105910000895262FF999FECF1FBA92BD81BD20BDF3
:105920000FB6F894FA9AF99A0FBE019608952F923D
:105930003F924F925F926F927F928F929F92AF921F
:10594000BF92CF92DF92EF92FF920F931F93CF936C
:10595000DF93CDB7DEB7CA1BDB0B0FB6F894DEBF03
:105960000FBECDBF09942A88398848885F846E8429
:105970007D848C849B84AA84B984C884DF80EE8073
:10598000FD800C811B81AA81B981CE0FD11D0FB67C
:10599000F894DEBF0FBECDBFED010895F894FFCFA0
:1059A000520D520D10181F1C1F1E1F1E1F1F1E1FE1
:1059B0001E1F000040001400540000000000E10D14
:1059C000B10D530D9D0D8E0D8D0D0C1014181C1E58
:1059D0002024282C3200000000B613D90C535400A8
:1059E00000000001010B02000044535400000002BB
:1059F0000103023C0000000100080020004000807C
:105A00000000010004000001000800400000010047
:105A1000042000413A00423A00410042002D002B90
:025A2000000084
:00000001FF
